{
	"contracts/MoneyLock.sol": {
		"MoneyLock": {
			"abi": [
				{
					"inputs": [
						{
							"internalType": "address payable",
							"name": "_depositHolder",
							"type": "address"
						},
						{
							"internalType": "address payable",
							"name": "_otherParty",
							"type": "address"
						},
						{
							"internalType": "uint256",
							"name": "_securityDeposit",
							"type": "uint256"
						},
						{
							"internalType": "uint256",
							"name": "_endDate",
							"type": "uint256"
						},
						{
							"internalType": "uint256",
							"name": "_daysForWithdrawal",
							"type": "uint256"
						}
					],
					"stateMutability": "nonpayable",
					"type": "constructor"
				},
				{
					"inputs": [],
					"name": "daysForWithdrawal",
					"outputs": [
						{
							"internalType": "uint256",
							"name": "",
							"type": "uint256"
						}
					],
					"stateMutability": "view",
					"type": "function"
				},
				{
					"inputs": [],
					"name": "endDate",
					"outputs": [
						{
							"internalType": "uint256",
							"name": "",
							"type": "uint256"
						}
					],
					"stateMutability": "view",
					"type": "function"
				},
				{
					"inputs": [],
					"name": "releaseDeposit",
					"outputs": [],
					"stateMutability": "nonpayable",
					"type": "function"
				},
				{
					"inputs": [],
					"name": "securityDeposit",
					"outputs": [
						{
							"internalType": "uint256",
							"name": "",
							"type": "uint256"
						}
					],
					"stateMutability": "view",
					"type": "function"
				}
			],
			"devdoc": {
				"kind": "dev",
				"methods": {},
				"version": 1
			},
			"evm": {
				"assembly": "    /* \"contracts/MoneyLock.sol\":84:1928  contract MoneyLock {... */\n  mstore(0x40, 0x80)\n    /* \"contracts/MoneyLock.sol\":550:1166  constructor(address payable _depositHolder, address payable _otherParty, uint256 _securityDeposit, uint256 _endDate, uint256 _daysForWithdrawal) {... */\n  callvalue\n  dup1\n  iszero\n  tag_1\n  jumpi\n  0x00\n  dup1\n  revert\ntag_1:\n  pop\n  mload(0x40)\n  sub(codesize, bytecodeSize)\n  dup1\n  bytecodeSize\n  dup4\n  codecopy\n  dup2\n  dup2\n  add\n  0x40\n  mstore\n  dup2\n  add\n  swap1\n  tag_2\n  swap2\n  swap1\n  tag_3\n  jump\t// in\ntag_2:\n    /* \"contracts/MoneyLock.sol\":774:788  _depositHolder */\n  dup5\n    /* \"contracts/MoneyLock.sol\":758:771  depositHolder */\n  0x00\n  dup1\n    /* \"contracts/MoneyLock.sol\":758:788  depositHolder = _depositHolder */\n  0x0100\n  exp\n  dup2\n  sload\n  dup2\n  0xffffffffffffffffffffffffffffffffffffffff\n  mul\n  not\n  and\n  swap1\n  dup4\n  0xffffffffffffffffffffffffffffffffffffffff\n  and\n  mul\n  or\n  swap1\n  sstore\n  pop\n    /* \"contracts/MoneyLock.sol\":861:872  _otherParty */\n  dup4\n    /* \"contracts/MoneyLock.sol\":848:858  otherParty */\n  0x01\n  0x00\n    /* \"contracts/MoneyLock.sol\":848:872  otherParty = _otherParty */\n  0x0100\n  exp\n  dup2\n  sload\n  dup2\n  0xffffffffffffffffffffffffffffffffffffffff\n  mul\n  not\n  and\n  swap1\n  dup4\n  0xffffffffffffffffffffffffffffffffffffffff\n  and\n  mul\n  or\n  swap1\n  sstore\n  pop\n    /* \"contracts/MoneyLock.sol\":947:963  _securityDeposit */\n  dup3\n    /* \"contracts/MoneyLock.sol\":929:944  securityDeposit */\n  0x02\n    /* \"contracts/MoneyLock.sol\":929:963  securityDeposit = _securityDeposit */\n  dup2\n  swap1\n  sstore\n  pop\n    /* \"contracts/MoneyLock.sol\":1032:1040  _endDate */\n  dup2\n    /* \"contracts/MoneyLock.sol\":1022:1029  endDate */\n  0x03\n    /* \"contracts/MoneyLock.sol\":1022:1040  endDate = _endDate */\n  dup2\n  swap1\n  sstore\n  pop\n    /* \"contracts/MoneyLock.sol\":1140:1158  _daysForWithdrawal */\n  dup1\n    /* \"contracts/MoneyLock.sol\":1120:1137  daysForWithdrawal */\n  0x04\n    /* \"contracts/MoneyLock.sol\":1120:1158  daysForWithdrawal = _daysForWithdrawal */\n  dup2\n  swap1\n  sstore\n  pop\n    /* \"contracts/MoneyLock.sol\":550:1166  constructor(address payable _depositHolder, address payable _otherParty, uint256 _securityDeposit, uint256 _endDate, uint256 _daysForWithdrawal) {... */\n  pop\n  pop\n  pop\n  pop\n  pop\n    /* \"contracts/MoneyLock.sol\":84:1928  contract MoneyLock {... */\n  jump(tag_6)\n    /* \"#utility.yul\":88:205   */\ntag_8:\n    /* \"#utility.yul\":197:198   */\n  0x00\n    /* \"#utility.yul\":194:195   */\n  dup1\n    /* \"#utility.yul\":187:199   */\n  revert\n    /* \"#utility.yul\":334:460   */\ntag_10:\n    /* \"#utility.yul\":371:378   */\n  0x00\n    /* \"#utility.yul\":411:453   */\n  0xffffffffffffffffffffffffffffffffffffffff\n    /* \"#utility.yul\":404:409   */\n  dup3\n    /* \"#utility.yul\":400:454   */\n  and\n    /* \"#utility.yul\":389:454   */\n  swap1\n  pop\n    /* \"#utility.yul\":334:460   */\n  swap2\n  swap1\n  pop\n  jump\t// out\n    /* \"#utility.yul\":466:570   */\ntag_11:\n    /* \"#utility.yul\":511:518   */\n  0x00\n    /* \"#utility.yul\":540:564   */\n  tag_23\n    /* \"#utility.yul\":558:563   */\n  dup3\n    /* \"#utility.yul\":540:564   */\n  tag_10\n  jump\t// in\ntag_23:\n    /* \"#utility.yul\":529:564   */\n  swap1\n  pop\n    /* \"#utility.yul\":466:570   */\n  swap2\n  swap1\n  pop\n  jump\t// out\n    /* \"#utility.yul\":576:714   */\ntag_12:\n    /* \"#utility.yul\":657:689   */\n  tag_25\n    /* \"#utility.yul\":683:688   */\n  dup2\n    /* \"#utility.yul\":657:689   */\n  tag_11\n  jump\t// in\ntag_25:\n    /* \"#utility.yul\":650:655   */\n  dup2\n    /* \"#utility.yul\":647:690   */\n  eq\n    /* \"#utility.yul\":637:708   */\n  tag_26\n  jumpi\n    /* \"#utility.yul\":704:705   */\n  0x00\n    /* \"#utility.yul\":701:702   */\n  dup1\n    /* \"#utility.yul\":694:706   */\n  revert\n    /* \"#utility.yul\":637:708   */\ntag_26:\n    /* \"#utility.yul\":576:714   */\n  pop\n  jump\t// out\n    /* \"#utility.yul\":720:879   */\ntag_13:\n    /* \"#utility.yul\":785:790   */\n  0x00\n    /* \"#utility.yul\":816:822   */\n  dup2\n    /* \"#utility.yul\":810:823   */\n  mload\n    /* \"#utility.yul\":801:823   */\n  swap1\n  pop\n    /* \"#utility.yul\":832:873   */\n  tag_28\n    /* \"#utility.yul\":867:872   */\n  dup2\n    /* \"#utility.yul\":832:873   */\n  tag_12\n  jump\t// in\ntag_28:\n    /* \"#utility.yul\":720:879   */\n  swap3\n  swap2\n  pop\n  pop\n  jump\t// out\n    /* \"#utility.yul\":885:962   */\ntag_14:\n    /* \"#utility.yul\":922:929   */\n  0x00\n    /* \"#utility.yul\":951:956   */\n  dup2\n    /* \"#utility.yul\":940:956   */\n  swap1\n  pop\n    /* \"#utility.yul\":885:962   */\n  swap2\n  swap1\n  pop\n  jump\t// out\n    /* \"#utility.yul\":968:1090   */\ntag_15:\n    /* \"#utility.yul\":1041:1065   */\n  tag_31\n    /* \"#utility.yul\":1059:1064   */\n  dup2\n    /* \"#utility.yul\":1041:1065   */\n  tag_14\n  jump\t// in\ntag_31:\n    /* \"#utility.yul\":1034:1039   */\n  dup2\n    /* \"#utility.yul\":1031:1066   */\n  eq\n    /* \"#utility.yul\":1021:1084   */\n  tag_32\n  jumpi\n    /* \"#utility.yul\":1080:1081   */\n  0x00\n    /* \"#utility.yul\":1077:1078   */\n  dup1\n    /* \"#utility.yul\":1070:1082   */\n  revert\n    /* \"#utility.yul\":1021:1084   */\ntag_32:\n    /* \"#utility.yul\":968:1090   */\n  pop\n  jump\t// out\n    /* \"#utility.yul\":1096:1239   */\ntag_16:\n    /* \"#utility.yul\":1153:1158   */\n  0x00\n    /* \"#utility.yul\":1184:1190   */\n  dup2\n    /* \"#utility.yul\":1178:1191   */\n  mload\n    /* \"#utility.yul\":1169:1191   */\n  swap1\n  pop\n    /* \"#utility.yul\":1200:1233   */\n  tag_34\n    /* \"#utility.yul\":1227:1232   */\n  dup2\n    /* \"#utility.yul\":1200:1233   */\n  tag_15\n  jump\t// in\ntag_34:\n    /* \"#utility.yul\":1096:1239   */\n  swap3\n  swap2\n  pop\n  pop\n  jump\t// out\n    /* \"#utility.yul\":1245:2254   */\ntag_3:\n    /* \"#utility.yul\":1367:1373   */\n  0x00\n    /* \"#utility.yul\":1375:1381   */\n  dup1\n    /* \"#utility.yul\":1383:1389   */\n  0x00\n    /* \"#utility.yul\":1391:1397   */\n  dup1\n    /* \"#utility.yul\":1399:1405   */\n  0x00\n    /* \"#utility.yul\":1448:1451   */\n  0xa0\n    /* \"#utility.yul\":1436:1445   */\n  dup7\n    /* \"#utility.yul\":1427:1434   */\n  dup9\n    /* \"#utility.yul\":1423:1446   */\n  sub\n    /* \"#utility.yul\":1419:1452   */\n  slt\n    /* \"#utility.yul\":1416:1536   */\n  iszero\n  tag_36\n  jumpi\n    /* \"#utility.yul\":1455:1534   */\n  tag_37\n  tag_8\n  jump\t// in\ntag_37:\n    /* \"#utility.yul\":1416:1536   */\ntag_36:\n    /* \"#utility.yul\":1575:1576   */\n  0x00\n    /* \"#utility.yul\":1600:1672   */\n  tag_38\n    /* \"#utility.yul\":1664:1671   */\n  dup9\n    /* \"#utility.yul\":1655:1661   */\n  dup3\n    /* \"#utility.yul\":1644:1653   */\n  dup10\n    /* \"#utility.yul\":1640:1662   */\n  add\n    /* \"#utility.yul\":1600:1672   */\n  tag_13\n  jump\t// in\ntag_38:\n    /* \"#utility.yul\":1590:1672   */\n  swap6\n  pop\n    /* \"#utility.yul\":1546:1682   */\n  pop\n    /* \"#utility.yul\":1721:1723   */\n  0x20\n    /* \"#utility.yul\":1747:1819   */\n  tag_39\n    /* \"#utility.yul\":1811:1818   */\n  dup9\n    /* \"#utility.yul\":1802:1808   */\n  dup3\n    /* \"#utility.yul\":1791:1800   */\n  dup10\n    /* \"#utility.yul\":1787:1809   */\n  add\n    /* \"#utility.yul\":1747:1819   */\n  tag_13\n  jump\t// in\ntag_39:\n    /* \"#utility.yul\":1737:1819   */\n  swap5\n  pop\n    /* \"#utility.yul\":1692:1829   */\n  pop\n    /* \"#utility.yul\":1868:1870   */\n  0x40\n    /* \"#utility.yul\":1894:1958   */\n  tag_40\n    /* \"#utility.yul\":1950:1957   */\n  dup9\n    /* \"#utility.yul\":1941:1947   */\n  dup3\n    /* \"#utility.yul\":1930:1939   */\n  dup10\n    /* \"#utility.yul\":1926:1948   */\n  add\n    /* \"#utility.yul\":1894:1958   */\n  tag_16\n  jump\t// in\ntag_40:\n    /* \"#utility.yul\":1884:1958   */\n  swap4\n  pop\n    /* \"#utility.yul\":1839:1968   */\n  pop\n    /* \"#utility.yul\":2007:2009   */\n  0x60\n    /* \"#utility.yul\":2033:2097   */\n  tag_41\n    /* \"#utility.yul\":2089:2096   */\n  dup9\n    /* \"#utility.yul\":2080:2086   */\n  dup3\n    /* \"#utility.yul\":2069:2078   */\n  dup10\n    /* \"#utility.yul\":2065:2087   */\n  add\n    /* \"#utility.yul\":2033:2097   */\n  tag_16\n  jump\t// in\ntag_41:\n    /* \"#utility.yul\":2023:2097   */\n  swap3\n  pop\n    /* \"#utility.yul\":1978:2107   */\n  pop\n    /* \"#utility.yul\":2146:2149   */\n  0x80\n    /* \"#utility.yul\":2173:2237   */\n  tag_42\n    /* \"#utility.yul\":2229:2236   */\n  dup9\n    /* \"#utility.yul\":2220:2226   */\n  dup3\n    /* \"#utility.yul\":2209:2218   */\n  dup10\n    /* \"#utility.yul\":2205:2227   */\n  add\n    /* \"#utility.yul\":2173:2237   */\n  tag_16\n  jump\t// in\ntag_42:\n    /* \"#utility.yul\":2163:2237   */\n  swap2\n  pop\n    /* \"#utility.yul\":2117:2247   */\n  pop\n    /* \"#utility.yul\":1245:2254   */\n  swap3\n  swap6\n  pop\n  swap3\n  swap6\n  swap1\n  swap4\n  pop\n  jump\t// out\n    /* \"contracts/MoneyLock.sol\":84:1928  contract MoneyLock {... */\ntag_6:\n  dataSize(sub_0)\n  dup1\n  dataOffset(sub_0)\n  0x00\n  codecopy\n  0x00\n  return\nstop\n\nsub_0: assembly {\n        /* \"contracts/MoneyLock.sol\":84:1928  contract MoneyLock {... */\n      mstore(0x40, 0x80)\n      callvalue\n      dup1\n      iszero\n      tag_1\n      jumpi\n      0x00\n      dup1\n      revert\n    tag_1:\n      pop\n      jumpi(tag_2, lt(calldatasize, 0x04))\n      shr(0xe0, calldataload(0x00))\n      dup1\n      0x1e9810e9\n      eq\n      tag_3\n      jumpi\n      dup1\n      0x220e5ab3\n      eq\n      tag_4\n      jumpi\n      dup1\n      0x6d5e7a15\n      eq\n      tag_5\n      jumpi\n      dup1\n      0xc24a0f8b\n      eq\n      tag_6\n      jumpi\n    tag_2:\n      0x00\n      dup1\n      revert\n        /* \"contracts/MoneyLock.sol\":1246:1925  function releaseDeposit() public {... */\n    tag_3:\n      tag_7\n      tag_8\n      jump\t// in\n    tag_7:\n      stop\n        /* \"contracts/MoneyLock.sol\":307:337  uint256 public securityDeposit */\n    tag_4:\n      tag_9\n      tag_10\n      jump\t// in\n    tag_9:\n      mload(0x40)\n      tag_11\n      swap2\n      swap1\n      tag_12\n      jump\t// in\n    tag_11:\n      mload(0x40)\n      dup1\n      swap2\n      sub\n      swap1\n      return\n        /* \"contracts/MoneyLock.sol\":462:494  uint256 public daysForWithdrawal */\n    tag_5:\n      tag_13\n      tag_14\n      jump\t// in\n    tag_13:\n      mload(0x40)\n      tag_15\n      swap2\n      swap1\n      tag_12\n      jump\t// in\n    tag_15:\n      mload(0x40)\n      dup1\n      swap2\n      sub\n      swap1\n      return\n        /* \"contracts/MoneyLock.sol\":378:400  uint256 public endDate */\n    tag_6:\n      tag_16\n      tag_17\n      jump\t// in\n    tag_16:\n      mload(0x40)\n      tag_18\n      swap2\n      swap1\n      tag_12\n      jump\t// in\n    tag_18:\n      mload(0x40)\n      dup1\n      swap2\n      sub\n      swap1\n      return\n        /* \"contracts/MoneyLock.sol\":1246:1925  function releaseDeposit() public {... */\n    tag_8:\n        /* \"contracts/MoneyLock.sol\":1366:1379  depositHolder */\n      0x00\n      dup1\n      sload\n      swap1\n      0x0100\n      exp\n      swap1\n      div\n      0xffffffffffffffffffffffffffffffffffffffff\n      and\n        /* \"contracts/MoneyLock.sol\":1352:1379  msg.sender == depositHolder */\n      0xffffffffffffffffffffffffffffffffffffffff\n      and\n        /* \"contracts/MoneyLock.sol\":1352:1362  msg.sender */\n      caller\n        /* \"contracts/MoneyLock.sol\":1352:1379  msg.sender == depositHolder */\n      0xffffffffffffffffffffffffffffffffffffffff\n      and\n      eq\n        /* \"contracts/MoneyLock.sol\":1344:1432  require(msg.sender == depositHolder, \"Only the deposit holder can release the deposit.\") */\n      tag_20\n      jumpi\n      mload(0x40)\n      0x08c379a000000000000000000000000000000000000000000000000000000000\n      dup2\n      mstore\n      0x04\n      add\n      tag_21\n      swap1\n      tag_22\n      jump\t// in\n    tag_21:\n      mload(0x40)\n      dup1\n      swap2\n      sub\n      swap1\n      revert\n    tag_20:\n        /* \"contracts/MoneyLock.sol\":1515:1522  endDate */\n      sload(0x03)\n        /* \"contracts/MoneyLock.sol\":1496:1511  block.timestamp */\n      timestamp\n        /* \"contracts/MoneyLock.sol\":1496:1522  block.timestamp >= endDate */\n      lt\n      iszero\n        /* \"contracts/MoneyLock.sol\":1488:1555  require(block.timestamp >= endDate, \"Agreement has not ended yet.\") */\n      tag_23\n      jumpi\n      mload(0x40)\n      0x08c379a000000000000000000000000000000000000000000000000000000000\n      dup2\n      mstore\n      0x04\n      add\n      tag_24\n      swap1\n      tag_25\n      jump\t// in\n    tag_24:\n      mload(0x40)\n      dup1\n      swap2\n      sub\n      swap1\n      revert\n    tag_23:\n        /* \"contracts/MoneyLock.sol\":1724:1730  1 days */\n      0x015180\n        /* \"contracts/MoneyLock.sol\":1704:1721  daysForWithdrawal */\n      sload(0x04)\n        /* \"contracts/MoneyLock.sol\":1704:1730  daysForWithdrawal * 1 days */\n      tag_26\n      swap2\n      swap1\n      tag_27\n      jump\t// in\n    tag_26:\n        /* \"contracts/MoneyLock.sol\":1694:1701  endDate */\n      sload(0x03)\n        /* \"contracts/MoneyLock.sol\":1694:1730  endDate + daysForWithdrawal * 1 days */\n      tag_28\n      swap2\n      swap1\n      tag_29\n      jump\t// in\n    tag_28:\n        /* \"contracts/MoneyLock.sol\":1675:1690  block.timestamp */\n      timestamp\n        /* \"contracts/MoneyLock.sol\":1675:1730  block.timestamp <= endDate + daysForWithdrawal * 1 days */\n      gt\n      iszero\n        /* \"contracts/MoneyLock.sol\":1667:1807  require(block.timestamp <= endDate + daysForWithdrawal * 1 days, \"Other party has claimed the deposit within the specified number of days.\") */\n      tag_30\n      jumpi\n      mload(0x40)\n      0x08c379a000000000000000000000000000000000000000000000000000000000\n      dup2\n      mstore\n      0x04\n      add\n      tag_31\n      swap1\n      tag_32\n      jump\t// in\n    tag_31:\n      mload(0x40)\n      dup1\n      swap2\n      sub\n      swap1\n      revert\n    tag_30:\n        /* \"contracts/MoneyLock.sol\":1881:1891  otherParty */\n      0x01\n      0x00\n      swap1\n      sload\n      swap1\n      0x0100\n      exp\n      swap1\n      div\n      0xffffffffffffffffffffffffffffffffffffffff\n      and\n        /* \"contracts/MoneyLock.sol\":1881:1900  otherParty.transfer */\n      0xffffffffffffffffffffffffffffffffffffffff\n      and\n        /* \"contracts/MoneyLock.sol\":1881:1917  otherParty.transfer(securityDeposit) */\n      0x08fc\n        /* \"contracts/MoneyLock.sol\":1901:1916  securityDeposit */\n      sload(0x02)\n        /* \"contracts/MoneyLock.sol\":1881:1917  otherParty.transfer(securityDeposit) */\n      swap1\n      dup2\n      iszero\n      mul\n      swap1\n      mload(0x40)\n      0x00\n      mload(0x40)\n      dup1\n      dup4\n      sub\n      dup2\n      dup6\n      dup9\n      dup9\n      call\n      swap4\n      pop\n      pop\n      pop\n      pop\n      iszero\n      dup1\n      iszero\n      tag_34\n      jumpi\n      returndatasize\n      0x00\n      dup1\n      returndatacopy\n      revert(0x00, returndatasize)\n    tag_34:\n      pop\n        /* \"contracts/MoneyLock.sol\":1246:1925  function releaseDeposit() public {... */\n      jump\t// out\n        /* \"contracts/MoneyLock.sol\":307:337  uint256 public securityDeposit */\n    tag_10:\n      sload(0x02)\n      dup2\n      jump\t// out\n        /* \"contracts/MoneyLock.sol\":462:494  uint256 public daysForWithdrawal */\n    tag_14:\n      sload(0x04)\n      dup2\n      jump\t// out\n        /* \"contracts/MoneyLock.sol\":378:400  uint256 public endDate */\n    tag_17:\n      sload(0x03)\n      dup2\n      jump\t// out\n        /* \"#utility.yul\":7:84   */\n    tag_35:\n        /* \"#utility.yul\":44:51   */\n      0x00\n        /* \"#utility.yul\":73:78   */\n      dup2\n        /* \"#utility.yul\":62:78   */\n      swap1\n      pop\n        /* \"#utility.yul\":7:84   */\n      swap2\n      swap1\n      pop\n      jump\t// out\n        /* \"#utility.yul\":90:208   */\n    tag_36:\n        /* \"#utility.yul\":177:201   */\n      tag_48\n        /* \"#utility.yul\":195:200   */\n      dup2\n        /* \"#utility.yul\":177:201   */\n      tag_35\n      jump\t// in\n    tag_48:\n        /* \"#utility.yul\":172:175   */\n      dup3\n        /* \"#utility.yul\":165:202   */\n      mstore\n        /* \"#utility.yul\":90:208   */\n      pop\n      pop\n      jump\t// out\n        /* \"#utility.yul\":214:436   */\n    tag_12:\n        /* \"#utility.yul\":307:311   */\n      0x00\n        /* \"#utility.yul\":345:347   */\n      0x20\n        /* \"#utility.yul\":334:343   */\n      dup3\n        /* \"#utility.yul\":330:348   */\n      add\n        /* \"#utility.yul\":322:348   */\n      swap1\n      pop\n        /* \"#utility.yul\":358:429   */\n      tag_50\n        /* \"#utility.yul\":426:427   */\n      0x00\n        /* \"#utility.yul\":415:424   */\n      dup4\n        /* \"#utility.yul\":411:428   */\n      add\n        /* \"#utility.yul\":402:408   */\n      dup5\n        /* \"#utility.yul\":358:429   */\n      tag_36\n      jump\t// in\n    tag_50:\n        /* \"#utility.yul\":214:436   */\n      swap3\n      swap2\n      pop\n      pop\n      jump\t// out\n        /* \"#utility.yul\":442:611   */\n    tag_37:\n        /* \"#utility.yul\":526:537   */\n      0x00\n        /* \"#utility.yul\":560:566   */\n      dup3\n        /* \"#utility.yul\":555:558   */\n      dup3\n        /* \"#utility.yul\":548:567   */\n      mstore\n        /* \"#utility.yul\":600:604   */\n      0x20\n        /* \"#utility.yul\":595:598   */\n      dup3\n        /* \"#utility.yul\":591:605   */\n      add\n        /* \"#utility.yul\":576:605   */\n      swap1\n      pop\n        /* \"#utility.yul\":442:611   */\n      swap3\n      swap2\n      pop\n      pop\n      jump\t// out\n        /* \"#utility.yul\":617:852   */\n    tag_38:\n        /* \"#utility.yul\":757:791   */\n      0x4f6e6c7920746865206465706f73697420686f6c6465722063616e2072656c65\n        /* \"#utility.yul\":753:754   */\n      0x00\n        /* \"#utility.yul\":745:751   */\n      dup3\n        /* \"#utility.yul\":741:755   */\n      add\n        /* \"#utility.yul\":734:792   */\n      mstore\n        /* \"#utility.yul\":826:844   */\n      0x61736520746865206465706f7369742e00000000000000000000000000000000\n        /* \"#utility.yul\":821:823   */\n      0x20\n        /* \"#utility.yul\":813:819   */\n      dup3\n        /* \"#utility.yul\":809:824   */\n      add\n        /* \"#utility.yul\":802:845   */\n      mstore\n        /* \"#utility.yul\":617:852   */\n      pop\n      jump\t// out\n        /* \"#utility.yul\":858:1224   */\n    tag_39:\n        /* \"#utility.yul\":1000:1003   */\n      0x00\n        /* \"#utility.yul\":1021:1088   */\n      tag_54\n        /* \"#utility.yul\":1085:1087   */\n      0x30\n        /* \"#utility.yul\":1080:1083   */\n      dup4\n        /* \"#utility.yul\":1021:1088   */\n      tag_37\n      jump\t// in\n    tag_54:\n        /* \"#utility.yul\":1014:1088   */\n      swap2\n      pop\n        /* \"#utility.yul\":1097:1190   */\n      tag_55\n        /* \"#utility.yul\":1186:1189   */\n      dup3\n        /* \"#utility.yul\":1097:1190   */\n      tag_38\n      jump\t// in\n    tag_55:\n        /* \"#utility.yul\":1215:1217   */\n      0x40\n        /* \"#utility.yul\":1210:1213   */\n      dup3\n        /* \"#utility.yul\":1206:1218   */\n      add\n        /* \"#utility.yul\":1199:1218   */\n      swap1\n      pop\n        /* \"#utility.yul\":858:1224   */\n      swap2\n      swap1\n      pop\n      jump\t// out\n        /* \"#utility.yul\":1230:1649   */\n    tag_22:\n        /* \"#utility.yul\":1396:1400   */\n      0x00\n        /* \"#utility.yul\":1434:1436   */\n      0x20\n        /* \"#utility.yul\":1423:1432   */\n      dup3\n        /* \"#utility.yul\":1419:1437   */\n      add\n        /* \"#utility.yul\":1411:1437   */\n      swap1\n      pop\n        /* \"#utility.yul\":1483:1492   */\n      dup2\n        /* \"#utility.yul\":1477:1481   */\n      dup2\n        /* \"#utility.yul\":1473:1493   */\n      sub\n        /* \"#utility.yul\":1469:1470   */\n      0x00\n        /* \"#utility.yul\":1458:1467   */\n      dup4\n        /* \"#utility.yul\":1454:1471   */\n      add\n        /* \"#utility.yul\":1447:1494   */\n      mstore\n        /* \"#utility.yul\":1511:1642   */\n      tag_57\n        /* \"#utility.yul\":1637:1641   */\n      dup2\n        /* \"#utility.yul\":1511:1642   */\n      tag_39\n      jump\t// in\n    tag_57:\n        /* \"#utility.yul\":1503:1642   */\n      swap1\n      pop\n        /* \"#utility.yul\":1230:1649   */\n      swap2\n      swap1\n      pop\n      jump\t// out\n        /* \"#utility.yul\":1655:1833   */\n    tag_40:\n        /* \"#utility.yul\":1795:1825   */\n      0x41677265656d656e7420686173206e6f7420656e646564207965742e00000000\n        /* \"#utility.yul\":1791:1792   */\n      0x00\n        /* \"#utility.yul\":1783:1789   */\n      dup3\n        /* \"#utility.yul\":1779:1793   */\n      add\n        /* \"#utility.yul\":1772:1826   */\n      mstore\n        /* \"#utility.yul\":1655:1833   */\n      pop\n      jump\t// out\n        /* \"#utility.yul\":1839:2205   */\n    tag_41:\n        /* \"#utility.yul\":1981:1984   */\n      0x00\n        /* \"#utility.yul\":2002:2069   */\n      tag_60\n        /* \"#utility.yul\":2066:2068   */\n      0x1c\n        /* \"#utility.yul\":2061:2064   */\n      dup4\n        /* \"#utility.yul\":2002:2069   */\n      tag_37\n      jump\t// in\n    tag_60:\n        /* \"#utility.yul\":1995:2069   */\n      swap2\n      pop\n        /* \"#utility.yul\":2078:2171   */\n      tag_61\n        /* \"#utility.yul\":2167:2170   */\n      dup3\n        /* \"#utility.yul\":2078:2171   */\n      tag_40\n      jump\t// in\n    tag_61:\n        /* \"#utility.yul\":2196:2198   */\n      0x20\n        /* \"#utility.yul\":2191:2194   */\n      dup3\n        /* \"#utility.yul\":2187:2199   */\n      add\n        /* \"#utility.yul\":2180:2199   */\n      swap1\n      pop\n        /* \"#utility.yul\":1839:2205   */\n      swap2\n      swap1\n      pop\n      jump\t// out\n        /* \"#utility.yul\":2211:2630   */\n    tag_25:\n        /* \"#utility.yul\":2377:2381   */\n      0x00\n        /* \"#utility.yul\":2415:2417   */\n      0x20\n        /* \"#utility.yul\":2404:2413   */\n      dup3\n        /* \"#utility.yul\":2400:2418   */\n      add\n        /* \"#utility.yul\":2392:2418   */\n      swap1\n      pop\n        /* \"#utility.yul\":2464:2473   */\n      dup2\n        /* \"#utility.yul\":2458:2462   */\n      dup2\n        /* \"#utility.yul\":2454:2474   */\n      sub\n        /* \"#utility.yul\":2450:2451   */\n      0x00\n        /* \"#utility.yul\":2439:2448   */\n      dup4\n        /* \"#utility.yul\":2435:2452   */\n      add\n        /* \"#utility.yul\":2428:2475   */\n      mstore\n        /* \"#utility.yul\":2492:2623   */\n      tag_63\n        /* \"#utility.yul\":2618:2622   */\n      dup2\n        /* \"#utility.yul\":2492:2623   */\n      tag_41\n      jump\t// in\n    tag_63:\n        /* \"#utility.yul\":2484:2623   */\n      swap1\n      pop\n        /* \"#utility.yul\":2211:2630   */\n      swap2\n      swap1\n      pop\n      jump\t// out\n        /* \"#utility.yul\":2636:2816   */\n    tag_42:\n        /* \"#utility.yul\":2684:2761   */\n      0x4e487b7100000000000000000000000000000000000000000000000000000000\n        /* \"#utility.yul\":2681:2682   */\n      0x00\n        /* \"#utility.yul\":2674:2762   */\n      mstore\n        /* \"#utility.yul\":2781:2785   */\n      0x11\n        /* \"#utility.yul\":2778:2779   */\n      0x04\n        /* \"#utility.yul\":2771:2786   */\n      mstore\n        /* \"#utility.yul\":2805:2809   */\n      0x24\n        /* \"#utility.yul\":2802:2803   */\n      0x00\n        /* \"#utility.yul\":2795:2810   */\n      revert\n        /* \"#utility.yul\":2822:3232   */\n    tag_27:\n        /* \"#utility.yul\":2862:2869   */\n      0x00\n        /* \"#utility.yul\":2885:2905   */\n      tag_66\n        /* \"#utility.yul\":2903:2904   */\n      dup3\n        /* \"#utility.yul\":2885:2905   */\n      tag_35\n      jump\t// in\n    tag_66:\n        /* \"#utility.yul\":2880:2905   */\n      swap2\n      pop\n        /* \"#utility.yul\":2919:2939   */\n      tag_67\n        /* \"#utility.yul\":2937:2938   */\n      dup4\n        /* \"#utility.yul\":2919:2939   */\n      tag_35\n      jump\t// in\n    tag_67:\n        /* \"#utility.yul\":2914:2939   */\n      swap3\n      pop\n        /* \"#utility.yul\":2974:2975   */\n      dup3\n        /* \"#utility.yul\":2971:2972   */\n      dup3\n        /* \"#utility.yul\":2967:2976   */\n      mul\n        /* \"#utility.yul\":2996:3026   */\n      tag_68\n        /* \"#utility.yul\":3014:3025   */\n      dup2\n        /* \"#utility.yul\":2996:3026   */\n      tag_35\n      jump\t// in\n    tag_68:\n        /* \"#utility.yul\":2985:3026   */\n      swap2\n      pop\n        /* \"#utility.yul\":3175:3176   */\n      dup3\n        /* \"#utility.yul\":3166:3173   */\n      dup3\n        /* \"#utility.yul\":3162:3177   */\n      div\n        /* \"#utility.yul\":3159:3160   */\n      dup5\n        /* \"#utility.yul\":3156:3178   */\n      eq\n        /* \"#utility.yul\":3136:3137   */\n      dup4\n        /* \"#utility.yul\":3129:3138   */\n      iszero\n        /* \"#utility.yul\":3109:3192   */\n      or\n        /* \"#utility.yul\":3086:3225   */\n      tag_69\n      jumpi\n        /* \"#utility.yul\":3205:3223   */\n      tag_70\n      tag_42\n      jump\t// in\n    tag_70:\n        /* \"#utility.yul\":3086:3225   */\n    tag_69:\n        /* \"#utility.yul\":2870:3232   */\n      pop\n        /* \"#utility.yul\":2822:3232   */\n      swap3\n      swap2\n      pop\n      pop\n      jump\t// out\n        /* \"#utility.yul\":3238:3429   */\n    tag_29:\n        /* \"#utility.yul\":3278:3281   */\n      0x00\n        /* \"#utility.yul\":3297:3317   */\n      tag_72\n        /* \"#utility.yul\":3315:3316   */\n      dup3\n        /* \"#utility.yul\":3297:3317   */\n      tag_35\n      jump\t// in\n    tag_72:\n        /* \"#utility.yul\":3292:3317   */\n      swap2\n      pop\n        /* \"#utility.yul\":3331:3351   */\n      tag_73\n        /* \"#utility.yul\":3349:3350   */\n      dup4\n        /* \"#utility.yul\":3331:3351   */\n      tag_35\n      jump\t// in\n    tag_73:\n        /* \"#utility.yul\":3326:3351   */\n      swap3\n      pop\n        /* \"#utility.yul\":3374:3375   */\n      dup3\n        /* \"#utility.yul\":3371:3372   */\n      dup3\n        /* \"#utility.yul\":3367:3376   */\n      add\n        /* \"#utility.yul\":3360:3376   */\n      swap1\n      pop\n        /* \"#utility.yul\":3395:3398   */\n      dup1\n        /* \"#utility.yul\":3392:3393   */\n      dup3\n        /* \"#utility.yul\":3389:3399   */\n      gt\n        /* \"#utility.yul\":3386:3422   */\n      iszero\n      tag_74\n      jumpi\n        /* \"#utility.yul\":3402:3420   */\n      tag_75\n      tag_42\n      jump\t// in\n    tag_75:\n        /* \"#utility.yul\":3386:3422   */\n    tag_74:\n        /* \"#utility.yul\":3238:3429   */\n      swap3\n      swap2\n      pop\n      pop\n      jump\t// out\n        /* \"#utility.yul\":3435:3731   */\n    tag_43:\n        /* \"#utility.yul\":3575:3609   */\n      0x4f746865722070617274792068617320636c61696d656420746865206465706f\n        /* \"#utility.yul\":3571:3572   */\n      0x00\n        /* \"#utility.yul\":3563:3569   */\n      dup3\n        /* \"#utility.yul\":3559:3573   */\n      add\n        /* \"#utility.yul\":3552:3610   */\n      mstore\n        /* \"#utility.yul\":3644:3678   */\n      0x7369742077697468696e2074686520737065636966696564206e756d62657220\n        /* \"#utility.yul\":3639:3641   */\n      0x20\n        /* \"#utility.yul\":3631:3637   */\n      dup3\n        /* \"#utility.yul\":3627:3642   */\n      add\n        /* \"#utility.yul\":3620:3679   */\n      mstore\n        /* \"#utility.yul\":3713:3723   */\n      0x6f6620646179732e000000000000000000000000000000000000000000000000\n        /* \"#utility.yul\":3708:3710   */\n      0x40\n        /* \"#utility.yul\":3700:3706   */\n      dup3\n        /* \"#utility.yul\":3696:3711   */\n      add\n        /* \"#utility.yul\":3689:3724   */\n      mstore\n        /* \"#utility.yul\":3435:3731   */\n      pop\n      jump\t// out\n        /* \"#utility.yul\":3737:4103   */\n    tag_44:\n        /* \"#utility.yul\":3879:3882   */\n      0x00\n        /* \"#utility.yul\":3900:3967   */\n      tag_78\n        /* \"#utility.yul\":3964:3966   */\n      0x48\n        /* \"#utility.yul\":3959:3962   */\n      dup4\n        /* \"#utility.yul\":3900:3967   */\n      tag_37\n      jump\t// in\n    tag_78:\n        /* \"#utility.yul\":3893:3967   */\n      swap2\n      pop\n        /* \"#utility.yul\":3976:4069   */\n      tag_79\n        /* \"#utility.yul\":4065:4068   */\n      dup3\n        /* \"#utility.yul\":3976:4069   */\n      tag_43\n      jump\t// in\n    tag_79:\n        /* \"#utility.yul\":4094:4096   */\n      0x60\n        /* \"#utility.yul\":4089:4092   */\n      dup3\n        /* \"#utility.yul\":4085:4097   */\n      add\n        /* \"#utility.yul\":4078:4097   */\n      swap1\n      pop\n        /* \"#utility.yul\":3737:4103   */\n      swap2\n      swap1\n      pop\n      jump\t// out\n        /* \"#utility.yul\":4109:4528   */\n    tag_32:\n        /* \"#utility.yul\":4275:4279   */\n      0x00\n        /* \"#utility.yul\":4313:4315   */\n      0x20\n        /* \"#utility.yul\":4302:4311   */\n      dup3\n        /* \"#utility.yul\":4298:4316   */\n      add\n        /* \"#utility.yul\":4290:4316   */\n      swap1\n      pop\n        /* \"#utility.yul\":4362:4371   */\n      dup2\n        /* \"#utility.yul\":4356:4360   */\n      dup2\n        /* \"#utility.yul\":4352:4372   */\n      sub\n        /* \"#utility.yul\":4348:4349   */\n      0x00\n        /* \"#utility.yul\":4337:4346   */\n      dup4\n        /* \"#utility.yul\":4333:4350   */\n      add\n        /* \"#utility.yul\":4326:4373   */\n      mstore\n        /* \"#utility.yul\":4390:4521   */\n      tag_81\n        /* \"#utility.yul\":4516:4520   */\n      dup2\n        /* \"#utility.yul\":4390:4521   */\n      tag_44\n      jump\t// in\n    tag_81:\n        /* \"#utility.yul\":4382:4521   */\n      swap1\n      pop\n        /* \"#utility.yul\":4109:4528   */\n      swap2\n      swap1\n      pop\n      jump\t// out\n\n    auxdata: 0xa2646970667358221220c6369b4733aee232dfa114a12d80ad434c3283a9fca5e871e37ec08f569685c864736f6c63430008120033\n}\n",
				"bytecode": {
					"linkReferences": {},
					"object": "608060405234801561001057600080fd5b506040516107323803806107328339818101604052810190610032919061016b565b846000806101000a81548173ffffffffffffffffffffffffffffffffffffffff021916908373ffffffffffffffffffffffffffffffffffffffff16021790555083600160006101000a81548173ffffffffffffffffffffffffffffffffffffffff021916908373ffffffffffffffffffffffffffffffffffffffff16021790555082600281905550816003819055508060048190555050505050506101e6565b600080fd5b600073ffffffffffffffffffffffffffffffffffffffff82169050919050565b6000610102826100d7565b9050919050565b610112816100f7565b811461011d57600080fd5b50565b60008151905061012f81610109565b92915050565b6000819050919050565b61014881610135565b811461015357600080fd5b50565b6000815190506101658161013f565b92915050565b600080600080600060a08688031215610187576101866100d2565b5b600061019588828901610120565b95505060206101a688828901610120565b94505060406101b788828901610156565b93505060606101c888828901610156565b92505060806101d988828901610156565b9150509295509295909350565b61053d806101f56000396000f3fe608060405234801561001057600080fd5b506004361061004c5760003560e01c80631e9810e914610051578063220e5ab31461005b5780636d5e7a1514610079578063c24a0f8b14610097575b600080fd5b6100596100b5565b005b610063610255565b6040516100709190610280565b60405180910390f35b61008161025b565b60405161008e9190610280565b60405180910390f35b61009f610261565b6040516100ac9190610280565b60405180910390f35b60008054906101000a900473ffffffffffffffffffffffffffffffffffffffff1673ffffffffffffffffffffffffffffffffffffffff163373ffffffffffffffffffffffffffffffffffffffff1614610143576040517f08c379a000000000000000000000000000000000000000000000000000000000815260040161013a9061031e565b60405180910390fd5b600354421015610188576040517f08c379a000000000000000000000000000000000000000000000000000000000815260040161017f9061038a565b60405180910390fd5b6201518060045461019991906103d9565b6003546101a6919061041b565b4211156101e8576040517f08c379a00000000000000000000000000000000000000000000000000000000081526004016101df906104e7565b60405180910390fd5b600160009054906101000a900473ffffffffffffffffffffffffffffffffffffffff1673ffffffffffffffffffffffffffffffffffffffff166108fc6002549081150290604051600060405180830381858888f19350505050158015610252573d6000803e3d6000fd5b50565b60025481565b60045481565b60035481565b6000819050919050565b61027a81610267565b82525050565b60006020820190506102956000830184610271565b92915050565b600082825260208201905092915050565b7f4f6e6c7920746865206465706f73697420686f6c6465722063616e2072656c6560008201527f61736520746865206465706f7369742e00000000000000000000000000000000602082015250565b600061030860308361029b565b9150610313826102ac565b604082019050919050565b60006020820190508181036000830152610337816102fb565b9050919050565b7f41677265656d656e7420686173206e6f7420656e646564207965742e00000000600082015250565b6000610374601c8361029b565b915061037f8261033e565b602082019050919050565b600060208201905081810360008301526103a381610367565b9050919050565b7f4e487b7100000000000000000000000000000000000000000000000000000000600052601160045260246000fd5b60006103e482610267565b91506103ef83610267565b92508282026103fd81610267565b91508282048414831517610414576104136103aa565b5b5092915050565b600061042682610267565b915061043183610267565b9250828201905080821115610449576104486103aa565b5b92915050565b7f4f746865722070617274792068617320636c61696d656420746865206465706f60008201527f7369742077697468696e2074686520737065636966696564206e756d6265722060208201527f6f6620646179732e000000000000000000000000000000000000000000000000604082015250565b60006104d160488361029b565b91506104dc8261044f565b606082019050919050565b60006020820190508181036000830152610500816104c4565b905091905056fea2646970667358221220c6369b4733aee232dfa114a12d80ad434c3283a9fca5e871e37ec08f569685c864736f6c63430008120033",
					"opcodes": "PUSH1 0x80 PUSH1 0x40 MSTORE CALLVALUE DUP1 ISZERO PUSH2 0x10 JUMPI PUSH1 0x0 DUP1 REVERT JUMPDEST POP PUSH1 0x40 MLOAD PUSH2 0x732 CODESIZE SUB DUP1 PUSH2 0x732 DUP4 CODECOPY DUP2 DUP2 ADD PUSH1 0x40 MSTORE DUP2 ADD SWAP1 PUSH2 0x32 SWAP2 SWAP1 PUSH2 0x16B JUMP JUMPDEST DUP5 PUSH1 0x0 DUP1 PUSH2 0x100 EXP DUP2 SLOAD DUP2 PUSH20 0xFFFFFFFFFFFFFFFFFFFFFFFFFFFFFFFFFFFFFFFF MUL NOT AND SWAP1 DUP4 PUSH20 0xFFFFFFFFFFFFFFFFFFFFFFFFFFFFFFFFFFFFFFFF AND MUL OR SWAP1 SSTORE POP DUP4 PUSH1 0x1 PUSH1 0x0 PUSH2 0x100 EXP DUP2 SLOAD DUP2 PUSH20 0xFFFFFFFFFFFFFFFFFFFFFFFFFFFFFFFFFFFFFFFF MUL NOT AND SWAP1 DUP4 PUSH20 0xFFFFFFFFFFFFFFFFFFFFFFFFFFFFFFFFFFFFFFFF AND MUL OR SWAP1 SSTORE POP DUP3 PUSH1 0x2 DUP2 SWAP1 SSTORE POP DUP2 PUSH1 0x3 DUP2 SWAP1 SSTORE POP DUP1 PUSH1 0x4 DUP2 SWAP1 SSTORE POP POP POP POP POP POP PUSH2 0x1E6 JUMP JUMPDEST PUSH1 0x0 DUP1 REVERT JUMPDEST PUSH1 0x0 PUSH20 0xFFFFFFFFFFFFFFFFFFFFFFFFFFFFFFFFFFFFFFFF DUP3 AND SWAP1 POP SWAP2 SWAP1 POP JUMP JUMPDEST PUSH1 0x0 PUSH2 0x102 DUP3 PUSH2 0xD7 JUMP JUMPDEST SWAP1 POP SWAP2 SWAP1 POP JUMP JUMPDEST PUSH2 0x112 DUP2 PUSH2 0xF7 JUMP JUMPDEST DUP2 EQ PUSH2 0x11D JUMPI PUSH1 0x0 DUP1 REVERT JUMPDEST POP JUMP JUMPDEST PUSH1 0x0 DUP2 MLOAD SWAP1 POP PUSH2 0x12F DUP2 PUSH2 0x109 JUMP JUMPDEST SWAP3 SWAP2 POP POP JUMP JUMPDEST PUSH1 0x0 DUP2 SWAP1 POP SWAP2 SWAP1 POP JUMP JUMPDEST PUSH2 0x148 DUP2 PUSH2 0x135 JUMP JUMPDEST DUP2 EQ PUSH2 0x153 JUMPI PUSH1 0x0 DUP1 REVERT JUMPDEST POP JUMP JUMPDEST PUSH1 0x0 DUP2 MLOAD SWAP1 POP PUSH2 0x165 DUP2 PUSH2 0x13F JUMP JUMPDEST SWAP3 SWAP2 POP POP JUMP JUMPDEST PUSH1 0x0 DUP1 PUSH1 0x0 DUP1 PUSH1 0x0 PUSH1 0xA0 DUP7 DUP9 SUB SLT ISZERO PUSH2 0x187 JUMPI PUSH2 0x186 PUSH2 0xD2 JUMP JUMPDEST JUMPDEST PUSH1 0x0 PUSH2 0x195 DUP9 DUP3 DUP10 ADD PUSH2 0x120 JUMP JUMPDEST SWAP6 POP POP PUSH1 0x20 PUSH2 0x1A6 DUP9 DUP3 DUP10 ADD PUSH2 0x120 JUMP JUMPDEST SWAP5 POP POP PUSH1 0x40 PUSH2 0x1B7 DUP9 DUP3 DUP10 ADD PUSH2 0x156 JUMP JUMPDEST SWAP4 POP POP PUSH1 0x60 PUSH2 0x1C8 DUP9 DUP3 DUP10 ADD PUSH2 0x156 JUMP JUMPDEST SWAP3 POP POP PUSH1 0x80 PUSH2 0x1D9 DUP9 DUP3 DUP10 ADD PUSH2 0x156 JUMP JUMPDEST SWAP2 POP POP SWAP3 SWAP6 POP SWAP3 SWAP6 SWAP1 SWAP4 POP JUMP JUMPDEST PUSH2 0x53D DUP1 PUSH2 0x1F5 PUSH1 0x0 CODECOPY PUSH1 0x0 RETURN INVALID PUSH1 0x80 PUSH1 0x40 MSTORE CALLVALUE DUP1 ISZERO PUSH2 0x10 JUMPI PUSH1 0x0 DUP1 REVERT JUMPDEST POP PUSH1 0x4 CALLDATASIZE LT PUSH2 0x4C JUMPI PUSH1 0x0 CALLDATALOAD PUSH1 0xE0 SHR DUP1 PUSH4 0x1E9810E9 EQ PUSH2 0x51 JUMPI DUP1 PUSH4 0x220E5AB3 EQ PUSH2 0x5B JUMPI DUP1 PUSH4 0x6D5E7A15 EQ PUSH2 0x79 JUMPI DUP1 PUSH4 0xC24A0F8B EQ PUSH2 0x97 JUMPI JUMPDEST PUSH1 0x0 DUP1 REVERT JUMPDEST PUSH2 0x59 PUSH2 0xB5 JUMP JUMPDEST STOP JUMPDEST PUSH2 0x63 PUSH2 0x255 JUMP JUMPDEST PUSH1 0x40 MLOAD PUSH2 0x70 SWAP2 SWAP1 PUSH2 0x280 JUMP JUMPDEST PUSH1 0x40 MLOAD DUP1 SWAP2 SUB SWAP1 RETURN JUMPDEST PUSH2 0x81 PUSH2 0x25B JUMP JUMPDEST PUSH1 0x40 MLOAD PUSH2 0x8E SWAP2 SWAP1 PUSH2 0x280 JUMP JUMPDEST PUSH1 0x40 MLOAD DUP1 SWAP2 SUB SWAP1 RETURN JUMPDEST PUSH2 0x9F PUSH2 0x261 JUMP JUMPDEST PUSH1 0x40 MLOAD PUSH2 0xAC SWAP2 SWAP1 PUSH2 0x280 JUMP JUMPDEST PUSH1 0x40 MLOAD DUP1 SWAP2 SUB SWAP1 RETURN JUMPDEST PUSH1 0x0 DUP1 SLOAD SWAP1 PUSH2 0x100 EXP SWAP1 DIV PUSH20 0xFFFFFFFFFFFFFFFFFFFFFFFFFFFFFFFFFFFFFFFF AND PUSH20 0xFFFFFFFFFFFFFFFFFFFFFFFFFFFFFFFFFFFFFFFF AND CALLER PUSH20 0xFFFFFFFFFFFFFFFFFFFFFFFFFFFFFFFFFFFFFFFF AND EQ PUSH2 0x143 JUMPI PUSH1 0x40 MLOAD PUSH32 0x8C379A000000000000000000000000000000000000000000000000000000000 DUP2 MSTORE PUSH1 0x4 ADD PUSH2 0x13A SWAP1 PUSH2 0x31E JUMP JUMPDEST PUSH1 0x40 MLOAD DUP1 SWAP2 SUB SWAP1 REVERT JUMPDEST PUSH1 0x3 SLOAD TIMESTAMP LT ISZERO PUSH2 0x188 JUMPI PUSH1 0x40 MLOAD PUSH32 0x8C379A000000000000000000000000000000000000000000000000000000000 DUP2 MSTORE PUSH1 0x4 ADD PUSH2 0x17F SWAP1 PUSH2 0x38A JUMP JUMPDEST PUSH1 0x40 MLOAD DUP1 SWAP2 SUB SWAP1 REVERT JUMPDEST PUSH3 0x15180 PUSH1 0x4 SLOAD PUSH2 0x199 SWAP2 SWAP1 PUSH2 0x3D9 JUMP JUMPDEST PUSH1 0x3 SLOAD PUSH2 0x1A6 SWAP2 SWAP1 PUSH2 0x41B JUMP JUMPDEST TIMESTAMP GT ISZERO PUSH2 0x1E8 JUMPI PUSH1 0x40 MLOAD PUSH32 0x8C379A000000000000000000000000000000000000000000000000000000000 DUP2 MSTORE PUSH1 0x4 ADD PUSH2 0x1DF SWAP1 PUSH2 0x4E7 JUMP JUMPDEST PUSH1 0x40 MLOAD DUP1 SWAP2 SUB SWAP1 REVERT JUMPDEST PUSH1 0x1 PUSH1 0x0 SWAP1 SLOAD SWAP1 PUSH2 0x100 EXP SWAP1 DIV PUSH20 0xFFFFFFFFFFFFFFFFFFFFFFFFFFFFFFFFFFFFFFFF AND PUSH20 0xFFFFFFFFFFFFFFFFFFFFFFFFFFFFFFFFFFFFFFFF AND PUSH2 0x8FC PUSH1 0x2 SLOAD SWAP1 DUP2 ISZERO MUL SWAP1 PUSH1 0x40 MLOAD PUSH1 0x0 PUSH1 0x40 MLOAD DUP1 DUP4 SUB DUP2 DUP6 DUP9 DUP9 CALL SWAP4 POP POP POP POP ISZERO DUP1 ISZERO PUSH2 0x252 JUMPI RETURNDATASIZE PUSH1 0x0 DUP1 RETURNDATACOPY RETURNDATASIZE PUSH1 0x0 REVERT JUMPDEST POP JUMP JUMPDEST PUSH1 0x2 SLOAD DUP2 JUMP JUMPDEST PUSH1 0x4 SLOAD DUP2 JUMP JUMPDEST PUSH1 0x3 SLOAD DUP2 JUMP JUMPDEST PUSH1 0x0 DUP2 SWAP1 POP SWAP2 SWAP1 POP JUMP JUMPDEST PUSH2 0x27A DUP2 PUSH2 0x267 JUMP JUMPDEST DUP3 MSTORE POP POP JUMP JUMPDEST PUSH1 0x0 PUSH1 0x20 DUP3 ADD SWAP1 POP PUSH2 0x295 PUSH1 0x0 DUP4 ADD DUP5 PUSH2 0x271 JUMP JUMPDEST SWAP3 SWAP2 POP POP JUMP JUMPDEST PUSH1 0x0 DUP3 DUP3 MSTORE PUSH1 0x20 DUP3 ADD SWAP1 POP SWAP3 SWAP2 POP POP JUMP JUMPDEST PUSH32 0x4F6E6C7920746865206465706F73697420686F6C6465722063616E2072656C65 PUSH1 0x0 DUP3 ADD MSTORE PUSH32 0x61736520746865206465706F7369742E00000000000000000000000000000000 PUSH1 0x20 DUP3 ADD MSTORE POP JUMP JUMPDEST PUSH1 0x0 PUSH2 0x308 PUSH1 0x30 DUP4 PUSH2 0x29B JUMP JUMPDEST SWAP2 POP PUSH2 0x313 DUP3 PUSH2 0x2AC JUMP JUMPDEST PUSH1 0x40 DUP3 ADD SWAP1 POP SWAP2 SWAP1 POP JUMP JUMPDEST PUSH1 0x0 PUSH1 0x20 DUP3 ADD SWAP1 POP DUP2 DUP2 SUB PUSH1 0x0 DUP4 ADD MSTORE PUSH2 0x337 DUP2 PUSH2 0x2FB JUMP JUMPDEST SWAP1 POP SWAP2 SWAP1 POP JUMP JUMPDEST PUSH32 0x41677265656D656E7420686173206E6F7420656E646564207965742E00000000 PUSH1 0x0 DUP3 ADD MSTORE POP JUMP JUMPDEST PUSH1 0x0 PUSH2 0x374 PUSH1 0x1C DUP4 PUSH2 0x29B JUMP JUMPDEST SWAP2 POP PUSH2 0x37F DUP3 PUSH2 0x33E JUMP JUMPDEST PUSH1 0x20 DUP3 ADD SWAP1 POP SWAP2 SWAP1 POP JUMP JUMPDEST PUSH1 0x0 PUSH1 0x20 DUP3 ADD SWAP1 POP DUP2 DUP2 SUB PUSH1 0x0 DUP4 ADD MSTORE PUSH2 0x3A3 DUP2 PUSH2 0x367 JUMP JUMPDEST SWAP1 POP SWAP2 SWAP1 POP JUMP JUMPDEST PUSH32 0x4E487B7100000000000000000000000000000000000000000000000000000000 PUSH1 0x0 MSTORE PUSH1 0x11 PUSH1 0x4 MSTORE PUSH1 0x24 PUSH1 0x0 REVERT JUMPDEST PUSH1 0x0 PUSH2 0x3E4 DUP3 PUSH2 0x267 JUMP JUMPDEST SWAP2 POP PUSH2 0x3EF DUP4 PUSH2 0x267 JUMP JUMPDEST SWAP3 POP DUP3 DUP3 MUL PUSH2 0x3FD DUP2 PUSH2 0x267 JUMP JUMPDEST SWAP2 POP DUP3 DUP3 DIV DUP5 EQ DUP4 ISZERO OR PUSH2 0x414 JUMPI PUSH2 0x413 PUSH2 0x3AA JUMP JUMPDEST JUMPDEST POP SWAP3 SWAP2 POP POP JUMP JUMPDEST PUSH1 0x0 PUSH2 0x426 DUP3 PUSH2 0x267 JUMP JUMPDEST SWAP2 POP PUSH2 0x431 DUP4 PUSH2 0x267 JUMP JUMPDEST SWAP3 POP DUP3 DUP3 ADD SWAP1 POP DUP1 DUP3 GT ISZERO PUSH2 0x449 JUMPI PUSH2 0x448 PUSH2 0x3AA JUMP JUMPDEST JUMPDEST SWAP3 SWAP2 POP POP JUMP JUMPDEST PUSH32 0x4F746865722070617274792068617320636C61696D656420746865206465706F PUSH1 0x0 DUP3 ADD MSTORE PUSH32 0x7369742077697468696E2074686520737065636966696564206E756D62657220 PUSH1 0x20 DUP3 ADD MSTORE PUSH32 0x6F6620646179732E000000000000000000000000000000000000000000000000 PUSH1 0x40 DUP3 ADD MSTORE POP JUMP JUMPDEST PUSH1 0x0 PUSH2 0x4D1 PUSH1 0x48 DUP4 PUSH2 0x29B JUMP JUMPDEST SWAP2 POP PUSH2 0x4DC DUP3 PUSH2 0x44F JUMP JUMPDEST PUSH1 0x60 DUP3 ADD SWAP1 POP SWAP2 SWAP1 POP JUMP JUMPDEST PUSH1 0x0 PUSH1 0x20 DUP3 ADD SWAP1 POP DUP2 DUP2 SUB PUSH1 0x0 DUP4 ADD MSTORE PUSH2 0x500 DUP2 PUSH2 0x4C4 JUMP JUMPDEST SWAP1 POP SWAP2 SWAP1 POP JUMP INVALID LOG2 PUSH5 0x6970667358 0x22 SLT KECCAK256 0xC6 CALLDATASIZE SWAP12 SELFBALANCE CALLER 0xAE 0xE2 ORIGIN 0xDF LOG1 EQ LOG1 0x2D DUP1 0xAD NUMBER 0x4C ORIGIN DUP4 0xA9 0xFC 0xA5 0xE8 PUSH18 0xE37EC08F569685C864736F6C634300081200 CALLER "
				},
				"gasEstimates": {
					"creation": {
						"codeDepositCost": "268200",
						"executionCost": "infinite",
						"totalCost": "infinite"
					},
					"external": {
						"daysForWithdrawal()": "2451",
						"endDate()": "2473",
						"releaseDeposit()": "infinite",
						"securityDeposit()": "2429"
					}
				},
				"methodIdentifiers": {
					"daysForWithdrawal()": "6d5e7a15",
					"endDate()": "c24a0f8b",
					"releaseDeposit()": "1e9810e9",
					"securityDeposit()": "220e5ab3"
				}
			},
			"storageLayout": {
				"storage": [
					{
						"astId": 3,
						"contract": "contracts/MoneyLock.sol:MoneyLock",
						"label": "depositHolder",
						"offset": 0,
						"slot": "0",
						"type": "t_address_payable"
					},
					{
						"astId": 5,
						"contract": "contracts/MoneyLock.sol:MoneyLock",
						"label": "otherParty",
						"offset": 0,
						"slot": "1",
						"type": "t_address_payable"
					},
					{
						"astId": 7,
						"contract": "contracts/MoneyLock.sol:MoneyLock",
						"label": "securityDeposit",
						"offset": 0,
						"slot": "2",
						"type": "t_uint256"
					},
					{
						"astId": 9,
						"contract": "contracts/MoneyLock.sol:MoneyLock",
						"label": "endDate",
						"offset": 0,
						"slot": "3",
						"type": "t_uint256"
					},
					{
						"astId": 11,
						"contract": "contracts/MoneyLock.sol:MoneyLock",
						"label": "daysForWithdrawal",
						"offset": 0,
						"slot": "4",
						"type": "t_uint256"
					}
				],
				"types": {
					"t_address_payable": {
						"encoding": "inplace",
						"label": "address payable",
						"numberOfBytes": "20"
					},
					"t_uint256": {
						"encoding": "inplace",
						"label": "uint256",
						"numberOfBytes": "32"
					}
				}
			},
			"userdoc": {
				"kind": "user",
				"methods": {},
				"version": 1
			}
		}
	}
}