{
	"contracts/ContractPoolFactory.sol": {
		"ContractPoolFactory": {
			"abi": [
				{
					"anonymous": false,
					"inputs": [
						{
							"indexed": false,
							"internalType": "address",
							"name": "pool",
							"type": "address"
						},
						{
							"indexed": false,
							"internalType": "address",
							"name": "owner",
							"type": "address"
						}
					],
					"name": "CreateAccount",
					"type": "event"
				},
				{
					"inputs": [
						{
							"internalType": "address",
							"name": "_buyer",
							"type": "address"
						}
					],
					"name": "buyer",
					"outputs": [
						{
							"internalType": "uint256[]",
							"name": "",
							"type": "uint256[]"
						}
					],
					"stateMutability": "view",
					"type": "function"
				},
				{
					"inputs": [
						{
							"internalType": "address payable",
							"name": "_buyer",
							"type": "address"
						},
						{
							"internalType": "uint256",
							"name": "_securityDeposit",
							"type": "uint256"
						},
						{
							"internalType": "uint256",
							"name": "_sellerPreAgreementAmount",
							"type": "uint256"
						},
						{
							"internalType": "uint256",
							"name": "_buyerPreAgreementAmount",
							"type": "uint256"
						},
						{
							"internalType": "uint256",
							"name": "_endDate",
							"type": "uint256"
						},
						{
							"internalType": "uint256",
							"name": "_daysForWithdrawal",
							"type": "uint256"
						}
					],
					"name": "createPoolWallet",
					"outputs": [
						{
							"internalType": "address",
							"name": "",
							"type": "address"
						}
					],
					"stateMutability": "nonpayable",
					"type": "function"
				},
				{
					"inputs": [
						{
							"internalType": "uint256",
							"name": "_poolindex",
							"type": "uint256"
						}
					],
					"name": "getBuyer",
					"outputs": [
						{
							"internalType": "address",
							"name": "",
							"type": "address"
						}
					],
					"stateMutability": "view",
					"type": "function"
				},
				{
					"inputs": [
						{
							"internalType": "uint256",
							"name": "_poolindex",
							"type": "uint256"
						}
					],
					"name": "getBuyerBalance",
					"outputs": [
						{
							"internalType": "uint256",
							"name": "",
							"type": "uint256"
						}
					],
					"stateMutability": "view",
					"type": "function"
				},
				{
					"inputs": [
						{
							"internalType": "uint256",
							"name": "_poolindex",
							"type": "uint256"
						}
					],
					"name": "getBuyerPreAgreementAmount",
					"outputs": [
						{
							"internalType": "uint256",
							"name": "",
							"type": "uint256"
						}
					],
					"stateMutability": "view",
					"type": "function"
				},
				{
					"inputs": [
						{
							"internalType": "uint256",
							"name": "_poolindex",
							"type": "uint256"
						}
					],
					"name": "getDaysForWithdrawal",
					"outputs": [
						{
							"internalType": "uint256",
							"name": "",
							"type": "uint256"
						}
					],
					"stateMutability": "view",
					"type": "function"
				},
				{
					"inputs": [
						{
							"internalType": "uint256",
							"name": "_poolindex",
							"type": "uint256"
						}
					],
					"name": "getEndDate",
					"outputs": [
						{
							"internalType": "uint256",
							"name": "",
							"type": "uint256"
						}
					],
					"stateMutability": "view",
					"type": "function"
				},
				{
					"inputs": [
						{
							"internalType": "uint256",
							"name": "_poolindex",
							"type": "uint256"
						}
					],
					"name": "getSecurityDeposit",
					"outputs": [
						{
							"internalType": "uint256",
							"name": "",
							"type": "uint256"
						}
					],
					"stateMutability": "view",
					"type": "function"
				},
				{
					"inputs": [
						{
							"internalType": "uint256",
							"name": "_poolindex",
							"type": "uint256"
						}
					],
					"name": "getSeller",
					"outputs": [
						{
							"internalType": "address",
							"name": "",
							"type": "address"
						}
					],
					"stateMutability": "view",
					"type": "function"
				},
				{
					"inputs": [
						{
							"internalType": "uint256",
							"name": "_poolindex",
							"type": "uint256"
						}
					],
					"name": "getSellerBalance",
					"outputs": [
						{
							"internalType": "uint256",
							"name": "",
							"type": "uint256"
						}
					],
					"stateMutability": "view",
					"type": "function"
				},
				{
					"inputs": [
						{
							"internalType": "uint256",
							"name": "_poolindex",
							"type": "uint256"
						}
					],
					"name": "getSellerPreAgreementAmount",
					"outputs": [
						{
							"internalType": "uint256",
							"name": "",
							"type": "uint256"
						}
					],
					"stateMutability": "view",
					"type": "function"
				},
				{
					"inputs": [
						{
							"internalType": "uint256",
							"name": "",
							"type": "uint256"
						}
					],
					"name": "poolArray",
					"outputs": [
						{
							"internalType": "contract ContractPoll",
							"name": "",
							"type": "address"
						}
					],
					"stateMutability": "view",
					"type": "function"
				},
				{
					"inputs": [
						{
							"internalType": "uint256",
							"name": "_poolindex",
							"type": "uint256"
						}
					],
					"name": "poolDeposit",
					"outputs": [],
					"stateMutability": "nonpayable",
					"type": "function"
				},
				{
					"inputs": [
						{
							"internalType": "uint256",
							"name": "_poolindex",
							"type": "uint256"
						}
					],
					"name": "poolWithdraw",
					"outputs": [],
					"stateMutability": "payable",
					"type": "function"
				},
				{
					"inputs": [
						{
							"internalType": "address",
							"name": "_seller",
							"type": "address"
						}
					],
					"name": "seller",
					"outputs": [
						{
							"internalType": "uint256[]",
							"name": "",
							"type": "uint256[]"
						}
					],
					"stateMutability": "view",
					"type": "function"
				}
			],
			"devdoc": {
				"kind": "dev",
				"methods": {},
				"version": 1
			},
			"evm": {
				"assembly": "    /* \"contracts/ContractPoolFactory.sol\":152:3337  contract ContractPoolFactory {... */\n  mstore(0x40, 0x80)\n  callvalue\n  dup1\n  iszero\n  tag_1\n  jumpi\n  0x00\n  dup1\n  revert\ntag_1:\n  pop\n  dataSize(sub_0)\n  dup1\n  dataOffset(sub_0)\n  0x00\n  codecopy\n  0x00\n  return\nstop\n\nsub_0: assembly {\n        /* \"contracts/ContractPoolFactory.sol\":152:3337  contract ContractPoolFactory {... */\n      mstore(0x40, 0x80)\n      jumpi(tag_1, lt(calldatasize, 0x04))\n      shr(0xe0, calldataload(0x00))\n      dup1\n      0x5bf608b8\n      gt\n      tag_17\n      jumpi\n      dup1\n      0xb7748208\n      gt\n      tag_18\n      jumpi\n      dup1\n      0xb7748208\n      eq\n      tag_13\n      jumpi\n      dup1\n      0xccadfef5\n      eq\n      tag_14\n      jumpi\n      dup1\n      0xd32e18d1\n      eq\n      tag_15\n      jumpi\n      dup1\n      0xd6a9de51\n      eq\n      tag_16\n      jumpi\n      jump(tag_1)\n    tag_18:\n      dup1\n      0x5bf608b8\n      eq\n      tag_9\n      jumpi\n      dup1\n      0x5c6b047a\n      eq\n      tag_10\n      jumpi\n      dup1\n      0x82eac7f0\n      eq\n      tag_11\n      jumpi\n      dup1\n      0x99f7f90d\n      eq\n      tag_12\n      jumpi\n      jump(tag_1)\n    tag_17:\n      dup1\n      0x39b9c30c\n      gt\n      tag_19\n      jumpi\n      dup1\n      0x39b9c30c\n      eq\n      tag_5\n      jumpi\n      dup1\n      0x3dc66ad3\n      eq\n      tag_6\n      jumpi\n      dup1\n      0x444a8520\n      eq\n      tag_7\n      jumpi\n      dup1\n      0x55a7942f\n      eq\n      tag_8\n      jumpi\n      jump(tag_1)\n    tag_19:\n      dup1\n      0x03ffe79e\n      eq\n      tag_2\n      jumpi\n      dup1\n      0x1b892926\n      eq\n      tag_3\n      jumpi\n      dup1\n      0x2d02462b\n      eq\n      tag_4\n      jumpi\n    tag_1:\n      0x00\n      dup1\n      revert\n        /* \"contracts/ContractPoolFactory.sol\":1466:1600  function getSellerBalance(uint256 _poolindex) public view returns(uint){... */\n    tag_2:\n      callvalue\n      dup1\n      iszero\n      tag_20\n      jumpi\n      0x00\n      dup1\n      revert\n    tag_20:\n      pop\n      tag_21\n      0x04\n      dup1\n      calldatasize\n      sub\n      dup2\n      add\n      swap1\n      tag_22\n      swap2\n      swap1\n      tag_23\n      jump\t// in\n    tag_22:\n      tag_24\n      jump\t// in\n    tag_21:\n      mload(0x40)\n      tag_25\n      swap2\n      swap1\n      tag_26\n      jump\t// in\n    tag_25:\n      mload(0x40)\n      dup1\n      swap2\n      sub\n      swap1\n      return\n        /* \"contracts/ContractPoolFactory.sol\":2064:2218  function getBuyerPreAgreementAmount(uint256 _poolindex) public view returns(uint){... */\n    tag_3:\n      callvalue\n      dup1\n      iszero\n      tag_27\n      jumpi\n      0x00\n      dup1\n      revert\n    tag_27:\n      pop\n      tag_28\n      0x04\n      dup1\n      calldatasize\n      sub\n      dup2\n      add\n      swap1\n      tag_29\n      swap2\n      swap1\n      tag_23\n      jump\t// in\n    tag_29:\n      tag_30\n      jump\t// in\n    tag_28:\n      mload(0x40)\n      tag_31\n      swap2\n      swap1\n      tag_26\n      jump\t// in\n    tag_31:\n      mload(0x40)\n      dup1\n      swap2\n      sub\n      swap1\n      return\n        /* \"contracts/ContractPoolFactory.sol\":913:1025  function poolDeposit(uint256 _poolindex) public {... */\n    tag_4:\n      callvalue\n      dup1\n      iszero\n      tag_32\n      jumpi\n      0x00\n      dup1\n      revert\n    tag_32:\n      pop\n      tag_33\n      0x04\n      dup1\n      calldatasize\n      sub\n      dup2\n      add\n      swap1\n      tag_34\n      swap2\n      swap1\n      tag_23\n      jump\t// in\n    tag_34:\n      tag_35\n      jump\t// in\n    tag_33:\n      stop\n        /* \"contracts/ContractPoolFactory.sol\":2534:2918  function seller(address _seller) public view returns (uint256[] memory) {... */\n    tag_5:\n      callvalue\n      dup1\n      iszero\n      tag_36\n      jumpi\n      0x00\n      dup1\n      revert\n    tag_36:\n      pop\n      tag_37\n      0x04\n      dup1\n      calldatasize\n      sub\n      dup2\n      add\n      swap1\n      tag_38\n      swap2\n      swap1\n      tag_39\n      jump\t// in\n    tag_38:\n      tag_40\n      jump\t// in\n    tag_37:\n      mload(0x40)\n      tag_41\n      swap2\n      swap1\n      tag_42\n      jump\t// in\n    tag_41:\n      mload(0x40)\n      dup1\n      swap2\n      sub\n      swap1\n      return\n        /* \"contracts/ContractPoolFactory.sol\":1065:1184  function poolWithdraw(uint256 _poolindex) public payable {... */\n    tag_6:\n      tag_43\n      0x04\n      dup1\n      calldatasize\n      sub\n      dup2\n      add\n      swap1\n      tag_44\n      swap2\n      swap1\n      tag_23\n      jump\t// in\n    tag_44:\n      tag_45\n      jump\t// in\n    tag_43:\n      stop\n        /* \"contracts/ContractPoolFactory.sol\":1754:1892  function getSecurityDeposit(uint256 _poolindex) public view returns(uint){... */\n    tag_7:\n      callvalue\n      dup1\n      iszero\n      tag_46\n      jumpi\n      0x00\n      dup1\n      revert\n    tag_46:\n      pop\n      tag_47\n      0x04\n      dup1\n      calldatasize\n      sub\n      dup2\n      add\n      swap1\n      tag_48\n      swap2\n      swap1\n      tag_23\n      jump\t// in\n    tag_48:\n      tag_49\n      jump\t// in\n    tag_47:\n      mload(0x40)\n      tag_50\n      swap2\n      swap1\n      tag_26\n      jump\t// in\n    tag_50:\n      mload(0x40)\n      dup1\n      swap2\n      sub\n      swap1\n      return\n        /* \"contracts/ContractPoolFactory.sol\":342:870  function createPoolWallet( address payable _buyer, uint256 _securityDeposit, uint256 _sellerPreAgreementAmount, uint256 _buyerPreAgreementAmount, uint256 _endDate, uint256 _daysForWithdrawal) public returns(address) {... */\n    tag_8:\n      callvalue\n      dup1\n      iszero\n      tag_51\n      jumpi\n      0x00\n      dup1\n      revert\n    tag_51:\n      pop\n      tag_52\n      0x04\n      dup1\n      calldatasize\n      sub\n      dup2\n      add\n      swap1\n      tag_53\n      swap2\n      swap1\n      tag_54\n      jump\t// in\n    tag_53:\n      tag_55\n      jump\t// in\n    tag_52:\n      mload(0x40)\n      tag_56\n      swap2\n      swap1\n      tag_57\n      jump\t// in\n    tag_56:\n      mload(0x40)\n      dup1\n      swap2\n      sub\n      swap1\n      return\n        /* \"contracts/ContractPoolFactory.sol\":1331:1458  function getBuyer(uint256 _poolindex) public view returns(address){... */\n    tag_9:\n      callvalue\n      dup1\n      iszero\n      tag_58\n      jumpi\n      0x00\n      dup1\n      revert\n    tag_58:\n      pop\n      tag_59\n      0x04\n      dup1\n      calldatasize\n      sub\n      dup2\n      add\n      swap1\n      tag_60\n      swap2\n      swap1\n      tag_23\n      jump\t// in\n    tag_60:\n      tag_61\n      jump\t// in\n    tag_59:\n      mload(0x40)\n      tag_62\n      swap2\n      swap1\n      tag_57\n      jump\t// in\n    tag_62:\n      mload(0x40)\n      dup1\n      swap2\n      sub\n      swap1\n      return\n        /* \"contracts/ContractPoolFactory.sol\":2226:2348  function getEndDate(uint256 _poolindex) public view returns(uint){... */\n    tag_10:\n      callvalue\n      dup1\n      iszero\n      tag_63\n      jumpi\n      0x00\n      dup1\n      revert\n    tag_63:\n      pop\n      tag_64\n      0x04\n      dup1\n      calldatasize\n      sub\n      dup2\n      add\n      swap1\n      tag_65\n      swap2\n      swap1\n      tag_23\n      jump\t// in\n    tag_65:\n      tag_66\n      jump\t// in\n    tag_64:\n      mload(0x40)\n      tag_67\n      swap2\n      swap1\n      tag_26\n      jump\t// in\n    tag_67:\n      mload(0x40)\n      dup1\n      swap2\n      sub\n      swap1\n      return\n        /* \"contracts/ContractPoolFactory.sol\":213:244  ContractPoll[] public poolArray */\n    tag_11:\n      callvalue\n      dup1\n      iszero\n      tag_68\n      jumpi\n      0x00\n      dup1\n      revert\n    tag_68:\n      pop\n      tag_69\n      0x04\n      dup1\n      calldatasize\n      sub\n      dup2\n      add\n      swap1\n      tag_70\n      swap2\n      swap1\n      tag_23\n      jump\t// in\n    tag_70:\n      tag_71\n      jump\t// in\n    tag_69:\n      mload(0x40)\n      tag_72\n      swap2\n      swap1\n      tag_73\n      jump\t// in\n    tag_72:\n      mload(0x40)\n      dup1\n      swap2\n      sub\n      swap1\n      return\n        /* \"contracts/ContractPoolFactory.sol\":1900:2056  function getSellerPreAgreementAmount(uint256 _poolindex) public view returns(uint){... */\n    tag_12:\n      callvalue\n      dup1\n      iszero\n      tag_74\n      jumpi\n      0x00\n      dup1\n      revert\n    tag_74:\n      pop\n      tag_75\n      0x04\n      dup1\n      calldatasize\n      sub\n      dup2\n      add\n      swap1\n      tag_76\n      swap2\n      swap1\n      tag_23\n      jump\t// in\n    tag_76:\n      tag_77\n      jump\t// in\n    tag_75:\n      mload(0x40)\n      tag_78\n      swap2\n      swap1\n      tag_26\n      jump\t// in\n    tag_78:\n      mload(0x40)\n      dup1\n      swap2\n      sub\n      swap1\n      return\n        /* \"contracts/ContractPoolFactory.sol\":2951:3331  function buyer(address _buyer) public view returns (uint256[] memory) {... */\n    tag_13:\n      callvalue\n      dup1\n      iszero\n      tag_79\n      jumpi\n      0x00\n      dup1\n      revert\n    tag_79:\n      pop\n      tag_80\n      0x04\n      dup1\n      calldatasize\n      sub\n      dup2\n      add\n      swap1\n      tag_81\n      swap2\n      swap1\n      tag_39\n      jump\t// in\n    tag_81:\n      tag_82\n      jump\t// in\n    tag_80:\n      mload(0x40)\n      tag_83\n      swap2\n      swap1\n      tag_42\n      jump\t// in\n    tag_83:\n      mload(0x40)\n      dup1\n      swap2\n      sub\n      swap1\n      return\n        /* \"contracts/ContractPoolFactory.sol\":2356:2498  function getDaysForWithdrawal(uint256 _poolindex) public view returns(uint){... */\n    tag_14:\n      callvalue\n      dup1\n      iszero\n      tag_84\n      jumpi\n      0x00\n      dup1\n      revert\n    tag_84:\n      pop\n      tag_85\n      0x04\n      dup1\n      calldatasize\n      sub\n      dup2\n      add\n      swap1\n      tag_86\n      swap2\n      swap1\n      tag_23\n      jump\t// in\n    tag_86:\n      tag_87\n      jump\t// in\n    tag_85:\n      mload(0x40)\n      tag_88\n      swap2\n      swap1\n      tag_26\n      jump\t// in\n    tag_88:\n      mload(0x40)\n      dup1\n      swap2\n      sub\n      swap1\n      return\n        /* \"contracts/ContractPoolFactory.sol\":1608:1740  function getBuyerBalance(uint256 _poolindex) public view returns(uint){... */\n    tag_15:\n      callvalue\n      dup1\n      iszero\n      tag_89\n      jumpi\n      0x00\n      dup1\n      revert\n    tag_89:\n      pop\n      tag_90\n      0x04\n      dup1\n      calldatasize\n      sub\n      dup2\n      add\n      swap1\n      tag_91\n      swap2\n      swap1\n      tag_23\n      jump\t// in\n    tag_91:\n      tag_92\n      jump\t// in\n    tag_90:\n      mload(0x40)\n      tag_93\n      swap2\n      swap1\n      tag_26\n      jump\t// in\n    tag_93:\n      mload(0x40)\n      dup1\n      swap2\n      sub\n      swap1\n      return\n        /* \"contracts/ContractPoolFactory.sol\":1194:1323  function getSeller(uint256 _poolindex) public view returns(address){... */\n    tag_16:\n      callvalue\n      dup1\n      iszero\n      tag_94\n      jumpi\n      0x00\n      dup1\n      revert\n    tag_94:\n      pop\n      tag_95\n      0x04\n      dup1\n      calldatasize\n      sub\n      dup2\n      add\n      swap1\n      tag_96\n      swap2\n      swap1\n      tag_23\n      jump\t// in\n    tag_96:\n      tag_97\n      jump\t// in\n    tag_95:\n      mload(0x40)\n      tag_98\n      swap2\n      swap1\n      tag_57\n      jump\t// in\n    tag_98:\n      mload(0x40)\n      dup1\n      swap2\n      sub\n      swap1\n      return\n        /* \"contracts/ContractPoolFactory.sol\":1466:1600  function getSellerBalance(uint256 _poolindex) public view returns(uint){... */\n    tag_24:\n        /* \"contracts/ContractPoolFactory.sol\":1532:1536  uint */\n      0x00\n        /* \"contracts/ContractPoolFactory.sol\":1555:1564  poolArray */\n      dup1\n        /* \"contracts/ContractPoolFactory.sol\":1565:1575  _poolindex */\n      dup3\n        /* \"contracts/ContractPoolFactory.sol\":1555:1576  poolArray[_poolindex] */\n      dup2\n      sload\n      dup2\n      lt\n      tag_100\n      jumpi\n      tag_101\n      tag_102\n      jump\t// in\n    tag_101:\n    tag_100:\n      swap1\n      0x00\n      mstore\n      keccak256(0x00, 0x20)\n      add\n      0x00\n      swap1\n      sload\n      swap1\n      0x0100\n      exp\n      swap1\n      div\n      0xffffffffffffffffffffffffffffffffffffffff\n      and\n        /* \"contracts/ContractPoolFactory.sol\":1555:1590  poolArray[_poolindex].sellerBalance */\n      0xffffffffffffffffffffffffffffffffffffffff\n      and\n      0x867a06b3\n        /* \"contracts/ContractPoolFactory.sol\":1555:1592  poolArray[_poolindex].sellerBalance() */\n      mload(0x40)\n      dup2\n      0xffffffff\n      and\n      0xe0\n      shl\n      dup2\n      mstore\n      0x04\n      add\n      0x20\n      mload(0x40)\n      dup1\n      dup4\n      sub\n      dup2\n      dup7\n      gas\n      staticcall\n      iszero\n      dup1\n      iszero\n      tag_105\n      jumpi\n      returndatasize\n      0x00\n      dup1\n      returndatacopy\n      revert(0x00, returndatasize)\n    tag_105:\n      pop\n      pop\n      pop\n      pop\n      mload(0x40)\n      returndatasize\n      not(0x1f)\n      0x1f\n      dup3\n      add\n      and\n      dup3\n      add\n      dup1\n      0x40\n      mstore\n      pop\n      dup2\n      add\n      swap1\n      tag_106\n      swap2\n      swap1\n      tag_107\n      jump\t// in\n    tag_106:\n        /* \"contracts/ContractPoolFactory.sol\":1548:1592  return poolArray[_poolindex].sellerBalance() */\n      swap1\n      pop\n        /* \"contracts/ContractPoolFactory.sol\":1466:1600  function getSellerBalance(uint256 _poolindex) public view returns(uint){... */\n      swap2\n      swap1\n      pop\n      jump\t// out\n        /* \"contracts/ContractPoolFactory.sol\":2064:2218  function getBuyerPreAgreementAmount(uint256 _poolindex) public view returns(uint){... */\n    tag_30:\n        /* \"contracts/ContractPoolFactory.sol\":2140:2144  uint */\n      0x00\n        /* \"contracts/ContractPoolFactory.sol\":2163:2172  poolArray */\n      dup1\n        /* \"contracts/ContractPoolFactory.sol\":2173:2183  _poolindex */\n      dup3\n        /* \"contracts/ContractPoolFactory.sol\":2163:2184  poolArray[_poolindex] */\n      dup2\n      sload\n      dup2\n      lt\n      tag_109\n      jumpi\n      tag_110\n      tag_102\n      jump\t// in\n    tag_110:\n    tag_109:\n      swap1\n      0x00\n      mstore\n      keccak256(0x00, 0x20)\n      add\n      0x00\n      swap1\n      sload\n      swap1\n      0x0100\n      exp\n      swap1\n      div\n      0xffffffffffffffffffffffffffffffffffffffff\n      and\n        /* \"contracts/ContractPoolFactory.sol\":2163:2208  poolArray[_poolindex].buyerPreAgreementAmount */\n      0xffffffffffffffffffffffffffffffffffffffff\n      and\n      0x99dc2df3\n        /* \"contracts/ContractPoolFactory.sol\":2163:2210  poolArray[_poolindex].buyerPreAgreementAmount() */\n      mload(0x40)\n      dup2\n      0xffffffff\n      and\n      0xe0\n      shl\n      dup2\n      mstore\n      0x04\n      add\n      0x20\n      mload(0x40)\n      dup1\n      dup4\n      sub\n      dup2\n      dup7\n      gas\n      staticcall\n      iszero\n      dup1\n      iszero\n      tag_113\n      jumpi\n      returndatasize\n      0x00\n      dup1\n      returndatacopy\n      revert(0x00, returndatasize)\n    tag_113:\n      pop\n      pop\n      pop\n      pop\n      mload(0x40)\n      returndatasize\n      not(0x1f)\n      0x1f\n      dup3\n      add\n      and\n      dup3\n      add\n      dup1\n      0x40\n      mstore\n      pop\n      dup2\n      add\n      swap1\n      tag_114\n      swap2\n      swap1\n      tag_107\n      jump\t// in\n    tag_114:\n        /* \"contracts/ContractPoolFactory.sol\":2156:2210  return poolArray[_poolindex].buyerPreAgreementAmount() */\n      swap1\n      pop\n        /* \"contracts/ContractPoolFactory.sol\":2064:2218  function getBuyerPreAgreementAmount(uint256 _poolindex) public view returns(uint){... */\n      swap2\n      swap1\n      pop\n      jump\t// out\n        /* \"contracts/ContractPoolFactory.sol\":913:1025  function poolDeposit(uint256 _poolindex) public {... */\n    tag_35:\n        /* \"contracts/ContractPoolFactory.sol\":972:981  poolArray */\n      0x00\n        /* \"contracts/ContractPoolFactory.sol\":982:992  _poolindex */\n      dup2\n        /* \"contracts/ContractPoolFactory.sol\":972:993  poolArray[_poolindex] */\n      dup2\n      sload\n      dup2\n      lt\n      tag_116\n      jumpi\n      tag_117\n      tag_102\n      jump\t// in\n    tag_117:\n    tag_116:\n      swap1\n      0x00\n      mstore\n      keccak256(0x00, 0x20)\n      add\n      0x00\n      swap1\n      sload\n      swap1\n      0x0100\n      exp\n      swap1\n      div\n      0xffffffffffffffffffffffffffffffffffffffff\n      and\n        /* \"contracts/ContractPoolFactory.sol\":972:1001  poolArray[_poolindex].deposit */\n      0xffffffffffffffffffffffffffffffffffffffff\n      and\n      0xf340fa01\n        /* \"contracts/ContractPoolFactory.sol\":1002:1012  msg.sender */\n      caller\n        /* \"contracts/ContractPoolFactory.sol\":972:1013  poolArray[_poolindex].deposit(msg.sender) */\n      mload(0x40)\n      dup3\n      0xffffffff\n      and\n      0xe0\n      shl\n      dup2\n      mstore\n      0x04\n      add\n      tag_119\n      swap2\n      swap1\n      tag_57\n      jump\t// in\n    tag_119:\n      0x00\n      mload(0x40)\n      dup1\n      dup4\n      sub\n      dup2\n      0x00\n      dup8\n      dup1\n      extcodesize\n      iszero\n      dup1\n      iszero\n      tag_120\n      jumpi\n      0x00\n      dup1\n      revert\n    tag_120:\n      pop\n      gas\n      call\n      iszero\n      dup1\n      iszero\n      tag_122\n      jumpi\n      returndatasize\n      0x00\n      dup1\n      returndatacopy\n      revert(0x00, returndatasize)\n    tag_122:\n      pop\n      pop\n      pop\n      pop\n        /* \"contracts/ContractPoolFactory.sol\":913:1025  function poolDeposit(uint256 _poolindex) public {... */\n      pop\n      jump\t// out\n        /* \"contracts/ContractPoolFactory.sol\":2534:2918  function seller(address _seller) public view returns (uint256[] memory) {... */\n    tag_40:\n        /* \"contracts/ContractPoolFactory.sol\":2588:2604  uint256[] memory */\n      0x60\n        /* \"contracts/ContractPoolFactory.sol\":2613:2641  uint256[] memory resultArray */\n      0x00\n        /* \"contracts/ContractPoolFactory.sol\":2658:2667  poolArray */\n      dup1\n        /* \"contracts/ContractPoolFactory.sol\":2658:2674  poolArray.length */\n      dup1\n      sload\n      swap1\n      pop\n        /* \"contracts/ContractPoolFactory.sol\":2644:2675  new uint256[](poolArray.length) */\n      0xffffffffffffffff\n      dup2\n      gt\n      iszero\n      tag_124\n      jumpi\n      tag_125\n      tag_126\n      jump\t// in\n    tag_125:\n    tag_124:\n      mload(0x40)\n      swap1\n      dup1\n      dup3\n      mstore\n      dup1\n      0x20\n      mul\n      0x20\n      add\n      dup3\n      add\n      0x40\n      mstore\n      dup1\n      iszero\n      tag_127\n      jumpi\n      dup2\n      0x20\n      add\n      0x20\n      dup3\n      mul\n      dup1\n      calldatasize\n      dup4\n      calldatacopy\n      dup1\n      dup3\n      add\n      swap2\n      pop\n      pop\n      swap1\n      pop\n    tag_127:\n      pop\n        /* \"contracts/ContractPoolFactory.sol\":2613:2675  uint256[] memory resultArray = new uint256[](poolArray.length) */\n      swap1\n      pop\n        /* \"contracts/ContractPoolFactory.sol\":2682:2695  uint256 index */\n      0x00\n        /* \"contracts/ContractPoolFactory.sol\":2711:2720  uint256 i */\n      dup1\n        /* \"contracts/ContractPoolFactory.sol\":2706:2886  for (uint256 i = 0; i < poolArray.length; i++) {... */\n    tag_128:\n        /* \"contracts/ContractPoolFactory.sol\":2730:2739  poolArray */\n      0x00\n        /* \"contracts/ContractPoolFactory.sol\":2730:2746  poolArray.length */\n      dup1\n      sload\n      swap1\n      pop\n        /* \"contracts/ContractPoolFactory.sol\":2726:2727  i */\n      dup2\n        /* \"contracts/ContractPoolFactory.sol\":2726:2746  i < poolArray.length */\n      lt\n        /* \"contracts/ContractPoolFactory.sol\":2706:2886  for (uint256 i = 0; i < poolArray.length; i++) {... */\n      iszero\n      tag_129\n      jumpi\n        /* \"contracts/ContractPoolFactory.sol\":2799:2806  _seller */\n      dup5\n        /* \"contracts/ContractPoolFactory.sol\":2768:2806  poolArray[i].returnSeller() == _seller */\n      0xffffffffffffffffffffffffffffffffffffffff\n      and\n        /* \"contracts/ContractPoolFactory.sol\":2768:2777  poolArray */\n      0x00\n        /* \"contracts/ContractPoolFactory.sol\":2778:2779  i */\n      dup3\n        /* \"contracts/ContractPoolFactory.sol\":2768:2780  poolArray[i] */\n      dup2\n      sload\n      dup2\n      lt\n      tag_131\n      jumpi\n      tag_132\n      tag_102\n      jump\t// in\n    tag_132:\n    tag_131:\n      swap1\n      0x00\n      mstore\n      keccak256(0x00, 0x20)\n      add\n      0x00\n      swap1\n      sload\n      swap1\n      0x0100\n      exp\n      swap1\n      div\n      0xffffffffffffffffffffffffffffffffffffffff\n      and\n        /* \"contracts/ContractPoolFactory.sol\":2768:2793  poolArray[i].returnSeller */\n      0xffffffffffffffffffffffffffffffffffffffff\n      and\n      0xba12a5c5\n        /* \"contracts/ContractPoolFactory.sol\":2768:2795  poolArray[i].returnSeller() */\n      mload(0x40)\n      dup2\n      0xffffffff\n      and\n      0xe0\n      shl\n      dup2\n      mstore\n      0x04\n      add\n      0x20\n      mload(0x40)\n      dup1\n      dup4\n      sub\n      dup2\n      dup7\n      gas\n      staticcall\n      iszero\n      dup1\n      iszero\n      tag_135\n      jumpi\n      returndatasize\n      0x00\n      dup1\n      returndatacopy\n      revert(0x00, returndatasize)\n    tag_135:\n      pop\n      pop\n      pop\n      pop\n      mload(0x40)\n      returndatasize\n      not(0x1f)\n      0x1f\n      dup3\n      add\n      and\n      dup3\n      add\n      dup1\n      0x40\n      mstore\n      pop\n      dup2\n      add\n      swap1\n      tag_136\n      swap2\n      swap1\n      tag_137\n      jump\t// in\n    tag_136:\n        /* \"contracts/ContractPoolFactory.sol\":2768:2806  poolArray[i].returnSeller() == _seller */\n      0xffffffffffffffffffffffffffffffffffffffff\n      and\n      sub\n        /* \"contracts/ContractPoolFactory.sol\":2764:2879  if (poolArray[i].returnSeller() == _seller) {... */\n      tag_138\n      jumpi\n        /* \"contracts/ContractPoolFactory.sol\":2844:2845  i */\n      dup1\n        /* \"contracts/ContractPoolFactory.sol\":2823:2834  resultArray */\n      dup4\n        /* \"contracts/ContractPoolFactory.sol\":2835:2840  index */\n      dup4\n        /* \"contracts/ContractPoolFactory.sol\":2823:2841  resultArray[index] */\n      dup2\n      mload\n      dup2\n      lt\n      tag_139\n      jumpi\n      tag_140\n      tag_102\n      jump\t// in\n    tag_140:\n    tag_139:\n      0x20\n      mul\n      0x20\n      add\n      add\n        /* \"contracts/ContractPoolFactory.sol\":2823:2845  resultArray[index] = i */\n      dup2\n      dup2\n      mstore\n      pop\n      pop\n        /* \"contracts/ContractPoolFactory.sol\":2860:2867  index++ */\n      dup2\n      dup1\n      tag_141\n      swap1\n      tag_142\n      jump\t// in\n    tag_141:\n      swap3\n      pop\n      pop\n        /* \"contracts/ContractPoolFactory.sol\":2764:2879  if (poolArray[i].returnSeller() == _seller) {... */\n    tag_138:\n        /* \"contracts/ContractPoolFactory.sol\":2748:2751  i++ */\n      dup1\n      dup1\n      tag_143\n      swap1\n      tag_142\n      jump\t// in\n    tag_143:\n      swap2\n      pop\n      pop\n        /* \"contracts/ContractPoolFactory.sol\":2706:2886  for (uint256 i = 0; i < poolArray.length; i++) {... */\n      jump(tag_128)\n    tag_129:\n      pop\n        /* \"contracts/ContractPoolFactory.sol\":2899:2910  resultArray */\n      dup2\n        /* \"contracts/ContractPoolFactory.sol\":2892:2910  return resultArray */\n      swap3\n      pop\n      pop\n      pop\n        /* \"contracts/ContractPoolFactory.sol\":2534:2918  function seller(address _seller) public view returns (uint256[] memory) {... */\n      swap2\n      swap1\n      pop\n      jump\t// out\n        /* \"contracts/ContractPoolFactory.sol\":1065:1184  function poolWithdraw(uint256 _poolindex) public payable {... */\n    tag_45:\n        /* \"contracts/ContractPoolFactory.sol\":1133:1142  poolArray */\n      0x00\n        /* \"contracts/ContractPoolFactory.sol\":1143:1153  _poolindex */\n      dup2\n        /* \"contracts/ContractPoolFactory.sol\":1133:1154  poolArray[_poolindex] */\n      dup2\n      sload\n      dup2\n      lt\n      tag_145\n      jumpi\n      tag_146\n      tag_102\n      jump\t// in\n    tag_146:\n    tag_145:\n      swap1\n      0x00\n      mstore\n      keccak256(0x00, 0x20)\n      add\n      0x00\n      swap1\n      sload\n      swap1\n      0x0100\n      exp\n      swap1\n      div\n      0xffffffffffffffffffffffffffffffffffffffff\n      and\n        /* \"contracts/ContractPoolFactory.sol\":1133:1163  poolArray[_poolindex].withdraw */\n      0xffffffffffffffffffffffffffffffffffffffff\n      and\n      0x51cff8d9\n        /* \"contracts/ContractPoolFactory.sol\":1164:1174  msg.sender */\n      caller\n        /* \"contracts/ContractPoolFactory.sol\":1133:1175  poolArray[_poolindex].withdraw(msg.sender) */\n      mload(0x40)\n      dup3\n      0xffffffff\n      and\n      0xe0\n      shl\n      dup2\n      mstore\n      0x04\n      add\n      tag_148\n      swap2\n      swap1\n      tag_57\n      jump\t// in\n    tag_148:\n      0x00\n      mload(0x40)\n      dup1\n      dup4\n      sub\n      dup2\n      0x00\n      dup8\n      dup1\n      extcodesize\n      iszero\n      dup1\n      iszero\n      tag_149\n      jumpi\n      0x00\n      dup1\n      revert\n    tag_149:\n      pop\n      gas\n      call\n      iszero\n      dup1\n      iszero\n      tag_151\n      jumpi\n      returndatasize\n      0x00\n      dup1\n      returndatacopy\n      revert(0x00, returndatasize)\n    tag_151:\n      pop\n      pop\n      pop\n      pop\n        /* \"contracts/ContractPoolFactory.sol\":1065:1184  function poolWithdraw(uint256 _poolindex) public payable {... */\n      pop\n      jump\t// out\n        /* \"contracts/ContractPoolFactory.sol\":1754:1892  function getSecurityDeposit(uint256 _poolindex) public view returns(uint){... */\n    tag_49:\n        /* \"contracts/ContractPoolFactory.sol\":1822:1826  uint */\n      0x00\n        /* \"contracts/ContractPoolFactory.sol\":1845:1854  poolArray */\n      dup1\n        /* \"contracts/ContractPoolFactory.sol\":1855:1865  _poolindex */\n      dup3\n        /* \"contracts/ContractPoolFactory.sol\":1845:1866  poolArray[_poolindex] */\n      dup2\n      sload\n      dup2\n      lt\n      tag_153\n      jumpi\n      tag_154\n      tag_102\n      jump\t// in\n    tag_154:\n    tag_153:\n      swap1\n      0x00\n      mstore\n      keccak256(0x00, 0x20)\n      add\n      0x00\n      swap1\n      sload\n      swap1\n      0x0100\n      exp\n      swap1\n      div\n      0xffffffffffffffffffffffffffffffffffffffff\n      and\n        /* \"contracts/ContractPoolFactory.sol\":1845:1882  poolArray[_poolindex].securityDeposit */\n      0xffffffffffffffffffffffffffffffffffffffff\n      and\n      0x220e5ab3\n        /* \"contracts/ContractPoolFactory.sol\":1845:1884  poolArray[_poolindex].securityDeposit() */\n      mload(0x40)\n      dup2\n      0xffffffff\n      and\n      0xe0\n      shl\n      dup2\n      mstore\n      0x04\n      add\n      0x20\n      mload(0x40)\n      dup1\n      dup4\n      sub\n      dup2\n      dup7\n      gas\n      staticcall\n      iszero\n      dup1\n      iszero\n      tag_157\n      jumpi\n      returndatasize\n      0x00\n      dup1\n      returndatacopy\n      revert(0x00, returndatasize)\n    tag_157:\n      pop\n      pop\n      pop\n      pop\n      mload(0x40)\n      returndatasize\n      not(0x1f)\n      0x1f\n      dup3\n      add\n      and\n      dup3\n      add\n      dup1\n      0x40\n      mstore\n      pop\n      dup2\n      add\n      swap1\n      tag_158\n      swap2\n      swap1\n      tag_107\n      jump\t// in\n    tag_158:\n        /* \"contracts/ContractPoolFactory.sol\":1838:1884  return poolArray[_poolindex].securityDeposit() */\n      swap1\n      pop\n        /* \"contracts/ContractPoolFactory.sol\":1754:1892  function getSecurityDeposit(uint256 _poolindex) public view returns(uint){... */\n      swap2\n      swap1\n      pop\n      jump\t// out\n        /* \"contracts/ContractPoolFactory.sol\":342:870  function createPoolWallet( address payable _buyer, uint256 _securityDeposit, uint256 _sellerPreAgreementAmount, uint256 _buyerPreAgreementAmount, uint256 _endDate, uint256 _daysForWithdrawal) public returns(address) {... */\n    tag_55:\n        /* \"contracts/ContractPoolFactory.sol\":549:556  address */\n      0x00\n        /* \"contracts/ContractPoolFactory.sol\":568:585  ContractPoll pool */\n      dup1\n        /* \"contracts/ContractPoolFactory.sol\":613:623  msg.sender */\n      caller\n        /* \"contracts/ContractPoolFactory.sol\":634:640  _buyer */\n      dup9\n        /* \"contracts/ContractPoolFactory.sol\":643:659  _securityDeposit */\n      dup9\n        /* \"contracts/ContractPoolFactory.sol\":661:686  _sellerPreAgreementAmount */\n      dup9\n        /* \"contracts/ContractPoolFactory.sol\":688:712  _buyerPreAgreementAmount */\n      dup9\n        /* \"contracts/ContractPoolFactory.sol\":714:722  _endDate */\n      dup9\n        /* \"contracts/ContractPoolFactory.sol\":724:742  _daysForWithdrawal */\n      dup9\n        /* \"contracts/ContractPoolFactory.sol\":588:743  new ContractPoll(payable(msg.sender), payable(_buyer), _securityDeposit, _sellerPreAgreementAmount, _buyerPreAgreementAmount, _endDate, _daysForWithdrawal) */\n      mload(0x40)\n      tag_160\n      swap1\n      tag_161\n      jump\t// in\n    tag_160:\n      tag_162\n      swap8\n      swap7\n      swap6\n      swap5\n      swap4\n      swap3\n      swap2\n      swap1\n      tag_163\n      jump\t// in\n    tag_162:\n      mload(0x40)\n      dup1\n      swap2\n      sub\n      swap1\n      0x00\n      create\n      dup1\n      iszero\n      dup1\n      iszero\n      tag_164\n      jumpi\n      returndatasize\n      0x00\n      dup1\n      returndatacopy\n      revert(0x00, returndatasize)\n    tag_164:\n      pop\n        /* \"contracts/ContractPoolFactory.sol\":568:743  ContractPoll pool = new ContractPoll(payable(msg.sender), payable(_buyer), _securityDeposit, _sellerPreAgreementAmount, _buyerPreAgreementAmount, _endDate, _daysForWithdrawal) */\n      swap1\n      pop\n        /* \"contracts/ContractPoolFactory.sol\":757:766  poolArray */\n      0x00\n        /* \"contracts/ContractPoolFactory.sol\":772:776  pool */\n      dup2\n        /* \"contracts/ContractPoolFactory.sol\":757:777  poolArray.push(pool) */\n      swap1\n      dup1\n      0x01\n      dup2\n      sload\n      add\n      dup1\n      dup3\n      sstore\n      dup1\n      swap2\n      pop\n      pop\n      0x01\n      swap1\n      sub\n      swap1\n      0x00\n      mstore\n      keccak256(0x00, 0x20)\n      add\n      0x00\n      swap1\n      swap2\n      swap1\n      swap2\n      swap1\n      swap2\n      0x0100\n      exp\n      dup2\n      sload\n      dup2\n      0xffffffffffffffffffffffffffffffffffffffff\n      mul\n      not\n      and\n      swap1\n      dup4\n      0xffffffffffffffffffffffffffffffffffffffff\n      and\n      mul\n      or\n      swap1\n      sstore\n      pop\n        /* \"contracts/ContractPoolFactory.sol\":792:832  CreateAccount(address(pool), msg.sender) */\n      0x14a8ec3fa88b43ee6d7a7a0e47e3468f408e39a1cf0be757bb6c81b94e2fdb9e\n        /* \"contracts/ContractPoolFactory.sol\":814:818  pool */\n      dup2\n        /* \"contracts/ContractPoolFactory.sol\":821:831  msg.sender */\n      caller\n        /* \"contracts/ContractPoolFactory.sol\":792:832  CreateAccount(address(pool), msg.sender) */\n      mload(0x40)\n      tag_166\n      swap3\n      swap2\n      swap1\n      tag_167\n      jump\t// in\n    tag_166:\n      mload(0x40)\n      dup1\n      swap2\n      sub\n      swap1\n      log1\n        /* \"contracts/ContractPoolFactory.sol\":857:861  pool */\n      dup1\n        /* \"contracts/ContractPoolFactory.sol\":842:862  return address(pool) */\n      swap2\n      pop\n      pop\n        /* \"contracts/ContractPoolFactory.sol\":342:870  function createPoolWallet( address payable _buyer, uint256 _securityDeposit, uint256 _sellerPreAgreementAmount, uint256 _buyerPreAgreementAmount, uint256 _endDate, uint256 _daysForWithdrawal) public returns(address) {... */\n      swap7\n      swap6\n      pop\n      pop\n      pop\n      pop\n      pop\n      pop\n      jump\t// out\n        /* \"contracts/ContractPoolFactory.sol\":1331:1458  function getBuyer(uint256 _poolindex) public view returns(address){... */\n    tag_61:\n        /* \"contracts/ContractPoolFactory.sol\":1389:1396  address */\n      0x00\n        /* \"contracts/ContractPoolFactory.sol\":1415:1424  poolArray */\n      dup1\n        /* \"contracts/ContractPoolFactory.sol\":1425:1435  _poolindex */\n      dup3\n        /* \"contracts/ContractPoolFactory.sol\":1415:1436  poolArray[_poolindex] */\n      dup2\n      sload\n      dup2\n      lt\n      tag_169\n      jumpi\n      tag_170\n      tag_102\n      jump\t// in\n    tag_170:\n    tag_169:\n      swap1\n      0x00\n      mstore\n      keccak256(0x00, 0x20)\n      add\n      0x00\n      swap1\n      sload\n      swap1\n      0x0100\n      exp\n      swap1\n      div\n      0xffffffffffffffffffffffffffffffffffffffff\n      and\n        /* \"contracts/ContractPoolFactory.sol\":1415:1448  poolArray[_poolindex].returnBuyer */\n      0xffffffffffffffffffffffffffffffffffffffff\n      and\n      0x4ce9e6de\n        /* \"contracts/ContractPoolFactory.sol\":1415:1450  poolArray[_poolindex].returnBuyer() */\n      mload(0x40)\n      dup2\n      0xffffffff\n      and\n      0xe0\n      shl\n      dup2\n      mstore\n      0x04\n      add\n      0x20\n      mload(0x40)\n      dup1\n      dup4\n      sub\n      dup2\n      dup7\n      gas\n      staticcall\n      iszero\n      dup1\n      iszero\n      tag_173\n      jumpi\n      returndatasize\n      0x00\n      dup1\n      returndatacopy\n      revert(0x00, returndatasize)\n    tag_173:\n      pop\n      pop\n      pop\n      pop\n      mload(0x40)\n      returndatasize\n      not(0x1f)\n      0x1f\n      dup3\n      add\n      and\n      dup3\n      add\n      dup1\n      0x40\n      mstore\n      pop\n      dup2\n      add\n      swap1\n      tag_174\n      swap2\n      swap1\n      tag_137\n      jump\t// in\n    tag_174:\n        /* \"contracts/ContractPoolFactory.sol\":1408:1450  return poolArray[_poolindex].returnBuyer() */\n      swap1\n      pop\n        /* \"contracts/ContractPoolFactory.sol\":1331:1458  function getBuyer(uint256 _poolindex) public view returns(address){... */\n      swap2\n      swap1\n      pop\n      jump\t// out\n        /* \"contracts/ContractPoolFactory.sol\":2226:2348  function getEndDate(uint256 _poolindex) public view returns(uint){... */\n    tag_66:\n        /* \"contracts/ContractPoolFactory.sol\":2286:2290  uint */\n      0x00\n        /* \"contracts/ContractPoolFactory.sol\":2309:2318  poolArray */\n      dup1\n        /* \"contracts/ContractPoolFactory.sol\":2319:2329  _poolindex */\n      dup3\n        /* \"contracts/ContractPoolFactory.sol\":2309:2330  poolArray[_poolindex] */\n      dup2\n      sload\n      dup2\n      lt\n      tag_176\n      jumpi\n      tag_177\n      tag_102\n      jump\t// in\n    tag_177:\n    tag_176:\n      swap1\n      0x00\n      mstore\n      keccak256(0x00, 0x20)\n      add\n      0x00\n      swap1\n      sload\n      swap1\n      0x0100\n      exp\n      swap1\n      div\n      0xffffffffffffffffffffffffffffffffffffffff\n      and\n        /* \"contracts/ContractPoolFactory.sol\":2309:2338  poolArray[_poolindex].endDate */\n      0xffffffffffffffffffffffffffffffffffffffff\n      and\n      0xc24a0f8b\n        /* \"contracts/ContractPoolFactory.sol\":2309:2340  poolArray[_poolindex].endDate() */\n      mload(0x40)\n      dup2\n      0xffffffff\n      and\n      0xe0\n      shl\n      dup2\n      mstore\n      0x04\n      add\n      0x20\n      mload(0x40)\n      dup1\n      dup4\n      sub\n      dup2\n      dup7\n      gas\n      staticcall\n      iszero\n      dup1\n      iszero\n      tag_180\n      jumpi\n      returndatasize\n      0x00\n      dup1\n      returndatacopy\n      revert(0x00, returndatasize)\n    tag_180:\n      pop\n      pop\n      pop\n      pop\n      mload(0x40)\n      returndatasize\n      not(0x1f)\n      0x1f\n      dup3\n      add\n      and\n      dup3\n      add\n      dup1\n      0x40\n      mstore\n      pop\n      dup2\n      add\n      swap1\n      tag_181\n      swap2\n      swap1\n      tag_107\n      jump\t// in\n    tag_181:\n        /* \"contracts/ContractPoolFactory.sol\":2302:2340  return poolArray[_poolindex].endDate() */\n      swap1\n      pop\n        /* \"contracts/ContractPoolFactory.sol\":2226:2348  function getEndDate(uint256 _poolindex) public view returns(uint){... */\n      swap2\n      swap1\n      pop\n      jump\t// out\n        /* \"contracts/ContractPoolFactory.sol\":213:244  ContractPoll[] public poolArray */\n    tag_71:\n      0x00\n      dup2\n      dup2\n      sload\n      dup2\n      lt\n      tag_182\n      jumpi\n      0x00\n      dup1\n      revert\n    tag_182:\n      swap1\n      0x00\n      mstore\n      keccak256(0x00, 0x20)\n      add\n      0x00\n      swap2\n      pop\n      sload\n      swap1\n      0x0100\n      exp\n      swap1\n      div\n      0xffffffffffffffffffffffffffffffffffffffff\n      and\n      dup2\n      jump\t// out\n        /* \"contracts/ContractPoolFactory.sol\":1900:2056  function getSellerPreAgreementAmount(uint256 _poolindex) public view returns(uint){... */\n    tag_77:\n        /* \"contracts/ContractPoolFactory.sol\":1977:1981  uint */\n      0x00\n        /* \"contracts/ContractPoolFactory.sol\":2000:2009  poolArray */\n      dup1\n        /* \"contracts/ContractPoolFactory.sol\":2010:2020  _poolindex */\n      dup3\n        /* \"contracts/ContractPoolFactory.sol\":2000:2021  poolArray[_poolindex] */\n      dup2\n      sload\n      dup2\n      lt\n      tag_185\n      jumpi\n      tag_186\n      tag_102\n      jump\t// in\n    tag_186:\n    tag_185:\n      swap1\n      0x00\n      mstore\n      keccak256(0x00, 0x20)\n      add\n      0x00\n      swap1\n      sload\n      swap1\n      0x0100\n      exp\n      swap1\n      div\n      0xffffffffffffffffffffffffffffffffffffffff\n      and\n        /* \"contracts/ContractPoolFactory.sol\":2000:2046  poolArray[_poolindex].sellerPreAgreementAmount */\n      0xffffffffffffffffffffffffffffffffffffffff\n      and\n      0xa7245b6e\n        /* \"contracts/ContractPoolFactory.sol\":2000:2048  poolArray[_poolindex].sellerPreAgreementAmount() */\n      mload(0x40)\n      dup2\n      0xffffffff\n      and\n      0xe0\n      shl\n      dup2\n      mstore\n      0x04\n      add\n      0x20\n      mload(0x40)\n      dup1\n      dup4\n      sub\n      dup2\n      dup7\n      gas\n      staticcall\n      iszero\n      dup1\n      iszero\n      tag_189\n      jumpi\n      returndatasize\n      0x00\n      dup1\n      returndatacopy\n      revert(0x00, returndatasize)\n    tag_189:\n      pop\n      pop\n      pop\n      pop\n      mload(0x40)\n      returndatasize\n      not(0x1f)\n      0x1f\n      dup3\n      add\n      and\n      dup3\n      add\n      dup1\n      0x40\n      mstore\n      pop\n      dup2\n      add\n      swap1\n      tag_190\n      swap2\n      swap1\n      tag_107\n      jump\t// in\n    tag_190:\n        /* \"contracts/ContractPoolFactory.sol\":1993:2048  return poolArray[_poolindex].sellerPreAgreementAmount() */\n      swap1\n      pop\n        /* \"contracts/ContractPoolFactory.sol\":1900:2056  function getSellerPreAgreementAmount(uint256 _poolindex) public view returns(uint){... */\n      swap2\n      swap1\n      pop\n      jump\t// out\n        /* \"contracts/ContractPoolFactory.sol\":2951:3331  function buyer(address _buyer) public view returns (uint256[] memory) {... */\n    tag_82:\n        /* \"contracts/ContractPoolFactory.sol\":3003:3019  uint256[] memory */\n      0x60\n        /* \"contracts/ContractPoolFactory.sol\":3028:3056  uint256[] memory resultArray */\n      0x00\n        /* \"contracts/ContractPoolFactory.sol\":3073:3082  poolArray */\n      dup1\n        /* \"contracts/ContractPoolFactory.sol\":3073:3089  poolArray.length */\n      dup1\n      sload\n      swap1\n      pop\n        /* \"contracts/ContractPoolFactory.sol\":3059:3090  new uint256[](poolArray.length) */\n      0xffffffffffffffff\n      dup2\n      gt\n      iszero\n      tag_192\n      jumpi\n      tag_193\n      tag_126\n      jump\t// in\n    tag_193:\n    tag_192:\n      mload(0x40)\n      swap1\n      dup1\n      dup3\n      mstore\n      dup1\n      0x20\n      mul\n      0x20\n      add\n      dup3\n      add\n      0x40\n      mstore\n      dup1\n      iszero\n      tag_194\n      jumpi\n      dup2\n      0x20\n      add\n      0x20\n      dup3\n      mul\n      dup1\n      calldatasize\n      dup4\n      calldatacopy\n      dup1\n      dup3\n      add\n      swap2\n      pop\n      pop\n      swap1\n      pop\n    tag_194:\n      pop\n        /* \"contracts/ContractPoolFactory.sol\":3028:3090  uint256[] memory resultArray = new uint256[](poolArray.length) */\n      swap1\n      pop\n        /* \"contracts/ContractPoolFactory.sol\":3097:3110  uint256 index */\n      0x00\n        /* \"contracts/ContractPoolFactory.sol\":3126:3135  uint256 i */\n      dup1\n        /* \"contracts/ContractPoolFactory.sol\":3121:3299  for (uint256 i = 0; i < poolArray.length; i++) {... */\n    tag_195:\n        /* \"contracts/ContractPoolFactory.sol\":3145:3154  poolArray */\n      0x00\n        /* \"contracts/ContractPoolFactory.sol\":3145:3161  poolArray.length */\n      dup1\n      sload\n      swap1\n      pop\n        /* \"contracts/ContractPoolFactory.sol\":3141:3142  i */\n      dup2\n        /* \"contracts/ContractPoolFactory.sol\":3141:3161  i < poolArray.length */\n      lt\n        /* \"contracts/ContractPoolFactory.sol\":3121:3299  for (uint256 i = 0; i < poolArray.length; i++) {... */\n      iszero\n      tag_196\n      jumpi\n        /* \"contracts/ContractPoolFactory.sol\":3213:3219  _buyer */\n      dup5\n        /* \"contracts/ContractPoolFactory.sol\":3183:3219  poolArray[i].returnBuyer() == _buyer */\n      0xffffffffffffffffffffffffffffffffffffffff\n      and\n        /* \"contracts/ContractPoolFactory.sol\":3183:3192  poolArray */\n      0x00\n        /* \"contracts/ContractPoolFactory.sol\":3193:3194  i */\n      dup3\n        /* \"contracts/ContractPoolFactory.sol\":3183:3195  poolArray[i] */\n      dup2\n      sload\n      dup2\n      lt\n      tag_198\n      jumpi\n      tag_199\n      tag_102\n      jump\t// in\n    tag_199:\n    tag_198:\n      swap1\n      0x00\n      mstore\n      keccak256(0x00, 0x20)\n      add\n      0x00\n      swap1\n      sload\n      swap1\n      0x0100\n      exp\n      swap1\n      div\n      0xffffffffffffffffffffffffffffffffffffffff\n      and\n        /* \"contracts/ContractPoolFactory.sol\":3183:3207  poolArray[i].returnBuyer */\n      0xffffffffffffffffffffffffffffffffffffffff\n      and\n      0x4ce9e6de\n        /* \"contracts/ContractPoolFactory.sol\":3183:3209  poolArray[i].returnBuyer() */\n      mload(0x40)\n      dup2\n      0xffffffff\n      and\n      0xe0\n      shl\n      dup2\n      mstore\n      0x04\n      add\n      0x20\n      mload(0x40)\n      dup1\n      dup4\n      sub\n      dup2\n      dup7\n      gas\n      staticcall\n      iszero\n      dup1\n      iszero\n      tag_202\n      jumpi\n      returndatasize\n      0x00\n      dup1\n      returndatacopy\n      revert(0x00, returndatasize)\n    tag_202:\n      pop\n      pop\n      pop\n      pop\n      mload(0x40)\n      returndatasize\n      not(0x1f)\n      0x1f\n      dup3\n      add\n      and\n      dup3\n      add\n      dup1\n      0x40\n      mstore\n      pop\n      dup2\n      add\n      swap1\n      tag_203\n      swap2\n      swap1\n      tag_137\n      jump\t// in\n    tag_203:\n        /* \"contracts/ContractPoolFactory.sol\":3183:3219  poolArray[i].returnBuyer() == _buyer */\n      0xffffffffffffffffffffffffffffffffffffffff\n      and\n      sub\n        /* \"contracts/ContractPoolFactory.sol\":3179:3292  if (poolArray[i].returnBuyer() == _buyer) {... */\n      tag_204\n      jumpi\n        /* \"contracts/ContractPoolFactory.sol\":3257:3258  i */\n      dup1\n        /* \"contracts/ContractPoolFactory.sol\":3236:3247  resultArray */\n      dup4\n        /* \"contracts/ContractPoolFactory.sol\":3248:3253  index */\n      dup4\n        /* \"contracts/ContractPoolFactory.sol\":3236:3254  resultArray[index] */\n      dup2\n      mload\n      dup2\n      lt\n      tag_205\n      jumpi\n      tag_206\n      tag_102\n      jump\t// in\n    tag_206:\n    tag_205:\n      0x20\n      mul\n      0x20\n      add\n      add\n        /* \"contracts/ContractPoolFactory.sol\":3236:3258  resultArray[index] = i */\n      dup2\n      dup2\n      mstore\n      pop\n      pop\n        /* \"contracts/ContractPoolFactory.sol\":3273:3280  index++ */\n      dup2\n      dup1\n      tag_207\n      swap1\n      tag_142\n      jump\t// in\n    tag_207:\n      swap3\n      pop\n      pop\n        /* \"contracts/ContractPoolFactory.sol\":3179:3292  if (poolArray[i].returnBuyer() == _buyer) {... */\n    tag_204:\n        /* \"contracts/ContractPoolFactory.sol\":3163:3166  i++ */\n      dup1\n      dup1\n      tag_208\n      swap1\n      tag_142\n      jump\t// in\n    tag_208:\n      swap2\n      pop\n      pop\n        /* \"contracts/ContractPoolFactory.sol\":3121:3299  for (uint256 i = 0; i < poolArray.length; i++) {... */\n      jump(tag_195)\n    tag_196:\n      pop\n        /* \"contracts/ContractPoolFactory.sol\":3312:3323  resultArray */\n      dup2\n        /* \"contracts/ContractPoolFactory.sol\":3305:3323  return resultArray */\n      swap3\n      pop\n      pop\n      pop\n        /* \"contracts/ContractPoolFactory.sol\":2951:3331  function buyer(address _buyer) public view returns (uint256[] memory) {... */\n      swap2\n      swap1\n      pop\n      jump\t// out\n        /* \"contracts/ContractPoolFactory.sol\":2356:2498  function getDaysForWithdrawal(uint256 _poolindex) public view returns(uint){... */\n    tag_87:\n        /* \"contracts/ContractPoolFactory.sol\":2426:2430  uint */\n      0x00\n        /* \"contracts/ContractPoolFactory.sol\":2449:2458  poolArray */\n      dup1\n        /* \"contracts/ContractPoolFactory.sol\":2459:2469  _poolindex */\n      dup3\n        /* \"contracts/ContractPoolFactory.sol\":2449:2470  poolArray[_poolindex] */\n      dup2\n      sload\n      dup2\n      lt\n      tag_210\n      jumpi\n      tag_211\n      tag_102\n      jump\t// in\n    tag_211:\n    tag_210:\n      swap1\n      0x00\n      mstore\n      keccak256(0x00, 0x20)\n      add\n      0x00\n      swap1\n      sload\n      swap1\n      0x0100\n      exp\n      swap1\n      div\n      0xffffffffffffffffffffffffffffffffffffffff\n      and\n        /* \"contracts/ContractPoolFactory.sol\":2449:2488  poolArray[_poolindex].daysForWithdrawal */\n      0xffffffffffffffffffffffffffffffffffffffff\n      and\n      0x6d5e7a15\n        /* \"contracts/ContractPoolFactory.sol\":2449:2490  poolArray[_poolindex].daysForWithdrawal() */\n      mload(0x40)\n      dup2\n      0xffffffff\n      and\n      0xe0\n      shl\n      dup2\n      mstore\n      0x04\n      add\n      0x20\n      mload(0x40)\n      dup1\n      dup4\n      sub\n      dup2\n      dup7\n      gas\n      staticcall\n      iszero\n      dup1\n      iszero\n      tag_214\n      jumpi\n      returndatasize\n      0x00\n      dup1\n      returndatacopy\n      revert(0x00, returndatasize)\n    tag_214:\n      pop\n      pop\n      pop\n      pop\n      mload(0x40)\n      returndatasize\n      not(0x1f)\n      0x1f\n      dup3\n      add\n      and\n      dup3\n      add\n      dup1\n      0x40\n      mstore\n      pop\n      dup2\n      add\n      swap1\n      tag_215\n      swap2\n      swap1\n      tag_107\n      jump\t// in\n    tag_215:\n        /* \"contracts/ContractPoolFactory.sol\":2442:2490  return poolArray[_poolindex].daysForWithdrawal() */\n      swap1\n      pop\n        /* \"contracts/ContractPoolFactory.sol\":2356:2498  function getDaysForWithdrawal(uint256 _poolindex) public view returns(uint){... */\n      swap2\n      swap1\n      pop\n      jump\t// out\n        /* \"contracts/ContractPoolFactory.sol\":1608:1740  function getBuyerBalance(uint256 _poolindex) public view returns(uint){... */\n    tag_92:\n        /* \"contracts/ContractPoolFactory.sol\":1673:1677  uint */\n      0x00\n        /* \"contracts/ContractPoolFactory.sol\":1696:1705  poolArray */\n      dup1\n        /* \"contracts/ContractPoolFactory.sol\":1706:1716  _poolindex */\n      dup3\n        /* \"contracts/ContractPoolFactory.sol\":1696:1717  poolArray[_poolindex] */\n      dup2\n      sload\n      dup2\n      lt\n      tag_217\n      jumpi\n      tag_218\n      tag_102\n      jump\t// in\n    tag_218:\n    tag_217:\n      swap1\n      0x00\n      mstore\n      keccak256(0x00, 0x20)\n      add\n      0x00\n      swap1\n      sload\n      swap1\n      0x0100\n      exp\n      swap1\n      div\n      0xffffffffffffffffffffffffffffffffffffffff\n      and\n        /* \"contracts/ContractPoolFactory.sol\":1696:1730  poolArray[_poolindex].buyerBalance */\n      0xffffffffffffffffffffffffffffffffffffffff\n      and\n      0xe6cdc708\n        /* \"contracts/ContractPoolFactory.sol\":1696:1732  poolArray[_poolindex].buyerBalance() */\n      mload(0x40)\n      dup2\n      0xffffffff\n      and\n      0xe0\n      shl\n      dup2\n      mstore\n      0x04\n      add\n      0x20\n      mload(0x40)\n      dup1\n      dup4\n      sub\n      dup2\n      dup7\n      gas\n      staticcall\n      iszero\n      dup1\n      iszero\n      tag_221\n      jumpi\n      returndatasize\n      0x00\n      dup1\n      returndatacopy\n      revert(0x00, returndatasize)\n    tag_221:\n      pop\n      pop\n      pop\n      pop\n      mload(0x40)\n      returndatasize\n      not(0x1f)\n      0x1f\n      dup3\n      add\n      and\n      dup3\n      add\n      dup1\n      0x40\n      mstore\n      pop\n      dup2\n      add\n      swap1\n      tag_222\n      swap2\n      swap1\n      tag_107\n      jump\t// in\n    tag_222:\n        /* \"contracts/ContractPoolFactory.sol\":1689:1732  return poolArray[_poolindex].buyerBalance() */\n      swap1\n      pop\n        /* \"contracts/ContractPoolFactory.sol\":1608:1740  function getBuyerBalance(uint256 _poolindex) public view returns(uint){... */\n      swap2\n      swap1\n      pop\n      jump\t// out\n        /* \"contracts/ContractPoolFactory.sol\":1194:1323  function getSeller(uint256 _poolindex) public view returns(address){... */\n    tag_97:\n        /* \"contracts/ContractPoolFactory.sol\":1253:1260  address */\n      0x00\n        /* \"contracts/ContractPoolFactory.sol\":1279:1288  poolArray */\n      dup1\n        /* \"contracts/ContractPoolFactory.sol\":1289:1299  _poolindex */\n      dup3\n        /* \"contracts/ContractPoolFactory.sol\":1279:1300  poolArray[_poolindex] */\n      dup2\n      sload\n      dup2\n      lt\n      tag_224\n      jumpi\n      tag_225\n      tag_102\n      jump\t// in\n    tag_225:\n    tag_224:\n      swap1\n      0x00\n      mstore\n      keccak256(0x00, 0x20)\n      add\n      0x00\n      swap1\n      sload\n      swap1\n      0x0100\n      exp\n      swap1\n      div\n      0xffffffffffffffffffffffffffffffffffffffff\n      and\n        /* \"contracts/ContractPoolFactory.sol\":1279:1313  poolArray[_poolindex].returnSeller */\n      0xffffffffffffffffffffffffffffffffffffffff\n      and\n      0xba12a5c5\n        /* \"contracts/ContractPoolFactory.sol\":1279:1315  poolArray[_poolindex].returnSeller() */\n      mload(0x40)\n      dup2\n      0xffffffff\n      and\n      0xe0\n      shl\n      dup2\n      mstore\n      0x04\n      add\n      0x20\n      mload(0x40)\n      dup1\n      dup4\n      sub\n      dup2\n      dup7\n      gas\n      staticcall\n      iszero\n      dup1\n      iszero\n      tag_228\n      jumpi\n      returndatasize\n      0x00\n      dup1\n      returndatacopy\n      revert(0x00, returndatasize)\n    tag_228:\n      pop\n      pop\n      pop\n      pop\n      mload(0x40)\n      returndatasize\n      not(0x1f)\n      0x1f\n      dup3\n      add\n      and\n      dup3\n      add\n      dup1\n      0x40\n      mstore\n      pop\n      dup2\n      add\n      swap1\n      tag_229\n      swap2\n      swap1\n      tag_137\n      jump\t// in\n    tag_229:\n        /* \"contracts/ContractPoolFactory.sol\":1272:1315  return poolArray[_poolindex].returnSeller() */\n      swap1\n      pop\n        /* \"contracts/ContractPoolFactory.sol\":1194:1323  function getSeller(uint256 _poolindex) public view returns(address){... */\n      swap2\n      swap1\n      pop\n      jump\t// out\n    tag_161:\n      dataSize(sub_0)\n      dup1\n      dataOffset(sub_0)\n      dup4\n      codecopy\n      add\n      swap1\n      jump\t// out\n        /* \"#utility.yul\":88:205   */\n    tag_231:\n        /* \"#utility.yul\":197:198   */\n      0x00\n        /* \"#utility.yul\":194:195   */\n      dup1\n        /* \"#utility.yul\":187:199   */\n      revert\n        /* \"#utility.yul\":334:411   */\n    tag_233:\n        /* \"#utility.yul\":371:378   */\n      0x00\n        /* \"#utility.yul\":400:405   */\n      dup2\n        /* \"#utility.yul\":389:405   */\n      swap1\n      pop\n        /* \"#utility.yul\":334:411   */\n      swap2\n      swap1\n      pop\n      jump\t// out\n        /* \"#utility.yul\":417:539   */\n    tag_234:\n        /* \"#utility.yul\":490:514   */\n      tag_267\n        /* \"#utility.yul\":508:513   */\n      dup2\n        /* \"#utility.yul\":490:514   */\n      tag_233\n      jump\t// in\n    tag_267:\n        /* \"#utility.yul\":483:488   */\n      dup2\n        /* \"#utility.yul\":480:515   */\n      eq\n        /* \"#utility.yul\":470:533   */\n      tag_268\n      jumpi\n        /* \"#utility.yul\":529:530   */\n      0x00\n        /* \"#utility.yul\":526:527   */\n      dup1\n        /* \"#utility.yul\":519:531   */\n      revert\n        /* \"#utility.yul\":470:533   */\n    tag_268:\n        /* \"#utility.yul\":417:539   */\n      pop\n      jump\t// out\n        /* \"#utility.yul\":545:684   */\n    tag_235:\n        /* \"#utility.yul\":591:596   */\n      0x00\n        /* \"#utility.yul\":629:635   */\n      dup2\n        /* \"#utility.yul\":616:636   */\n      calldataload\n        /* \"#utility.yul\":607:636   */\n      swap1\n      pop\n        /* \"#utility.yul\":645:678   */\n      tag_270\n        /* \"#utility.yul\":672:677   */\n      dup2\n        /* \"#utility.yul\":645:678   */\n      tag_234\n      jump\t// in\n    tag_270:\n        /* \"#utility.yul\":545:684   */\n      swap3\n      swap2\n      pop\n      pop\n      jump\t// out\n        /* \"#utility.yul\":690:1019   */\n    tag_23:\n        /* \"#utility.yul\":749:755   */\n      0x00\n        /* \"#utility.yul\":798:800   */\n      0x20\n        /* \"#utility.yul\":786:795   */\n      dup3\n        /* \"#utility.yul\":777:784   */\n      dup5\n        /* \"#utility.yul\":773:796   */\n      sub\n        /* \"#utility.yul\":769:801   */\n      slt\n        /* \"#utility.yul\":766:885   */\n      iszero\n      tag_272\n      jumpi\n        /* \"#utility.yul\":804:883   */\n      tag_273\n      tag_231\n      jump\t// in\n    tag_273:\n        /* \"#utility.yul\":766:885   */\n    tag_272:\n        /* \"#utility.yul\":924:925   */\n      0x00\n        /* \"#utility.yul\":949:1002   */\n      tag_274\n        /* \"#utility.yul\":994:1001   */\n      dup5\n        /* \"#utility.yul\":985:991   */\n      dup3\n        /* \"#utility.yul\":974:983   */\n      dup6\n        /* \"#utility.yul\":970:992   */\n      add\n        /* \"#utility.yul\":949:1002   */\n      tag_235\n      jump\t// in\n    tag_274:\n        /* \"#utility.yul\":939:1002   */\n      swap2\n      pop\n        /* \"#utility.yul\":895:1012   */\n      pop\n        /* \"#utility.yul\":690:1019   */\n      swap3\n      swap2\n      pop\n      pop\n      jump\t// out\n        /* \"#utility.yul\":1025:1143   */\n    tag_236:\n        /* \"#utility.yul\":1112:1136   */\n      tag_276\n        /* \"#utility.yul\":1130:1135   */\n      dup2\n        /* \"#utility.yul\":1112:1136   */\n      tag_233\n      jump\t// in\n    tag_276:\n        /* \"#utility.yul\":1107:1110   */\n      dup3\n        /* \"#utility.yul\":1100:1137   */\n      mstore\n        /* \"#utility.yul\":1025:1143   */\n      pop\n      pop\n      jump\t// out\n        /* \"#utility.yul\":1149:1371   */\n    tag_26:\n        /* \"#utility.yul\":1242:1246   */\n      0x00\n        /* \"#utility.yul\":1280:1282   */\n      0x20\n        /* \"#utility.yul\":1269:1278   */\n      dup3\n        /* \"#utility.yul\":1265:1283   */\n      add\n        /* \"#utility.yul\":1257:1283   */\n      swap1\n      pop\n        /* \"#utility.yul\":1293:1364   */\n      tag_278\n        /* \"#utility.yul\":1361:1362   */\n      0x00\n        /* \"#utility.yul\":1350:1359   */\n      dup4\n        /* \"#utility.yul\":1346:1363   */\n      add\n        /* \"#utility.yul\":1337:1343   */\n      dup5\n        /* \"#utility.yul\":1293:1364   */\n      tag_236\n      jump\t// in\n    tag_278:\n        /* \"#utility.yul\":1149:1371   */\n      swap3\n      swap2\n      pop\n      pop\n      jump\t// out\n        /* \"#utility.yul\":1377:1503   */\n    tag_237:\n        /* \"#utility.yul\":1414:1421   */\n      0x00\n        /* \"#utility.yul\":1454:1496   */\n      0xffffffffffffffffffffffffffffffffffffffff\n        /* \"#utility.yul\":1447:1452   */\n      dup3\n        /* \"#utility.yul\":1443:1497   */\n      and\n        /* \"#utility.yul\":1432:1497   */\n      swap1\n      pop\n        /* \"#utility.yul\":1377:1503   */\n      swap2\n      swap1\n      pop\n      jump\t// out\n        /* \"#utility.yul\":1509:1605   */\n    tag_238:\n        /* \"#utility.yul\":1546:1553   */\n      0x00\n        /* \"#utility.yul\":1575:1599   */\n      tag_281\n        /* \"#utility.yul\":1593:1598   */\n      dup3\n        /* \"#utility.yul\":1575:1599   */\n      tag_237\n      jump\t// in\n    tag_281:\n        /* \"#utility.yul\":1564:1599   */\n      swap1\n      pop\n        /* \"#utility.yul\":1509:1605   */\n      swap2\n      swap1\n      pop\n      jump\t// out\n        /* \"#utility.yul\":1611:1733   */\n    tag_239:\n        /* \"#utility.yul\":1684:1708   */\n      tag_283\n        /* \"#utility.yul\":1702:1707   */\n      dup2\n        /* \"#utility.yul\":1684:1708   */\n      tag_238\n      jump\t// in\n    tag_283:\n        /* \"#utility.yul\":1677:1682   */\n      dup2\n        /* \"#utility.yul\":1674:1709   */\n      eq\n        /* \"#utility.yul\":1664:1727   */\n      tag_284\n      jumpi\n        /* \"#utility.yul\":1723:1724   */\n      0x00\n        /* \"#utility.yul\":1720:1721   */\n      dup1\n        /* \"#utility.yul\":1713:1725   */\n      revert\n        /* \"#utility.yul\":1664:1727   */\n    tag_284:\n        /* \"#utility.yul\":1611:1733   */\n      pop\n      jump\t// out\n        /* \"#utility.yul\":1739:1878   */\n    tag_240:\n        /* \"#utility.yul\":1785:1790   */\n      0x00\n        /* \"#utility.yul\":1823:1829   */\n      dup2\n        /* \"#utility.yul\":1810:1830   */\n      calldataload\n        /* \"#utility.yul\":1801:1830   */\n      swap1\n      pop\n        /* \"#utility.yul\":1839:1872   */\n      tag_286\n        /* \"#utility.yul\":1866:1871   */\n      dup2\n        /* \"#utility.yul\":1839:1872   */\n      tag_239\n      jump\t// in\n    tag_286:\n        /* \"#utility.yul\":1739:1878   */\n      swap3\n      swap2\n      pop\n      pop\n      jump\t// out\n        /* \"#utility.yul\":1884:2213   */\n    tag_39:\n        /* \"#utility.yul\":1943:1949   */\n      0x00\n        /* \"#utility.yul\":1992:1994   */\n      0x20\n        /* \"#utility.yul\":1980:1989   */\n      dup3\n        /* \"#utility.yul\":1971:1978   */\n      dup5\n        /* \"#utility.yul\":1967:1990   */\n      sub\n        /* \"#utility.yul\":1963:1995   */\n      slt\n        /* \"#utility.yul\":1960:2079   */\n      iszero\n      tag_288\n      jumpi\n        /* \"#utility.yul\":1998:2077   */\n      tag_289\n      tag_231\n      jump\t// in\n    tag_289:\n        /* \"#utility.yul\":1960:2079   */\n    tag_288:\n        /* \"#utility.yul\":2118:2119   */\n      0x00\n        /* \"#utility.yul\":2143:2196   */\n      tag_290\n        /* \"#utility.yul\":2188:2195   */\n      dup5\n        /* \"#utility.yul\":2179:2185   */\n      dup3\n        /* \"#utility.yul\":2168:2177   */\n      dup6\n        /* \"#utility.yul\":2164:2186   */\n      add\n        /* \"#utility.yul\":2143:2196   */\n      tag_240\n      jump\t// in\n    tag_290:\n        /* \"#utility.yul\":2133:2196   */\n      swap2\n      pop\n        /* \"#utility.yul\":2089:2206   */\n      pop\n        /* \"#utility.yul\":1884:2213   */\n      swap3\n      swap2\n      pop\n      pop\n      jump\t// out\n        /* \"#utility.yul\":2219:2333   */\n    tag_241:\n        /* \"#utility.yul\":2286:2292   */\n      0x00\n        /* \"#utility.yul\":2320:2325   */\n      dup2\n        /* \"#utility.yul\":2314:2326   */\n      mload\n        /* \"#utility.yul\":2304:2326   */\n      swap1\n      pop\n        /* \"#utility.yul\":2219:2333   */\n      swap2\n      swap1\n      pop\n      jump\t// out\n        /* \"#utility.yul\":2339:2523   */\n    tag_242:\n        /* \"#utility.yul\":2438:2449   */\n      0x00\n        /* \"#utility.yul\":2472:2478   */\n      dup3\n        /* \"#utility.yul\":2467:2470   */\n      dup3\n        /* \"#utility.yul\":2460:2479   */\n      mstore\n        /* \"#utility.yul\":2512:2516   */\n      0x20\n        /* \"#utility.yul\":2507:2510   */\n      dup3\n        /* \"#utility.yul\":2503:2517   */\n      add\n        /* \"#utility.yul\":2488:2517   */\n      swap1\n      pop\n        /* \"#utility.yul\":2339:2523   */\n      swap3\n      swap2\n      pop\n      pop\n      jump\t// out\n        /* \"#utility.yul\":2529:2661   */\n    tag_243:\n        /* \"#utility.yul\":2596:2600   */\n      0x00\n        /* \"#utility.yul\":2619:2622   */\n      dup2\n        /* \"#utility.yul\":2611:2622   */\n      swap1\n      pop\n        /* \"#utility.yul\":2649:2653   */\n      0x20\n        /* \"#utility.yul\":2644:2647   */\n      dup3\n        /* \"#utility.yul\":2640:2654   */\n      add\n        /* \"#utility.yul\":2632:2654   */\n      swap1\n      pop\n        /* \"#utility.yul\":2529:2661   */\n      swap2\n      swap1\n      pop\n      jump\t// out\n        /* \"#utility.yul\":2667:2775   */\n    tag_244:\n        /* \"#utility.yul\":2744:2768   */\n      tag_295\n        /* \"#utility.yul\":2762:2767   */\n      dup2\n        /* \"#utility.yul\":2744:2768   */\n      tag_233\n      jump\t// in\n    tag_295:\n        /* \"#utility.yul\":2739:2742   */\n      dup3\n        /* \"#utility.yul\":2732:2769   */\n      mstore\n        /* \"#utility.yul\":2667:2775   */\n      pop\n      pop\n      jump\t// out\n        /* \"#utility.yul\":2781:2960   */\n    tag_245:\n        /* \"#utility.yul\":2850:2860   */\n      0x00\n        /* \"#utility.yul\":2871:2917   */\n      tag_297\n        /* \"#utility.yul\":2913:2916   */\n      dup4\n        /* \"#utility.yul\":2905:2911   */\n      dup4\n        /* \"#utility.yul\":2871:2917   */\n      tag_244\n      jump\t// in\n    tag_297:\n        /* \"#utility.yul\":2949:2953   */\n      0x20\n        /* \"#utility.yul\":2944:2947   */\n      dup4\n        /* \"#utility.yul\":2940:2954   */\n      add\n        /* \"#utility.yul\":2926:2954   */\n      swap1\n      pop\n        /* \"#utility.yul\":2781:2960   */\n      swap3\n      swap2\n      pop\n      pop\n      jump\t// out\n        /* \"#utility.yul\":2966:3079   */\n    tag_246:\n        /* \"#utility.yul\":3036:3040   */\n      0x00\n        /* \"#utility.yul\":3068:3072   */\n      0x20\n        /* \"#utility.yul\":3063:3066   */\n      dup3\n        /* \"#utility.yul\":3059:3073   */\n      add\n        /* \"#utility.yul\":3051:3073   */\n      swap1\n      pop\n        /* \"#utility.yul\":2966:3079   */\n      swap2\n      swap1\n      pop\n      jump\t// out\n        /* \"#utility.yul\":3115:3847   */\n    tag_247:\n        /* \"#utility.yul\":3234:3237   */\n      0x00\n        /* \"#utility.yul\":3263:3317   */\n      tag_300\n        /* \"#utility.yul\":3311:3316   */\n      dup3\n        /* \"#utility.yul\":3263:3317   */\n      tag_241\n      jump\t// in\n    tag_300:\n        /* \"#utility.yul\":3333:3419   */\n      tag_301\n        /* \"#utility.yul\":3412:3418   */\n      dup2\n        /* \"#utility.yul\":3407:3410   */\n      dup6\n        /* \"#utility.yul\":3333:3419   */\n      tag_242\n      jump\t// in\n    tag_301:\n        /* \"#utility.yul\":3326:3419   */\n      swap4\n      pop\n        /* \"#utility.yul\":3443:3499   */\n      tag_302\n        /* \"#utility.yul\":3493:3498   */\n      dup4\n        /* \"#utility.yul\":3443:3499   */\n      tag_243\n      jump\t// in\n    tag_302:\n        /* \"#utility.yul\":3522:3529   */\n      dup1\n        /* \"#utility.yul\":3553:3554   */\n      0x00\n        /* \"#utility.yul\":3538:3822   */\n    tag_303:\n        /* \"#utility.yul\":3563:3569   */\n      dup4\n        /* \"#utility.yul\":3560:3561   */\n      dup2\n        /* \"#utility.yul\":3557:3570   */\n      lt\n        /* \"#utility.yul\":3538:3822   */\n      iszero\n      tag_305\n      jumpi\n        /* \"#utility.yul\":3639:3645   */\n      dup2\n        /* \"#utility.yul\":3633:3646   */\n      mload\n        /* \"#utility.yul\":3666:3729   */\n      tag_306\n        /* \"#utility.yul\":3725:3728   */\n      dup9\n        /* \"#utility.yul\":3710:3723   */\n      dup3\n        /* \"#utility.yul\":3666:3729   */\n      tag_245\n      jump\t// in\n    tag_306:\n        /* \"#utility.yul\":3659:3729   */\n      swap8\n      pop\n        /* \"#utility.yul\":3752:3812   */\n      tag_307\n        /* \"#utility.yul\":3805:3811   */\n      dup4\n        /* \"#utility.yul\":3752:3812   */\n      tag_246\n      jump\t// in\n    tag_307:\n        /* \"#utility.yul\":3742:3812   */\n      swap3\n      pop\n        /* \"#utility.yul\":3598:3822   */\n      pop\n        /* \"#utility.yul\":3585:3586   */\n      0x01\n        /* \"#utility.yul\":3582:3583   */\n      dup2\n        /* \"#utility.yul\":3578:3587   */\n      add\n        /* \"#utility.yul\":3573:3587   */\n      swap1\n      pop\n        /* \"#utility.yul\":3538:3822   */\n      jump(tag_303)\n    tag_305:\n        /* \"#utility.yul\":3542:3556   */\n      pop\n        /* \"#utility.yul\":3838:3841   */\n      dup6\n        /* \"#utility.yul\":3831:3841   */\n      swap4\n      pop\n        /* \"#utility.yul\":3239:3847   */\n      pop\n      pop\n      pop\n        /* \"#utility.yul\":3115:3847   */\n      swap3\n      swap2\n      pop\n      pop\n      jump\t// out\n        /* \"#utility.yul\":3853:4226   */\n    tag_42:\n        /* \"#utility.yul\":3996:4000   */\n      0x00\n        /* \"#utility.yul\":4034:4036   */\n      0x20\n        /* \"#utility.yul\":4023:4032   */\n      dup3\n        /* \"#utility.yul\":4019:4037   */\n      add\n        /* \"#utility.yul\":4011:4037   */\n      swap1\n      pop\n        /* \"#utility.yul\":4083:4092   */\n      dup2\n        /* \"#utility.yul\":4077:4081   */\n      dup2\n        /* \"#utility.yul\":4073:4093   */\n      sub\n        /* \"#utility.yul\":4069:4070   */\n      0x00\n        /* \"#utility.yul\":4058:4067   */\n      dup4\n        /* \"#utility.yul\":4054:4071   */\n      add\n        /* \"#utility.yul\":4047:4094   */\n      mstore\n        /* \"#utility.yul\":4111:4219   */\n      tag_309\n        /* \"#utility.yul\":4214:4218   */\n      dup2\n        /* \"#utility.yul\":4205:4211   */\n      dup5\n        /* \"#utility.yul\":4111:4219   */\n      tag_247\n      jump\t// in\n    tag_309:\n        /* \"#utility.yul\":4103:4219   */\n      swap1\n      pop\n        /* \"#utility.yul\":3853:4226   */\n      swap3\n      swap2\n      pop\n      pop\n      jump\t// out\n        /* \"#utility.yul\":4232:4336   */\n    tag_248:\n        /* \"#utility.yul\":4277:4284   */\n      0x00\n        /* \"#utility.yul\":4306:4330   */\n      tag_311\n        /* \"#utility.yul\":4324:4329   */\n      dup3\n        /* \"#utility.yul\":4306:4330   */\n      tag_237\n      jump\t// in\n    tag_311:\n        /* \"#utility.yul\":4295:4330   */\n      swap1\n      pop\n        /* \"#utility.yul\":4232:4336   */\n      swap2\n      swap1\n      pop\n      jump\t// out\n        /* \"#utility.yul\":4342:4480   */\n    tag_249:\n        /* \"#utility.yul\":4423:4455   */\n      tag_313\n        /* \"#utility.yul\":4449:4454   */\n      dup2\n        /* \"#utility.yul\":4423:4455   */\n      tag_248\n      jump\t// in\n    tag_313:\n        /* \"#utility.yul\":4416:4421   */\n      dup2\n        /* \"#utility.yul\":4413:4456   */\n      eq\n        /* \"#utility.yul\":4403:4474   */\n      tag_314\n      jumpi\n        /* \"#utility.yul\":4470:4471   */\n      0x00\n        /* \"#utility.yul\":4467:4468   */\n      dup1\n        /* \"#utility.yul\":4460:4472   */\n      revert\n        /* \"#utility.yul\":4403:4474   */\n    tag_314:\n        /* \"#utility.yul\":4342:4480   */\n      pop\n      jump\t// out\n        /* \"#utility.yul\":4486:4641   */\n    tag_250:\n        /* \"#utility.yul\":4540:4545   */\n      0x00\n        /* \"#utility.yul\":4578:4584   */\n      dup2\n        /* \"#utility.yul\":4565:4585   */\n      calldataload\n        /* \"#utility.yul\":4556:4585   */\n      swap1\n      pop\n        /* \"#utility.yul\":4594:4635   */\n      tag_316\n        /* \"#utility.yul\":4629:4634   */\n      dup2\n        /* \"#utility.yul\":4594:4635   */\n      tag_249\n      jump\t// in\n    tag_316:\n        /* \"#utility.yul\":4486:4641   */\n      swap3\n      swap2\n      pop\n      pop\n      jump\t// out\n        /* \"#utility.yul\":4647:5720   */\n    tag_54:\n        /* \"#utility.yul\":4759:4765   */\n      0x00\n        /* \"#utility.yul\":4767:4773   */\n      dup1\n        /* \"#utility.yul\":4775:4781   */\n      0x00\n        /* \"#utility.yul\":4783:4789   */\n      dup1\n        /* \"#utility.yul\":4791:4797   */\n      0x00\n        /* \"#utility.yul\":4799:4805   */\n      dup1\n        /* \"#utility.yul\":4848:4851   */\n      0xc0\n        /* \"#utility.yul\":4836:4845   */\n      dup8\n        /* \"#utility.yul\":4827:4834   */\n      dup10\n        /* \"#utility.yul\":4823:4846   */\n      sub\n        /* \"#utility.yul\":4819:4852   */\n      slt\n        /* \"#utility.yul\":4816:4936   */\n      iszero\n      tag_318\n      jumpi\n        /* \"#utility.yul\":4855:4934   */\n      tag_319\n      tag_231\n      jump\t// in\n    tag_319:\n        /* \"#utility.yul\":4816:4936   */\n    tag_318:\n        /* \"#utility.yul\":4975:4976   */\n      0x00\n        /* \"#utility.yul\":5000:5061   */\n      tag_320\n        /* \"#utility.yul\":5053:5060   */\n      dup10\n        /* \"#utility.yul\":5044:5050   */\n      dup3\n        /* \"#utility.yul\":5033:5042   */\n      dup11\n        /* \"#utility.yul\":5029:5051   */\n      add\n        /* \"#utility.yul\":5000:5061   */\n      tag_250\n      jump\t// in\n    tag_320:\n        /* \"#utility.yul\":4990:5061   */\n      swap7\n      pop\n        /* \"#utility.yul\":4946:5071   */\n      pop\n        /* \"#utility.yul\":5110:5112   */\n      0x20\n        /* \"#utility.yul\":5136:5189   */\n      tag_321\n        /* \"#utility.yul\":5181:5188   */\n      dup10\n        /* \"#utility.yul\":5172:5178   */\n      dup3\n        /* \"#utility.yul\":5161:5170   */\n      dup11\n        /* \"#utility.yul\":5157:5179   */\n      add\n        /* \"#utility.yul\":5136:5189   */\n      tag_235\n      jump\t// in\n    tag_321:\n        /* \"#utility.yul\":5126:5189   */\n      swap6\n      pop\n        /* \"#utility.yul\":5081:5199   */\n      pop\n        /* \"#utility.yul\":5238:5240   */\n      0x40\n        /* \"#utility.yul\":5264:5317   */\n      tag_322\n        /* \"#utility.yul\":5309:5316   */\n      dup10\n        /* \"#utility.yul\":5300:5306   */\n      dup3\n        /* \"#utility.yul\":5289:5298   */\n      dup11\n        /* \"#utility.yul\":5285:5307   */\n      add\n        /* \"#utility.yul\":5264:5317   */\n      tag_235\n      jump\t// in\n    tag_322:\n        /* \"#utility.yul\":5254:5317   */\n      swap5\n      pop\n        /* \"#utility.yul\":5209:5327   */\n      pop\n        /* \"#utility.yul\":5366:5368   */\n      0x60\n        /* \"#utility.yul\":5392:5445   */\n      tag_323\n        /* \"#utility.yul\":5437:5444   */\n      dup10\n        /* \"#utility.yul\":5428:5434   */\n      dup3\n        /* \"#utility.yul\":5417:5426   */\n      dup11\n        /* \"#utility.yul\":5413:5435   */\n      add\n        /* \"#utility.yul\":5392:5445   */\n      tag_235\n      jump\t// in\n    tag_323:\n        /* \"#utility.yul\":5382:5445   */\n      swap4\n      pop\n        /* \"#utility.yul\":5337:5455   */\n      pop\n        /* \"#utility.yul\":5494:5497   */\n      0x80\n        /* \"#utility.yul\":5521:5574   */\n      tag_324\n        /* \"#utility.yul\":5566:5573   */\n      dup10\n        /* \"#utility.yul\":5557:5563   */\n      dup3\n        /* \"#utility.yul\":5546:5555   */\n      dup11\n        /* \"#utility.yul\":5542:5564   */\n      add\n        /* \"#utility.yul\":5521:5574   */\n      tag_235\n      jump\t// in\n    tag_324:\n        /* \"#utility.yul\":5511:5574   */\n      swap3\n      pop\n        /* \"#utility.yul\":5465:5584   */\n      pop\n        /* \"#utility.yul\":5623:5626   */\n      0xa0\n        /* \"#utility.yul\":5650:5703   */\n      tag_325\n        /* \"#utility.yul\":5695:5702   */\n      dup10\n        /* \"#utility.yul\":5686:5692   */\n      dup3\n        /* \"#utility.yul\":5675:5684   */\n      dup11\n        /* \"#utility.yul\":5671:5693   */\n      add\n        /* \"#utility.yul\":5650:5703   */\n      tag_235\n      jump\t// in\n    tag_325:\n        /* \"#utility.yul\":5640:5703   */\n      swap2\n      pop\n        /* \"#utility.yul\":5594:5713   */\n      pop\n        /* \"#utility.yul\":4647:5720   */\n      swap3\n      swap6\n      pop\n      swap3\n      swap6\n      pop\n      swap3\n      swap6\n      jump\t// out\n        /* \"#utility.yul\":5726:5844   */\n    tag_251:\n        /* \"#utility.yul\":5813:5837   */\n      tag_327\n        /* \"#utility.yul\":5831:5836   */\n      dup2\n        /* \"#utility.yul\":5813:5837   */\n      tag_238\n      jump\t// in\n    tag_327:\n        /* \"#utility.yul\":5808:5811   */\n      dup3\n        /* \"#utility.yul\":5801:5838   */\n      mstore\n        /* \"#utility.yul\":5726:5844   */\n      pop\n      pop\n      jump\t// out\n        /* \"#utility.yul\":5850:6072   */\n    tag_57:\n        /* \"#utility.yul\":5943:5947   */\n      0x00\n        /* \"#utility.yul\":5981:5983   */\n      0x20\n        /* \"#utility.yul\":5970:5979   */\n      dup3\n        /* \"#utility.yul\":5966:5984   */\n      add\n        /* \"#utility.yul\":5958:5984   */\n      swap1\n      pop\n        /* \"#utility.yul\":5994:6065   */\n      tag_329\n        /* \"#utility.yul\":6062:6063   */\n      0x00\n        /* \"#utility.yul\":6051:6060   */\n      dup4\n        /* \"#utility.yul\":6047:6064   */\n      add\n        /* \"#utility.yul\":6038:6044   */\n      dup5\n        /* \"#utility.yul\":5994:6065   */\n      tag_251\n      jump\t// in\n    tag_329:\n        /* \"#utility.yul\":5850:6072   */\n      swap3\n      swap2\n      pop\n      pop\n      jump\t// out\n        /* \"#utility.yul\":6078:6138   */\n    tag_252:\n        /* \"#utility.yul\":6106:6109   */\n      0x00\n        /* \"#utility.yul\":6127:6132   */\n      dup2\n        /* \"#utility.yul\":6120:6132   */\n      swap1\n      pop\n        /* \"#utility.yul\":6078:6138   */\n      swap2\n      swap1\n      pop\n      jump\t// out\n        /* \"#utility.yul\":6144:6286   */\n    tag_253:\n        /* \"#utility.yul\":6194:6203   */\n      0x00\n        /* \"#utility.yul\":6227:6280   */\n      tag_332\n        /* \"#utility.yul\":6245:6279   */\n      tag_333\n        /* \"#utility.yul\":6254:6278   */\n      tag_334\n        /* \"#utility.yul\":6272:6277   */\n      dup5\n        /* \"#utility.yul\":6254:6278   */\n      tag_237\n      jump\t// in\n    tag_334:\n        /* \"#utility.yul\":6245:6279   */\n      tag_252\n      jump\t// in\n    tag_333:\n        /* \"#utility.yul\":6227:6280   */\n      tag_237\n      jump\t// in\n    tag_332:\n        /* \"#utility.yul\":6214:6280   */\n      swap1\n      pop\n        /* \"#utility.yul\":6144:6286   */\n      swap2\n      swap1\n      pop\n      jump\t// out\n        /* \"#utility.yul\":6292:6426   */\n    tag_254:\n        /* \"#utility.yul\":6350:6359   */\n      0x00\n        /* \"#utility.yul\":6383:6420   */\n      tag_336\n        /* \"#utility.yul\":6414:6419   */\n      dup3\n        /* \"#utility.yul\":6383:6420   */\n      tag_253\n      jump\t// in\n    tag_336:\n        /* \"#utility.yul\":6370:6420   */\n      swap1\n      pop\n        /* \"#utility.yul\":6292:6426   */\n      swap2\n      swap1\n      pop\n      jump\t// out\n        /* \"#utility.yul\":6432:6594   */\n    tag_255:\n        /* \"#utility.yul\":6510:6519   */\n      0x00\n        /* \"#utility.yul\":6543:6588   */\n      tag_338\n        /* \"#utility.yul\":6582:6587   */\n      dup3\n        /* \"#utility.yul\":6543:6588   */\n      tag_254\n      jump\t// in\n    tag_338:\n        /* \"#utility.yul\":6530:6588   */\n      swap1\n      pop\n        /* \"#utility.yul\":6432:6594   */\n      swap2\n      swap1\n      pop\n      jump\t// out\n        /* \"#utility.yul\":6600:6787   */\n    tag_256:\n        /* \"#utility.yul\":6715:6780   */\n      tag_340\n        /* \"#utility.yul\":6774:6779   */\n      dup2\n        /* \"#utility.yul\":6715:6780   */\n      tag_255\n      jump\t// in\n    tag_340:\n        /* \"#utility.yul\":6710:6713   */\n      dup3\n        /* \"#utility.yul\":6703:6781   */\n      mstore\n        /* \"#utility.yul\":6600:6787   */\n      pop\n      pop\n      jump\t// out\n        /* \"#utility.yul\":6793:7071   */\n    tag_73:\n        /* \"#utility.yul\":6914:6918   */\n      0x00\n        /* \"#utility.yul\":6952:6954   */\n      0x20\n        /* \"#utility.yul\":6941:6950   */\n      dup3\n        /* \"#utility.yul\":6937:6955   */\n      add\n        /* \"#utility.yul\":6929:6955   */\n      swap1\n      pop\n        /* \"#utility.yul\":6965:7064   */\n      tag_342\n        /* \"#utility.yul\":7061:7062   */\n      0x00\n        /* \"#utility.yul\":7050:7059   */\n      dup4\n        /* \"#utility.yul\":7046:7063   */\n      add\n        /* \"#utility.yul\":7037:7043   */\n      dup5\n        /* \"#utility.yul\":6965:7064   */\n      tag_256\n      jump\t// in\n    tag_342:\n        /* \"#utility.yul\":6793:7071   */\n      swap3\n      swap2\n      pop\n      pop\n      jump\t// out\n        /* \"#utility.yul\":7077:7257   */\n    tag_102:\n        /* \"#utility.yul\":7125:7202   */\n      0x4e487b7100000000000000000000000000000000000000000000000000000000\n        /* \"#utility.yul\":7122:7123   */\n      0x00\n        /* \"#utility.yul\":7115:7203   */\n      mstore\n        /* \"#utility.yul\":7222:7226   */\n      0x32\n        /* \"#utility.yul\":7219:7220   */\n      0x04\n        /* \"#utility.yul\":7212:7227   */\n      mstore\n        /* \"#utility.yul\":7246:7250   */\n      0x24\n        /* \"#utility.yul\":7243:7244   */\n      0x00\n        /* \"#utility.yul\":7236:7251   */\n      revert\n        /* \"#utility.yul\":7263:7406   */\n    tag_257:\n        /* \"#utility.yul\":7320:7325   */\n      0x00\n        /* \"#utility.yul\":7351:7357   */\n      dup2\n        /* \"#utility.yul\":7345:7358   */\n      mload\n        /* \"#utility.yul\":7336:7358   */\n      swap1\n      pop\n        /* \"#utility.yul\":7367:7400   */\n      tag_345\n        /* \"#utility.yul\":7394:7399   */\n      dup2\n        /* \"#utility.yul\":7367:7400   */\n      tag_234\n      jump\t// in\n    tag_345:\n        /* \"#utility.yul\":7263:7406   */\n      swap3\n      swap2\n      pop\n      pop\n      jump\t// out\n        /* \"#utility.yul\":7412:7763   */\n    tag_107:\n        /* \"#utility.yul\":7482:7488   */\n      0x00\n        /* \"#utility.yul\":7531:7533   */\n      0x20\n        /* \"#utility.yul\":7519:7528   */\n      dup3\n        /* \"#utility.yul\":7510:7517   */\n      dup5\n        /* \"#utility.yul\":7506:7529   */\n      sub\n        /* \"#utility.yul\":7502:7534   */\n      slt\n        /* \"#utility.yul\":7499:7618   */\n      iszero\n      tag_347\n      jumpi\n        /* \"#utility.yul\":7537:7616   */\n      tag_348\n      tag_231\n      jump\t// in\n    tag_348:\n        /* \"#utility.yul\":7499:7618   */\n    tag_347:\n        /* \"#utility.yul\":7657:7658   */\n      0x00\n        /* \"#utility.yul\":7682:7746   */\n      tag_349\n        /* \"#utility.yul\":7738:7745   */\n      dup5\n        /* \"#utility.yul\":7729:7735   */\n      dup3\n        /* \"#utility.yul\":7718:7727   */\n      dup6\n        /* \"#utility.yul\":7714:7736   */\n      add\n        /* \"#utility.yul\":7682:7746   */\n      tag_257\n      jump\t// in\n    tag_349:\n        /* \"#utility.yul\":7672:7746   */\n      swap2\n      pop\n        /* \"#utility.yul\":7628:7756   */\n      pop\n        /* \"#utility.yul\":7412:7763   */\n      swap3\n      swap2\n      pop\n      pop\n      jump\t// out\n        /* \"#utility.yul\":7769:7949   */\n    tag_126:\n        /* \"#utility.yul\":7817:7894   */\n      0x4e487b7100000000000000000000000000000000000000000000000000000000\n        /* \"#utility.yul\":7814:7815   */\n      0x00\n        /* \"#utility.yul\":7807:7895   */\n      mstore\n        /* \"#utility.yul\":7914:7918   */\n      0x41\n        /* \"#utility.yul\":7911:7912   */\n      0x04\n        /* \"#utility.yul\":7904:7919   */\n      mstore\n        /* \"#utility.yul\":7938:7942   */\n      0x24\n        /* \"#utility.yul\":7935:7936   */\n      0x00\n        /* \"#utility.yul\":7928:7943   */\n      revert\n        /* \"#utility.yul\":7955:8098   */\n    tag_258:\n        /* \"#utility.yul\":8012:8017   */\n      0x00\n        /* \"#utility.yul\":8043:8049   */\n      dup2\n        /* \"#utility.yul\":8037:8050   */\n      mload\n        /* \"#utility.yul\":8028:8050   */\n      swap1\n      pop\n        /* \"#utility.yul\":8059:8092   */\n      tag_352\n        /* \"#utility.yul\":8086:8091   */\n      dup2\n        /* \"#utility.yul\":8059:8092   */\n      tag_239\n      jump\t// in\n    tag_352:\n        /* \"#utility.yul\":7955:8098   */\n      swap3\n      swap2\n      pop\n      pop\n      jump\t// out\n        /* \"#utility.yul\":8104:8455   */\n    tag_137:\n        /* \"#utility.yul\":8174:8180   */\n      0x00\n        /* \"#utility.yul\":8223:8225   */\n      0x20\n        /* \"#utility.yul\":8211:8220   */\n      dup3\n        /* \"#utility.yul\":8202:8209   */\n      dup5\n        /* \"#utility.yul\":8198:8221   */\n      sub\n        /* \"#utility.yul\":8194:8226   */\n      slt\n        /* \"#utility.yul\":8191:8310   */\n      iszero\n      tag_354\n      jumpi\n        /* \"#utility.yul\":8229:8308   */\n      tag_355\n      tag_231\n      jump\t// in\n    tag_355:\n        /* \"#utility.yul\":8191:8310   */\n    tag_354:\n        /* \"#utility.yul\":8349:8350   */\n      0x00\n        /* \"#utility.yul\":8374:8438   */\n      tag_356\n        /* \"#utility.yul\":8430:8437   */\n      dup5\n        /* \"#utility.yul\":8421:8427   */\n      dup3\n        /* \"#utility.yul\":8410:8419   */\n      dup6\n        /* \"#utility.yul\":8406:8428   */\n      add\n        /* \"#utility.yul\":8374:8438   */\n      tag_258\n      jump\t// in\n    tag_356:\n        /* \"#utility.yul\":8364:8438   */\n      swap2\n      pop\n        /* \"#utility.yul\":8320:8448   */\n      pop\n        /* \"#utility.yul\":8104:8455   */\n      swap3\n      swap2\n      pop\n      pop\n      jump\t// out\n        /* \"#utility.yul\":8461:8641   */\n    tag_259:\n        /* \"#utility.yul\":8509:8586   */\n      0x4e487b7100000000000000000000000000000000000000000000000000000000\n        /* \"#utility.yul\":8506:8507   */\n      0x00\n        /* \"#utility.yul\":8499:8587   */\n      mstore\n        /* \"#utility.yul\":8606:8610   */\n      0x11\n        /* \"#utility.yul\":8603:8604   */\n      0x04\n        /* \"#utility.yul\":8596:8611   */\n      mstore\n        /* \"#utility.yul\":8630:8634   */\n      0x24\n        /* \"#utility.yul\":8627:8628   */\n      0x00\n        /* \"#utility.yul\":8620:8635   */\n      revert\n        /* \"#utility.yul\":8647:8880   */\n    tag_142:\n        /* \"#utility.yul\":8686:8689   */\n      0x00\n        /* \"#utility.yul\":8709:8733   */\n      tag_359\n        /* \"#utility.yul\":8727:8732   */\n      dup3\n        /* \"#utility.yul\":8709:8733   */\n      tag_233\n      jump\t// in\n    tag_359:\n        /* \"#utility.yul\":8700:8733   */\n      swap2\n      pop\n        /* \"#utility.yul\":8755:8821   */\n      0xffffffffffffffffffffffffffffffffffffffffffffffffffffffffffffffff\n        /* \"#utility.yul\":8748:8753   */\n      dup3\n        /* \"#utility.yul\":8745:8822   */\n      sub\n        /* \"#utility.yul\":8742:8845   */\n      tag_360\n      jumpi\n        /* \"#utility.yul\":8825:8843   */\n      tag_361\n      tag_259\n      jump\t// in\n    tag_361:\n        /* \"#utility.yul\":8742:8845   */\n    tag_360:\n        /* \"#utility.yul\":8872:8873   */\n      0x01\n        /* \"#utility.yul\":8865:8870   */\n      dup3\n        /* \"#utility.yul\":8861:8874   */\n      add\n        /* \"#utility.yul\":8854:8874   */\n      swap1\n      pop\n        /* \"#utility.yul\":8647:8880   */\n      swap2\n      swap1\n      pop\n      jump\t// out\n        /* \"#utility.yul\":8886:9028   */\n    tag_260:\n        /* \"#utility.yul\":8989:9021   */\n      tag_363\n        /* \"#utility.yul\":9015:9020   */\n      dup2\n        /* \"#utility.yul\":8989:9021   */\n      tag_248\n      jump\t// in\n    tag_363:\n        /* \"#utility.yul\":8984:8987   */\n      dup3\n        /* \"#utility.yul\":8977:9022   */\n      mstore\n        /* \"#utility.yul\":8886:9028   */\n      pop\n      pop\n      jump\t// out\n        /* \"#utility.yul\":9034:9984   */\n    tag_163:\n        /* \"#utility.yul\":9327:9331   */\n      0x00\n        /* \"#utility.yul\":9365:9368   */\n      0xe0\n        /* \"#utility.yul\":9354:9363   */\n      dup3\n        /* \"#utility.yul\":9350:9369   */\n      add\n        /* \"#utility.yul\":9342:9369   */\n      swap1\n      pop\n        /* \"#utility.yul\":9379:9466   */\n      tag_365\n        /* \"#utility.yul\":9463:9464   */\n      0x00\n        /* \"#utility.yul\":9452:9461   */\n      dup4\n        /* \"#utility.yul\":9448:9465   */\n      add\n        /* \"#utility.yul\":9439:9445   */\n      dup11\n        /* \"#utility.yul\":9379:9466   */\n      tag_260\n      jump\t// in\n    tag_365:\n        /* \"#utility.yul\":9476:9564   */\n      tag_366\n        /* \"#utility.yul\":9560:9562   */\n      0x20\n        /* \"#utility.yul\":9549:9558   */\n      dup4\n        /* \"#utility.yul\":9545:9563   */\n      add\n        /* \"#utility.yul\":9536:9542   */\n      dup10\n        /* \"#utility.yul\":9476:9564   */\n      tag_260\n      jump\t// in\n    tag_366:\n        /* \"#utility.yul\":9574:9646   */\n      tag_367\n        /* \"#utility.yul\":9642:9644   */\n      0x40\n        /* \"#utility.yul\":9631:9640   */\n      dup4\n        /* \"#utility.yul\":9627:9645   */\n      add\n        /* \"#utility.yul\":9618:9624   */\n      dup9\n        /* \"#utility.yul\":9574:9646   */\n      tag_236\n      jump\t// in\n    tag_367:\n        /* \"#utility.yul\":9656:9728   */\n      tag_368\n        /* \"#utility.yul\":9724:9726   */\n      0x60\n        /* \"#utility.yul\":9713:9722   */\n      dup4\n        /* \"#utility.yul\":9709:9727   */\n      add\n        /* \"#utility.yul\":9700:9706   */\n      dup8\n        /* \"#utility.yul\":9656:9728   */\n      tag_236\n      jump\t// in\n    tag_368:\n        /* \"#utility.yul\":9738:9811   */\n      tag_369\n        /* \"#utility.yul\":9806:9809   */\n      0x80\n        /* \"#utility.yul\":9795:9804   */\n      dup4\n        /* \"#utility.yul\":9791:9810   */\n      add\n        /* \"#utility.yul\":9782:9788   */\n      dup7\n        /* \"#utility.yul\":9738:9811   */\n      tag_236\n      jump\t// in\n    tag_369:\n        /* \"#utility.yul\":9821:9894   */\n      tag_370\n        /* \"#utility.yul\":9889:9892   */\n      0xa0\n        /* \"#utility.yul\":9878:9887   */\n      dup4\n        /* \"#utility.yul\":9874:9893   */\n      add\n        /* \"#utility.yul\":9865:9871   */\n      dup6\n        /* \"#utility.yul\":9821:9894   */\n      tag_236\n      jump\t// in\n    tag_370:\n        /* \"#utility.yul\":9904:9977   */\n      tag_371\n        /* \"#utility.yul\":9972:9975   */\n      0xc0\n        /* \"#utility.yul\":9961:9970   */\n      dup4\n        /* \"#utility.yul\":9957:9976   */\n      add\n        /* \"#utility.yul\":9948:9954   */\n      dup5\n        /* \"#utility.yul\":9904:9977   */\n      tag_236\n      jump\t// in\n    tag_371:\n        /* \"#utility.yul\":9034:9984   */\n      swap9\n      swap8\n      pop\n      pop\n      pop\n      pop\n      pop\n      pop\n      pop\n      pop\n      jump\t// out\n        /* \"#utility.yul\":9990:10322   */\n    tag_167:\n        /* \"#utility.yul\":10111:10115   */\n      0x00\n        /* \"#utility.yul\":10149:10151   */\n      0x40\n        /* \"#utility.yul\":10138:10147   */\n      dup3\n        /* \"#utility.yul\":10134:10152   */\n      add\n        /* \"#utility.yul\":10126:10152   */\n      swap1\n      pop\n        /* \"#utility.yul\":10162:10233   */\n      tag_373\n        /* \"#utility.yul\":10230:10231   */\n      0x00\n        /* \"#utility.yul\":10219:10228   */\n      dup4\n        /* \"#utility.yul\":10215:10232   */\n      add\n        /* \"#utility.yul\":10206:10212   */\n      dup6\n        /* \"#utility.yul\":10162:10233   */\n      tag_251\n      jump\t// in\n    tag_373:\n        /* \"#utility.yul\":10243:10315   */\n      tag_374\n        /* \"#utility.yul\":10311:10313   */\n      0x20\n        /* \"#utility.yul\":10300:10309   */\n      dup4\n        /* \"#utility.yul\":10296:10314   */\n      add\n        /* \"#utility.yul\":10287:10293   */\n      dup5\n        /* \"#utility.yul\":10243:10315   */\n      tag_251\n      jump\t// in\n    tag_374:\n        /* \"#utility.yul\":9990:10322   */\n      swap4\n      swap3\n      pop\n      pop\n      pop\n      jump\t// out\n    stop\n\n    sub_0: assembly {\n            /* \"contracts/ContractPool.sol\":153:5200  contract ContractPoll is ReentrancyGuard {... */\n          mstore(0x40, 0x80)\n            /* \"contracts/ContractPool.sol\":1194:1704  constructor(address payable _seller, address payable _buyer, uint256 _securityDeposit, uint256 _sellerPreAgreementAmount, uint256 _buyerPreAgreementAmount, uint256 _endDate, uint256 _daysForWithdrawal)  {... */\n          callvalue\n          dup1\n          iszero\n          tag_1\n          jumpi\n          0x00\n          dup1\n          revert\n        tag_1:\n          pop\n          mload(0x40)\n          sub(codesize, bytecodeSize)\n          dup1\n          bytecodeSize\n          dup4\n          codecopy\n          dup2\n          dup2\n          add\n          0x40\n          mstore\n          dup2\n          add\n          swap1\n          tag_2\n          swap2\n          swap1\n          tag_3\n          jump\t// in\n        tag_2:\n            /* \"@openzeppelin/contracts/security/ReentrancyGuard.sol\":1716:1717  1 */\n          0x01\n            /* \"@openzeppelin/contracts/security/ReentrancyGuard.sol\":1821:1828  _status */\n          0x00\n            /* \"@openzeppelin/contracts/security/ReentrancyGuard.sol\":1821:1843  _status = _NOT_ENTERED */\n          dup2\n          swap1\n          sstore\n          pop\n            /* \"contracts/ContractPool.sol\":1417:1424  _seller */\n          dup7\n            /* \"contracts/ContractPool.sol\":1408:1414  seller */\n          0x01\n          0x00\n            /* \"contracts/ContractPool.sol\":1408:1424  seller = _seller */\n          0x0100\n          exp\n          dup2\n          sload\n          dup2\n          0xffffffffffffffffffffffffffffffffffffffff\n          mul\n          not\n          and\n          swap1\n          dup4\n          0xffffffffffffffffffffffffffffffffffffffff\n          and\n          mul\n          or\n          swap1\n          sstore\n          pop\n            /* \"contracts/ContractPool.sol\":1443:1449  _buyer */\n          dup6\n            /* \"contracts/ContractPool.sol\":1435:1440  buyer */\n          0x02\n          0x00\n            /* \"contracts/ContractPool.sol\":1435:1449  buyer = _buyer */\n          0x0100\n          exp\n          dup2\n          sload\n          dup2\n          0xffffffffffffffffffffffffffffffffffffffff\n          mul\n          not\n          and\n          swap1\n          dup4\n          0xffffffffffffffffffffffffffffffffffffffff\n          and\n          mul\n          or\n          swap1\n          sstore\n          pop\n            /* \"contracts/ContractPool.sol\":1478:1494  _securityDeposit */\n          dup5\n            /* \"contracts/ContractPool.sol\":1460:1475  securityDeposit */\n          0x06\n            /* \"contracts/ContractPool.sol\":1460:1494  securityDeposit = _securityDeposit */\n          dup2\n          swap1\n          sstore\n          pop\n            /* \"contracts/ContractPool.sol\":1532:1557  _sellerPreAgreementAmount */\n          dup4\n            /* \"contracts/ContractPool.sol\":1505:1529  sellerPreAgreementAmount */\n          0x07\n            /* \"contracts/ContractPool.sol\":1505:1557  sellerPreAgreementAmount = _sellerPreAgreementAmount */\n          dup2\n          swap1\n          sstore\n          pop\n            /* \"contracts/ContractPool.sol\":1594:1618  _buyerPreAgreementAmount */\n          dup3\n            /* \"contracts/ContractPool.sol\":1568:1591  buyerPreAgreementAmount */\n          0x08\n            /* \"contracts/ContractPool.sol\":1568:1618  buyerPreAgreementAmount = _buyerPreAgreementAmount */\n          dup2\n          swap1\n          sstore\n          pop\n            /* \"contracts/ContractPool.sol\":1639:1647  _endDate */\n          dup2\n            /* \"contracts/ContractPool.sol\":1629:1636  endDate */\n          0x09\n            /* \"contracts/ContractPool.sol\":1629:1647  endDate = _endDate */\n          dup2\n          swap1\n          sstore\n          pop\n            /* \"contracts/ContractPool.sol\":1678:1696  _daysForWithdrawal */\n          dup1\n            /* \"contracts/ContractPool.sol\":1658:1675  daysForWithdrawal */\n          0x0a\n            /* \"contracts/ContractPool.sol\":1658:1696  daysForWithdrawal = _daysForWithdrawal */\n          dup2\n          swap1\n          sstore\n          pop\n            /* \"contracts/ContractPool.sol\":1194:1704  constructor(address payable _seller, address payable _buyer, uint256 _securityDeposit, uint256 _sellerPreAgreementAmount, uint256 _buyerPreAgreementAmount, uint256 _endDate, uint256 _daysForWithdrawal)  {... */\n          pop\n          pop\n          pop\n          pop\n          pop\n          pop\n          pop\n            /* \"contracts/ContractPool.sol\":153:5200  contract ContractPoll is ReentrancyGuard {... */\n          jump(tag_8)\n            /* \"#utility.yul\":88:205   */\n        tag_10:\n            /* \"#utility.yul\":197:198   */\n          0x00\n            /* \"#utility.yul\":194:195   */\n          dup1\n            /* \"#utility.yul\":187:199   */\n          revert\n            /* \"#utility.yul\":334:460   */\n        tag_12:\n            /* \"#utility.yul\":371:378   */\n          0x00\n            /* \"#utility.yul\":411:453   */\n          0xffffffffffffffffffffffffffffffffffffffff\n            /* \"#utility.yul\":404:409   */\n          dup3\n            /* \"#utility.yul\":400:454   */\n          and\n            /* \"#utility.yul\":389:454   */\n          swap1\n          pop\n            /* \"#utility.yul\":334:460   */\n          swap2\n          swap1\n          pop\n          jump\t// out\n            /* \"#utility.yul\":466:570   */\n        tag_13:\n            /* \"#utility.yul\":511:518   */\n          0x00\n            /* \"#utility.yul\":540:564   */\n          tag_25\n            /* \"#utility.yul\":558:563   */\n          dup3\n            /* \"#utility.yul\":540:564   */\n          tag_12\n          jump\t// in\n        tag_25:\n            /* \"#utility.yul\":529:564   */\n          swap1\n          pop\n            /* \"#utility.yul\":466:570   */\n          swap2\n          swap1\n          pop\n          jump\t// out\n            /* \"#utility.yul\":576:714   */\n        tag_14:\n            /* \"#utility.yul\":657:689   */\n          tag_27\n            /* \"#utility.yul\":683:688   */\n          dup2\n            /* \"#utility.yul\":657:689   */\n          tag_13\n          jump\t// in\n        tag_27:\n            /* \"#utility.yul\":650:655   */\n          dup2\n            /* \"#utility.yul\":647:690   */\n          eq\n            /* \"#utility.yul\":637:708   */\n          tag_28\n          jumpi\n            /* \"#utility.yul\":704:705   */\n          0x00\n            /* \"#utility.yul\":701:702   */\n          dup1\n            /* \"#utility.yul\":694:706   */\n          revert\n            /* \"#utility.yul\":637:708   */\n        tag_28:\n            /* \"#utility.yul\":576:714   */\n          pop\n          jump\t// out\n            /* \"#utility.yul\":720:879   */\n        tag_15:\n            /* \"#utility.yul\":785:790   */\n          0x00\n            /* \"#utility.yul\":816:822   */\n          dup2\n            /* \"#utility.yul\":810:823   */\n          mload\n            /* \"#utility.yul\":801:823   */\n          swap1\n          pop\n            /* \"#utility.yul\":832:873   */\n          tag_30\n            /* \"#utility.yul\":867:872   */\n          dup2\n            /* \"#utility.yul\":832:873   */\n          tag_14\n          jump\t// in\n        tag_30:\n            /* \"#utility.yul\":720:879   */\n          swap3\n          swap2\n          pop\n          pop\n          jump\t// out\n            /* \"#utility.yul\":885:962   */\n        tag_16:\n            /* \"#utility.yul\":922:929   */\n          0x00\n            /* \"#utility.yul\":951:956   */\n          dup2\n            /* \"#utility.yul\":940:956   */\n          swap1\n          pop\n            /* \"#utility.yul\":885:962   */\n          swap2\n          swap1\n          pop\n          jump\t// out\n            /* \"#utility.yul\":968:1090   */\n        tag_17:\n            /* \"#utility.yul\":1041:1065   */\n          tag_33\n            /* \"#utility.yul\":1059:1064   */\n          dup2\n            /* \"#utility.yul\":1041:1065   */\n          tag_16\n          jump\t// in\n        tag_33:\n            /* \"#utility.yul\":1034:1039   */\n          dup2\n            /* \"#utility.yul\":1031:1066   */\n          eq\n            /* \"#utility.yul\":1021:1084   */\n          tag_34\n          jumpi\n            /* \"#utility.yul\":1080:1081   */\n          0x00\n            /* \"#utility.yul\":1077:1078   */\n          dup1\n            /* \"#utility.yul\":1070:1082   */\n          revert\n            /* \"#utility.yul\":1021:1084   */\n        tag_34:\n            /* \"#utility.yul\":968:1090   */\n          pop\n          jump\t// out\n            /* \"#utility.yul\":1096:1239   */\n        tag_18:\n            /* \"#utility.yul\":1153:1158   */\n          0x00\n            /* \"#utility.yul\":1184:1190   */\n          dup2\n            /* \"#utility.yul\":1178:1191   */\n          mload\n            /* \"#utility.yul\":1169:1191   */\n          swap1\n          pop\n            /* \"#utility.yul\":1200:1233   */\n          tag_36\n            /* \"#utility.yul\":1227:1232   */\n          dup2\n            /* \"#utility.yul\":1200:1233   */\n          tag_17\n          jump\t// in\n        tag_36:\n            /* \"#utility.yul\":1096:1239   */\n          swap3\n          swap2\n          pop\n          pop\n          jump\t// out\n            /* \"#utility.yul\":1245:2568   */\n        tag_3:\n            /* \"#utility.yul\":1385:1391   */\n          0x00\n            /* \"#utility.yul\":1393:1399   */\n          dup1\n            /* \"#utility.yul\":1401:1407   */\n          0x00\n            /* \"#utility.yul\":1409:1415   */\n          dup1\n            /* \"#utility.yul\":1417:1423   */\n          0x00\n            /* \"#utility.yul\":1425:1431   */\n          dup1\n            /* \"#utility.yul\":1433:1439   */\n          0x00\n            /* \"#utility.yul\":1482:1485   */\n          0xe0\n            /* \"#utility.yul\":1470:1479   */\n          dup9\n            /* \"#utility.yul\":1461:1468   */\n          dup11\n            /* \"#utility.yul\":1457:1480   */\n          sub\n            /* \"#utility.yul\":1453:1486   */\n          slt\n            /* \"#utility.yul\":1450:1570   */\n          iszero\n          tag_38\n          jumpi\n            /* \"#utility.yul\":1489:1568   */\n          tag_39\n          tag_10\n          jump\t// in\n        tag_39:\n            /* \"#utility.yul\":1450:1570   */\n        tag_38:\n            /* \"#utility.yul\":1609:1610   */\n          0x00\n            /* \"#utility.yul\":1634:1706   */\n          tag_40\n            /* \"#utility.yul\":1698:1705   */\n          dup11\n            /* \"#utility.yul\":1689:1695   */\n          dup3\n            /* \"#utility.yul\":1678:1687   */\n          dup12\n            /* \"#utility.yul\":1674:1696   */\n          add\n            /* \"#utility.yul\":1634:1706   */\n          tag_15\n          jump\t// in\n        tag_40:\n            /* \"#utility.yul\":1624:1706   */\n          swap8\n          pop\n            /* \"#utility.yul\":1580:1716   */\n          pop\n            /* \"#utility.yul\":1755:1757   */\n          0x20\n            /* \"#utility.yul\":1781:1853   */\n          tag_41\n            /* \"#utility.yul\":1845:1852   */\n          dup11\n            /* \"#utility.yul\":1836:1842   */\n          dup3\n            /* \"#utility.yul\":1825:1834   */\n          dup12\n            /* \"#utility.yul\":1821:1843   */\n          add\n            /* \"#utility.yul\":1781:1853   */\n          tag_15\n          jump\t// in\n        tag_41:\n            /* \"#utility.yul\":1771:1853   */\n          swap7\n          pop\n            /* \"#utility.yul\":1726:1863   */\n          pop\n            /* \"#utility.yul\":1902:1904   */\n          0x40\n            /* \"#utility.yul\":1928:1992   */\n          tag_42\n            /* \"#utility.yul\":1984:1991   */\n          dup11\n            /* \"#utility.yul\":1975:1981   */\n          dup3\n            /* \"#utility.yul\":1964:1973   */\n          dup12\n            /* \"#utility.yul\":1960:1982   */\n          add\n            /* \"#utility.yul\":1928:1992   */\n          tag_18\n          jump\t// in\n        tag_42:\n            /* \"#utility.yul\":1918:1992   */\n          swap6\n          pop\n            /* \"#utility.yul\":1873:2002   */\n          pop\n            /* \"#utility.yul\":2041:2043   */\n          0x60\n            /* \"#utility.yul\":2067:2131   */\n          tag_43\n            /* \"#utility.yul\":2123:2130   */\n          dup11\n            /* \"#utility.yul\":2114:2120   */\n          dup3\n            /* \"#utility.yul\":2103:2112   */\n          dup12\n            /* \"#utility.yul\":2099:2121   */\n          add\n            /* \"#utility.yul\":2067:2131   */\n          tag_18\n          jump\t// in\n        tag_43:\n            /* \"#utility.yul\":2057:2131   */\n          swap5\n          pop\n            /* \"#utility.yul\":2012:2141   */\n          pop\n            /* \"#utility.yul\":2180:2183   */\n          0x80\n            /* \"#utility.yul\":2207:2271   */\n          tag_44\n            /* \"#utility.yul\":2263:2270   */\n          dup11\n            /* \"#utility.yul\":2254:2260   */\n          dup3\n            /* \"#utility.yul\":2243:2252   */\n          dup12\n            /* \"#utility.yul\":2239:2261   */\n          add\n            /* \"#utility.yul\":2207:2271   */\n          tag_18\n          jump\t// in\n        tag_44:\n            /* \"#utility.yul\":2197:2271   */\n          swap4\n          pop\n            /* \"#utility.yul\":2151:2281   */\n          pop\n            /* \"#utility.yul\":2320:2323   */\n          0xa0\n            /* \"#utility.yul\":2347:2411   */\n          tag_45\n            /* \"#utility.yul\":2403:2410   */\n          dup11\n            /* \"#utility.yul\":2394:2400   */\n          dup3\n            /* \"#utility.yul\":2383:2392   */\n          dup12\n            /* \"#utility.yul\":2379:2401   */\n          add\n            /* \"#utility.yul\":2347:2411   */\n          tag_18\n          jump\t// in\n        tag_45:\n            /* \"#utility.yul\":2337:2411   */\n          swap3\n          pop\n            /* \"#utility.yul\":2291:2421   */\n          pop\n            /* \"#utility.yul\":2460:2463   */\n          0xc0\n            /* \"#utility.yul\":2487:2551   */\n          tag_46\n            /* \"#utility.yul\":2543:2550   */\n          dup11\n            /* \"#utility.yul\":2534:2540   */\n          dup3\n            /* \"#utility.yul\":2523:2532   */\n          dup12\n            /* \"#utility.yul\":2519:2541   */\n          add\n            /* \"#utility.yul\":2487:2551   */\n          tag_18\n          jump\t// in\n        tag_46:\n            /* \"#utility.yul\":2477:2551   */\n          swap2\n          pop\n            /* \"#utility.yul\":2431:2561   */\n          pop\n            /* \"#utility.yul\":1245:2568   */\n          swap3\n          swap6\n          swap9\n          swap2\n          swap5\n          swap8\n          pop\n          swap3\n          swap6\n          pop\n          jump\t// out\n            /* \"contracts/ContractPool.sol\":153:5200  contract ContractPoll is ReentrancyGuard {... */\n        tag_8:\n          dataSize(sub_0)\n          dup1\n          dataOffset(sub_0)\n          0x00\n          codecopy\n          0x00\n          return\n        stop\n\n        sub_0: assembly {\n                /* \"contracts/ContractPool.sol\":153:5200  contract ContractPoll is ReentrancyGuard {... */\n              mstore(0x40, 0x80)\n              jumpi(tag_1, lt(calldatasize, 0x04))\n              shr(0xe0, calldataload(0x00))\n              dup1\n              0x867a06b3\n              gt\n              tag_22\n              jumpi\n              dup1\n              0xc24a0f8b\n              gt\n              tag_23\n              jumpi\n              dup1\n              0xc24a0f8b\n              eq\n              tag_17\n              jumpi\n              dup1\n              0xd0bf21fd\n              eq\n              tag_18\n              jumpi\n              dup1\n              0xdb292621\n              eq\n              tag_19\n              jumpi\n              dup1\n              0xe6cdc708\n              eq\n              tag_20\n              jumpi\n              dup1\n              0xf340fa01\n              eq\n              tag_21\n              jumpi\n              jump(tag_2)\n            tag_23:\n              dup1\n              0x867a06b3\n              eq\n              tag_12\n              jumpi\n              dup1\n              0x8b7afe2e\n              eq\n              tag_13\n              jumpi\n              dup1\n              0x99dc2df3\n              eq\n              tag_14\n              jumpi\n              dup1\n              0xa7245b6e\n              eq\n              tag_15\n              jumpi\n              dup1\n              0xba12a5c5\n              eq\n              tag_16\n              jumpi\n              jump(tag_2)\n            tag_22:\n              dup1\n              0x4680dd2f\n              gt\n              tag_24\n              jumpi\n              dup1\n              0x4680dd2f\n              eq\n              tag_7\n              jumpi\n              dup1\n              0x4ce9e6de\n              eq\n              tag_8\n              jumpi\n              dup1\n              0x51cff8d9\n              eq\n              tag_9\n              jumpi\n              dup1\n              0x69cf1e90\n              eq\n              tag_10\n              jumpi\n              dup1\n              0x6d5e7a15\n              eq\n              tag_11\n              jumpi\n              jump(tag_2)\n            tag_24:\n              dup1\n              0x220e5ab3\n              eq\n              tag_3\n              jumpi\n              dup1\n              0x31658e32\n              eq\n              tag_4\n              jumpi\n              dup1\n              0x36359265\n              eq\n              tag_5\n              jumpi\n              dup1\n              0x4644803f\n              eq\n              tag_6\n              jumpi\n              jump(tag_2)\n            tag_1:\n              jumpi(tag_2, calldatasize)\n                /* \"contracts/ContractPool.sol\":1941:1951  msg.sender */\n              caller\n                /* \"contracts/ContractPool.sol\":1918:1963  Deposit(address(this), msg.sender, msg.value) */\n              0xffffffffffffffffffffffffffffffffffffffff\n              and\n                /* \"contracts/ContractPool.sol\":1934:1938  this */\n              address\n                /* \"contracts/ContractPool.sol\":1918:1963  Deposit(address(this), msg.sender, msg.value) */\n              0xffffffffffffffffffffffffffffffffffffffff\n              and\n              0x5548c837ab068cf56a2c2479df0882a4922fd203edb7517321831d95078c5f62\n                /* \"contracts/ContractPool.sol\":1953:1962  msg.value */\n              callvalue\n                /* \"contracts/ContractPool.sol\":1918:1963  Deposit(address(this), msg.sender, msg.value) */\n              mload(0x40)\n              tag_27\n              swap2\n              swap1\n              tag_28\n              jump\t// in\n            tag_27:\n              mload(0x40)\n              dup1\n              swap2\n              sub\n              swap1\n              log3\n                /* \"contracts/ContractPool.sol\":153:5200  contract ContractPoll is ReentrancyGuard {... */\n              stop\n            tag_2:\n                /* \"contracts/ContractPool.sol\":1811:1821  msg.sender */\n              caller\n                /* \"contracts/ContractPool.sol\":1788:1833  Deposit(address(this), msg.sender, msg.value) */\n              0xffffffffffffffffffffffffffffffffffffffff\n              and\n                /* \"contracts/ContractPool.sol\":1804:1808  this */\n              address\n                /* \"contracts/ContractPool.sol\":1788:1833  Deposit(address(this), msg.sender, msg.value) */\n              0xffffffffffffffffffffffffffffffffffffffff\n              and\n              0x5548c837ab068cf56a2c2479df0882a4922fd203edb7517321831d95078c5f62\n                /* \"contracts/ContractPool.sol\":1823:1832  msg.value */\n              callvalue\n                /* \"contracts/ContractPool.sol\":1788:1833  Deposit(address(this), msg.sender, msg.value) */\n              mload(0x40)\n              tag_31\n              swap2\n              swap1\n              tag_28\n              jump\t// in\n            tag_31:\n              mload(0x40)\n              dup1\n              swap2\n              sub\n              swap1\n              log3\n                /* \"contracts/ContractPool.sol\":153:5200  contract ContractPoll is ReentrancyGuard {... */\n              stop\n                /* \"contracts/ContractPool.sol\":593:623  uint256 public securityDeposit */\n            tag_3:\n              callvalue\n              dup1\n              iszero\n              tag_32\n              jumpi\n              0x00\n              dup1\n              revert\n            tag_32:\n              pop\n              tag_33\n              tag_34\n              jump\t// in\n            tag_33:\n              mload(0x40)\n              tag_35\n              swap2\n              swap1\n              tag_28\n              jump\t// in\n            tag_35:\n              mload(0x40)\n              dup1\n              swap2\n              sub\n              swap1\n              return\n                /* \"contracts/ContractPool.sol\":5092:5195  function returnDaysForWithdrawal() public view returns(uint){... */\n            tag_4:\n              callvalue\n              dup1\n              iszero\n              tag_36\n              jumpi\n              0x00\n              dup1\n              revert\n            tag_36:\n              pop\n              tag_37\n              tag_38\n              jump\t// in\n            tag_37:\n              mload(0x40)\n              tag_39\n              swap2\n              swap1\n              tag_28\n              jump\t// in\n            tag_39:\n              mload(0x40)\n              dup1\n              swap2\n              sub\n              swap1\n              return\n                /* \"contracts/ContractPool.sol\":5001:5084  function returnEndDate() public view returns(uint){... */\n            tag_5:\n              callvalue\n              dup1\n              iszero\n              tag_40\n              jumpi\n              0x00\n              dup1\n              revert\n            tag_40:\n              pop\n              tag_41\n              tag_42\n              jump\t// in\n            tag_41:\n              mload(0x40)\n              tag_43\n              swap2\n              swap1\n              tag_28\n              jump\t// in\n            tag_43:\n              mload(0x40)\n              dup1\n              swap2\n              sub\n              swap1\n              return\n                /* \"contracts/ContractPool.sol\":4436:4531  function returnSellerBalance() public view returns(uint){... */\n            tag_6:\n              callvalue\n              dup1\n              iszero\n              tag_44\n              jumpi\n              0x00\n              dup1\n              revert\n            tag_44:\n              pop\n              tag_45\n              tag_46\n              jump\t// in\n            tag_45:\n              mload(0x40)\n              tag_47\n              swap2\n              swap1\n              tag_28\n              jump\t// in\n            tag_47:\n              mload(0x40)\n              dup1\n              swap2\n              sub\n              swap1\n              return\n                /* \"contracts/ContractPool.sol\":4539:4632  function returnBuyerBalance() public view returns(uint){... */\n            tag_7:\n              callvalue\n              dup1\n              iszero\n              tag_48\n              jumpi\n              0x00\n              dup1\n              revert\n            tag_48:\n              pop\n              tag_49\n              tag_50\n              jump\t// in\n            tag_49:\n              mload(0x40)\n              tag_51\n              swap2\n              swap1\n              tag_28\n              jump\t// in\n            tag_51:\n              mload(0x40)\n              dup1\n              swap2\n              sub\n              swap1\n              return\n                /* \"contracts/ContractPool.sol\":4346:4428  function returnBuyer() public view returns(address){... */\n            tag_8:\n              callvalue\n              dup1\n              iszero\n              tag_52\n              jumpi\n              0x00\n              dup1\n              revert\n            tag_52:\n              pop\n              tag_53\n              tag_54\n              jump\t// in\n            tag_53:\n              mload(0x40)\n              tag_55\n              swap2\n              swap1\n              tag_56\n              jump\t// in\n            tag_55:\n              mload(0x40)\n              dup1\n              swap2\n              sub\n              swap1\n              return\n                /* \"contracts/ContractPool.sol\":2507:4243  function withdraw(address _user) external payable nonReentrant {... */\n            tag_9:\n              tag_57\n              0x04\n              dup1\n              calldatasize\n              sub\n              dup2\n              add\n              swap1\n              tag_58\n              swap2\n              swap1\n              tag_59\n              jump\t// in\n            tag_58:\n              tag_60\n              jump\t// in\n            tag_57:\n              stop\n                /* \"contracts/ContractPool.sol\":4878:4993  function returnBuyerPreAgreementAmount() public view returns(uint){... */\n            tag_10:\n              callvalue\n              dup1\n              iszero\n              tag_61\n              jumpi\n              0x00\n              dup1\n              revert\n            tag_61:\n              pop\n              tag_62\n              tag_63\n              jump\t// in\n            tag_62:\n              mload(0x40)\n              tag_64\n              swap2\n              swap1\n              tag_28\n              jump\t// in\n            tag_64:\n              mload(0x40)\n              dup1\n              swap2\n              sub\n              swap1\n              return\n                /* \"contracts/ContractPool.sol\":750:782  uint256 public daysForWithdrawal */\n            tag_11:\n              callvalue\n              dup1\n              iszero\n              tag_65\n              jumpi\n              0x00\n              dup1\n              revert\n            tag_65:\n              pop\n              tag_66\n              tag_67\n              jump\t// in\n            tag_66:\n              mload(0x40)\n              tag_68\n              swap2\n              swap1\n              tag_28\n              jump\t// in\n            tag_68:\n              mload(0x40)\n              dup1\n              swap2\n              sub\n              swap1\n              return\n                /* \"contracts/ContractPool.sol\":416:444  uint256 public sellerBalance */\n            tag_12:\n              callvalue\n              dup1\n              iszero\n              tag_69\n              jumpi\n              0x00\n              dup1\n              revert\n            tag_69:\n              pop\n              tag_70\n              tag_71\n              jump\t// in\n            tag_70:\n              mload(0x40)\n              tag_72\n              swap2\n              swap1\n              tag_28\n              jump\t// in\n            tag_72:\n              mload(0x40)\n              dup1\n              swap2\n              sub\n              swap1\n              return\n                /* \"contracts/ContractPool.sol\":379:409  uint256 public contractBalance */\n            tag_13:\n              callvalue\n              dup1\n              iszero\n              tag_73\n              jumpi\n              0x00\n              dup1\n              revert\n            tag_73:\n              pop\n              tag_74\n              tag_75\n              jump\t// in\n            tag_74:\n              mload(0x40)\n              tag_76\n              swap2\n              swap1\n              tag_28\n              jump\t// in\n            tag_76:\n              mload(0x40)\n              dup1\n              swap2\n              sub\n              swap1\n              return\n                /* \"contracts/ContractPool.sol\":676:714  uint256 public buyerPreAgreementAmount */\n            tag_14:\n              callvalue\n              dup1\n              iszero\n              tag_77\n              jumpi\n              0x00\n              dup1\n              revert\n            tag_77:\n              pop\n              tag_78\n              tag_79\n              jump\t// in\n            tag_78:\n              mload(0x40)\n              tag_80\n              swap2\n              swap1\n              tag_28\n              jump\t// in\n            tag_80:\n              mload(0x40)\n              dup1\n              swap2\n              sub\n              swap1\n              return\n                /* \"contracts/ContractPool.sol\":630:669  uint256 public sellerPreAgreementAmount */\n            tag_15:\n              callvalue\n              dup1\n              iszero\n              tag_81\n              jumpi\n              0x00\n              dup1\n              revert\n            tag_81:\n              pop\n              tag_82\n              tag_83\n              jump\t// in\n            tag_82:\n              mload(0x40)\n              tag_84\n              swap2\n              swap1\n              tag_28\n              jump\t// in\n            tag_84:\n              mload(0x40)\n              dup1\n              swap2\n              sub\n              swap1\n              return\n                /* \"contracts/ContractPool.sol\":4254:4338  function returnSeller() public view returns(address){... */\n            tag_16:\n              callvalue\n              dup1\n              iszero\n              tag_85\n              jumpi\n              0x00\n              dup1\n              revert\n            tag_85:\n              pop\n              tag_86\n              tag_87\n              jump\t// in\n            tag_86:\n              mload(0x40)\n              tag_88\n              swap2\n              swap1\n              tag_56\n              jump\t// in\n            tag_88:\n              mload(0x40)\n              dup1\n              swap2\n              sub\n              swap1\n              return\n                /* \"contracts/ContractPool.sol\":721:743  uint256 public endDate */\n            tag_17:\n              callvalue\n              dup1\n              iszero\n              tag_89\n              jumpi\n              0x00\n              dup1\n              revert\n            tag_89:\n              pop\n              tag_90\n              tag_91\n              jump\t// in\n            tag_90:\n              mload(0x40)\n              tag_92\n              swap2\n              swap1\n              tag_28\n              jump\t// in\n            tag_92:\n              mload(0x40)\n              dup1\n              swap2\n              sub\n              swap1\n              return\n                /* \"contracts/ContractPool.sol\":4753:4870  function returnSellerPreAgreementAmount() public view returns(uint){... */\n            tag_18:\n              callvalue\n              dup1\n              iszero\n              tag_93\n              jumpi\n              0x00\n              dup1\n              revert\n            tag_93:\n              pop\n              tag_94\n              tag_95\n              jump\t// in\n            tag_94:\n              mload(0x40)\n              tag_96\n              swap2\n              swap1\n              tag_28\n              jump\t// in\n            tag_96:\n              mload(0x40)\n              dup1\n              swap2\n              sub\n              swap1\n              return\n                /* \"contracts/ContractPool.sol\":4646:4745  function returnSecurityDeposit() public view returns(uint){... */\n            tag_19:\n              callvalue\n              dup1\n              iszero\n              tag_97\n              jumpi\n              0x00\n              dup1\n              revert\n            tag_97:\n              pop\n              tag_98\n              tag_99\n              jump\t// in\n            tag_98:\n              mload(0x40)\n              tag_100\n              swap2\n              swap1\n              tag_28\n              jump\t// in\n            tag_100:\n              mload(0x40)\n              dup1\n              swap2\n              sub\n              swap1\n              return\n                /* \"contracts/ContractPool.sol\":451:478  uint256 public buyerBalance */\n            tag_20:\n              callvalue\n              dup1\n              iszero\n              tag_101\n              jumpi\n              0x00\n              dup1\n              revert\n            tag_101:\n              pop\n              tag_102\n              tag_103\n              jump\t// in\n            tag_102:\n              mload(0x40)\n              tag_104\n              swap2\n              swap1\n              tag_28\n              jump\t// in\n            tag_104:\n              mload(0x40)\n              dup1\n              swap2\n              sub\n              swap1\n              return\n                /* \"contracts/ContractPool.sol\":2031:2416  function deposit(address _user) external payable {... */\n            tag_21:\n              tag_105\n              0x04\n              dup1\n              calldatasize\n              sub\n              dup2\n              add\n              swap1\n              tag_106\n              swap2\n              swap1\n              tag_59\n              jump\t// in\n            tag_106:\n              tag_107\n              jump\t// in\n            tag_105:\n              stop\n                /* \"contracts/ContractPool.sol\":593:623  uint256 public securityDeposit */\n            tag_34:\n              sload(0x06)\n              dup2\n              jump\t// out\n                /* \"contracts/ContractPool.sol\":5092:5195  function returnDaysForWithdrawal() public view returns(uint){... */\n            tag_38:\n                /* \"contracts/ContractPool.sol\":5147:5151  uint */\n              0x00\n                /* \"contracts/ContractPool.sol\":5170:5187  daysForWithdrawal */\n              sload(0x0a)\n                /* \"contracts/ContractPool.sol\":5163:5187  return daysForWithdrawal */\n              swap1\n              pop\n                /* \"contracts/ContractPool.sol\":5092:5195  function returnDaysForWithdrawal() public view returns(uint){... */\n              swap1\n              jump\t// out\n                /* \"contracts/ContractPool.sol\":5001:5084  function returnEndDate() public view returns(uint){... */\n            tag_42:\n                /* \"contracts/ContractPool.sol\":5046:5050  uint */\n              0x00\n                /* \"contracts/ContractPool.sol\":5069:5076  endDate */\n              sload(0x09)\n                /* \"contracts/ContractPool.sol\":5062:5076  return endDate */\n              swap1\n              pop\n                /* \"contracts/ContractPool.sol\":5001:5084  function returnEndDate() public view returns(uint){... */\n              swap1\n              jump\t// out\n                /* \"contracts/ContractPool.sol\":4436:4531  function returnSellerBalance() public view returns(uint){... */\n            tag_46:\n                /* \"contracts/ContractPool.sol\":4487:4491  uint */\n              0x00\n                /* \"contracts/ContractPool.sol\":4510:4523  sellerBalance */\n              sload(0x04)\n                /* \"contracts/ContractPool.sol\":4503:4523  return sellerBalance */\n              swap1\n              pop\n                /* \"contracts/ContractPool.sol\":4436:4531  function returnSellerBalance() public view returns(uint){... */\n              swap1\n              jump\t// out\n                /* \"contracts/ContractPool.sol\":4539:4632  function returnBuyerBalance() public view returns(uint){... */\n            tag_50:\n                /* \"contracts/ContractPool.sol\":4589:4593  uint */\n              0x00\n                /* \"contracts/ContractPool.sol\":4612:4624  buyerBalance */\n              sload(0x05)\n                /* \"contracts/ContractPool.sol\":4605:4624  return buyerBalance */\n              swap1\n              pop\n                /* \"contracts/ContractPool.sol\":4539:4632  function returnBuyerBalance() public view returns(uint){... */\n              swap1\n              jump\t// out\n                /* \"contracts/ContractPool.sol\":4346:4428  function returnBuyer() public view returns(address){... */\n            tag_54:\n                /* \"contracts/ContractPool.sol\":4389:4396  address */\n              0x00\n                /* \"contracts/ContractPool.sol\":4415:4420  buyer */\n              0x02\n              0x00\n              swap1\n              sload\n              swap1\n              0x0100\n              exp\n              swap1\n              div\n              0xffffffffffffffffffffffffffffffffffffffff\n              and\n                /* \"contracts/ContractPool.sol\":4408:4420  return buyer */\n              swap1\n              pop\n                /* \"contracts/ContractPool.sol\":4346:4428  function returnBuyer() public view returns(address){... */\n              swap1\n              jump\t// out\n                /* \"contracts/ContractPool.sol\":2507:4243  function withdraw(address _user) external payable nonReentrant {... */\n            tag_60:\n                /* \"@openzeppelin/contracts/security/ReentrancyGuard.sol\":2261:2282  _nonReentrantBefore() */\n              tag_114\n                /* \"@openzeppelin/contracts/security/ReentrancyGuard.sol\":2261:2280  _nonReentrantBefore */\n              tag_115\n                /* \"@openzeppelin/contracts/security/ReentrancyGuard.sol\":2261:2282  _nonReentrantBefore() */\n              jump\t// in\n            tag_114:\n                /* \"contracts/ContractPool.sol\":2615:2616  0 */\n              0x00\n                /* \"contracts/ContractPool.sol\":2590:2611  address(this).balance */\n              selfbalance\n                /* \"contracts/ContractPool.sol\":2590:2616  address(this).balance != 0 */\n              sub\n                /* \"contracts/ContractPool.sol\":2581:2646  require (address(this).balance != 0, \"Contract don't have funds\") */\n              tag_117\n              jumpi\n              mload(0x40)\n              0x08c379a000000000000000000000000000000000000000000000000000000000\n              dup2\n              mstore\n              0x04\n              add\n              tag_118\n              swap1\n              tag_119\n              jump\t// in\n            tag_118:\n              mload(0x40)\n              dup1\n              swap2\n              sub\n              swap1\n              revert\n            tag_117:\n                /* \"contracts/ContractPool.sol\":2684:2691  endDate */\n              sload(0x09)\n                /* \"contracts/ContractPool.sol\":2666:2681  block.timestamp */\n              timestamp\n                /* \"contracts/ContractPool.sol\":2666:2691  block.timestamp < endDate */\n              lt\n                /* \"contracts/ContractPool.sol\":2657:2716  require (block.timestamp < endDate, \"Time is not over yet\") */\n              tag_120\n              jumpi\n              mload(0x40)\n              0x08c379a000000000000000000000000000000000000000000000000000000000\n              dup2\n              mstore\n              0x04\n              add\n              tag_121\n              swap1\n              tag_122\n              jump\t// in\n            tag_121:\n              mload(0x40)\n              dup1\n              swap2\n              sub\n              swap1\n              revert\n            tag_120:\n                /* \"contracts/ContractPool.sol\":2923:2947  sellerPreAgreementAmount */\n              sload(0x07)\n                /* \"contracts/ContractPool.sol\":2907:2920  sellerBalance */\n              sload(0x04)\n                /* \"contracts/ContractPool.sol\":2907:2947  sellerBalance > sellerPreAgreementAmount */\n              gt\n                /* \"contracts/ContractPool.sol\":2907:2976  sellerBalance > sellerPreAgreementAmount && block.timestamp > endDate */\n              dup1\n              iszero\n              tag_123\n              jumpi\n              pop\n                /* \"contracts/ContractPool.sol\":2969:2976  endDate */\n              sload(0x09)\n                /* \"contracts/ContractPool.sol\":2951:2966  block.timestamp */\n              timestamp\n                /* \"contracts/ContractPool.sol\":2951:2976  block.timestamp > endDate */\n              gt\n                /* \"contracts/ContractPool.sol\":2907:2976  sellerBalance > sellerPreAgreementAmount && block.timestamp > endDate */\n            tag_123:\n                /* \"contracts/ContractPool.sol\":2907:3036  sellerBalance > sellerPreAgreementAmount && block.timestamp > endDate && block.timestamp < endDate + (daysForWithdrawal * 1 days) */\n              dup1\n              iszero\n              tag_124\n              jumpi\n              pop\n                /* \"contracts/ContractPool.sol\":3029:3035  1 days */\n              0x015180\n                /* \"contracts/ContractPool.sol\":3009:3026  daysForWithdrawal */\n              sload(0x0a)\n                /* \"contracts/ContractPool.sol\":3009:3035  daysForWithdrawal * 1 days */\n              tag_125\n              swap2\n              swap1\n              tag_126\n              jump\t// in\n            tag_125:\n                /* \"contracts/ContractPool.sol\":2998:3005  endDate */\n              sload(0x09)\n                /* \"contracts/ContractPool.sol\":2998:3036  endDate + (daysForWithdrawal * 1 days) */\n              tag_127\n              swap2\n              swap1\n              tag_128\n              jump\t// in\n            tag_127:\n                /* \"contracts/ContractPool.sol\":2980:2995  block.timestamp */\n              timestamp\n                /* \"contracts/ContractPool.sol\":2980:3036  block.timestamp < endDate + (daysForWithdrawal * 1 days) */\n              lt\n                /* \"contracts/ContractPool.sol\":2907:3036  sellerBalance > sellerPreAgreementAmount && block.timestamp > endDate && block.timestamp < endDate + (daysForWithdrawal * 1 days) */\n            tag_124:\n                /* \"contracts/ContractPool.sol\":2903:4232  if (sellerBalance > sellerPreAgreementAmount && block.timestamp > endDate && block.timestamp < endDate + (daysForWithdrawal * 1 days)) {... */\n              iszero\n              tag_129\n              jumpi\n                /* \"contracts/ContractPool.sol\":3072:3077  _user */\n              dup1\n                /* \"contracts/ContractPool.sol\":3062:3077  seller == _user */\n              0xffffffffffffffffffffffffffffffffffffffff\n              and\n                /* \"contracts/ContractPool.sol\":3062:3068  seller */\n              0x01\n              0x00\n              swap1\n              sload\n              swap1\n              0x0100\n              exp\n              swap1\n              div\n              0xffffffffffffffffffffffffffffffffffffffff\n              and\n                /* \"contracts/ContractPool.sol\":3062:3077  seller == _user */\n              0xffffffffffffffffffffffffffffffffffffffff\n              and\n              eq\n                /* \"contracts/ContractPool.sol\":3053:3104  require (seller == _user, \"You are not the seller\") */\n              tag_130\n              jumpi\n              mload(0x40)\n              0x08c379a000000000000000000000000000000000000000000000000000000000\n              dup2\n              mstore\n              0x04\n              add\n              tag_131\n              swap1\n              tag_132\n              jump\t// in\n            tag_131:\n              mload(0x40)\n              dup1\n              swap2\n              sub\n              swap1\n              revert\n            tag_130:\n                /* \"contracts/ContractPool.sol\":3119:3125  seller */\n              0x01\n              0x00\n              swap1\n              sload\n              swap1\n              0x0100\n              exp\n              swap1\n              div\n              0xffffffffffffffffffffffffffffffffffffffff\n              and\n                /* \"contracts/ContractPool.sol\":3119:3134  seller.transfer */\n              0xffffffffffffffffffffffffffffffffffffffff\n              and\n                /* \"contracts/ContractPool.sol\":3119:3157  seller.transfer(address(this).balance) */\n              0x08fc\n                /* \"contracts/ContractPool.sol\":3135:3156  address(this).balance */\n              selfbalance\n                /* \"contracts/ContractPool.sol\":3119:3157  seller.transfer(address(this).balance) */\n              swap1\n              dup2\n              iszero\n              mul\n              swap1\n              mload(0x40)\n              0x00\n              mload(0x40)\n              dup1\n              dup4\n              sub\n              dup2\n              dup6\n              dup9\n              dup9\n              call\n              swap4\n              pop\n              pop\n              pop\n              pop\n              iszero\n              dup1\n              iszero\n              tag_134\n              jumpi\n              returndatasize\n              0x00\n              dup1\n              returndatacopy\n              revert(0x00, returndatasize)\n            tag_134:\n              pop\n                /* \"contracts/ContractPool.sol\":2903:4232  if (sellerBalance > sellerPreAgreementAmount && block.timestamp > endDate && block.timestamp < endDate + (daysForWithdrawal * 1 days)) {... */\n              jump(tag_135)\n            tag_129:\n                /* \"contracts/ContractPool.sol\":3299:3314  securityDeposit */\n              sload(0x06)\n                /* \"contracts/ContractPool.sol\":3284:3296  buyerBalance */\n              sload(0x05)\n                /* \"contracts/ContractPool.sol\":3284:3314  buyerBalance > securityDeposit */\n              gt\n                /* \"contracts/ContractPool.sol\":3284:3374  buyerBalance > securityDeposit && block.timestamp > endDate + (daysForWithdrawal * 1 days) */\n              dup1\n              iszero\n              tag_136\n              jumpi\n              pop\n                /* \"contracts/ContractPool.sol\":3367:3373  1 days */\n              0x015180\n                /* \"contracts/ContractPool.sol\":3347:3364  daysForWithdrawal */\n              sload(0x0a)\n                /* \"contracts/ContractPool.sol\":3347:3373  daysForWithdrawal * 1 days */\n              tag_137\n              swap2\n              swap1\n              tag_126\n              jump\t// in\n            tag_137:\n                /* \"contracts/ContractPool.sol\":3336:3343  endDate */\n              sload(0x09)\n                /* \"contracts/ContractPool.sol\":3336:3374  endDate + (daysForWithdrawal * 1 days) */\n              tag_138\n              swap2\n              swap1\n              tag_128\n              jump\t// in\n            tag_138:\n                /* \"contracts/ContractPool.sol\":3318:3333  block.timestamp */\n              timestamp\n                /* \"contracts/ContractPool.sol\":3318:3374  block.timestamp > endDate + (daysForWithdrawal * 1 days) */\n              gt\n                /* \"contracts/ContractPool.sol\":3284:3374  buyerBalance > securityDeposit && block.timestamp > endDate + (daysForWithdrawal * 1 days) */\n            tag_136:\n                /* \"contracts/ContractPool.sol\":3279:4232  if  (buyerBalance > securityDeposit && block.timestamp > endDate + (daysForWithdrawal * 1 days)) {... */\n              iszero\n              tag_139\n              jumpi\n                /* \"contracts/ContractPool.sol\":3409:3414  _user */\n              dup1\n                /* \"contracts/ContractPool.sol\":3400:3414  buyer == _user */\n              0xffffffffffffffffffffffffffffffffffffffff\n              and\n                /* \"contracts/ContractPool.sol\":3400:3405  buyer */\n              0x02\n              0x00\n              swap1\n              sload\n              swap1\n              0x0100\n              exp\n              swap1\n              div\n              0xffffffffffffffffffffffffffffffffffffffff\n              and\n                /* \"contracts/ContractPool.sol\":3400:3414  buyer == _user */\n              0xffffffffffffffffffffffffffffffffffffffff\n              and\n              eq\n                /* \"contracts/ContractPool.sol\":3391:3440  require (buyer == _user, \"You are not the buyer\") */\n              tag_140\n              jumpi\n              mload(0x40)\n              0x08c379a000000000000000000000000000000000000000000000000000000000\n              dup2\n              mstore\n              0x04\n              add\n              tag_141\n              swap1\n              tag_142\n              jump\t// in\n            tag_141:\n              mload(0x40)\n              dup1\n              swap2\n              sub\n              swap1\n              revert\n            tag_140:\n                /* \"contracts/ContractPool.sol\":3455:3460  buyer */\n              0x02\n              0x00\n              swap1\n              sload\n              swap1\n              0x0100\n              exp\n              swap1\n              div\n              0xffffffffffffffffffffffffffffffffffffffff\n              and\n                /* \"contracts/ContractPool.sol\":3455:3469  buyer.transfer */\n              0xffffffffffffffffffffffffffffffffffffffff\n              and\n                /* \"contracts/ContractPool.sol\":3455:3492  buyer.transfer(address(this).balance) */\n              0x08fc\n                /* \"contracts/ContractPool.sol\":3470:3491  address(this).balance */\n              selfbalance\n                /* \"contracts/ContractPool.sol\":3455:3492  buyer.transfer(address(this).balance) */\n              swap1\n              dup2\n              iszero\n              mul\n              swap1\n              mload(0x40)\n              0x00\n              mload(0x40)\n              dup1\n              dup4\n              sub\n              dup2\n              dup6\n              dup9\n              dup9\n              call\n              swap4\n              pop\n              pop\n              pop\n              pop\n              iszero\n              dup1\n              iszero\n              tag_144\n              jumpi\n              returndatasize\n              0x00\n              dup1\n              returndatacopy\n              revert(0x00, returndatasize)\n            tag_144:\n              pop\n                /* \"contracts/ContractPool.sol\":3279:4232  if  (buyerBalance > securityDeposit && block.timestamp > endDate + (daysForWithdrawal * 1 days)) {... */\n              jump(tag_145)\n            tag_139:\n                /* \"contracts/ContractPool.sol\":3628:3629  0 */\n              0x00\n                /* \"contracts/ContractPool.sol\":3603:3624  address(this).balance */\n              selfbalance\n                /* \"contracts/ContractPool.sol\":3603:3629  address(this).balance != 0 */\n              eq\n              iszero\n                /* \"contracts/ContractPool.sol\":3603:3673  address(this).balance != 0 && sellerBalance < sellerPreAgreementAmount */\n              dup1\n              iszero\n              tag_146\n              jumpi\n              pop\n                /* \"contracts/ContractPool.sol\":3649:3673  sellerPreAgreementAmount */\n              sload(0x07)\n                /* \"contracts/ContractPool.sol\":3633:3646  sellerBalance */\n              sload(0x04)\n                /* \"contracts/ContractPool.sol\":3633:3673  sellerBalance < sellerPreAgreementAmount */\n              lt\n                /* \"contracts/ContractPool.sol\":3603:3673  address(this).balance != 0 && sellerBalance < sellerPreAgreementAmount */\n            tag_146:\n                /* \"contracts/ContractPool.sol\":3603:3715  address(this).balance != 0 && sellerBalance < sellerPreAgreementAmount && buyerBalance < buyerPreAgreementAmount */\n              dup1\n              iszero\n              tag_147\n              jumpi\n              pop\n                /* \"contracts/ContractPool.sol\":3692:3715  buyerPreAgreementAmount */\n              sload(0x08)\n                /* \"contracts/ContractPool.sol\":3677:3689  buyerBalance */\n              sload(0x05)\n                /* \"contracts/ContractPool.sol\":3677:3715  buyerBalance < buyerPreAgreementAmount */\n              lt\n                /* \"contracts/ContractPool.sol\":3603:3715  address(this).balance != 0 && sellerBalance < sellerPreAgreementAmount && buyerBalance < buyerPreAgreementAmount */\n            tag_147:\n                /* \"contracts/ContractPool.sol\":3603:3775  address(this).balance != 0 && sellerBalance < sellerPreAgreementAmount && buyerBalance < buyerPreAgreementAmount && block.timestamp > endDate + (daysForWithdrawal * 1 days) */\n              dup1\n              iszero\n              tag_148\n              jumpi\n              pop\n                /* \"contracts/ContractPool.sol\":3768:3774  1 days */\n              0x015180\n                /* \"contracts/ContractPool.sol\":3748:3765  daysForWithdrawal */\n              sload(0x0a)\n                /* \"contracts/ContractPool.sol\":3748:3774  daysForWithdrawal * 1 days */\n              tag_149\n              swap2\n              swap1\n              tag_126\n              jump\t// in\n            tag_149:\n                /* \"contracts/ContractPool.sol\":3737:3744  endDate */\n              sload(0x09)\n                /* \"contracts/ContractPool.sol\":3737:3775  endDate + (daysForWithdrawal * 1 days) */\n              tag_150\n              swap2\n              swap1\n              tag_128\n              jump\t// in\n            tag_150:\n                /* \"contracts/ContractPool.sol\":3719:3734  block.timestamp */\n              timestamp\n                /* \"contracts/ContractPool.sol\":3719:3775  block.timestamp > endDate + (daysForWithdrawal * 1 days) */\n              gt\n                /* \"contracts/ContractPool.sol\":3603:3775  address(this).balance != 0 && sellerBalance < sellerPreAgreementAmount && buyerBalance < buyerPreAgreementAmount && block.timestamp > endDate + (daysForWithdrawal * 1 days) */\n            tag_148:\n                /* \"contracts/ContractPool.sol\":3599:4232  if (address(this).balance != 0 && sellerBalance < sellerPreAgreementAmount && buyerBalance < buyerPreAgreementAmount && block.timestamp > endDate + (daysForWithdrawal * 1 days)){... */\n              iszero\n              tag_151\n              jumpi\n                /* \"contracts/ContractPool.sol\":3812:3817  buyer */\n              0x02\n              0x00\n              swap1\n              sload\n              swap1\n              0x0100\n              exp\n              swap1\n              div\n              0xffffffffffffffffffffffffffffffffffffffff\n              and\n                /* \"contracts/ContractPool.sol\":3803:3817  _user == buyer */\n              0xffffffffffffffffffffffffffffffffffffffff\n              and\n                /* \"contracts/ContractPool.sol\":3803:3808  _user */\n              dup2\n                /* \"contracts/ContractPool.sol\":3803:3817  _user == buyer */\n              0xffffffffffffffffffffffffffffffffffffffff\n              and\n              eq\n                /* \"contracts/ContractPool.sol\":3803:3836  _user == buyer || _user == seller */\n              dup1\n              tag_152\n              jumpi\n              pop\n                /* \"contracts/ContractPool.sol\":3830:3836  seller */\n              0x01\n              0x00\n              swap1\n              sload\n              swap1\n              0x0100\n              exp\n              swap1\n              div\n              0xffffffffffffffffffffffffffffffffffffffff\n              and\n                /* \"contracts/ContractPool.sol\":3821:3836  _user == seller */\n              0xffffffffffffffffffffffffffffffffffffffff\n              and\n                /* \"contracts/ContractPool.sol\":3821:3826  _user */\n              dup2\n                /* \"contracts/ContractPool.sol\":3821:3836  _user == seller */\n              0xffffffffffffffffffffffffffffffffffffffff\n              and\n              eq\n                /* \"contracts/ContractPool.sol\":3803:3836  _user == buyer || _user == seller */\n            tag_152:\n                /* \"contracts/ContractPool.sol\":3795:3874  require(_user == buyer || _user == seller, \"Just buyer or seller can withdraw\") */\n              tag_153\n              jumpi\n              mload(0x40)\n              0x08c379a000000000000000000000000000000000000000000000000000000000\n              dup2\n              mstore\n              0x04\n              add\n              tag_154\n              swap1\n              tag_155\n              jump\t// in\n            tag_154:\n              mload(0x40)\n              dup1\n              swap2\n              sub\n              swap1\n              revert\n            tag_153:\n                /* \"contracts/ContractPool.sol\":3906:3911  buyer */\n              0x02\n              0x00\n              swap1\n              sload\n              swap1\n              0x0100\n              exp\n              swap1\n              div\n              0xffffffffffffffffffffffffffffffffffffffff\n              and\n                /* \"contracts/ContractPool.sol\":3897:3911  _user == buyer */\n              0xffffffffffffffffffffffffffffffffffffffff\n              and\n                /* \"contracts/ContractPool.sol\":3897:3902  _user */\n              dup2\n                /* \"contracts/ContractPool.sol\":3897:3911  _user == buyer */\n              0xffffffffffffffffffffffffffffffffffffffff\n              and\n              eq\n                /* \"contracts/ContractPool.sol\":3897:3932  _user == buyer && buyerBalance != 0 */\n              dup1\n              iszero\n              tag_156\n              jumpi\n              pop\n                /* \"contracts/ContractPool.sol\":3931:3932  0 */\n              0x00\n                /* \"contracts/ContractPool.sol\":3915:3927  buyerBalance */\n              sload(0x05)\n                /* \"contracts/ContractPool.sol\":3915:3932  buyerBalance != 0 */\n              eq\n              iszero\n                /* \"contracts/ContractPool.sol\":3897:3932  _user == buyer && buyerBalance != 0 */\n            tag_156:\n                /* \"contracts/ContractPool.sol\":3893:4221  if (_user == buyer && buyerBalance != 0){... */\n              iszero\n              tag_157\n              jumpi\n                /* \"contracts/ContractPool.sol\":3956:3961  buyer */\n              0x02\n              0x00\n              swap1\n              sload\n              swap1\n              0x0100\n              exp\n              swap1\n              div\n              0xffffffffffffffffffffffffffffffffffffffff\n              and\n                /* \"contracts/ContractPool.sol\":3956:3970  buyer.transfer */\n              0xffffffffffffffffffffffffffffffffffffffff\n              and\n                /* \"contracts/ContractPool.sol\":3956:3984  buyer.transfer(buyerBalance) */\n              0x08fc\n                /* \"contracts/ContractPool.sol\":3971:3983  buyerBalance */\n              sload(0x05)\n                /* \"contracts/ContractPool.sol\":3956:3984  buyer.transfer(buyerBalance) */\n              swap1\n              dup2\n              iszero\n              mul\n              swap1\n              mload(0x40)\n              0x00\n              mload(0x40)\n              dup1\n              dup4\n              sub\n              dup2\n              dup6\n              dup9\n              dup9\n              call\n              swap4\n              pop\n              pop\n              pop\n              pop\n              iszero\n              dup1\n              iszero\n              tag_159\n              jumpi\n              returndatasize\n              0x00\n              dup1\n              returndatacopy\n              revert(0x00, returndatasize)\n            tag_159:\n              pop\n                /* \"contracts/ContractPool.sol\":4022:4023  0 */\n              0x00\n                /* \"contracts/ContractPool.sol\":4007:4019  buyerBalance */\n              0x05\n                /* \"contracts/ContractPool.sol\":4007:4023  buyerBalance = 0 */\n              dup2\n              swap1\n              sstore\n              pop\n                /* \"contracts/ContractPool.sol\":3893:4221  if (_user == buyer && buyerBalance != 0){... */\n              jump(tag_160)\n            tag_157:\n                /* \"contracts/ContractPool.sol\":4078:4084  seller */\n              0x01\n              0x00\n              swap1\n              sload\n              swap1\n              0x0100\n              exp\n              swap1\n              div\n              0xffffffffffffffffffffffffffffffffffffffff\n              and\n                /* \"contracts/ContractPool.sol\":4069:4084  _user == seller */\n              0xffffffffffffffffffffffffffffffffffffffff\n              and\n                /* \"contracts/ContractPool.sol\":4069:4074  _user */\n              dup2\n                /* \"contracts/ContractPool.sol\":4069:4084  _user == seller */\n              0xffffffffffffffffffffffffffffffffffffffff\n              and\n              eq\n                /* \"contracts/ContractPool.sol\":4069:4106  _user == seller && sellerBalance != 0 */\n              dup1\n              iszero\n              tag_161\n              jumpi\n              pop\n                /* \"contracts/ContractPool.sol\":4105:4106  0 */\n              0x00\n                /* \"contracts/ContractPool.sol\":4088:4101  sellerBalance */\n              sload(0x04)\n                /* \"contracts/ContractPool.sol\":4088:4106  sellerBalance != 0 */\n              eq\n              iszero\n                /* \"contracts/ContractPool.sol\":4069:4106  _user == seller && sellerBalance != 0 */\n            tag_161:\n                /* \"contracts/ContractPool.sol\":4066:4221  if(_user == seller && sellerBalance != 0) {... */\n              iszero\n              tag_162\n              jumpi\n                /* \"contracts/ContractPool.sol\":4131:4137  seller */\n              0x01\n              0x00\n              swap1\n              sload\n              swap1\n              0x0100\n              exp\n              swap1\n              div\n              0xffffffffffffffffffffffffffffffffffffffff\n              and\n                /* \"contracts/ContractPool.sol\":4131:4146  seller.transfer */\n              0xffffffffffffffffffffffffffffffffffffffff\n              and\n                /* \"contracts/ContractPool.sol\":4131:4161  seller.transfer(sellerBalance) */\n              0x08fc\n                /* \"contracts/ContractPool.sol\":4147:4160  sellerBalance */\n              sload(0x04)\n                /* \"contracts/ContractPool.sol\":4131:4161  seller.transfer(sellerBalance) */\n              swap1\n              dup2\n              iszero\n              mul\n              swap1\n              mload(0x40)\n              0x00\n              mload(0x40)\n              dup1\n              dup4\n              sub\n              dup2\n              dup6\n              dup9\n              dup9\n              call\n              swap4\n              pop\n              pop\n              pop\n              pop\n              iszero\n              dup1\n              iszero\n              tag_164\n              jumpi\n              returndatasize\n              0x00\n              dup1\n              returndatacopy\n              revert(0x00, returndatasize)\n            tag_164:\n              pop\n                /* \"contracts/ContractPool.sol\":4200:4201  0 */\n              0x00\n                /* \"contracts/ContractPool.sol\":4184:4197  sellerBalance */\n              0x04\n                /* \"contracts/ContractPool.sol\":4184:4201  sellerBalance = 0 */\n              dup2\n              swap1\n              sstore\n              pop\n                /* \"contracts/ContractPool.sol\":4066:4221  if(_user == seller && sellerBalance != 0) {... */\n            tag_162:\n                /* \"contracts/ContractPool.sol\":3893:4221  if (_user == buyer && buyerBalance != 0){... */\n            tag_160:\n                /* \"contracts/ContractPool.sol\":3599:4232  if (address(this).balance != 0 && sellerBalance < sellerPreAgreementAmount && buyerBalance < buyerPreAgreementAmount && block.timestamp > endDate + (daysForWithdrawal * 1 days)){... */\n            tag_151:\n                /* \"contracts/ContractPool.sol\":3279:4232  if  (buyerBalance > securityDeposit && block.timestamp > endDate + (daysForWithdrawal * 1 days)) {... */\n            tag_145:\n                /* \"contracts/ContractPool.sol\":2903:4232  if (sellerBalance > sellerPreAgreementAmount && block.timestamp > endDate && block.timestamp < endDate + (daysForWithdrawal * 1 days)) {... */\n            tag_135:\n                /* \"@openzeppelin/contracts/security/ReentrancyGuard.sol\":2303:2323  _nonReentrantAfter() */\n              tag_165\n                /* \"@openzeppelin/contracts/security/ReentrancyGuard.sol\":2303:2321  _nonReentrantAfter */\n              tag_166\n                /* \"@openzeppelin/contracts/security/ReentrancyGuard.sol\":2303:2323  _nonReentrantAfter() */\n              jump\t// in\n            tag_165:\n                /* \"contracts/ContractPool.sol\":2507:4243  function withdraw(address _user) external payable nonReentrant {... */\n              pop\n              jump\t// out\n                /* \"contracts/ContractPool.sol\":4878:4993  function returnBuyerPreAgreementAmount() public view returns(uint){... */\n            tag_63:\n                /* \"contracts/ContractPool.sol\":4939:4943  uint */\n              0x00\n                /* \"contracts/ContractPool.sol\":4962:4985  buyerPreAgreementAmount */\n              sload(0x08)\n                /* \"contracts/ContractPool.sol\":4955:4985  return buyerPreAgreementAmount */\n              swap1\n              pop\n                /* \"contracts/ContractPool.sol\":4878:4993  function returnBuyerPreAgreementAmount() public view returns(uint){... */\n              swap1\n              jump\t// out\n                /* \"contracts/ContractPool.sol\":750:782  uint256 public daysForWithdrawal */\n            tag_67:\n              sload(0x0a)\n              dup2\n              jump\t// out\n                /* \"contracts/ContractPool.sol\":416:444  uint256 public sellerBalance */\n            tag_71:\n              sload(0x04)\n              dup2\n              jump\t// out\n                /* \"contracts/ContractPool.sol\":379:409  uint256 public contractBalance */\n            tag_75:\n              sload(0x03)\n              dup2\n              jump\t// out\n                /* \"contracts/ContractPool.sol\":676:714  uint256 public buyerPreAgreementAmount */\n            tag_79:\n              sload(0x08)\n              dup2\n              jump\t// out\n                /* \"contracts/ContractPool.sol\":630:669  uint256 public sellerPreAgreementAmount */\n            tag_83:\n              sload(0x07)\n              dup2\n              jump\t// out\n                /* \"contracts/ContractPool.sol\":4254:4338  function returnSeller() public view returns(address){... */\n            tag_87:\n                /* \"contracts/ContractPool.sol\":4298:4305  address */\n              0x00\n                /* \"contracts/ContractPool.sol\":4324:4330  seller */\n              0x01\n              0x00\n              swap1\n              sload\n              swap1\n              0x0100\n              exp\n              swap1\n              div\n              0xffffffffffffffffffffffffffffffffffffffff\n              and\n                /* \"contracts/ContractPool.sol\":4317:4330  return seller */\n              swap1\n              pop\n                /* \"contracts/ContractPool.sol\":4254:4338  function returnSeller() public view returns(address){... */\n              swap1\n              jump\t// out\n                /* \"contracts/ContractPool.sol\":721:743  uint256 public endDate */\n            tag_91:\n              sload(0x09)\n              dup2\n              jump\t// out\n                /* \"contracts/ContractPool.sol\":4753:4870  function returnSellerPreAgreementAmount() public view returns(uint){... */\n            tag_95:\n                /* \"contracts/ContractPool.sol\":4815:4819  uint */\n              0x00\n                /* \"contracts/ContractPool.sol\":4838:4862  sellerPreAgreementAmount */\n              sload(0x07)\n                /* \"contracts/ContractPool.sol\":4831:4862  return sellerPreAgreementAmount */\n              swap1\n              pop\n                /* \"contracts/ContractPool.sol\":4753:4870  function returnSellerPreAgreementAmount() public view returns(uint){... */\n              swap1\n              jump\t// out\n                /* \"contracts/ContractPool.sol\":4646:4745  function returnSecurityDeposit() public view returns(uint){... */\n            tag_99:\n                /* \"contracts/ContractPool.sol\":4699:4703  uint */\n              0x00\n                /* \"contracts/ContractPool.sol\":4722:4737  securityDeposit */\n              sload(0x06)\n                /* \"contracts/ContractPool.sol\":4715:4737  return securityDeposit */\n              swap1\n              pop\n                /* \"contracts/ContractPool.sol\":4646:4745  function returnSecurityDeposit() public view returns(uint){... */\n              swap1\n              jump\t// out\n                /* \"contracts/ContractPool.sol\":451:478  uint256 public buyerBalance */\n            tag_103:\n              sload(0x05)\n              dup2\n              jump\t// out\n                /* \"contracts/ContractPool.sol\":2031:2416  function deposit(address _user) external payable {... */\n            tag_107:\n                /* \"contracts/ContractPool.sol\":2108:2114  seller */\n              0x01\n              0x00\n              swap1\n              sload\n              swap1\n              0x0100\n              exp\n              swap1\n              div\n              0xffffffffffffffffffffffffffffffffffffffff\n              and\n                /* \"contracts/ContractPool.sol\":2099:2114  _user == seller */\n              0xffffffffffffffffffffffffffffffffffffffff\n              and\n                /* \"contracts/ContractPool.sol\":2099:2104  _user */\n              dup2\n                /* \"contracts/ContractPool.sol\":2099:2114  _user == seller */\n              0xffffffffffffffffffffffffffffffffffffffff\n              and\n              eq\n                /* \"contracts/ContractPool.sol\":2099:2132  _user == seller || _user == buyer */\n              dup1\n              tag_172\n              jumpi\n              pop\n                /* \"contracts/ContractPool.sol\":2127:2132  buyer */\n              0x02\n              0x00\n              swap1\n              sload\n              swap1\n              0x0100\n              exp\n              swap1\n              div\n              0xffffffffffffffffffffffffffffffffffffffff\n              and\n                /* \"contracts/ContractPool.sol\":2118:2132  _user == buyer */\n              0xffffffffffffffffffffffffffffffffffffffff\n              and\n                /* \"contracts/ContractPool.sol\":2118:2123  _user */\n              dup2\n                /* \"contracts/ContractPool.sol\":2118:2132  _user == buyer */\n              0xffffffffffffffffffffffffffffffffffffffff\n              and\n              eq\n                /* \"contracts/ContractPool.sol\":2099:2132  _user == seller || _user == buyer */\n            tag_172:\n                /* \"contracts/ContractPool.sol\":2091:2179  require(_user == seller || _user == buyer, \"Only the seller or buyer can deposit funds\") */\n              tag_173\n              jumpi\n              mload(0x40)\n              0x08c379a000000000000000000000000000000000000000000000000000000000\n              dup2\n              mstore\n              0x04\n              add\n              tag_174\n              swap1\n              tag_175\n              jump\t// in\n            tag_174:\n              mload(0x40)\n              dup1\n              swap2\n              sub\n              swap1\n              revert\n            tag_173:\n                /* \"contracts/ContractPool.sol\":2203:2209  seller */\n              0x01\n              0x00\n              swap1\n              sload\n              swap1\n              0x0100\n              exp\n              swap1\n              div\n              0xffffffffffffffffffffffffffffffffffffffff\n              and\n                /* \"contracts/ContractPool.sol\":2194:2209  _user == seller */\n              0xffffffffffffffffffffffffffffffffffffffff\n              and\n                /* \"contracts/ContractPool.sol\":2194:2199  _user */\n              dup2\n                /* \"contracts/ContractPool.sol\":2194:2209  _user == seller */\n              0xffffffffffffffffffffffffffffffffffffffff\n              and\n              sub\n                /* \"contracts/ContractPool.sol\":2190:2322  if (_user == seller) {... */\n              tag_176\n              jumpi\n                /* \"contracts/ContractPool.sol\":2243:2252  msg.value */\n              callvalue\n                /* \"contracts/ContractPool.sol\":2226:2239  sellerBalance */\n              0x04\n              0x00\n                /* \"contracts/ContractPool.sol\":2226:2252  sellerBalance += msg.value */\n              dup3\n              dup3\n              sload\n              tag_177\n              swap2\n              swap1\n              tag_128\n              jump\t// in\n            tag_177:\n              swap3\n              pop\n              pop\n              dup2\n              swap1\n              sstore\n              pop\n                /* \"contracts/ContractPool.sol\":2190:2322  if (_user == seller) {... */\n              jump(tag_178)\n            tag_176:\n                /* \"contracts/ContractPool.sol\":2301:2310  msg.value */\n              callvalue\n                /* \"contracts/ContractPool.sol\":2285:2297  buyerBalance */\n              0x05\n              0x00\n                /* \"contracts/ContractPool.sol\":2285:2310  buyerBalance += msg.value */\n              dup3\n              dup3\n              sload\n              tag_179\n              swap2\n              swap1\n              tag_128\n              jump\t// in\n            tag_179:\n              swap3\n              pop\n              pop\n              dup2\n              swap1\n              sstore\n              pop\n                /* \"contracts/ContractPool.sol\":2190:2322  if (_user == seller) {... */\n            tag_178:\n                /* \"contracts/ContractPool.sol\":2351:2360  msg.value */\n              callvalue\n                /* \"contracts/ContractPool.sol\":2332:2347  contractBalance */\n              0x03\n              0x00\n                /* \"contracts/ContractPool.sol\":2332:2360  contractBalance += msg.value */\n              dup3\n              dup3\n              sload\n              tag_180\n              swap2\n              swap1\n              tag_128\n              jump\t// in\n            tag_180:\n              swap3\n              pop\n              pop\n              dup2\n              swap1\n              sstore\n              pop\n                /* \"contracts/ContractPool.sol\":2391:2396  _user */\n              dup1\n                /* \"contracts/ContractPool.sol\":2376:2408  FundsDeposited(_user, msg.value) */\n              0xffffffffffffffffffffffffffffffffffffffff\n              and\n              0x543ba50a5eec5e6178218e364b1d0f396157b3c8fa278522c2cb7fd99407d474\n                /* \"contracts/ContractPool.sol\":2398:2407  msg.value */\n              callvalue\n                /* \"contracts/ContractPool.sol\":2376:2408  FundsDeposited(_user, msg.value) */\n              mload(0x40)\n              tag_181\n              swap2\n              swap1\n              tag_28\n              jump\t// in\n            tag_181:\n              mload(0x40)\n              dup1\n              swap2\n              sub\n              swap1\n              log2\n                /* \"contracts/ContractPool.sol\":2031:2416  function deposit(address _user) external payable {... */\n              pop\n              jump\t// out\n                /* \"@openzeppelin/contracts/security/ReentrancyGuard.sol\":2336:2623  function _nonReentrantBefore() private {... */\n            tag_115:\n                /* \"@openzeppelin/contracts/security/ReentrancyGuard.sol\":1759:1760  2 */\n              0x02\n                /* \"@openzeppelin/contracts/security/ReentrancyGuard.sol\":2468:2475  _status */\n              sload(0x00)\n                /* \"@openzeppelin/contracts/security/ReentrancyGuard.sol\":2468:2487  _status != _ENTERED */\n              sub\n                /* \"@openzeppelin/contracts/security/ReentrancyGuard.sol\":2460:2523  require(_status != _ENTERED, \"ReentrancyGuard: reentrant call\") */\n              tag_183\n              jumpi\n              mload(0x40)\n              0x08c379a000000000000000000000000000000000000000000000000000000000\n              dup2\n              mstore\n              0x04\n              add\n              tag_184\n              swap1\n              tag_185\n              jump\t// in\n            tag_184:\n              mload(0x40)\n              dup1\n              swap2\n              sub\n              swap1\n              revert\n            tag_183:\n                /* \"@openzeppelin/contracts/security/ReentrancyGuard.sol\":1759:1760  2 */\n              0x02\n                /* \"@openzeppelin/contracts/security/ReentrancyGuard.sol\":2598:2605  _status */\n              0x00\n                /* \"@openzeppelin/contracts/security/ReentrancyGuard.sol\":2598:2616  _status = _ENTERED */\n              dup2\n              swap1\n              sstore\n              pop\n                /* \"@openzeppelin/contracts/security/ReentrancyGuard.sol\":2336:2623  function _nonReentrantBefore() private {... */\n              jump\t// out\n                /* \"@openzeppelin/contracts/security/ReentrancyGuard.sol\":2629:2838  function _nonReentrantAfter() private {... */\n            tag_166:\n                /* \"@openzeppelin/contracts/security/ReentrancyGuard.sol\":1716:1717  1 */\n              0x01\n                /* \"@openzeppelin/contracts/security/ReentrancyGuard.sol\":2809:2816  _status */\n              0x00\n                /* \"@openzeppelin/contracts/security/ReentrancyGuard.sol\":2809:2831  _status = _NOT_ENTERED */\n              dup2\n              swap1\n              sstore\n              pop\n                /* \"@openzeppelin/contracts/security/ReentrancyGuard.sol\":2629:2838  function _nonReentrantAfter() private {... */\n              jump\t// out\n                /* \"#utility.yul\":7:84   */\n            tag_187:\n                /* \"#utility.yul\":44:51   */\n              0x00\n                /* \"#utility.yul\":73:78   */\n              dup2\n                /* \"#utility.yul\":62:78   */\n              swap1\n              pop\n                /* \"#utility.yul\":7:84   */\n              swap2\n              swap1\n              pop\n              jump\t// out\n                /* \"#utility.yul\":90:208   */\n            tag_188:\n                /* \"#utility.yul\":177:201   */\n              tag_216\n                /* \"#utility.yul\":195:200   */\n              dup2\n                /* \"#utility.yul\":177:201   */\n              tag_187\n              jump\t// in\n            tag_216:\n                /* \"#utility.yul\":172:175   */\n              dup3\n                /* \"#utility.yul\":165:202   */\n              mstore\n                /* \"#utility.yul\":90:208   */\n              pop\n              pop\n              jump\t// out\n                /* \"#utility.yul\":214:436   */\n            tag_28:\n                /* \"#utility.yul\":307:311   */\n              0x00\n                /* \"#utility.yul\":345:347   */\n              0x20\n                /* \"#utility.yul\":334:343   */\n              dup3\n                /* \"#utility.yul\":330:348   */\n              add\n                /* \"#utility.yul\":322:348   */\n              swap1\n              pop\n                /* \"#utility.yul\":358:429   */\n              tag_218\n                /* \"#utility.yul\":426:427   */\n              0x00\n                /* \"#utility.yul\":415:424   */\n              dup4\n                /* \"#utility.yul\":411:428   */\n              add\n                /* \"#utility.yul\":402:408   */\n              dup5\n                /* \"#utility.yul\":358:429   */\n              tag_188\n              jump\t// in\n            tag_218:\n                /* \"#utility.yul\":214:436   */\n              swap3\n              swap2\n              pop\n              pop\n              jump\t// out\n                /* \"#utility.yul\":442:568   */\n            tag_189:\n                /* \"#utility.yul\":479:486   */\n              0x00\n                /* \"#utility.yul\":519:561   */\n              0xffffffffffffffffffffffffffffffffffffffff\n                /* \"#utility.yul\":512:517   */\n              dup3\n                /* \"#utility.yul\":508:562   */\n              and\n                /* \"#utility.yul\":497:562   */\n              swap1\n              pop\n                /* \"#utility.yul\":442:568   */\n              swap2\n              swap1\n              pop\n              jump\t// out\n                /* \"#utility.yul\":574:670   */\n            tag_190:\n                /* \"#utility.yul\":611:618   */\n              0x00\n                /* \"#utility.yul\":640:664   */\n              tag_221\n                /* \"#utility.yul\":658:663   */\n              dup3\n                /* \"#utility.yul\":640:664   */\n              tag_189\n              jump\t// in\n            tag_221:\n                /* \"#utility.yul\":629:664   */\n              swap1\n              pop\n                /* \"#utility.yul\":574:670   */\n              swap2\n              swap1\n              pop\n              jump\t// out\n                /* \"#utility.yul\":676:794   */\n            tag_191:\n                /* \"#utility.yul\":763:787   */\n              tag_223\n                /* \"#utility.yul\":781:786   */\n              dup2\n                /* \"#utility.yul\":763:787   */\n              tag_190\n              jump\t// in\n            tag_223:\n                /* \"#utility.yul\":758:761   */\n              dup3\n                /* \"#utility.yul\":751:788   */\n              mstore\n                /* \"#utility.yul\":676:794   */\n              pop\n              pop\n              jump\t// out\n                /* \"#utility.yul\":800:1022   */\n            tag_56:\n                /* \"#utility.yul\":893:897   */\n              0x00\n                /* \"#utility.yul\":931:933   */\n              0x20\n                /* \"#utility.yul\":920:929   */\n              dup3\n                /* \"#utility.yul\":916:934   */\n              add\n                /* \"#utility.yul\":908:934   */\n              swap1\n              pop\n                /* \"#utility.yul\":944:1015   */\n              tag_225\n                /* \"#utility.yul\":1012:1013   */\n              0x00\n                /* \"#utility.yul\":1001:1010   */\n              dup4\n                /* \"#utility.yul\":997:1014   */\n              add\n                /* \"#utility.yul\":988:994   */\n              dup5\n                /* \"#utility.yul\":944:1015   */\n              tag_191\n              jump\t// in\n            tag_225:\n                /* \"#utility.yul\":800:1022   */\n              swap3\n              swap2\n              pop\n              pop\n              jump\t// out\n                /* \"#utility.yul\":1109:1226   */\n            tag_193:\n                /* \"#utility.yul\":1218:1219   */\n              0x00\n                /* \"#utility.yul\":1215:1216   */\n              dup1\n                /* \"#utility.yul\":1208:1220   */\n              revert\n                /* \"#utility.yul\":1355:1477   */\n            tag_195:\n                /* \"#utility.yul\":1428:1452   */\n              tag_230\n                /* \"#utility.yul\":1446:1451   */\n              dup2\n                /* \"#utility.yul\":1428:1452   */\n              tag_190\n              jump\t// in\n            tag_230:\n                /* \"#utility.yul\":1421:1426   */\n              dup2\n                /* \"#utility.yul\":1418:1453   */\n              eq\n                /* \"#utility.yul\":1408:1471   */\n              tag_231\n              jumpi\n                /* \"#utility.yul\":1467:1468   */\n              0x00\n                /* \"#utility.yul\":1464:1465   */\n              dup1\n                /* \"#utility.yul\":1457:1469   */\n              revert\n                /* \"#utility.yul\":1408:1471   */\n            tag_231:\n                /* \"#utility.yul\":1355:1477   */\n              pop\n              jump\t// out\n                /* \"#utility.yul\":1483:1622   */\n            tag_196:\n                /* \"#utility.yul\":1529:1534   */\n              0x00\n                /* \"#utility.yul\":1567:1573   */\n              dup2\n                /* \"#utility.yul\":1554:1574   */\n              calldataload\n                /* \"#utility.yul\":1545:1574   */\n              swap1\n              pop\n                /* \"#utility.yul\":1583:1616   */\n              tag_233\n                /* \"#utility.yul\":1610:1615   */\n              dup2\n                /* \"#utility.yul\":1583:1616   */\n              tag_195\n              jump\t// in\n            tag_233:\n                /* \"#utility.yul\":1483:1622   */\n              swap3\n              swap2\n              pop\n              pop\n              jump\t// out\n                /* \"#utility.yul\":1628:1957   */\n            tag_59:\n                /* \"#utility.yul\":1687:1693   */\n              0x00\n                /* \"#utility.yul\":1736:1738   */\n              0x20\n                /* \"#utility.yul\":1724:1733   */\n              dup3\n                /* \"#utility.yul\":1715:1722   */\n              dup5\n                /* \"#utility.yul\":1711:1734   */\n              sub\n                /* \"#utility.yul\":1707:1739   */\n              slt\n                /* \"#utility.yul\":1704:1823   */\n              iszero\n              tag_235\n              jumpi\n                /* \"#utility.yul\":1742:1821   */\n              tag_236\n              tag_193\n              jump\t// in\n            tag_236:\n                /* \"#utility.yul\":1704:1823   */\n            tag_235:\n                /* \"#utility.yul\":1862:1863   */\n              0x00\n                /* \"#utility.yul\":1887:1940   */\n              tag_237\n                /* \"#utility.yul\":1932:1939   */\n              dup5\n                /* \"#utility.yul\":1923:1929   */\n              dup3\n                /* \"#utility.yul\":1912:1921   */\n              dup6\n                /* \"#utility.yul\":1908:1930   */\n              add\n                /* \"#utility.yul\":1887:1940   */\n              tag_196\n              jump\t// in\n            tag_237:\n                /* \"#utility.yul\":1877:1940   */\n              swap2\n              pop\n                /* \"#utility.yul\":1833:1950   */\n              pop\n                /* \"#utility.yul\":1628:1957   */\n              swap3\n              swap2\n              pop\n              pop\n              jump\t// out\n                /* \"#utility.yul\":1963:2132   */\n            tag_197:\n                /* \"#utility.yul\":2047:2058   */\n              0x00\n                /* \"#utility.yul\":2081:2087   */\n              dup3\n                /* \"#utility.yul\":2076:2079   */\n              dup3\n                /* \"#utility.yul\":2069:2088   */\n              mstore\n                /* \"#utility.yul\":2121:2125   */\n              0x20\n                /* \"#utility.yul\":2116:2119   */\n              dup3\n                /* \"#utility.yul\":2112:2126   */\n              add\n                /* \"#utility.yul\":2097:2126   */\n              swap1\n              pop\n                /* \"#utility.yul\":1963:2132   */\n              swap3\n              swap2\n              pop\n              pop\n              jump\t// out\n                /* \"#utility.yul\":2138:2313   */\n            tag_198:\n                /* \"#utility.yul\":2278:2305   */\n              0x436f6e747261637420646f6e277420686176652066756e647300000000000000\n                /* \"#utility.yul\":2274:2275   */\n              0x00\n                /* \"#utility.yul\":2266:2272   */\n              dup3\n                /* \"#utility.yul\":2262:2276   */\n              add\n                /* \"#utility.yul\":2255:2306   */\n              mstore\n                /* \"#utility.yul\":2138:2313   */\n              pop\n              jump\t// out\n                /* \"#utility.yul\":2319:2685   */\n            tag_199:\n                /* \"#utility.yul\":2461:2464   */\n              0x00\n                /* \"#utility.yul\":2482:2549   */\n              tag_241\n                /* \"#utility.yul\":2546:2548   */\n              0x19\n                /* \"#utility.yul\":2541:2544   */\n              dup4\n                /* \"#utility.yul\":2482:2549   */\n              tag_197\n              jump\t// in\n            tag_241:\n                /* \"#utility.yul\":2475:2549   */\n              swap2\n              pop\n                /* \"#utility.yul\":2558:2651   */\n              tag_242\n                /* \"#utility.yul\":2647:2650   */\n              dup3\n                /* \"#utility.yul\":2558:2651   */\n              tag_198\n              jump\t// in\n            tag_242:\n                /* \"#utility.yul\":2676:2678   */\n              0x20\n                /* \"#utility.yul\":2671:2674   */\n              dup3\n                /* \"#utility.yul\":2667:2679   */\n              add\n                /* \"#utility.yul\":2660:2679   */\n              swap1\n              pop\n                /* \"#utility.yul\":2319:2685   */\n              swap2\n              swap1\n              pop\n              jump\t// out\n                /* \"#utility.yul\":2691:3110   */\n            tag_119:\n                /* \"#utility.yul\":2857:2861   */\n              0x00\n                /* \"#utility.yul\":2895:2897   */\n              0x20\n                /* \"#utility.yul\":2884:2893   */\n              dup3\n                /* \"#utility.yul\":2880:2898   */\n              add\n                /* \"#utility.yul\":2872:2898   */\n              swap1\n              pop\n                /* \"#utility.yul\":2944:2953   */\n              dup2\n                /* \"#utility.yul\":2938:2942   */\n              dup2\n                /* \"#utility.yul\":2934:2954   */\n              sub\n                /* \"#utility.yul\":2930:2931   */\n              0x00\n                /* \"#utility.yul\":2919:2928   */\n              dup4\n                /* \"#utility.yul\":2915:2932   */\n              add\n                /* \"#utility.yul\":2908:2955   */\n              mstore\n                /* \"#utility.yul\":2972:3103   */\n              tag_244\n                /* \"#utility.yul\":3098:3102   */\n              dup2\n                /* \"#utility.yul\":2972:3103   */\n              tag_199\n              jump\t// in\n            tag_244:\n                /* \"#utility.yul\":2964:3103   */\n              swap1\n              pop\n                /* \"#utility.yul\":2691:3110   */\n              swap2\n              swap1\n              pop\n              jump\t// out\n                /* \"#utility.yul\":3116:3286   */\n            tag_200:\n                /* \"#utility.yul\":3256:3278   */\n              0x54696d65206973206e6f74206f76657220796574000000000000000000000000\n                /* \"#utility.yul\":3252:3253   */\n              0x00\n                /* \"#utility.yul\":3244:3250   */\n              dup3\n                /* \"#utility.yul\":3240:3254   */\n              add\n                /* \"#utility.yul\":3233:3279   */\n              mstore\n                /* \"#utility.yul\":3116:3286   */\n              pop\n              jump\t// out\n                /* \"#utility.yul\":3292:3658   */\n            tag_201:\n                /* \"#utility.yul\":3434:3437   */\n              0x00\n                /* \"#utility.yul\":3455:3522   */\n              tag_247\n                /* \"#utility.yul\":3519:3521   */\n              0x14\n                /* \"#utility.yul\":3514:3517   */\n              dup4\n                /* \"#utility.yul\":3455:3522   */\n              tag_197\n              jump\t// in\n            tag_247:\n                /* \"#utility.yul\":3448:3522   */\n              swap2\n              pop\n                /* \"#utility.yul\":3531:3624   */\n              tag_248\n                /* \"#utility.yul\":3620:3623   */\n              dup3\n                /* \"#utility.yul\":3531:3624   */\n              tag_200\n              jump\t// in\n            tag_248:\n                /* \"#utility.yul\":3649:3651   */\n              0x20\n                /* \"#utility.yul\":3644:3647   */\n              dup3\n                /* \"#utility.yul\":3640:3652   */\n              add\n                /* \"#utility.yul\":3633:3652   */\n              swap1\n              pop\n                /* \"#utility.yul\":3292:3658   */\n              swap2\n              swap1\n              pop\n              jump\t// out\n                /* \"#utility.yul\":3664:4083   */\n            tag_122:\n                /* \"#utility.yul\":3830:3834   */\n              0x00\n                /* \"#utility.yul\":3868:3870   */\n              0x20\n                /* \"#utility.yul\":3857:3866   */\n              dup3\n                /* \"#utility.yul\":3853:3871   */\n              add\n                /* \"#utility.yul\":3845:3871   */\n              swap1\n              pop\n                /* \"#utility.yul\":3917:3926   */\n              dup2\n                /* \"#utility.yul\":3911:3915   */\n              dup2\n                /* \"#utility.yul\":3907:3927   */\n              sub\n                /* \"#utility.yul\":3903:3904   */\n              0x00\n                /* \"#utility.yul\":3892:3901   */\n              dup4\n                /* \"#utility.yul\":3888:3905   */\n              add\n                /* \"#utility.yul\":3881:3928   */\n              mstore\n                /* \"#utility.yul\":3945:4076   */\n              tag_250\n                /* \"#utility.yul\":4071:4075   */\n              dup2\n                /* \"#utility.yul\":3945:4076   */\n              tag_201\n              jump\t// in\n            tag_250:\n                /* \"#utility.yul\":3937:4076   */\n              swap1\n              pop\n                /* \"#utility.yul\":3664:4083   */\n              swap2\n              swap1\n              pop\n              jump\t// out\n                /* \"#utility.yul\":4089:4269   */\n            tag_202:\n                /* \"#utility.yul\":4137:4214   */\n              0x4e487b7100000000000000000000000000000000000000000000000000000000\n                /* \"#utility.yul\":4134:4135   */\n              0x00\n                /* \"#utility.yul\":4127:4215   */\n              mstore\n                /* \"#utility.yul\":4234:4238   */\n              0x11\n                /* \"#utility.yul\":4231:4232   */\n              0x04\n                /* \"#utility.yul\":4224:4239   */\n              mstore\n                /* \"#utility.yul\":4258:4262   */\n              0x24\n                /* \"#utility.yul\":4255:4256   */\n              0x00\n                /* \"#utility.yul\":4248:4263   */\n              revert\n                /* \"#utility.yul\":4275:4685   */\n            tag_126:\n                /* \"#utility.yul\":4315:4322   */\n              0x00\n                /* \"#utility.yul\":4338:4358   */\n              tag_253\n                /* \"#utility.yul\":4356:4357   */\n              dup3\n                /* \"#utility.yul\":4338:4358   */\n              tag_187\n              jump\t// in\n            tag_253:\n                /* \"#utility.yul\":4333:4358   */\n              swap2\n              pop\n                /* \"#utility.yul\":4372:4392   */\n              tag_254\n                /* \"#utility.yul\":4390:4391   */\n              dup4\n                /* \"#utility.yul\":4372:4392   */\n              tag_187\n              jump\t// in\n            tag_254:\n                /* \"#utility.yul\":4367:4392   */\n              swap3\n              pop\n                /* \"#utility.yul\":4427:4428   */\n              dup3\n                /* \"#utility.yul\":4424:4425   */\n              dup3\n                /* \"#utility.yul\":4420:4429   */\n              mul\n                /* \"#utility.yul\":4449:4479   */\n              tag_255\n                /* \"#utility.yul\":4467:4478   */\n              dup2\n                /* \"#utility.yul\":4449:4479   */\n              tag_187\n              jump\t// in\n            tag_255:\n                /* \"#utility.yul\":4438:4479   */\n              swap2\n              pop\n                /* \"#utility.yul\":4628:4629   */\n              dup3\n                /* \"#utility.yul\":4619:4626   */\n              dup3\n                /* \"#utility.yul\":4615:4630   */\n              div\n                /* \"#utility.yul\":4612:4613   */\n              dup5\n                /* \"#utility.yul\":4609:4631   */\n              eq\n                /* \"#utility.yul\":4589:4590   */\n              dup4\n                /* \"#utility.yul\":4582:4591   */\n              iszero\n                /* \"#utility.yul\":4562:4645   */\n              or\n                /* \"#utility.yul\":4539:4678   */\n              tag_256\n              jumpi\n                /* \"#utility.yul\":4658:4676   */\n              tag_257\n              tag_202\n              jump\t// in\n            tag_257:\n                /* \"#utility.yul\":4539:4678   */\n            tag_256:\n                /* \"#utility.yul\":4323:4685   */\n              pop\n                /* \"#utility.yul\":4275:4685   */\n              swap3\n              swap2\n              pop\n              pop\n              jump\t// out\n                /* \"#utility.yul\":4691:4882   */\n            tag_128:\n                /* \"#utility.yul\":4731:4734   */\n              0x00\n                /* \"#utility.yul\":4750:4770   */\n              tag_259\n                /* \"#utility.yul\":4768:4769   */\n              dup3\n                /* \"#utility.yul\":4750:4770   */\n              tag_187\n              jump\t// in\n            tag_259:\n                /* \"#utility.yul\":4745:4770   */\n              swap2\n              pop\n                /* \"#utility.yul\":4784:4804   */\n              tag_260\n                /* \"#utility.yul\":4802:4803   */\n              dup4\n                /* \"#utility.yul\":4784:4804   */\n              tag_187\n              jump\t// in\n            tag_260:\n                /* \"#utility.yul\":4779:4804   */\n              swap3\n              pop\n                /* \"#utility.yul\":4827:4828   */\n              dup3\n                /* \"#utility.yul\":4824:4825   */\n              dup3\n                /* \"#utility.yul\":4820:4829   */\n              add\n                /* \"#utility.yul\":4813:4829   */\n              swap1\n              pop\n                /* \"#utility.yul\":4848:4851   */\n              dup1\n                /* \"#utility.yul\":4845:4846   */\n              dup3\n                /* \"#utility.yul\":4842:4852   */\n              gt\n                /* \"#utility.yul\":4839:4875   */\n              iszero\n              tag_261\n              jumpi\n                /* \"#utility.yul\":4855:4873   */\n              tag_262\n              tag_202\n              jump\t// in\n            tag_262:\n                /* \"#utility.yul\":4839:4875   */\n            tag_261:\n                /* \"#utility.yul\":4691:4882   */\n              swap3\n              swap2\n              pop\n              pop\n              jump\t// out\n                /* \"#utility.yul\":4888:5060   */\n            tag_203:\n                /* \"#utility.yul\":5028:5052   */\n              0x596f7520617265206e6f74207468652073656c6c657200000000000000000000\n                /* \"#utility.yul\":5024:5025   */\n              0x00\n                /* \"#utility.yul\":5016:5022   */\n              dup3\n                /* \"#utility.yul\":5012:5026   */\n              add\n                /* \"#utility.yul\":5005:5053   */\n              mstore\n                /* \"#utility.yul\":4888:5060   */\n              pop\n              jump\t// out\n                /* \"#utility.yul\":5066:5432   */\n            tag_204:\n                /* \"#utility.yul\":5208:5211   */\n              0x00\n                /* \"#utility.yul\":5229:5296   */\n              tag_265\n                /* \"#utility.yul\":5293:5295   */\n              0x16\n                /* \"#utility.yul\":5288:5291   */\n              dup4\n                /* \"#utility.yul\":5229:5296   */\n              tag_197\n              jump\t// in\n            tag_265:\n                /* \"#utility.yul\":5222:5296   */\n              swap2\n              pop\n                /* \"#utility.yul\":5305:5398   */\n              tag_266\n                /* \"#utility.yul\":5394:5397   */\n              dup3\n                /* \"#utility.yul\":5305:5398   */\n              tag_203\n              jump\t// in\n            tag_266:\n                /* \"#utility.yul\":5423:5425   */\n              0x20\n                /* \"#utility.yul\":5418:5421   */\n              dup3\n                /* \"#utility.yul\":5414:5426   */\n              add\n                /* \"#utility.yul\":5407:5426   */\n              swap1\n              pop\n                /* \"#utility.yul\":5066:5432   */\n              swap2\n              swap1\n              pop\n              jump\t// out\n                /* \"#utility.yul\":5438:5857   */\n            tag_132:\n                /* \"#utility.yul\":5604:5608   */\n              0x00\n                /* \"#utility.yul\":5642:5644   */\n              0x20\n                /* \"#utility.yul\":5631:5640   */\n              dup3\n                /* \"#utility.yul\":5627:5645   */\n              add\n                /* \"#utility.yul\":5619:5645   */\n              swap1\n              pop\n                /* \"#utility.yul\":5691:5700   */\n              dup2\n                /* \"#utility.yul\":5685:5689   */\n              dup2\n                /* \"#utility.yul\":5681:5701   */\n              sub\n                /* \"#utility.yul\":5677:5678   */\n              0x00\n                /* \"#utility.yul\":5666:5675   */\n              dup4\n                /* \"#utility.yul\":5662:5679   */\n              add\n                /* \"#utility.yul\":5655:5702   */\n              mstore\n                /* \"#utility.yul\":5719:5850   */\n              tag_268\n                /* \"#utility.yul\":5845:5849   */\n              dup2\n                /* \"#utility.yul\":5719:5850   */\n              tag_204\n              jump\t// in\n            tag_268:\n                /* \"#utility.yul\":5711:5850   */\n              swap1\n              pop\n                /* \"#utility.yul\":5438:5857   */\n              swap2\n              swap1\n              pop\n              jump\t// out\n                /* \"#utility.yul\":5863:6034   */\n            tag_205:\n                /* \"#utility.yul\":6003:6026   */\n              0x596f7520617265206e6f74207468652062757965720000000000000000000000\n                /* \"#utility.yul\":5999:6000   */\n              0x00\n                /* \"#utility.yul\":5991:5997   */\n              dup3\n                /* \"#utility.yul\":5987:6001   */\n              add\n                /* \"#utility.yul\":5980:6027   */\n              mstore\n                /* \"#utility.yul\":5863:6034   */\n              pop\n              jump\t// out\n                /* \"#utility.yul\":6040:6406   */\n            tag_206:\n                /* \"#utility.yul\":6182:6185   */\n              0x00\n                /* \"#utility.yul\":6203:6270   */\n              tag_271\n                /* \"#utility.yul\":6267:6269   */\n              0x15\n                /* \"#utility.yul\":6262:6265   */\n              dup4\n                /* \"#utility.yul\":6203:6270   */\n              tag_197\n              jump\t// in\n            tag_271:\n                /* \"#utility.yul\":6196:6270   */\n              swap2\n              pop\n                /* \"#utility.yul\":6279:6372   */\n              tag_272\n                /* \"#utility.yul\":6368:6371   */\n              dup3\n                /* \"#utility.yul\":6279:6372   */\n              tag_205\n              jump\t// in\n            tag_272:\n                /* \"#utility.yul\":6397:6399   */\n              0x20\n                /* \"#utility.yul\":6392:6395   */\n              dup3\n                /* \"#utility.yul\":6388:6400   */\n              add\n                /* \"#utility.yul\":6381:6400   */\n              swap1\n              pop\n                /* \"#utility.yul\":6040:6406   */\n              swap2\n              swap1\n              pop\n              jump\t// out\n                /* \"#utility.yul\":6412:6831   */\n            tag_142:\n                /* \"#utility.yul\":6578:6582   */\n              0x00\n                /* \"#utility.yul\":6616:6618   */\n              0x20\n                /* \"#utility.yul\":6605:6614   */\n              dup3\n                /* \"#utility.yul\":6601:6619   */\n              add\n                /* \"#utility.yul\":6593:6619   */\n              swap1\n              pop\n                /* \"#utility.yul\":6665:6674   */\n              dup2\n                /* \"#utility.yul\":6659:6663   */\n              dup2\n                /* \"#utility.yul\":6655:6675   */\n              sub\n                /* \"#utility.yul\":6651:6652   */\n              0x00\n                /* \"#utility.yul\":6640:6649   */\n              dup4\n                /* \"#utility.yul\":6636:6653   */\n              add\n                /* \"#utility.yul\":6629:6676   */\n              mstore\n                /* \"#utility.yul\":6693:6824   */\n              tag_274\n                /* \"#utility.yul\":6819:6823   */\n              dup2\n                /* \"#utility.yul\":6693:6824   */\n              tag_206\n              jump\t// in\n            tag_274:\n                /* \"#utility.yul\":6685:6824   */\n              swap1\n              pop\n                /* \"#utility.yul\":6412:6831   */\n              swap2\n              swap1\n              pop\n              jump\t// out\n                /* \"#utility.yul\":6837:7057   */\n            tag_207:\n                /* \"#utility.yul\":6977:7011   */\n              0x4a757374206275796572206f722073656c6c65722063616e2077697468647261\n                /* \"#utility.yul\":6973:6974   */\n              0x00\n                /* \"#utility.yul\":6965:6971   */\n              dup3\n                /* \"#utility.yul\":6961:6975   */\n              add\n                /* \"#utility.yul\":6954:7012   */\n              mstore\n                /* \"#utility.yul\":7046:7049   */\n              0x7700000000000000000000000000000000000000000000000000000000000000\n                /* \"#utility.yul\":7041:7043   */\n              0x20\n                /* \"#utility.yul\":7033:7039   */\n              dup3\n                /* \"#utility.yul\":7029:7044   */\n              add\n                /* \"#utility.yul\":7022:7050   */\n              mstore\n                /* \"#utility.yul\":6837:7057   */\n              pop\n              jump\t// out\n                /* \"#utility.yul\":7063:7429   */\n            tag_208:\n                /* \"#utility.yul\":7205:7208   */\n              0x00\n                /* \"#utility.yul\":7226:7293   */\n              tag_277\n                /* \"#utility.yul\":7290:7292   */\n              0x21\n                /* \"#utility.yul\":7285:7288   */\n              dup4\n                /* \"#utility.yul\":7226:7293   */\n              tag_197\n              jump\t// in\n            tag_277:\n                /* \"#utility.yul\":7219:7293   */\n              swap2\n              pop\n                /* \"#utility.yul\":7302:7395   */\n              tag_278\n                /* \"#utility.yul\":7391:7394   */\n              dup3\n                /* \"#utility.yul\":7302:7395   */\n              tag_207\n              jump\t// in\n            tag_278:\n                /* \"#utility.yul\":7420:7422   */\n              0x40\n                /* \"#utility.yul\":7415:7418   */\n              dup3\n                /* \"#utility.yul\":7411:7423   */\n              add\n                /* \"#utility.yul\":7404:7423   */\n              swap1\n              pop\n                /* \"#utility.yul\":7063:7429   */\n              swap2\n              swap1\n              pop\n              jump\t// out\n                /* \"#utility.yul\":7435:7854   */\n            tag_155:\n                /* \"#utility.yul\":7601:7605   */\n              0x00\n                /* \"#utility.yul\":7639:7641   */\n              0x20\n                /* \"#utility.yul\":7628:7637   */\n              dup3\n                /* \"#utility.yul\":7624:7642   */\n              add\n                /* \"#utility.yul\":7616:7642   */\n              swap1\n              pop\n                /* \"#utility.yul\":7688:7697   */\n              dup2\n                /* \"#utility.yul\":7682:7686   */\n              dup2\n                /* \"#utility.yul\":7678:7698   */\n              sub\n                /* \"#utility.yul\":7674:7675   */\n              0x00\n                /* \"#utility.yul\":7663:7672   */\n              dup4\n                /* \"#utility.yul\":7659:7676   */\n              add\n                /* \"#utility.yul\":7652:7699   */\n              mstore\n                /* \"#utility.yul\":7716:7847   */\n              tag_280\n                /* \"#utility.yul\":7842:7846   */\n              dup2\n                /* \"#utility.yul\":7716:7847   */\n              tag_208\n              jump\t// in\n            tag_280:\n                /* \"#utility.yul\":7708:7847   */\n              swap1\n              pop\n                /* \"#utility.yul\":7435:7854   */\n              swap2\n              swap1\n              pop\n              jump\t// out\n                /* \"#utility.yul\":7860:8089   */\n            tag_209:\n                /* \"#utility.yul\":8000:8034   */\n              0x4f6e6c79207468652073656c6c6572206f722062757965722063616e20646570\n                /* \"#utility.yul\":7996:7997   */\n              0x00\n                /* \"#utility.yul\":7988:7994   */\n              dup3\n                /* \"#utility.yul\":7984:7998   */\n              add\n                /* \"#utility.yul\":7977:8035   */\n              mstore\n                /* \"#utility.yul\":8069:8081   */\n              0x6f7369742066756e647300000000000000000000000000000000000000000000\n                /* \"#utility.yul\":8064:8066   */\n              0x20\n                /* \"#utility.yul\":8056:8062   */\n              dup3\n                /* \"#utility.yul\":8052:8067   */\n              add\n                /* \"#utility.yul\":8045:8082   */\n              mstore\n                /* \"#utility.yul\":7860:8089   */\n              pop\n              jump\t// out\n                /* \"#utility.yul\":8095:8461   */\n            tag_210:\n                /* \"#utility.yul\":8237:8240   */\n              0x00\n                /* \"#utility.yul\":8258:8325   */\n              tag_283\n                /* \"#utility.yul\":8322:8324   */\n              0x2a\n                /* \"#utility.yul\":8317:8320   */\n              dup4\n                /* \"#utility.yul\":8258:8325   */\n              tag_197\n              jump\t// in\n            tag_283:\n                /* \"#utility.yul\":8251:8325   */\n              swap2\n              pop\n                /* \"#utility.yul\":8334:8427   */\n              tag_284\n                /* \"#utility.yul\":8423:8426   */\n              dup3\n                /* \"#utility.yul\":8334:8427   */\n              tag_209\n              jump\t// in\n            tag_284:\n                /* \"#utility.yul\":8452:8454   */\n              0x40\n                /* \"#utility.yul\":8447:8450   */\n              dup3\n                /* \"#utility.yul\":8443:8455   */\n              add\n                /* \"#utility.yul\":8436:8455   */\n              swap1\n              pop\n                /* \"#utility.yul\":8095:8461   */\n              swap2\n              swap1\n              pop\n              jump\t// out\n                /* \"#utility.yul\":8467:8886   */\n            tag_175:\n                /* \"#utility.yul\":8633:8637   */\n              0x00\n                /* \"#utility.yul\":8671:8673   */\n              0x20\n                /* \"#utility.yul\":8660:8669   */\n              dup3\n                /* \"#utility.yul\":8656:8674   */\n              add\n                /* \"#utility.yul\":8648:8674   */\n              swap1\n              pop\n                /* \"#utility.yul\":8720:8729   */\n              dup2\n                /* \"#utility.yul\":8714:8718   */\n              dup2\n                /* \"#utility.yul\":8710:8730   */\n              sub\n                /* \"#utility.yul\":8706:8707   */\n              0x00\n                /* \"#utility.yul\":8695:8704   */\n              dup4\n                /* \"#utility.yul\":8691:8708   */\n              add\n                /* \"#utility.yul\":8684:8731   */\n              mstore\n                /* \"#utility.yul\":8748:8879   */\n              tag_286\n                /* \"#utility.yul\":8874:8878   */\n              dup2\n                /* \"#utility.yul\":8748:8879   */\n              tag_210\n              jump\t// in\n            tag_286:\n                /* \"#utility.yul\":8740:8879   */\n              swap1\n              pop\n                /* \"#utility.yul\":8467:8886   */\n              swap2\n              swap1\n              pop\n              jump\t// out\n                /* \"#utility.yul\":8892:9073   */\n            tag_211:\n                /* \"#utility.yul\":9032:9065   */\n              0x5265656e7472616e637947756172643a207265656e7472616e742063616c6c00\n                /* \"#utility.yul\":9028:9029   */\n              0x00\n                /* \"#utility.yul\":9020:9026   */\n              dup3\n                /* \"#utility.yul\":9016:9030   */\n              add\n                /* \"#utility.yul\":9009:9066   */\n              mstore\n                /* \"#utility.yul\":8892:9073   */\n              pop\n              jump\t// out\n                /* \"#utility.yul\":9079:9445   */\n            tag_212:\n                /* \"#utility.yul\":9221:9224   */\n              0x00\n                /* \"#utility.yul\":9242:9309   */\n              tag_289\n                /* \"#utility.yul\":9306:9308   */\n              0x1f\n                /* \"#utility.yul\":9301:9304   */\n              dup4\n                /* \"#utility.yul\":9242:9309   */\n              tag_197\n              jump\t// in\n            tag_289:\n                /* \"#utility.yul\":9235:9309   */\n              swap2\n              pop\n                /* \"#utility.yul\":9318:9411   */\n              tag_290\n                /* \"#utility.yul\":9407:9410   */\n              dup3\n                /* \"#utility.yul\":9318:9411   */\n              tag_211\n              jump\t// in\n            tag_290:\n                /* \"#utility.yul\":9436:9438   */\n              0x20\n                /* \"#utility.yul\":9431:9434   */\n              dup3\n                /* \"#utility.yul\":9427:9439   */\n              add\n                /* \"#utility.yul\":9420:9439   */\n              swap1\n              pop\n                /* \"#utility.yul\":9079:9445   */\n              swap2\n              swap1\n              pop\n              jump\t// out\n                /* \"#utility.yul\":9451:9870   */\n            tag_185:\n                /* \"#utility.yul\":9617:9621   */\n              0x00\n                /* \"#utility.yul\":9655:9657   */\n              0x20\n                /* \"#utility.yul\":9644:9653   */\n              dup3\n                /* \"#utility.yul\":9640:9658   */\n              add\n                /* \"#utility.yul\":9632:9658   */\n              swap1\n              pop\n                /* \"#utility.yul\":9704:9713   */\n              dup2\n                /* \"#utility.yul\":9698:9702   */\n              dup2\n                /* \"#utility.yul\":9694:9714   */\n              sub\n                /* \"#utility.yul\":9690:9691   */\n              0x00\n                /* \"#utility.yul\":9679:9688   */\n              dup4\n                /* \"#utility.yul\":9675:9692   */\n              add\n                /* \"#utility.yul\":9668:9715   */\n              mstore\n                /* \"#utility.yul\":9732:9863   */\n              tag_292\n                /* \"#utility.yul\":9858:9862   */\n              dup2\n                /* \"#utility.yul\":9732:9863   */\n              tag_212\n              jump\t// in\n            tag_292:\n                /* \"#utility.yul\":9724:9863   */\n              swap1\n              pop\n                /* \"#utility.yul\":9451:9870   */\n              swap2\n              swap1\n              pop\n              jump\t// out\n\n            auxdata: 0xa2646970667358221220a61291b0628872aadfabf42c13e0cdb7dbafad3a29832103efdd885c71a9750064736f6c63430008110033\n        }\n    }\n\n    auxdata: 0xa26469706673582212208c13f6050e7b87a8523b079fdb0922c35b8e0538bda42e92a02c02bd7f0255a064736f6c63430008110033\n}\n",
				"bytecode": {
					"linkReferences": {},
					"object": "608060405234801561001057600080fd5b50612cd7806100206000396000f3fe608060405260043610620000fe5760003560e01c80635bf608b81162000097578063b77482081162000061578063b774820814620003b5578063ccadfef514620003f9578063d32e18d1146200043d578063d6a9de51146200048157620000fe565b80635bf608b814620002a55780635c6b047a14620002e957806382eac7f0146200032d57806399f7f90d146200037157620000fe565b806339b9c30c11620000d957806339b9c30c14620001b95780633dc66ad314620001fd578063444a8520146200021d57806355a7942f146200026157620000fe565b806303ffe79e14620001035780631b89292614620001475780632d02462b146200018b575b600080fd5b3480156200011057600080fd5b506200012f60048036038101906200012991906200118a565b620004c5565b6040516200013e9190620011cd565b60405180910390f35b3480156200015457600080fd5b506200017360048036038101906200016d91906200118a565b62000580565b604051620001829190620011cd565b60405180910390f35b3480156200019857600080fd5b50620001b76004803603810190620001b191906200118a565b6200063b565b005b348015620001c657600080fd5b50620001e56004803603810190620001df91906200124f565b620006ee565b604051620001f491906200134f565b60405180910390f35b6200021b60048036038101906200021591906200118a565b62000892565b005b3480156200022a57600080fd5b506200024960048036038101906200024391906200118a565b62000945565b604051620002589190620011cd565b60405180910390f35b3480156200026e57600080fd5b506200028d6004803603810190620002879190620013b8565b62000a00565b6040516200029c919062001465565b60405180910390f35b348015620002b257600080fd5b50620002d16004803603810190620002cb91906200118a565b62000af6565b604051620002e0919062001465565b60405180910390f35b348015620002f657600080fd5b506200031560048036038101906200030f91906200118a565b62000bb1565b604051620003249190620011cd565b60405180910390f35b3480156200033a57600080fd5b506200035960048036038101906200035391906200118a565b62000c6c565b604051620003689190620014ed565b60405180910390f35b3480156200037e57600080fd5b506200039d60048036038101906200039791906200118a565b62000cac565b604051620003ac9190620011cd565b60405180910390f35b348015620003c257600080fd5b50620003e16004803603810190620003db91906200124f565b62000d67565b604051620003f091906200134f565b60405180910390f35b3480156200040657600080fd5b506200042560048036038101906200041f91906200118a565b62000f0b565b604051620004349190620011cd565b60405180910390f35b3480156200044a57600080fd5b506200046960048036038101906200046391906200118a565b62000fc6565b604051620004789190620011cd565b60405180910390f35b3480156200048e57600080fd5b50620004ad6004803603810190620004a791906200118a565b62001081565b604051620004bc919062001465565b60405180910390f35b6000808281548110620004dd57620004dc6200150a565b5b9060005260206000200160009054906101000a900473ffffffffffffffffffffffffffffffffffffffff1673ffffffffffffffffffffffffffffffffffffffff1663867a06b36040518163ffffffff1660e01b8152600401602060405180830381865afa15801562000553573d6000803e3d6000fd5b505050506040513d601f19601f8201168201806040525081019062000579919062001550565b9050919050565b60008082815481106200059857620005976200150a565b5b9060005260206000200160009054906101000a900473ffffffffffffffffffffffffffffffffffffffff1673ffffffffffffffffffffffffffffffffffffffff166399dc2df36040518163ffffffff1660e01b8152600401602060405180830381865afa1580156200060e573d6000803e3d6000fd5b505050506040513d601f19601f8201168201806040525081019062000634919062001550565b9050919050565b600081815481106200065257620006516200150a565b5b9060005260206000200160009054906101000a900473ffffffffffffffffffffffffffffffffffffffff1673ffffffffffffffffffffffffffffffffffffffff1663f340fa01336040518263ffffffff1660e01b8152600401620006b7919062001465565b600060405180830381600087803b158015620006d257600080fd5b505af1158015620006e7573d6000803e3d6000fd5b5050505050565b60606000808054905067ffffffffffffffff81111562000713576200071262001582565b5b604051908082528060200260200182016040528015620007425781602001602082028036833780820191505090505b5090506000805b60008054905081101562000887578473ffffffffffffffffffffffffffffffffffffffff16600082815481106200078557620007846200150a565b5b9060005260206000200160009054906101000a900473ffffffffffffffffffffffffffffffffffffffff1673ffffffffffffffffffffffffffffffffffffffff1663ba12a5c56040518163ffffffff1660e01b8152600401602060405180830381865afa158015620007fb573d6000803e3d6000fd5b505050506040513d601f19601f82011682018060405250810190620008219190620015c8565b73ffffffffffffffffffffffffffffffffffffffff16036200087157808383815181106200085457620008536200150a565b5b60200260200101818152505081806200086d9062001629565b9250505b80806200087e9062001629565b91505062000749565b508192505050919050565b60008181548110620008a957620008a86200150a565b5b9060005260206000200160009054906101000a900473ffffffffffffffffffffffffffffffffffffffff1673ffffffffffffffffffffffffffffffffffffffff166351cff8d9336040518263ffffffff1660e01b81526004016200090e919062001465565b600060405180830381600087803b1580156200092957600080fd5b505af11580156200093e573d6000803e3d6000fd5b5050505050565b60008082815481106200095d576200095c6200150a565b5b9060005260206000200160009054906101000a900473ffffffffffffffffffffffffffffffffffffffff1673ffffffffffffffffffffffffffffffffffffffff1663220e5ab36040518163ffffffff1660e01b8152600401602060405180830381865afa158015620009d3573d6000803e3d6000fd5b505050506040513d601f19601f82011682018060405250810190620009f9919062001550565b9050919050565b6000803388888888888860405162000a18906200113c565b62000a2a979695949392919062001687565b604051809103906000f08015801562000a47573d6000803e3d6000fd5b5090506000819080600181540180825580915050600190039060005260206000200160009091909190916101000a81548173ffffffffffffffffffffffffffffffffffffffff021916908373ffffffffffffffffffffffffffffffffffffffff1602179055507f14a8ec3fa88b43ee6d7a7a0e47e3468f408e39a1cf0be757bb6c81b94e2fdb9e813360405162000ae092919062001704565b60405180910390a1809150509695505050505050565b600080828154811062000b0e5762000b0d6200150a565b5b9060005260206000200160009054906101000a900473ffffffffffffffffffffffffffffffffffffffff1673ffffffffffffffffffffffffffffffffffffffff16634ce9e6de6040518163ffffffff1660e01b8152600401602060405180830381865afa15801562000b84573d6000803e3d6000fd5b505050506040513d601f19601f8201168201806040525081019062000baa9190620015c8565b9050919050565b600080828154811062000bc95762000bc86200150a565b5b9060005260206000200160009054906101000a900473ffffffffffffffffffffffffffffffffffffffff1673ffffffffffffffffffffffffffffffffffffffff1663c24a0f8b6040518163ffffffff1660e01b8152600401602060405180830381865afa15801562000c3f573d6000803e3d6000fd5b505050506040513d601f19601f8201168201806040525081019062000c65919062001550565b9050919050565b6000818154811062000c7d57600080fd5b906000526020600020016000915054906101000a900473ffffffffffffffffffffffffffffffffffffffff1681565b600080828154811062000cc45762000cc36200150a565b5b9060005260206000200160009054906101000a900473ffffffffffffffffffffffffffffffffffffffff1673ffffffffffffffffffffffffffffffffffffffff1663a7245b6e6040518163ffffffff1660e01b8152600401602060405180830381865afa15801562000d3a573d6000803e3d6000fd5b505050506040513d601f19601f8201168201806040525081019062000d60919062001550565b9050919050565b60606000808054905067ffffffffffffffff81111562000d8c5762000d8b62001582565b5b60405190808252806020026020018201604052801562000dbb5781602001602082028036833780820191505090505b5090506000805b60008054905081101562000f00578473ffffffffffffffffffffffffffffffffffffffff166000828154811062000dfe5762000dfd6200150a565b5b9060005260206000200160009054906101000a900473ffffffffffffffffffffffffffffffffffffffff1673ffffffffffffffffffffffffffffffffffffffff16634ce9e6de6040518163ffffffff1660e01b8152600401602060405180830381865afa15801562000e74573d6000803e3d6000fd5b505050506040513d601f19601f8201168201806040525081019062000e9a9190620015c8565b73ffffffffffffffffffffffffffffffffffffffff160362000eea578083838151811062000ecd5762000ecc6200150a565b5b602002602001018181525050818062000ee69062001629565b9250505b808062000ef79062001629565b91505062000dc2565b508192505050919050565b600080828154811062000f235762000f226200150a565b5b9060005260206000200160009054906101000a900473ffffffffffffffffffffffffffffffffffffffff1673ffffffffffffffffffffffffffffffffffffffff16636d5e7a156040518163ffffffff1660e01b8152600401602060405180830381865afa15801562000f99573d6000803e3d6000fd5b505050506040513d601f19601f8201168201806040525081019062000fbf919062001550565b9050919050565b600080828154811062000fde5762000fdd6200150a565b5b9060005260206000200160009054906101000a900473ffffffffffffffffffffffffffffffffffffffff1673ffffffffffffffffffffffffffffffffffffffff1663e6cdc7086040518163ffffffff1660e01b8152600401602060405180830381865afa15801562001054573d6000803e3d6000fd5b505050506040513d601f19601f820116820180604052508101906200107a919062001550565b9050919050565b60008082815481106200109957620010986200150a565b5b9060005260206000200160009054906101000a900473ffffffffffffffffffffffffffffffffffffffff1673ffffffffffffffffffffffffffffffffffffffff1663ba12a5c56040518163ffffffff1660e01b8152600401602060405180830381865afa1580156200110f573d6000803e3d6000fd5b505050506040513d601f19601f82011682018060405250810190620011359190620015c8565b9050919050565b611570806200173283390190565b600080fd5b6000819050919050565b62001164816200114f565b81146200117057600080fd5b50565b600081359050620011848162001159565b92915050565b600060208284031215620011a357620011a26200114a565b5b6000620011b38482850162001173565b91505092915050565b620011c7816200114f565b82525050565b6000602082019050620011e46000830184620011bc565b92915050565b600073ffffffffffffffffffffffffffffffffffffffff82169050919050565b60006200121782620011ea565b9050919050565b62001229816200120a565b81146200123557600080fd5b50565b60008135905062001249816200121e565b92915050565b6000602082840312156200126857620012676200114a565b5b6000620012788482850162001238565b91505092915050565b600081519050919050565b600082825260208201905092915050565b6000819050602082019050919050565b620012b8816200114f565b82525050565b6000620012cc8383620012ad565b60208301905092915050565b6000602082019050919050565b6000620012f28262001281565b620012fe81856200128c565b93506200130b836200129d565b8060005b8381101562001342578151620013268882620012be565b97506200133383620012d8565b9250506001810190506200130f565b5085935050505092915050565b600060208201905081810360008301526200136b8184620012e5565b905092915050565b60006200138082620011ea565b9050919050565b620013928162001373565b81146200139e57600080fd5b50565b600081359050620013b28162001387565b92915050565b60008060008060008060c08789031215620013d857620013d76200114a565b5b6000620013e889828a01620013a1565b9650506020620013fb89828a0162001173565b95505060406200140e89828a0162001173565b94505060606200142189828a0162001173565b93505060806200143489828a0162001173565b92505060a06200144789828a0162001173565b9150509295509295509295565b6200145f816200120a565b82525050565b60006020820190506200147c600083018462001454565b92915050565b6000819050919050565b6000620014ad620014a7620014a184620011ea565b62001482565b620011ea565b9050919050565b6000620014c1826200148c565b9050919050565b6000620014d582620014b4565b9050919050565b620014e781620014c8565b82525050565b6000602082019050620015046000830184620014dc565b92915050565b7f4e487b7100000000000000000000000000000000000000000000000000000000600052603260045260246000fd5b6000815190506200154a8162001159565b92915050565b6000602082840312156200156957620015686200114a565b5b6000620015798482850162001539565b91505092915050565b7f4e487b7100000000000000000000000000000000000000000000000000000000600052604160045260246000fd5b600081519050620015c2816200121e565b92915050565b600060208284031215620015e157620015e06200114a565b5b6000620015f184828501620015b1565b91505092915050565b7f4e487b7100000000000000000000000000000000000000000000000000000000600052601160045260246000fd5b600062001636826200114f565b91507fffffffffffffffffffffffffffffffffffffffffffffffffffffffffffffffff82036200166b576200166a620015fa565b5b600182019050919050565b620016818162001373565b82525050565b600060e0820190506200169e600083018a62001676565b620016ad602083018962001676565b620016bc6040830188620011bc565b620016cb6060830187620011bc565b620016da6080830186620011bc565b620016e960a0830185620011bc565b620016f860c0830184620011bc565b98975050505050505050565b60006040820190506200171b600083018562001454565b6200172a602083018462001454565b939250505056fe60806040523480156200001157600080fd5b506040516200157038038062001570833981810160405281019062000037919062000196565b600160008190555086600160006101000a81548173ffffffffffffffffffffffffffffffffffffffff021916908373ffffffffffffffffffffffffffffffffffffffff16021790555085600260006101000a81548173ffffffffffffffffffffffffffffffffffffffff021916908373ffffffffffffffffffffffffffffffffffffffff1602179055508460068190555083600781905550826008819055508160098190555080600a819055505050505050505062000249565b600080fd5b600073ffffffffffffffffffffffffffffffffffffffff82169050919050565b60006200012382620000f6565b9050919050565b620001358162000116565b81146200014157600080fd5b50565b60008151905062000155816200012a565b92915050565b6000819050919050565b62000170816200015b565b81146200017c57600080fd5b50565b600081519050620001908162000165565b92915050565b600080600080600080600060e0888a031215620001b857620001b7620000f1565b5b6000620001c88a828b0162000144565b9750506020620001db8a828b0162000144565b9650506040620001ee8a828b016200017f565b9550506060620002018a828b016200017f565b9450506080620002148a828b016200017f565b93505060a0620002278a828b016200017f565b92505060c06200023a8a828b016200017f565b91505092959891949750929550565b61131780620002596000396000f3fe6080604052600436106101185760003560e01c8063867a06b3116100a0578063c24a0f8b11610064578063c24a0f8b14610436578063d0bf21fd14610461578063db2926211461048c578063e6cdc708146104b7578063f340fa01146104e257610184565b8063867a06b31461035f5780638b7afe2e1461038a57806399dc2df3146103b5578063a7245b6e146103e0578063ba12a5c51461040b57610184565b80634680dd2f116100e75780634680dd2f146102975780634ce9e6de146102c257806351cff8d9146102ed57806369cf1e90146103095780636d5e7a151461033457610184565b8063220e5ab3146101eb57806331658e321461021657806336359265146102415780634644803f1461026c57610184565b36610184573373ffffffffffffffffffffffffffffffffffffffff163073ffffffffffffffffffffffffffffffffffffffff167f5548c837ab068cf56a2c2479df0882a4922fd203edb7517321831d95078c5f623460405161017a9190610e16565b60405180910390a3005b3373ffffffffffffffffffffffffffffffffffffffff163073ffffffffffffffffffffffffffffffffffffffff167f5548c837ab068cf56a2c2479df0882a4922fd203edb7517321831d95078c5f62346040516101e19190610e16565b60405180910390a3005b3480156101f757600080fd5b506102006104fe565b60405161020d9190610e16565b60405180910390f35b34801561022257600080fd5b5061022b610504565b6040516102389190610e16565b60405180910390f35b34801561024d57600080fd5b5061025661050e565b6040516102639190610e16565b60405180910390f35b34801561027857600080fd5b50610281610518565b60405161028e9190610e16565b60405180910390f35b3480156102a357600080fd5b506102ac610522565b6040516102b99190610e16565b60405180910390f35b3480156102ce57600080fd5b506102d761052c565b6040516102e49190610e72565b60405180910390f35b61030760048036038101906103029190610ebe565b610556565b005b34801561031557600080fd5b5061031e610b53565b60405161032b9190610e16565b60405180910390f35b34801561034057600080fd5b50610349610b5d565b6040516103569190610e16565b60405180910390f35b34801561036b57600080fd5b50610374610b63565b6040516103819190610e16565b60405180910390f35b34801561039657600080fd5b5061039f610b69565b6040516103ac9190610e16565b60405180910390f35b3480156103c157600080fd5b506103ca610b6f565b6040516103d79190610e16565b60405180910390f35b3480156103ec57600080fd5b506103f5610b75565b6040516104029190610e16565b60405180910390f35b34801561041757600080fd5b50610420610b7b565b60405161042d9190610e72565b60405180910390f35b34801561044257600080fd5b5061044b610ba5565b6040516104589190610e16565b60405180910390f35b34801561046d57600080fd5b50610476610bab565b6040516104839190610e16565b60405180910390f35b34801561049857600080fd5b506104a1610bb5565b6040516104ae9190610e16565b60405180910390f35b3480156104c357600080fd5b506104cc610bbf565b6040516104d99190610e16565b60405180910390f35b6104fc60048036038101906104f79190610ebe565b610bc5565b005b60065481565b6000600a54905090565b6000600954905090565b6000600454905090565b6000600554905090565b6000600260009054906101000a900473ffffffffffffffffffffffffffffffffffffffff16905090565b61055e610da4565b600047036105a1576040517f08c379a000000000000000000000000000000000000000000000000000000000815260040161059890610f48565b60405180910390fd5b60095442106105e5576040517f08c379a00000000000000000000000000000000000000000000000000000000081526004016105dc90610fb4565b60405180910390fd5b6007546004541180156105f9575060095442115b8015610621575062015180600a546106119190611003565b60095461061e9190611045565b42105b15610724578073ffffffffffffffffffffffffffffffffffffffff16600160009054906101000a900473ffffffffffffffffffffffffffffffffffffffff1673ffffffffffffffffffffffffffffffffffffffff16146106b6576040517f08c379a00000000000000000000000000000000000000000000000000000000081526004016106ad906110c5565b60405180910390fd5b600160009054906101000a900473ffffffffffffffffffffffffffffffffffffffff1673ffffffffffffffffffffffffffffffffffffffff166108fc479081150290604051600060405180830381858888f1935050505015801561071e573d6000803e3d6000fd5b50610b48565b600654600554118015610753575062015180600a546107439190611003565b6009546107509190611045565b42115b15610856578073ffffffffffffffffffffffffffffffffffffffff16600260009054906101000a900473ffffffffffffffffffffffffffffffffffffffff1673ffffffffffffffffffffffffffffffffffffffff16146107e8576040517f08c379a00000000000000000000000000000000000000000000000000000000081526004016107df90611131565b60405180910390fd5b600260009054906101000a900473ffffffffffffffffffffffffffffffffffffffff1673ffffffffffffffffffffffffffffffffffffffff166108fc479081150290604051600060405180830381858888f19350505050158015610850573d6000803e3d6000fd5b50610b47565b6000471415801561086a5750600754600454105b80156108795750600854600554105b80156108a1575062015180600a546108919190611003565b60095461089e9190611045565b42115b15610b4657600260009054906101000a900473ffffffffffffffffffffffffffffffffffffffff1673ffffffffffffffffffffffffffffffffffffffff168173ffffffffffffffffffffffffffffffffffffffff16148061094f5750600160009054906101000a900473ffffffffffffffffffffffffffffffffffffffff1673ffffffffffffffffffffffffffffffffffffffff168173ffffffffffffffffffffffffffffffffffffffff16145b61098e576040517f08c379a0000000000000000000000000000000000000000000000000000000008152600401610985906111c3565b60405180910390fd5b600260009054906101000a900473ffffffffffffffffffffffffffffffffffffffff1673ffffffffffffffffffffffffffffffffffffffff168173ffffffffffffffffffffffffffffffffffffffff161480156109ee5750600060055414155b15610a6b57600260009054906101000a900473ffffffffffffffffffffffffffffffffffffffff1673ffffffffffffffffffffffffffffffffffffffff166108fc6005549081150290604051600060405180830381858888f19350505050158015610a5d573d6000803e3d6000fd5b506000600581905550610b45565b600160009054906101000a900473ffffffffffffffffffffffffffffffffffffffff1673ffffffffffffffffffffffffffffffffffffffff168173ffffffffffffffffffffffffffffffffffffffff16148015610acb5750600060045414155b15610b4457600160009054906101000a900473ffffffffffffffffffffffffffffffffffffffff1673ffffffffffffffffffffffffffffffffffffffff166108fc6004549081150290604051600060405180830381858888f19350505050158015610b3a573d6000803e3d6000fd5b5060006004819055505b5b5b5b5b610b50610df3565b50565b6000600854905090565b600a5481565b60045481565b60035481565b60085481565b60075481565b6000600160009054906101000a900473ffffffffffffffffffffffffffffffffffffffff16905090565b60095481565b6000600754905090565b6000600654905090565b60055481565b600160009054906101000a900473ffffffffffffffffffffffffffffffffffffffff1673ffffffffffffffffffffffffffffffffffffffff168173ffffffffffffffffffffffffffffffffffffffff161480610c6e5750600260009054906101000a900473ffffffffffffffffffffffffffffffffffffffff1673ffffffffffffffffffffffffffffffffffffffff168173ffffffffffffffffffffffffffffffffffffffff16145b610cad576040517f08c379a0000000000000000000000000000000000000000000000000000000008152600401610ca490611255565b60405180910390fd5b600160009054906101000a900473ffffffffffffffffffffffffffffffffffffffff1673ffffffffffffffffffffffffffffffffffffffff168173ffffffffffffffffffffffffffffffffffffffff1603610d20573460046000828254610d149190611045565b92505081905550610d3a565b3460056000828254610d329190611045565b925050819055505b3460036000828254610d4c9190611045565b925050819055508073ffffffffffffffffffffffffffffffffffffffff167f543ba50a5eec5e6178218e364b1d0f396157b3c8fa278522c2cb7fd99407d47434604051610d999190610e16565b60405180910390a250565b600260005403610de9576040517f08c379a0000000000000000000000000000000000000000000000000000000008152600401610de0906112c1565b60405180910390fd5b6002600081905550565b6001600081905550565b6000819050919050565b610e1081610dfd565b82525050565b6000602082019050610e2b6000830184610e07565b92915050565b600073ffffffffffffffffffffffffffffffffffffffff82169050919050565b6000610e5c82610e31565b9050919050565b610e6c81610e51565b82525050565b6000602082019050610e876000830184610e63565b92915050565b600080fd5b610e9b81610e51565b8114610ea657600080fd5b50565b600081359050610eb881610e92565b92915050565b600060208284031215610ed457610ed3610e8d565b5b6000610ee284828501610ea9565b91505092915050565b600082825260208201905092915050565b7f436f6e747261637420646f6e277420686176652066756e647300000000000000600082015250565b6000610f32601983610eeb565b9150610f3d82610efc565b602082019050919050565b60006020820190508181036000830152610f6181610f25565b9050919050565b7f54696d65206973206e6f74206f76657220796574000000000000000000000000600082015250565b6000610f9e601483610eeb565b9150610fa982610f68565b602082019050919050565b60006020820190508181036000830152610fcd81610f91565b9050919050565b7f4e487b7100000000000000000000000000000000000000000000000000000000600052601160045260246000fd5b600061100e82610dfd565b915061101983610dfd565b925082820261102781610dfd565b9150828204841483151761103e5761103d610fd4565b5b5092915050565b600061105082610dfd565b915061105b83610dfd565b925082820190508082111561107357611072610fd4565b5b92915050565b7f596f7520617265206e6f74207468652073656c6c657200000000000000000000600082015250565b60006110af601683610eeb565b91506110ba82611079565b602082019050919050565b600060208201905081810360008301526110de816110a2565b9050919050565b7f596f7520617265206e6f74207468652062757965720000000000000000000000600082015250565b600061111b601583610eeb565b9150611126826110e5565b602082019050919050565b6000602082019050818103600083015261114a8161110e565b9050919050565b7f4a757374206275796572206f722073656c6c65722063616e207769746864726160008201527f7700000000000000000000000000000000000000000000000000000000000000602082015250565b60006111ad602183610eeb565b91506111b882611151565b604082019050919050565b600060208201905081810360008301526111dc816111a0565b9050919050565b7f4f6e6c79207468652073656c6c6572206f722062757965722063616e2064657060008201527f6f7369742066756e647300000000000000000000000000000000000000000000602082015250565b600061123f602a83610eeb565b915061124a826111e3565b604082019050919050565b6000602082019050818103600083015261126e81611232565b9050919050565b7f5265656e7472616e637947756172643a207265656e7472616e742063616c6c00600082015250565b60006112ab601f83610eeb565b91506112b682611275565b602082019050919050565b600060208201905081810360008301526112da8161129e565b905091905056fea2646970667358221220a61291b0628872aadfabf42c13e0cdb7dbafad3a29832103efdd885c71a9750064736f6c63430008110033a26469706673582212208c13f6050e7b87a8523b079fdb0922c35b8e0538bda42e92a02c02bd7f0255a064736f6c63430008110033",
					"opcodes": "PUSH1 0x80 PUSH1 0x40 MSTORE CALLVALUE DUP1 ISZERO PUSH2 0x10 JUMPI PUSH1 0x0 DUP1 REVERT JUMPDEST POP PUSH2 0x2CD7 DUP1 PUSH2 0x20 PUSH1 0x0 CODECOPY PUSH1 0x0 RETURN INVALID PUSH1 0x80 PUSH1 0x40 MSTORE PUSH1 0x4 CALLDATASIZE LT PUSH3 0xFE JUMPI PUSH1 0x0 CALLDATALOAD PUSH1 0xE0 SHR DUP1 PUSH4 0x5BF608B8 GT PUSH3 0x97 JUMPI DUP1 PUSH4 0xB7748208 GT PUSH3 0x61 JUMPI DUP1 PUSH4 0xB7748208 EQ PUSH3 0x3B5 JUMPI DUP1 PUSH4 0xCCADFEF5 EQ PUSH3 0x3F9 JUMPI DUP1 PUSH4 0xD32E18D1 EQ PUSH3 0x43D JUMPI DUP1 PUSH4 0xD6A9DE51 EQ PUSH3 0x481 JUMPI PUSH3 0xFE JUMP JUMPDEST DUP1 PUSH4 0x5BF608B8 EQ PUSH3 0x2A5 JUMPI DUP1 PUSH4 0x5C6B047A EQ PUSH3 0x2E9 JUMPI DUP1 PUSH4 0x82EAC7F0 EQ PUSH3 0x32D JUMPI DUP1 PUSH4 0x99F7F90D EQ PUSH3 0x371 JUMPI PUSH3 0xFE JUMP JUMPDEST DUP1 PUSH4 0x39B9C30C GT PUSH3 0xD9 JUMPI DUP1 PUSH4 0x39B9C30C EQ PUSH3 0x1B9 JUMPI DUP1 PUSH4 0x3DC66AD3 EQ PUSH3 0x1FD JUMPI DUP1 PUSH4 0x444A8520 EQ PUSH3 0x21D JUMPI DUP1 PUSH4 0x55A7942F EQ PUSH3 0x261 JUMPI PUSH3 0xFE JUMP JUMPDEST DUP1 PUSH4 0x3FFE79E EQ PUSH3 0x103 JUMPI DUP1 PUSH4 0x1B892926 EQ PUSH3 0x147 JUMPI DUP1 PUSH4 0x2D02462B EQ PUSH3 0x18B JUMPI JUMPDEST PUSH1 0x0 DUP1 REVERT JUMPDEST CALLVALUE DUP1 ISZERO PUSH3 0x110 JUMPI PUSH1 0x0 DUP1 REVERT JUMPDEST POP PUSH3 0x12F PUSH1 0x4 DUP1 CALLDATASIZE SUB DUP2 ADD SWAP1 PUSH3 0x129 SWAP2 SWAP1 PUSH3 0x118A JUMP JUMPDEST PUSH3 0x4C5 JUMP JUMPDEST PUSH1 0x40 MLOAD PUSH3 0x13E SWAP2 SWAP1 PUSH3 0x11CD JUMP JUMPDEST PUSH1 0x40 MLOAD DUP1 SWAP2 SUB SWAP1 RETURN JUMPDEST CALLVALUE DUP1 ISZERO PUSH3 0x154 JUMPI PUSH1 0x0 DUP1 REVERT JUMPDEST POP PUSH3 0x173 PUSH1 0x4 DUP1 CALLDATASIZE SUB DUP2 ADD SWAP1 PUSH3 0x16D SWAP2 SWAP1 PUSH3 0x118A JUMP JUMPDEST PUSH3 0x580 JUMP JUMPDEST PUSH1 0x40 MLOAD PUSH3 0x182 SWAP2 SWAP1 PUSH3 0x11CD JUMP JUMPDEST PUSH1 0x40 MLOAD DUP1 SWAP2 SUB SWAP1 RETURN JUMPDEST CALLVALUE DUP1 ISZERO PUSH3 0x198 JUMPI PUSH1 0x0 DUP1 REVERT JUMPDEST POP PUSH3 0x1B7 PUSH1 0x4 DUP1 CALLDATASIZE SUB DUP2 ADD SWAP1 PUSH3 0x1B1 SWAP2 SWAP1 PUSH3 0x118A JUMP JUMPDEST PUSH3 0x63B JUMP JUMPDEST STOP JUMPDEST CALLVALUE DUP1 ISZERO PUSH3 0x1C6 JUMPI PUSH1 0x0 DUP1 REVERT JUMPDEST POP PUSH3 0x1E5 PUSH1 0x4 DUP1 CALLDATASIZE SUB DUP2 ADD SWAP1 PUSH3 0x1DF SWAP2 SWAP1 PUSH3 0x124F JUMP JUMPDEST PUSH3 0x6EE JUMP JUMPDEST PUSH1 0x40 MLOAD PUSH3 0x1F4 SWAP2 SWAP1 PUSH3 0x134F JUMP JUMPDEST PUSH1 0x40 MLOAD DUP1 SWAP2 SUB SWAP1 RETURN JUMPDEST PUSH3 0x21B PUSH1 0x4 DUP1 CALLDATASIZE SUB DUP2 ADD SWAP1 PUSH3 0x215 SWAP2 SWAP1 PUSH3 0x118A JUMP JUMPDEST PUSH3 0x892 JUMP JUMPDEST STOP JUMPDEST CALLVALUE DUP1 ISZERO PUSH3 0x22A JUMPI PUSH1 0x0 DUP1 REVERT JUMPDEST POP PUSH3 0x249 PUSH1 0x4 DUP1 CALLDATASIZE SUB DUP2 ADD SWAP1 PUSH3 0x243 SWAP2 SWAP1 PUSH3 0x118A JUMP JUMPDEST PUSH3 0x945 JUMP JUMPDEST PUSH1 0x40 MLOAD PUSH3 0x258 SWAP2 SWAP1 PUSH3 0x11CD JUMP JUMPDEST PUSH1 0x40 MLOAD DUP1 SWAP2 SUB SWAP1 RETURN JUMPDEST CALLVALUE DUP1 ISZERO PUSH3 0x26E JUMPI PUSH1 0x0 DUP1 REVERT JUMPDEST POP PUSH3 0x28D PUSH1 0x4 DUP1 CALLDATASIZE SUB DUP2 ADD SWAP1 PUSH3 0x287 SWAP2 SWAP1 PUSH3 0x13B8 JUMP JUMPDEST PUSH3 0xA00 JUMP JUMPDEST PUSH1 0x40 MLOAD PUSH3 0x29C SWAP2 SWAP1 PUSH3 0x1465 JUMP JUMPDEST PUSH1 0x40 MLOAD DUP1 SWAP2 SUB SWAP1 RETURN JUMPDEST CALLVALUE DUP1 ISZERO PUSH3 0x2B2 JUMPI PUSH1 0x0 DUP1 REVERT JUMPDEST POP PUSH3 0x2D1 PUSH1 0x4 DUP1 CALLDATASIZE SUB DUP2 ADD SWAP1 PUSH3 0x2CB SWAP2 SWAP1 PUSH3 0x118A JUMP JUMPDEST PUSH3 0xAF6 JUMP JUMPDEST PUSH1 0x40 MLOAD PUSH3 0x2E0 SWAP2 SWAP1 PUSH3 0x1465 JUMP JUMPDEST PUSH1 0x40 MLOAD DUP1 SWAP2 SUB SWAP1 RETURN JUMPDEST CALLVALUE DUP1 ISZERO PUSH3 0x2F6 JUMPI PUSH1 0x0 DUP1 REVERT JUMPDEST POP PUSH3 0x315 PUSH1 0x4 DUP1 CALLDATASIZE SUB DUP2 ADD SWAP1 PUSH3 0x30F SWAP2 SWAP1 PUSH3 0x118A JUMP JUMPDEST PUSH3 0xBB1 JUMP JUMPDEST PUSH1 0x40 MLOAD PUSH3 0x324 SWAP2 SWAP1 PUSH3 0x11CD JUMP JUMPDEST PUSH1 0x40 MLOAD DUP1 SWAP2 SUB SWAP1 RETURN JUMPDEST CALLVALUE DUP1 ISZERO PUSH3 0x33A JUMPI PUSH1 0x0 DUP1 REVERT JUMPDEST POP PUSH3 0x359 PUSH1 0x4 DUP1 CALLDATASIZE SUB DUP2 ADD SWAP1 PUSH3 0x353 SWAP2 SWAP1 PUSH3 0x118A JUMP JUMPDEST PUSH3 0xC6C JUMP JUMPDEST PUSH1 0x40 MLOAD PUSH3 0x368 SWAP2 SWAP1 PUSH3 0x14ED JUMP JUMPDEST PUSH1 0x40 MLOAD DUP1 SWAP2 SUB SWAP1 RETURN JUMPDEST CALLVALUE DUP1 ISZERO PUSH3 0x37E JUMPI PUSH1 0x0 DUP1 REVERT JUMPDEST POP PUSH3 0x39D PUSH1 0x4 DUP1 CALLDATASIZE SUB DUP2 ADD SWAP1 PUSH3 0x397 SWAP2 SWAP1 PUSH3 0x118A JUMP JUMPDEST PUSH3 0xCAC JUMP JUMPDEST PUSH1 0x40 MLOAD PUSH3 0x3AC SWAP2 SWAP1 PUSH3 0x11CD JUMP JUMPDEST PUSH1 0x40 MLOAD DUP1 SWAP2 SUB SWAP1 RETURN JUMPDEST CALLVALUE DUP1 ISZERO PUSH3 0x3C2 JUMPI PUSH1 0x0 DUP1 REVERT JUMPDEST POP PUSH3 0x3E1 PUSH1 0x4 DUP1 CALLDATASIZE SUB DUP2 ADD SWAP1 PUSH3 0x3DB SWAP2 SWAP1 PUSH3 0x124F JUMP JUMPDEST PUSH3 0xD67 JUMP JUMPDEST PUSH1 0x40 MLOAD PUSH3 0x3F0 SWAP2 SWAP1 PUSH3 0x134F JUMP JUMPDEST PUSH1 0x40 MLOAD DUP1 SWAP2 SUB SWAP1 RETURN JUMPDEST CALLVALUE DUP1 ISZERO PUSH3 0x406 JUMPI PUSH1 0x0 DUP1 REVERT JUMPDEST POP PUSH3 0x425 PUSH1 0x4 DUP1 CALLDATASIZE SUB DUP2 ADD SWAP1 PUSH3 0x41F SWAP2 SWAP1 PUSH3 0x118A JUMP JUMPDEST PUSH3 0xF0B JUMP JUMPDEST PUSH1 0x40 MLOAD PUSH3 0x434 SWAP2 SWAP1 PUSH3 0x11CD JUMP JUMPDEST PUSH1 0x40 MLOAD DUP1 SWAP2 SUB SWAP1 RETURN JUMPDEST CALLVALUE DUP1 ISZERO PUSH3 0x44A JUMPI PUSH1 0x0 DUP1 REVERT JUMPDEST POP PUSH3 0x469 PUSH1 0x4 DUP1 CALLDATASIZE SUB DUP2 ADD SWAP1 PUSH3 0x463 SWAP2 SWAP1 PUSH3 0x118A JUMP JUMPDEST PUSH3 0xFC6 JUMP JUMPDEST PUSH1 0x40 MLOAD PUSH3 0x478 SWAP2 SWAP1 PUSH3 0x11CD JUMP JUMPDEST PUSH1 0x40 MLOAD DUP1 SWAP2 SUB SWAP1 RETURN JUMPDEST CALLVALUE DUP1 ISZERO PUSH3 0x48E JUMPI PUSH1 0x0 DUP1 REVERT JUMPDEST POP PUSH3 0x4AD PUSH1 0x4 DUP1 CALLDATASIZE SUB DUP2 ADD SWAP1 PUSH3 0x4A7 SWAP2 SWAP1 PUSH3 0x118A JUMP JUMPDEST PUSH3 0x1081 JUMP JUMPDEST PUSH1 0x40 MLOAD PUSH3 0x4BC SWAP2 SWAP1 PUSH3 0x1465 JUMP JUMPDEST PUSH1 0x40 MLOAD DUP1 SWAP2 SUB SWAP1 RETURN JUMPDEST PUSH1 0x0 DUP1 DUP3 DUP2 SLOAD DUP2 LT PUSH3 0x4DD JUMPI PUSH3 0x4DC PUSH3 0x150A JUMP JUMPDEST JUMPDEST SWAP1 PUSH1 0x0 MSTORE PUSH1 0x20 PUSH1 0x0 KECCAK256 ADD PUSH1 0x0 SWAP1 SLOAD SWAP1 PUSH2 0x100 EXP SWAP1 DIV PUSH20 0xFFFFFFFFFFFFFFFFFFFFFFFFFFFFFFFFFFFFFFFF AND PUSH20 0xFFFFFFFFFFFFFFFFFFFFFFFFFFFFFFFFFFFFFFFF AND PUSH4 0x867A06B3 PUSH1 0x40 MLOAD DUP2 PUSH4 0xFFFFFFFF AND PUSH1 0xE0 SHL DUP2 MSTORE PUSH1 0x4 ADD PUSH1 0x20 PUSH1 0x40 MLOAD DUP1 DUP4 SUB DUP2 DUP7 GAS STATICCALL ISZERO DUP1 ISZERO PUSH3 0x553 JUMPI RETURNDATASIZE PUSH1 0x0 DUP1 RETURNDATACOPY RETURNDATASIZE PUSH1 0x0 REVERT JUMPDEST POP POP POP POP PUSH1 0x40 MLOAD RETURNDATASIZE PUSH1 0x1F NOT PUSH1 0x1F DUP3 ADD AND DUP3 ADD DUP1 PUSH1 0x40 MSTORE POP DUP2 ADD SWAP1 PUSH3 0x579 SWAP2 SWAP1 PUSH3 0x1550 JUMP JUMPDEST SWAP1 POP SWAP2 SWAP1 POP JUMP JUMPDEST PUSH1 0x0 DUP1 DUP3 DUP2 SLOAD DUP2 LT PUSH3 0x598 JUMPI PUSH3 0x597 PUSH3 0x150A JUMP JUMPDEST JUMPDEST SWAP1 PUSH1 0x0 MSTORE PUSH1 0x20 PUSH1 0x0 KECCAK256 ADD PUSH1 0x0 SWAP1 SLOAD SWAP1 PUSH2 0x100 EXP SWAP1 DIV PUSH20 0xFFFFFFFFFFFFFFFFFFFFFFFFFFFFFFFFFFFFFFFF AND PUSH20 0xFFFFFFFFFFFFFFFFFFFFFFFFFFFFFFFFFFFFFFFF AND PUSH4 0x99DC2DF3 PUSH1 0x40 MLOAD DUP2 PUSH4 0xFFFFFFFF AND PUSH1 0xE0 SHL DUP2 MSTORE PUSH1 0x4 ADD PUSH1 0x20 PUSH1 0x40 MLOAD DUP1 DUP4 SUB DUP2 DUP7 GAS STATICCALL ISZERO DUP1 ISZERO PUSH3 0x60E JUMPI RETURNDATASIZE PUSH1 0x0 DUP1 RETURNDATACOPY RETURNDATASIZE PUSH1 0x0 REVERT JUMPDEST POP POP POP POP PUSH1 0x40 MLOAD RETURNDATASIZE PUSH1 0x1F NOT PUSH1 0x1F DUP3 ADD AND DUP3 ADD DUP1 PUSH1 0x40 MSTORE POP DUP2 ADD SWAP1 PUSH3 0x634 SWAP2 SWAP1 PUSH3 0x1550 JUMP JUMPDEST SWAP1 POP SWAP2 SWAP1 POP JUMP JUMPDEST PUSH1 0x0 DUP2 DUP2 SLOAD DUP2 LT PUSH3 0x652 JUMPI PUSH3 0x651 PUSH3 0x150A JUMP JUMPDEST JUMPDEST SWAP1 PUSH1 0x0 MSTORE PUSH1 0x20 PUSH1 0x0 KECCAK256 ADD PUSH1 0x0 SWAP1 SLOAD SWAP1 PUSH2 0x100 EXP SWAP1 DIV PUSH20 0xFFFFFFFFFFFFFFFFFFFFFFFFFFFFFFFFFFFFFFFF AND PUSH20 0xFFFFFFFFFFFFFFFFFFFFFFFFFFFFFFFFFFFFFFFF AND PUSH4 0xF340FA01 CALLER PUSH1 0x40 MLOAD DUP3 PUSH4 0xFFFFFFFF AND PUSH1 0xE0 SHL DUP2 MSTORE PUSH1 0x4 ADD PUSH3 0x6B7 SWAP2 SWAP1 PUSH3 0x1465 JUMP JUMPDEST PUSH1 0x0 PUSH1 0x40 MLOAD DUP1 DUP4 SUB DUP2 PUSH1 0x0 DUP8 DUP1 EXTCODESIZE ISZERO DUP1 ISZERO PUSH3 0x6D2 JUMPI PUSH1 0x0 DUP1 REVERT JUMPDEST POP GAS CALL ISZERO DUP1 ISZERO PUSH3 0x6E7 JUMPI RETURNDATASIZE PUSH1 0x0 DUP1 RETURNDATACOPY RETURNDATASIZE PUSH1 0x0 REVERT JUMPDEST POP POP POP POP POP JUMP JUMPDEST PUSH1 0x60 PUSH1 0x0 DUP1 DUP1 SLOAD SWAP1 POP PUSH8 0xFFFFFFFFFFFFFFFF DUP2 GT ISZERO PUSH3 0x713 JUMPI PUSH3 0x712 PUSH3 0x1582 JUMP JUMPDEST JUMPDEST PUSH1 0x40 MLOAD SWAP1 DUP1 DUP3 MSTORE DUP1 PUSH1 0x20 MUL PUSH1 0x20 ADD DUP3 ADD PUSH1 0x40 MSTORE DUP1 ISZERO PUSH3 0x742 JUMPI DUP2 PUSH1 0x20 ADD PUSH1 0x20 DUP3 MUL DUP1 CALLDATASIZE DUP4 CALLDATACOPY DUP1 DUP3 ADD SWAP2 POP POP SWAP1 POP JUMPDEST POP SWAP1 POP PUSH1 0x0 DUP1 JUMPDEST PUSH1 0x0 DUP1 SLOAD SWAP1 POP DUP2 LT ISZERO PUSH3 0x887 JUMPI DUP5 PUSH20 0xFFFFFFFFFFFFFFFFFFFFFFFFFFFFFFFFFFFFFFFF AND PUSH1 0x0 DUP3 DUP2 SLOAD DUP2 LT PUSH3 0x785 JUMPI PUSH3 0x784 PUSH3 0x150A JUMP JUMPDEST JUMPDEST SWAP1 PUSH1 0x0 MSTORE PUSH1 0x20 PUSH1 0x0 KECCAK256 ADD PUSH1 0x0 SWAP1 SLOAD SWAP1 PUSH2 0x100 EXP SWAP1 DIV PUSH20 0xFFFFFFFFFFFFFFFFFFFFFFFFFFFFFFFFFFFFFFFF AND PUSH20 0xFFFFFFFFFFFFFFFFFFFFFFFFFFFFFFFFFFFFFFFF AND PUSH4 0xBA12A5C5 PUSH1 0x40 MLOAD DUP2 PUSH4 0xFFFFFFFF AND PUSH1 0xE0 SHL DUP2 MSTORE PUSH1 0x4 ADD PUSH1 0x20 PUSH1 0x40 MLOAD DUP1 DUP4 SUB DUP2 DUP7 GAS STATICCALL ISZERO DUP1 ISZERO PUSH3 0x7FB JUMPI RETURNDATASIZE PUSH1 0x0 DUP1 RETURNDATACOPY RETURNDATASIZE PUSH1 0x0 REVERT JUMPDEST POP POP POP POP PUSH1 0x40 MLOAD RETURNDATASIZE PUSH1 0x1F NOT PUSH1 0x1F DUP3 ADD AND DUP3 ADD DUP1 PUSH1 0x40 MSTORE POP DUP2 ADD SWAP1 PUSH3 0x821 SWAP2 SWAP1 PUSH3 0x15C8 JUMP JUMPDEST PUSH20 0xFFFFFFFFFFFFFFFFFFFFFFFFFFFFFFFFFFFFFFFF AND SUB PUSH3 0x871 JUMPI DUP1 DUP4 DUP4 DUP2 MLOAD DUP2 LT PUSH3 0x854 JUMPI PUSH3 0x853 PUSH3 0x150A JUMP JUMPDEST JUMPDEST PUSH1 0x20 MUL PUSH1 0x20 ADD ADD DUP2 DUP2 MSTORE POP POP DUP2 DUP1 PUSH3 0x86D SWAP1 PUSH3 0x1629 JUMP JUMPDEST SWAP3 POP POP JUMPDEST DUP1 DUP1 PUSH3 0x87E SWAP1 PUSH3 0x1629 JUMP JUMPDEST SWAP2 POP POP PUSH3 0x749 JUMP JUMPDEST POP DUP2 SWAP3 POP POP POP SWAP2 SWAP1 POP JUMP JUMPDEST PUSH1 0x0 DUP2 DUP2 SLOAD DUP2 LT PUSH3 0x8A9 JUMPI PUSH3 0x8A8 PUSH3 0x150A JUMP JUMPDEST JUMPDEST SWAP1 PUSH1 0x0 MSTORE PUSH1 0x20 PUSH1 0x0 KECCAK256 ADD PUSH1 0x0 SWAP1 SLOAD SWAP1 PUSH2 0x100 EXP SWAP1 DIV PUSH20 0xFFFFFFFFFFFFFFFFFFFFFFFFFFFFFFFFFFFFFFFF AND PUSH20 0xFFFFFFFFFFFFFFFFFFFFFFFFFFFFFFFFFFFFFFFF AND PUSH4 0x51CFF8D9 CALLER PUSH1 0x40 MLOAD DUP3 PUSH4 0xFFFFFFFF AND PUSH1 0xE0 SHL DUP2 MSTORE PUSH1 0x4 ADD PUSH3 0x90E SWAP2 SWAP1 PUSH3 0x1465 JUMP JUMPDEST PUSH1 0x0 PUSH1 0x40 MLOAD DUP1 DUP4 SUB DUP2 PUSH1 0x0 DUP8 DUP1 EXTCODESIZE ISZERO DUP1 ISZERO PUSH3 0x929 JUMPI PUSH1 0x0 DUP1 REVERT JUMPDEST POP GAS CALL ISZERO DUP1 ISZERO PUSH3 0x93E JUMPI RETURNDATASIZE PUSH1 0x0 DUP1 RETURNDATACOPY RETURNDATASIZE PUSH1 0x0 REVERT JUMPDEST POP POP POP POP POP JUMP JUMPDEST PUSH1 0x0 DUP1 DUP3 DUP2 SLOAD DUP2 LT PUSH3 0x95D JUMPI PUSH3 0x95C PUSH3 0x150A JUMP JUMPDEST JUMPDEST SWAP1 PUSH1 0x0 MSTORE PUSH1 0x20 PUSH1 0x0 KECCAK256 ADD PUSH1 0x0 SWAP1 SLOAD SWAP1 PUSH2 0x100 EXP SWAP1 DIV PUSH20 0xFFFFFFFFFFFFFFFFFFFFFFFFFFFFFFFFFFFFFFFF AND PUSH20 0xFFFFFFFFFFFFFFFFFFFFFFFFFFFFFFFFFFFFFFFF AND PUSH4 0x220E5AB3 PUSH1 0x40 MLOAD DUP2 PUSH4 0xFFFFFFFF AND PUSH1 0xE0 SHL DUP2 MSTORE PUSH1 0x4 ADD PUSH1 0x20 PUSH1 0x40 MLOAD DUP1 DUP4 SUB DUP2 DUP7 GAS STATICCALL ISZERO DUP1 ISZERO PUSH3 0x9D3 JUMPI RETURNDATASIZE PUSH1 0x0 DUP1 RETURNDATACOPY RETURNDATASIZE PUSH1 0x0 REVERT JUMPDEST POP POP POP POP PUSH1 0x40 MLOAD RETURNDATASIZE PUSH1 0x1F NOT PUSH1 0x1F DUP3 ADD AND DUP3 ADD DUP1 PUSH1 0x40 MSTORE POP DUP2 ADD SWAP1 PUSH3 0x9F9 SWAP2 SWAP1 PUSH3 0x1550 JUMP JUMPDEST SWAP1 POP SWAP2 SWAP1 POP JUMP JUMPDEST PUSH1 0x0 DUP1 CALLER DUP9 DUP9 DUP9 DUP9 DUP9 DUP9 PUSH1 0x40 MLOAD PUSH3 0xA18 SWAP1 PUSH3 0x113C JUMP JUMPDEST PUSH3 0xA2A SWAP8 SWAP7 SWAP6 SWAP5 SWAP4 SWAP3 SWAP2 SWAP1 PUSH3 0x1687 JUMP JUMPDEST PUSH1 0x40 MLOAD DUP1 SWAP2 SUB SWAP1 PUSH1 0x0 CREATE DUP1 ISZERO DUP1 ISZERO PUSH3 0xA47 JUMPI RETURNDATASIZE PUSH1 0x0 DUP1 RETURNDATACOPY RETURNDATASIZE PUSH1 0x0 REVERT JUMPDEST POP SWAP1 POP PUSH1 0x0 DUP2 SWAP1 DUP1 PUSH1 0x1 DUP2 SLOAD ADD DUP1 DUP3 SSTORE DUP1 SWAP2 POP POP PUSH1 0x1 SWAP1 SUB SWAP1 PUSH1 0x0 MSTORE PUSH1 0x20 PUSH1 0x0 KECCAK256 ADD PUSH1 0x0 SWAP1 SWAP2 SWAP1 SWAP2 SWAP1 SWAP2 PUSH2 0x100 EXP DUP2 SLOAD DUP2 PUSH20 0xFFFFFFFFFFFFFFFFFFFFFFFFFFFFFFFFFFFFFFFF MUL NOT AND SWAP1 DUP4 PUSH20 0xFFFFFFFFFFFFFFFFFFFFFFFFFFFFFFFFFFFFFFFF AND MUL OR SWAP1 SSTORE POP PUSH32 0x14A8EC3FA88B43EE6D7A7A0E47E3468F408E39A1CF0BE757BB6C81B94E2FDB9E DUP2 CALLER PUSH1 0x40 MLOAD PUSH3 0xAE0 SWAP3 SWAP2 SWAP1 PUSH3 0x1704 JUMP JUMPDEST PUSH1 0x40 MLOAD DUP1 SWAP2 SUB SWAP1 LOG1 DUP1 SWAP2 POP POP SWAP7 SWAP6 POP POP POP POP POP POP JUMP JUMPDEST PUSH1 0x0 DUP1 DUP3 DUP2 SLOAD DUP2 LT PUSH3 0xB0E JUMPI PUSH3 0xB0D PUSH3 0x150A JUMP JUMPDEST JUMPDEST SWAP1 PUSH1 0x0 MSTORE PUSH1 0x20 PUSH1 0x0 KECCAK256 ADD PUSH1 0x0 SWAP1 SLOAD SWAP1 PUSH2 0x100 EXP SWAP1 DIV PUSH20 0xFFFFFFFFFFFFFFFFFFFFFFFFFFFFFFFFFFFFFFFF AND PUSH20 0xFFFFFFFFFFFFFFFFFFFFFFFFFFFFFFFFFFFFFFFF AND PUSH4 0x4CE9E6DE PUSH1 0x40 MLOAD DUP2 PUSH4 0xFFFFFFFF AND PUSH1 0xE0 SHL DUP2 MSTORE PUSH1 0x4 ADD PUSH1 0x20 PUSH1 0x40 MLOAD DUP1 DUP4 SUB DUP2 DUP7 GAS STATICCALL ISZERO DUP1 ISZERO PUSH3 0xB84 JUMPI RETURNDATASIZE PUSH1 0x0 DUP1 RETURNDATACOPY RETURNDATASIZE PUSH1 0x0 REVERT JUMPDEST POP POP POP POP PUSH1 0x40 MLOAD RETURNDATASIZE PUSH1 0x1F NOT PUSH1 0x1F DUP3 ADD AND DUP3 ADD DUP1 PUSH1 0x40 MSTORE POP DUP2 ADD SWAP1 PUSH3 0xBAA SWAP2 SWAP1 PUSH3 0x15C8 JUMP JUMPDEST SWAP1 POP SWAP2 SWAP1 POP JUMP JUMPDEST PUSH1 0x0 DUP1 DUP3 DUP2 SLOAD DUP2 LT PUSH3 0xBC9 JUMPI PUSH3 0xBC8 PUSH3 0x150A JUMP JUMPDEST JUMPDEST SWAP1 PUSH1 0x0 MSTORE PUSH1 0x20 PUSH1 0x0 KECCAK256 ADD PUSH1 0x0 SWAP1 SLOAD SWAP1 PUSH2 0x100 EXP SWAP1 DIV PUSH20 0xFFFFFFFFFFFFFFFFFFFFFFFFFFFFFFFFFFFFFFFF AND PUSH20 0xFFFFFFFFFFFFFFFFFFFFFFFFFFFFFFFFFFFFFFFF AND PUSH4 0xC24A0F8B PUSH1 0x40 MLOAD DUP2 PUSH4 0xFFFFFFFF AND PUSH1 0xE0 SHL DUP2 MSTORE PUSH1 0x4 ADD PUSH1 0x20 PUSH1 0x40 MLOAD DUP1 DUP4 SUB DUP2 DUP7 GAS STATICCALL ISZERO DUP1 ISZERO PUSH3 0xC3F JUMPI RETURNDATASIZE PUSH1 0x0 DUP1 RETURNDATACOPY RETURNDATASIZE PUSH1 0x0 REVERT JUMPDEST POP POP POP POP PUSH1 0x40 MLOAD RETURNDATASIZE PUSH1 0x1F NOT PUSH1 0x1F DUP3 ADD AND DUP3 ADD DUP1 PUSH1 0x40 MSTORE POP DUP2 ADD SWAP1 PUSH3 0xC65 SWAP2 SWAP1 PUSH3 0x1550 JUMP JUMPDEST SWAP1 POP SWAP2 SWAP1 POP JUMP JUMPDEST PUSH1 0x0 DUP2 DUP2 SLOAD DUP2 LT PUSH3 0xC7D JUMPI PUSH1 0x0 DUP1 REVERT JUMPDEST SWAP1 PUSH1 0x0 MSTORE PUSH1 0x20 PUSH1 0x0 KECCAK256 ADD PUSH1 0x0 SWAP2 POP SLOAD SWAP1 PUSH2 0x100 EXP SWAP1 DIV PUSH20 0xFFFFFFFFFFFFFFFFFFFFFFFFFFFFFFFFFFFFFFFF AND DUP2 JUMP JUMPDEST PUSH1 0x0 DUP1 DUP3 DUP2 SLOAD DUP2 LT PUSH3 0xCC4 JUMPI PUSH3 0xCC3 PUSH3 0x150A JUMP JUMPDEST JUMPDEST SWAP1 PUSH1 0x0 MSTORE PUSH1 0x20 PUSH1 0x0 KECCAK256 ADD PUSH1 0x0 SWAP1 SLOAD SWAP1 PUSH2 0x100 EXP SWAP1 DIV PUSH20 0xFFFFFFFFFFFFFFFFFFFFFFFFFFFFFFFFFFFFFFFF AND PUSH20 0xFFFFFFFFFFFFFFFFFFFFFFFFFFFFFFFFFFFFFFFF AND PUSH4 0xA7245B6E PUSH1 0x40 MLOAD DUP2 PUSH4 0xFFFFFFFF AND PUSH1 0xE0 SHL DUP2 MSTORE PUSH1 0x4 ADD PUSH1 0x20 PUSH1 0x40 MLOAD DUP1 DUP4 SUB DUP2 DUP7 GAS STATICCALL ISZERO DUP1 ISZERO PUSH3 0xD3A JUMPI RETURNDATASIZE PUSH1 0x0 DUP1 RETURNDATACOPY RETURNDATASIZE PUSH1 0x0 REVERT JUMPDEST POP POP POP POP PUSH1 0x40 MLOAD RETURNDATASIZE PUSH1 0x1F NOT PUSH1 0x1F DUP3 ADD AND DUP3 ADD DUP1 PUSH1 0x40 MSTORE POP DUP2 ADD SWAP1 PUSH3 0xD60 SWAP2 SWAP1 PUSH3 0x1550 JUMP JUMPDEST SWAP1 POP SWAP2 SWAP1 POP JUMP JUMPDEST PUSH1 0x60 PUSH1 0x0 DUP1 DUP1 SLOAD SWAP1 POP PUSH8 0xFFFFFFFFFFFFFFFF DUP2 GT ISZERO PUSH3 0xD8C JUMPI PUSH3 0xD8B PUSH3 0x1582 JUMP JUMPDEST JUMPDEST PUSH1 0x40 MLOAD SWAP1 DUP1 DUP3 MSTORE DUP1 PUSH1 0x20 MUL PUSH1 0x20 ADD DUP3 ADD PUSH1 0x40 MSTORE DUP1 ISZERO PUSH3 0xDBB JUMPI DUP2 PUSH1 0x20 ADD PUSH1 0x20 DUP3 MUL DUP1 CALLDATASIZE DUP4 CALLDATACOPY DUP1 DUP3 ADD SWAP2 POP POP SWAP1 POP JUMPDEST POP SWAP1 POP PUSH1 0x0 DUP1 JUMPDEST PUSH1 0x0 DUP1 SLOAD SWAP1 POP DUP2 LT ISZERO PUSH3 0xF00 JUMPI DUP5 PUSH20 0xFFFFFFFFFFFFFFFFFFFFFFFFFFFFFFFFFFFFFFFF AND PUSH1 0x0 DUP3 DUP2 SLOAD DUP2 LT PUSH3 0xDFE JUMPI PUSH3 0xDFD PUSH3 0x150A JUMP JUMPDEST JUMPDEST SWAP1 PUSH1 0x0 MSTORE PUSH1 0x20 PUSH1 0x0 KECCAK256 ADD PUSH1 0x0 SWAP1 SLOAD SWAP1 PUSH2 0x100 EXP SWAP1 DIV PUSH20 0xFFFFFFFFFFFFFFFFFFFFFFFFFFFFFFFFFFFFFFFF AND PUSH20 0xFFFFFFFFFFFFFFFFFFFFFFFFFFFFFFFFFFFFFFFF AND PUSH4 0x4CE9E6DE PUSH1 0x40 MLOAD DUP2 PUSH4 0xFFFFFFFF AND PUSH1 0xE0 SHL DUP2 MSTORE PUSH1 0x4 ADD PUSH1 0x20 PUSH1 0x40 MLOAD DUP1 DUP4 SUB DUP2 DUP7 GAS STATICCALL ISZERO DUP1 ISZERO PUSH3 0xE74 JUMPI RETURNDATASIZE PUSH1 0x0 DUP1 RETURNDATACOPY RETURNDATASIZE PUSH1 0x0 REVERT JUMPDEST POP POP POP POP PUSH1 0x40 MLOAD RETURNDATASIZE PUSH1 0x1F NOT PUSH1 0x1F DUP3 ADD AND DUP3 ADD DUP1 PUSH1 0x40 MSTORE POP DUP2 ADD SWAP1 PUSH3 0xE9A SWAP2 SWAP1 PUSH3 0x15C8 JUMP JUMPDEST PUSH20 0xFFFFFFFFFFFFFFFFFFFFFFFFFFFFFFFFFFFFFFFF AND SUB PUSH3 0xEEA JUMPI DUP1 DUP4 DUP4 DUP2 MLOAD DUP2 LT PUSH3 0xECD JUMPI PUSH3 0xECC PUSH3 0x150A JUMP JUMPDEST JUMPDEST PUSH1 0x20 MUL PUSH1 0x20 ADD ADD DUP2 DUP2 MSTORE POP POP DUP2 DUP1 PUSH3 0xEE6 SWAP1 PUSH3 0x1629 JUMP JUMPDEST SWAP3 POP POP JUMPDEST DUP1 DUP1 PUSH3 0xEF7 SWAP1 PUSH3 0x1629 JUMP JUMPDEST SWAP2 POP POP PUSH3 0xDC2 JUMP JUMPDEST POP DUP2 SWAP3 POP POP POP SWAP2 SWAP1 POP JUMP JUMPDEST PUSH1 0x0 DUP1 DUP3 DUP2 SLOAD DUP2 LT PUSH3 0xF23 JUMPI PUSH3 0xF22 PUSH3 0x150A JUMP JUMPDEST JUMPDEST SWAP1 PUSH1 0x0 MSTORE PUSH1 0x20 PUSH1 0x0 KECCAK256 ADD PUSH1 0x0 SWAP1 SLOAD SWAP1 PUSH2 0x100 EXP SWAP1 DIV PUSH20 0xFFFFFFFFFFFFFFFFFFFFFFFFFFFFFFFFFFFFFFFF AND PUSH20 0xFFFFFFFFFFFFFFFFFFFFFFFFFFFFFFFFFFFFFFFF AND PUSH4 0x6D5E7A15 PUSH1 0x40 MLOAD DUP2 PUSH4 0xFFFFFFFF AND PUSH1 0xE0 SHL DUP2 MSTORE PUSH1 0x4 ADD PUSH1 0x20 PUSH1 0x40 MLOAD DUP1 DUP4 SUB DUP2 DUP7 GAS STATICCALL ISZERO DUP1 ISZERO PUSH3 0xF99 JUMPI RETURNDATASIZE PUSH1 0x0 DUP1 RETURNDATACOPY RETURNDATASIZE PUSH1 0x0 REVERT JUMPDEST POP POP POP POP PUSH1 0x40 MLOAD RETURNDATASIZE PUSH1 0x1F NOT PUSH1 0x1F DUP3 ADD AND DUP3 ADD DUP1 PUSH1 0x40 MSTORE POP DUP2 ADD SWAP1 PUSH3 0xFBF SWAP2 SWAP1 PUSH3 0x1550 JUMP JUMPDEST SWAP1 POP SWAP2 SWAP1 POP JUMP JUMPDEST PUSH1 0x0 DUP1 DUP3 DUP2 SLOAD DUP2 LT PUSH3 0xFDE JUMPI PUSH3 0xFDD PUSH3 0x150A JUMP JUMPDEST JUMPDEST SWAP1 PUSH1 0x0 MSTORE PUSH1 0x20 PUSH1 0x0 KECCAK256 ADD PUSH1 0x0 SWAP1 SLOAD SWAP1 PUSH2 0x100 EXP SWAP1 DIV PUSH20 0xFFFFFFFFFFFFFFFFFFFFFFFFFFFFFFFFFFFFFFFF AND PUSH20 0xFFFFFFFFFFFFFFFFFFFFFFFFFFFFFFFFFFFFFFFF AND PUSH4 0xE6CDC708 PUSH1 0x40 MLOAD DUP2 PUSH4 0xFFFFFFFF AND PUSH1 0xE0 SHL DUP2 MSTORE PUSH1 0x4 ADD PUSH1 0x20 PUSH1 0x40 MLOAD DUP1 DUP4 SUB DUP2 DUP7 GAS STATICCALL ISZERO DUP1 ISZERO PUSH3 0x1054 JUMPI RETURNDATASIZE PUSH1 0x0 DUP1 RETURNDATACOPY RETURNDATASIZE PUSH1 0x0 REVERT JUMPDEST POP POP POP POP PUSH1 0x40 MLOAD RETURNDATASIZE PUSH1 0x1F NOT PUSH1 0x1F DUP3 ADD AND DUP3 ADD DUP1 PUSH1 0x40 MSTORE POP DUP2 ADD SWAP1 PUSH3 0x107A SWAP2 SWAP1 PUSH3 0x1550 JUMP JUMPDEST SWAP1 POP SWAP2 SWAP1 POP JUMP JUMPDEST PUSH1 0x0 DUP1 DUP3 DUP2 SLOAD DUP2 LT PUSH3 0x1099 JUMPI PUSH3 0x1098 PUSH3 0x150A JUMP JUMPDEST JUMPDEST SWAP1 PUSH1 0x0 MSTORE PUSH1 0x20 PUSH1 0x0 KECCAK256 ADD PUSH1 0x0 SWAP1 SLOAD SWAP1 PUSH2 0x100 EXP SWAP1 DIV PUSH20 0xFFFFFFFFFFFFFFFFFFFFFFFFFFFFFFFFFFFFFFFF AND PUSH20 0xFFFFFFFFFFFFFFFFFFFFFFFFFFFFFFFFFFFFFFFF AND PUSH4 0xBA12A5C5 PUSH1 0x40 MLOAD DUP2 PUSH4 0xFFFFFFFF AND PUSH1 0xE0 SHL DUP2 MSTORE PUSH1 0x4 ADD PUSH1 0x20 PUSH1 0x40 MLOAD DUP1 DUP4 SUB DUP2 DUP7 GAS STATICCALL ISZERO DUP1 ISZERO PUSH3 0x110F JUMPI RETURNDATASIZE PUSH1 0x0 DUP1 RETURNDATACOPY RETURNDATASIZE PUSH1 0x0 REVERT JUMPDEST POP POP POP POP PUSH1 0x40 MLOAD RETURNDATASIZE PUSH1 0x1F NOT PUSH1 0x1F DUP3 ADD AND DUP3 ADD DUP1 PUSH1 0x40 MSTORE POP DUP2 ADD SWAP1 PUSH3 0x1135 SWAP2 SWAP1 PUSH3 0x15C8 JUMP JUMPDEST SWAP1 POP SWAP2 SWAP1 POP JUMP JUMPDEST PUSH2 0x1570 DUP1 PUSH3 0x1732 DUP4 CODECOPY ADD SWAP1 JUMP JUMPDEST PUSH1 0x0 DUP1 REVERT JUMPDEST PUSH1 0x0 DUP2 SWAP1 POP SWAP2 SWAP1 POP JUMP JUMPDEST PUSH3 0x1164 DUP2 PUSH3 0x114F JUMP JUMPDEST DUP2 EQ PUSH3 0x1170 JUMPI PUSH1 0x0 DUP1 REVERT JUMPDEST POP JUMP JUMPDEST PUSH1 0x0 DUP2 CALLDATALOAD SWAP1 POP PUSH3 0x1184 DUP2 PUSH3 0x1159 JUMP JUMPDEST SWAP3 SWAP2 POP POP JUMP JUMPDEST PUSH1 0x0 PUSH1 0x20 DUP3 DUP5 SUB SLT ISZERO PUSH3 0x11A3 JUMPI PUSH3 0x11A2 PUSH3 0x114A JUMP JUMPDEST JUMPDEST PUSH1 0x0 PUSH3 0x11B3 DUP5 DUP3 DUP6 ADD PUSH3 0x1173 JUMP JUMPDEST SWAP2 POP POP SWAP3 SWAP2 POP POP JUMP JUMPDEST PUSH3 0x11C7 DUP2 PUSH3 0x114F JUMP JUMPDEST DUP3 MSTORE POP POP JUMP JUMPDEST PUSH1 0x0 PUSH1 0x20 DUP3 ADD SWAP1 POP PUSH3 0x11E4 PUSH1 0x0 DUP4 ADD DUP5 PUSH3 0x11BC JUMP JUMPDEST SWAP3 SWAP2 POP POP JUMP JUMPDEST PUSH1 0x0 PUSH20 0xFFFFFFFFFFFFFFFFFFFFFFFFFFFFFFFFFFFFFFFF DUP3 AND SWAP1 POP SWAP2 SWAP1 POP JUMP JUMPDEST PUSH1 0x0 PUSH3 0x1217 DUP3 PUSH3 0x11EA JUMP JUMPDEST SWAP1 POP SWAP2 SWAP1 POP JUMP JUMPDEST PUSH3 0x1229 DUP2 PUSH3 0x120A JUMP JUMPDEST DUP2 EQ PUSH3 0x1235 JUMPI PUSH1 0x0 DUP1 REVERT JUMPDEST POP JUMP JUMPDEST PUSH1 0x0 DUP2 CALLDATALOAD SWAP1 POP PUSH3 0x1249 DUP2 PUSH3 0x121E JUMP JUMPDEST SWAP3 SWAP2 POP POP JUMP JUMPDEST PUSH1 0x0 PUSH1 0x20 DUP3 DUP5 SUB SLT ISZERO PUSH3 0x1268 JUMPI PUSH3 0x1267 PUSH3 0x114A JUMP JUMPDEST JUMPDEST PUSH1 0x0 PUSH3 0x1278 DUP5 DUP3 DUP6 ADD PUSH3 0x1238 JUMP JUMPDEST SWAP2 POP POP SWAP3 SWAP2 POP POP JUMP JUMPDEST PUSH1 0x0 DUP2 MLOAD SWAP1 POP SWAP2 SWAP1 POP JUMP JUMPDEST PUSH1 0x0 DUP3 DUP3 MSTORE PUSH1 0x20 DUP3 ADD SWAP1 POP SWAP3 SWAP2 POP POP JUMP JUMPDEST PUSH1 0x0 DUP2 SWAP1 POP PUSH1 0x20 DUP3 ADD SWAP1 POP SWAP2 SWAP1 POP JUMP JUMPDEST PUSH3 0x12B8 DUP2 PUSH3 0x114F JUMP JUMPDEST DUP3 MSTORE POP POP JUMP JUMPDEST PUSH1 0x0 PUSH3 0x12CC DUP4 DUP4 PUSH3 0x12AD JUMP JUMPDEST PUSH1 0x20 DUP4 ADD SWAP1 POP SWAP3 SWAP2 POP POP JUMP JUMPDEST PUSH1 0x0 PUSH1 0x20 DUP3 ADD SWAP1 POP SWAP2 SWAP1 POP JUMP JUMPDEST PUSH1 0x0 PUSH3 0x12F2 DUP3 PUSH3 0x1281 JUMP JUMPDEST PUSH3 0x12FE DUP2 DUP6 PUSH3 0x128C JUMP JUMPDEST SWAP4 POP PUSH3 0x130B DUP4 PUSH3 0x129D JUMP JUMPDEST DUP1 PUSH1 0x0 JUMPDEST DUP4 DUP2 LT ISZERO PUSH3 0x1342 JUMPI DUP2 MLOAD PUSH3 0x1326 DUP9 DUP3 PUSH3 0x12BE JUMP JUMPDEST SWAP8 POP PUSH3 0x1333 DUP4 PUSH3 0x12D8 JUMP JUMPDEST SWAP3 POP POP PUSH1 0x1 DUP2 ADD SWAP1 POP PUSH3 0x130F JUMP JUMPDEST POP DUP6 SWAP4 POP POP POP POP SWAP3 SWAP2 POP POP JUMP JUMPDEST PUSH1 0x0 PUSH1 0x20 DUP3 ADD SWAP1 POP DUP2 DUP2 SUB PUSH1 0x0 DUP4 ADD MSTORE PUSH3 0x136B DUP2 DUP5 PUSH3 0x12E5 JUMP JUMPDEST SWAP1 POP SWAP3 SWAP2 POP POP JUMP JUMPDEST PUSH1 0x0 PUSH3 0x1380 DUP3 PUSH3 0x11EA JUMP JUMPDEST SWAP1 POP SWAP2 SWAP1 POP JUMP JUMPDEST PUSH3 0x1392 DUP2 PUSH3 0x1373 JUMP JUMPDEST DUP2 EQ PUSH3 0x139E JUMPI PUSH1 0x0 DUP1 REVERT JUMPDEST POP JUMP JUMPDEST PUSH1 0x0 DUP2 CALLDATALOAD SWAP1 POP PUSH3 0x13B2 DUP2 PUSH3 0x1387 JUMP JUMPDEST SWAP3 SWAP2 POP POP JUMP JUMPDEST PUSH1 0x0 DUP1 PUSH1 0x0 DUP1 PUSH1 0x0 DUP1 PUSH1 0xC0 DUP8 DUP10 SUB SLT ISZERO PUSH3 0x13D8 JUMPI PUSH3 0x13D7 PUSH3 0x114A JUMP JUMPDEST JUMPDEST PUSH1 0x0 PUSH3 0x13E8 DUP10 DUP3 DUP11 ADD PUSH3 0x13A1 JUMP JUMPDEST SWAP7 POP POP PUSH1 0x20 PUSH3 0x13FB DUP10 DUP3 DUP11 ADD PUSH3 0x1173 JUMP JUMPDEST SWAP6 POP POP PUSH1 0x40 PUSH3 0x140E DUP10 DUP3 DUP11 ADD PUSH3 0x1173 JUMP JUMPDEST SWAP5 POP POP PUSH1 0x60 PUSH3 0x1421 DUP10 DUP3 DUP11 ADD PUSH3 0x1173 JUMP JUMPDEST SWAP4 POP POP PUSH1 0x80 PUSH3 0x1434 DUP10 DUP3 DUP11 ADD PUSH3 0x1173 JUMP JUMPDEST SWAP3 POP POP PUSH1 0xA0 PUSH3 0x1447 DUP10 DUP3 DUP11 ADD PUSH3 0x1173 JUMP JUMPDEST SWAP2 POP POP SWAP3 SWAP6 POP SWAP3 SWAP6 POP SWAP3 SWAP6 JUMP JUMPDEST PUSH3 0x145F DUP2 PUSH3 0x120A JUMP JUMPDEST DUP3 MSTORE POP POP JUMP JUMPDEST PUSH1 0x0 PUSH1 0x20 DUP3 ADD SWAP1 POP PUSH3 0x147C PUSH1 0x0 DUP4 ADD DUP5 PUSH3 0x1454 JUMP JUMPDEST SWAP3 SWAP2 POP POP JUMP JUMPDEST PUSH1 0x0 DUP2 SWAP1 POP SWAP2 SWAP1 POP JUMP JUMPDEST PUSH1 0x0 PUSH3 0x14AD PUSH3 0x14A7 PUSH3 0x14A1 DUP5 PUSH3 0x11EA JUMP JUMPDEST PUSH3 0x1482 JUMP JUMPDEST PUSH3 0x11EA JUMP JUMPDEST SWAP1 POP SWAP2 SWAP1 POP JUMP JUMPDEST PUSH1 0x0 PUSH3 0x14C1 DUP3 PUSH3 0x148C JUMP JUMPDEST SWAP1 POP SWAP2 SWAP1 POP JUMP JUMPDEST PUSH1 0x0 PUSH3 0x14D5 DUP3 PUSH3 0x14B4 JUMP JUMPDEST SWAP1 POP SWAP2 SWAP1 POP JUMP JUMPDEST PUSH3 0x14E7 DUP2 PUSH3 0x14C8 JUMP JUMPDEST DUP3 MSTORE POP POP JUMP JUMPDEST PUSH1 0x0 PUSH1 0x20 DUP3 ADD SWAP1 POP PUSH3 0x1504 PUSH1 0x0 DUP4 ADD DUP5 PUSH3 0x14DC JUMP JUMPDEST SWAP3 SWAP2 POP POP JUMP JUMPDEST PUSH32 0x4E487B7100000000000000000000000000000000000000000000000000000000 PUSH1 0x0 MSTORE PUSH1 0x32 PUSH1 0x4 MSTORE PUSH1 0x24 PUSH1 0x0 REVERT JUMPDEST PUSH1 0x0 DUP2 MLOAD SWAP1 POP PUSH3 0x154A DUP2 PUSH3 0x1159 JUMP JUMPDEST SWAP3 SWAP2 POP POP JUMP JUMPDEST PUSH1 0x0 PUSH1 0x20 DUP3 DUP5 SUB SLT ISZERO PUSH3 0x1569 JUMPI PUSH3 0x1568 PUSH3 0x114A JUMP JUMPDEST JUMPDEST PUSH1 0x0 PUSH3 0x1579 DUP5 DUP3 DUP6 ADD PUSH3 0x1539 JUMP JUMPDEST SWAP2 POP POP SWAP3 SWAP2 POP POP JUMP JUMPDEST PUSH32 0x4E487B7100000000000000000000000000000000000000000000000000000000 PUSH1 0x0 MSTORE PUSH1 0x41 PUSH1 0x4 MSTORE PUSH1 0x24 PUSH1 0x0 REVERT JUMPDEST PUSH1 0x0 DUP2 MLOAD SWAP1 POP PUSH3 0x15C2 DUP2 PUSH3 0x121E JUMP JUMPDEST SWAP3 SWAP2 POP POP JUMP JUMPDEST PUSH1 0x0 PUSH1 0x20 DUP3 DUP5 SUB SLT ISZERO PUSH3 0x15E1 JUMPI PUSH3 0x15E0 PUSH3 0x114A JUMP JUMPDEST JUMPDEST PUSH1 0x0 PUSH3 0x15F1 DUP5 DUP3 DUP6 ADD PUSH3 0x15B1 JUMP JUMPDEST SWAP2 POP POP SWAP3 SWAP2 POP POP JUMP JUMPDEST PUSH32 0x4E487B7100000000000000000000000000000000000000000000000000000000 PUSH1 0x0 MSTORE PUSH1 0x11 PUSH1 0x4 MSTORE PUSH1 0x24 PUSH1 0x0 REVERT JUMPDEST PUSH1 0x0 PUSH3 0x1636 DUP3 PUSH3 0x114F JUMP JUMPDEST SWAP2 POP PUSH32 0xFFFFFFFFFFFFFFFFFFFFFFFFFFFFFFFFFFFFFFFFFFFFFFFFFFFFFFFFFFFFFFFF DUP3 SUB PUSH3 0x166B JUMPI PUSH3 0x166A PUSH3 0x15FA JUMP JUMPDEST JUMPDEST PUSH1 0x1 DUP3 ADD SWAP1 POP SWAP2 SWAP1 POP JUMP JUMPDEST PUSH3 0x1681 DUP2 PUSH3 0x1373 JUMP JUMPDEST DUP3 MSTORE POP POP JUMP JUMPDEST PUSH1 0x0 PUSH1 0xE0 DUP3 ADD SWAP1 POP PUSH3 0x169E PUSH1 0x0 DUP4 ADD DUP11 PUSH3 0x1676 JUMP JUMPDEST PUSH3 0x16AD PUSH1 0x20 DUP4 ADD DUP10 PUSH3 0x1676 JUMP JUMPDEST PUSH3 0x16BC PUSH1 0x40 DUP4 ADD DUP9 PUSH3 0x11BC JUMP JUMPDEST PUSH3 0x16CB PUSH1 0x60 DUP4 ADD DUP8 PUSH3 0x11BC JUMP JUMPDEST PUSH3 0x16DA PUSH1 0x80 DUP4 ADD DUP7 PUSH3 0x11BC JUMP JUMPDEST PUSH3 0x16E9 PUSH1 0xA0 DUP4 ADD DUP6 PUSH3 0x11BC JUMP JUMPDEST PUSH3 0x16F8 PUSH1 0xC0 DUP4 ADD DUP5 PUSH3 0x11BC JUMP JUMPDEST SWAP9 SWAP8 POP POP POP POP POP POP POP POP JUMP JUMPDEST PUSH1 0x0 PUSH1 0x40 DUP3 ADD SWAP1 POP PUSH3 0x171B PUSH1 0x0 DUP4 ADD DUP6 PUSH3 0x1454 JUMP JUMPDEST PUSH3 0x172A PUSH1 0x20 DUP4 ADD DUP5 PUSH3 0x1454 JUMP JUMPDEST SWAP4 SWAP3 POP POP POP JUMP INVALID PUSH1 0x80 PUSH1 0x40 MSTORE CALLVALUE DUP1 ISZERO PUSH3 0x11 JUMPI PUSH1 0x0 DUP1 REVERT JUMPDEST POP PUSH1 0x40 MLOAD PUSH3 0x1570 CODESIZE SUB DUP1 PUSH3 0x1570 DUP4 CODECOPY DUP2 DUP2 ADD PUSH1 0x40 MSTORE DUP2 ADD SWAP1 PUSH3 0x37 SWAP2 SWAP1 PUSH3 0x196 JUMP JUMPDEST PUSH1 0x1 PUSH1 0x0 DUP2 SWAP1 SSTORE POP DUP7 PUSH1 0x1 PUSH1 0x0 PUSH2 0x100 EXP DUP2 SLOAD DUP2 PUSH20 0xFFFFFFFFFFFFFFFFFFFFFFFFFFFFFFFFFFFFFFFF MUL NOT AND SWAP1 DUP4 PUSH20 0xFFFFFFFFFFFFFFFFFFFFFFFFFFFFFFFFFFFFFFFF AND MUL OR SWAP1 SSTORE POP DUP6 PUSH1 0x2 PUSH1 0x0 PUSH2 0x100 EXP DUP2 SLOAD DUP2 PUSH20 0xFFFFFFFFFFFFFFFFFFFFFFFFFFFFFFFFFFFFFFFF MUL NOT AND SWAP1 DUP4 PUSH20 0xFFFFFFFFFFFFFFFFFFFFFFFFFFFFFFFFFFFFFFFF AND MUL OR SWAP1 SSTORE POP DUP5 PUSH1 0x6 DUP2 SWAP1 SSTORE POP DUP4 PUSH1 0x7 DUP2 SWAP1 SSTORE POP DUP3 PUSH1 0x8 DUP2 SWAP1 SSTORE POP DUP2 PUSH1 0x9 DUP2 SWAP1 SSTORE POP DUP1 PUSH1 0xA DUP2 SWAP1 SSTORE POP POP POP POP POP POP POP POP PUSH3 0x249 JUMP JUMPDEST PUSH1 0x0 DUP1 REVERT JUMPDEST PUSH1 0x0 PUSH20 0xFFFFFFFFFFFFFFFFFFFFFFFFFFFFFFFFFFFFFFFF DUP3 AND SWAP1 POP SWAP2 SWAP1 POP JUMP JUMPDEST PUSH1 0x0 PUSH3 0x123 DUP3 PUSH3 0xF6 JUMP JUMPDEST SWAP1 POP SWAP2 SWAP1 POP JUMP JUMPDEST PUSH3 0x135 DUP2 PUSH3 0x116 JUMP JUMPDEST DUP2 EQ PUSH3 0x141 JUMPI PUSH1 0x0 DUP1 REVERT JUMPDEST POP JUMP JUMPDEST PUSH1 0x0 DUP2 MLOAD SWAP1 POP PUSH3 0x155 DUP2 PUSH3 0x12A JUMP JUMPDEST SWAP3 SWAP2 POP POP JUMP JUMPDEST PUSH1 0x0 DUP2 SWAP1 POP SWAP2 SWAP1 POP JUMP JUMPDEST PUSH3 0x170 DUP2 PUSH3 0x15B JUMP JUMPDEST DUP2 EQ PUSH3 0x17C JUMPI PUSH1 0x0 DUP1 REVERT JUMPDEST POP JUMP JUMPDEST PUSH1 0x0 DUP2 MLOAD SWAP1 POP PUSH3 0x190 DUP2 PUSH3 0x165 JUMP JUMPDEST SWAP3 SWAP2 POP POP JUMP JUMPDEST PUSH1 0x0 DUP1 PUSH1 0x0 DUP1 PUSH1 0x0 DUP1 PUSH1 0x0 PUSH1 0xE0 DUP9 DUP11 SUB SLT ISZERO PUSH3 0x1B8 JUMPI PUSH3 0x1B7 PUSH3 0xF1 JUMP JUMPDEST JUMPDEST PUSH1 0x0 PUSH3 0x1C8 DUP11 DUP3 DUP12 ADD PUSH3 0x144 JUMP JUMPDEST SWAP8 POP POP PUSH1 0x20 PUSH3 0x1DB DUP11 DUP3 DUP12 ADD PUSH3 0x144 JUMP JUMPDEST SWAP7 POP POP PUSH1 0x40 PUSH3 0x1EE DUP11 DUP3 DUP12 ADD PUSH3 0x17F JUMP JUMPDEST SWAP6 POP POP PUSH1 0x60 PUSH3 0x201 DUP11 DUP3 DUP12 ADD PUSH3 0x17F JUMP JUMPDEST SWAP5 POP POP PUSH1 0x80 PUSH3 0x214 DUP11 DUP3 DUP12 ADD PUSH3 0x17F JUMP JUMPDEST SWAP4 POP POP PUSH1 0xA0 PUSH3 0x227 DUP11 DUP3 DUP12 ADD PUSH3 0x17F JUMP JUMPDEST SWAP3 POP POP PUSH1 0xC0 PUSH3 0x23A DUP11 DUP3 DUP12 ADD PUSH3 0x17F JUMP JUMPDEST SWAP2 POP POP SWAP3 SWAP6 SWAP9 SWAP2 SWAP5 SWAP8 POP SWAP3 SWAP6 POP JUMP JUMPDEST PUSH2 0x1317 DUP1 PUSH3 0x259 PUSH1 0x0 CODECOPY PUSH1 0x0 RETURN INVALID PUSH1 0x80 PUSH1 0x40 MSTORE PUSH1 0x4 CALLDATASIZE LT PUSH2 0x118 JUMPI PUSH1 0x0 CALLDATALOAD PUSH1 0xE0 SHR DUP1 PUSH4 0x867A06B3 GT PUSH2 0xA0 JUMPI DUP1 PUSH4 0xC24A0F8B GT PUSH2 0x64 JUMPI DUP1 PUSH4 0xC24A0F8B EQ PUSH2 0x436 JUMPI DUP1 PUSH4 0xD0BF21FD EQ PUSH2 0x461 JUMPI DUP1 PUSH4 0xDB292621 EQ PUSH2 0x48C JUMPI DUP1 PUSH4 0xE6CDC708 EQ PUSH2 0x4B7 JUMPI DUP1 PUSH4 0xF340FA01 EQ PUSH2 0x4E2 JUMPI PUSH2 0x184 JUMP JUMPDEST DUP1 PUSH4 0x867A06B3 EQ PUSH2 0x35F JUMPI DUP1 PUSH4 0x8B7AFE2E EQ PUSH2 0x38A JUMPI DUP1 PUSH4 0x99DC2DF3 EQ PUSH2 0x3B5 JUMPI DUP1 PUSH4 0xA7245B6E EQ PUSH2 0x3E0 JUMPI DUP1 PUSH4 0xBA12A5C5 EQ PUSH2 0x40B JUMPI PUSH2 0x184 JUMP JUMPDEST DUP1 PUSH4 0x4680DD2F GT PUSH2 0xE7 JUMPI DUP1 PUSH4 0x4680DD2F EQ PUSH2 0x297 JUMPI DUP1 PUSH4 0x4CE9E6DE EQ PUSH2 0x2C2 JUMPI DUP1 PUSH4 0x51CFF8D9 EQ PUSH2 0x2ED JUMPI DUP1 PUSH4 0x69CF1E90 EQ PUSH2 0x309 JUMPI DUP1 PUSH4 0x6D5E7A15 EQ PUSH2 0x334 JUMPI PUSH2 0x184 JUMP JUMPDEST DUP1 PUSH4 0x220E5AB3 EQ PUSH2 0x1EB JUMPI DUP1 PUSH4 0x31658E32 EQ PUSH2 0x216 JUMPI DUP1 PUSH4 0x36359265 EQ PUSH2 0x241 JUMPI DUP1 PUSH4 0x4644803F EQ PUSH2 0x26C JUMPI PUSH2 0x184 JUMP JUMPDEST CALLDATASIZE PUSH2 0x184 JUMPI CALLER PUSH20 0xFFFFFFFFFFFFFFFFFFFFFFFFFFFFFFFFFFFFFFFF AND ADDRESS PUSH20 0xFFFFFFFFFFFFFFFFFFFFFFFFFFFFFFFFFFFFFFFF AND PUSH32 0x5548C837AB068CF56A2C2479DF0882A4922FD203EDB7517321831D95078C5F62 CALLVALUE PUSH1 0x40 MLOAD PUSH2 0x17A SWAP2 SWAP1 PUSH2 0xE16 JUMP JUMPDEST PUSH1 0x40 MLOAD DUP1 SWAP2 SUB SWAP1 LOG3 STOP JUMPDEST CALLER PUSH20 0xFFFFFFFFFFFFFFFFFFFFFFFFFFFFFFFFFFFFFFFF AND ADDRESS PUSH20 0xFFFFFFFFFFFFFFFFFFFFFFFFFFFFFFFFFFFFFFFF AND PUSH32 0x5548C837AB068CF56A2C2479DF0882A4922FD203EDB7517321831D95078C5F62 CALLVALUE PUSH1 0x40 MLOAD PUSH2 0x1E1 SWAP2 SWAP1 PUSH2 0xE16 JUMP JUMPDEST PUSH1 0x40 MLOAD DUP1 SWAP2 SUB SWAP1 LOG3 STOP JUMPDEST CALLVALUE DUP1 ISZERO PUSH2 0x1F7 JUMPI PUSH1 0x0 DUP1 REVERT JUMPDEST POP PUSH2 0x200 PUSH2 0x4FE JUMP JUMPDEST PUSH1 0x40 MLOAD PUSH2 0x20D SWAP2 SWAP1 PUSH2 0xE16 JUMP JUMPDEST PUSH1 0x40 MLOAD DUP1 SWAP2 SUB SWAP1 RETURN JUMPDEST CALLVALUE DUP1 ISZERO PUSH2 0x222 JUMPI PUSH1 0x0 DUP1 REVERT JUMPDEST POP PUSH2 0x22B PUSH2 0x504 JUMP JUMPDEST PUSH1 0x40 MLOAD PUSH2 0x238 SWAP2 SWAP1 PUSH2 0xE16 JUMP JUMPDEST PUSH1 0x40 MLOAD DUP1 SWAP2 SUB SWAP1 RETURN JUMPDEST CALLVALUE DUP1 ISZERO PUSH2 0x24D JUMPI PUSH1 0x0 DUP1 REVERT JUMPDEST POP PUSH2 0x256 PUSH2 0x50E JUMP JUMPDEST PUSH1 0x40 MLOAD PUSH2 0x263 SWAP2 SWAP1 PUSH2 0xE16 JUMP JUMPDEST PUSH1 0x40 MLOAD DUP1 SWAP2 SUB SWAP1 RETURN JUMPDEST CALLVALUE DUP1 ISZERO PUSH2 0x278 JUMPI PUSH1 0x0 DUP1 REVERT JUMPDEST POP PUSH2 0x281 PUSH2 0x518 JUMP JUMPDEST PUSH1 0x40 MLOAD PUSH2 0x28E SWAP2 SWAP1 PUSH2 0xE16 JUMP JUMPDEST PUSH1 0x40 MLOAD DUP1 SWAP2 SUB SWAP1 RETURN JUMPDEST CALLVALUE DUP1 ISZERO PUSH2 0x2A3 JUMPI PUSH1 0x0 DUP1 REVERT JUMPDEST POP PUSH2 0x2AC PUSH2 0x522 JUMP JUMPDEST PUSH1 0x40 MLOAD PUSH2 0x2B9 SWAP2 SWAP1 PUSH2 0xE16 JUMP JUMPDEST PUSH1 0x40 MLOAD DUP1 SWAP2 SUB SWAP1 RETURN JUMPDEST CALLVALUE DUP1 ISZERO PUSH2 0x2CE JUMPI PUSH1 0x0 DUP1 REVERT JUMPDEST POP PUSH2 0x2D7 PUSH2 0x52C JUMP JUMPDEST PUSH1 0x40 MLOAD PUSH2 0x2E4 SWAP2 SWAP1 PUSH2 0xE72 JUMP JUMPDEST PUSH1 0x40 MLOAD DUP1 SWAP2 SUB SWAP1 RETURN JUMPDEST PUSH2 0x307 PUSH1 0x4 DUP1 CALLDATASIZE SUB DUP2 ADD SWAP1 PUSH2 0x302 SWAP2 SWAP1 PUSH2 0xEBE JUMP JUMPDEST PUSH2 0x556 JUMP JUMPDEST STOP JUMPDEST CALLVALUE DUP1 ISZERO PUSH2 0x315 JUMPI PUSH1 0x0 DUP1 REVERT JUMPDEST POP PUSH2 0x31E PUSH2 0xB53 JUMP JUMPDEST PUSH1 0x40 MLOAD PUSH2 0x32B SWAP2 SWAP1 PUSH2 0xE16 JUMP JUMPDEST PUSH1 0x40 MLOAD DUP1 SWAP2 SUB SWAP1 RETURN JUMPDEST CALLVALUE DUP1 ISZERO PUSH2 0x340 JUMPI PUSH1 0x0 DUP1 REVERT JUMPDEST POP PUSH2 0x349 PUSH2 0xB5D JUMP JUMPDEST PUSH1 0x40 MLOAD PUSH2 0x356 SWAP2 SWAP1 PUSH2 0xE16 JUMP JUMPDEST PUSH1 0x40 MLOAD DUP1 SWAP2 SUB SWAP1 RETURN JUMPDEST CALLVALUE DUP1 ISZERO PUSH2 0x36B JUMPI PUSH1 0x0 DUP1 REVERT JUMPDEST POP PUSH2 0x374 PUSH2 0xB63 JUMP JUMPDEST PUSH1 0x40 MLOAD PUSH2 0x381 SWAP2 SWAP1 PUSH2 0xE16 JUMP JUMPDEST PUSH1 0x40 MLOAD DUP1 SWAP2 SUB SWAP1 RETURN JUMPDEST CALLVALUE DUP1 ISZERO PUSH2 0x396 JUMPI PUSH1 0x0 DUP1 REVERT JUMPDEST POP PUSH2 0x39F PUSH2 0xB69 JUMP JUMPDEST PUSH1 0x40 MLOAD PUSH2 0x3AC SWAP2 SWAP1 PUSH2 0xE16 JUMP JUMPDEST PUSH1 0x40 MLOAD DUP1 SWAP2 SUB SWAP1 RETURN JUMPDEST CALLVALUE DUP1 ISZERO PUSH2 0x3C1 JUMPI PUSH1 0x0 DUP1 REVERT JUMPDEST POP PUSH2 0x3CA PUSH2 0xB6F JUMP JUMPDEST PUSH1 0x40 MLOAD PUSH2 0x3D7 SWAP2 SWAP1 PUSH2 0xE16 JUMP JUMPDEST PUSH1 0x40 MLOAD DUP1 SWAP2 SUB SWAP1 RETURN JUMPDEST CALLVALUE DUP1 ISZERO PUSH2 0x3EC JUMPI PUSH1 0x0 DUP1 REVERT JUMPDEST POP PUSH2 0x3F5 PUSH2 0xB75 JUMP JUMPDEST PUSH1 0x40 MLOAD PUSH2 0x402 SWAP2 SWAP1 PUSH2 0xE16 JUMP JUMPDEST PUSH1 0x40 MLOAD DUP1 SWAP2 SUB SWAP1 RETURN JUMPDEST CALLVALUE DUP1 ISZERO PUSH2 0x417 JUMPI PUSH1 0x0 DUP1 REVERT JUMPDEST POP PUSH2 0x420 PUSH2 0xB7B JUMP JUMPDEST PUSH1 0x40 MLOAD PUSH2 0x42D SWAP2 SWAP1 PUSH2 0xE72 JUMP JUMPDEST PUSH1 0x40 MLOAD DUP1 SWAP2 SUB SWAP1 RETURN JUMPDEST CALLVALUE DUP1 ISZERO PUSH2 0x442 JUMPI PUSH1 0x0 DUP1 REVERT JUMPDEST POP PUSH2 0x44B PUSH2 0xBA5 JUMP JUMPDEST PUSH1 0x40 MLOAD PUSH2 0x458 SWAP2 SWAP1 PUSH2 0xE16 JUMP JUMPDEST PUSH1 0x40 MLOAD DUP1 SWAP2 SUB SWAP1 RETURN JUMPDEST CALLVALUE DUP1 ISZERO PUSH2 0x46D JUMPI PUSH1 0x0 DUP1 REVERT JUMPDEST POP PUSH2 0x476 PUSH2 0xBAB JUMP JUMPDEST PUSH1 0x40 MLOAD PUSH2 0x483 SWAP2 SWAP1 PUSH2 0xE16 JUMP JUMPDEST PUSH1 0x40 MLOAD DUP1 SWAP2 SUB SWAP1 RETURN JUMPDEST CALLVALUE DUP1 ISZERO PUSH2 0x498 JUMPI PUSH1 0x0 DUP1 REVERT JUMPDEST POP PUSH2 0x4A1 PUSH2 0xBB5 JUMP JUMPDEST PUSH1 0x40 MLOAD PUSH2 0x4AE SWAP2 SWAP1 PUSH2 0xE16 JUMP JUMPDEST PUSH1 0x40 MLOAD DUP1 SWAP2 SUB SWAP1 RETURN JUMPDEST CALLVALUE DUP1 ISZERO PUSH2 0x4C3 JUMPI PUSH1 0x0 DUP1 REVERT JUMPDEST POP PUSH2 0x4CC PUSH2 0xBBF JUMP JUMPDEST PUSH1 0x40 MLOAD PUSH2 0x4D9 SWAP2 SWAP1 PUSH2 0xE16 JUMP JUMPDEST PUSH1 0x40 MLOAD DUP1 SWAP2 SUB SWAP1 RETURN JUMPDEST PUSH2 0x4FC PUSH1 0x4 DUP1 CALLDATASIZE SUB DUP2 ADD SWAP1 PUSH2 0x4F7 SWAP2 SWAP1 PUSH2 0xEBE JUMP JUMPDEST PUSH2 0xBC5 JUMP JUMPDEST STOP JUMPDEST PUSH1 0x6 SLOAD DUP2 JUMP JUMPDEST PUSH1 0x0 PUSH1 0xA SLOAD SWAP1 POP SWAP1 JUMP JUMPDEST PUSH1 0x0 PUSH1 0x9 SLOAD SWAP1 POP SWAP1 JUMP JUMPDEST PUSH1 0x0 PUSH1 0x4 SLOAD SWAP1 POP SWAP1 JUMP JUMPDEST PUSH1 0x0 PUSH1 0x5 SLOAD SWAP1 POP SWAP1 JUMP JUMPDEST PUSH1 0x0 PUSH1 0x2 PUSH1 0x0 SWAP1 SLOAD SWAP1 PUSH2 0x100 EXP SWAP1 DIV PUSH20 0xFFFFFFFFFFFFFFFFFFFFFFFFFFFFFFFFFFFFFFFF AND SWAP1 POP SWAP1 JUMP JUMPDEST PUSH2 0x55E PUSH2 0xDA4 JUMP JUMPDEST PUSH1 0x0 SELFBALANCE SUB PUSH2 0x5A1 JUMPI PUSH1 0x40 MLOAD PUSH32 0x8C379A000000000000000000000000000000000000000000000000000000000 DUP2 MSTORE PUSH1 0x4 ADD PUSH2 0x598 SWAP1 PUSH2 0xF48 JUMP JUMPDEST PUSH1 0x40 MLOAD DUP1 SWAP2 SUB SWAP1 REVERT JUMPDEST PUSH1 0x9 SLOAD TIMESTAMP LT PUSH2 0x5E5 JUMPI PUSH1 0x40 MLOAD PUSH32 0x8C379A000000000000000000000000000000000000000000000000000000000 DUP2 MSTORE PUSH1 0x4 ADD PUSH2 0x5DC SWAP1 PUSH2 0xFB4 JUMP JUMPDEST PUSH1 0x40 MLOAD DUP1 SWAP2 SUB SWAP1 REVERT JUMPDEST PUSH1 0x7 SLOAD PUSH1 0x4 SLOAD GT DUP1 ISZERO PUSH2 0x5F9 JUMPI POP PUSH1 0x9 SLOAD TIMESTAMP GT JUMPDEST DUP1 ISZERO PUSH2 0x621 JUMPI POP PUSH3 0x15180 PUSH1 0xA SLOAD PUSH2 0x611 SWAP2 SWAP1 PUSH2 0x1003 JUMP JUMPDEST PUSH1 0x9 SLOAD PUSH2 0x61E SWAP2 SWAP1 PUSH2 0x1045 JUMP JUMPDEST TIMESTAMP LT JUMPDEST ISZERO PUSH2 0x724 JUMPI DUP1 PUSH20 0xFFFFFFFFFFFFFFFFFFFFFFFFFFFFFFFFFFFFFFFF AND PUSH1 0x1 PUSH1 0x0 SWAP1 SLOAD SWAP1 PUSH2 0x100 EXP SWAP1 DIV PUSH20 0xFFFFFFFFFFFFFFFFFFFFFFFFFFFFFFFFFFFFFFFF AND PUSH20 0xFFFFFFFFFFFFFFFFFFFFFFFFFFFFFFFFFFFFFFFF AND EQ PUSH2 0x6B6 JUMPI PUSH1 0x40 MLOAD PUSH32 0x8C379A000000000000000000000000000000000000000000000000000000000 DUP2 MSTORE PUSH1 0x4 ADD PUSH2 0x6AD SWAP1 PUSH2 0x10C5 JUMP JUMPDEST PUSH1 0x40 MLOAD DUP1 SWAP2 SUB SWAP1 REVERT JUMPDEST PUSH1 0x1 PUSH1 0x0 SWAP1 SLOAD SWAP1 PUSH2 0x100 EXP SWAP1 DIV PUSH20 0xFFFFFFFFFFFFFFFFFFFFFFFFFFFFFFFFFFFFFFFF AND PUSH20 0xFFFFFFFFFFFFFFFFFFFFFFFFFFFFFFFFFFFFFFFF AND PUSH2 0x8FC SELFBALANCE SWAP1 DUP2 ISZERO MUL SWAP1 PUSH1 0x40 MLOAD PUSH1 0x0 PUSH1 0x40 MLOAD DUP1 DUP4 SUB DUP2 DUP6 DUP9 DUP9 CALL SWAP4 POP POP POP POP ISZERO DUP1 ISZERO PUSH2 0x71E JUMPI RETURNDATASIZE PUSH1 0x0 DUP1 RETURNDATACOPY RETURNDATASIZE PUSH1 0x0 REVERT JUMPDEST POP PUSH2 0xB48 JUMP JUMPDEST PUSH1 0x6 SLOAD PUSH1 0x5 SLOAD GT DUP1 ISZERO PUSH2 0x753 JUMPI POP PUSH3 0x15180 PUSH1 0xA SLOAD PUSH2 0x743 SWAP2 SWAP1 PUSH2 0x1003 JUMP JUMPDEST PUSH1 0x9 SLOAD PUSH2 0x750 SWAP2 SWAP1 PUSH2 0x1045 JUMP JUMPDEST TIMESTAMP GT JUMPDEST ISZERO PUSH2 0x856 JUMPI DUP1 PUSH20 0xFFFFFFFFFFFFFFFFFFFFFFFFFFFFFFFFFFFFFFFF AND PUSH1 0x2 PUSH1 0x0 SWAP1 SLOAD SWAP1 PUSH2 0x100 EXP SWAP1 DIV PUSH20 0xFFFFFFFFFFFFFFFFFFFFFFFFFFFFFFFFFFFFFFFF AND PUSH20 0xFFFFFFFFFFFFFFFFFFFFFFFFFFFFFFFFFFFFFFFF AND EQ PUSH2 0x7E8 JUMPI PUSH1 0x40 MLOAD PUSH32 0x8C379A000000000000000000000000000000000000000000000000000000000 DUP2 MSTORE PUSH1 0x4 ADD PUSH2 0x7DF SWAP1 PUSH2 0x1131 JUMP JUMPDEST PUSH1 0x40 MLOAD DUP1 SWAP2 SUB SWAP1 REVERT JUMPDEST PUSH1 0x2 PUSH1 0x0 SWAP1 SLOAD SWAP1 PUSH2 0x100 EXP SWAP1 DIV PUSH20 0xFFFFFFFFFFFFFFFFFFFFFFFFFFFFFFFFFFFFFFFF AND PUSH20 0xFFFFFFFFFFFFFFFFFFFFFFFFFFFFFFFFFFFFFFFF AND PUSH2 0x8FC SELFBALANCE SWAP1 DUP2 ISZERO MUL SWAP1 PUSH1 0x40 MLOAD PUSH1 0x0 PUSH1 0x40 MLOAD DUP1 DUP4 SUB DUP2 DUP6 DUP9 DUP9 CALL SWAP4 POP POP POP POP ISZERO DUP1 ISZERO PUSH2 0x850 JUMPI RETURNDATASIZE PUSH1 0x0 DUP1 RETURNDATACOPY RETURNDATASIZE PUSH1 0x0 REVERT JUMPDEST POP PUSH2 0xB47 JUMP JUMPDEST PUSH1 0x0 SELFBALANCE EQ ISZERO DUP1 ISZERO PUSH2 0x86A JUMPI POP PUSH1 0x7 SLOAD PUSH1 0x4 SLOAD LT JUMPDEST DUP1 ISZERO PUSH2 0x879 JUMPI POP PUSH1 0x8 SLOAD PUSH1 0x5 SLOAD LT JUMPDEST DUP1 ISZERO PUSH2 0x8A1 JUMPI POP PUSH3 0x15180 PUSH1 0xA SLOAD PUSH2 0x891 SWAP2 SWAP1 PUSH2 0x1003 JUMP JUMPDEST PUSH1 0x9 SLOAD PUSH2 0x89E SWAP2 SWAP1 PUSH2 0x1045 JUMP JUMPDEST TIMESTAMP GT JUMPDEST ISZERO PUSH2 0xB46 JUMPI PUSH1 0x2 PUSH1 0x0 SWAP1 SLOAD SWAP1 PUSH2 0x100 EXP SWAP1 DIV PUSH20 0xFFFFFFFFFFFFFFFFFFFFFFFFFFFFFFFFFFFFFFFF AND PUSH20 0xFFFFFFFFFFFFFFFFFFFFFFFFFFFFFFFFFFFFFFFF AND DUP2 PUSH20 0xFFFFFFFFFFFFFFFFFFFFFFFFFFFFFFFFFFFFFFFF AND EQ DUP1 PUSH2 0x94F JUMPI POP PUSH1 0x1 PUSH1 0x0 SWAP1 SLOAD SWAP1 PUSH2 0x100 EXP SWAP1 DIV PUSH20 0xFFFFFFFFFFFFFFFFFFFFFFFFFFFFFFFFFFFFFFFF AND PUSH20 0xFFFFFFFFFFFFFFFFFFFFFFFFFFFFFFFFFFFFFFFF AND DUP2 PUSH20 0xFFFFFFFFFFFFFFFFFFFFFFFFFFFFFFFFFFFFFFFF AND EQ JUMPDEST PUSH2 0x98E JUMPI PUSH1 0x40 MLOAD PUSH32 0x8C379A000000000000000000000000000000000000000000000000000000000 DUP2 MSTORE PUSH1 0x4 ADD PUSH2 0x985 SWAP1 PUSH2 0x11C3 JUMP JUMPDEST PUSH1 0x40 MLOAD DUP1 SWAP2 SUB SWAP1 REVERT JUMPDEST PUSH1 0x2 PUSH1 0x0 SWAP1 SLOAD SWAP1 PUSH2 0x100 EXP SWAP1 DIV PUSH20 0xFFFFFFFFFFFFFFFFFFFFFFFFFFFFFFFFFFFFFFFF AND PUSH20 0xFFFFFFFFFFFFFFFFFFFFFFFFFFFFFFFFFFFFFFFF AND DUP2 PUSH20 0xFFFFFFFFFFFFFFFFFFFFFFFFFFFFFFFFFFFFFFFF AND EQ DUP1 ISZERO PUSH2 0x9EE JUMPI POP PUSH1 0x0 PUSH1 0x5 SLOAD EQ ISZERO JUMPDEST ISZERO PUSH2 0xA6B JUMPI PUSH1 0x2 PUSH1 0x0 SWAP1 SLOAD SWAP1 PUSH2 0x100 EXP SWAP1 DIV PUSH20 0xFFFFFFFFFFFFFFFFFFFFFFFFFFFFFFFFFFFFFFFF AND PUSH20 0xFFFFFFFFFFFFFFFFFFFFFFFFFFFFFFFFFFFFFFFF AND PUSH2 0x8FC PUSH1 0x5 SLOAD SWAP1 DUP2 ISZERO MUL SWAP1 PUSH1 0x40 MLOAD PUSH1 0x0 PUSH1 0x40 MLOAD DUP1 DUP4 SUB DUP2 DUP6 DUP9 DUP9 CALL SWAP4 POP POP POP POP ISZERO DUP1 ISZERO PUSH2 0xA5D JUMPI RETURNDATASIZE PUSH1 0x0 DUP1 RETURNDATACOPY RETURNDATASIZE PUSH1 0x0 REVERT JUMPDEST POP PUSH1 0x0 PUSH1 0x5 DUP2 SWAP1 SSTORE POP PUSH2 0xB45 JUMP JUMPDEST PUSH1 0x1 PUSH1 0x0 SWAP1 SLOAD SWAP1 PUSH2 0x100 EXP SWAP1 DIV PUSH20 0xFFFFFFFFFFFFFFFFFFFFFFFFFFFFFFFFFFFFFFFF AND PUSH20 0xFFFFFFFFFFFFFFFFFFFFFFFFFFFFFFFFFFFFFFFF AND DUP2 PUSH20 0xFFFFFFFFFFFFFFFFFFFFFFFFFFFFFFFFFFFFFFFF AND EQ DUP1 ISZERO PUSH2 0xACB JUMPI POP PUSH1 0x0 PUSH1 0x4 SLOAD EQ ISZERO JUMPDEST ISZERO PUSH2 0xB44 JUMPI PUSH1 0x1 PUSH1 0x0 SWAP1 SLOAD SWAP1 PUSH2 0x100 EXP SWAP1 DIV PUSH20 0xFFFFFFFFFFFFFFFFFFFFFFFFFFFFFFFFFFFFFFFF AND PUSH20 0xFFFFFFFFFFFFFFFFFFFFFFFFFFFFFFFFFFFFFFFF AND PUSH2 0x8FC PUSH1 0x4 SLOAD SWAP1 DUP2 ISZERO MUL SWAP1 PUSH1 0x40 MLOAD PUSH1 0x0 PUSH1 0x40 MLOAD DUP1 DUP4 SUB DUP2 DUP6 DUP9 DUP9 CALL SWAP4 POP POP POP POP ISZERO DUP1 ISZERO PUSH2 0xB3A JUMPI RETURNDATASIZE PUSH1 0x0 DUP1 RETURNDATACOPY RETURNDATASIZE PUSH1 0x0 REVERT JUMPDEST POP PUSH1 0x0 PUSH1 0x4 DUP2 SWAP1 SSTORE POP JUMPDEST JUMPDEST JUMPDEST JUMPDEST JUMPDEST PUSH2 0xB50 PUSH2 0xDF3 JUMP JUMPDEST POP JUMP JUMPDEST PUSH1 0x0 PUSH1 0x8 SLOAD SWAP1 POP SWAP1 JUMP JUMPDEST PUSH1 0xA SLOAD DUP2 JUMP JUMPDEST PUSH1 0x4 SLOAD DUP2 JUMP JUMPDEST PUSH1 0x3 SLOAD DUP2 JUMP JUMPDEST PUSH1 0x8 SLOAD DUP2 JUMP JUMPDEST PUSH1 0x7 SLOAD DUP2 JUMP JUMPDEST PUSH1 0x0 PUSH1 0x1 PUSH1 0x0 SWAP1 SLOAD SWAP1 PUSH2 0x100 EXP SWAP1 DIV PUSH20 0xFFFFFFFFFFFFFFFFFFFFFFFFFFFFFFFFFFFFFFFF AND SWAP1 POP SWAP1 JUMP JUMPDEST PUSH1 0x9 SLOAD DUP2 JUMP JUMPDEST PUSH1 0x0 PUSH1 0x7 SLOAD SWAP1 POP SWAP1 JUMP JUMPDEST PUSH1 0x0 PUSH1 0x6 SLOAD SWAP1 POP SWAP1 JUMP JUMPDEST PUSH1 0x5 SLOAD DUP2 JUMP JUMPDEST PUSH1 0x1 PUSH1 0x0 SWAP1 SLOAD SWAP1 PUSH2 0x100 EXP SWAP1 DIV PUSH20 0xFFFFFFFFFFFFFFFFFFFFFFFFFFFFFFFFFFFFFFFF AND PUSH20 0xFFFFFFFFFFFFFFFFFFFFFFFFFFFFFFFFFFFFFFFF AND DUP2 PUSH20 0xFFFFFFFFFFFFFFFFFFFFFFFFFFFFFFFFFFFFFFFF AND EQ DUP1 PUSH2 0xC6E JUMPI POP PUSH1 0x2 PUSH1 0x0 SWAP1 SLOAD SWAP1 PUSH2 0x100 EXP SWAP1 DIV PUSH20 0xFFFFFFFFFFFFFFFFFFFFFFFFFFFFFFFFFFFFFFFF AND PUSH20 0xFFFFFFFFFFFFFFFFFFFFFFFFFFFFFFFFFFFFFFFF AND DUP2 PUSH20 0xFFFFFFFFFFFFFFFFFFFFFFFFFFFFFFFFFFFFFFFF AND EQ JUMPDEST PUSH2 0xCAD JUMPI PUSH1 0x40 MLOAD PUSH32 0x8C379A000000000000000000000000000000000000000000000000000000000 DUP2 MSTORE PUSH1 0x4 ADD PUSH2 0xCA4 SWAP1 PUSH2 0x1255 JUMP JUMPDEST PUSH1 0x40 MLOAD DUP1 SWAP2 SUB SWAP1 REVERT JUMPDEST PUSH1 0x1 PUSH1 0x0 SWAP1 SLOAD SWAP1 PUSH2 0x100 EXP SWAP1 DIV PUSH20 0xFFFFFFFFFFFFFFFFFFFFFFFFFFFFFFFFFFFFFFFF AND PUSH20 0xFFFFFFFFFFFFFFFFFFFFFFFFFFFFFFFFFFFFFFFF AND DUP2 PUSH20 0xFFFFFFFFFFFFFFFFFFFFFFFFFFFFFFFFFFFFFFFF AND SUB PUSH2 0xD20 JUMPI CALLVALUE PUSH1 0x4 PUSH1 0x0 DUP3 DUP3 SLOAD PUSH2 0xD14 SWAP2 SWAP1 PUSH2 0x1045 JUMP JUMPDEST SWAP3 POP POP DUP2 SWAP1 SSTORE POP PUSH2 0xD3A JUMP JUMPDEST CALLVALUE PUSH1 0x5 PUSH1 0x0 DUP3 DUP3 SLOAD PUSH2 0xD32 SWAP2 SWAP1 PUSH2 0x1045 JUMP JUMPDEST SWAP3 POP POP DUP2 SWAP1 SSTORE POP JUMPDEST CALLVALUE PUSH1 0x3 PUSH1 0x0 DUP3 DUP3 SLOAD PUSH2 0xD4C SWAP2 SWAP1 PUSH2 0x1045 JUMP JUMPDEST SWAP3 POP POP DUP2 SWAP1 SSTORE POP DUP1 PUSH20 0xFFFFFFFFFFFFFFFFFFFFFFFFFFFFFFFFFFFFFFFF AND PUSH32 0x543BA50A5EEC5E6178218E364B1D0F396157B3C8FA278522C2CB7FD99407D474 CALLVALUE PUSH1 0x40 MLOAD PUSH2 0xD99 SWAP2 SWAP1 PUSH2 0xE16 JUMP JUMPDEST PUSH1 0x40 MLOAD DUP1 SWAP2 SUB SWAP1 LOG2 POP JUMP JUMPDEST PUSH1 0x2 PUSH1 0x0 SLOAD SUB PUSH2 0xDE9 JUMPI PUSH1 0x40 MLOAD PUSH32 0x8C379A000000000000000000000000000000000000000000000000000000000 DUP2 MSTORE PUSH1 0x4 ADD PUSH2 0xDE0 SWAP1 PUSH2 0x12C1 JUMP JUMPDEST PUSH1 0x40 MLOAD DUP1 SWAP2 SUB SWAP1 REVERT JUMPDEST PUSH1 0x2 PUSH1 0x0 DUP2 SWAP1 SSTORE POP JUMP JUMPDEST PUSH1 0x1 PUSH1 0x0 DUP2 SWAP1 SSTORE POP JUMP JUMPDEST PUSH1 0x0 DUP2 SWAP1 POP SWAP2 SWAP1 POP JUMP JUMPDEST PUSH2 0xE10 DUP2 PUSH2 0xDFD JUMP JUMPDEST DUP3 MSTORE POP POP JUMP JUMPDEST PUSH1 0x0 PUSH1 0x20 DUP3 ADD SWAP1 POP PUSH2 0xE2B PUSH1 0x0 DUP4 ADD DUP5 PUSH2 0xE07 JUMP JUMPDEST SWAP3 SWAP2 POP POP JUMP JUMPDEST PUSH1 0x0 PUSH20 0xFFFFFFFFFFFFFFFFFFFFFFFFFFFFFFFFFFFFFFFF DUP3 AND SWAP1 POP SWAP2 SWAP1 POP JUMP JUMPDEST PUSH1 0x0 PUSH2 0xE5C DUP3 PUSH2 0xE31 JUMP JUMPDEST SWAP1 POP SWAP2 SWAP1 POP JUMP JUMPDEST PUSH2 0xE6C DUP2 PUSH2 0xE51 JUMP JUMPDEST DUP3 MSTORE POP POP JUMP JUMPDEST PUSH1 0x0 PUSH1 0x20 DUP3 ADD SWAP1 POP PUSH2 0xE87 PUSH1 0x0 DUP4 ADD DUP5 PUSH2 0xE63 JUMP JUMPDEST SWAP3 SWAP2 POP POP JUMP JUMPDEST PUSH1 0x0 DUP1 REVERT JUMPDEST PUSH2 0xE9B DUP2 PUSH2 0xE51 JUMP JUMPDEST DUP2 EQ PUSH2 0xEA6 JUMPI PUSH1 0x0 DUP1 REVERT JUMPDEST POP JUMP JUMPDEST PUSH1 0x0 DUP2 CALLDATALOAD SWAP1 POP PUSH2 0xEB8 DUP2 PUSH2 0xE92 JUMP JUMPDEST SWAP3 SWAP2 POP POP JUMP JUMPDEST PUSH1 0x0 PUSH1 0x20 DUP3 DUP5 SUB SLT ISZERO PUSH2 0xED4 JUMPI PUSH2 0xED3 PUSH2 0xE8D JUMP JUMPDEST JUMPDEST PUSH1 0x0 PUSH2 0xEE2 DUP5 DUP3 DUP6 ADD PUSH2 0xEA9 JUMP JUMPDEST SWAP2 POP POP SWAP3 SWAP2 POP POP JUMP JUMPDEST PUSH1 0x0 DUP3 DUP3 MSTORE PUSH1 0x20 DUP3 ADD SWAP1 POP SWAP3 SWAP2 POP POP JUMP JUMPDEST PUSH32 0x436F6E747261637420646F6E277420686176652066756E647300000000000000 PUSH1 0x0 DUP3 ADD MSTORE POP JUMP JUMPDEST PUSH1 0x0 PUSH2 0xF32 PUSH1 0x19 DUP4 PUSH2 0xEEB JUMP JUMPDEST SWAP2 POP PUSH2 0xF3D DUP3 PUSH2 0xEFC JUMP JUMPDEST PUSH1 0x20 DUP3 ADD SWAP1 POP SWAP2 SWAP1 POP JUMP JUMPDEST PUSH1 0x0 PUSH1 0x20 DUP3 ADD SWAP1 POP DUP2 DUP2 SUB PUSH1 0x0 DUP4 ADD MSTORE PUSH2 0xF61 DUP2 PUSH2 0xF25 JUMP JUMPDEST SWAP1 POP SWAP2 SWAP1 POP JUMP JUMPDEST PUSH32 0x54696D65206973206E6F74206F76657220796574000000000000000000000000 PUSH1 0x0 DUP3 ADD MSTORE POP JUMP JUMPDEST PUSH1 0x0 PUSH2 0xF9E PUSH1 0x14 DUP4 PUSH2 0xEEB JUMP JUMPDEST SWAP2 POP PUSH2 0xFA9 DUP3 PUSH2 0xF68 JUMP JUMPDEST PUSH1 0x20 DUP3 ADD SWAP1 POP SWAP2 SWAP1 POP JUMP JUMPDEST PUSH1 0x0 PUSH1 0x20 DUP3 ADD SWAP1 POP DUP2 DUP2 SUB PUSH1 0x0 DUP4 ADD MSTORE PUSH2 0xFCD DUP2 PUSH2 0xF91 JUMP JUMPDEST SWAP1 POP SWAP2 SWAP1 POP JUMP JUMPDEST PUSH32 0x4E487B7100000000000000000000000000000000000000000000000000000000 PUSH1 0x0 MSTORE PUSH1 0x11 PUSH1 0x4 MSTORE PUSH1 0x24 PUSH1 0x0 REVERT JUMPDEST PUSH1 0x0 PUSH2 0x100E DUP3 PUSH2 0xDFD JUMP JUMPDEST SWAP2 POP PUSH2 0x1019 DUP4 PUSH2 0xDFD JUMP JUMPDEST SWAP3 POP DUP3 DUP3 MUL PUSH2 0x1027 DUP2 PUSH2 0xDFD JUMP JUMPDEST SWAP2 POP DUP3 DUP3 DIV DUP5 EQ DUP4 ISZERO OR PUSH2 0x103E JUMPI PUSH2 0x103D PUSH2 0xFD4 JUMP JUMPDEST JUMPDEST POP SWAP3 SWAP2 POP POP JUMP JUMPDEST PUSH1 0x0 PUSH2 0x1050 DUP3 PUSH2 0xDFD JUMP JUMPDEST SWAP2 POP PUSH2 0x105B DUP4 PUSH2 0xDFD JUMP JUMPDEST SWAP3 POP DUP3 DUP3 ADD SWAP1 POP DUP1 DUP3 GT ISZERO PUSH2 0x1073 JUMPI PUSH2 0x1072 PUSH2 0xFD4 JUMP JUMPDEST JUMPDEST SWAP3 SWAP2 POP POP JUMP JUMPDEST PUSH32 0x596F7520617265206E6F74207468652073656C6C657200000000000000000000 PUSH1 0x0 DUP3 ADD MSTORE POP JUMP JUMPDEST PUSH1 0x0 PUSH2 0x10AF PUSH1 0x16 DUP4 PUSH2 0xEEB JUMP JUMPDEST SWAP2 POP PUSH2 0x10BA DUP3 PUSH2 0x1079 JUMP JUMPDEST PUSH1 0x20 DUP3 ADD SWAP1 POP SWAP2 SWAP1 POP JUMP JUMPDEST PUSH1 0x0 PUSH1 0x20 DUP3 ADD SWAP1 POP DUP2 DUP2 SUB PUSH1 0x0 DUP4 ADD MSTORE PUSH2 0x10DE DUP2 PUSH2 0x10A2 JUMP JUMPDEST SWAP1 POP SWAP2 SWAP1 POP JUMP JUMPDEST PUSH32 0x596F7520617265206E6F74207468652062757965720000000000000000000000 PUSH1 0x0 DUP3 ADD MSTORE POP JUMP JUMPDEST PUSH1 0x0 PUSH2 0x111B PUSH1 0x15 DUP4 PUSH2 0xEEB JUMP JUMPDEST SWAP2 POP PUSH2 0x1126 DUP3 PUSH2 0x10E5 JUMP JUMPDEST PUSH1 0x20 DUP3 ADD SWAP1 POP SWAP2 SWAP1 POP JUMP JUMPDEST PUSH1 0x0 PUSH1 0x20 DUP3 ADD SWAP1 POP DUP2 DUP2 SUB PUSH1 0x0 DUP4 ADD MSTORE PUSH2 0x114A DUP2 PUSH2 0x110E JUMP JUMPDEST SWAP1 POP SWAP2 SWAP1 POP JUMP JUMPDEST PUSH32 0x4A757374206275796572206F722073656C6C65722063616E2077697468647261 PUSH1 0x0 DUP3 ADD MSTORE PUSH32 0x7700000000000000000000000000000000000000000000000000000000000000 PUSH1 0x20 DUP3 ADD MSTORE POP JUMP JUMPDEST PUSH1 0x0 PUSH2 0x11AD PUSH1 0x21 DUP4 PUSH2 0xEEB JUMP JUMPDEST SWAP2 POP PUSH2 0x11B8 DUP3 PUSH2 0x1151 JUMP JUMPDEST PUSH1 0x40 DUP3 ADD SWAP1 POP SWAP2 SWAP1 POP JUMP JUMPDEST PUSH1 0x0 PUSH1 0x20 DUP3 ADD SWAP1 POP DUP2 DUP2 SUB PUSH1 0x0 DUP4 ADD MSTORE PUSH2 0x11DC DUP2 PUSH2 0x11A0 JUMP JUMPDEST SWAP1 POP SWAP2 SWAP1 POP JUMP JUMPDEST PUSH32 0x4F6E6C79207468652073656C6C6572206F722062757965722063616E20646570 PUSH1 0x0 DUP3 ADD MSTORE PUSH32 0x6F7369742066756E647300000000000000000000000000000000000000000000 PUSH1 0x20 DUP3 ADD MSTORE POP JUMP JUMPDEST PUSH1 0x0 PUSH2 0x123F PUSH1 0x2A DUP4 PUSH2 0xEEB JUMP JUMPDEST SWAP2 POP PUSH2 0x124A DUP3 PUSH2 0x11E3 JUMP JUMPDEST PUSH1 0x40 DUP3 ADD SWAP1 POP SWAP2 SWAP1 POP JUMP JUMPDEST PUSH1 0x0 PUSH1 0x20 DUP3 ADD SWAP1 POP DUP2 DUP2 SUB PUSH1 0x0 DUP4 ADD MSTORE PUSH2 0x126E DUP2 PUSH2 0x1232 JUMP JUMPDEST SWAP1 POP SWAP2 SWAP1 POP JUMP JUMPDEST PUSH32 0x5265656E7472616E637947756172643A207265656E7472616E742063616C6C00 PUSH1 0x0 DUP3 ADD MSTORE POP JUMP JUMPDEST PUSH1 0x0 PUSH2 0x12AB PUSH1 0x1F DUP4 PUSH2 0xEEB JUMP JUMPDEST SWAP2 POP PUSH2 0x12B6 DUP3 PUSH2 0x1275 JUMP JUMPDEST PUSH1 0x20 DUP3 ADD SWAP1 POP SWAP2 SWAP1 POP JUMP JUMPDEST PUSH1 0x0 PUSH1 0x20 DUP3 ADD SWAP1 POP DUP2 DUP2 SUB PUSH1 0x0 DUP4 ADD MSTORE PUSH2 0x12DA DUP2 PUSH2 0x129E JUMP JUMPDEST SWAP1 POP SWAP2 SWAP1 POP JUMP INVALID LOG2 PUSH5 0x6970667358 0x22 SLT KECCAK256 0xA6 SLT SWAP2 0xB0 PUSH3 0x8872AA 0xDF 0xAB DELEGATECALL 0x2C SGT 0xE0 0xCD 0xB7 0xDB 0xAF 0xAD GASPRICE 0x29 DUP4 0x21 SUB 0xEF 0xDD DUP9 0x5C PUSH18 0xA9750064736F6C63430008110033A2646970 PUSH7 0x73582212208C13 0xF6 SDIV 0xE PUSH28 0x87A8523B079FDB0922C35B8E0538BDA42E92A02C02BD7F0255A06473 PUSH16 0x6C634300081100330000000000000000 "
				},
				"gasEstimates": {
					"creation": {
						"codeDepositCost": "2295800",
						"executionCost": "2456",
						"totalCost": "2298256"
					},
					"external": {
						"buyer(address)": "infinite",
						"createPoolWallet(address,uint256,uint256,uint256,uint256,uint256)": "infinite",
						"getBuyer(uint256)": "infinite",
						"getBuyerBalance(uint256)": "infinite",
						"getBuyerPreAgreementAmount(uint256)": "infinite",
						"getDaysForWithdrawal(uint256)": "infinite",
						"getEndDate(uint256)": "infinite",
						"getSecurityDeposit(uint256)": "infinite",
						"getSeller(uint256)": "infinite",
						"getSellerBalance(uint256)": "infinite",
						"getSellerPreAgreementAmount(uint256)": "infinite",
						"poolArray(uint256)": "infinite",
						"poolDeposit(uint256)": "infinite",
						"poolWithdraw(uint256)": "infinite",
						"seller(address)": "infinite"
					}
				},
				"methodIdentifiers": {
					"buyer(address)": "b7748208",
					"createPoolWallet(address,uint256,uint256,uint256,uint256,uint256)": "55a7942f",
					"getBuyer(uint256)": "5bf608b8",
					"getBuyerBalance(uint256)": "d32e18d1",
					"getBuyerPreAgreementAmount(uint256)": "1b892926",
					"getDaysForWithdrawal(uint256)": "ccadfef5",
					"getEndDate(uint256)": "5c6b047a",
					"getSecurityDeposit(uint256)": "444a8520",
					"getSeller(uint256)": "d6a9de51",
					"getSellerBalance(uint256)": "03ffe79e",
					"getSellerPreAgreementAmount(uint256)": "99f7f90d",
					"poolArray(uint256)": "82eac7f0",
					"poolDeposit(uint256)": "2d02462b",
					"poolWithdraw(uint256)": "3dc66ad3",
					"seller(address)": "39b9c30c"
				}
			},
			"storageLayout": {
				"storage": [
					{
						"astId": 464,
						"contract": "contracts/ContractPoolFactory.sol:ContractPoolFactory",
						"label": "poolArray",
						"offset": 0,
						"slot": "0",
						"type": "t_array(t_contract(ContractPoll)457)dyn_storage"
					}
				],
				"types": {
					"t_array(t_contract(ContractPoll)457)dyn_storage": {
						"base": "t_contract(ContractPoll)457",
						"encoding": "dynamic_array",
						"label": "contract ContractPoll[]",
						"numberOfBytes": "32"
					},
					"t_contract(ContractPoll)457": {
						"encoding": "inplace",
						"label": "contract ContractPoll",
						"numberOfBytes": "20"
					}
				}
			},
			"userdoc": {
				"kind": "user",
				"methods": {},
				"version": 1
			}
		}
	}
}