{
	"contracts/MoneyLockFactory.sol": {
		"MoneyLockFactory": {
			"abi": [
				{
					"anonymous": false,
					"inputs": [
						{
							"indexed": false,
							"internalType": "address",
							"name": "money",
							"type": "address"
						},
						{
							"indexed": false,
							"internalType": "address",
							"name": "owner",
							"type": "address"
						}
					],
					"name": "CreateAccount",
					"type": "event"
				},
				{
					"inputs": [
						{
							"internalType": "address",
							"name": "_taker",
							"type": "address"
						},
						{
							"internalType": "uint256",
							"name": "_securityDeposit",
							"type": "uint256"
						},
						{
							"internalType": "uint256",
							"name": "_endDate",
							"type": "uint256"
						},
						{
							"internalType": "uint256",
							"name": "_daysForWithdrawal",
							"type": "uint256"
						}
					],
					"name": "createMoneyLockWallet",
					"outputs": [
						{
							"internalType": "address",
							"name": "",
							"type": "address"
						}
					],
					"stateMutability": "nonpayable",
					"type": "function"
				},
				{
					"inputs": [
						{
							"internalType": "uint256",
							"name": "_moneyindex",
							"type": "uint256"
						}
					],
					"name": "getDaysForWithdrawal",
					"outputs": [
						{
							"internalType": "uint256",
							"name": "",
							"type": "uint256"
						}
					],
					"stateMutability": "view",
					"type": "function"
				},
				{
					"inputs": [
						{
							"internalType": "uint256",
							"name": "_moneyindex",
							"type": "uint256"
						}
					],
					"name": "getEndDate",
					"outputs": [
						{
							"internalType": "uint256",
							"name": "",
							"type": "uint256"
						}
					],
					"stateMutability": "view",
					"type": "function"
				},
				{
					"inputs": [
						{
							"internalType": "uint256",
							"name": "_moneyindex",
							"type": "uint256"
						}
					],
					"name": "getOwner",
					"outputs": [
						{
							"internalType": "address",
							"name": "",
							"type": "address"
						}
					],
					"stateMutability": "view",
					"type": "function"
				},
				{
					"inputs": [
						{
							"internalType": "uint256",
							"name": "_moneyindex",
							"type": "uint256"
						}
					],
					"name": "getSecurityDeposit",
					"outputs": [
						{
							"internalType": "uint256",
							"name": "",
							"type": "uint256"
						}
					],
					"stateMutability": "view",
					"type": "function"
				},
				{
					"inputs": [
						{
							"internalType": "uint256",
							"name": "_moneyindex",
							"type": "uint256"
						}
					],
					"name": "getTaker",
					"outputs": [
						{
							"internalType": "address",
							"name": "",
							"type": "address"
						}
					],
					"stateMutability": "view",
					"type": "function"
				},
				{
					"inputs": [
						{
							"internalType": "uint256",
							"name": "_moneyindex",
							"type": "uint256"
						}
					],
					"name": "getTokerBalance",
					"outputs": [
						{
							"internalType": "uint256",
							"name": "",
							"type": "uint256"
						}
					],
					"stateMutability": "view",
					"type": "function"
				},
				{
					"inputs": [
						{
							"internalType": "uint256",
							"name": "",
							"type": "uint256"
						}
					],
					"name": "moneyArray",
					"outputs": [
						{
							"internalType": "contract MoneyLock",
							"name": "",
							"type": "address"
						}
					],
					"stateMutability": "view",
					"type": "function"
				},
				{
					"inputs": [
						{
							"internalType": "uint256",
							"name": "_moneyindex",
							"type": "uint256"
						}
					],
					"name": "moneyDeposit",
					"outputs": [],
					"stateMutability": "nonpayable",
					"type": "function"
				},
				{
					"inputs": [
						{
							"internalType": "uint256",
							"name": "_moneyindex",
							"type": "uint256"
						}
					],
					"name": "moneyWithdraw",
					"outputs": [],
					"stateMutability": "payable",
					"type": "function"
				},
				{
					"inputs": [
						{
							"internalType": "address",
							"name": "_owner",
							"type": "address"
						}
					],
					"name": "owner",
					"outputs": [
						{
							"internalType": "uint256[]",
							"name": "",
							"type": "uint256[]"
						}
					],
					"stateMutability": "view",
					"type": "function"
				},
				{
					"inputs": [
						{
							"internalType": "address",
							"name": "_taker",
							"type": "address"
						}
					],
					"name": "taker",
					"outputs": [
						{
							"internalType": "uint256[]",
							"name": "",
							"type": "uint256[]"
						}
					],
					"stateMutability": "view",
					"type": "function"
				}
			],
			"devdoc": {
				"kind": "dev",
				"methods": {},
				"version": 1
			},
			"evm": {
				"assembly": "    /* \"contracts/MoneyLockFactory.sol\":146:2756  contract MoneyLockFactory {... */\n  mstore(0x40, 0x80)\n  callvalue\n  dup1\n  iszero\n  tag_1\n  jumpi\n  0x00\n  dup1\n  revert\ntag_1:\n  pop\n  dataSize(sub_0)\n  dup1\n  dataOffset(sub_0)\n  0x00\n  codecopy\n  0x00\n  return\nstop\n\nsub_0: assembly {\n        /* \"contracts/MoneyLockFactory.sol\":146:2756  contract MoneyLockFactory {... */\n      mstore(0x40, 0x80)\n      jumpi(tag_1, lt(calldatasize, 0x04))\n      shr(0xe0, calldataload(0x00))\n      dup1\n      0xc41a360a\n      gt\n      tag_14\n      jumpi\n      dup1\n      0xc41a360a\n      eq\n      tag_8\n      jumpi\n      dup1\n      0xc5077a5a\n      eq\n      tag_9\n      jumpi\n      dup1\n      0xcbcc5b28\n      eq\n      tag_10\n      jumpi\n      dup1\n      0xccadfef5\n      eq\n      tag_11\n      jumpi\n      dup1\n      0xe79a6128\n      eq\n      tag_12\n      jumpi\n      dup1\n      0xf14af335\n      eq\n      tag_13\n      jumpi\n      jump(tag_1)\n    tag_14:\n      dup1\n      0x0d5d1f8c\n      eq\n      tag_2\n      jumpi\n      dup1\n      0x444a8520\n      eq\n      tag_3\n      jumpi\n      dup1\n      0x573c5ad4\n      eq\n      tag_4\n      jumpi\n      dup1\n      0x5c6b047a\n      eq\n      tag_5\n      jumpi\n      dup1\n      0x666e1b39\n      eq\n      tag_6\n      jumpi\n      dup1\n      0x8bee36a4\n      eq\n      tag_7\n      jumpi\n    tag_1:\n      0x00\n      dup1\n      revert\n        /* \"contracts/MoneyLockFactory.sol\":1342:1477  function getTokerBalance(uint256 _moneyindex) public view returns(uint){... */\n    tag_2:\n      callvalue\n      dup1\n      iszero\n      tag_15\n      jumpi\n      0x00\n      dup1\n      revert\n    tag_15:\n      pop\n      tag_16\n      0x04\n      dup1\n      calldatasize\n      sub\n      dup2\n      add\n      swap1\n      tag_17\n      swap2\n      swap1\n      tag_18\n      jump\t// in\n    tag_17:\n      tag_19\n      jump\t// in\n    tag_16:\n      mload(0x40)\n      tag_20\n      swap2\n      swap1\n      tag_21\n      jump\t// in\n    tag_20:\n      mload(0x40)\n      dup1\n      swap2\n      sub\n      swap1\n      return\n        /* \"contracts/MoneyLockFactory.sol\":1487:1628  function getSecurityDeposit(uint256 _moneyindex) public view returns(uint){... */\n    tag_3:\n      callvalue\n      dup1\n      iszero\n      tag_22\n      jumpi\n      0x00\n      dup1\n      revert\n    tag_22:\n      pop\n      tag_23\n      0x04\n      dup1\n      calldatasize\n      sub\n      dup2\n      add\n      swap1\n      tag_24\n      swap2\n      swap1\n      tag_18\n      jump\t// in\n    tag_24:\n      tag_25\n      jump\t// in\n    tag_23:\n      mload(0x40)\n      tag_26\n      swap2\n      swap1\n      tag_21\n      jump\t// in\n    tag_26:\n      mload(0x40)\n      dup1\n      swap2\n      sub\n      swap1\n      return\n        /* \"contracts/MoneyLockFactory.sol\":204:233  MoneyLock[] public moneyArray */\n    tag_4:\n      callvalue\n      dup1\n      iszero\n      tag_27\n      jumpi\n      0x00\n      dup1\n      revert\n    tag_27:\n      pop\n      tag_28\n      0x04\n      dup1\n      calldatasize\n      sub\n      dup2\n      add\n      swap1\n      tag_29\n      swap2\n      swap1\n      tag_18\n      jump\t// in\n    tag_29:\n      tag_30\n      jump\t// in\n    tag_28:\n      mload(0x40)\n      tag_31\n      swap2\n      swap1\n      tag_32\n      jump\t// in\n    tag_31:\n      mload(0x40)\n      dup1\n      swap2\n      sub\n      swap1\n      return\n        /* \"contracts/MoneyLockFactory.sol\":1638:1763  function getEndDate(uint256 _moneyindex) public view returns(uint){... */\n    tag_5:\n      callvalue\n      dup1\n      iszero\n      tag_33\n      jumpi\n      0x00\n      dup1\n      revert\n    tag_33:\n      pop\n      tag_34\n      0x04\n      dup1\n      calldatasize\n      sub\n      dup2\n      add\n      swap1\n      tag_35\n      swap2\n      swap1\n      tag_18\n      jump\t// in\n    tag_35:\n      tag_36\n      jump\t// in\n    tag_34:\n      mload(0x40)\n      tag_37\n      swap2\n      swap1\n      tag_21\n      jump\t// in\n    tag_37:\n      mload(0x40)\n      dup1\n      swap2\n      sub\n      swap1\n      return\n        /* \"contracts/MoneyLockFactory.sol\":1951:2334  function owner(address _owner) public view returns (uint256[] memory) {... */\n    tag_6:\n      callvalue\n      dup1\n      iszero\n      tag_38\n      jumpi\n      0x00\n      dup1\n      revert\n    tag_38:\n      pop\n      tag_39\n      0x04\n      dup1\n      calldatasize\n      sub\n      dup2\n      add\n      swap1\n      tag_40\n      swap2\n      swap1\n      tag_41\n      jump\t// in\n    tag_40:\n      tag_42\n      jump\t// in\n    tag_39:\n      mload(0x40)\n      tag_43\n      swap2\n      swap1\n      tag_44\n      jump\t// in\n    tag_43:\n      mload(0x40)\n      dup1\n      swap2\n      sub\n      swap1\n      return\n        /* \"contracts/MoneyLockFactory.sol\":2367:2750  function taker(address _taker) public view returns (uint256[] memory) {... */\n    tag_7:\n      callvalue\n      dup1\n      iszero\n      tag_45\n      jumpi\n      0x00\n      dup1\n      revert\n    tag_45:\n      pop\n      tag_46\n      0x04\n      dup1\n      calldatasize\n      sub\n      dup2\n      add\n      swap1\n      tag_47\n      swap2\n      swap1\n      tag_41\n      jump\t// in\n    tag_47:\n      tag_48\n      jump\t// in\n    tag_46:\n      mload(0x40)\n      tag_49\n      swap2\n      swap1\n      tag_44\n      jump\t// in\n    tag_49:\n      mload(0x40)\n      dup1\n      swap2\n      sub\n      swap1\n      return\n        /* \"contracts/MoneyLockFactory.sol\":1066:1196  function getOwner(uint256 _moneyindex) public view returns(address){... */\n    tag_8:\n      callvalue\n      dup1\n      iszero\n      tag_50\n      jumpi\n      0x00\n      dup1\n      revert\n    tag_50:\n      pop\n      tag_51\n      0x04\n      dup1\n      calldatasize\n      sub\n      dup2\n      add\n      swap1\n      tag_52\n      swap2\n      swap1\n      tag_18\n      jump\t// in\n    tag_52:\n      tag_53\n      jump\t// in\n    tag_51:\n      mload(0x40)\n      tag_54\n      swap2\n      swap1\n      tag_55\n      jump\t// in\n    tag_54:\n      mload(0x40)\n      dup1\n      swap2\n      sub\n      swap1\n      return\n        /* \"contracts/MoneyLockFactory.sol\":777:893  function moneyDeposit(uint256 _moneyindex) public {... */\n    tag_9:\n      callvalue\n      dup1\n      iszero\n      tag_56\n      jumpi\n      0x00\n      dup1\n      revert\n    tag_56:\n      pop\n      tag_57\n      0x04\n      dup1\n      calldatasize\n      sub\n      dup2\n      add\n      swap1\n      tag_58\n      swap2\n      swap1\n      tag_18\n      jump\t// in\n    tag_58:\n      tag_59\n      jump\t// in\n    tag_57:\n      stop\n        /* \"contracts/MoneyLockFactory.sol\":1204:1334  function getTaker(uint256 _moneyindex) public view returns(address){... */\n    tag_10:\n      callvalue\n      dup1\n      iszero\n      tag_60\n      jumpi\n      0x00\n      dup1\n      revert\n    tag_60:\n      pop\n      tag_61\n      0x04\n      dup1\n      calldatasize\n      sub\n      dup2\n      add\n      swap1\n      tag_62\n      swap2\n      swap1\n      tag_18\n      jump\t// in\n    tag_62:\n      tag_63\n      jump\t// in\n    tag_61:\n      mload(0x40)\n      tag_64\n      swap2\n      swap1\n      tag_55\n      jump\t// in\n    tag_64:\n      mload(0x40)\n      dup1\n      swap2\n      sub\n      swap1\n      return\n        /* \"contracts/MoneyLockFactory.sol\":1771:1916  function getDaysForWithdrawal(uint256 _moneyindex) public view returns(uint){... */\n    tag_11:\n      callvalue\n      dup1\n      iszero\n      tag_65\n      jumpi\n      0x00\n      dup1\n      revert\n    tag_65:\n      pop\n      tag_66\n      0x04\n      dup1\n      calldatasize\n      sub\n      dup2\n      add\n      swap1\n      tag_67\n      swap2\n      swap1\n      tag_18\n      jump\t// in\n    tag_67:\n      tag_68\n      jump\t// in\n    tag_66:\n      mload(0x40)\n      tag_69\n      swap2\n      swap1\n      tag_21\n      jump\t// in\n    tag_69:\n      mload(0x40)\n      dup1\n      swap2\n      sub\n      swap1\n      return\n        /* \"contracts/MoneyLockFactory.sol\":933:1056  function moneyWithdraw(uint256 _moneyindex) public payable {... */\n    tag_12:\n      tag_70\n      0x04\n      dup1\n      calldatasize\n      sub\n      dup2\n      add\n      swap1\n      tag_71\n      swap2\n      swap1\n      tag_18\n      jump\t// in\n    tag_71:\n      tag_72\n      jump\t// in\n    tag_70:\n      stop\n        /* \"contracts/MoneyLockFactory.sol\":332:734  function createMoneyLockWallet( address _taker, uint256 _securityDeposit, uint256 _endDate, uint256 _daysForWithdrawal) public returns(address) {... */\n    tag_13:\n      callvalue\n      dup1\n      iszero\n      tag_73\n      jumpi\n      0x00\n      dup1\n      revert\n    tag_73:\n      pop\n      tag_74\n      0x04\n      dup1\n      calldatasize\n      sub\n      dup2\n      add\n      swap1\n      tag_75\n      swap2\n      swap1\n      tag_76\n      jump\t// in\n    tag_75:\n      tag_77\n      jump\t// in\n    tag_74:\n      mload(0x40)\n      tag_78\n      swap2\n      swap1\n      tag_55\n      jump\t// in\n    tag_78:\n      mload(0x40)\n      dup1\n      swap2\n      sub\n      swap1\n      return\n        /* \"contracts/MoneyLockFactory.sol\":1342:1477  function getTokerBalance(uint256 _moneyindex) public view returns(uint){... */\n    tag_19:\n        /* \"contracts/MoneyLockFactory.sol\":1408:1412  uint */\n      0x00\n        /* \"contracts/MoneyLockFactory.sol\":1431:1441  moneyArray */\n      dup1\n        /* \"contracts/MoneyLockFactory.sol\":1442:1453  _moneyindex */\n      dup3\n        /* \"contracts/MoneyLockFactory.sol\":1431:1454  moneyArray[_moneyindex] */\n      dup2\n      sload\n      dup2\n      lt\n      tag_80\n      jumpi\n      tag_81\n      tag_82\n      jump\t// in\n    tag_81:\n    tag_80:\n      swap1\n      0x00\n      mstore\n      keccak256(0x00, 0x20)\n      add\n      0x00\n      swap1\n      sload\n      swap1\n      0x0100\n      exp\n      swap1\n      div\n      0xffffffffffffffffffffffffffffffffffffffff\n      and\n        /* \"contracts/MoneyLockFactory.sol\":1431:1467  moneyArray[_moneyindex].takerBalance */\n      0xffffffffffffffffffffffffffffffffffffffff\n      and\n      0x83abb1d5\n        /* \"contracts/MoneyLockFactory.sol\":1431:1469  moneyArray[_moneyindex].takerBalance() */\n      mload(0x40)\n      dup2\n      0xffffffff\n      and\n      0xe0\n      shl\n      dup2\n      mstore\n      0x04\n      add\n      0x20\n      mload(0x40)\n      dup1\n      dup4\n      sub\n      dup2\n      dup7\n      gas\n      staticcall\n      iszero\n      dup1\n      iszero\n      tag_85\n      jumpi\n      returndatasize\n      0x00\n      dup1\n      returndatacopy\n      revert(0x00, returndatasize)\n    tag_85:\n      pop\n      pop\n      pop\n      pop\n      mload(0x40)\n      returndatasize\n      not(0x1f)\n      0x1f\n      dup3\n      add\n      and\n      dup3\n      add\n      dup1\n      0x40\n      mstore\n      pop\n      dup2\n      add\n      swap1\n      tag_86\n      swap2\n      swap1\n      tag_87\n      jump\t// in\n    tag_86:\n        /* \"contracts/MoneyLockFactory.sol\":1424:1469  return moneyArray[_moneyindex].takerBalance() */\n      swap1\n      pop\n        /* \"contracts/MoneyLockFactory.sol\":1342:1477  function getTokerBalance(uint256 _moneyindex) public view returns(uint){... */\n      swap2\n      swap1\n      pop\n      jump\t// out\n        /* \"contracts/MoneyLockFactory.sol\":1487:1628  function getSecurityDeposit(uint256 _moneyindex) public view returns(uint){... */\n    tag_25:\n        /* \"contracts/MoneyLockFactory.sol\":1556:1560  uint */\n      0x00\n        /* \"contracts/MoneyLockFactory.sol\":1579:1589  moneyArray */\n      dup1\n        /* \"contracts/MoneyLockFactory.sol\":1590:1601  _moneyindex */\n      dup3\n        /* \"contracts/MoneyLockFactory.sol\":1579:1602  moneyArray[_moneyindex] */\n      dup2\n      sload\n      dup2\n      lt\n      tag_89\n      jumpi\n      tag_90\n      tag_82\n      jump\t// in\n    tag_90:\n    tag_89:\n      swap1\n      0x00\n      mstore\n      keccak256(0x00, 0x20)\n      add\n      0x00\n      swap1\n      sload\n      swap1\n      0x0100\n      exp\n      swap1\n      div\n      0xffffffffffffffffffffffffffffffffffffffff\n      and\n        /* \"contracts/MoneyLockFactory.sol\":1579:1618  moneyArray[_moneyindex].securityDeposit */\n      0xffffffffffffffffffffffffffffffffffffffff\n      and\n      0x220e5ab3\n        /* \"contracts/MoneyLockFactory.sol\":1579:1620  moneyArray[_moneyindex].securityDeposit() */\n      mload(0x40)\n      dup2\n      0xffffffff\n      and\n      0xe0\n      shl\n      dup2\n      mstore\n      0x04\n      add\n      0x20\n      mload(0x40)\n      dup1\n      dup4\n      sub\n      dup2\n      dup7\n      gas\n      staticcall\n      iszero\n      dup1\n      iszero\n      tag_93\n      jumpi\n      returndatasize\n      0x00\n      dup1\n      returndatacopy\n      revert(0x00, returndatasize)\n    tag_93:\n      pop\n      pop\n      pop\n      pop\n      mload(0x40)\n      returndatasize\n      not(0x1f)\n      0x1f\n      dup3\n      add\n      and\n      dup3\n      add\n      dup1\n      0x40\n      mstore\n      pop\n      dup2\n      add\n      swap1\n      tag_94\n      swap2\n      swap1\n      tag_87\n      jump\t// in\n    tag_94:\n        /* \"contracts/MoneyLockFactory.sol\":1572:1620  return moneyArray[_moneyindex].securityDeposit() */\n      swap1\n      pop\n        /* \"contracts/MoneyLockFactory.sol\":1487:1628  function getSecurityDeposit(uint256 _moneyindex) public view returns(uint){... */\n      swap2\n      swap1\n      pop\n      jump\t// out\n        /* \"contracts/MoneyLockFactory.sol\":204:233  MoneyLock[] public moneyArray */\n    tag_30:\n      0x00\n      dup2\n      dup2\n      sload\n      dup2\n      lt\n      tag_95\n      jumpi\n      0x00\n      dup1\n      revert\n    tag_95:\n      swap1\n      0x00\n      mstore\n      keccak256(0x00, 0x20)\n      add\n      0x00\n      swap2\n      pop\n      sload\n      swap1\n      0x0100\n      exp\n      swap1\n      div\n      0xffffffffffffffffffffffffffffffffffffffff\n      and\n      dup2\n      jump\t// out\n        /* \"contracts/MoneyLockFactory.sol\":1638:1763  function getEndDate(uint256 _moneyindex) public view returns(uint){... */\n    tag_36:\n        /* \"contracts/MoneyLockFactory.sol\":1699:1703  uint */\n      0x00\n        /* \"contracts/MoneyLockFactory.sol\":1722:1732  moneyArray */\n      dup1\n        /* \"contracts/MoneyLockFactory.sol\":1733:1744  _moneyindex */\n      dup3\n        /* \"contracts/MoneyLockFactory.sol\":1722:1745  moneyArray[_moneyindex] */\n      dup2\n      sload\n      dup2\n      lt\n      tag_98\n      jumpi\n      tag_99\n      tag_82\n      jump\t// in\n    tag_99:\n    tag_98:\n      swap1\n      0x00\n      mstore\n      keccak256(0x00, 0x20)\n      add\n      0x00\n      swap1\n      sload\n      swap1\n      0x0100\n      exp\n      swap1\n      div\n      0xffffffffffffffffffffffffffffffffffffffff\n      and\n        /* \"contracts/MoneyLockFactory.sol\":1722:1753  moneyArray[_moneyindex].endDate */\n      0xffffffffffffffffffffffffffffffffffffffff\n      and\n      0xc24a0f8b\n        /* \"contracts/MoneyLockFactory.sol\":1722:1755  moneyArray[_moneyindex].endDate() */\n      mload(0x40)\n      dup2\n      0xffffffff\n      and\n      0xe0\n      shl\n      dup2\n      mstore\n      0x04\n      add\n      0x20\n      mload(0x40)\n      dup1\n      dup4\n      sub\n      dup2\n      dup7\n      gas\n      staticcall\n      iszero\n      dup1\n      iszero\n      tag_102\n      jumpi\n      returndatasize\n      0x00\n      dup1\n      returndatacopy\n      revert(0x00, returndatasize)\n    tag_102:\n      pop\n      pop\n      pop\n      pop\n      mload(0x40)\n      returndatasize\n      not(0x1f)\n      0x1f\n      dup3\n      add\n      and\n      dup3\n      add\n      dup1\n      0x40\n      mstore\n      pop\n      dup2\n      add\n      swap1\n      tag_103\n      swap2\n      swap1\n      tag_87\n      jump\t// in\n    tag_103:\n        /* \"contracts/MoneyLockFactory.sol\":1715:1755  return moneyArray[_moneyindex].endDate() */\n      swap1\n      pop\n        /* \"contracts/MoneyLockFactory.sol\":1638:1763  function getEndDate(uint256 _moneyindex) public view returns(uint){... */\n      swap2\n      swap1\n      pop\n      jump\t// out\n        /* \"contracts/MoneyLockFactory.sol\":1951:2334  function owner(address _owner) public view returns (uint256[] memory) {... */\n    tag_42:\n        /* \"contracts/MoneyLockFactory.sol\":2003:2019  uint256[] memory */\n      0x60\n        /* \"contracts/MoneyLockFactory.sol\":2028:2056  uint256[] memory resultArray */\n      0x00\n        /* \"contracts/MoneyLockFactory.sol\":2073:2083  moneyArray */\n      dup1\n        /* \"contracts/MoneyLockFactory.sol\":2073:2090  moneyArray.length */\n      dup1\n      sload\n      swap1\n      pop\n        /* \"contracts/MoneyLockFactory.sol\":2059:2091  new uint256[](moneyArray.length) */\n      0xffffffffffffffff\n      dup2\n      gt\n      iszero\n      tag_105\n      jumpi\n      tag_106\n      tag_107\n      jump\t// in\n    tag_106:\n    tag_105:\n      mload(0x40)\n      swap1\n      dup1\n      dup3\n      mstore\n      dup1\n      0x20\n      mul\n      0x20\n      add\n      dup3\n      add\n      0x40\n      mstore\n      dup1\n      iszero\n      tag_108\n      jumpi\n      dup2\n      0x20\n      add\n      0x20\n      dup3\n      mul\n      dup1\n      calldatasize\n      dup4\n      calldatacopy\n      dup1\n      dup3\n      add\n      swap2\n      pop\n      pop\n      swap1\n      pop\n    tag_108:\n      pop\n        /* \"contracts/MoneyLockFactory.sol\":2028:2091  uint256[] memory resultArray = new uint256[](moneyArray.length) */\n      swap1\n      pop\n        /* \"contracts/MoneyLockFactory.sol\":2098:2111  uint256 index */\n      0x00\n        /* \"contracts/MoneyLockFactory.sol\":2127:2136  uint256 i */\n      dup1\n        /* \"contracts/MoneyLockFactory.sol\":2122:2302  for (uint256 i = 0; i < moneyArray.length; i++) {... */\n    tag_109:\n        /* \"contracts/MoneyLockFactory.sol\":2146:2156  moneyArray */\n      0x00\n        /* \"contracts/MoneyLockFactory.sol\":2146:2163  moneyArray.length */\n      dup1\n      sload\n      swap1\n      pop\n        /* \"contracts/MoneyLockFactory.sol\":2142:2143  i */\n      dup2\n        /* \"contracts/MoneyLockFactory.sol\":2142:2163  i < moneyArray.length */\n      lt\n        /* \"contracts/MoneyLockFactory.sol\":2122:2302  for (uint256 i = 0; i < moneyArray.length; i++) {... */\n      iszero\n      tag_110\n      jumpi\n        /* \"contracts/MoneyLockFactory.sol\":2216:2222  _owner */\n      dup5\n        /* \"contracts/MoneyLockFactory.sol\":2185:2222  moneyArray[i].returnOwner() == _owner */\n      0xffffffffffffffffffffffffffffffffffffffff\n      and\n        /* \"contracts/MoneyLockFactory.sol\":2185:2195  moneyArray */\n      0x00\n        /* \"contracts/MoneyLockFactory.sol\":2196:2197  i */\n      dup3\n        /* \"contracts/MoneyLockFactory.sol\":2185:2198  moneyArray[i] */\n      dup2\n      sload\n      dup2\n      lt\n      tag_112\n      jumpi\n      tag_113\n      tag_82\n      jump\t// in\n    tag_113:\n    tag_112:\n      swap1\n      0x00\n      mstore\n      keccak256(0x00, 0x20)\n      add\n      0x00\n      swap1\n      sload\n      swap1\n      0x0100\n      exp\n      swap1\n      div\n      0xffffffffffffffffffffffffffffffffffffffff\n      and\n        /* \"contracts/MoneyLockFactory.sol\":2185:2210  moneyArray[i].returnOwner */\n      0xffffffffffffffffffffffffffffffffffffffff\n      and\n      0x94a927fe\n        /* \"contracts/MoneyLockFactory.sol\":2185:2212  moneyArray[i].returnOwner() */\n      mload(0x40)\n      dup2\n      0xffffffff\n      and\n      0xe0\n      shl\n      dup2\n      mstore\n      0x04\n      add\n      0x20\n      mload(0x40)\n      dup1\n      dup4\n      sub\n      dup2\n      dup7\n      gas\n      staticcall\n      iszero\n      dup1\n      iszero\n      tag_116\n      jumpi\n      returndatasize\n      0x00\n      dup1\n      returndatacopy\n      revert(0x00, returndatasize)\n    tag_116:\n      pop\n      pop\n      pop\n      pop\n      mload(0x40)\n      returndatasize\n      not(0x1f)\n      0x1f\n      dup3\n      add\n      and\n      dup3\n      add\n      dup1\n      0x40\n      mstore\n      pop\n      dup2\n      add\n      swap1\n      tag_117\n      swap2\n      swap1\n      tag_118\n      jump\t// in\n    tag_117:\n        /* \"contracts/MoneyLockFactory.sol\":2185:2222  moneyArray[i].returnOwner() == _owner */\n      0xffffffffffffffffffffffffffffffffffffffff\n      and\n      sub\n        /* \"contracts/MoneyLockFactory.sol\":2181:2295  if (moneyArray[i].returnOwner() == _owner) {... */\n      tag_119\n      jumpi\n        /* \"contracts/MoneyLockFactory.sol\":2260:2261  i */\n      dup1\n        /* \"contracts/MoneyLockFactory.sol\":2239:2250  resultArray */\n      dup4\n        /* \"contracts/MoneyLockFactory.sol\":2251:2256  index */\n      dup4\n        /* \"contracts/MoneyLockFactory.sol\":2239:2257  resultArray[index] */\n      dup2\n      mload\n      dup2\n      lt\n      tag_120\n      jumpi\n      tag_121\n      tag_82\n      jump\t// in\n    tag_121:\n    tag_120:\n      0x20\n      mul\n      0x20\n      add\n      add\n        /* \"contracts/MoneyLockFactory.sol\":2239:2261  resultArray[index] = i */\n      dup2\n      dup2\n      mstore\n      pop\n      pop\n        /* \"contracts/MoneyLockFactory.sol\":2276:2283  index++ */\n      dup2\n      dup1\n      tag_122\n      swap1\n      tag_123\n      jump\t// in\n    tag_122:\n      swap3\n      pop\n      pop\n        /* \"contracts/MoneyLockFactory.sol\":2181:2295  if (moneyArray[i].returnOwner() == _owner) {... */\n    tag_119:\n        /* \"contracts/MoneyLockFactory.sol\":2165:2168  i++ */\n      dup1\n      dup1\n      tag_124\n      swap1\n      tag_123\n      jump\t// in\n    tag_124:\n      swap2\n      pop\n      pop\n        /* \"contracts/MoneyLockFactory.sol\":2122:2302  for (uint256 i = 0; i < moneyArray.length; i++) {... */\n      jump(tag_109)\n    tag_110:\n      pop\n        /* \"contracts/MoneyLockFactory.sol\":2315:2326  resultArray */\n      dup2\n        /* \"contracts/MoneyLockFactory.sol\":2308:2326  return resultArray */\n      swap3\n      pop\n      pop\n      pop\n        /* \"contracts/MoneyLockFactory.sol\":1951:2334  function owner(address _owner) public view returns (uint256[] memory) {... */\n      swap2\n      swap1\n      pop\n      jump\t// out\n        /* \"contracts/MoneyLockFactory.sol\":2367:2750  function taker(address _taker) public view returns (uint256[] memory) {... */\n    tag_48:\n        /* \"contracts/MoneyLockFactory.sol\":2419:2435  uint256[] memory */\n      0x60\n        /* \"contracts/MoneyLockFactory.sol\":2444:2472  uint256[] memory resultArray */\n      0x00\n        /* \"contracts/MoneyLockFactory.sol\":2489:2499  moneyArray */\n      dup1\n        /* \"contracts/MoneyLockFactory.sol\":2489:2506  moneyArray.length */\n      dup1\n      sload\n      swap1\n      pop\n        /* \"contracts/MoneyLockFactory.sol\":2475:2507  new uint256[](moneyArray.length) */\n      0xffffffffffffffff\n      dup2\n      gt\n      iszero\n      tag_126\n      jumpi\n      tag_127\n      tag_107\n      jump\t// in\n    tag_127:\n    tag_126:\n      mload(0x40)\n      swap1\n      dup1\n      dup3\n      mstore\n      dup1\n      0x20\n      mul\n      0x20\n      add\n      dup3\n      add\n      0x40\n      mstore\n      dup1\n      iszero\n      tag_128\n      jumpi\n      dup2\n      0x20\n      add\n      0x20\n      dup3\n      mul\n      dup1\n      calldatasize\n      dup4\n      calldatacopy\n      dup1\n      dup3\n      add\n      swap2\n      pop\n      pop\n      swap1\n      pop\n    tag_128:\n      pop\n        /* \"contracts/MoneyLockFactory.sol\":2444:2507  uint256[] memory resultArray = new uint256[](moneyArray.length) */\n      swap1\n      pop\n        /* \"contracts/MoneyLockFactory.sol\":2514:2527  uint256 index */\n      0x00\n        /* \"contracts/MoneyLockFactory.sol\":2543:2552  uint256 i */\n      dup1\n        /* \"contracts/MoneyLockFactory.sol\":2538:2718  for (uint256 i = 0; i < moneyArray.length; i++) {... */\n    tag_129:\n        /* \"contracts/MoneyLockFactory.sol\":2562:2572  moneyArray */\n      0x00\n        /* \"contracts/MoneyLockFactory.sol\":2562:2579  moneyArray.length */\n      dup1\n      sload\n      swap1\n      pop\n        /* \"contracts/MoneyLockFactory.sol\":2558:2559  i */\n      dup2\n        /* \"contracts/MoneyLockFactory.sol\":2558:2579  i < moneyArray.length */\n      lt\n        /* \"contracts/MoneyLockFactory.sol\":2538:2718  for (uint256 i = 0; i < moneyArray.length; i++) {... */\n      iszero\n      tag_130\n      jumpi\n        /* \"contracts/MoneyLockFactory.sol\":2632:2638  _taker */\n      dup5\n        /* \"contracts/MoneyLockFactory.sol\":2601:2638  moneyArray[i].returnTaker() == _taker */\n      0xffffffffffffffffffffffffffffffffffffffff\n      and\n        /* \"contracts/MoneyLockFactory.sol\":2601:2611  moneyArray */\n      0x00\n        /* \"contracts/MoneyLockFactory.sol\":2612:2613  i */\n      dup3\n        /* \"contracts/MoneyLockFactory.sol\":2601:2614  moneyArray[i] */\n      dup2\n      sload\n      dup2\n      lt\n      tag_132\n      jumpi\n      tag_133\n      tag_82\n      jump\t// in\n    tag_133:\n    tag_132:\n      swap1\n      0x00\n      mstore\n      keccak256(0x00, 0x20)\n      add\n      0x00\n      swap1\n      sload\n      swap1\n      0x0100\n      exp\n      swap1\n      div\n      0xffffffffffffffffffffffffffffffffffffffff\n      and\n        /* \"contracts/MoneyLockFactory.sol\":2601:2626  moneyArray[i].returnTaker */\n      0xffffffffffffffffffffffffffffffffffffffff\n      and\n      0xaee8ff45\n        /* \"contracts/MoneyLockFactory.sol\":2601:2628  moneyArray[i].returnTaker() */\n      mload(0x40)\n      dup2\n      0xffffffff\n      and\n      0xe0\n      shl\n      dup2\n      mstore\n      0x04\n      add\n      0x20\n      mload(0x40)\n      dup1\n      dup4\n      sub\n      dup2\n      dup7\n      gas\n      staticcall\n      iszero\n      dup1\n      iszero\n      tag_136\n      jumpi\n      returndatasize\n      0x00\n      dup1\n      returndatacopy\n      revert(0x00, returndatasize)\n    tag_136:\n      pop\n      pop\n      pop\n      pop\n      mload(0x40)\n      returndatasize\n      not(0x1f)\n      0x1f\n      dup3\n      add\n      and\n      dup3\n      add\n      dup1\n      0x40\n      mstore\n      pop\n      dup2\n      add\n      swap1\n      tag_137\n      swap2\n      swap1\n      tag_118\n      jump\t// in\n    tag_137:\n        /* \"contracts/MoneyLockFactory.sol\":2601:2638  moneyArray[i].returnTaker() == _taker */\n      0xffffffffffffffffffffffffffffffffffffffff\n      and\n      sub\n        /* \"contracts/MoneyLockFactory.sol\":2597:2711  if (moneyArray[i].returnTaker() == _taker) {... */\n      tag_138\n      jumpi\n        /* \"contracts/MoneyLockFactory.sol\":2676:2677  i */\n      dup1\n        /* \"contracts/MoneyLockFactory.sol\":2655:2666  resultArray */\n      dup4\n        /* \"contracts/MoneyLockFactory.sol\":2667:2672  index */\n      dup4\n        /* \"contracts/MoneyLockFactory.sol\":2655:2673  resultArray[index] */\n      dup2\n      mload\n      dup2\n      lt\n      tag_139\n      jumpi\n      tag_140\n      tag_82\n      jump\t// in\n    tag_140:\n    tag_139:\n      0x20\n      mul\n      0x20\n      add\n      add\n        /* \"contracts/MoneyLockFactory.sol\":2655:2677  resultArray[index] = i */\n      dup2\n      dup2\n      mstore\n      pop\n      pop\n        /* \"contracts/MoneyLockFactory.sol\":2692:2699  index++ */\n      dup2\n      dup1\n      tag_141\n      swap1\n      tag_123\n      jump\t// in\n    tag_141:\n      swap3\n      pop\n      pop\n        /* \"contracts/MoneyLockFactory.sol\":2597:2711  if (moneyArray[i].returnTaker() == _taker) {... */\n    tag_138:\n        /* \"contracts/MoneyLockFactory.sol\":2581:2584  i++ */\n      dup1\n      dup1\n      tag_142\n      swap1\n      tag_123\n      jump\t// in\n    tag_142:\n      swap2\n      pop\n      pop\n        /* \"contracts/MoneyLockFactory.sol\":2538:2718  for (uint256 i = 0; i < moneyArray.length; i++) {... */\n      jump(tag_129)\n    tag_130:\n      pop\n        /* \"contracts/MoneyLockFactory.sol\":2731:2742  resultArray */\n      dup2\n        /* \"contracts/MoneyLockFactory.sol\":2724:2742  return resultArray */\n      swap3\n      pop\n      pop\n      pop\n        /* \"contracts/MoneyLockFactory.sol\":2367:2750  function taker(address _taker) public view returns (uint256[] memory) {... */\n      swap2\n      swap1\n      pop\n      jump\t// out\n        /* \"contracts/MoneyLockFactory.sol\":1066:1196  function getOwner(uint256 _moneyindex) public view returns(address){... */\n    tag_53:\n        /* \"contracts/MoneyLockFactory.sol\":1125:1132  address */\n      0x00\n        /* \"contracts/MoneyLockFactory.sol\":1151:1161  moneyArray */\n      dup1\n        /* \"contracts/MoneyLockFactory.sol\":1162:1173  _moneyindex */\n      dup3\n        /* \"contracts/MoneyLockFactory.sol\":1151:1174  moneyArray[_moneyindex] */\n      dup2\n      sload\n      dup2\n      lt\n      tag_144\n      jumpi\n      tag_145\n      tag_82\n      jump\t// in\n    tag_145:\n    tag_144:\n      swap1\n      0x00\n      mstore\n      keccak256(0x00, 0x20)\n      add\n      0x00\n      swap1\n      sload\n      swap1\n      0x0100\n      exp\n      swap1\n      div\n      0xffffffffffffffffffffffffffffffffffffffff\n      and\n        /* \"contracts/MoneyLockFactory.sol\":1151:1186  moneyArray[_moneyindex].returnOwner */\n      0xffffffffffffffffffffffffffffffffffffffff\n      and\n      0x94a927fe\n        /* \"contracts/MoneyLockFactory.sol\":1151:1188  moneyArray[_moneyindex].returnOwner() */\n      mload(0x40)\n      dup2\n      0xffffffff\n      and\n      0xe0\n      shl\n      dup2\n      mstore\n      0x04\n      add\n      0x20\n      mload(0x40)\n      dup1\n      dup4\n      sub\n      dup2\n      dup7\n      gas\n      staticcall\n      iszero\n      dup1\n      iszero\n      tag_148\n      jumpi\n      returndatasize\n      0x00\n      dup1\n      returndatacopy\n      revert(0x00, returndatasize)\n    tag_148:\n      pop\n      pop\n      pop\n      pop\n      mload(0x40)\n      returndatasize\n      not(0x1f)\n      0x1f\n      dup3\n      add\n      and\n      dup3\n      add\n      dup1\n      0x40\n      mstore\n      pop\n      dup2\n      add\n      swap1\n      tag_149\n      swap2\n      swap1\n      tag_118\n      jump\t// in\n    tag_149:\n        /* \"contracts/MoneyLockFactory.sol\":1144:1188  return moneyArray[_moneyindex].returnOwner() */\n      swap1\n      pop\n        /* \"contracts/MoneyLockFactory.sol\":1066:1196  function getOwner(uint256 _moneyindex) public view returns(address){... */\n      swap2\n      swap1\n      pop\n      jump\t// out\n        /* \"contracts/MoneyLockFactory.sol\":777:893  function moneyDeposit(uint256 _moneyindex) public {... */\n    tag_59:\n        /* \"contracts/MoneyLockFactory.sol\":838:848  moneyArray */\n      0x00\n        /* \"contracts/MoneyLockFactory.sol\":849:860  _moneyindex */\n      dup2\n        /* \"contracts/MoneyLockFactory.sol\":838:861  moneyArray[_moneyindex] */\n      dup2\n      sload\n      dup2\n      lt\n      tag_151\n      jumpi\n      tag_152\n      tag_82\n      jump\t// in\n    tag_152:\n    tag_151:\n      swap1\n      0x00\n      mstore\n      keccak256(0x00, 0x20)\n      add\n      0x00\n      swap1\n      sload\n      swap1\n      0x0100\n      exp\n      swap1\n      div\n      0xffffffffffffffffffffffffffffffffffffffff\n      and\n        /* \"contracts/MoneyLockFactory.sol\":838:869  moneyArray[_moneyindex].deposit */\n      0xffffffffffffffffffffffffffffffffffffffff\n      and\n      0xf340fa01\n        /* \"contracts/MoneyLockFactory.sol\":870:880  msg.sender */\n      caller\n        /* \"contracts/MoneyLockFactory.sol\":838:881  moneyArray[_moneyindex].deposit(msg.sender) */\n      mload(0x40)\n      dup3\n      0xffffffff\n      and\n      0xe0\n      shl\n      dup2\n      mstore\n      0x04\n      add\n      tag_154\n      swap2\n      swap1\n      tag_55\n      jump\t// in\n    tag_154:\n      0x00\n      mload(0x40)\n      dup1\n      dup4\n      sub\n      dup2\n      0x00\n      dup8\n      dup1\n      extcodesize\n      iszero\n      dup1\n      iszero\n      tag_155\n      jumpi\n      0x00\n      dup1\n      revert\n    tag_155:\n      pop\n      gas\n      call\n      iszero\n      dup1\n      iszero\n      tag_157\n      jumpi\n      returndatasize\n      0x00\n      dup1\n      returndatacopy\n      revert(0x00, returndatasize)\n    tag_157:\n      pop\n      pop\n      pop\n      pop\n        /* \"contracts/MoneyLockFactory.sol\":777:893  function moneyDeposit(uint256 _moneyindex) public {... */\n      pop\n      jump\t// out\n        /* \"contracts/MoneyLockFactory.sol\":1204:1334  function getTaker(uint256 _moneyindex) public view returns(address){... */\n    tag_63:\n        /* \"contracts/MoneyLockFactory.sol\":1263:1270  address */\n      0x00\n        /* \"contracts/MoneyLockFactory.sol\":1289:1299  moneyArray */\n      dup1\n        /* \"contracts/MoneyLockFactory.sol\":1300:1311  _moneyindex */\n      dup3\n        /* \"contracts/MoneyLockFactory.sol\":1289:1312  moneyArray[_moneyindex] */\n      dup2\n      sload\n      dup2\n      lt\n      tag_159\n      jumpi\n      tag_160\n      tag_82\n      jump\t// in\n    tag_160:\n    tag_159:\n      swap1\n      0x00\n      mstore\n      keccak256(0x00, 0x20)\n      add\n      0x00\n      swap1\n      sload\n      swap1\n      0x0100\n      exp\n      swap1\n      div\n      0xffffffffffffffffffffffffffffffffffffffff\n      and\n        /* \"contracts/MoneyLockFactory.sol\":1289:1324  moneyArray[_moneyindex].returnTaker */\n      0xffffffffffffffffffffffffffffffffffffffff\n      and\n      0xaee8ff45\n        /* \"contracts/MoneyLockFactory.sol\":1289:1326  moneyArray[_moneyindex].returnTaker() */\n      mload(0x40)\n      dup2\n      0xffffffff\n      and\n      0xe0\n      shl\n      dup2\n      mstore\n      0x04\n      add\n      0x20\n      mload(0x40)\n      dup1\n      dup4\n      sub\n      dup2\n      dup7\n      gas\n      staticcall\n      iszero\n      dup1\n      iszero\n      tag_163\n      jumpi\n      returndatasize\n      0x00\n      dup1\n      returndatacopy\n      revert(0x00, returndatasize)\n    tag_163:\n      pop\n      pop\n      pop\n      pop\n      mload(0x40)\n      returndatasize\n      not(0x1f)\n      0x1f\n      dup3\n      add\n      and\n      dup3\n      add\n      dup1\n      0x40\n      mstore\n      pop\n      dup2\n      add\n      swap1\n      tag_164\n      swap2\n      swap1\n      tag_118\n      jump\t// in\n    tag_164:\n        /* \"contracts/MoneyLockFactory.sol\":1282:1326  return moneyArray[_moneyindex].returnTaker() */\n      swap1\n      pop\n        /* \"contracts/MoneyLockFactory.sol\":1204:1334  function getTaker(uint256 _moneyindex) public view returns(address){... */\n      swap2\n      swap1\n      pop\n      jump\t// out\n        /* \"contracts/MoneyLockFactory.sol\":1771:1916  function getDaysForWithdrawal(uint256 _moneyindex) public view returns(uint){... */\n    tag_68:\n        /* \"contracts/MoneyLockFactory.sol\":1842:1846  uint */\n      0x00\n        /* \"contracts/MoneyLockFactory.sol\":1865:1875  moneyArray */\n      dup1\n        /* \"contracts/MoneyLockFactory.sol\":1876:1887  _moneyindex */\n      dup3\n        /* \"contracts/MoneyLockFactory.sol\":1865:1888  moneyArray[_moneyindex] */\n      dup2\n      sload\n      dup2\n      lt\n      tag_166\n      jumpi\n      tag_167\n      tag_82\n      jump\t// in\n    tag_167:\n    tag_166:\n      swap1\n      0x00\n      mstore\n      keccak256(0x00, 0x20)\n      add\n      0x00\n      swap1\n      sload\n      swap1\n      0x0100\n      exp\n      swap1\n      div\n      0xffffffffffffffffffffffffffffffffffffffff\n      and\n        /* \"contracts/MoneyLockFactory.sol\":1865:1906  moneyArray[_moneyindex].daysForWithdrawal */\n      0xffffffffffffffffffffffffffffffffffffffff\n      and\n      0x6d5e7a15\n        /* \"contracts/MoneyLockFactory.sol\":1865:1908  moneyArray[_moneyindex].daysForWithdrawal() */\n      mload(0x40)\n      dup2\n      0xffffffff\n      and\n      0xe0\n      shl\n      dup2\n      mstore\n      0x04\n      add\n      0x20\n      mload(0x40)\n      dup1\n      dup4\n      sub\n      dup2\n      dup7\n      gas\n      staticcall\n      iszero\n      dup1\n      iszero\n      tag_170\n      jumpi\n      returndatasize\n      0x00\n      dup1\n      returndatacopy\n      revert(0x00, returndatasize)\n    tag_170:\n      pop\n      pop\n      pop\n      pop\n      mload(0x40)\n      returndatasize\n      not(0x1f)\n      0x1f\n      dup3\n      add\n      and\n      dup3\n      add\n      dup1\n      0x40\n      mstore\n      pop\n      dup2\n      add\n      swap1\n      tag_171\n      swap2\n      swap1\n      tag_87\n      jump\t// in\n    tag_171:\n        /* \"contracts/MoneyLockFactory.sol\":1858:1908  return moneyArray[_moneyindex].daysForWithdrawal() */\n      swap1\n      pop\n        /* \"contracts/MoneyLockFactory.sol\":1771:1916  function getDaysForWithdrawal(uint256 _moneyindex) public view returns(uint){... */\n      swap2\n      swap1\n      pop\n      jump\t// out\n        /* \"contracts/MoneyLockFactory.sol\":933:1056  function moneyWithdraw(uint256 _moneyindex) public payable {... */\n    tag_72:\n        /* \"contracts/MoneyLockFactory.sol\":1003:1013  moneyArray */\n      0x00\n        /* \"contracts/MoneyLockFactory.sol\":1014:1025  _moneyindex */\n      dup2\n        /* \"contracts/MoneyLockFactory.sol\":1003:1026  moneyArray[_moneyindex] */\n      dup2\n      sload\n      dup2\n      lt\n      tag_173\n      jumpi\n      tag_174\n      tag_82\n      jump\t// in\n    tag_174:\n    tag_173:\n      swap1\n      0x00\n      mstore\n      keccak256(0x00, 0x20)\n      add\n      0x00\n      swap1\n      sload\n      swap1\n      0x0100\n      exp\n      swap1\n      div\n      0xffffffffffffffffffffffffffffffffffffffff\n      and\n        /* \"contracts/MoneyLockFactory.sol\":1003:1035  moneyArray[_moneyindex].withdraw */\n      0xffffffffffffffffffffffffffffffffffffffff\n      and\n      0x51cff8d9\n        /* \"contracts/MoneyLockFactory.sol\":1036:1046  msg.sender */\n      caller\n        /* \"contracts/MoneyLockFactory.sol\":1003:1047  moneyArray[_moneyindex].withdraw(msg.sender) */\n      mload(0x40)\n      dup3\n      0xffffffff\n      and\n      0xe0\n      shl\n      dup2\n      mstore\n      0x04\n      add\n      tag_176\n      swap2\n      swap1\n      tag_55\n      jump\t// in\n    tag_176:\n      0x00\n      mload(0x40)\n      dup1\n      dup4\n      sub\n      dup2\n      0x00\n      dup8\n      dup1\n      extcodesize\n      iszero\n      dup1\n      iszero\n      tag_177\n      jumpi\n      0x00\n      dup1\n      revert\n    tag_177:\n      pop\n      gas\n      call\n      iszero\n      dup1\n      iszero\n      tag_179\n      jumpi\n      returndatasize\n      0x00\n      dup1\n      returndatacopy\n      revert(0x00, returndatasize)\n    tag_179:\n      pop\n      pop\n      pop\n      pop\n        /* \"contracts/MoneyLockFactory.sol\":933:1056  function moneyWithdraw(uint256 _moneyindex) public payable {... */\n      pop\n      jump\t// out\n        /* \"contracts/MoneyLockFactory.sol\":332:734  function createMoneyLockWallet( address _taker, uint256 _securityDeposit, uint256 _endDate, uint256 _daysForWithdrawal) public returns(address) {... */\n    tag_77:\n        /* \"contracts/MoneyLockFactory.sol\":467:474  address */\n      0x00\n        /* \"contracts/MoneyLockFactory.sol\":486:501  MoneyLock money */\n      dup1\n        /* \"contracts/MoneyLockFactory.sol\":526:536  msg.sender */\n      caller\n        /* \"contracts/MoneyLockFactory.sol\":547:553  _taker */\n      dup7\n        /* \"contracts/MoneyLockFactory.sol\":556:572  _securityDeposit */\n      dup7\n        /* \"contracts/MoneyLockFactory.sol\":574:582  _endDate */\n      dup7\n        /* \"contracts/MoneyLockFactory.sol\":584:602  _daysForWithdrawal */\n      dup7\n        /* \"contracts/MoneyLockFactory.sol\":504:603  new MoneyLock(payable(msg.sender), payable(_taker), _securityDeposit, _endDate, _daysForWithdrawal) */\n      mload(0x40)\n      tag_181\n      swap1\n      tag_182\n      jump\t// in\n    tag_181:\n      tag_183\n      swap6\n      swap5\n      swap4\n      swap3\n      swap2\n      swap1\n      tag_184\n      jump\t// in\n    tag_183:\n      mload(0x40)\n      dup1\n      swap2\n      sub\n      swap1\n      0x00\n      create\n      dup1\n      iszero\n      dup1\n      iszero\n      tag_185\n      jumpi\n      returndatasize\n      0x00\n      dup1\n      returndatacopy\n      revert(0x00, returndatasize)\n    tag_185:\n      pop\n        /* \"contracts/MoneyLockFactory.sol\":486:603  MoneyLock money = new MoneyLock(payable(msg.sender), payable(_taker), _securityDeposit, _endDate, _daysForWithdrawal) */\n      swap1\n      pop\n        /* \"contracts/MoneyLockFactory.sol\":617:627  moneyArray */\n      0x00\n        /* \"contracts/MoneyLockFactory.sol\":633:638  money */\n      dup2\n        /* \"contracts/MoneyLockFactory.sol\":617:639  moneyArray.push(money) */\n      swap1\n      dup1\n      0x01\n      dup2\n      sload\n      add\n      dup1\n      dup3\n      sstore\n      dup1\n      swap2\n      pop\n      pop\n      0x01\n      swap1\n      sub\n      swap1\n      0x00\n      mstore\n      keccak256(0x00, 0x20)\n      add\n      0x00\n      swap1\n      swap2\n      swap1\n      swap2\n      swap1\n      swap2\n      0x0100\n      exp\n      dup2\n      sload\n      dup2\n      0xffffffffffffffffffffffffffffffffffffffff\n      mul\n      not\n      and\n      swap1\n      dup4\n      0xffffffffffffffffffffffffffffffffffffffff\n      and\n      mul\n      or\n      swap1\n      sstore\n      pop\n        /* \"contracts/MoneyLockFactory.sol\":654:695  CreateAccount(address(money), msg.sender) */\n      0x14a8ec3fa88b43ee6d7a7a0e47e3468f408e39a1cf0be757bb6c81b94e2fdb9e\n        /* \"contracts/MoneyLockFactory.sol\":676:681  money */\n      dup2\n        /* \"contracts/MoneyLockFactory.sol\":684:694  msg.sender */\n      caller\n        /* \"contracts/MoneyLockFactory.sol\":654:695  CreateAccount(address(money), msg.sender) */\n      mload(0x40)\n      tag_187\n      swap3\n      swap2\n      swap1\n      tag_188\n      jump\t// in\n    tag_187:\n      mload(0x40)\n      dup1\n      swap2\n      sub\n      swap1\n      log1\n        /* \"contracts/MoneyLockFactory.sol\":720:725  money */\n      dup1\n        /* \"contracts/MoneyLockFactory.sol\":705:726  return address(money) */\n      swap2\n      pop\n      pop\n        /* \"contracts/MoneyLockFactory.sol\":332:734  function createMoneyLockWallet( address _taker, uint256 _securityDeposit, uint256 _endDate, uint256 _daysForWithdrawal) public returns(address) {... */\n      swap5\n      swap4\n      pop\n      pop\n      pop\n      pop\n      jump\t// out\n    tag_182:\n      dataSize(sub_0)\n      dup1\n      dataOffset(sub_0)\n      dup4\n      codecopy\n      add\n      swap1\n      jump\t// out\n        /* \"#utility.yul\":88:205   */\n    tag_190:\n        /* \"#utility.yul\":197:198   */\n      0x00\n        /* \"#utility.yul\":194:195   */\n      dup1\n        /* \"#utility.yul\":187:199   */\n      revert\n        /* \"#utility.yul\":334:411   */\n    tag_192:\n        /* \"#utility.yul\":371:378   */\n      0x00\n        /* \"#utility.yul\":400:405   */\n      dup2\n        /* \"#utility.yul\":389:405   */\n      swap1\n      pop\n        /* \"#utility.yul\":334:411   */\n      swap2\n      swap1\n      pop\n      jump\t// out\n        /* \"#utility.yul\":417:539   */\n    tag_193:\n        /* \"#utility.yul\":490:514   */\n      tag_224\n        /* \"#utility.yul\":508:513   */\n      dup2\n        /* \"#utility.yul\":490:514   */\n      tag_192\n      jump\t// in\n    tag_224:\n        /* \"#utility.yul\":483:488   */\n      dup2\n        /* \"#utility.yul\":480:515   */\n      eq\n        /* \"#utility.yul\":470:533   */\n      tag_225\n      jumpi\n        /* \"#utility.yul\":529:530   */\n      0x00\n        /* \"#utility.yul\":526:527   */\n      dup1\n        /* \"#utility.yul\":519:531   */\n      revert\n        /* \"#utility.yul\":470:533   */\n    tag_225:\n        /* \"#utility.yul\":417:539   */\n      pop\n      jump\t// out\n        /* \"#utility.yul\":545:684   */\n    tag_194:\n        /* \"#utility.yul\":591:596   */\n      0x00\n        /* \"#utility.yul\":629:635   */\n      dup2\n        /* \"#utility.yul\":616:636   */\n      calldataload\n        /* \"#utility.yul\":607:636   */\n      swap1\n      pop\n        /* \"#utility.yul\":645:678   */\n      tag_227\n        /* \"#utility.yul\":672:677   */\n      dup2\n        /* \"#utility.yul\":645:678   */\n      tag_193\n      jump\t// in\n    tag_227:\n        /* \"#utility.yul\":545:684   */\n      swap3\n      swap2\n      pop\n      pop\n      jump\t// out\n        /* \"#utility.yul\":690:1019   */\n    tag_18:\n        /* \"#utility.yul\":749:755   */\n      0x00\n        /* \"#utility.yul\":798:800   */\n      0x20\n        /* \"#utility.yul\":786:795   */\n      dup3\n        /* \"#utility.yul\":777:784   */\n      dup5\n        /* \"#utility.yul\":773:796   */\n      sub\n        /* \"#utility.yul\":769:801   */\n      slt\n        /* \"#utility.yul\":766:885   */\n      iszero\n      tag_229\n      jumpi\n        /* \"#utility.yul\":804:883   */\n      tag_230\n      tag_190\n      jump\t// in\n    tag_230:\n        /* \"#utility.yul\":766:885   */\n    tag_229:\n        /* \"#utility.yul\":924:925   */\n      0x00\n        /* \"#utility.yul\":949:1002   */\n      tag_231\n        /* \"#utility.yul\":994:1001   */\n      dup5\n        /* \"#utility.yul\":985:991   */\n      dup3\n        /* \"#utility.yul\":974:983   */\n      dup6\n        /* \"#utility.yul\":970:992   */\n      add\n        /* \"#utility.yul\":949:1002   */\n      tag_194\n      jump\t// in\n    tag_231:\n        /* \"#utility.yul\":939:1002   */\n      swap2\n      pop\n        /* \"#utility.yul\":895:1012   */\n      pop\n        /* \"#utility.yul\":690:1019   */\n      swap3\n      swap2\n      pop\n      pop\n      jump\t// out\n        /* \"#utility.yul\":1025:1143   */\n    tag_195:\n        /* \"#utility.yul\":1112:1136   */\n      tag_233\n        /* \"#utility.yul\":1130:1135   */\n      dup2\n        /* \"#utility.yul\":1112:1136   */\n      tag_192\n      jump\t// in\n    tag_233:\n        /* \"#utility.yul\":1107:1110   */\n      dup3\n        /* \"#utility.yul\":1100:1137   */\n      mstore\n        /* \"#utility.yul\":1025:1143   */\n      pop\n      pop\n      jump\t// out\n        /* \"#utility.yul\":1149:1371   */\n    tag_21:\n        /* \"#utility.yul\":1242:1246   */\n      0x00\n        /* \"#utility.yul\":1280:1282   */\n      0x20\n        /* \"#utility.yul\":1269:1278   */\n      dup3\n        /* \"#utility.yul\":1265:1283   */\n      add\n        /* \"#utility.yul\":1257:1283   */\n      swap1\n      pop\n        /* \"#utility.yul\":1293:1364   */\n      tag_235\n        /* \"#utility.yul\":1361:1362   */\n      0x00\n        /* \"#utility.yul\":1350:1359   */\n      dup4\n        /* \"#utility.yul\":1346:1363   */\n      add\n        /* \"#utility.yul\":1337:1343   */\n      dup5\n        /* \"#utility.yul\":1293:1364   */\n      tag_195\n      jump\t// in\n    tag_235:\n        /* \"#utility.yul\":1149:1371   */\n      swap3\n      swap2\n      pop\n      pop\n      jump\t// out\n        /* \"#utility.yul\":1377:1503   */\n    tag_196:\n        /* \"#utility.yul\":1414:1421   */\n      0x00\n        /* \"#utility.yul\":1454:1496   */\n      0xffffffffffffffffffffffffffffffffffffffff\n        /* \"#utility.yul\":1447:1452   */\n      dup3\n        /* \"#utility.yul\":1443:1497   */\n      and\n        /* \"#utility.yul\":1432:1497   */\n      swap1\n      pop\n        /* \"#utility.yul\":1377:1503   */\n      swap2\n      swap1\n      pop\n      jump\t// out\n        /* \"#utility.yul\":1509:1569   */\n    tag_197:\n        /* \"#utility.yul\":1537:1540   */\n      0x00\n        /* \"#utility.yul\":1558:1563   */\n      dup2\n        /* \"#utility.yul\":1551:1563   */\n      swap1\n      pop\n        /* \"#utility.yul\":1509:1569   */\n      swap2\n      swap1\n      pop\n      jump\t// out\n        /* \"#utility.yul\":1575:1717   */\n    tag_198:\n        /* \"#utility.yul\":1625:1634   */\n      0x00\n        /* \"#utility.yul\":1658:1711   */\n      tag_239\n        /* \"#utility.yul\":1676:1710   */\n      tag_240\n        /* \"#utility.yul\":1685:1709   */\n      tag_241\n        /* \"#utility.yul\":1703:1708   */\n      dup5\n        /* \"#utility.yul\":1685:1709   */\n      tag_196\n      jump\t// in\n    tag_241:\n        /* \"#utility.yul\":1676:1710   */\n      tag_197\n      jump\t// in\n    tag_240:\n        /* \"#utility.yul\":1658:1711   */\n      tag_196\n      jump\t// in\n    tag_239:\n        /* \"#utility.yul\":1645:1711   */\n      swap1\n      pop\n        /* \"#utility.yul\":1575:1717   */\n      swap2\n      swap1\n      pop\n      jump\t// out\n        /* \"#utility.yul\":1723:1857   */\n    tag_199:\n        /* \"#utility.yul\":1781:1790   */\n      0x00\n        /* \"#utility.yul\":1814:1851   */\n      tag_243\n        /* \"#utility.yul\":1845:1850   */\n      dup3\n        /* \"#utility.yul\":1814:1851   */\n      tag_198\n      jump\t// in\n    tag_243:\n        /* \"#utility.yul\":1801:1851   */\n      swap1\n      pop\n        /* \"#utility.yul\":1723:1857   */\n      swap2\n      swap1\n      pop\n      jump\t// out\n        /* \"#utility.yul\":1863:2022   */\n    tag_200:\n        /* \"#utility.yul\":1938:1947   */\n      0x00\n        /* \"#utility.yul\":1971:2016   */\n      tag_245\n        /* \"#utility.yul\":2010:2015   */\n      dup3\n        /* \"#utility.yul\":1971:2016   */\n      tag_199\n      jump\t// in\n    tag_245:\n        /* \"#utility.yul\":1958:2016   */\n      swap1\n      pop\n        /* \"#utility.yul\":1863:2022   */\n      swap2\n      swap1\n      pop\n      jump\t// out\n        /* \"#utility.yul\":2028:2209   */\n    tag_201:\n        /* \"#utility.yul\":2140:2202   */\n      tag_247\n        /* \"#utility.yul\":2196:2201   */\n      dup2\n        /* \"#utility.yul\":2140:2202   */\n      tag_200\n      jump\t// in\n    tag_247:\n        /* \"#utility.yul\":2135:2138   */\n      dup3\n        /* \"#utility.yul\":2128:2203   */\n      mstore\n        /* \"#utility.yul\":2028:2209   */\n      pop\n      pop\n      jump\t// out\n        /* \"#utility.yul\":2215:2487   */\n    tag_32:\n        /* \"#utility.yul\":2333:2337   */\n      0x00\n        /* \"#utility.yul\":2371:2373   */\n      0x20\n        /* \"#utility.yul\":2360:2369   */\n      dup3\n        /* \"#utility.yul\":2356:2374   */\n      add\n        /* \"#utility.yul\":2348:2374   */\n      swap1\n      pop\n        /* \"#utility.yul\":2384:2480   */\n      tag_249\n        /* \"#utility.yul\":2477:2478   */\n      0x00\n        /* \"#utility.yul\":2466:2475   */\n      dup4\n        /* \"#utility.yul\":2462:2479   */\n      add\n        /* \"#utility.yul\":2453:2459   */\n      dup5\n        /* \"#utility.yul\":2384:2480   */\n      tag_201\n      jump\t// in\n    tag_249:\n        /* \"#utility.yul\":2215:2487   */\n      swap3\n      swap2\n      pop\n      pop\n      jump\t// out\n        /* \"#utility.yul\":2493:2589   */\n    tag_202:\n        /* \"#utility.yul\":2530:2537   */\n      0x00\n        /* \"#utility.yul\":2559:2583   */\n      tag_251\n        /* \"#utility.yul\":2577:2582   */\n      dup3\n        /* \"#utility.yul\":2559:2583   */\n      tag_196\n      jump\t// in\n    tag_251:\n        /* \"#utility.yul\":2548:2583   */\n      swap1\n      pop\n        /* \"#utility.yul\":2493:2589   */\n      swap2\n      swap1\n      pop\n      jump\t// out\n        /* \"#utility.yul\":2595:2717   */\n    tag_203:\n        /* \"#utility.yul\":2668:2692   */\n      tag_253\n        /* \"#utility.yul\":2686:2691   */\n      dup2\n        /* \"#utility.yul\":2668:2692   */\n      tag_202\n      jump\t// in\n    tag_253:\n        /* \"#utility.yul\":2661:2666   */\n      dup2\n        /* \"#utility.yul\":2658:2693   */\n      eq\n        /* \"#utility.yul\":2648:2711   */\n      tag_254\n      jumpi\n        /* \"#utility.yul\":2707:2708   */\n      0x00\n        /* \"#utility.yul\":2704:2705   */\n      dup1\n        /* \"#utility.yul\":2697:2709   */\n      revert\n        /* \"#utility.yul\":2648:2711   */\n    tag_254:\n        /* \"#utility.yul\":2595:2717   */\n      pop\n      jump\t// out\n        /* \"#utility.yul\":2723:2862   */\n    tag_204:\n        /* \"#utility.yul\":2769:2774   */\n      0x00\n        /* \"#utility.yul\":2807:2813   */\n      dup2\n        /* \"#utility.yul\":2794:2814   */\n      calldataload\n        /* \"#utility.yul\":2785:2814   */\n      swap1\n      pop\n        /* \"#utility.yul\":2823:2856   */\n      tag_256\n        /* \"#utility.yul\":2850:2855   */\n      dup2\n        /* \"#utility.yul\":2823:2856   */\n      tag_203\n      jump\t// in\n    tag_256:\n        /* \"#utility.yul\":2723:2862   */\n      swap3\n      swap2\n      pop\n      pop\n      jump\t// out\n        /* \"#utility.yul\":2868:3197   */\n    tag_41:\n        /* \"#utility.yul\":2927:2933   */\n      0x00\n        /* \"#utility.yul\":2976:2978   */\n      0x20\n        /* \"#utility.yul\":2964:2973   */\n      dup3\n        /* \"#utility.yul\":2955:2962   */\n      dup5\n        /* \"#utility.yul\":2951:2974   */\n      sub\n        /* \"#utility.yul\":2947:2979   */\n      slt\n        /* \"#utility.yul\":2944:3063   */\n      iszero\n      tag_258\n      jumpi\n        /* \"#utility.yul\":2982:3061   */\n      tag_259\n      tag_190\n      jump\t// in\n    tag_259:\n        /* \"#utility.yul\":2944:3063   */\n    tag_258:\n        /* \"#utility.yul\":3102:3103   */\n      0x00\n        /* \"#utility.yul\":3127:3180   */\n      tag_260\n        /* \"#utility.yul\":3172:3179   */\n      dup5\n        /* \"#utility.yul\":3163:3169   */\n      dup3\n        /* \"#utility.yul\":3152:3161   */\n      dup6\n        /* \"#utility.yul\":3148:3170   */\n      add\n        /* \"#utility.yul\":3127:3180   */\n      tag_204\n      jump\t// in\n    tag_260:\n        /* \"#utility.yul\":3117:3180   */\n      swap2\n      pop\n        /* \"#utility.yul\":3073:3190   */\n      pop\n        /* \"#utility.yul\":2868:3197   */\n      swap3\n      swap2\n      pop\n      pop\n      jump\t// out\n        /* \"#utility.yul\":3203:3317   */\n    tag_205:\n        /* \"#utility.yul\":3270:3276   */\n      0x00\n        /* \"#utility.yul\":3304:3309   */\n      dup2\n        /* \"#utility.yul\":3298:3310   */\n      mload\n        /* \"#utility.yul\":3288:3310   */\n      swap1\n      pop\n        /* \"#utility.yul\":3203:3317   */\n      swap2\n      swap1\n      pop\n      jump\t// out\n        /* \"#utility.yul\":3323:3507   */\n    tag_206:\n        /* \"#utility.yul\":3422:3433   */\n      0x00\n        /* \"#utility.yul\":3456:3462   */\n      dup3\n        /* \"#utility.yul\":3451:3454   */\n      dup3\n        /* \"#utility.yul\":3444:3463   */\n      mstore\n        /* \"#utility.yul\":3496:3500   */\n      0x20\n        /* \"#utility.yul\":3491:3494   */\n      dup3\n        /* \"#utility.yul\":3487:3501   */\n      add\n        /* \"#utility.yul\":3472:3501   */\n      swap1\n      pop\n        /* \"#utility.yul\":3323:3507   */\n      swap3\n      swap2\n      pop\n      pop\n      jump\t// out\n        /* \"#utility.yul\":3513:3645   */\n    tag_207:\n        /* \"#utility.yul\":3580:3584   */\n      0x00\n        /* \"#utility.yul\":3603:3606   */\n      dup2\n        /* \"#utility.yul\":3595:3606   */\n      swap1\n      pop\n        /* \"#utility.yul\":3633:3637   */\n      0x20\n        /* \"#utility.yul\":3628:3631   */\n      dup3\n        /* \"#utility.yul\":3624:3638   */\n      add\n        /* \"#utility.yul\":3616:3638   */\n      swap1\n      pop\n        /* \"#utility.yul\":3513:3645   */\n      swap2\n      swap1\n      pop\n      jump\t// out\n        /* \"#utility.yul\":3651:3759   */\n    tag_208:\n        /* \"#utility.yul\":3728:3752   */\n      tag_265\n        /* \"#utility.yul\":3746:3751   */\n      dup2\n        /* \"#utility.yul\":3728:3752   */\n      tag_192\n      jump\t// in\n    tag_265:\n        /* \"#utility.yul\":3723:3726   */\n      dup3\n        /* \"#utility.yul\":3716:3753   */\n      mstore\n        /* \"#utility.yul\":3651:3759   */\n      pop\n      pop\n      jump\t// out\n        /* \"#utility.yul\":3765:3944   */\n    tag_209:\n        /* \"#utility.yul\":3834:3844   */\n      0x00\n        /* \"#utility.yul\":3855:3901   */\n      tag_267\n        /* \"#utility.yul\":3897:3900   */\n      dup4\n        /* \"#utility.yul\":3889:3895   */\n      dup4\n        /* \"#utility.yul\":3855:3901   */\n      tag_208\n      jump\t// in\n    tag_267:\n        /* \"#utility.yul\":3933:3937   */\n      0x20\n        /* \"#utility.yul\":3928:3931   */\n      dup4\n        /* \"#utility.yul\":3924:3938   */\n      add\n        /* \"#utility.yul\":3910:3938   */\n      swap1\n      pop\n        /* \"#utility.yul\":3765:3944   */\n      swap3\n      swap2\n      pop\n      pop\n      jump\t// out\n        /* \"#utility.yul\":3950:4063   */\n    tag_210:\n        /* \"#utility.yul\":4020:4024   */\n      0x00\n        /* \"#utility.yul\":4052:4056   */\n      0x20\n        /* \"#utility.yul\":4047:4050   */\n      dup3\n        /* \"#utility.yul\":4043:4057   */\n      add\n        /* \"#utility.yul\":4035:4057   */\n      swap1\n      pop\n        /* \"#utility.yul\":3950:4063   */\n      swap2\n      swap1\n      pop\n      jump\t// out\n        /* \"#utility.yul\":4099:4831   */\n    tag_211:\n        /* \"#utility.yul\":4218:4221   */\n      0x00\n        /* \"#utility.yul\":4247:4301   */\n      tag_270\n        /* \"#utility.yul\":4295:4300   */\n      dup3\n        /* \"#utility.yul\":4247:4301   */\n      tag_205\n      jump\t// in\n    tag_270:\n        /* \"#utility.yul\":4317:4403   */\n      tag_271\n        /* \"#utility.yul\":4396:4402   */\n      dup2\n        /* \"#utility.yul\":4391:4394   */\n      dup6\n        /* \"#utility.yul\":4317:4403   */\n      tag_206\n      jump\t// in\n    tag_271:\n        /* \"#utility.yul\":4310:4403   */\n      swap4\n      pop\n        /* \"#utility.yul\":4427:4483   */\n      tag_272\n        /* \"#utility.yul\":4477:4482   */\n      dup4\n        /* \"#utility.yul\":4427:4483   */\n      tag_207\n      jump\t// in\n    tag_272:\n        /* \"#utility.yul\":4506:4513   */\n      dup1\n        /* \"#utility.yul\":4537:4538   */\n      0x00\n        /* \"#utility.yul\":4522:4806   */\n    tag_273:\n        /* \"#utility.yul\":4547:4553   */\n      dup4\n        /* \"#utility.yul\":4544:4545   */\n      dup2\n        /* \"#utility.yul\":4541:4554   */\n      lt\n        /* \"#utility.yul\":4522:4806   */\n      iszero\n      tag_275\n      jumpi\n        /* \"#utility.yul\":4623:4629   */\n      dup2\n        /* \"#utility.yul\":4617:4630   */\n      mload\n        /* \"#utility.yul\":4650:4713   */\n      tag_276\n        /* \"#utility.yul\":4709:4712   */\n      dup9\n        /* \"#utility.yul\":4694:4707   */\n      dup3\n        /* \"#utility.yul\":4650:4713   */\n      tag_209\n      jump\t// in\n    tag_276:\n        /* \"#utility.yul\":4643:4713   */\n      swap8\n      pop\n        /* \"#utility.yul\":4736:4796   */\n      tag_277\n        /* \"#utility.yul\":4789:4795   */\n      dup4\n        /* \"#utility.yul\":4736:4796   */\n      tag_210\n      jump\t// in\n    tag_277:\n        /* \"#utility.yul\":4726:4796   */\n      swap3\n      pop\n        /* \"#utility.yul\":4582:4806   */\n      pop\n        /* \"#utility.yul\":4569:4570   */\n      0x01\n        /* \"#utility.yul\":4566:4567   */\n      dup2\n        /* \"#utility.yul\":4562:4571   */\n      add\n        /* \"#utility.yul\":4557:4571   */\n      swap1\n      pop\n        /* \"#utility.yul\":4522:4806   */\n      jump(tag_273)\n    tag_275:\n        /* \"#utility.yul\":4526:4540   */\n      pop\n        /* \"#utility.yul\":4822:4825   */\n      dup6\n        /* \"#utility.yul\":4815:4825   */\n      swap4\n      pop\n        /* \"#utility.yul\":4223:4831   */\n      pop\n      pop\n      pop\n        /* \"#utility.yul\":4099:4831   */\n      swap3\n      swap2\n      pop\n      pop\n      jump\t// out\n        /* \"#utility.yul\":4837:5210   */\n    tag_44:\n        /* \"#utility.yul\":4980:4984   */\n      0x00\n        /* \"#utility.yul\":5018:5020   */\n      0x20\n        /* \"#utility.yul\":5007:5016   */\n      dup3\n        /* \"#utility.yul\":5003:5021   */\n      add\n        /* \"#utility.yul\":4995:5021   */\n      swap1\n      pop\n        /* \"#utility.yul\":5067:5076   */\n      dup2\n        /* \"#utility.yul\":5061:5065   */\n      dup2\n        /* \"#utility.yul\":5057:5077   */\n      sub\n        /* \"#utility.yul\":5053:5054   */\n      0x00\n        /* \"#utility.yul\":5042:5051   */\n      dup4\n        /* \"#utility.yul\":5038:5055   */\n      add\n        /* \"#utility.yul\":5031:5078   */\n      mstore\n        /* \"#utility.yul\":5095:5203   */\n      tag_279\n        /* \"#utility.yul\":5198:5202   */\n      dup2\n        /* \"#utility.yul\":5189:5195   */\n      dup5\n        /* \"#utility.yul\":5095:5203   */\n      tag_211\n      jump\t// in\n    tag_279:\n        /* \"#utility.yul\":5087:5203   */\n      swap1\n      pop\n        /* \"#utility.yul\":4837:5210   */\n      swap3\n      swap2\n      pop\n      pop\n      jump\t// out\n        /* \"#utility.yul\":5216:5334   */\n    tag_212:\n        /* \"#utility.yul\":5303:5327   */\n      tag_281\n        /* \"#utility.yul\":5321:5326   */\n      dup2\n        /* \"#utility.yul\":5303:5327   */\n      tag_202\n      jump\t// in\n    tag_281:\n        /* \"#utility.yul\":5298:5301   */\n      dup3\n        /* \"#utility.yul\":5291:5328   */\n      mstore\n        /* \"#utility.yul\":5216:5334   */\n      pop\n      pop\n      jump\t// out\n        /* \"#utility.yul\":5340:5562   */\n    tag_55:\n        /* \"#utility.yul\":5433:5437   */\n      0x00\n        /* \"#utility.yul\":5471:5473   */\n      0x20\n        /* \"#utility.yul\":5460:5469   */\n      dup3\n        /* \"#utility.yul\":5456:5474   */\n      add\n        /* \"#utility.yul\":5448:5474   */\n      swap1\n      pop\n        /* \"#utility.yul\":5484:5555   */\n      tag_283\n        /* \"#utility.yul\":5552:5553   */\n      0x00\n        /* \"#utility.yul\":5541:5550   */\n      dup4\n        /* \"#utility.yul\":5537:5554   */\n      add\n        /* \"#utility.yul\":5528:5534   */\n      dup5\n        /* \"#utility.yul\":5484:5555   */\n      tag_212\n      jump\t// in\n    tag_283:\n        /* \"#utility.yul\":5340:5562   */\n      swap3\n      swap2\n      pop\n      pop\n      jump\t// out\n        /* \"#utility.yul\":5568:6333   */\n    tag_76:\n        /* \"#utility.yul\":5654:5660   */\n      0x00\n        /* \"#utility.yul\":5662:5668   */\n      dup1\n        /* \"#utility.yul\":5670:5676   */\n      0x00\n        /* \"#utility.yul\":5678:5684   */\n      dup1\n        /* \"#utility.yul\":5727:5730   */\n      0x80\n        /* \"#utility.yul\":5715:5724   */\n      dup6\n        /* \"#utility.yul\":5706:5713   */\n      dup8\n        /* \"#utility.yul\":5702:5725   */\n      sub\n        /* \"#utility.yul\":5698:5731   */\n      slt\n        /* \"#utility.yul\":5695:5815   */\n      iszero\n      tag_285\n      jumpi\n        /* \"#utility.yul\":5734:5813   */\n      tag_286\n      tag_190\n      jump\t// in\n    tag_286:\n        /* \"#utility.yul\":5695:5815   */\n    tag_285:\n        /* \"#utility.yul\":5854:5855   */\n      0x00\n        /* \"#utility.yul\":5879:5932   */\n      tag_287\n        /* \"#utility.yul\":5924:5931   */\n      dup8\n        /* \"#utility.yul\":5915:5921   */\n      dup3\n        /* \"#utility.yul\":5904:5913   */\n      dup9\n        /* \"#utility.yul\":5900:5922   */\n      add\n        /* \"#utility.yul\":5879:5932   */\n      tag_204\n      jump\t// in\n    tag_287:\n        /* \"#utility.yul\":5869:5932   */\n      swap5\n      pop\n        /* \"#utility.yul\":5825:5942   */\n      pop\n        /* \"#utility.yul\":5981:5983   */\n      0x20\n        /* \"#utility.yul\":6007:6060   */\n      tag_288\n        /* \"#utility.yul\":6052:6059   */\n      dup8\n        /* \"#utility.yul\":6043:6049   */\n      dup3\n        /* \"#utility.yul\":6032:6041   */\n      dup9\n        /* \"#utility.yul\":6028:6050   */\n      add\n        /* \"#utility.yul\":6007:6060   */\n      tag_194\n      jump\t// in\n    tag_288:\n        /* \"#utility.yul\":5997:6060   */\n      swap4\n      pop\n        /* \"#utility.yul\":5952:6070   */\n      pop\n        /* \"#utility.yul\":6109:6111   */\n      0x40\n        /* \"#utility.yul\":6135:6188   */\n      tag_289\n        /* \"#utility.yul\":6180:6187   */\n      dup8\n        /* \"#utility.yul\":6171:6177   */\n      dup3\n        /* \"#utility.yul\":6160:6169   */\n      dup9\n        /* \"#utility.yul\":6156:6178   */\n      add\n        /* \"#utility.yul\":6135:6188   */\n      tag_194\n      jump\t// in\n    tag_289:\n        /* \"#utility.yul\":6125:6188   */\n      swap3\n      pop\n        /* \"#utility.yul\":6080:6198   */\n      pop\n        /* \"#utility.yul\":6237:6239   */\n      0x60\n        /* \"#utility.yul\":6263:6316   */\n      tag_290\n        /* \"#utility.yul\":6308:6315   */\n      dup8\n        /* \"#utility.yul\":6299:6305   */\n      dup3\n        /* \"#utility.yul\":6288:6297   */\n      dup9\n        /* \"#utility.yul\":6284:6306   */\n      add\n        /* \"#utility.yul\":6263:6316   */\n      tag_194\n      jump\t// in\n    tag_290:\n        /* \"#utility.yul\":6253:6316   */\n      swap2\n      pop\n        /* \"#utility.yul\":6208:6326   */\n      pop\n        /* \"#utility.yul\":5568:6333   */\n      swap3\n      swap6\n      swap2\n      swap5\n      pop\n      swap3\n      pop\n      jump\t// out\n        /* \"#utility.yul\":6339:6519   */\n    tag_82:\n        /* \"#utility.yul\":6387:6464   */\n      0x4e487b7100000000000000000000000000000000000000000000000000000000\n        /* \"#utility.yul\":6384:6385   */\n      0x00\n        /* \"#utility.yul\":6377:6465   */\n      mstore\n        /* \"#utility.yul\":6484:6488   */\n      0x32\n        /* \"#utility.yul\":6481:6482   */\n      0x04\n        /* \"#utility.yul\":6474:6489   */\n      mstore\n        /* \"#utility.yul\":6508:6512   */\n      0x24\n        /* \"#utility.yul\":6505:6506   */\n      0x00\n        /* \"#utility.yul\":6498:6513   */\n      revert\n        /* \"#utility.yul\":6525:6668   */\n    tag_213:\n        /* \"#utility.yul\":6582:6587   */\n      0x00\n        /* \"#utility.yul\":6613:6619   */\n      dup2\n        /* \"#utility.yul\":6607:6620   */\n      mload\n        /* \"#utility.yul\":6598:6620   */\n      swap1\n      pop\n        /* \"#utility.yul\":6629:6662   */\n      tag_293\n        /* \"#utility.yul\":6656:6661   */\n      dup2\n        /* \"#utility.yul\":6629:6662   */\n      tag_193\n      jump\t// in\n    tag_293:\n        /* \"#utility.yul\":6525:6668   */\n      swap3\n      swap2\n      pop\n      pop\n      jump\t// out\n        /* \"#utility.yul\":6674:7025   */\n    tag_87:\n        /* \"#utility.yul\":6744:6750   */\n      0x00\n        /* \"#utility.yul\":6793:6795   */\n      0x20\n        /* \"#utility.yul\":6781:6790   */\n      dup3\n        /* \"#utility.yul\":6772:6779   */\n      dup5\n        /* \"#utility.yul\":6768:6791   */\n      sub\n        /* \"#utility.yul\":6764:6796   */\n      slt\n        /* \"#utility.yul\":6761:6880   */\n      iszero\n      tag_295\n      jumpi\n        /* \"#utility.yul\":6799:6878   */\n      tag_296\n      tag_190\n      jump\t// in\n    tag_296:\n        /* \"#utility.yul\":6761:6880   */\n    tag_295:\n        /* \"#utility.yul\":6919:6920   */\n      0x00\n        /* \"#utility.yul\":6944:7008   */\n      tag_297\n        /* \"#utility.yul\":7000:7007   */\n      dup5\n        /* \"#utility.yul\":6991:6997   */\n      dup3\n        /* \"#utility.yul\":6980:6989   */\n      dup6\n        /* \"#utility.yul\":6976:6998   */\n      add\n        /* \"#utility.yul\":6944:7008   */\n      tag_213\n      jump\t// in\n    tag_297:\n        /* \"#utility.yul\":6934:7008   */\n      swap2\n      pop\n        /* \"#utility.yul\":6890:7018   */\n      pop\n        /* \"#utility.yul\":6674:7025   */\n      swap3\n      swap2\n      pop\n      pop\n      jump\t// out\n        /* \"#utility.yul\":7031:7211   */\n    tag_107:\n        /* \"#utility.yul\":7079:7156   */\n      0x4e487b7100000000000000000000000000000000000000000000000000000000\n        /* \"#utility.yul\":7076:7077   */\n      0x00\n        /* \"#utility.yul\":7069:7157   */\n      mstore\n        /* \"#utility.yul\":7176:7180   */\n      0x41\n        /* \"#utility.yul\":7173:7174   */\n      0x04\n        /* \"#utility.yul\":7166:7181   */\n      mstore\n        /* \"#utility.yul\":7200:7204   */\n      0x24\n        /* \"#utility.yul\":7197:7198   */\n      0x00\n        /* \"#utility.yul\":7190:7205   */\n      revert\n        /* \"#utility.yul\":7217:7360   */\n    tag_214:\n        /* \"#utility.yul\":7274:7279   */\n      0x00\n        /* \"#utility.yul\":7305:7311   */\n      dup2\n        /* \"#utility.yul\":7299:7312   */\n      mload\n        /* \"#utility.yul\":7290:7312   */\n      swap1\n      pop\n        /* \"#utility.yul\":7321:7354   */\n      tag_300\n        /* \"#utility.yul\":7348:7353   */\n      dup2\n        /* \"#utility.yul\":7321:7354   */\n      tag_203\n      jump\t// in\n    tag_300:\n        /* \"#utility.yul\":7217:7360   */\n      swap3\n      swap2\n      pop\n      pop\n      jump\t// out\n        /* \"#utility.yul\":7366:7717   */\n    tag_118:\n        /* \"#utility.yul\":7436:7442   */\n      0x00\n        /* \"#utility.yul\":7485:7487   */\n      0x20\n        /* \"#utility.yul\":7473:7482   */\n      dup3\n        /* \"#utility.yul\":7464:7471   */\n      dup5\n        /* \"#utility.yul\":7460:7483   */\n      sub\n        /* \"#utility.yul\":7456:7488   */\n      slt\n        /* \"#utility.yul\":7453:7572   */\n      iszero\n      tag_302\n      jumpi\n        /* \"#utility.yul\":7491:7570   */\n      tag_303\n      tag_190\n      jump\t// in\n    tag_303:\n        /* \"#utility.yul\":7453:7572   */\n    tag_302:\n        /* \"#utility.yul\":7611:7612   */\n      0x00\n        /* \"#utility.yul\":7636:7700   */\n      tag_304\n        /* \"#utility.yul\":7692:7699   */\n      dup5\n        /* \"#utility.yul\":7683:7689   */\n      dup3\n        /* \"#utility.yul\":7672:7681   */\n      dup6\n        /* \"#utility.yul\":7668:7690   */\n      add\n        /* \"#utility.yul\":7636:7700   */\n      tag_214\n      jump\t// in\n    tag_304:\n        /* \"#utility.yul\":7626:7700   */\n      swap2\n      pop\n        /* \"#utility.yul\":7582:7710   */\n      pop\n        /* \"#utility.yul\":7366:7717   */\n      swap3\n      swap2\n      pop\n      pop\n      jump\t// out\n        /* \"#utility.yul\":7723:7903   */\n    tag_215:\n        /* \"#utility.yul\":7771:7848   */\n      0x4e487b7100000000000000000000000000000000000000000000000000000000\n        /* \"#utility.yul\":7768:7769   */\n      0x00\n        /* \"#utility.yul\":7761:7849   */\n      mstore\n        /* \"#utility.yul\":7868:7872   */\n      0x11\n        /* \"#utility.yul\":7865:7866   */\n      0x04\n        /* \"#utility.yul\":7858:7873   */\n      mstore\n        /* \"#utility.yul\":7892:7896   */\n      0x24\n        /* \"#utility.yul\":7889:7890   */\n      0x00\n        /* \"#utility.yul\":7882:7897   */\n      revert\n        /* \"#utility.yul\":7909:8142   */\n    tag_123:\n        /* \"#utility.yul\":7948:7951   */\n      0x00\n        /* \"#utility.yul\":7971:7995   */\n      tag_307\n        /* \"#utility.yul\":7989:7994   */\n      dup3\n        /* \"#utility.yul\":7971:7995   */\n      tag_192\n      jump\t// in\n    tag_307:\n        /* \"#utility.yul\":7962:7995   */\n      swap2\n      pop\n        /* \"#utility.yul\":8017:8083   */\n      0xffffffffffffffffffffffffffffffffffffffffffffffffffffffffffffffff\n        /* \"#utility.yul\":8010:8015   */\n      dup3\n        /* \"#utility.yul\":8007:8084   */\n      sub\n        /* \"#utility.yul\":8004:8107   */\n      tag_308\n      jumpi\n        /* \"#utility.yul\":8087:8105   */\n      tag_309\n      tag_215\n      jump\t// in\n    tag_309:\n        /* \"#utility.yul\":8004:8107   */\n    tag_308:\n        /* \"#utility.yul\":8134:8135   */\n      0x01\n        /* \"#utility.yul\":8127:8132   */\n      dup3\n        /* \"#utility.yul\":8123:8136   */\n      add\n        /* \"#utility.yul\":8116:8136   */\n      swap1\n      pop\n        /* \"#utility.yul\":7909:8142   */\n      swap2\n      swap1\n      pop\n      jump\t// out\n        /* \"#utility.yul\":8148:8252   */\n    tag_216:\n        /* \"#utility.yul\":8193:8200   */\n      0x00\n        /* \"#utility.yul\":8222:8246   */\n      tag_311\n        /* \"#utility.yul\":8240:8245   */\n      dup3\n        /* \"#utility.yul\":8222:8246   */\n      tag_196\n      jump\t// in\n    tag_311:\n        /* \"#utility.yul\":8211:8246   */\n      swap1\n      pop\n        /* \"#utility.yul\":8148:8252   */\n      swap2\n      swap1\n      pop\n      jump\t// out\n        /* \"#utility.yul\":8258:8400   */\n    tag_217:\n        /* \"#utility.yul\":8361:8393   */\n      tag_313\n        /* \"#utility.yul\":8387:8392   */\n      dup2\n        /* \"#utility.yul\":8361:8393   */\n      tag_216\n      jump\t// in\n    tag_313:\n        /* \"#utility.yul\":8356:8359   */\n      dup3\n        /* \"#utility.yul\":8349:8394   */\n      mstore\n        /* \"#utility.yul\":8258:8400   */\n      pop\n      pop\n      jump\t// out\n        /* \"#utility.yul\":8406:9134   */\n    tag_184:\n        /* \"#utility.yul\":8643:8647   */\n      0x00\n        /* \"#utility.yul\":8681:8684   */\n      0xa0\n        /* \"#utility.yul\":8670:8679   */\n      dup3\n        /* \"#utility.yul\":8666:8685   */\n      add\n        /* \"#utility.yul\":8658:8685   */\n      swap1\n      pop\n        /* \"#utility.yul\":8695:8782   */\n      tag_315\n        /* \"#utility.yul\":8779:8780   */\n      0x00\n        /* \"#utility.yul\":8768:8777   */\n      dup4\n        /* \"#utility.yul\":8764:8781   */\n      add\n        /* \"#utility.yul\":8755:8761   */\n      dup9\n        /* \"#utility.yul\":8695:8782   */\n      tag_217\n      jump\t// in\n    tag_315:\n        /* \"#utility.yul\":8792:8880   */\n      tag_316\n        /* \"#utility.yul\":8876:8878   */\n      0x20\n        /* \"#utility.yul\":8865:8874   */\n      dup4\n        /* \"#utility.yul\":8861:8879   */\n      add\n        /* \"#utility.yul\":8852:8858   */\n      dup8\n        /* \"#utility.yul\":8792:8880   */\n      tag_217\n      jump\t// in\n    tag_316:\n        /* \"#utility.yul\":8890:8962   */\n      tag_317\n        /* \"#utility.yul\":8958:8960   */\n      0x40\n        /* \"#utility.yul\":8947:8956   */\n      dup4\n        /* \"#utility.yul\":8943:8961   */\n      add\n        /* \"#utility.yul\":8934:8940   */\n      dup7\n        /* \"#utility.yul\":8890:8962   */\n      tag_195\n      jump\t// in\n    tag_317:\n        /* \"#utility.yul\":8972:9044   */\n      tag_318\n        /* \"#utility.yul\":9040:9042   */\n      0x60\n        /* \"#utility.yul\":9029:9038   */\n      dup4\n        /* \"#utility.yul\":9025:9043   */\n      add\n        /* \"#utility.yul\":9016:9022   */\n      dup6\n        /* \"#utility.yul\":8972:9044   */\n      tag_195\n      jump\t// in\n    tag_318:\n        /* \"#utility.yul\":9054:9127   */\n      tag_319\n        /* \"#utility.yul\":9122:9125   */\n      0x80\n        /* \"#utility.yul\":9111:9120   */\n      dup4\n        /* \"#utility.yul\":9107:9126   */\n      add\n        /* \"#utility.yul\":9098:9104   */\n      dup5\n        /* \"#utility.yul\":9054:9127   */\n      tag_195\n      jump\t// in\n    tag_319:\n        /* \"#utility.yul\":8406:9134   */\n      swap7\n      swap6\n      pop\n      pop\n      pop\n      pop\n      pop\n      pop\n      jump\t// out\n        /* \"#utility.yul\":9140:9472   */\n    tag_188:\n        /* \"#utility.yul\":9261:9265   */\n      0x00\n        /* \"#utility.yul\":9299:9301   */\n      0x40\n        /* \"#utility.yul\":9288:9297   */\n      dup3\n        /* \"#utility.yul\":9284:9302   */\n      add\n        /* \"#utility.yul\":9276:9302   */\n      swap1\n      pop\n        /* \"#utility.yul\":9312:9383   */\n      tag_321\n        /* \"#utility.yul\":9380:9381   */\n      0x00\n        /* \"#utility.yul\":9369:9378   */\n      dup4\n        /* \"#utility.yul\":9365:9382   */\n      add\n        /* \"#utility.yul\":9356:9362   */\n      dup6\n        /* \"#utility.yul\":9312:9383   */\n      tag_212\n      jump\t// in\n    tag_321:\n        /* \"#utility.yul\":9393:9465   */\n      tag_322\n        /* \"#utility.yul\":9461:9463   */\n      0x20\n        /* \"#utility.yul\":9450:9459   */\n      dup4\n        /* \"#utility.yul\":9446:9464   */\n      add\n        /* \"#utility.yul\":9437:9443   */\n      dup5\n        /* \"#utility.yul\":9393:9465   */\n      tag_212\n      jump\t// in\n    tag_322:\n        /* \"#utility.yul\":9140:9472   */\n      swap4\n      swap3\n      pop\n      pop\n      pop\n      jump\t// out\n    stop\n\n    sub_0: assembly {\n            /* \"contracts/MoneyLock.sol\":150:3562  contract MoneyLock is ReentrancyGuard {... */\n          mstore(0x40, 0x80)\n            /* \"contracts/MoneyLock.sol\":913:1475  constructor(address payable _owner, address payable _taker, uint256 _securityDeposit, uint256 _endDate, uint256 _daysForWithdrawal) {... */\n          callvalue\n          dup1\n          iszero\n          tag_1\n          jumpi\n          0x00\n          dup1\n          revert\n        tag_1:\n          pop\n          mload(0x40)\n          sub(codesize, bytecodeSize)\n          dup1\n          bytecodeSize\n          dup4\n          codecopy\n          dup2\n          dup2\n          add\n          0x40\n          mstore\n          dup2\n          add\n          swap1\n          tag_2\n          swap2\n          swap1\n          tag_3\n          jump\t// in\n        tag_2:\n            /* \"@openzeppelin/contracts/security/ReentrancyGuard.sol\":1716:1717  1 */\n          0x01\n            /* \"@openzeppelin/contracts/security/ReentrancyGuard.sol\":1821:1828  _status */\n          0x00\n            /* \"@openzeppelin/contracts/security/ReentrancyGuard.sol\":1821:1843  _status = _NOT_ENTERED */\n          dup2\n          swap1\n          sstore\n          pop\n            /* \"contracts/MoneyLock.sol\":1107:1113  _owner */\n          dup5\n            /* \"contracts/MoneyLock.sol\":1099:1104  owner */\n          0x01\n          0x00\n            /* \"contracts/MoneyLock.sol\":1099:1113  owner = _owner */\n          0x0100\n          exp\n          dup2\n          sload\n          dup2\n          0xffffffffffffffffffffffffffffffffffffffff\n          mul\n          not\n          and\n          swap1\n          dup4\n          0xffffffffffffffffffffffffffffffffffffffff\n          and\n          mul\n          or\n          swap1\n          sstore\n          pop\n            /* \"contracts/MoneyLock.sol\":1175:1181  _taker */\n          dup4\n            /* \"contracts/MoneyLock.sol\":1167:1172  taker */\n          0x02\n          0x00\n            /* \"contracts/MoneyLock.sol\":1167:1181  taker = _taker */\n          0x0100\n          exp\n          dup2\n          sload\n          dup2\n          0xffffffffffffffffffffffffffffffffffffffff\n          mul\n          not\n          and\n          swap1\n          dup4\n          0xffffffffffffffffffffffffffffffffffffffff\n          and\n          mul\n          or\n          swap1\n          sstore\n          pop\n            /* \"contracts/MoneyLock.sol\":1256:1272  _securityDeposit */\n          dup3\n            /* \"contracts/MoneyLock.sol\":1238:1253  securityDeposit */\n          0x03\n            /* \"contracts/MoneyLock.sol\":1238:1272  securityDeposit = _securityDeposit */\n          dup2\n          swap1\n          sstore\n          pop\n            /* \"contracts/MoneyLock.sol\":1341:1349  _endDate */\n          dup2\n            /* \"contracts/MoneyLock.sol\":1331:1338  endDate */\n          0x04\n            /* \"contracts/MoneyLock.sol\":1331:1349  endDate = _endDate */\n          dup2\n          swap1\n          sstore\n          pop\n            /* \"contracts/MoneyLock.sol\":1449:1467  _daysForWithdrawal */\n          dup1\n            /* \"contracts/MoneyLock.sol\":1429:1446  daysForWithdrawal */\n          0x05\n            /* \"contracts/MoneyLock.sol\":1429:1467  daysForWithdrawal = _daysForWithdrawal */\n          dup2\n          swap1\n          sstore\n          pop\n            /* \"contracts/MoneyLock.sol\":913:1475  constructor(address payable _owner, address payable _taker, uint256 _securityDeposit, uint256 _endDate, uint256 _daysForWithdrawal) {... */\n          pop\n          pop\n          pop\n          pop\n          pop\n            /* \"contracts/MoneyLock.sol\":150:3562  contract MoneyLock is ReentrancyGuard {... */\n          jump(tag_8)\n            /* \"#utility.yul\":88:205   */\n        tag_10:\n            /* \"#utility.yul\":197:198   */\n          0x00\n            /* \"#utility.yul\":194:195   */\n          dup1\n            /* \"#utility.yul\":187:199   */\n          revert\n            /* \"#utility.yul\":334:460   */\n        tag_12:\n            /* \"#utility.yul\":371:378   */\n          0x00\n            /* \"#utility.yul\":411:453   */\n          0xffffffffffffffffffffffffffffffffffffffff\n            /* \"#utility.yul\":404:409   */\n          dup3\n            /* \"#utility.yul\":400:454   */\n          and\n            /* \"#utility.yul\":389:454   */\n          swap1\n          pop\n            /* \"#utility.yul\":334:460   */\n          swap2\n          swap1\n          pop\n          jump\t// out\n            /* \"#utility.yul\":466:570   */\n        tag_13:\n            /* \"#utility.yul\":511:518   */\n          0x00\n            /* \"#utility.yul\":540:564   */\n          tag_25\n            /* \"#utility.yul\":558:563   */\n          dup3\n            /* \"#utility.yul\":540:564   */\n          tag_12\n          jump\t// in\n        tag_25:\n            /* \"#utility.yul\":529:564   */\n          swap1\n          pop\n            /* \"#utility.yul\":466:570   */\n          swap2\n          swap1\n          pop\n          jump\t// out\n            /* \"#utility.yul\":576:714   */\n        tag_14:\n            /* \"#utility.yul\":657:689   */\n          tag_27\n            /* \"#utility.yul\":683:688   */\n          dup2\n            /* \"#utility.yul\":657:689   */\n          tag_13\n          jump\t// in\n        tag_27:\n            /* \"#utility.yul\":650:655   */\n          dup2\n            /* \"#utility.yul\":647:690   */\n          eq\n            /* \"#utility.yul\":637:708   */\n          tag_28\n          jumpi\n            /* \"#utility.yul\":704:705   */\n          0x00\n            /* \"#utility.yul\":701:702   */\n          dup1\n            /* \"#utility.yul\":694:706   */\n          revert\n            /* \"#utility.yul\":637:708   */\n        tag_28:\n            /* \"#utility.yul\":576:714   */\n          pop\n          jump\t// out\n            /* \"#utility.yul\":720:879   */\n        tag_15:\n            /* \"#utility.yul\":785:790   */\n          0x00\n            /* \"#utility.yul\":816:822   */\n          dup2\n            /* \"#utility.yul\":810:823   */\n          mload\n            /* \"#utility.yul\":801:823   */\n          swap1\n          pop\n            /* \"#utility.yul\":832:873   */\n          tag_30\n            /* \"#utility.yul\":867:872   */\n          dup2\n            /* \"#utility.yul\":832:873   */\n          tag_14\n          jump\t// in\n        tag_30:\n            /* \"#utility.yul\":720:879   */\n          swap3\n          swap2\n          pop\n          pop\n          jump\t// out\n            /* \"#utility.yul\":885:962   */\n        tag_16:\n            /* \"#utility.yul\":922:929   */\n          0x00\n            /* \"#utility.yul\":951:956   */\n          dup2\n            /* \"#utility.yul\":940:956   */\n          swap1\n          pop\n            /* \"#utility.yul\":885:962   */\n          swap2\n          swap1\n          pop\n          jump\t// out\n            /* \"#utility.yul\":968:1090   */\n        tag_17:\n            /* \"#utility.yul\":1041:1065   */\n          tag_33\n            /* \"#utility.yul\":1059:1064   */\n          dup2\n            /* \"#utility.yul\":1041:1065   */\n          tag_16\n          jump\t// in\n        tag_33:\n            /* \"#utility.yul\":1034:1039   */\n          dup2\n            /* \"#utility.yul\":1031:1066   */\n          eq\n            /* \"#utility.yul\":1021:1084   */\n          tag_34\n          jumpi\n            /* \"#utility.yul\":1080:1081   */\n          0x00\n            /* \"#utility.yul\":1077:1078   */\n          dup1\n            /* \"#utility.yul\":1070:1082   */\n          revert\n            /* \"#utility.yul\":1021:1084   */\n        tag_34:\n            /* \"#utility.yul\":968:1090   */\n          pop\n          jump\t// out\n            /* \"#utility.yul\":1096:1239   */\n        tag_18:\n            /* \"#utility.yul\":1153:1158   */\n          0x00\n            /* \"#utility.yul\":1184:1190   */\n          dup2\n            /* \"#utility.yul\":1178:1191   */\n          mload\n            /* \"#utility.yul\":1169:1191   */\n          swap1\n          pop\n            /* \"#utility.yul\":1200:1233   */\n          tag_36\n            /* \"#utility.yul\":1227:1232   */\n          dup2\n            /* \"#utility.yul\":1200:1233   */\n          tag_17\n          jump\t// in\n        tag_36:\n            /* \"#utility.yul\":1096:1239   */\n          swap3\n          swap2\n          pop\n          pop\n          jump\t// out\n            /* \"#utility.yul\":1245:2254   */\n        tag_3:\n            /* \"#utility.yul\":1367:1373   */\n          0x00\n            /* \"#utility.yul\":1375:1381   */\n          dup1\n            /* \"#utility.yul\":1383:1389   */\n          0x00\n            /* \"#utility.yul\":1391:1397   */\n          dup1\n            /* \"#utility.yul\":1399:1405   */\n          0x00\n            /* \"#utility.yul\":1448:1451   */\n          0xa0\n            /* \"#utility.yul\":1436:1445   */\n          dup7\n            /* \"#utility.yul\":1427:1434   */\n          dup9\n            /* \"#utility.yul\":1423:1446   */\n          sub\n            /* \"#utility.yul\":1419:1452   */\n          slt\n            /* \"#utility.yul\":1416:1536   */\n          iszero\n          tag_38\n          jumpi\n            /* \"#utility.yul\":1455:1534   */\n          tag_39\n          tag_10\n          jump\t// in\n        tag_39:\n            /* \"#utility.yul\":1416:1536   */\n        tag_38:\n            /* \"#utility.yul\":1575:1576   */\n          0x00\n            /* \"#utility.yul\":1600:1672   */\n          tag_40\n            /* \"#utility.yul\":1664:1671   */\n          dup9\n            /* \"#utility.yul\":1655:1661   */\n          dup3\n            /* \"#utility.yul\":1644:1653   */\n          dup10\n            /* \"#utility.yul\":1640:1662   */\n          add\n            /* \"#utility.yul\":1600:1672   */\n          tag_15\n          jump\t// in\n        tag_40:\n            /* \"#utility.yul\":1590:1672   */\n          swap6\n          pop\n            /* \"#utility.yul\":1546:1682   */\n          pop\n            /* \"#utility.yul\":1721:1723   */\n          0x20\n            /* \"#utility.yul\":1747:1819   */\n          tag_41\n            /* \"#utility.yul\":1811:1818   */\n          dup9\n            /* \"#utility.yul\":1802:1808   */\n          dup3\n            /* \"#utility.yul\":1791:1800   */\n          dup10\n            /* \"#utility.yul\":1787:1809   */\n          add\n            /* \"#utility.yul\":1747:1819   */\n          tag_15\n          jump\t// in\n        tag_41:\n            /* \"#utility.yul\":1737:1819   */\n          swap5\n          pop\n            /* \"#utility.yul\":1692:1829   */\n          pop\n            /* \"#utility.yul\":1868:1870   */\n          0x40\n            /* \"#utility.yul\":1894:1958   */\n          tag_42\n            /* \"#utility.yul\":1950:1957   */\n          dup9\n            /* \"#utility.yul\":1941:1947   */\n          dup3\n            /* \"#utility.yul\":1930:1939   */\n          dup10\n            /* \"#utility.yul\":1926:1948   */\n          add\n            /* \"#utility.yul\":1894:1958   */\n          tag_18\n          jump\t// in\n        tag_42:\n            /* \"#utility.yul\":1884:1958   */\n          swap4\n          pop\n            /* \"#utility.yul\":1839:1968   */\n          pop\n            /* \"#utility.yul\":2007:2009   */\n          0x60\n            /* \"#utility.yul\":2033:2097   */\n          tag_43\n            /* \"#utility.yul\":2089:2096   */\n          dup9\n            /* \"#utility.yul\":2080:2086   */\n          dup3\n            /* \"#utility.yul\":2069:2078   */\n          dup10\n            /* \"#utility.yul\":2065:2087   */\n          add\n            /* \"#utility.yul\":2033:2097   */\n          tag_18\n          jump\t// in\n        tag_43:\n            /* \"#utility.yul\":2023:2097   */\n          swap3\n          pop\n            /* \"#utility.yul\":1978:2107   */\n          pop\n            /* \"#utility.yul\":2146:2149   */\n          0x80\n            /* \"#utility.yul\":2173:2237   */\n          tag_44\n            /* \"#utility.yul\":2229:2236   */\n          dup9\n            /* \"#utility.yul\":2220:2226   */\n          dup3\n            /* \"#utility.yul\":2209:2218   */\n          dup10\n            /* \"#utility.yul\":2205:2227   */\n          add\n            /* \"#utility.yul\":2173:2237   */\n          tag_18\n          jump\t// in\n        tag_44:\n            /* \"#utility.yul\":2163:2237   */\n          swap2\n          pop\n            /* \"#utility.yul\":2117:2247   */\n          pop\n            /* \"#utility.yul\":1245:2254   */\n          swap3\n          swap6\n          pop\n          swap3\n          swap6\n          swap1\n          swap4\n          pop\n          jump\t// out\n            /* \"contracts/MoneyLock.sol\":150:3562  contract MoneyLock is ReentrancyGuard {... */\n        tag_8:\n          dataSize(sub_0)\n          dup1\n          dataOffset(sub_0)\n          0x00\n          codecopy\n          0x00\n          return\n        stop\n\n        sub_0: assembly {\n                /* \"contracts/MoneyLock.sol\":150:3562  contract MoneyLock is ReentrancyGuard {... */\n              mstore(0x40, 0x80)\n              jumpi(tag_1, lt(calldatasize, 0x04))\n              shr(0xe0, calldataload(0x00))\n              dup1\n              0x94a927fe\n              gt\n              tag_15\n              jumpi\n              dup1\n              0x94a927fe\n              eq\n              tag_9\n              jumpi\n              dup1\n              0xa2093d81\n              eq\n              tag_10\n              jumpi\n              dup1\n              0xaee8ff45\n              eq\n              tag_11\n              jumpi\n              dup1\n              0xc24a0f8b\n              eq\n              tag_12\n              jumpi\n              dup1\n              0xdb292621\n              eq\n              tag_13\n              jumpi\n              dup1\n              0xf340fa01\n              eq\n              tag_14\n              jumpi\n              jump(tag_2)\n            tag_15:\n              dup1\n              0x220e5ab3\n              eq\n              tag_3\n              jumpi\n              dup1\n              0x31658e32\n              eq\n              tag_4\n              jumpi\n              dup1\n              0x36359265\n              eq\n              tag_5\n              jumpi\n              dup1\n              0x51cff8d9\n              eq\n              tag_6\n              jumpi\n              dup1\n              0x6d5e7a15\n              eq\n              tag_7\n              jumpi\n              dup1\n              0x83abb1d5\n              eq\n              tag_8\n              jumpi\n              jump(tag_2)\n            tag_1:\n              jumpi(tag_2, calldatasize)\n                /* \"contracts/MoneyLock.sol\":1708:1718  msg.sender */\n              caller\n                /* \"contracts/MoneyLock.sol\":1685:1730  Deposit(address(this), msg.sender, msg.value) */\n              0xffffffffffffffffffffffffffffffffffffffff\n              and\n                /* \"contracts/MoneyLock.sol\":1701:1705  this */\n              address\n                /* \"contracts/MoneyLock.sol\":1685:1730  Deposit(address(this), msg.sender, msg.value) */\n              0xffffffffffffffffffffffffffffffffffffffff\n              and\n              0x5548c837ab068cf56a2c2479df0882a4922fd203edb7517321831d95078c5f62\n                /* \"contracts/MoneyLock.sol\":1720:1729  msg.value */\n              callvalue\n                /* \"contracts/MoneyLock.sol\":1685:1730  Deposit(address(this), msg.sender, msg.value) */\n              mload(0x40)\n              tag_18\n              swap2\n              swap1\n              tag_19\n              jump\t// in\n            tag_18:\n              mload(0x40)\n              dup1\n              swap2\n              sub\n              swap1\n              log3\n                /* \"contracts/MoneyLock.sol\":150:3562  contract MoneyLock is ReentrancyGuard {... */\n              stop\n            tag_2:\n                /* \"contracts/MoneyLock.sol\":1578:1588  msg.sender */\n              caller\n                /* \"contracts/MoneyLock.sol\":1555:1600  Deposit(address(this), msg.sender, msg.value) */\n              0xffffffffffffffffffffffffffffffffffffffff\n              and\n                /* \"contracts/MoneyLock.sol\":1571:1575  this */\n              address\n                /* \"contracts/MoneyLock.sol\":1555:1600  Deposit(address(this), msg.sender, msg.value) */\n              0xffffffffffffffffffffffffffffffffffffffff\n              and\n              0x5548c837ab068cf56a2c2479df0882a4922fd203edb7517321831d95078c5f62\n                /* \"contracts/MoneyLock.sol\":1590:1599  msg.value */\n              callvalue\n                /* \"contracts/MoneyLock.sol\":1555:1600  Deposit(address(this), msg.sender, msg.value) */\n              mload(0x40)\n              tag_22\n              swap2\n              swap1\n              tag_19\n              jump\t// in\n            tag_22:\n              mload(0x40)\n              dup1\n              swap2\n              sub\n              swap1\n              log3\n                /* \"contracts/MoneyLock.sol\":150:3562  contract MoneyLock is ReentrancyGuard {... */\n              stop\n                /* \"contracts/MoneyLock.sol\":379:409  uint256 public securityDeposit */\n            tag_3:\n              callvalue\n              dup1\n              iszero\n              tag_23\n              jumpi\n              0x00\n              dup1\n              revert\n            tag_23:\n              pop\n              tag_24\n              tag_25\n              jump\t// in\n            tag_24:\n              mload(0x40)\n              tag_26\n              swap2\n              swap1\n              tag_19\n              jump\t// in\n            tag_26:\n              mload(0x40)\n              dup1\n              swap2\n              sub\n              swap1\n              return\n                /* \"contracts/MoneyLock.sol\":3454:3557  function returnDaysForWithdrawal() public view returns(uint){... */\n            tag_4:\n              callvalue\n              dup1\n              iszero\n              tag_27\n              jumpi\n              0x00\n              dup1\n              revert\n            tag_27:\n              pop\n              tag_28\n              tag_29\n              jump\t// in\n            tag_28:\n              mload(0x40)\n              tag_30\n              swap2\n              swap1\n              tag_19\n              jump\t// in\n            tag_30:\n              mload(0x40)\n              dup1\n              swap2\n              sub\n              swap1\n              return\n                /* \"contracts/MoneyLock.sol\":3363:3446  function returnEndDate() public view returns(uint){... */\n            tag_5:\n              callvalue\n              dup1\n              iszero\n              tag_31\n              jumpi\n              0x00\n              dup1\n              revert\n            tag_31:\n              pop\n              tag_32\n              tag_33\n              jump\t// in\n            tag_32:\n              mload(0x40)\n              tag_34\n              swap2\n              swap1\n              tag_19\n              jump\t// in\n            tag_34:\n              mload(0x40)\n              dup1\n              swap2\n              sub\n              swap1\n              return\n                /* \"contracts/MoneyLock.sol\":2096:2958  function withdraw(address _user) external payable nonReentrant {... */\n            tag_6:\n              tag_35\n              0x04\n              dup1\n              calldatasize\n              sub\n              dup2\n              add\n              swap1\n              tag_36\n              swap2\n              swap1\n              tag_37\n              jump\t// in\n            tag_36:\n              tag_38\n              jump\t// in\n            tag_35:\n              stop\n                /* \"contracts/MoneyLock.sol\":534:566  uint256 public daysForWithdrawal */\n            tag_7:\n              callvalue\n              dup1\n              iszero\n              tag_39\n              jumpi\n              0x00\n              dup1\n              revert\n            tag_39:\n              pop\n              tag_40\n              tag_41\n              jump\t// in\n            tag_40:\n              mload(0x40)\n              tag_42\n              swap2\n              swap1\n              tag_19\n              jump\t// in\n            tag_42:\n              mload(0x40)\n              dup1\n              swap2\n              sub\n              swap1\n              return\n                /* \"contracts/MoneyLock.sol\":594:621  uint256 public takerBalance */\n            tag_8:\n              callvalue\n              dup1\n              iszero\n              tag_43\n              jumpi\n              0x00\n              dup1\n              revert\n            tag_43:\n              pop\n              tag_44\n              tag_45\n              jump\t// in\n            tag_44:\n              mload(0x40)\n              tag_46\n              swap2\n              swap1\n              tag_19\n              jump\t// in\n            tag_46:\n              mload(0x40)\n              dup1\n              swap2\n              sub\n              swap1\n              return\n                /* \"contracts/MoneyLock.sol\":2969:3051  function returnOwner() public view returns(address){... */\n            tag_9:\n              callvalue\n              dup1\n              iszero\n              tag_47\n              jumpi\n              0x00\n              dup1\n              revert\n            tag_47:\n              pop\n              tag_48\n              tag_49\n              jump\t// in\n            tag_48:\n              mload(0x40)\n              tag_50\n              swap2\n              swap1\n              tag_51\n              jump\t// in\n            tag_50:\n              mload(0x40)\n              dup1\n              swap2\n              sub\n              swap1\n              return\n                /* \"contracts/MoneyLock.sol\":3149:3242  function returnTakerBalance() public view returns(uint){... */\n            tag_10:\n              callvalue\n              dup1\n              iszero\n              tag_52\n              jumpi\n              0x00\n              dup1\n              revert\n            tag_52:\n              pop\n              tag_53\n              tag_54\n              jump\t// in\n            tag_53:\n              mload(0x40)\n              tag_55\n              swap2\n              swap1\n              tag_19\n              jump\t// in\n            tag_55:\n              mload(0x40)\n              dup1\n              swap2\n              sub\n              swap1\n              return\n                /* \"contracts/MoneyLock.sol\":3059:3141  function returnTaker() public view returns(address){... */\n            tag_11:\n              callvalue\n              dup1\n              iszero\n              tag_56\n              jumpi\n              0x00\n              dup1\n              revert\n            tag_56:\n              pop\n              tag_57\n              tag_58\n              jump\t// in\n            tag_57:\n              mload(0x40)\n              tag_59\n              swap2\n              swap1\n              tag_51\n              jump\t// in\n            tag_59:\n              mload(0x40)\n              dup1\n              swap2\n              sub\n              swap1\n              return\n                /* \"contracts/MoneyLock.sol\":450:472  uint256 public endDate */\n            tag_12:\n              callvalue\n              dup1\n              iszero\n              tag_60\n              jumpi\n              0x00\n              dup1\n              revert\n            tag_60:\n              pop\n              tag_61\n              tag_62\n              jump\t// in\n            tag_61:\n              mload(0x40)\n              tag_63\n              swap2\n              swap1\n              tag_19\n              jump\t// in\n            tag_63:\n              mload(0x40)\n              dup1\n              swap2\n              sub\n              swap1\n              return\n                /* \"contracts/MoneyLock.sol\":3256:3355  function returnSecurityDeposit() public view returns(uint){... */\n            tag_13:\n              callvalue\n              dup1\n              iszero\n              tag_64\n              jumpi\n              0x00\n              dup1\n              revert\n            tag_64:\n              pop\n              tag_65\n              tag_66\n              jump\t// in\n            tag_65:\n              mload(0x40)\n              tag_67\n              swap2\n              swap1\n              tag_19\n              jump\t// in\n            tag_67:\n              mload(0x40)\n              dup1\n              swap2\n              sub\n              swap1\n              return\n                /* \"contracts/MoneyLock.sol\":1798:2012  function deposit(address _taker) external payable {... */\n            tag_14:\n              tag_68\n              0x04\n              dup1\n              calldatasize\n              sub\n              dup2\n              add\n              swap1\n              tag_69\n              swap2\n              swap1\n              tag_37\n              jump\t// in\n            tag_69:\n              tag_70\n              jump\t// in\n            tag_68:\n              stop\n                /* \"contracts/MoneyLock.sol\":379:409  uint256 public securityDeposit */\n            tag_25:\n              sload(0x03)\n              dup2\n              jump\t// out\n                /* \"contracts/MoneyLock.sol\":3454:3557  function returnDaysForWithdrawal() public view returns(uint){... */\n            tag_29:\n                /* \"contracts/MoneyLock.sol\":3509:3513  uint */\n              0x00\n                /* \"contracts/MoneyLock.sol\":3532:3549  daysForWithdrawal */\n              sload(0x05)\n                /* \"contracts/MoneyLock.sol\":3525:3549  return daysForWithdrawal */\n              swap1\n              pop\n                /* \"contracts/MoneyLock.sol\":3454:3557  function returnDaysForWithdrawal() public view returns(uint){... */\n              swap1\n              jump\t// out\n                /* \"contracts/MoneyLock.sol\":3363:3446  function returnEndDate() public view returns(uint){... */\n            tag_33:\n                /* \"contracts/MoneyLock.sol\":3408:3412  uint */\n              0x00\n                /* \"contracts/MoneyLock.sol\":3431:3438  endDate */\n              sload(0x04)\n                /* \"contracts/MoneyLock.sol\":3424:3438  return endDate */\n              swap1\n              pop\n                /* \"contracts/MoneyLock.sol\":3363:3446  function returnEndDate() public view returns(uint){... */\n              swap1\n              jump\t// out\n                /* \"contracts/MoneyLock.sol\":2096:2958  function withdraw(address _user) external payable nonReentrant {... */\n            tag_38:\n                /* \"@openzeppelin/contracts/security/ReentrancyGuard.sol\":2261:2282  _nonReentrantBefore() */\n              tag_74\n                /* \"@openzeppelin/contracts/security/ReentrancyGuard.sol\":2261:2280  _nonReentrantBefore */\n              tag_75\n                /* \"@openzeppelin/contracts/security/ReentrancyGuard.sol\":2261:2282  _nonReentrantBefore() */\n              jump\t// in\n            tag_74:\n                /* \"contracts/MoneyLock.sol\":2204:2205  0 */\n              0x00\n                /* \"contracts/MoneyLock.sol\":2179:2200  address(this).balance */\n              selfbalance\n                /* \"contracts/MoneyLock.sol\":2179:2205  address(this).balance != 0 */\n              sub\n                /* \"contracts/MoneyLock.sol\":2170:2235  require (address(this).balance != 0, \"Contract don't have funds\") */\n              tag_77\n              jumpi\n              mload(0x40)\n              0x08c379a000000000000000000000000000000000000000000000000000000000\n              dup2\n              mstore\n              0x04\n              add\n              tag_78\n              swap1\n              tag_79\n              jump\t// in\n            tag_78:\n              mload(0x40)\n              dup1\n              swap2\n              sub\n              swap1\n              revert\n            tag_77:\n                /* \"contracts/MoneyLock.sol\":2273:2280  endDate */\n              sload(0x04)\n                /* \"contracts/MoneyLock.sol\":2255:2270  block.timestamp */\n              timestamp\n                /* \"contracts/MoneyLock.sol\":2255:2280  block.timestamp < endDate */\n              lt\n                /* \"contracts/MoneyLock.sol\":2246:2305  require (block.timestamp < endDate, \"Time is not over yet\") */\n              tag_80\n              jumpi\n              mload(0x40)\n              0x08c379a000000000000000000000000000000000000000000000000000000000\n              dup2\n              mstore\n              0x04\n              add\n              tag_81\n              swap1\n              tag_82\n              jump\t// in\n            tag_81:\n              mload(0x40)\n              dup1\n              swap2\n              sub\n              swap1\n              revert\n            tag_80:\n                /* \"contracts/MoneyLock.sol\":2460:2467  endDate */\n              sload(0x04)\n                /* \"contracts/MoneyLock.sol\":2442:2457  block.timestamp */\n              timestamp\n                /* \"contracts/MoneyLock.sol\":2442:2467  block.timestamp > endDate */\n              gt\n                /* \"contracts/MoneyLock.sol\":2442:2527  block.timestamp > endDate && block.timestamp < endDate + (daysForWithdrawal * 1 days) */\n              dup1\n              iszero\n              tag_83\n              jumpi\n              pop\n                /* \"contracts/MoneyLock.sol\":2520:2526  1 days */\n              0x015180\n                /* \"contracts/MoneyLock.sol\":2500:2517  daysForWithdrawal */\n              sload(0x05)\n                /* \"contracts/MoneyLock.sol\":2500:2526  daysForWithdrawal * 1 days */\n              tag_84\n              swap2\n              swap1\n              tag_85\n              jump\t// in\n            tag_84:\n                /* \"contracts/MoneyLock.sol\":2489:2496  endDate */\n              sload(0x04)\n                /* \"contracts/MoneyLock.sol\":2489:2527  endDate + (daysForWithdrawal * 1 days) */\n              tag_86\n              swap2\n              swap1\n              tag_87\n              jump\t// in\n            tag_86:\n                /* \"contracts/MoneyLock.sol\":2471:2486  block.timestamp */\n              timestamp\n                /* \"contracts/MoneyLock.sol\":2471:2527  block.timestamp < endDate + (daysForWithdrawal * 1 days) */\n              lt\n                /* \"contracts/MoneyLock.sol\":2442:2527  block.timestamp > endDate && block.timestamp < endDate + (daysForWithdrawal * 1 days) */\n            tag_83:\n                /* \"contracts/MoneyLock.sol\":2438:2951  if (block.timestamp > endDate && block.timestamp < endDate + (daysForWithdrawal * 1 days)) {... */\n              iszero\n              tag_88\n              jumpi\n                /* \"contracts/MoneyLock.sol\":2562:2567  _user */\n              dup1\n                /* \"contracts/MoneyLock.sol\":2553:2567  owner == _user */\n              0xffffffffffffffffffffffffffffffffffffffff\n              and\n                /* \"contracts/MoneyLock.sol\":2553:2558  owner */\n              0x01\n              0x00\n              swap1\n              sload\n              swap1\n              0x0100\n              exp\n              swap1\n              div\n              0xffffffffffffffffffffffffffffffffffffffff\n              and\n                /* \"contracts/MoneyLock.sol\":2553:2567  owner == _user */\n              0xffffffffffffffffffffffffffffffffffffffff\n              and\n              eq\n                /* \"contracts/MoneyLock.sol\":2544:2593  require (owner == _user, \"You are not the owner\") */\n              tag_89\n              jumpi\n              mload(0x40)\n              0x08c379a000000000000000000000000000000000000000000000000000000000\n              dup2\n              mstore\n              0x04\n              add\n              tag_90\n              swap1\n              tag_91\n              jump\t// in\n            tag_90:\n              mload(0x40)\n              dup1\n              swap2\n              sub\n              swap1\n              revert\n            tag_89:\n                /* \"contracts/MoneyLock.sol\":2608:2613  owner */\n              0x01\n              0x00\n              swap1\n              sload\n              swap1\n              0x0100\n              exp\n              swap1\n              div\n              0xffffffffffffffffffffffffffffffffffffffff\n              and\n                /* \"contracts/MoneyLock.sol\":2608:2622  owner.transfer */\n              0xffffffffffffffffffffffffffffffffffffffff\n              and\n                /* \"contracts/MoneyLock.sol\":2608:2645  owner.transfer(address(this).balance) */\n              0x08fc\n                /* \"contracts/MoneyLock.sol\":2623:2644  address(this).balance */\n              selfbalance\n                /* \"contracts/MoneyLock.sol\":2608:2645  owner.transfer(address(this).balance) */\n              swap1\n              dup2\n              iszero\n              mul\n              swap1\n              mload(0x40)\n              0x00\n              mload(0x40)\n              dup1\n              dup4\n              sub\n              dup2\n              dup6\n              dup9\n              dup9\n              call\n              swap4\n              pop\n              pop\n              pop\n              pop\n              iszero\n              dup1\n              iszero\n              tag_93\n              jumpi\n              returndatasize\n              0x00\n              dup1\n              returndatacopy\n              revert(0x00, returndatasize)\n            tag_93:\n              pop\n                /* \"contracts/MoneyLock.sol\":2438:2951  if (block.timestamp > endDate && block.timestamp < endDate + (daysForWithdrawal * 1 days)) {... */\n              jump(tag_94)\n            tag_88:\n                /* \"contracts/MoneyLock.sol\":2814:2820  1 days */\n              0x015180\n                /* \"contracts/MoneyLock.sol\":2794:2811  daysForWithdrawal */\n              sload(0x05)\n                /* \"contracts/MoneyLock.sol\":2794:2820  daysForWithdrawal * 1 days */\n              tag_95\n              swap2\n              swap1\n              tag_85\n              jump\t// in\n            tag_95:\n                /* \"contracts/MoneyLock.sol\":2783:2790  endDate */\n              sload(0x04)\n                /* \"contracts/MoneyLock.sol\":2783:2821  endDate + (daysForWithdrawal * 1 days) */\n              tag_96\n              swap2\n              swap1\n              tag_87\n              jump\t// in\n            tag_96:\n                /* \"contracts/MoneyLock.sol\":2765:2780  block.timestamp */\n              timestamp\n                /* \"contracts/MoneyLock.sol\":2765:2821  block.timestamp > endDate + (daysForWithdrawal * 1 days) */\n              gt\n                /* \"contracts/MoneyLock.sol\":2760:2951  if  (block.timestamp > endDate + (daysForWithdrawal * 1 days)) {... */\n              iszero\n              tag_97\n              jumpi\n                /* \"contracts/MoneyLock.sol\":2856:2861  _user */\n              dup1\n                /* \"contracts/MoneyLock.sol\":2847:2861  taker == _user */\n              0xffffffffffffffffffffffffffffffffffffffff\n              and\n                /* \"contracts/MoneyLock.sol\":2847:2852  taker */\n              0x02\n              0x00\n              swap1\n              sload\n              swap1\n              0x0100\n              exp\n              swap1\n              div\n              0xffffffffffffffffffffffffffffffffffffffff\n              and\n                /* \"contracts/MoneyLock.sol\":2847:2861  taker == _user */\n              0xffffffffffffffffffffffffffffffffffffffff\n              and\n              eq\n                /* \"contracts/MoneyLock.sol\":2838:2887  require (taker == _user, \"You are not the taker\") */\n              tag_98\n              jumpi\n              mload(0x40)\n              0x08c379a000000000000000000000000000000000000000000000000000000000\n              dup2\n              mstore\n              0x04\n              add\n              tag_99\n              swap1\n              tag_100\n              jump\t// in\n            tag_99:\n              mload(0x40)\n              dup1\n              swap2\n              sub\n              swap1\n              revert\n            tag_98:\n                /* \"contracts/MoneyLock.sol\":2902:2907  taker */\n              0x02\n              0x00\n              swap1\n              sload\n              swap1\n              0x0100\n              exp\n              swap1\n              div\n              0xffffffffffffffffffffffffffffffffffffffff\n              and\n                /* \"contracts/MoneyLock.sol\":2902:2916  taker.transfer */\n              0xffffffffffffffffffffffffffffffffffffffff\n              and\n                /* \"contracts/MoneyLock.sol\":2902:2939  taker.transfer(address(this).balance) */\n              0x08fc\n                /* \"contracts/MoneyLock.sol\":2917:2938  address(this).balance */\n              selfbalance\n                /* \"contracts/MoneyLock.sol\":2902:2939  taker.transfer(address(this).balance) */\n              swap1\n              dup2\n              iszero\n              mul\n              swap1\n              mload(0x40)\n              0x00\n              mload(0x40)\n              dup1\n              dup4\n              sub\n              dup2\n              dup6\n              dup9\n              dup9\n              call\n              swap4\n              pop\n              pop\n              pop\n              pop\n              iszero\n              dup1\n              iszero\n              tag_102\n              jumpi\n              returndatasize\n              0x00\n              dup1\n              returndatacopy\n              revert(0x00, returndatasize)\n            tag_102:\n              pop\n                /* \"contracts/MoneyLock.sol\":2760:2951  if  (block.timestamp > endDate + (daysForWithdrawal * 1 days)) {... */\n            tag_97:\n                /* \"contracts/MoneyLock.sol\":2438:2951  if (block.timestamp > endDate && block.timestamp < endDate + (daysForWithdrawal * 1 days)) {... */\n            tag_94:\n                /* \"@openzeppelin/contracts/security/ReentrancyGuard.sol\":2303:2323  _nonReentrantAfter() */\n              tag_103\n                /* \"@openzeppelin/contracts/security/ReentrancyGuard.sol\":2303:2321  _nonReentrantAfter */\n              tag_104\n                /* \"@openzeppelin/contracts/security/ReentrancyGuard.sol\":2303:2323  _nonReentrantAfter() */\n              jump\t// in\n            tag_103:\n                /* \"contracts/MoneyLock.sol\":2096:2958  function withdraw(address _user) external payable nonReentrant {... */\n              pop\n              jump\t// out\n                /* \"contracts/MoneyLock.sol\":534:566  uint256 public daysForWithdrawal */\n            tag_41:\n              sload(0x05)\n              dup2\n              jump\t// out\n                /* \"contracts/MoneyLock.sol\":594:621  uint256 public takerBalance */\n            tag_45:\n              sload(0x06)\n              dup2\n              jump\t// out\n                /* \"contracts/MoneyLock.sol\":2969:3051  function returnOwner() public view returns(address){... */\n            tag_49:\n                /* \"contracts/MoneyLock.sol\":3012:3019  address */\n              0x00\n                /* \"contracts/MoneyLock.sol\":3038:3043  owner */\n              0x01\n              0x00\n              swap1\n              sload\n              swap1\n              0x0100\n              exp\n              swap1\n              div\n              0xffffffffffffffffffffffffffffffffffffffff\n              and\n                /* \"contracts/MoneyLock.sol\":3031:3043  return owner */\n              swap1\n              pop\n                /* \"contracts/MoneyLock.sol\":2969:3051  function returnOwner() public view returns(address){... */\n              swap1\n              jump\t// out\n                /* \"contracts/MoneyLock.sol\":3149:3242  function returnTakerBalance() public view returns(uint){... */\n            tag_54:\n                /* \"contracts/MoneyLock.sol\":3199:3203  uint */\n              0x00\n                /* \"contracts/MoneyLock.sol\":3222:3234  takerBalance */\n              sload(0x06)\n                /* \"contracts/MoneyLock.sol\":3215:3234  return takerBalance */\n              swap1\n              pop\n                /* \"contracts/MoneyLock.sol\":3149:3242  function returnTakerBalance() public view returns(uint){... */\n              swap1\n              jump\t// out\n                /* \"contracts/MoneyLock.sol\":3059:3141  function returnTaker() public view returns(address){... */\n            tag_58:\n                /* \"contracts/MoneyLock.sol\":3102:3109  address */\n              0x00\n                /* \"contracts/MoneyLock.sol\":3128:3133  taker */\n              0x02\n              0x00\n              swap1\n              sload\n              swap1\n              0x0100\n              exp\n              swap1\n              div\n              0xffffffffffffffffffffffffffffffffffffffff\n              and\n                /* \"contracts/MoneyLock.sol\":3121:3133  return taker */\n              swap1\n              pop\n                /* \"contracts/MoneyLock.sol\":3059:3141  function returnTaker() public view returns(address){... */\n              swap1\n              jump\t// out\n                /* \"contracts/MoneyLock.sol\":450:472  uint256 public endDate */\n            tag_62:\n              sload(0x04)\n              dup2\n              jump\t// out\n                /* \"contracts/MoneyLock.sol\":3256:3355  function returnSecurityDeposit() public view returns(uint){... */\n            tag_66:\n                /* \"contracts/MoneyLock.sol\":3309:3313  uint */\n              0x00\n                /* \"contracts/MoneyLock.sol\":3332:3347  securityDeposit */\n              sload(0x03)\n                /* \"contracts/MoneyLock.sol\":3325:3347  return securityDeposit */\n              swap1\n              pop\n                /* \"contracts/MoneyLock.sol\":3256:3355  function returnSecurityDeposit() public view returns(uint){... */\n              swap1\n              jump\t// out\n                /* \"contracts/MoneyLock.sol\":1798:2012  function deposit(address _taker) external payable {... */\n            tag_70:\n                /* \"contracts/MoneyLock.sol\":1877:1882  taker */\n              0x02\n              0x00\n              swap1\n              sload\n              swap1\n              0x0100\n              exp\n              swap1\n              div\n              0xffffffffffffffffffffffffffffffffffffffff\n              and\n                /* \"contracts/MoneyLock.sol\":1867:1882  _taker == taker */\n              0xffffffffffffffffffffffffffffffffffffffff\n              and\n                /* \"contracts/MoneyLock.sol\":1867:1873  _taker */\n              dup2\n                /* \"contracts/MoneyLock.sol\":1867:1882  _taker == taker */\n              0xffffffffffffffffffffffffffffffffffffffff\n              and\n              eq\n                /* \"contracts/MoneyLock.sol\":1859:1919  require(_taker == taker, \"Only the taker can deposit funds\") */\n              tag_110\n              jumpi\n              mload(0x40)\n              0x08c379a000000000000000000000000000000000000000000000000000000000\n              dup2\n              mstore\n              0x04\n              add\n              tag_111\n              swap1\n              tag_112\n              jump\t// in\n            tag_111:\n              mload(0x40)\n              dup1\n              swap2\n              sub\n              swap1\n              revert\n            tag_110:\n                /* \"contracts/MoneyLock.sol\":1946:1955  msg.value */\n              callvalue\n                /* \"contracts/MoneyLock.sol\":1930:1942  takerBalance */\n              0x06\n              0x00\n                /* \"contracts/MoneyLock.sol\":1930:1955  takerBalance += msg.value */\n              dup3\n              dup3\n              sload\n              tag_113\n              swap2\n              swap1\n              tag_87\n              jump\t// in\n            tag_113:\n              swap3\n              pop\n              pop\n              dup2\n              swap1\n              sstore\n              pop\n                /* \"contracts/MoneyLock.sol\":1986:1992  _taker */\n              dup1\n                /* \"contracts/MoneyLock.sol\":1971:2004  FundsDeposited(_taker, msg.value) */\n              0xffffffffffffffffffffffffffffffffffffffff\n              and\n              0x543ba50a5eec5e6178218e364b1d0f396157b3c8fa278522c2cb7fd99407d474\n                /* \"contracts/MoneyLock.sol\":1994:2003  msg.value */\n              callvalue\n                /* \"contracts/MoneyLock.sol\":1971:2004  FundsDeposited(_taker, msg.value) */\n              mload(0x40)\n              tag_114\n              swap2\n              swap1\n              tag_19\n              jump\t// in\n            tag_114:\n              mload(0x40)\n              dup1\n              swap2\n              sub\n              swap1\n              log2\n                /* \"contracts/MoneyLock.sol\":1798:2012  function deposit(address _taker) external payable {... */\n              pop\n              jump\t// out\n                /* \"@openzeppelin/contracts/security/ReentrancyGuard.sol\":2336:2623  function _nonReentrantBefore() private {... */\n            tag_75:\n                /* \"@openzeppelin/contracts/security/ReentrancyGuard.sol\":1759:1760  2 */\n              0x02\n                /* \"@openzeppelin/contracts/security/ReentrancyGuard.sol\":2468:2475  _status */\n              sload(0x00)\n                /* \"@openzeppelin/contracts/security/ReentrancyGuard.sol\":2468:2487  _status != _ENTERED */\n              sub\n                /* \"@openzeppelin/contracts/security/ReentrancyGuard.sol\":2460:2523  require(_status != _ENTERED, \"ReentrancyGuard: reentrant call\") */\n              tag_116\n              jumpi\n              mload(0x40)\n              0x08c379a000000000000000000000000000000000000000000000000000000000\n              dup2\n              mstore\n              0x04\n              add\n              tag_117\n              swap1\n              tag_118\n              jump\t// in\n            tag_117:\n              mload(0x40)\n              dup1\n              swap2\n              sub\n              swap1\n              revert\n            tag_116:\n                /* \"@openzeppelin/contracts/security/ReentrancyGuard.sol\":1759:1760  2 */\n              0x02\n                /* \"@openzeppelin/contracts/security/ReentrancyGuard.sol\":2598:2605  _status */\n              0x00\n                /* \"@openzeppelin/contracts/security/ReentrancyGuard.sol\":2598:2616  _status = _ENTERED */\n              dup2\n              swap1\n              sstore\n              pop\n                /* \"@openzeppelin/contracts/security/ReentrancyGuard.sol\":2336:2623  function _nonReentrantBefore() private {... */\n              jump\t// out\n                /* \"@openzeppelin/contracts/security/ReentrancyGuard.sol\":2629:2838  function _nonReentrantAfter() private {... */\n            tag_104:\n                /* \"@openzeppelin/contracts/security/ReentrancyGuard.sol\":1716:1717  1 */\n              0x01\n                /* \"@openzeppelin/contracts/security/ReentrancyGuard.sol\":2809:2816  _status */\n              0x00\n                /* \"@openzeppelin/contracts/security/ReentrancyGuard.sol\":2809:2831  _status = _NOT_ENTERED */\n              dup2\n              swap1\n              sstore\n              pop\n                /* \"@openzeppelin/contracts/security/ReentrancyGuard.sol\":2629:2838  function _nonReentrantAfter() private {... */\n              jump\t// out\n                /* \"#utility.yul\":7:84   */\n            tag_120:\n                /* \"#utility.yul\":44:51   */\n              0x00\n                /* \"#utility.yul\":73:78   */\n              dup2\n                /* \"#utility.yul\":62:78   */\n              swap1\n              pop\n                /* \"#utility.yul\":7:84   */\n              swap2\n              swap1\n              pop\n              jump\t// out\n                /* \"#utility.yul\":90:208   */\n            tag_121:\n                /* \"#utility.yul\":177:201   */\n              tag_147\n                /* \"#utility.yul\":195:200   */\n              dup2\n                /* \"#utility.yul\":177:201   */\n              tag_120\n              jump\t// in\n            tag_147:\n                /* \"#utility.yul\":172:175   */\n              dup3\n                /* \"#utility.yul\":165:202   */\n              mstore\n                /* \"#utility.yul\":90:208   */\n              pop\n              pop\n              jump\t// out\n                /* \"#utility.yul\":214:436   */\n            tag_19:\n                /* \"#utility.yul\":307:311   */\n              0x00\n                /* \"#utility.yul\":345:347   */\n              0x20\n                /* \"#utility.yul\":334:343   */\n              dup3\n                /* \"#utility.yul\":330:348   */\n              add\n                /* \"#utility.yul\":322:348   */\n              swap1\n              pop\n                /* \"#utility.yul\":358:429   */\n              tag_149\n                /* \"#utility.yul\":426:427   */\n              0x00\n                /* \"#utility.yul\":415:424   */\n              dup4\n                /* \"#utility.yul\":411:428   */\n              add\n                /* \"#utility.yul\":402:408   */\n              dup5\n                /* \"#utility.yul\":358:429   */\n              tag_121\n              jump\t// in\n            tag_149:\n                /* \"#utility.yul\":214:436   */\n              swap3\n              swap2\n              pop\n              pop\n              jump\t// out\n                /* \"#utility.yul\":523:640   */\n            tag_123:\n                /* \"#utility.yul\":632:633   */\n              0x00\n                /* \"#utility.yul\":629:630   */\n              dup1\n                /* \"#utility.yul\":622:634   */\n              revert\n                /* \"#utility.yul\":769:895   */\n            tag_125:\n                /* \"#utility.yul\":806:813   */\n              0x00\n                /* \"#utility.yul\":846:888   */\n              0xffffffffffffffffffffffffffffffffffffffff\n                /* \"#utility.yul\":839:844   */\n              dup3\n                /* \"#utility.yul\":835:889   */\n              and\n                /* \"#utility.yul\":824:889   */\n              swap1\n              pop\n                /* \"#utility.yul\":769:895   */\n              swap2\n              swap1\n              pop\n              jump\t// out\n                /* \"#utility.yul\":901:997   */\n            tag_126:\n                /* \"#utility.yul\":938:945   */\n              0x00\n                /* \"#utility.yul\":967:991   */\n              tag_155\n                /* \"#utility.yul\":985:990   */\n              dup3\n                /* \"#utility.yul\":967:991   */\n              tag_125\n              jump\t// in\n            tag_155:\n                /* \"#utility.yul\":956:991   */\n              swap1\n              pop\n                /* \"#utility.yul\":901:997   */\n              swap2\n              swap1\n              pop\n              jump\t// out\n                /* \"#utility.yul\":1003:1125   */\n            tag_127:\n                /* \"#utility.yul\":1076:1100   */\n              tag_157\n                /* \"#utility.yul\":1094:1099   */\n              dup2\n                /* \"#utility.yul\":1076:1100   */\n              tag_126\n              jump\t// in\n            tag_157:\n                /* \"#utility.yul\":1069:1074   */\n              dup2\n                /* \"#utility.yul\":1066:1101   */\n              eq\n                /* \"#utility.yul\":1056:1119   */\n              tag_158\n              jumpi\n                /* \"#utility.yul\":1115:1116   */\n              0x00\n                /* \"#utility.yul\":1112:1113   */\n              dup1\n                /* \"#utility.yul\":1105:1117   */\n              revert\n                /* \"#utility.yul\":1056:1119   */\n            tag_158:\n                /* \"#utility.yul\":1003:1125   */\n              pop\n              jump\t// out\n                /* \"#utility.yul\":1131:1270   */\n            tag_128:\n                /* \"#utility.yul\":1177:1182   */\n              0x00\n                /* \"#utility.yul\":1215:1221   */\n              dup2\n                /* \"#utility.yul\":1202:1222   */\n              calldataload\n                /* \"#utility.yul\":1193:1222   */\n              swap1\n              pop\n                /* \"#utility.yul\":1231:1264   */\n              tag_160\n                /* \"#utility.yul\":1258:1263   */\n              dup2\n                /* \"#utility.yul\":1231:1264   */\n              tag_127\n              jump\t// in\n            tag_160:\n                /* \"#utility.yul\":1131:1270   */\n              swap3\n              swap2\n              pop\n              pop\n              jump\t// out\n                /* \"#utility.yul\":1276:1605   */\n            tag_37:\n                /* \"#utility.yul\":1335:1341   */\n              0x00\n                /* \"#utility.yul\":1384:1386   */\n              0x20\n                /* \"#utility.yul\":1372:1381   */\n              dup3\n                /* \"#utility.yul\":1363:1370   */\n              dup5\n                /* \"#utility.yul\":1359:1382   */\n              sub\n                /* \"#utility.yul\":1355:1387   */\n              slt\n                /* \"#utility.yul\":1352:1471   */\n              iszero\n              tag_162\n              jumpi\n                /* \"#utility.yul\":1390:1469   */\n              tag_163\n              tag_123\n              jump\t// in\n            tag_163:\n                /* \"#utility.yul\":1352:1471   */\n            tag_162:\n                /* \"#utility.yul\":1510:1511   */\n              0x00\n                /* \"#utility.yul\":1535:1588   */\n              tag_164\n                /* \"#utility.yul\":1580:1587   */\n              dup5\n                /* \"#utility.yul\":1571:1577   */\n              dup3\n                /* \"#utility.yul\":1560:1569   */\n              dup6\n                /* \"#utility.yul\":1556:1578   */\n              add\n                /* \"#utility.yul\":1535:1588   */\n              tag_128\n              jump\t// in\n            tag_164:\n                /* \"#utility.yul\":1525:1588   */\n              swap2\n              pop\n                /* \"#utility.yul\":1481:1598   */\n              pop\n                /* \"#utility.yul\":1276:1605   */\n              swap3\n              swap2\n              pop\n              pop\n              jump\t// out\n                /* \"#utility.yul\":1611:1729   */\n            tag_129:\n                /* \"#utility.yul\":1698:1722   */\n              tag_166\n                /* \"#utility.yul\":1716:1721   */\n              dup2\n                /* \"#utility.yul\":1698:1722   */\n              tag_126\n              jump\t// in\n            tag_166:\n                /* \"#utility.yul\":1693:1696   */\n              dup3\n                /* \"#utility.yul\":1686:1723   */\n              mstore\n                /* \"#utility.yul\":1611:1729   */\n              pop\n              pop\n              jump\t// out\n                /* \"#utility.yul\":1735:1957   */\n            tag_51:\n                /* \"#utility.yul\":1828:1832   */\n              0x00\n                /* \"#utility.yul\":1866:1868   */\n              0x20\n                /* \"#utility.yul\":1855:1864   */\n              dup3\n                /* \"#utility.yul\":1851:1869   */\n              add\n                /* \"#utility.yul\":1843:1869   */\n              swap1\n              pop\n                /* \"#utility.yul\":1879:1950   */\n              tag_168\n                /* \"#utility.yul\":1947:1948   */\n              0x00\n                /* \"#utility.yul\":1936:1945   */\n              dup4\n                /* \"#utility.yul\":1932:1949   */\n              add\n                /* \"#utility.yul\":1923:1929   */\n              dup5\n                /* \"#utility.yul\":1879:1950   */\n              tag_129\n              jump\t// in\n            tag_168:\n                /* \"#utility.yul\":1735:1957   */\n              swap3\n              swap2\n              pop\n              pop\n              jump\t// out\n                /* \"#utility.yul\":1963:2132   */\n            tag_130:\n                /* \"#utility.yul\":2047:2058   */\n              0x00\n                /* \"#utility.yul\":2081:2087   */\n              dup3\n                /* \"#utility.yul\":2076:2079   */\n              dup3\n                /* \"#utility.yul\":2069:2088   */\n              mstore\n                /* \"#utility.yul\":2121:2125   */\n              0x20\n                /* \"#utility.yul\":2116:2119   */\n              dup3\n                /* \"#utility.yul\":2112:2126   */\n              add\n                /* \"#utility.yul\":2097:2126   */\n              swap1\n              pop\n                /* \"#utility.yul\":1963:2132   */\n              swap3\n              swap2\n              pop\n              pop\n              jump\t// out\n                /* \"#utility.yul\":2138:2313   */\n            tag_131:\n                /* \"#utility.yul\":2278:2305   */\n              0x436f6e747261637420646f6e277420686176652066756e647300000000000000\n                /* \"#utility.yul\":2274:2275   */\n              0x00\n                /* \"#utility.yul\":2266:2272   */\n              dup3\n                /* \"#utility.yul\":2262:2276   */\n              add\n                /* \"#utility.yul\":2255:2306   */\n              mstore\n                /* \"#utility.yul\":2138:2313   */\n              pop\n              jump\t// out\n                /* \"#utility.yul\":2319:2685   */\n            tag_132:\n                /* \"#utility.yul\":2461:2464   */\n              0x00\n                /* \"#utility.yul\":2482:2549   */\n              tag_172\n                /* \"#utility.yul\":2546:2548   */\n              0x19\n                /* \"#utility.yul\":2541:2544   */\n              dup4\n                /* \"#utility.yul\":2482:2549   */\n              tag_130\n              jump\t// in\n            tag_172:\n                /* \"#utility.yul\":2475:2549   */\n              swap2\n              pop\n                /* \"#utility.yul\":2558:2651   */\n              tag_173\n                /* \"#utility.yul\":2647:2650   */\n              dup3\n                /* \"#utility.yul\":2558:2651   */\n              tag_131\n              jump\t// in\n            tag_173:\n                /* \"#utility.yul\":2676:2678   */\n              0x20\n                /* \"#utility.yul\":2671:2674   */\n              dup3\n                /* \"#utility.yul\":2667:2679   */\n              add\n                /* \"#utility.yul\":2660:2679   */\n              swap1\n              pop\n                /* \"#utility.yul\":2319:2685   */\n              swap2\n              swap1\n              pop\n              jump\t// out\n                /* \"#utility.yul\":2691:3110   */\n            tag_79:\n                /* \"#utility.yul\":2857:2861   */\n              0x00\n                /* \"#utility.yul\":2895:2897   */\n              0x20\n                /* \"#utility.yul\":2884:2893   */\n              dup3\n                /* \"#utility.yul\":2880:2898   */\n              add\n                /* \"#utility.yul\":2872:2898   */\n              swap1\n              pop\n                /* \"#utility.yul\":2944:2953   */\n              dup2\n                /* \"#utility.yul\":2938:2942   */\n              dup2\n                /* \"#utility.yul\":2934:2954   */\n              sub\n                /* \"#utility.yul\":2930:2931   */\n              0x00\n                /* \"#utility.yul\":2919:2928   */\n              dup4\n                /* \"#utility.yul\":2915:2932   */\n              add\n                /* \"#utility.yul\":2908:2955   */\n              mstore\n                /* \"#utility.yul\":2972:3103   */\n              tag_175\n                /* \"#utility.yul\":3098:3102   */\n              dup2\n                /* \"#utility.yul\":2972:3103   */\n              tag_132\n              jump\t// in\n            tag_175:\n                /* \"#utility.yul\":2964:3103   */\n              swap1\n              pop\n                /* \"#utility.yul\":2691:3110   */\n              swap2\n              swap1\n              pop\n              jump\t// out\n                /* \"#utility.yul\":3116:3286   */\n            tag_133:\n                /* \"#utility.yul\":3256:3278   */\n              0x54696d65206973206e6f74206f76657220796574000000000000000000000000\n                /* \"#utility.yul\":3252:3253   */\n              0x00\n                /* \"#utility.yul\":3244:3250   */\n              dup3\n                /* \"#utility.yul\":3240:3254   */\n              add\n                /* \"#utility.yul\":3233:3279   */\n              mstore\n                /* \"#utility.yul\":3116:3286   */\n              pop\n              jump\t// out\n                /* \"#utility.yul\":3292:3658   */\n            tag_134:\n                /* \"#utility.yul\":3434:3437   */\n              0x00\n                /* \"#utility.yul\":3455:3522   */\n              tag_178\n                /* \"#utility.yul\":3519:3521   */\n              0x14\n                /* \"#utility.yul\":3514:3517   */\n              dup4\n                /* \"#utility.yul\":3455:3522   */\n              tag_130\n              jump\t// in\n            tag_178:\n                /* \"#utility.yul\":3448:3522   */\n              swap2\n              pop\n                /* \"#utility.yul\":3531:3624   */\n              tag_179\n                /* \"#utility.yul\":3620:3623   */\n              dup3\n                /* \"#utility.yul\":3531:3624   */\n              tag_133\n              jump\t// in\n            tag_179:\n                /* \"#utility.yul\":3649:3651   */\n              0x20\n                /* \"#utility.yul\":3644:3647   */\n              dup3\n                /* \"#utility.yul\":3640:3652   */\n              add\n                /* \"#utility.yul\":3633:3652   */\n              swap1\n              pop\n                /* \"#utility.yul\":3292:3658   */\n              swap2\n              swap1\n              pop\n              jump\t// out\n                /* \"#utility.yul\":3664:4083   */\n            tag_82:\n                /* \"#utility.yul\":3830:3834   */\n              0x00\n                /* \"#utility.yul\":3868:3870   */\n              0x20\n                /* \"#utility.yul\":3857:3866   */\n              dup3\n                /* \"#utility.yul\":3853:3871   */\n              add\n                /* \"#utility.yul\":3845:3871   */\n              swap1\n              pop\n                /* \"#utility.yul\":3917:3926   */\n              dup2\n                /* \"#utility.yul\":3911:3915   */\n              dup2\n                /* \"#utility.yul\":3907:3927   */\n              sub\n                /* \"#utility.yul\":3903:3904   */\n              0x00\n                /* \"#utility.yul\":3892:3901   */\n              dup4\n                /* \"#utility.yul\":3888:3905   */\n              add\n                /* \"#utility.yul\":3881:3928   */\n              mstore\n                /* \"#utility.yul\":3945:4076   */\n              tag_181\n                /* \"#utility.yul\":4071:4075   */\n              dup2\n                /* \"#utility.yul\":3945:4076   */\n              tag_134\n              jump\t// in\n            tag_181:\n                /* \"#utility.yul\":3937:4076   */\n              swap1\n              pop\n                /* \"#utility.yul\":3664:4083   */\n              swap2\n              swap1\n              pop\n              jump\t// out\n                /* \"#utility.yul\":4089:4269   */\n            tag_135:\n                /* \"#utility.yul\":4137:4214   */\n              0x4e487b7100000000000000000000000000000000000000000000000000000000\n                /* \"#utility.yul\":4134:4135   */\n              0x00\n                /* \"#utility.yul\":4127:4215   */\n              mstore\n                /* \"#utility.yul\":4234:4238   */\n              0x11\n                /* \"#utility.yul\":4231:4232   */\n              0x04\n                /* \"#utility.yul\":4224:4239   */\n              mstore\n                /* \"#utility.yul\":4258:4262   */\n              0x24\n                /* \"#utility.yul\":4255:4256   */\n              0x00\n                /* \"#utility.yul\":4248:4263   */\n              revert\n                /* \"#utility.yul\":4275:4685   */\n            tag_85:\n                /* \"#utility.yul\":4315:4322   */\n              0x00\n                /* \"#utility.yul\":4338:4358   */\n              tag_184\n                /* \"#utility.yul\":4356:4357   */\n              dup3\n                /* \"#utility.yul\":4338:4358   */\n              tag_120\n              jump\t// in\n            tag_184:\n                /* \"#utility.yul\":4333:4358   */\n              swap2\n              pop\n                /* \"#utility.yul\":4372:4392   */\n              tag_185\n                /* \"#utility.yul\":4390:4391   */\n              dup4\n                /* \"#utility.yul\":4372:4392   */\n              tag_120\n              jump\t// in\n            tag_185:\n                /* \"#utility.yul\":4367:4392   */\n              swap3\n              pop\n                /* \"#utility.yul\":4427:4428   */\n              dup3\n                /* \"#utility.yul\":4424:4425   */\n              dup3\n                /* \"#utility.yul\":4420:4429   */\n              mul\n                /* \"#utility.yul\":4449:4479   */\n              tag_186\n                /* \"#utility.yul\":4467:4478   */\n              dup2\n                /* \"#utility.yul\":4449:4479   */\n              tag_120\n              jump\t// in\n            tag_186:\n                /* \"#utility.yul\":4438:4479   */\n              swap2\n              pop\n                /* \"#utility.yul\":4628:4629   */\n              dup3\n                /* \"#utility.yul\":4619:4626   */\n              dup3\n                /* \"#utility.yul\":4615:4630   */\n              div\n                /* \"#utility.yul\":4612:4613   */\n              dup5\n                /* \"#utility.yul\":4609:4631   */\n              eq\n                /* \"#utility.yul\":4589:4590   */\n              dup4\n                /* \"#utility.yul\":4582:4591   */\n              iszero\n                /* \"#utility.yul\":4562:4645   */\n              or\n                /* \"#utility.yul\":4539:4678   */\n              tag_187\n              jumpi\n                /* \"#utility.yul\":4658:4676   */\n              tag_188\n              tag_135\n              jump\t// in\n            tag_188:\n                /* \"#utility.yul\":4539:4678   */\n            tag_187:\n                /* \"#utility.yul\":4323:4685   */\n              pop\n                /* \"#utility.yul\":4275:4685   */\n              swap3\n              swap2\n              pop\n              pop\n              jump\t// out\n                /* \"#utility.yul\":4691:4882   */\n            tag_87:\n                /* \"#utility.yul\":4731:4734   */\n              0x00\n                /* \"#utility.yul\":4750:4770   */\n              tag_190\n                /* \"#utility.yul\":4768:4769   */\n              dup3\n                /* \"#utility.yul\":4750:4770   */\n              tag_120\n              jump\t// in\n            tag_190:\n                /* \"#utility.yul\":4745:4770   */\n              swap2\n              pop\n                /* \"#utility.yul\":4784:4804   */\n              tag_191\n                /* \"#utility.yul\":4802:4803   */\n              dup4\n                /* \"#utility.yul\":4784:4804   */\n              tag_120\n              jump\t// in\n            tag_191:\n                /* \"#utility.yul\":4779:4804   */\n              swap3\n              pop\n                /* \"#utility.yul\":4827:4828   */\n              dup3\n                /* \"#utility.yul\":4824:4825   */\n              dup3\n                /* \"#utility.yul\":4820:4829   */\n              add\n                /* \"#utility.yul\":4813:4829   */\n              swap1\n              pop\n                /* \"#utility.yul\":4848:4851   */\n              dup1\n                /* \"#utility.yul\":4845:4846   */\n              dup3\n                /* \"#utility.yul\":4842:4852   */\n              gt\n                /* \"#utility.yul\":4839:4875   */\n              iszero\n              tag_192\n              jumpi\n                /* \"#utility.yul\":4855:4873   */\n              tag_193\n              tag_135\n              jump\t// in\n            tag_193:\n                /* \"#utility.yul\":4839:4875   */\n            tag_192:\n                /* \"#utility.yul\":4691:4882   */\n              swap3\n              swap2\n              pop\n              pop\n              jump\t// out\n                /* \"#utility.yul\":4888:5059   */\n            tag_136:\n                /* \"#utility.yul\":5028:5051   */\n              0x596f7520617265206e6f7420746865206f776e65720000000000000000000000\n                /* \"#utility.yul\":5024:5025   */\n              0x00\n                /* \"#utility.yul\":5016:5022   */\n              dup3\n                /* \"#utility.yul\":5012:5026   */\n              add\n                /* \"#utility.yul\":5005:5052   */\n              mstore\n                /* \"#utility.yul\":4888:5059   */\n              pop\n              jump\t// out\n                /* \"#utility.yul\":5065:5431   */\n            tag_137:\n                /* \"#utility.yul\":5207:5210   */\n              0x00\n                /* \"#utility.yul\":5228:5295   */\n              tag_196\n                /* \"#utility.yul\":5292:5294   */\n              0x15\n                /* \"#utility.yul\":5287:5290   */\n              dup4\n                /* \"#utility.yul\":5228:5295   */\n              tag_130\n              jump\t// in\n            tag_196:\n                /* \"#utility.yul\":5221:5295   */\n              swap2\n              pop\n                /* \"#utility.yul\":5304:5397   */\n              tag_197\n                /* \"#utility.yul\":5393:5396   */\n              dup3\n                /* \"#utility.yul\":5304:5397   */\n              tag_136\n              jump\t// in\n            tag_197:\n                /* \"#utility.yul\":5422:5424   */\n              0x20\n                /* \"#utility.yul\":5417:5420   */\n              dup3\n                /* \"#utility.yul\":5413:5425   */\n              add\n                /* \"#utility.yul\":5406:5425   */\n              swap1\n              pop\n                /* \"#utility.yul\":5065:5431   */\n              swap2\n              swap1\n              pop\n              jump\t// out\n                /* \"#utility.yul\":5437:5856   */\n            tag_91:\n                /* \"#utility.yul\":5603:5607   */\n              0x00\n                /* \"#utility.yul\":5641:5643   */\n              0x20\n                /* \"#utility.yul\":5630:5639   */\n              dup3\n                /* \"#utility.yul\":5626:5644   */\n              add\n                /* \"#utility.yul\":5618:5644   */\n              swap1\n              pop\n                /* \"#utility.yul\":5690:5699   */\n              dup2\n                /* \"#utility.yul\":5684:5688   */\n              dup2\n                /* \"#utility.yul\":5680:5700   */\n              sub\n                /* \"#utility.yul\":5676:5677   */\n              0x00\n                /* \"#utility.yul\":5665:5674   */\n              dup4\n                /* \"#utility.yul\":5661:5678   */\n              add\n                /* \"#utility.yul\":5654:5701   */\n              mstore\n                /* \"#utility.yul\":5718:5849   */\n              tag_199\n                /* \"#utility.yul\":5844:5848   */\n              dup2\n                /* \"#utility.yul\":5718:5849   */\n              tag_137\n              jump\t// in\n            tag_199:\n                /* \"#utility.yul\":5710:5849   */\n              swap1\n              pop\n                /* \"#utility.yul\":5437:5856   */\n              swap2\n              swap1\n              pop\n              jump\t// out\n                /* \"#utility.yul\":5862:6033   */\n            tag_138:\n                /* \"#utility.yul\":6002:6025   */\n              0x596f7520617265206e6f74207468652074616b65720000000000000000000000\n                /* \"#utility.yul\":5998:5999   */\n              0x00\n                /* \"#utility.yul\":5990:5996   */\n              dup3\n                /* \"#utility.yul\":5986:6000   */\n              add\n                /* \"#utility.yul\":5979:6026   */\n              mstore\n                /* \"#utility.yul\":5862:6033   */\n              pop\n              jump\t// out\n                /* \"#utility.yul\":6039:6405   */\n            tag_139:\n                /* \"#utility.yul\":6181:6184   */\n              0x00\n                /* \"#utility.yul\":6202:6269   */\n              tag_202\n                /* \"#utility.yul\":6266:6268   */\n              0x15\n                /* \"#utility.yul\":6261:6264   */\n              dup4\n                /* \"#utility.yul\":6202:6269   */\n              tag_130\n              jump\t// in\n            tag_202:\n                /* \"#utility.yul\":6195:6269   */\n              swap2\n              pop\n                /* \"#utility.yul\":6278:6371   */\n              tag_203\n                /* \"#utility.yul\":6367:6370   */\n              dup3\n                /* \"#utility.yul\":6278:6371   */\n              tag_138\n              jump\t// in\n            tag_203:\n                /* \"#utility.yul\":6396:6398   */\n              0x20\n                /* \"#utility.yul\":6391:6394   */\n              dup3\n                /* \"#utility.yul\":6387:6399   */\n              add\n                /* \"#utility.yul\":6380:6399   */\n              swap1\n              pop\n                /* \"#utility.yul\":6039:6405   */\n              swap2\n              swap1\n              pop\n              jump\t// out\n                /* \"#utility.yul\":6411:6830   */\n            tag_100:\n                /* \"#utility.yul\":6577:6581   */\n              0x00\n                /* \"#utility.yul\":6615:6617   */\n              0x20\n                /* \"#utility.yul\":6604:6613   */\n              dup3\n                /* \"#utility.yul\":6600:6618   */\n              add\n                /* \"#utility.yul\":6592:6618   */\n              swap1\n              pop\n                /* \"#utility.yul\":6664:6673   */\n              dup2\n                /* \"#utility.yul\":6658:6662   */\n              dup2\n                /* \"#utility.yul\":6654:6674   */\n              sub\n                /* \"#utility.yul\":6650:6651   */\n              0x00\n                /* \"#utility.yul\":6639:6648   */\n              dup4\n                /* \"#utility.yul\":6635:6652   */\n              add\n                /* \"#utility.yul\":6628:6675   */\n              mstore\n                /* \"#utility.yul\":6692:6823   */\n              tag_205\n                /* \"#utility.yul\":6818:6822   */\n              dup2\n                /* \"#utility.yul\":6692:6823   */\n              tag_139\n              jump\t// in\n            tag_205:\n                /* \"#utility.yul\":6684:6823   */\n              swap1\n              pop\n                /* \"#utility.yul\":6411:6830   */\n              swap2\n              swap1\n              pop\n              jump\t// out\n                /* \"#utility.yul\":6836:7018   */\n            tag_140:\n                /* \"#utility.yul\":6976:7010   */\n              0x4f6e6c79207468652074616b65722063616e206465706f7369742066756e6473\n                /* \"#utility.yul\":6972:6973   */\n              0x00\n                /* \"#utility.yul\":6964:6970   */\n              dup3\n                /* \"#utility.yul\":6960:6974   */\n              add\n                /* \"#utility.yul\":6953:7011   */\n              mstore\n                /* \"#utility.yul\":6836:7018   */\n              pop\n              jump\t// out\n                /* \"#utility.yul\":7024:7390   */\n            tag_141:\n                /* \"#utility.yul\":7166:7169   */\n              0x00\n                /* \"#utility.yul\":7187:7254   */\n              tag_208\n                /* \"#utility.yul\":7251:7253   */\n              0x20\n                /* \"#utility.yul\":7246:7249   */\n              dup4\n                /* \"#utility.yul\":7187:7254   */\n              tag_130\n              jump\t// in\n            tag_208:\n                /* \"#utility.yul\":7180:7254   */\n              swap2\n              pop\n                /* \"#utility.yul\":7263:7356   */\n              tag_209\n                /* \"#utility.yul\":7352:7355   */\n              dup3\n                /* \"#utility.yul\":7263:7356   */\n              tag_140\n              jump\t// in\n            tag_209:\n                /* \"#utility.yul\":7381:7383   */\n              0x20\n                /* \"#utility.yul\":7376:7379   */\n              dup3\n                /* \"#utility.yul\":7372:7384   */\n              add\n                /* \"#utility.yul\":7365:7384   */\n              swap1\n              pop\n                /* \"#utility.yul\":7024:7390   */\n              swap2\n              swap1\n              pop\n              jump\t// out\n                /* \"#utility.yul\":7396:7815   */\n            tag_112:\n                /* \"#utility.yul\":7562:7566   */\n              0x00\n                /* \"#utility.yul\":7600:7602   */\n              0x20\n                /* \"#utility.yul\":7589:7598   */\n              dup3\n                /* \"#utility.yul\":7585:7603   */\n              add\n                /* \"#utility.yul\":7577:7603   */\n              swap1\n              pop\n                /* \"#utility.yul\":7649:7658   */\n              dup2\n                /* \"#utility.yul\":7643:7647   */\n              dup2\n                /* \"#utility.yul\":7639:7659   */\n              sub\n                /* \"#utility.yul\":7635:7636   */\n              0x00\n                /* \"#utility.yul\":7624:7633   */\n              dup4\n                /* \"#utility.yul\":7620:7637   */\n              add\n                /* \"#utility.yul\":7613:7660   */\n              mstore\n                /* \"#utility.yul\":7677:7808   */\n              tag_211\n                /* \"#utility.yul\":7803:7807   */\n              dup2\n                /* \"#utility.yul\":7677:7808   */\n              tag_141\n              jump\t// in\n            tag_211:\n                /* \"#utility.yul\":7669:7808   */\n              swap1\n              pop\n                /* \"#utility.yul\":7396:7815   */\n              swap2\n              swap1\n              pop\n              jump\t// out\n                /* \"#utility.yul\":7821:8002   */\n            tag_142:\n                /* \"#utility.yul\":7961:7994   */\n              0x5265656e7472616e637947756172643a207265656e7472616e742063616c6c00\n                /* \"#utility.yul\":7957:7958   */\n              0x00\n                /* \"#utility.yul\":7949:7955   */\n              dup3\n                /* \"#utility.yul\":7945:7959   */\n              add\n                /* \"#utility.yul\":7938:7995   */\n              mstore\n                /* \"#utility.yul\":7821:8002   */\n              pop\n              jump\t// out\n                /* \"#utility.yul\":8008:8374   */\n            tag_143:\n                /* \"#utility.yul\":8150:8153   */\n              0x00\n                /* \"#utility.yul\":8171:8238   */\n              tag_214\n                /* \"#utility.yul\":8235:8237   */\n              0x1f\n                /* \"#utility.yul\":8230:8233   */\n              dup4\n                /* \"#utility.yul\":8171:8238   */\n              tag_130\n              jump\t// in\n            tag_214:\n                /* \"#utility.yul\":8164:8238   */\n              swap2\n              pop\n                /* \"#utility.yul\":8247:8340   */\n              tag_215\n                /* \"#utility.yul\":8336:8339   */\n              dup3\n                /* \"#utility.yul\":8247:8340   */\n              tag_142\n              jump\t// in\n            tag_215:\n                /* \"#utility.yul\":8365:8367   */\n              0x20\n                /* \"#utility.yul\":8360:8363   */\n              dup3\n                /* \"#utility.yul\":8356:8368   */\n              add\n                /* \"#utility.yul\":8349:8368   */\n              swap1\n              pop\n                /* \"#utility.yul\":8008:8374   */\n              swap2\n              swap1\n              pop\n              jump\t// out\n                /* \"#utility.yul\":8380:8799   */\n            tag_118:\n                /* \"#utility.yul\":8546:8550   */\n              0x00\n                /* \"#utility.yul\":8584:8586   */\n              0x20\n                /* \"#utility.yul\":8573:8582   */\n              dup3\n                /* \"#utility.yul\":8569:8587   */\n              add\n                /* \"#utility.yul\":8561:8587   */\n              swap1\n              pop\n                /* \"#utility.yul\":8633:8642   */\n              dup2\n                /* \"#utility.yul\":8627:8631   */\n              dup2\n                /* \"#utility.yul\":8623:8643   */\n              sub\n                /* \"#utility.yul\":8619:8620   */\n              0x00\n                /* \"#utility.yul\":8608:8617   */\n              dup4\n                /* \"#utility.yul\":8604:8621   */\n              add\n                /* \"#utility.yul\":8597:8644   */\n              mstore\n                /* \"#utility.yul\":8661:8792   */\n              tag_217\n                /* \"#utility.yul\":8787:8791   */\n              dup2\n                /* \"#utility.yul\":8661:8792   */\n              tag_143\n              jump\t// in\n            tag_217:\n                /* \"#utility.yul\":8653:8792   */\n              swap1\n              pop\n                /* \"#utility.yul\":8380:8799   */\n              swap2\n              swap1\n              pop\n              jump\t// out\n\n            auxdata: 0xa2646970667358221220c636b55d10c284c3c40aba93d80e44fdd712365a5e099d8dbaffae13b4fa4cbd64736f6c63430008110033\n        }\n    }\n\n    auxdata: 0xa264697066735822122086fcdd7e4c89f30dfd59c168e76fa130d676955e9c0407ee431fd95ae2c50add64736f6c63430008110033\n}\n",
				"bytecode": {
					"linkReferences": {},
					"object": "608060405234801561001057600080fd5b50612256806100206000396000f3fe608060405260043610620000b65760003560e01c8063c41a360a116200006d578063c41a360a1462000253578063c5077a5a1462000297578063cbcc5b2814620002c5578063ccadfef51462000309578063e79a6128146200034d578063f14af335146200036d57620000b6565b80630d5d1f8c14620000bb578063444a852014620000ff578063573c5ad414620001435780635c6b047a1462000187578063666e1b3914620001cb5780638bee36a4146200020f575b600080fd5b348015620000c857600080fd5b50620000e76004803603810190620000e1919062000e3f565b620003b1565b604051620000f6919062000e82565b60405180910390f35b3480156200010c57600080fd5b506200012b600480360381019062000125919062000e3f565b6200046c565b6040516200013a919062000e82565b60405180910390f35b3480156200015057600080fd5b506200016f600480360381019062000169919062000e3f565b62000527565b6040516200017e919062000f2a565b60405180910390f35b3480156200019457600080fd5b50620001b36004803603810190620001ad919062000e3f565b62000567565b604051620001c2919062000e82565b60405180910390f35b348015620001d857600080fd5b50620001f76004803603810190620001f1919062000f8c565b62000622565b6040516200020691906200108c565b60405180910390f35b3480156200021c57600080fd5b506200023b600480360381019062000235919062000f8c565b620007c6565b6040516200024a91906200108c565b60405180910390f35b3480156200026057600080fd5b506200027f600480360381019062000279919062000e3f565b6200096a565b6040516200028e9190620010c1565b60405180910390f35b348015620002a457600080fd5b50620002c36004803603810190620002bd919062000e3f565b62000a25565b005b348015620002d257600080fd5b50620002f16004803603810190620002eb919062000e3f565b62000ad8565b604051620003009190620010c1565b60405180910390f35b3480156200031657600080fd5b506200033560048036038101906200032f919062000e3f565b62000b93565b60405162000344919062000e82565b60405180910390f35b6200036b600480360381019062000365919062000e3f565b62000c4e565b005b3480156200037a57600080fd5b50620003996004803603810190620003939190620010de565b62000d01565b604051620003a89190620010c1565b60405180910390f35b6000808281548110620003c957620003c862001150565b5b9060005260206000200160009054906101000a900473ffffffffffffffffffffffffffffffffffffffff1673ffffffffffffffffffffffffffffffffffffffff166383abb1d56040518163ffffffff1660e01b8152600401602060405180830381865afa1580156200043f573d6000803e3d6000fd5b505050506040513d601f19601f8201168201806040525081019062000465919062001196565b9050919050565b600080828154811062000484576200048362001150565b5b9060005260206000200160009054906101000a900473ffffffffffffffffffffffffffffffffffffffff1673ffffffffffffffffffffffffffffffffffffffff1663220e5ab36040518163ffffffff1660e01b8152600401602060405180830381865afa158015620004fa573d6000803e3d6000fd5b505050506040513d601f19601f8201168201806040525081019062000520919062001196565b9050919050565b600081815481106200053857600080fd5b906000526020600020016000915054906101000a900473ffffffffffffffffffffffffffffffffffffffff1681565b60008082815481106200057f576200057e62001150565b5b9060005260206000200160009054906101000a900473ffffffffffffffffffffffffffffffffffffffff1673ffffffffffffffffffffffffffffffffffffffff1663c24a0f8b6040518163ffffffff1660e01b8152600401602060405180830381865afa158015620005f5573d6000803e3d6000fd5b505050506040513d601f19601f820116820180604052508101906200061b919062001196565b9050919050565b60606000808054905067ffffffffffffffff811115620006475762000646620011c8565b5b604051908082528060200260200182016040528015620006765781602001602082028036833780820191505090505b5090506000805b600080549050811015620007bb578473ffffffffffffffffffffffffffffffffffffffff1660008281548110620006b957620006b862001150565b5b9060005260206000200160009054906101000a900473ffffffffffffffffffffffffffffffffffffffff1673ffffffffffffffffffffffffffffffffffffffff166394a927fe6040518163ffffffff1660e01b8152600401602060405180830381865afa1580156200072f573d6000803e3d6000fd5b505050506040513d601f19601f820116820180604052508101906200075591906200120e565b73ffffffffffffffffffffffffffffffffffffffff1603620007a5578083838151811062000788576200078762001150565b5b6020026020010181815250508180620007a1906200126f565b9250505b8080620007b2906200126f565b9150506200067d565b508192505050919050565b60606000808054905067ffffffffffffffff811115620007eb57620007ea620011c8565b5b6040519080825280602002602001820160405280156200081a5781602001602082028036833780820191505090505b5090506000805b6000805490508110156200095f578473ffffffffffffffffffffffffffffffffffffffff16600082815481106200085d576200085c62001150565b5b9060005260206000200160009054906101000a900473ffffffffffffffffffffffffffffffffffffffff1673ffffffffffffffffffffffffffffffffffffffff1663aee8ff456040518163ffffffff1660e01b8152600401602060405180830381865afa158015620008d3573d6000803e3d6000fd5b505050506040513d601f19601f82011682018060405250810190620008f991906200120e565b73ffffffffffffffffffffffffffffffffffffffff16036200094957808383815181106200092c576200092b62001150565b5b602002602001018181525050818062000945906200126f565b9250505b808062000956906200126f565b91505062000821565b508192505050919050565b600080828154811062000982576200098162001150565b5b9060005260206000200160009054906101000a900473ffffffffffffffffffffffffffffffffffffffff1673ffffffffffffffffffffffffffffffffffffffff166394a927fe6040518163ffffffff1660e01b8152600401602060405180830381865afa158015620009f8573d6000803e3d6000fd5b505050506040513d601f19601f8201168201806040525081019062000a1e91906200120e565b9050919050565b6000818154811062000a3c5762000a3b62001150565b5b9060005260206000200160009054906101000a900473ffffffffffffffffffffffffffffffffffffffff1673ffffffffffffffffffffffffffffffffffffffff1663f340fa01336040518263ffffffff1660e01b815260040162000aa19190620010c1565b600060405180830381600087803b15801562000abc57600080fd5b505af115801562000ad1573d6000803e3d6000fd5b5050505050565b600080828154811062000af05762000aef62001150565b5b9060005260206000200160009054906101000a900473ffffffffffffffffffffffffffffffffffffffff1673ffffffffffffffffffffffffffffffffffffffff1663aee8ff456040518163ffffffff1660e01b8152600401602060405180830381865afa15801562000b66573d6000803e3d6000fd5b505050506040513d601f19601f8201168201806040525081019062000b8c91906200120e565b9050919050565b600080828154811062000bab5762000baa62001150565b5b9060005260206000200160009054906101000a900473ffffffffffffffffffffffffffffffffffffffff1673ffffffffffffffffffffffffffffffffffffffff16636d5e7a156040518163ffffffff1660e01b8152600401602060405180830381865afa15801562000c21573d6000803e3d6000fd5b505050506040513d601f19601f8201168201806040525081019062000c47919062001196565b9050919050565b6000818154811062000c655762000c6462001150565b5b9060005260206000200160009054906101000a900473ffffffffffffffffffffffffffffffffffffffff1673ffffffffffffffffffffffffffffffffffffffff166351cff8d9336040518263ffffffff1660e01b815260040162000cca9190620010c1565b600060405180830381600087803b15801562000ce557600080fd5b505af115801562000cfa573d6000803e3d6000fd5b5050505050565b600080338686868660405162000d179062000df1565b62000d27959493929190620012e1565b604051809103906000f08015801562000d44573d6000803e3d6000fd5b5090506000819080600181540180825580915050600190039060005260206000200160009091909190916101000a81548173ffffffffffffffffffffffffffffffffffffffff021916908373ffffffffffffffffffffffffffffffffffffffff1602179055507f14a8ec3fa88b43ee6d7a7a0e47e3468f408e39a1cf0be757bb6c81b94e2fdb9e813360405162000ddd9291906200133e565b60405180910390a180915050949350505050565b610eb5806200136c83390190565b600080fd5b6000819050919050565b62000e198162000e04565b811462000e2557600080fd5b50565b60008135905062000e398162000e0e565b92915050565b60006020828403121562000e585762000e5762000dff565b5b600062000e688482850162000e28565b91505092915050565b62000e7c8162000e04565b82525050565b600060208201905062000e99600083018462000e71565b92915050565b600073ffffffffffffffffffffffffffffffffffffffff82169050919050565b6000819050919050565b600062000eea62000ee462000ede8462000e9f565b62000ebf565b62000e9f565b9050919050565b600062000efe8262000ec9565b9050919050565b600062000f128262000ef1565b9050919050565b62000f248162000f05565b82525050565b600060208201905062000f41600083018462000f19565b92915050565b600062000f548262000e9f565b9050919050565b62000f668162000f47565b811462000f7257600080fd5b50565b60008135905062000f868162000f5b565b92915050565b60006020828403121562000fa55762000fa462000dff565b5b600062000fb58482850162000f75565b91505092915050565b600081519050919050565b600082825260208201905092915050565b6000819050602082019050919050565b62000ff58162000e04565b82525050565b600062001009838362000fea565b60208301905092915050565b6000602082019050919050565b60006200102f8262000fbe565b6200103b818562000fc9565b9350620010488362000fda565b8060005b838110156200107f57815162001063888262000ffb565b9750620010708362001015565b9250506001810190506200104c565b5085935050505092915050565b60006020820190508181036000830152620010a8818462001022565b905092915050565b620010bb8162000f47565b82525050565b6000602082019050620010d86000830184620010b0565b92915050565b60008060008060808587031215620010fb57620010fa62000dff565b5b60006200110b8782880162000f75565b94505060206200111e8782880162000e28565b9350506040620011318782880162000e28565b9250506060620011448782880162000e28565b91505092959194509250565b7f4e487b7100000000000000000000000000000000000000000000000000000000600052603260045260246000fd5b600081519050620011908162000e0e565b92915050565b600060208284031215620011af57620011ae62000dff565b5b6000620011bf848285016200117f565b91505092915050565b7f4e487b7100000000000000000000000000000000000000000000000000000000600052604160045260246000fd5b600081519050620012088162000f5b565b92915050565b60006020828403121562001227576200122662000dff565b5b60006200123784828501620011f7565b91505092915050565b7f4e487b7100000000000000000000000000000000000000000000000000000000600052601160045260246000fd5b60006200127c8262000e04565b91507fffffffffffffffffffffffffffffffffffffffffffffffffffffffffffffffff8203620012b157620012b062001240565b5b600182019050919050565b6000620012c98262000e9f565b9050919050565b620012db81620012bc565b82525050565b600060a082019050620012f86000830188620012d0565b620013076020830187620012d0565b62001316604083018662000e71565b62001325606083018562000e71565b62001334608083018462000e71565b9695505050505050565b6000604082019050620013556000830185620010b0565b620013646020830184620010b0565b939250505056fe60806040523480156200001157600080fd5b5060405162000eb538038062000eb5833981810160405281019062000037919062000186565b600160008190555084600160006101000a81548173ffffffffffffffffffffffffffffffffffffffff021916908373ffffffffffffffffffffffffffffffffffffffff16021790555083600260006101000a81548173ffffffffffffffffffffffffffffffffffffffff021916908373ffffffffffffffffffffffffffffffffffffffff16021790555082600381905550816004819055508060058190555050505050506200020e565b600080fd5b600073ffffffffffffffffffffffffffffffffffffffff82169050919050565b60006200011382620000e6565b9050919050565b620001258162000106565b81146200013157600080fd5b50565b60008151905062000145816200011a565b92915050565b6000819050919050565b62000160816200014b565b81146200016c57600080fd5b50565b600081519050620001808162000155565b92915050565b600080600080600060a08688031215620001a557620001a4620000e1565b5b6000620001b58882890162000134565b9550506020620001c88882890162000134565b9450506040620001db888289016200016f565b9350506060620001ee888289016200016f565b925050608062000201888289016200016f565b9150509295509295909350565b610c97806200021e6000396000f3fe6080604052600436106100ab5760003560e01c806394a927fe1161006457806394a927fe14610271578063a2093d811461029c578063aee8ff45146102c7578063c24a0f8b146102f2578063db2926211461031d578063f340fa011461034857610117565b8063220e5ab31461017e57806331658e32146101a957806336359265146101d457806351cff8d9146101ff5780636d5e7a151461021b57806383abb1d51461024657610117565b36610117573373ffffffffffffffffffffffffffffffffffffffff163073ffffffffffffffffffffffffffffffffffffffff167f5548c837ab068cf56a2c2479df0882a4922fd203edb7517321831d95078c5f623460405161010d919061084e565b60405180910390a3005b3373ffffffffffffffffffffffffffffffffffffffff163073ffffffffffffffffffffffffffffffffffffffff167f5548c837ab068cf56a2c2479df0882a4922fd203edb7517321831d95078c5f6234604051610174919061084e565b60405180910390a3005b34801561018a57600080fd5b50610193610364565b6040516101a0919061084e565b60405180910390f35b3480156101b557600080fd5b506101be61036a565b6040516101cb919061084e565b60405180910390f35b3480156101e057600080fd5b506101e9610374565b6040516101f6919061084e565b60405180910390f35b610219600480360381019061021491906108cc565b61037e565b005b34801561022757600080fd5b50610230610668565b60405161023d919061084e565b60405180910390f35b34801561025257600080fd5b5061025b61066e565b604051610268919061084e565b60405180910390f35b34801561027d57600080fd5b50610286610674565b6040516102939190610908565b60405180910390f35b3480156102a857600080fd5b506102b161069e565b6040516102be919061084e565b60405180910390f35b3480156102d357600080fd5b506102dc6106a8565b6040516102e99190610908565b60405180910390f35b3480156102fe57600080fd5b506103076106d2565b604051610314919061084e565b60405180910390f35b34801561032957600080fd5b506103326106d8565b60405161033f919061084e565b60405180910390f35b610362600480360381019061035d91906108cc565b6106e2565b005b60035481565b6000600554905090565b6000600454905090565b6103866107dc565b600047036103c9576040517f08c379a00000000000000000000000000000000000000000000000000000000081526004016103c090610980565b60405180910390fd5b600454421061040d576040517f08c379a0000000000000000000000000000000000000000000000000000000008152600401610404906109ec565b60405180910390fd5b6004544211801561043a57506201518060055461042a9190610a3b565b6004546104379190610a7d565b42105b1561053d578073ffffffffffffffffffffffffffffffffffffffff16600160009054906101000a900473ffffffffffffffffffffffffffffffffffffffff1673ffffffffffffffffffffffffffffffffffffffff16146104cf576040517f08c379a00000000000000000000000000000000000000000000000000000000081526004016104c690610afd565b60405180910390fd5b600160009054906101000a900473ffffffffffffffffffffffffffffffffffffffff1673ffffffffffffffffffffffffffffffffffffffff166108fc479081150290604051600060405180830381858888f19350505050158015610537573d6000803e3d6000fd5b5061065d565b6201518060055461054e9190610a3b565b60045461055b9190610a7d565b42111561065c578073ffffffffffffffffffffffffffffffffffffffff16600260009054906101000a900473ffffffffffffffffffffffffffffffffffffffff1673ffffffffffffffffffffffffffffffffffffffff16146105f2576040517f08c379a00000000000000000000000000000000000000000000000000000000081526004016105e990610b69565b60405180910390fd5b600260009054906101000a900473ffffffffffffffffffffffffffffffffffffffff1673ffffffffffffffffffffffffffffffffffffffff166108fc479081150290604051600060405180830381858888f1935050505015801561065a573d6000803e3d6000fd5b505b5b61066561082b565b50565b60055481565b60065481565b6000600160009054906101000a900473ffffffffffffffffffffffffffffffffffffffff16905090565b6000600654905090565b6000600260009054906101000a900473ffffffffffffffffffffffffffffffffffffffff16905090565b60045481565b6000600354905090565b600260009054906101000a900473ffffffffffffffffffffffffffffffffffffffff1673ffffffffffffffffffffffffffffffffffffffff168173ffffffffffffffffffffffffffffffffffffffff1614610772576040517f08c379a000000000000000000000000000000000000000000000000000000000815260040161076990610bd5565b60405180910390fd5b34600660008282546107849190610a7d565b925050819055508073ffffffffffffffffffffffffffffffffffffffff167f543ba50a5eec5e6178218e364b1d0f396157b3c8fa278522c2cb7fd99407d474346040516107d1919061084e565b60405180910390a250565b600260005403610821576040517f08c379a000000000000000000000000000000000000000000000000000000000815260040161081890610c41565b60405180910390fd5b6002600081905550565b6001600081905550565b6000819050919050565b61084881610835565b82525050565b6000602082019050610863600083018461083f565b92915050565b600080fd5b600073ffffffffffffffffffffffffffffffffffffffff82169050919050565b60006108998261086e565b9050919050565b6108a98161088e565b81146108b457600080fd5b50565b6000813590506108c6816108a0565b92915050565b6000602082840312156108e2576108e1610869565b5b60006108f0848285016108b7565b91505092915050565b6109028161088e565b82525050565b600060208201905061091d60008301846108f9565b92915050565b600082825260208201905092915050565b7f436f6e747261637420646f6e277420686176652066756e647300000000000000600082015250565b600061096a601983610923565b915061097582610934565b602082019050919050565b600060208201905081810360008301526109998161095d565b9050919050565b7f54696d65206973206e6f74206f76657220796574000000000000000000000000600082015250565b60006109d6601483610923565b91506109e1826109a0565b602082019050919050565b60006020820190508181036000830152610a05816109c9565b9050919050565b7f4e487b7100000000000000000000000000000000000000000000000000000000600052601160045260246000fd5b6000610a4682610835565b9150610a5183610835565b9250828202610a5f81610835565b91508282048414831517610a7657610a75610a0c565b5b5092915050565b6000610a8882610835565b9150610a9383610835565b9250828201905080821115610aab57610aaa610a0c565b5b92915050565b7f596f7520617265206e6f7420746865206f776e65720000000000000000000000600082015250565b6000610ae7601583610923565b9150610af282610ab1565b602082019050919050565b60006020820190508181036000830152610b1681610ada565b9050919050565b7f596f7520617265206e6f74207468652074616b65720000000000000000000000600082015250565b6000610b53601583610923565b9150610b5e82610b1d565b602082019050919050565b60006020820190508181036000830152610b8281610b46565b9050919050565b7f4f6e6c79207468652074616b65722063616e206465706f7369742066756e6473600082015250565b6000610bbf602083610923565b9150610bca82610b89565b602082019050919050565b60006020820190508181036000830152610bee81610bb2565b9050919050565b7f5265656e7472616e637947756172643a207265656e7472616e742063616c6c00600082015250565b6000610c2b601f83610923565b9150610c3682610bf5565b602082019050919050565b60006020820190508181036000830152610c5a81610c1e565b905091905056fea2646970667358221220c636b55d10c284c3c40aba93d80e44fdd712365a5e099d8dbaffae13b4fa4cbd64736f6c63430008110033a264697066735822122086fcdd7e4c89f30dfd59c168e76fa130d676955e9c0407ee431fd95ae2c50add64736f6c63430008110033",
					"opcodes": "PUSH1 0x80 PUSH1 0x40 MSTORE CALLVALUE DUP1 ISZERO PUSH2 0x10 JUMPI PUSH1 0x0 DUP1 REVERT JUMPDEST POP PUSH2 0x2256 DUP1 PUSH2 0x20 PUSH1 0x0 CODECOPY PUSH1 0x0 RETURN INVALID PUSH1 0x80 PUSH1 0x40 MSTORE PUSH1 0x4 CALLDATASIZE LT PUSH3 0xB6 JUMPI PUSH1 0x0 CALLDATALOAD PUSH1 0xE0 SHR DUP1 PUSH4 0xC41A360A GT PUSH3 0x6D JUMPI DUP1 PUSH4 0xC41A360A EQ PUSH3 0x253 JUMPI DUP1 PUSH4 0xC5077A5A EQ PUSH3 0x297 JUMPI DUP1 PUSH4 0xCBCC5B28 EQ PUSH3 0x2C5 JUMPI DUP1 PUSH4 0xCCADFEF5 EQ PUSH3 0x309 JUMPI DUP1 PUSH4 0xE79A6128 EQ PUSH3 0x34D JUMPI DUP1 PUSH4 0xF14AF335 EQ PUSH3 0x36D JUMPI PUSH3 0xB6 JUMP JUMPDEST DUP1 PUSH4 0xD5D1F8C EQ PUSH3 0xBB JUMPI DUP1 PUSH4 0x444A8520 EQ PUSH3 0xFF JUMPI DUP1 PUSH4 0x573C5AD4 EQ PUSH3 0x143 JUMPI DUP1 PUSH4 0x5C6B047A EQ PUSH3 0x187 JUMPI DUP1 PUSH4 0x666E1B39 EQ PUSH3 0x1CB JUMPI DUP1 PUSH4 0x8BEE36A4 EQ PUSH3 0x20F JUMPI JUMPDEST PUSH1 0x0 DUP1 REVERT JUMPDEST CALLVALUE DUP1 ISZERO PUSH3 0xC8 JUMPI PUSH1 0x0 DUP1 REVERT JUMPDEST POP PUSH3 0xE7 PUSH1 0x4 DUP1 CALLDATASIZE SUB DUP2 ADD SWAP1 PUSH3 0xE1 SWAP2 SWAP1 PUSH3 0xE3F JUMP JUMPDEST PUSH3 0x3B1 JUMP JUMPDEST PUSH1 0x40 MLOAD PUSH3 0xF6 SWAP2 SWAP1 PUSH3 0xE82 JUMP JUMPDEST PUSH1 0x40 MLOAD DUP1 SWAP2 SUB SWAP1 RETURN JUMPDEST CALLVALUE DUP1 ISZERO PUSH3 0x10C JUMPI PUSH1 0x0 DUP1 REVERT JUMPDEST POP PUSH3 0x12B PUSH1 0x4 DUP1 CALLDATASIZE SUB DUP2 ADD SWAP1 PUSH3 0x125 SWAP2 SWAP1 PUSH3 0xE3F JUMP JUMPDEST PUSH3 0x46C JUMP JUMPDEST PUSH1 0x40 MLOAD PUSH3 0x13A SWAP2 SWAP1 PUSH3 0xE82 JUMP JUMPDEST PUSH1 0x40 MLOAD DUP1 SWAP2 SUB SWAP1 RETURN JUMPDEST CALLVALUE DUP1 ISZERO PUSH3 0x150 JUMPI PUSH1 0x0 DUP1 REVERT JUMPDEST POP PUSH3 0x16F PUSH1 0x4 DUP1 CALLDATASIZE SUB DUP2 ADD SWAP1 PUSH3 0x169 SWAP2 SWAP1 PUSH3 0xE3F JUMP JUMPDEST PUSH3 0x527 JUMP JUMPDEST PUSH1 0x40 MLOAD PUSH3 0x17E SWAP2 SWAP1 PUSH3 0xF2A JUMP JUMPDEST PUSH1 0x40 MLOAD DUP1 SWAP2 SUB SWAP1 RETURN JUMPDEST CALLVALUE DUP1 ISZERO PUSH3 0x194 JUMPI PUSH1 0x0 DUP1 REVERT JUMPDEST POP PUSH3 0x1B3 PUSH1 0x4 DUP1 CALLDATASIZE SUB DUP2 ADD SWAP1 PUSH3 0x1AD SWAP2 SWAP1 PUSH3 0xE3F JUMP JUMPDEST PUSH3 0x567 JUMP JUMPDEST PUSH1 0x40 MLOAD PUSH3 0x1C2 SWAP2 SWAP1 PUSH3 0xE82 JUMP JUMPDEST PUSH1 0x40 MLOAD DUP1 SWAP2 SUB SWAP1 RETURN JUMPDEST CALLVALUE DUP1 ISZERO PUSH3 0x1D8 JUMPI PUSH1 0x0 DUP1 REVERT JUMPDEST POP PUSH3 0x1F7 PUSH1 0x4 DUP1 CALLDATASIZE SUB DUP2 ADD SWAP1 PUSH3 0x1F1 SWAP2 SWAP1 PUSH3 0xF8C JUMP JUMPDEST PUSH3 0x622 JUMP JUMPDEST PUSH1 0x40 MLOAD PUSH3 0x206 SWAP2 SWAP1 PUSH3 0x108C JUMP JUMPDEST PUSH1 0x40 MLOAD DUP1 SWAP2 SUB SWAP1 RETURN JUMPDEST CALLVALUE DUP1 ISZERO PUSH3 0x21C JUMPI PUSH1 0x0 DUP1 REVERT JUMPDEST POP PUSH3 0x23B PUSH1 0x4 DUP1 CALLDATASIZE SUB DUP2 ADD SWAP1 PUSH3 0x235 SWAP2 SWAP1 PUSH3 0xF8C JUMP JUMPDEST PUSH3 0x7C6 JUMP JUMPDEST PUSH1 0x40 MLOAD PUSH3 0x24A SWAP2 SWAP1 PUSH3 0x108C JUMP JUMPDEST PUSH1 0x40 MLOAD DUP1 SWAP2 SUB SWAP1 RETURN JUMPDEST CALLVALUE DUP1 ISZERO PUSH3 0x260 JUMPI PUSH1 0x0 DUP1 REVERT JUMPDEST POP PUSH3 0x27F PUSH1 0x4 DUP1 CALLDATASIZE SUB DUP2 ADD SWAP1 PUSH3 0x279 SWAP2 SWAP1 PUSH3 0xE3F JUMP JUMPDEST PUSH3 0x96A JUMP JUMPDEST PUSH1 0x40 MLOAD PUSH3 0x28E SWAP2 SWAP1 PUSH3 0x10C1 JUMP JUMPDEST PUSH1 0x40 MLOAD DUP1 SWAP2 SUB SWAP1 RETURN JUMPDEST CALLVALUE DUP1 ISZERO PUSH3 0x2A4 JUMPI PUSH1 0x0 DUP1 REVERT JUMPDEST POP PUSH3 0x2C3 PUSH1 0x4 DUP1 CALLDATASIZE SUB DUP2 ADD SWAP1 PUSH3 0x2BD SWAP2 SWAP1 PUSH3 0xE3F JUMP JUMPDEST PUSH3 0xA25 JUMP JUMPDEST STOP JUMPDEST CALLVALUE DUP1 ISZERO PUSH3 0x2D2 JUMPI PUSH1 0x0 DUP1 REVERT JUMPDEST POP PUSH3 0x2F1 PUSH1 0x4 DUP1 CALLDATASIZE SUB DUP2 ADD SWAP1 PUSH3 0x2EB SWAP2 SWAP1 PUSH3 0xE3F JUMP JUMPDEST PUSH3 0xAD8 JUMP JUMPDEST PUSH1 0x40 MLOAD PUSH3 0x300 SWAP2 SWAP1 PUSH3 0x10C1 JUMP JUMPDEST PUSH1 0x40 MLOAD DUP1 SWAP2 SUB SWAP1 RETURN JUMPDEST CALLVALUE DUP1 ISZERO PUSH3 0x316 JUMPI PUSH1 0x0 DUP1 REVERT JUMPDEST POP PUSH3 0x335 PUSH1 0x4 DUP1 CALLDATASIZE SUB DUP2 ADD SWAP1 PUSH3 0x32F SWAP2 SWAP1 PUSH3 0xE3F JUMP JUMPDEST PUSH3 0xB93 JUMP JUMPDEST PUSH1 0x40 MLOAD PUSH3 0x344 SWAP2 SWAP1 PUSH3 0xE82 JUMP JUMPDEST PUSH1 0x40 MLOAD DUP1 SWAP2 SUB SWAP1 RETURN JUMPDEST PUSH3 0x36B PUSH1 0x4 DUP1 CALLDATASIZE SUB DUP2 ADD SWAP1 PUSH3 0x365 SWAP2 SWAP1 PUSH3 0xE3F JUMP JUMPDEST PUSH3 0xC4E JUMP JUMPDEST STOP JUMPDEST CALLVALUE DUP1 ISZERO PUSH3 0x37A JUMPI PUSH1 0x0 DUP1 REVERT JUMPDEST POP PUSH3 0x399 PUSH1 0x4 DUP1 CALLDATASIZE SUB DUP2 ADD SWAP1 PUSH3 0x393 SWAP2 SWAP1 PUSH3 0x10DE JUMP JUMPDEST PUSH3 0xD01 JUMP JUMPDEST PUSH1 0x40 MLOAD PUSH3 0x3A8 SWAP2 SWAP1 PUSH3 0x10C1 JUMP JUMPDEST PUSH1 0x40 MLOAD DUP1 SWAP2 SUB SWAP1 RETURN JUMPDEST PUSH1 0x0 DUP1 DUP3 DUP2 SLOAD DUP2 LT PUSH3 0x3C9 JUMPI PUSH3 0x3C8 PUSH3 0x1150 JUMP JUMPDEST JUMPDEST SWAP1 PUSH1 0x0 MSTORE PUSH1 0x20 PUSH1 0x0 KECCAK256 ADD PUSH1 0x0 SWAP1 SLOAD SWAP1 PUSH2 0x100 EXP SWAP1 DIV PUSH20 0xFFFFFFFFFFFFFFFFFFFFFFFFFFFFFFFFFFFFFFFF AND PUSH20 0xFFFFFFFFFFFFFFFFFFFFFFFFFFFFFFFFFFFFFFFF AND PUSH4 0x83ABB1D5 PUSH1 0x40 MLOAD DUP2 PUSH4 0xFFFFFFFF AND PUSH1 0xE0 SHL DUP2 MSTORE PUSH1 0x4 ADD PUSH1 0x20 PUSH1 0x40 MLOAD DUP1 DUP4 SUB DUP2 DUP7 GAS STATICCALL ISZERO DUP1 ISZERO PUSH3 0x43F JUMPI RETURNDATASIZE PUSH1 0x0 DUP1 RETURNDATACOPY RETURNDATASIZE PUSH1 0x0 REVERT JUMPDEST POP POP POP POP PUSH1 0x40 MLOAD RETURNDATASIZE PUSH1 0x1F NOT PUSH1 0x1F DUP3 ADD AND DUP3 ADD DUP1 PUSH1 0x40 MSTORE POP DUP2 ADD SWAP1 PUSH3 0x465 SWAP2 SWAP1 PUSH3 0x1196 JUMP JUMPDEST SWAP1 POP SWAP2 SWAP1 POP JUMP JUMPDEST PUSH1 0x0 DUP1 DUP3 DUP2 SLOAD DUP2 LT PUSH3 0x484 JUMPI PUSH3 0x483 PUSH3 0x1150 JUMP JUMPDEST JUMPDEST SWAP1 PUSH1 0x0 MSTORE PUSH1 0x20 PUSH1 0x0 KECCAK256 ADD PUSH1 0x0 SWAP1 SLOAD SWAP1 PUSH2 0x100 EXP SWAP1 DIV PUSH20 0xFFFFFFFFFFFFFFFFFFFFFFFFFFFFFFFFFFFFFFFF AND PUSH20 0xFFFFFFFFFFFFFFFFFFFFFFFFFFFFFFFFFFFFFFFF AND PUSH4 0x220E5AB3 PUSH1 0x40 MLOAD DUP2 PUSH4 0xFFFFFFFF AND PUSH1 0xE0 SHL DUP2 MSTORE PUSH1 0x4 ADD PUSH1 0x20 PUSH1 0x40 MLOAD DUP1 DUP4 SUB DUP2 DUP7 GAS STATICCALL ISZERO DUP1 ISZERO PUSH3 0x4FA JUMPI RETURNDATASIZE PUSH1 0x0 DUP1 RETURNDATACOPY RETURNDATASIZE PUSH1 0x0 REVERT JUMPDEST POP POP POP POP PUSH1 0x40 MLOAD RETURNDATASIZE PUSH1 0x1F NOT PUSH1 0x1F DUP3 ADD AND DUP3 ADD DUP1 PUSH1 0x40 MSTORE POP DUP2 ADD SWAP1 PUSH3 0x520 SWAP2 SWAP1 PUSH3 0x1196 JUMP JUMPDEST SWAP1 POP SWAP2 SWAP1 POP JUMP JUMPDEST PUSH1 0x0 DUP2 DUP2 SLOAD DUP2 LT PUSH3 0x538 JUMPI PUSH1 0x0 DUP1 REVERT JUMPDEST SWAP1 PUSH1 0x0 MSTORE PUSH1 0x20 PUSH1 0x0 KECCAK256 ADD PUSH1 0x0 SWAP2 POP SLOAD SWAP1 PUSH2 0x100 EXP SWAP1 DIV PUSH20 0xFFFFFFFFFFFFFFFFFFFFFFFFFFFFFFFFFFFFFFFF AND DUP2 JUMP JUMPDEST PUSH1 0x0 DUP1 DUP3 DUP2 SLOAD DUP2 LT PUSH3 0x57F JUMPI PUSH3 0x57E PUSH3 0x1150 JUMP JUMPDEST JUMPDEST SWAP1 PUSH1 0x0 MSTORE PUSH1 0x20 PUSH1 0x0 KECCAK256 ADD PUSH1 0x0 SWAP1 SLOAD SWAP1 PUSH2 0x100 EXP SWAP1 DIV PUSH20 0xFFFFFFFFFFFFFFFFFFFFFFFFFFFFFFFFFFFFFFFF AND PUSH20 0xFFFFFFFFFFFFFFFFFFFFFFFFFFFFFFFFFFFFFFFF AND PUSH4 0xC24A0F8B PUSH1 0x40 MLOAD DUP2 PUSH4 0xFFFFFFFF AND PUSH1 0xE0 SHL DUP2 MSTORE PUSH1 0x4 ADD PUSH1 0x20 PUSH1 0x40 MLOAD DUP1 DUP4 SUB DUP2 DUP7 GAS STATICCALL ISZERO DUP1 ISZERO PUSH3 0x5F5 JUMPI RETURNDATASIZE PUSH1 0x0 DUP1 RETURNDATACOPY RETURNDATASIZE PUSH1 0x0 REVERT JUMPDEST POP POP POP POP PUSH1 0x40 MLOAD RETURNDATASIZE PUSH1 0x1F NOT PUSH1 0x1F DUP3 ADD AND DUP3 ADD DUP1 PUSH1 0x40 MSTORE POP DUP2 ADD SWAP1 PUSH3 0x61B SWAP2 SWAP1 PUSH3 0x1196 JUMP JUMPDEST SWAP1 POP SWAP2 SWAP1 POP JUMP JUMPDEST PUSH1 0x60 PUSH1 0x0 DUP1 DUP1 SLOAD SWAP1 POP PUSH8 0xFFFFFFFFFFFFFFFF DUP2 GT ISZERO PUSH3 0x647 JUMPI PUSH3 0x646 PUSH3 0x11C8 JUMP JUMPDEST JUMPDEST PUSH1 0x40 MLOAD SWAP1 DUP1 DUP3 MSTORE DUP1 PUSH1 0x20 MUL PUSH1 0x20 ADD DUP3 ADD PUSH1 0x40 MSTORE DUP1 ISZERO PUSH3 0x676 JUMPI DUP2 PUSH1 0x20 ADD PUSH1 0x20 DUP3 MUL DUP1 CALLDATASIZE DUP4 CALLDATACOPY DUP1 DUP3 ADD SWAP2 POP POP SWAP1 POP JUMPDEST POP SWAP1 POP PUSH1 0x0 DUP1 JUMPDEST PUSH1 0x0 DUP1 SLOAD SWAP1 POP DUP2 LT ISZERO PUSH3 0x7BB JUMPI DUP5 PUSH20 0xFFFFFFFFFFFFFFFFFFFFFFFFFFFFFFFFFFFFFFFF AND PUSH1 0x0 DUP3 DUP2 SLOAD DUP2 LT PUSH3 0x6B9 JUMPI PUSH3 0x6B8 PUSH3 0x1150 JUMP JUMPDEST JUMPDEST SWAP1 PUSH1 0x0 MSTORE PUSH1 0x20 PUSH1 0x0 KECCAK256 ADD PUSH1 0x0 SWAP1 SLOAD SWAP1 PUSH2 0x100 EXP SWAP1 DIV PUSH20 0xFFFFFFFFFFFFFFFFFFFFFFFFFFFFFFFFFFFFFFFF AND PUSH20 0xFFFFFFFFFFFFFFFFFFFFFFFFFFFFFFFFFFFFFFFF AND PUSH4 0x94A927FE PUSH1 0x40 MLOAD DUP2 PUSH4 0xFFFFFFFF AND PUSH1 0xE0 SHL DUP2 MSTORE PUSH1 0x4 ADD PUSH1 0x20 PUSH1 0x40 MLOAD DUP1 DUP4 SUB DUP2 DUP7 GAS STATICCALL ISZERO DUP1 ISZERO PUSH3 0x72F JUMPI RETURNDATASIZE PUSH1 0x0 DUP1 RETURNDATACOPY RETURNDATASIZE PUSH1 0x0 REVERT JUMPDEST POP POP POP POP PUSH1 0x40 MLOAD RETURNDATASIZE PUSH1 0x1F NOT PUSH1 0x1F DUP3 ADD AND DUP3 ADD DUP1 PUSH1 0x40 MSTORE POP DUP2 ADD SWAP1 PUSH3 0x755 SWAP2 SWAP1 PUSH3 0x120E JUMP JUMPDEST PUSH20 0xFFFFFFFFFFFFFFFFFFFFFFFFFFFFFFFFFFFFFFFF AND SUB PUSH3 0x7A5 JUMPI DUP1 DUP4 DUP4 DUP2 MLOAD DUP2 LT PUSH3 0x788 JUMPI PUSH3 0x787 PUSH3 0x1150 JUMP JUMPDEST JUMPDEST PUSH1 0x20 MUL PUSH1 0x20 ADD ADD DUP2 DUP2 MSTORE POP POP DUP2 DUP1 PUSH3 0x7A1 SWAP1 PUSH3 0x126F JUMP JUMPDEST SWAP3 POP POP JUMPDEST DUP1 DUP1 PUSH3 0x7B2 SWAP1 PUSH3 0x126F JUMP JUMPDEST SWAP2 POP POP PUSH3 0x67D JUMP JUMPDEST POP DUP2 SWAP3 POP POP POP SWAP2 SWAP1 POP JUMP JUMPDEST PUSH1 0x60 PUSH1 0x0 DUP1 DUP1 SLOAD SWAP1 POP PUSH8 0xFFFFFFFFFFFFFFFF DUP2 GT ISZERO PUSH3 0x7EB JUMPI PUSH3 0x7EA PUSH3 0x11C8 JUMP JUMPDEST JUMPDEST PUSH1 0x40 MLOAD SWAP1 DUP1 DUP3 MSTORE DUP1 PUSH1 0x20 MUL PUSH1 0x20 ADD DUP3 ADD PUSH1 0x40 MSTORE DUP1 ISZERO PUSH3 0x81A JUMPI DUP2 PUSH1 0x20 ADD PUSH1 0x20 DUP3 MUL DUP1 CALLDATASIZE DUP4 CALLDATACOPY DUP1 DUP3 ADD SWAP2 POP POP SWAP1 POP JUMPDEST POP SWAP1 POP PUSH1 0x0 DUP1 JUMPDEST PUSH1 0x0 DUP1 SLOAD SWAP1 POP DUP2 LT ISZERO PUSH3 0x95F JUMPI DUP5 PUSH20 0xFFFFFFFFFFFFFFFFFFFFFFFFFFFFFFFFFFFFFFFF AND PUSH1 0x0 DUP3 DUP2 SLOAD DUP2 LT PUSH3 0x85D JUMPI PUSH3 0x85C PUSH3 0x1150 JUMP JUMPDEST JUMPDEST SWAP1 PUSH1 0x0 MSTORE PUSH1 0x20 PUSH1 0x0 KECCAK256 ADD PUSH1 0x0 SWAP1 SLOAD SWAP1 PUSH2 0x100 EXP SWAP1 DIV PUSH20 0xFFFFFFFFFFFFFFFFFFFFFFFFFFFFFFFFFFFFFFFF AND PUSH20 0xFFFFFFFFFFFFFFFFFFFFFFFFFFFFFFFFFFFFFFFF AND PUSH4 0xAEE8FF45 PUSH1 0x40 MLOAD DUP2 PUSH4 0xFFFFFFFF AND PUSH1 0xE0 SHL DUP2 MSTORE PUSH1 0x4 ADD PUSH1 0x20 PUSH1 0x40 MLOAD DUP1 DUP4 SUB DUP2 DUP7 GAS STATICCALL ISZERO DUP1 ISZERO PUSH3 0x8D3 JUMPI RETURNDATASIZE PUSH1 0x0 DUP1 RETURNDATACOPY RETURNDATASIZE PUSH1 0x0 REVERT JUMPDEST POP POP POP POP PUSH1 0x40 MLOAD RETURNDATASIZE PUSH1 0x1F NOT PUSH1 0x1F DUP3 ADD AND DUP3 ADD DUP1 PUSH1 0x40 MSTORE POP DUP2 ADD SWAP1 PUSH3 0x8F9 SWAP2 SWAP1 PUSH3 0x120E JUMP JUMPDEST PUSH20 0xFFFFFFFFFFFFFFFFFFFFFFFFFFFFFFFFFFFFFFFF AND SUB PUSH3 0x949 JUMPI DUP1 DUP4 DUP4 DUP2 MLOAD DUP2 LT PUSH3 0x92C JUMPI PUSH3 0x92B PUSH3 0x1150 JUMP JUMPDEST JUMPDEST PUSH1 0x20 MUL PUSH1 0x20 ADD ADD DUP2 DUP2 MSTORE POP POP DUP2 DUP1 PUSH3 0x945 SWAP1 PUSH3 0x126F JUMP JUMPDEST SWAP3 POP POP JUMPDEST DUP1 DUP1 PUSH3 0x956 SWAP1 PUSH3 0x126F JUMP JUMPDEST SWAP2 POP POP PUSH3 0x821 JUMP JUMPDEST POP DUP2 SWAP3 POP POP POP SWAP2 SWAP1 POP JUMP JUMPDEST PUSH1 0x0 DUP1 DUP3 DUP2 SLOAD DUP2 LT PUSH3 0x982 JUMPI PUSH3 0x981 PUSH3 0x1150 JUMP JUMPDEST JUMPDEST SWAP1 PUSH1 0x0 MSTORE PUSH1 0x20 PUSH1 0x0 KECCAK256 ADD PUSH1 0x0 SWAP1 SLOAD SWAP1 PUSH2 0x100 EXP SWAP1 DIV PUSH20 0xFFFFFFFFFFFFFFFFFFFFFFFFFFFFFFFFFFFFFFFF AND PUSH20 0xFFFFFFFFFFFFFFFFFFFFFFFFFFFFFFFFFFFFFFFF AND PUSH4 0x94A927FE PUSH1 0x40 MLOAD DUP2 PUSH4 0xFFFFFFFF AND PUSH1 0xE0 SHL DUP2 MSTORE PUSH1 0x4 ADD PUSH1 0x20 PUSH1 0x40 MLOAD DUP1 DUP4 SUB DUP2 DUP7 GAS STATICCALL ISZERO DUP1 ISZERO PUSH3 0x9F8 JUMPI RETURNDATASIZE PUSH1 0x0 DUP1 RETURNDATACOPY RETURNDATASIZE PUSH1 0x0 REVERT JUMPDEST POP POP POP POP PUSH1 0x40 MLOAD RETURNDATASIZE PUSH1 0x1F NOT PUSH1 0x1F DUP3 ADD AND DUP3 ADD DUP1 PUSH1 0x40 MSTORE POP DUP2 ADD SWAP1 PUSH3 0xA1E SWAP2 SWAP1 PUSH3 0x120E JUMP JUMPDEST SWAP1 POP SWAP2 SWAP1 POP JUMP JUMPDEST PUSH1 0x0 DUP2 DUP2 SLOAD DUP2 LT PUSH3 0xA3C JUMPI PUSH3 0xA3B PUSH3 0x1150 JUMP JUMPDEST JUMPDEST SWAP1 PUSH1 0x0 MSTORE PUSH1 0x20 PUSH1 0x0 KECCAK256 ADD PUSH1 0x0 SWAP1 SLOAD SWAP1 PUSH2 0x100 EXP SWAP1 DIV PUSH20 0xFFFFFFFFFFFFFFFFFFFFFFFFFFFFFFFFFFFFFFFF AND PUSH20 0xFFFFFFFFFFFFFFFFFFFFFFFFFFFFFFFFFFFFFFFF AND PUSH4 0xF340FA01 CALLER PUSH1 0x40 MLOAD DUP3 PUSH4 0xFFFFFFFF AND PUSH1 0xE0 SHL DUP2 MSTORE PUSH1 0x4 ADD PUSH3 0xAA1 SWAP2 SWAP1 PUSH3 0x10C1 JUMP JUMPDEST PUSH1 0x0 PUSH1 0x40 MLOAD DUP1 DUP4 SUB DUP2 PUSH1 0x0 DUP8 DUP1 EXTCODESIZE ISZERO DUP1 ISZERO PUSH3 0xABC JUMPI PUSH1 0x0 DUP1 REVERT JUMPDEST POP GAS CALL ISZERO DUP1 ISZERO PUSH3 0xAD1 JUMPI RETURNDATASIZE PUSH1 0x0 DUP1 RETURNDATACOPY RETURNDATASIZE PUSH1 0x0 REVERT JUMPDEST POP POP POP POP POP JUMP JUMPDEST PUSH1 0x0 DUP1 DUP3 DUP2 SLOAD DUP2 LT PUSH3 0xAF0 JUMPI PUSH3 0xAEF PUSH3 0x1150 JUMP JUMPDEST JUMPDEST SWAP1 PUSH1 0x0 MSTORE PUSH1 0x20 PUSH1 0x0 KECCAK256 ADD PUSH1 0x0 SWAP1 SLOAD SWAP1 PUSH2 0x100 EXP SWAP1 DIV PUSH20 0xFFFFFFFFFFFFFFFFFFFFFFFFFFFFFFFFFFFFFFFF AND PUSH20 0xFFFFFFFFFFFFFFFFFFFFFFFFFFFFFFFFFFFFFFFF AND PUSH4 0xAEE8FF45 PUSH1 0x40 MLOAD DUP2 PUSH4 0xFFFFFFFF AND PUSH1 0xE0 SHL DUP2 MSTORE PUSH1 0x4 ADD PUSH1 0x20 PUSH1 0x40 MLOAD DUP1 DUP4 SUB DUP2 DUP7 GAS STATICCALL ISZERO DUP1 ISZERO PUSH3 0xB66 JUMPI RETURNDATASIZE PUSH1 0x0 DUP1 RETURNDATACOPY RETURNDATASIZE PUSH1 0x0 REVERT JUMPDEST POP POP POP POP PUSH1 0x40 MLOAD RETURNDATASIZE PUSH1 0x1F NOT PUSH1 0x1F DUP3 ADD AND DUP3 ADD DUP1 PUSH1 0x40 MSTORE POP DUP2 ADD SWAP1 PUSH3 0xB8C SWAP2 SWAP1 PUSH3 0x120E JUMP JUMPDEST SWAP1 POP SWAP2 SWAP1 POP JUMP JUMPDEST PUSH1 0x0 DUP1 DUP3 DUP2 SLOAD DUP2 LT PUSH3 0xBAB JUMPI PUSH3 0xBAA PUSH3 0x1150 JUMP JUMPDEST JUMPDEST SWAP1 PUSH1 0x0 MSTORE PUSH1 0x20 PUSH1 0x0 KECCAK256 ADD PUSH1 0x0 SWAP1 SLOAD SWAP1 PUSH2 0x100 EXP SWAP1 DIV PUSH20 0xFFFFFFFFFFFFFFFFFFFFFFFFFFFFFFFFFFFFFFFF AND PUSH20 0xFFFFFFFFFFFFFFFFFFFFFFFFFFFFFFFFFFFFFFFF AND PUSH4 0x6D5E7A15 PUSH1 0x40 MLOAD DUP2 PUSH4 0xFFFFFFFF AND PUSH1 0xE0 SHL DUP2 MSTORE PUSH1 0x4 ADD PUSH1 0x20 PUSH1 0x40 MLOAD DUP1 DUP4 SUB DUP2 DUP7 GAS STATICCALL ISZERO DUP1 ISZERO PUSH3 0xC21 JUMPI RETURNDATASIZE PUSH1 0x0 DUP1 RETURNDATACOPY RETURNDATASIZE PUSH1 0x0 REVERT JUMPDEST POP POP POP POP PUSH1 0x40 MLOAD RETURNDATASIZE PUSH1 0x1F NOT PUSH1 0x1F DUP3 ADD AND DUP3 ADD DUP1 PUSH1 0x40 MSTORE POP DUP2 ADD SWAP1 PUSH3 0xC47 SWAP2 SWAP1 PUSH3 0x1196 JUMP JUMPDEST SWAP1 POP SWAP2 SWAP1 POP JUMP JUMPDEST PUSH1 0x0 DUP2 DUP2 SLOAD DUP2 LT PUSH3 0xC65 JUMPI PUSH3 0xC64 PUSH3 0x1150 JUMP JUMPDEST JUMPDEST SWAP1 PUSH1 0x0 MSTORE PUSH1 0x20 PUSH1 0x0 KECCAK256 ADD PUSH1 0x0 SWAP1 SLOAD SWAP1 PUSH2 0x100 EXP SWAP1 DIV PUSH20 0xFFFFFFFFFFFFFFFFFFFFFFFFFFFFFFFFFFFFFFFF AND PUSH20 0xFFFFFFFFFFFFFFFFFFFFFFFFFFFFFFFFFFFFFFFF AND PUSH4 0x51CFF8D9 CALLER PUSH1 0x40 MLOAD DUP3 PUSH4 0xFFFFFFFF AND PUSH1 0xE0 SHL DUP2 MSTORE PUSH1 0x4 ADD PUSH3 0xCCA SWAP2 SWAP1 PUSH3 0x10C1 JUMP JUMPDEST PUSH1 0x0 PUSH1 0x40 MLOAD DUP1 DUP4 SUB DUP2 PUSH1 0x0 DUP8 DUP1 EXTCODESIZE ISZERO DUP1 ISZERO PUSH3 0xCE5 JUMPI PUSH1 0x0 DUP1 REVERT JUMPDEST POP GAS CALL ISZERO DUP1 ISZERO PUSH3 0xCFA JUMPI RETURNDATASIZE PUSH1 0x0 DUP1 RETURNDATACOPY RETURNDATASIZE PUSH1 0x0 REVERT JUMPDEST POP POP POP POP POP JUMP JUMPDEST PUSH1 0x0 DUP1 CALLER DUP7 DUP7 DUP7 DUP7 PUSH1 0x40 MLOAD PUSH3 0xD17 SWAP1 PUSH3 0xDF1 JUMP JUMPDEST PUSH3 0xD27 SWAP6 SWAP5 SWAP4 SWAP3 SWAP2 SWAP1 PUSH3 0x12E1 JUMP JUMPDEST PUSH1 0x40 MLOAD DUP1 SWAP2 SUB SWAP1 PUSH1 0x0 CREATE DUP1 ISZERO DUP1 ISZERO PUSH3 0xD44 JUMPI RETURNDATASIZE PUSH1 0x0 DUP1 RETURNDATACOPY RETURNDATASIZE PUSH1 0x0 REVERT JUMPDEST POP SWAP1 POP PUSH1 0x0 DUP2 SWAP1 DUP1 PUSH1 0x1 DUP2 SLOAD ADD DUP1 DUP3 SSTORE DUP1 SWAP2 POP POP PUSH1 0x1 SWAP1 SUB SWAP1 PUSH1 0x0 MSTORE PUSH1 0x20 PUSH1 0x0 KECCAK256 ADD PUSH1 0x0 SWAP1 SWAP2 SWAP1 SWAP2 SWAP1 SWAP2 PUSH2 0x100 EXP DUP2 SLOAD DUP2 PUSH20 0xFFFFFFFFFFFFFFFFFFFFFFFFFFFFFFFFFFFFFFFF MUL NOT AND SWAP1 DUP4 PUSH20 0xFFFFFFFFFFFFFFFFFFFFFFFFFFFFFFFFFFFFFFFF AND MUL OR SWAP1 SSTORE POP PUSH32 0x14A8EC3FA88B43EE6D7A7A0E47E3468F408E39A1CF0BE757BB6C81B94E2FDB9E DUP2 CALLER PUSH1 0x40 MLOAD PUSH3 0xDDD SWAP3 SWAP2 SWAP1 PUSH3 0x133E JUMP JUMPDEST PUSH1 0x40 MLOAD DUP1 SWAP2 SUB SWAP1 LOG1 DUP1 SWAP2 POP POP SWAP5 SWAP4 POP POP POP POP JUMP JUMPDEST PUSH2 0xEB5 DUP1 PUSH3 0x136C DUP4 CODECOPY ADD SWAP1 JUMP JUMPDEST PUSH1 0x0 DUP1 REVERT JUMPDEST PUSH1 0x0 DUP2 SWAP1 POP SWAP2 SWAP1 POP JUMP JUMPDEST PUSH3 0xE19 DUP2 PUSH3 0xE04 JUMP JUMPDEST DUP2 EQ PUSH3 0xE25 JUMPI PUSH1 0x0 DUP1 REVERT JUMPDEST POP JUMP JUMPDEST PUSH1 0x0 DUP2 CALLDATALOAD SWAP1 POP PUSH3 0xE39 DUP2 PUSH3 0xE0E JUMP JUMPDEST SWAP3 SWAP2 POP POP JUMP JUMPDEST PUSH1 0x0 PUSH1 0x20 DUP3 DUP5 SUB SLT ISZERO PUSH3 0xE58 JUMPI PUSH3 0xE57 PUSH3 0xDFF JUMP JUMPDEST JUMPDEST PUSH1 0x0 PUSH3 0xE68 DUP5 DUP3 DUP6 ADD PUSH3 0xE28 JUMP JUMPDEST SWAP2 POP POP SWAP3 SWAP2 POP POP JUMP JUMPDEST PUSH3 0xE7C DUP2 PUSH3 0xE04 JUMP JUMPDEST DUP3 MSTORE POP POP JUMP JUMPDEST PUSH1 0x0 PUSH1 0x20 DUP3 ADD SWAP1 POP PUSH3 0xE99 PUSH1 0x0 DUP4 ADD DUP5 PUSH3 0xE71 JUMP JUMPDEST SWAP3 SWAP2 POP POP JUMP JUMPDEST PUSH1 0x0 PUSH20 0xFFFFFFFFFFFFFFFFFFFFFFFFFFFFFFFFFFFFFFFF DUP3 AND SWAP1 POP SWAP2 SWAP1 POP JUMP JUMPDEST PUSH1 0x0 DUP2 SWAP1 POP SWAP2 SWAP1 POP JUMP JUMPDEST PUSH1 0x0 PUSH3 0xEEA PUSH3 0xEE4 PUSH3 0xEDE DUP5 PUSH3 0xE9F JUMP JUMPDEST PUSH3 0xEBF JUMP JUMPDEST PUSH3 0xE9F JUMP JUMPDEST SWAP1 POP SWAP2 SWAP1 POP JUMP JUMPDEST PUSH1 0x0 PUSH3 0xEFE DUP3 PUSH3 0xEC9 JUMP JUMPDEST SWAP1 POP SWAP2 SWAP1 POP JUMP JUMPDEST PUSH1 0x0 PUSH3 0xF12 DUP3 PUSH3 0xEF1 JUMP JUMPDEST SWAP1 POP SWAP2 SWAP1 POP JUMP JUMPDEST PUSH3 0xF24 DUP2 PUSH3 0xF05 JUMP JUMPDEST DUP3 MSTORE POP POP JUMP JUMPDEST PUSH1 0x0 PUSH1 0x20 DUP3 ADD SWAP1 POP PUSH3 0xF41 PUSH1 0x0 DUP4 ADD DUP5 PUSH3 0xF19 JUMP JUMPDEST SWAP3 SWAP2 POP POP JUMP JUMPDEST PUSH1 0x0 PUSH3 0xF54 DUP3 PUSH3 0xE9F JUMP JUMPDEST SWAP1 POP SWAP2 SWAP1 POP JUMP JUMPDEST PUSH3 0xF66 DUP2 PUSH3 0xF47 JUMP JUMPDEST DUP2 EQ PUSH3 0xF72 JUMPI PUSH1 0x0 DUP1 REVERT JUMPDEST POP JUMP JUMPDEST PUSH1 0x0 DUP2 CALLDATALOAD SWAP1 POP PUSH3 0xF86 DUP2 PUSH3 0xF5B JUMP JUMPDEST SWAP3 SWAP2 POP POP JUMP JUMPDEST PUSH1 0x0 PUSH1 0x20 DUP3 DUP5 SUB SLT ISZERO PUSH3 0xFA5 JUMPI PUSH3 0xFA4 PUSH3 0xDFF JUMP JUMPDEST JUMPDEST PUSH1 0x0 PUSH3 0xFB5 DUP5 DUP3 DUP6 ADD PUSH3 0xF75 JUMP JUMPDEST SWAP2 POP POP SWAP3 SWAP2 POP POP JUMP JUMPDEST PUSH1 0x0 DUP2 MLOAD SWAP1 POP SWAP2 SWAP1 POP JUMP JUMPDEST PUSH1 0x0 DUP3 DUP3 MSTORE PUSH1 0x20 DUP3 ADD SWAP1 POP SWAP3 SWAP2 POP POP JUMP JUMPDEST PUSH1 0x0 DUP2 SWAP1 POP PUSH1 0x20 DUP3 ADD SWAP1 POP SWAP2 SWAP1 POP JUMP JUMPDEST PUSH3 0xFF5 DUP2 PUSH3 0xE04 JUMP JUMPDEST DUP3 MSTORE POP POP JUMP JUMPDEST PUSH1 0x0 PUSH3 0x1009 DUP4 DUP4 PUSH3 0xFEA JUMP JUMPDEST PUSH1 0x20 DUP4 ADD SWAP1 POP SWAP3 SWAP2 POP POP JUMP JUMPDEST PUSH1 0x0 PUSH1 0x20 DUP3 ADD SWAP1 POP SWAP2 SWAP1 POP JUMP JUMPDEST PUSH1 0x0 PUSH3 0x102F DUP3 PUSH3 0xFBE JUMP JUMPDEST PUSH3 0x103B DUP2 DUP6 PUSH3 0xFC9 JUMP JUMPDEST SWAP4 POP PUSH3 0x1048 DUP4 PUSH3 0xFDA JUMP JUMPDEST DUP1 PUSH1 0x0 JUMPDEST DUP4 DUP2 LT ISZERO PUSH3 0x107F JUMPI DUP2 MLOAD PUSH3 0x1063 DUP9 DUP3 PUSH3 0xFFB JUMP JUMPDEST SWAP8 POP PUSH3 0x1070 DUP4 PUSH3 0x1015 JUMP JUMPDEST SWAP3 POP POP PUSH1 0x1 DUP2 ADD SWAP1 POP PUSH3 0x104C JUMP JUMPDEST POP DUP6 SWAP4 POP POP POP POP SWAP3 SWAP2 POP POP JUMP JUMPDEST PUSH1 0x0 PUSH1 0x20 DUP3 ADD SWAP1 POP DUP2 DUP2 SUB PUSH1 0x0 DUP4 ADD MSTORE PUSH3 0x10A8 DUP2 DUP5 PUSH3 0x1022 JUMP JUMPDEST SWAP1 POP SWAP3 SWAP2 POP POP JUMP JUMPDEST PUSH3 0x10BB DUP2 PUSH3 0xF47 JUMP JUMPDEST DUP3 MSTORE POP POP JUMP JUMPDEST PUSH1 0x0 PUSH1 0x20 DUP3 ADD SWAP1 POP PUSH3 0x10D8 PUSH1 0x0 DUP4 ADD DUP5 PUSH3 0x10B0 JUMP JUMPDEST SWAP3 SWAP2 POP POP JUMP JUMPDEST PUSH1 0x0 DUP1 PUSH1 0x0 DUP1 PUSH1 0x80 DUP6 DUP8 SUB SLT ISZERO PUSH3 0x10FB JUMPI PUSH3 0x10FA PUSH3 0xDFF JUMP JUMPDEST JUMPDEST PUSH1 0x0 PUSH3 0x110B DUP8 DUP3 DUP9 ADD PUSH3 0xF75 JUMP JUMPDEST SWAP5 POP POP PUSH1 0x20 PUSH3 0x111E DUP8 DUP3 DUP9 ADD PUSH3 0xE28 JUMP JUMPDEST SWAP4 POP POP PUSH1 0x40 PUSH3 0x1131 DUP8 DUP3 DUP9 ADD PUSH3 0xE28 JUMP JUMPDEST SWAP3 POP POP PUSH1 0x60 PUSH3 0x1144 DUP8 DUP3 DUP9 ADD PUSH3 0xE28 JUMP JUMPDEST SWAP2 POP POP SWAP3 SWAP6 SWAP2 SWAP5 POP SWAP3 POP JUMP JUMPDEST PUSH32 0x4E487B7100000000000000000000000000000000000000000000000000000000 PUSH1 0x0 MSTORE PUSH1 0x32 PUSH1 0x4 MSTORE PUSH1 0x24 PUSH1 0x0 REVERT JUMPDEST PUSH1 0x0 DUP2 MLOAD SWAP1 POP PUSH3 0x1190 DUP2 PUSH3 0xE0E JUMP JUMPDEST SWAP3 SWAP2 POP POP JUMP JUMPDEST PUSH1 0x0 PUSH1 0x20 DUP3 DUP5 SUB SLT ISZERO PUSH3 0x11AF JUMPI PUSH3 0x11AE PUSH3 0xDFF JUMP JUMPDEST JUMPDEST PUSH1 0x0 PUSH3 0x11BF DUP5 DUP3 DUP6 ADD PUSH3 0x117F JUMP JUMPDEST SWAP2 POP POP SWAP3 SWAP2 POP POP JUMP JUMPDEST PUSH32 0x4E487B7100000000000000000000000000000000000000000000000000000000 PUSH1 0x0 MSTORE PUSH1 0x41 PUSH1 0x4 MSTORE PUSH1 0x24 PUSH1 0x0 REVERT JUMPDEST PUSH1 0x0 DUP2 MLOAD SWAP1 POP PUSH3 0x1208 DUP2 PUSH3 0xF5B JUMP JUMPDEST SWAP3 SWAP2 POP POP JUMP JUMPDEST PUSH1 0x0 PUSH1 0x20 DUP3 DUP5 SUB SLT ISZERO PUSH3 0x1227 JUMPI PUSH3 0x1226 PUSH3 0xDFF JUMP JUMPDEST JUMPDEST PUSH1 0x0 PUSH3 0x1237 DUP5 DUP3 DUP6 ADD PUSH3 0x11F7 JUMP JUMPDEST SWAP2 POP POP SWAP3 SWAP2 POP POP JUMP JUMPDEST PUSH32 0x4E487B7100000000000000000000000000000000000000000000000000000000 PUSH1 0x0 MSTORE PUSH1 0x11 PUSH1 0x4 MSTORE PUSH1 0x24 PUSH1 0x0 REVERT JUMPDEST PUSH1 0x0 PUSH3 0x127C DUP3 PUSH3 0xE04 JUMP JUMPDEST SWAP2 POP PUSH32 0xFFFFFFFFFFFFFFFFFFFFFFFFFFFFFFFFFFFFFFFFFFFFFFFFFFFFFFFFFFFFFFFF DUP3 SUB PUSH3 0x12B1 JUMPI PUSH3 0x12B0 PUSH3 0x1240 JUMP JUMPDEST JUMPDEST PUSH1 0x1 DUP3 ADD SWAP1 POP SWAP2 SWAP1 POP JUMP JUMPDEST PUSH1 0x0 PUSH3 0x12C9 DUP3 PUSH3 0xE9F JUMP JUMPDEST SWAP1 POP SWAP2 SWAP1 POP JUMP JUMPDEST PUSH3 0x12DB DUP2 PUSH3 0x12BC JUMP JUMPDEST DUP3 MSTORE POP POP JUMP JUMPDEST PUSH1 0x0 PUSH1 0xA0 DUP3 ADD SWAP1 POP PUSH3 0x12F8 PUSH1 0x0 DUP4 ADD DUP9 PUSH3 0x12D0 JUMP JUMPDEST PUSH3 0x1307 PUSH1 0x20 DUP4 ADD DUP8 PUSH3 0x12D0 JUMP JUMPDEST PUSH3 0x1316 PUSH1 0x40 DUP4 ADD DUP7 PUSH3 0xE71 JUMP JUMPDEST PUSH3 0x1325 PUSH1 0x60 DUP4 ADD DUP6 PUSH3 0xE71 JUMP JUMPDEST PUSH3 0x1334 PUSH1 0x80 DUP4 ADD DUP5 PUSH3 0xE71 JUMP JUMPDEST SWAP7 SWAP6 POP POP POP POP POP POP JUMP JUMPDEST PUSH1 0x0 PUSH1 0x40 DUP3 ADD SWAP1 POP PUSH3 0x1355 PUSH1 0x0 DUP4 ADD DUP6 PUSH3 0x10B0 JUMP JUMPDEST PUSH3 0x1364 PUSH1 0x20 DUP4 ADD DUP5 PUSH3 0x10B0 JUMP JUMPDEST SWAP4 SWAP3 POP POP POP JUMP INVALID PUSH1 0x80 PUSH1 0x40 MSTORE CALLVALUE DUP1 ISZERO PUSH3 0x11 JUMPI PUSH1 0x0 DUP1 REVERT JUMPDEST POP PUSH1 0x40 MLOAD PUSH3 0xEB5 CODESIZE SUB DUP1 PUSH3 0xEB5 DUP4 CODECOPY DUP2 DUP2 ADD PUSH1 0x40 MSTORE DUP2 ADD SWAP1 PUSH3 0x37 SWAP2 SWAP1 PUSH3 0x186 JUMP JUMPDEST PUSH1 0x1 PUSH1 0x0 DUP2 SWAP1 SSTORE POP DUP5 PUSH1 0x1 PUSH1 0x0 PUSH2 0x100 EXP DUP2 SLOAD DUP2 PUSH20 0xFFFFFFFFFFFFFFFFFFFFFFFFFFFFFFFFFFFFFFFF MUL NOT AND SWAP1 DUP4 PUSH20 0xFFFFFFFFFFFFFFFFFFFFFFFFFFFFFFFFFFFFFFFF AND MUL OR SWAP1 SSTORE POP DUP4 PUSH1 0x2 PUSH1 0x0 PUSH2 0x100 EXP DUP2 SLOAD DUP2 PUSH20 0xFFFFFFFFFFFFFFFFFFFFFFFFFFFFFFFFFFFFFFFF MUL NOT AND SWAP1 DUP4 PUSH20 0xFFFFFFFFFFFFFFFFFFFFFFFFFFFFFFFFFFFFFFFF AND MUL OR SWAP1 SSTORE POP DUP3 PUSH1 0x3 DUP2 SWAP1 SSTORE POP DUP2 PUSH1 0x4 DUP2 SWAP1 SSTORE POP DUP1 PUSH1 0x5 DUP2 SWAP1 SSTORE POP POP POP POP POP POP PUSH3 0x20E JUMP JUMPDEST PUSH1 0x0 DUP1 REVERT JUMPDEST PUSH1 0x0 PUSH20 0xFFFFFFFFFFFFFFFFFFFFFFFFFFFFFFFFFFFFFFFF DUP3 AND SWAP1 POP SWAP2 SWAP1 POP JUMP JUMPDEST PUSH1 0x0 PUSH3 0x113 DUP3 PUSH3 0xE6 JUMP JUMPDEST SWAP1 POP SWAP2 SWAP1 POP JUMP JUMPDEST PUSH3 0x125 DUP2 PUSH3 0x106 JUMP JUMPDEST DUP2 EQ PUSH3 0x131 JUMPI PUSH1 0x0 DUP1 REVERT JUMPDEST POP JUMP JUMPDEST PUSH1 0x0 DUP2 MLOAD SWAP1 POP PUSH3 0x145 DUP2 PUSH3 0x11A JUMP JUMPDEST SWAP3 SWAP2 POP POP JUMP JUMPDEST PUSH1 0x0 DUP2 SWAP1 POP SWAP2 SWAP1 POP JUMP JUMPDEST PUSH3 0x160 DUP2 PUSH3 0x14B JUMP JUMPDEST DUP2 EQ PUSH3 0x16C JUMPI PUSH1 0x0 DUP1 REVERT JUMPDEST POP JUMP JUMPDEST PUSH1 0x0 DUP2 MLOAD SWAP1 POP PUSH3 0x180 DUP2 PUSH3 0x155 JUMP JUMPDEST SWAP3 SWAP2 POP POP JUMP JUMPDEST PUSH1 0x0 DUP1 PUSH1 0x0 DUP1 PUSH1 0x0 PUSH1 0xA0 DUP7 DUP9 SUB SLT ISZERO PUSH3 0x1A5 JUMPI PUSH3 0x1A4 PUSH3 0xE1 JUMP JUMPDEST JUMPDEST PUSH1 0x0 PUSH3 0x1B5 DUP9 DUP3 DUP10 ADD PUSH3 0x134 JUMP JUMPDEST SWAP6 POP POP PUSH1 0x20 PUSH3 0x1C8 DUP9 DUP3 DUP10 ADD PUSH3 0x134 JUMP JUMPDEST SWAP5 POP POP PUSH1 0x40 PUSH3 0x1DB DUP9 DUP3 DUP10 ADD PUSH3 0x16F JUMP JUMPDEST SWAP4 POP POP PUSH1 0x60 PUSH3 0x1EE DUP9 DUP3 DUP10 ADD PUSH3 0x16F JUMP JUMPDEST SWAP3 POP POP PUSH1 0x80 PUSH3 0x201 DUP9 DUP3 DUP10 ADD PUSH3 0x16F JUMP JUMPDEST SWAP2 POP POP SWAP3 SWAP6 POP SWAP3 SWAP6 SWAP1 SWAP4 POP JUMP JUMPDEST PUSH2 0xC97 DUP1 PUSH3 0x21E PUSH1 0x0 CODECOPY PUSH1 0x0 RETURN INVALID PUSH1 0x80 PUSH1 0x40 MSTORE PUSH1 0x4 CALLDATASIZE LT PUSH2 0xAB JUMPI PUSH1 0x0 CALLDATALOAD PUSH1 0xE0 SHR DUP1 PUSH4 0x94A927FE GT PUSH2 0x64 JUMPI DUP1 PUSH4 0x94A927FE EQ PUSH2 0x271 JUMPI DUP1 PUSH4 0xA2093D81 EQ PUSH2 0x29C JUMPI DUP1 PUSH4 0xAEE8FF45 EQ PUSH2 0x2C7 JUMPI DUP1 PUSH4 0xC24A0F8B EQ PUSH2 0x2F2 JUMPI DUP1 PUSH4 0xDB292621 EQ PUSH2 0x31D JUMPI DUP1 PUSH4 0xF340FA01 EQ PUSH2 0x348 JUMPI PUSH2 0x117 JUMP JUMPDEST DUP1 PUSH4 0x220E5AB3 EQ PUSH2 0x17E JUMPI DUP1 PUSH4 0x31658E32 EQ PUSH2 0x1A9 JUMPI DUP1 PUSH4 0x36359265 EQ PUSH2 0x1D4 JUMPI DUP1 PUSH4 0x51CFF8D9 EQ PUSH2 0x1FF JUMPI DUP1 PUSH4 0x6D5E7A15 EQ PUSH2 0x21B JUMPI DUP1 PUSH4 0x83ABB1D5 EQ PUSH2 0x246 JUMPI PUSH2 0x117 JUMP JUMPDEST CALLDATASIZE PUSH2 0x117 JUMPI CALLER PUSH20 0xFFFFFFFFFFFFFFFFFFFFFFFFFFFFFFFFFFFFFFFF AND ADDRESS PUSH20 0xFFFFFFFFFFFFFFFFFFFFFFFFFFFFFFFFFFFFFFFF AND PUSH32 0x5548C837AB068CF56A2C2479DF0882A4922FD203EDB7517321831D95078C5F62 CALLVALUE PUSH1 0x40 MLOAD PUSH2 0x10D SWAP2 SWAP1 PUSH2 0x84E JUMP JUMPDEST PUSH1 0x40 MLOAD DUP1 SWAP2 SUB SWAP1 LOG3 STOP JUMPDEST CALLER PUSH20 0xFFFFFFFFFFFFFFFFFFFFFFFFFFFFFFFFFFFFFFFF AND ADDRESS PUSH20 0xFFFFFFFFFFFFFFFFFFFFFFFFFFFFFFFFFFFFFFFF AND PUSH32 0x5548C837AB068CF56A2C2479DF0882A4922FD203EDB7517321831D95078C5F62 CALLVALUE PUSH1 0x40 MLOAD PUSH2 0x174 SWAP2 SWAP1 PUSH2 0x84E JUMP JUMPDEST PUSH1 0x40 MLOAD DUP1 SWAP2 SUB SWAP1 LOG3 STOP JUMPDEST CALLVALUE DUP1 ISZERO PUSH2 0x18A JUMPI PUSH1 0x0 DUP1 REVERT JUMPDEST POP PUSH2 0x193 PUSH2 0x364 JUMP JUMPDEST PUSH1 0x40 MLOAD PUSH2 0x1A0 SWAP2 SWAP1 PUSH2 0x84E JUMP JUMPDEST PUSH1 0x40 MLOAD DUP1 SWAP2 SUB SWAP1 RETURN JUMPDEST CALLVALUE DUP1 ISZERO PUSH2 0x1B5 JUMPI PUSH1 0x0 DUP1 REVERT JUMPDEST POP PUSH2 0x1BE PUSH2 0x36A JUMP JUMPDEST PUSH1 0x40 MLOAD PUSH2 0x1CB SWAP2 SWAP1 PUSH2 0x84E JUMP JUMPDEST PUSH1 0x40 MLOAD DUP1 SWAP2 SUB SWAP1 RETURN JUMPDEST CALLVALUE DUP1 ISZERO PUSH2 0x1E0 JUMPI PUSH1 0x0 DUP1 REVERT JUMPDEST POP PUSH2 0x1E9 PUSH2 0x374 JUMP JUMPDEST PUSH1 0x40 MLOAD PUSH2 0x1F6 SWAP2 SWAP1 PUSH2 0x84E JUMP JUMPDEST PUSH1 0x40 MLOAD DUP1 SWAP2 SUB SWAP1 RETURN JUMPDEST PUSH2 0x219 PUSH1 0x4 DUP1 CALLDATASIZE SUB DUP2 ADD SWAP1 PUSH2 0x214 SWAP2 SWAP1 PUSH2 0x8CC JUMP JUMPDEST PUSH2 0x37E JUMP JUMPDEST STOP JUMPDEST CALLVALUE DUP1 ISZERO PUSH2 0x227 JUMPI PUSH1 0x0 DUP1 REVERT JUMPDEST POP PUSH2 0x230 PUSH2 0x668 JUMP JUMPDEST PUSH1 0x40 MLOAD PUSH2 0x23D SWAP2 SWAP1 PUSH2 0x84E JUMP JUMPDEST PUSH1 0x40 MLOAD DUP1 SWAP2 SUB SWAP1 RETURN JUMPDEST CALLVALUE DUP1 ISZERO PUSH2 0x252 JUMPI PUSH1 0x0 DUP1 REVERT JUMPDEST POP PUSH2 0x25B PUSH2 0x66E JUMP JUMPDEST PUSH1 0x40 MLOAD PUSH2 0x268 SWAP2 SWAP1 PUSH2 0x84E JUMP JUMPDEST PUSH1 0x40 MLOAD DUP1 SWAP2 SUB SWAP1 RETURN JUMPDEST CALLVALUE DUP1 ISZERO PUSH2 0x27D JUMPI PUSH1 0x0 DUP1 REVERT JUMPDEST POP PUSH2 0x286 PUSH2 0x674 JUMP JUMPDEST PUSH1 0x40 MLOAD PUSH2 0x293 SWAP2 SWAP1 PUSH2 0x908 JUMP JUMPDEST PUSH1 0x40 MLOAD DUP1 SWAP2 SUB SWAP1 RETURN JUMPDEST CALLVALUE DUP1 ISZERO PUSH2 0x2A8 JUMPI PUSH1 0x0 DUP1 REVERT JUMPDEST POP PUSH2 0x2B1 PUSH2 0x69E JUMP JUMPDEST PUSH1 0x40 MLOAD PUSH2 0x2BE SWAP2 SWAP1 PUSH2 0x84E JUMP JUMPDEST PUSH1 0x40 MLOAD DUP1 SWAP2 SUB SWAP1 RETURN JUMPDEST CALLVALUE DUP1 ISZERO PUSH2 0x2D3 JUMPI PUSH1 0x0 DUP1 REVERT JUMPDEST POP PUSH2 0x2DC PUSH2 0x6A8 JUMP JUMPDEST PUSH1 0x40 MLOAD PUSH2 0x2E9 SWAP2 SWAP1 PUSH2 0x908 JUMP JUMPDEST PUSH1 0x40 MLOAD DUP1 SWAP2 SUB SWAP1 RETURN JUMPDEST CALLVALUE DUP1 ISZERO PUSH2 0x2FE JUMPI PUSH1 0x0 DUP1 REVERT JUMPDEST POP PUSH2 0x307 PUSH2 0x6D2 JUMP JUMPDEST PUSH1 0x40 MLOAD PUSH2 0x314 SWAP2 SWAP1 PUSH2 0x84E JUMP JUMPDEST PUSH1 0x40 MLOAD DUP1 SWAP2 SUB SWAP1 RETURN JUMPDEST CALLVALUE DUP1 ISZERO PUSH2 0x329 JUMPI PUSH1 0x0 DUP1 REVERT JUMPDEST POP PUSH2 0x332 PUSH2 0x6D8 JUMP JUMPDEST PUSH1 0x40 MLOAD PUSH2 0x33F SWAP2 SWAP1 PUSH2 0x84E JUMP JUMPDEST PUSH1 0x40 MLOAD DUP1 SWAP2 SUB SWAP1 RETURN JUMPDEST PUSH2 0x362 PUSH1 0x4 DUP1 CALLDATASIZE SUB DUP2 ADD SWAP1 PUSH2 0x35D SWAP2 SWAP1 PUSH2 0x8CC JUMP JUMPDEST PUSH2 0x6E2 JUMP JUMPDEST STOP JUMPDEST PUSH1 0x3 SLOAD DUP2 JUMP JUMPDEST PUSH1 0x0 PUSH1 0x5 SLOAD SWAP1 POP SWAP1 JUMP JUMPDEST PUSH1 0x0 PUSH1 0x4 SLOAD SWAP1 POP SWAP1 JUMP JUMPDEST PUSH2 0x386 PUSH2 0x7DC JUMP JUMPDEST PUSH1 0x0 SELFBALANCE SUB PUSH2 0x3C9 JUMPI PUSH1 0x40 MLOAD PUSH32 0x8C379A000000000000000000000000000000000000000000000000000000000 DUP2 MSTORE PUSH1 0x4 ADD PUSH2 0x3C0 SWAP1 PUSH2 0x980 JUMP JUMPDEST PUSH1 0x40 MLOAD DUP1 SWAP2 SUB SWAP1 REVERT JUMPDEST PUSH1 0x4 SLOAD TIMESTAMP LT PUSH2 0x40D JUMPI PUSH1 0x40 MLOAD PUSH32 0x8C379A000000000000000000000000000000000000000000000000000000000 DUP2 MSTORE PUSH1 0x4 ADD PUSH2 0x404 SWAP1 PUSH2 0x9EC JUMP JUMPDEST PUSH1 0x40 MLOAD DUP1 SWAP2 SUB SWAP1 REVERT JUMPDEST PUSH1 0x4 SLOAD TIMESTAMP GT DUP1 ISZERO PUSH2 0x43A JUMPI POP PUSH3 0x15180 PUSH1 0x5 SLOAD PUSH2 0x42A SWAP2 SWAP1 PUSH2 0xA3B JUMP JUMPDEST PUSH1 0x4 SLOAD PUSH2 0x437 SWAP2 SWAP1 PUSH2 0xA7D JUMP JUMPDEST TIMESTAMP LT JUMPDEST ISZERO PUSH2 0x53D JUMPI DUP1 PUSH20 0xFFFFFFFFFFFFFFFFFFFFFFFFFFFFFFFFFFFFFFFF AND PUSH1 0x1 PUSH1 0x0 SWAP1 SLOAD SWAP1 PUSH2 0x100 EXP SWAP1 DIV PUSH20 0xFFFFFFFFFFFFFFFFFFFFFFFFFFFFFFFFFFFFFFFF AND PUSH20 0xFFFFFFFFFFFFFFFFFFFFFFFFFFFFFFFFFFFFFFFF AND EQ PUSH2 0x4CF JUMPI PUSH1 0x40 MLOAD PUSH32 0x8C379A000000000000000000000000000000000000000000000000000000000 DUP2 MSTORE PUSH1 0x4 ADD PUSH2 0x4C6 SWAP1 PUSH2 0xAFD JUMP JUMPDEST PUSH1 0x40 MLOAD DUP1 SWAP2 SUB SWAP1 REVERT JUMPDEST PUSH1 0x1 PUSH1 0x0 SWAP1 SLOAD SWAP1 PUSH2 0x100 EXP SWAP1 DIV PUSH20 0xFFFFFFFFFFFFFFFFFFFFFFFFFFFFFFFFFFFFFFFF AND PUSH20 0xFFFFFFFFFFFFFFFFFFFFFFFFFFFFFFFFFFFFFFFF AND PUSH2 0x8FC SELFBALANCE SWAP1 DUP2 ISZERO MUL SWAP1 PUSH1 0x40 MLOAD PUSH1 0x0 PUSH1 0x40 MLOAD DUP1 DUP4 SUB DUP2 DUP6 DUP9 DUP9 CALL SWAP4 POP POP POP POP ISZERO DUP1 ISZERO PUSH2 0x537 JUMPI RETURNDATASIZE PUSH1 0x0 DUP1 RETURNDATACOPY RETURNDATASIZE PUSH1 0x0 REVERT JUMPDEST POP PUSH2 0x65D JUMP JUMPDEST PUSH3 0x15180 PUSH1 0x5 SLOAD PUSH2 0x54E SWAP2 SWAP1 PUSH2 0xA3B JUMP JUMPDEST PUSH1 0x4 SLOAD PUSH2 0x55B SWAP2 SWAP1 PUSH2 0xA7D JUMP JUMPDEST TIMESTAMP GT ISZERO PUSH2 0x65C JUMPI DUP1 PUSH20 0xFFFFFFFFFFFFFFFFFFFFFFFFFFFFFFFFFFFFFFFF AND PUSH1 0x2 PUSH1 0x0 SWAP1 SLOAD SWAP1 PUSH2 0x100 EXP SWAP1 DIV PUSH20 0xFFFFFFFFFFFFFFFFFFFFFFFFFFFFFFFFFFFFFFFF AND PUSH20 0xFFFFFFFFFFFFFFFFFFFFFFFFFFFFFFFFFFFFFFFF AND EQ PUSH2 0x5F2 JUMPI PUSH1 0x40 MLOAD PUSH32 0x8C379A000000000000000000000000000000000000000000000000000000000 DUP2 MSTORE PUSH1 0x4 ADD PUSH2 0x5E9 SWAP1 PUSH2 0xB69 JUMP JUMPDEST PUSH1 0x40 MLOAD DUP1 SWAP2 SUB SWAP1 REVERT JUMPDEST PUSH1 0x2 PUSH1 0x0 SWAP1 SLOAD SWAP1 PUSH2 0x100 EXP SWAP1 DIV PUSH20 0xFFFFFFFFFFFFFFFFFFFFFFFFFFFFFFFFFFFFFFFF AND PUSH20 0xFFFFFFFFFFFFFFFFFFFFFFFFFFFFFFFFFFFFFFFF AND PUSH2 0x8FC SELFBALANCE SWAP1 DUP2 ISZERO MUL SWAP1 PUSH1 0x40 MLOAD PUSH1 0x0 PUSH1 0x40 MLOAD DUP1 DUP4 SUB DUP2 DUP6 DUP9 DUP9 CALL SWAP4 POP POP POP POP ISZERO DUP1 ISZERO PUSH2 0x65A JUMPI RETURNDATASIZE PUSH1 0x0 DUP1 RETURNDATACOPY RETURNDATASIZE PUSH1 0x0 REVERT JUMPDEST POP JUMPDEST JUMPDEST PUSH2 0x665 PUSH2 0x82B JUMP JUMPDEST POP JUMP JUMPDEST PUSH1 0x5 SLOAD DUP2 JUMP JUMPDEST PUSH1 0x6 SLOAD DUP2 JUMP JUMPDEST PUSH1 0x0 PUSH1 0x1 PUSH1 0x0 SWAP1 SLOAD SWAP1 PUSH2 0x100 EXP SWAP1 DIV PUSH20 0xFFFFFFFFFFFFFFFFFFFFFFFFFFFFFFFFFFFFFFFF AND SWAP1 POP SWAP1 JUMP JUMPDEST PUSH1 0x0 PUSH1 0x6 SLOAD SWAP1 POP SWAP1 JUMP JUMPDEST PUSH1 0x0 PUSH1 0x2 PUSH1 0x0 SWAP1 SLOAD SWAP1 PUSH2 0x100 EXP SWAP1 DIV PUSH20 0xFFFFFFFFFFFFFFFFFFFFFFFFFFFFFFFFFFFFFFFF AND SWAP1 POP SWAP1 JUMP JUMPDEST PUSH1 0x4 SLOAD DUP2 JUMP JUMPDEST PUSH1 0x0 PUSH1 0x3 SLOAD SWAP1 POP SWAP1 JUMP JUMPDEST PUSH1 0x2 PUSH1 0x0 SWAP1 SLOAD SWAP1 PUSH2 0x100 EXP SWAP1 DIV PUSH20 0xFFFFFFFFFFFFFFFFFFFFFFFFFFFFFFFFFFFFFFFF AND PUSH20 0xFFFFFFFFFFFFFFFFFFFFFFFFFFFFFFFFFFFFFFFF AND DUP2 PUSH20 0xFFFFFFFFFFFFFFFFFFFFFFFFFFFFFFFFFFFFFFFF AND EQ PUSH2 0x772 JUMPI PUSH1 0x40 MLOAD PUSH32 0x8C379A000000000000000000000000000000000000000000000000000000000 DUP2 MSTORE PUSH1 0x4 ADD PUSH2 0x769 SWAP1 PUSH2 0xBD5 JUMP JUMPDEST PUSH1 0x40 MLOAD DUP1 SWAP2 SUB SWAP1 REVERT JUMPDEST CALLVALUE PUSH1 0x6 PUSH1 0x0 DUP3 DUP3 SLOAD PUSH2 0x784 SWAP2 SWAP1 PUSH2 0xA7D JUMP JUMPDEST SWAP3 POP POP DUP2 SWAP1 SSTORE POP DUP1 PUSH20 0xFFFFFFFFFFFFFFFFFFFFFFFFFFFFFFFFFFFFFFFF AND PUSH32 0x543BA50A5EEC5E6178218E364B1D0F396157B3C8FA278522C2CB7FD99407D474 CALLVALUE PUSH1 0x40 MLOAD PUSH2 0x7D1 SWAP2 SWAP1 PUSH2 0x84E JUMP JUMPDEST PUSH1 0x40 MLOAD DUP1 SWAP2 SUB SWAP1 LOG2 POP JUMP JUMPDEST PUSH1 0x2 PUSH1 0x0 SLOAD SUB PUSH2 0x821 JUMPI PUSH1 0x40 MLOAD PUSH32 0x8C379A000000000000000000000000000000000000000000000000000000000 DUP2 MSTORE PUSH1 0x4 ADD PUSH2 0x818 SWAP1 PUSH2 0xC41 JUMP JUMPDEST PUSH1 0x40 MLOAD DUP1 SWAP2 SUB SWAP1 REVERT JUMPDEST PUSH1 0x2 PUSH1 0x0 DUP2 SWAP1 SSTORE POP JUMP JUMPDEST PUSH1 0x1 PUSH1 0x0 DUP2 SWAP1 SSTORE POP JUMP JUMPDEST PUSH1 0x0 DUP2 SWAP1 POP SWAP2 SWAP1 POP JUMP JUMPDEST PUSH2 0x848 DUP2 PUSH2 0x835 JUMP JUMPDEST DUP3 MSTORE POP POP JUMP JUMPDEST PUSH1 0x0 PUSH1 0x20 DUP3 ADD SWAP1 POP PUSH2 0x863 PUSH1 0x0 DUP4 ADD DUP5 PUSH2 0x83F JUMP JUMPDEST SWAP3 SWAP2 POP POP JUMP JUMPDEST PUSH1 0x0 DUP1 REVERT JUMPDEST PUSH1 0x0 PUSH20 0xFFFFFFFFFFFFFFFFFFFFFFFFFFFFFFFFFFFFFFFF DUP3 AND SWAP1 POP SWAP2 SWAP1 POP JUMP JUMPDEST PUSH1 0x0 PUSH2 0x899 DUP3 PUSH2 0x86E JUMP JUMPDEST SWAP1 POP SWAP2 SWAP1 POP JUMP JUMPDEST PUSH2 0x8A9 DUP2 PUSH2 0x88E JUMP JUMPDEST DUP2 EQ PUSH2 0x8B4 JUMPI PUSH1 0x0 DUP1 REVERT JUMPDEST POP JUMP JUMPDEST PUSH1 0x0 DUP2 CALLDATALOAD SWAP1 POP PUSH2 0x8C6 DUP2 PUSH2 0x8A0 JUMP JUMPDEST SWAP3 SWAP2 POP POP JUMP JUMPDEST PUSH1 0x0 PUSH1 0x20 DUP3 DUP5 SUB SLT ISZERO PUSH2 0x8E2 JUMPI PUSH2 0x8E1 PUSH2 0x869 JUMP JUMPDEST JUMPDEST PUSH1 0x0 PUSH2 0x8F0 DUP5 DUP3 DUP6 ADD PUSH2 0x8B7 JUMP JUMPDEST SWAP2 POP POP SWAP3 SWAP2 POP POP JUMP JUMPDEST PUSH2 0x902 DUP2 PUSH2 0x88E JUMP JUMPDEST DUP3 MSTORE POP POP JUMP JUMPDEST PUSH1 0x0 PUSH1 0x20 DUP3 ADD SWAP1 POP PUSH2 0x91D PUSH1 0x0 DUP4 ADD DUP5 PUSH2 0x8F9 JUMP JUMPDEST SWAP3 SWAP2 POP POP JUMP JUMPDEST PUSH1 0x0 DUP3 DUP3 MSTORE PUSH1 0x20 DUP3 ADD SWAP1 POP SWAP3 SWAP2 POP POP JUMP JUMPDEST PUSH32 0x436F6E747261637420646F6E277420686176652066756E647300000000000000 PUSH1 0x0 DUP3 ADD MSTORE POP JUMP JUMPDEST PUSH1 0x0 PUSH2 0x96A PUSH1 0x19 DUP4 PUSH2 0x923 JUMP JUMPDEST SWAP2 POP PUSH2 0x975 DUP3 PUSH2 0x934 JUMP JUMPDEST PUSH1 0x20 DUP3 ADD SWAP1 POP SWAP2 SWAP1 POP JUMP JUMPDEST PUSH1 0x0 PUSH1 0x20 DUP3 ADD SWAP1 POP DUP2 DUP2 SUB PUSH1 0x0 DUP4 ADD MSTORE PUSH2 0x999 DUP2 PUSH2 0x95D JUMP JUMPDEST SWAP1 POP SWAP2 SWAP1 POP JUMP JUMPDEST PUSH32 0x54696D65206973206E6F74206F76657220796574000000000000000000000000 PUSH1 0x0 DUP3 ADD MSTORE POP JUMP JUMPDEST PUSH1 0x0 PUSH2 0x9D6 PUSH1 0x14 DUP4 PUSH2 0x923 JUMP JUMPDEST SWAP2 POP PUSH2 0x9E1 DUP3 PUSH2 0x9A0 JUMP JUMPDEST PUSH1 0x20 DUP3 ADD SWAP1 POP SWAP2 SWAP1 POP JUMP JUMPDEST PUSH1 0x0 PUSH1 0x20 DUP3 ADD SWAP1 POP DUP2 DUP2 SUB PUSH1 0x0 DUP4 ADD MSTORE PUSH2 0xA05 DUP2 PUSH2 0x9C9 JUMP JUMPDEST SWAP1 POP SWAP2 SWAP1 POP JUMP JUMPDEST PUSH32 0x4E487B7100000000000000000000000000000000000000000000000000000000 PUSH1 0x0 MSTORE PUSH1 0x11 PUSH1 0x4 MSTORE PUSH1 0x24 PUSH1 0x0 REVERT JUMPDEST PUSH1 0x0 PUSH2 0xA46 DUP3 PUSH2 0x835 JUMP JUMPDEST SWAP2 POP PUSH2 0xA51 DUP4 PUSH2 0x835 JUMP JUMPDEST SWAP3 POP DUP3 DUP3 MUL PUSH2 0xA5F DUP2 PUSH2 0x835 JUMP JUMPDEST SWAP2 POP DUP3 DUP3 DIV DUP5 EQ DUP4 ISZERO OR PUSH2 0xA76 JUMPI PUSH2 0xA75 PUSH2 0xA0C JUMP JUMPDEST JUMPDEST POP SWAP3 SWAP2 POP POP JUMP JUMPDEST PUSH1 0x0 PUSH2 0xA88 DUP3 PUSH2 0x835 JUMP JUMPDEST SWAP2 POP PUSH2 0xA93 DUP4 PUSH2 0x835 JUMP JUMPDEST SWAP3 POP DUP3 DUP3 ADD SWAP1 POP DUP1 DUP3 GT ISZERO PUSH2 0xAAB JUMPI PUSH2 0xAAA PUSH2 0xA0C JUMP JUMPDEST JUMPDEST SWAP3 SWAP2 POP POP JUMP JUMPDEST PUSH32 0x596F7520617265206E6F7420746865206F776E65720000000000000000000000 PUSH1 0x0 DUP3 ADD MSTORE POP JUMP JUMPDEST PUSH1 0x0 PUSH2 0xAE7 PUSH1 0x15 DUP4 PUSH2 0x923 JUMP JUMPDEST SWAP2 POP PUSH2 0xAF2 DUP3 PUSH2 0xAB1 JUMP JUMPDEST PUSH1 0x20 DUP3 ADD SWAP1 POP SWAP2 SWAP1 POP JUMP JUMPDEST PUSH1 0x0 PUSH1 0x20 DUP3 ADD SWAP1 POP DUP2 DUP2 SUB PUSH1 0x0 DUP4 ADD MSTORE PUSH2 0xB16 DUP2 PUSH2 0xADA JUMP JUMPDEST SWAP1 POP SWAP2 SWAP1 POP JUMP JUMPDEST PUSH32 0x596F7520617265206E6F74207468652074616B65720000000000000000000000 PUSH1 0x0 DUP3 ADD MSTORE POP JUMP JUMPDEST PUSH1 0x0 PUSH2 0xB53 PUSH1 0x15 DUP4 PUSH2 0x923 JUMP JUMPDEST SWAP2 POP PUSH2 0xB5E DUP3 PUSH2 0xB1D JUMP JUMPDEST PUSH1 0x20 DUP3 ADD SWAP1 POP SWAP2 SWAP1 POP JUMP JUMPDEST PUSH1 0x0 PUSH1 0x20 DUP3 ADD SWAP1 POP DUP2 DUP2 SUB PUSH1 0x0 DUP4 ADD MSTORE PUSH2 0xB82 DUP2 PUSH2 0xB46 JUMP JUMPDEST SWAP1 POP SWAP2 SWAP1 POP JUMP JUMPDEST PUSH32 0x4F6E6C79207468652074616B65722063616E206465706F7369742066756E6473 PUSH1 0x0 DUP3 ADD MSTORE POP JUMP JUMPDEST PUSH1 0x0 PUSH2 0xBBF PUSH1 0x20 DUP4 PUSH2 0x923 JUMP JUMPDEST SWAP2 POP PUSH2 0xBCA DUP3 PUSH2 0xB89 JUMP JUMPDEST PUSH1 0x20 DUP3 ADD SWAP1 POP SWAP2 SWAP1 POP JUMP JUMPDEST PUSH1 0x0 PUSH1 0x20 DUP3 ADD SWAP1 POP DUP2 DUP2 SUB PUSH1 0x0 DUP4 ADD MSTORE PUSH2 0xBEE DUP2 PUSH2 0xBB2 JUMP JUMPDEST SWAP1 POP SWAP2 SWAP1 POP JUMP JUMPDEST PUSH32 0x5265656E7472616E637947756172643A207265656E7472616E742063616C6C00 PUSH1 0x0 DUP3 ADD MSTORE POP JUMP JUMPDEST PUSH1 0x0 PUSH2 0xC2B PUSH1 0x1F DUP4 PUSH2 0x923 JUMP JUMPDEST SWAP2 POP PUSH2 0xC36 DUP3 PUSH2 0xBF5 JUMP JUMPDEST PUSH1 0x20 DUP3 ADD SWAP1 POP SWAP2 SWAP1 POP JUMP JUMPDEST PUSH1 0x0 PUSH1 0x20 DUP3 ADD SWAP1 POP DUP2 DUP2 SUB PUSH1 0x0 DUP4 ADD MSTORE PUSH2 0xC5A DUP2 PUSH2 0xC1E JUMP JUMPDEST SWAP1 POP SWAP2 SWAP1 POP JUMP INVALID LOG2 PUSH5 0x6970667358 0x22 SLT KECCAK256 0xC6 CALLDATASIZE 0xB5 0x5D LT 0xC2 DUP5 0xC3 0xC4 EXP 0xBA SWAP4 0xD8 0xE DIFFICULTY REVERT 0xD7 SLT CALLDATASIZE GAS 0x5E MULMOD SWAP14 DUP14 0xBA SELFDESTRUCT 0xAE SGT 0xB4 STATICCALL 0x4C 0xBD PUSH5 0x736F6C6343 STOP ADDMOD GT STOP CALLER LOG2 PUSH5 0x6970667358 0x22 SLT KECCAK256 DUP7 0xFC 0xDD PUSH31 0x4C89F30DFD59C168E76FA130D676955E9C0407EE431FD95AE2C50ADD64736F PUSH13 0x63430008110033000000000000 "
				},
				"gasEstimates": {
					"creation": {
						"codeDepositCost": "1758000",
						"executionCost": "1848",
						"totalCost": "1759848"
					},
					"external": {
						"createMoneyLockWallet(address,uint256,uint256,uint256)": "infinite",
						"getDaysForWithdrawal(uint256)": "infinite",
						"getEndDate(uint256)": "infinite",
						"getOwner(uint256)": "infinite",
						"getSecurityDeposit(uint256)": "infinite",
						"getTaker(uint256)": "infinite",
						"getTokerBalance(uint256)": "infinite",
						"moneyArray(uint256)": "infinite",
						"moneyDeposit(uint256)": "infinite",
						"moneyWithdraw(uint256)": "infinite",
						"owner(address)": "infinite",
						"taker(address)": "infinite"
					}
				},
				"methodIdentifiers": {
					"createMoneyLockWallet(address,uint256,uint256,uint256)": "f14af335",
					"getDaysForWithdrawal(uint256)": "ccadfef5",
					"getEndDate(uint256)": "5c6b047a",
					"getOwner(uint256)": "c41a360a",
					"getSecurityDeposit(uint256)": "444a8520",
					"getTaker(uint256)": "cbcc5b28",
					"getTokerBalance(uint256)": "0d5d1f8c",
					"moneyArray(uint256)": "573c5ad4",
					"moneyDeposit(uint256)": "c5077a5a",
					"moneyWithdraw(uint256)": "e79a6128",
					"owner(address)": "666e1b39",
					"taker(address)": "8bee36a4"
				}
			},
			"storageLayout": {
				"storage": [
					{
						"astId": 316,
						"contract": "contracts/MoneyLockFactory.sol:MoneyLockFactory",
						"label": "moneyArray",
						"offset": 0,
						"slot": "0",
						"type": "t_array(t_contract(MoneyLock)309)dyn_storage"
					}
				],
				"types": {
					"t_array(t_contract(MoneyLock)309)dyn_storage": {
						"base": "t_contract(MoneyLock)309",
						"encoding": "dynamic_array",
						"label": "contract MoneyLock[]",
						"numberOfBytes": "32"
					},
					"t_contract(MoneyLock)309": {
						"encoding": "inplace",
						"label": "contract MoneyLock",
						"numberOfBytes": "20"
					}
				}
			},
			"userdoc": {
				"kind": "user",
				"methods": {},
				"version": 1
			}
		}
	}
}