{
	"contracts/ContractPool.sol": {
		"ContractPoll": {
			"abi": [
				{
					"inputs": [
						{
							"internalType": "address payable",
							"name": "_seller",
							"type": "address"
						},
						{
							"internalType": "address payable",
							"name": "_buyer",
							"type": "address"
						},
						{
							"internalType": "uint256",
							"name": "_securityDeposit",
							"type": "uint256"
						},
						{
							"internalType": "uint256",
							"name": "_sellerPreAgreementAmount",
							"type": "uint256"
						},
						{
							"internalType": "uint256",
							"name": "_buyerPreAgreementAmount",
							"type": "uint256"
						},
						{
							"internalType": "uint256",
							"name": "_endDate",
							"type": "uint256"
						},
						{
							"internalType": "uint256",
							"name": "_daysForWithdrawal",
							"type": "uint256"
						}
					],
					"stateMutability": "nonpayable",
					"type": "constructor"
				},
				{
					"anonymous": false,
					"inputs": [
						{
							"indexed": true,
							"internalType": "address",
							"name": "contractAddress",
							"type": "address"
						},
						{
							"indexed": true,
							"internalType": "address",
							"name": "from",
							"type": "address"
						},
						{
							"indexed": false,
							"internalType": "uint256",
							"name": "amount",
							"type": "uint256"
						}
					],
					"name": "Deposit",
					"type": "event"
				},
				{
					"anonymous": false,
					"inputs": [
						{
							"indexed": true,
							"internalType": "address",
							"name": "depositor",
							"type": "address"
						},
						{
							"indexed": false,
							"internalType": "uint256",
							"name": "amount",
							"type": "uint256"
						}
					],
					"name": "FundsDeposited",
					"type": "event"
				},
				{
					"stateMutability": "payable",
					"type": "fallback"
				},
				{
					"inputs": [],
					"name": "buyerBalance",
					"outputs": [
						{
							"internalType": "uint256",
							"name": "",
							"type": "uint256"
						}
					],
					"stateMutability": "view",
					"type": "function"
				},
				{
					"inputs": [],
					"name": "buyerPreAgreementAmount",
					"outputs": [
						{
							"internalType": "uint256",
							"name": "",
							"type": "uint256"
						}
					],
					"stateMutability": "view",
					"type": "function"
				},
				{
					"inputs": [],
					"name": "contractBalance",
					"outputs": [
						{
							"internalType": "uint256",
							"name": "",
							"type": "uint256"
						}
					],
					"stateMutability": "view",
					"type": "function"
				},
				{
					"inputs": [],
					"name": "daysForWithdrawal",
					"outputs": [
						{
							"internalType": "uint256",
							"name": "",
							"type": "uint256"
						}
					],
					"stateMutability": "view",
					"type": "function"
				},
				{
					"inputs": [
						{
							"internalType": "address",
							"name": "_user",
							"type": "address"
						}
					],
					"name": "deposit",
					"outputs": [],
					"stateMutability": "payable",
					"type": "function"
				},
				{
					"inputs": [],
					"name": "endDate",
					"outputs": [
						{
							"internalType": "uint256",
							"name": "",
							"type": "uint256"
						}
					],
					"stateMutability": "view",
					"type": "function"
				},
				{
					"inputs": [],
					"name": "returnBuyer",
					"outputs": [
						{
							"internalType": "address",
							"name": "",
							"type": "address"
						}
					],
					"stateMutability": "view",
					"type": "function"
				},
				{
					"inputs": [],
					"name": "returnBuyerBalance",
					"outputs": [
						{
							"internalType": "uint256",
							"name": "",
							"type": "uint256"
						}
					],
					"stateMutability": "view",
					"type": "function"
				},
				{
					"inputs": [],
					"name": "returnBuyerPreAgreementAmount",
					"outputs": [
						{
							"internalType": "uint256",
							"name": "",
							"type": "uint256"
						}
					],
					"stateMutability": "view",
					"type": "function"
				},
				{
					"inputs": [],
					"name": "returnDaysForWithdrawal",
					"outputs": [
						{
							"internalType": "uint256",
							"name": "",
							"type": "uint256"
						}
					],
					"stateMutability": "view",
					"type": "function"
				},
				{
					"inputs": [],
					"name": "returnEndDate",
					"outputs": [
						{
							"internalType": "uint256",
							"name": "",
							"type": "uint256"
						}
					],
					"stateMutability": "view",
					"type": "function"
				},
				{
					"inputs": [],
					"name": "returnSecurityDeposit",
					"outputs": [
						{
							"internalType": "uint256",
							"name": "",
							"type": "uint256"
						}
					],
					"stateMutability": "view",
					"type": "function"
				},
				{
					"inputs": [],
					"name": "returnSeller",
					"outputs": [
						{
							"internalType": "address",
							"name": "",
							"type": "address"
						}
					],
					"stateMutability": "view",
					"type": "function"
				},
				{
					"inputs": [],
					"name": "returnSellerBalance",
					"outputs": [
						{
							"internalType": "uint256",
							"name": "",
							"type": "uint256"
						}
					],
					"stateMutability": "view",
					"type": "function"
				},
				{
					"inputs": [],
					"name": "returnSellerPreAgreementAmount",
					"outputs": [
						{
							"internalType": "uint256",
							"name": "",
							"type": "uint256"
						}
					],
					"stateMutability": "view",
					"type": "function"
				},
				{
					"inputs": [],
					"name": "securityDeposit",
					"outputs": [
						{
							"internalType": "uint256",
							"name": "",
							"type": "uint256"
						}
					],
					"stateMutability": "view",
					"type": "function"
				},
				{
					"inputs": [],
					"name": "sellerBalance",
					"outputs": [
						{
							"internalType": "uint256",
							"name": "",
							"type": "uint256"
						}
					],
					"stateMutability": "view",
					"type": "function"
				},
				{
					"inputs": [],
					"name": "sellerPreAgreementAmount",
					"outputs": [
						{
							"internalType": "uint256",
							"name": "",
							"type": "uint256"
						}
					],
					"stateMutability": "view",
					"type": "function"
				},
				{
					"inputs": [
						{
							"internalType": "address",
							"name": "_user",
							"type": "address"
						}
					],
					"name": "withdraw",
					"outputs": [],
					"stateMutability": "payable",
					"type": "function"
				},
				{
					"stateMutability": "payable",
					"type": "receive"
				}
			],
			"devdoc": {
				"kind": "dev",
				"methods": {},
				"version": 1
			},
			"evm": {
				"assembly": "    /* \"contracts/ContractPool.sol\":153:5200  contract ContractPoll is ReentrancyGuard {... */\n  mstore(0x40, 0x80)\n    /* \"contracts/ContractPool.sol\":1194:1704  constructor(address payable _seller, address payable _buyer, uint256 _securityDeposit, uint256 _sellerPreAgreementAmount, uint256 _buyerPreAgreementAmount, uint256 _endDate, uint256 _daysForWithdrawal)  {... */\n  callvalue\n  dup1\n  iszero\n  tag_1\n  jumpi\n  0x00\n  dup1\n  revert\ntag_1:\n  pop\n  mload(0x40)\n  sub(codesize, bytecodeSize)\n  dup1\n  bytecodeSize\n  dup4\n  codecopy\n  dup2\n  dup2\n  add\n  0x40\n  mstore\n  dup2\n  add\n  swap1\n  tag_2\n  swap2\n  swap1\n  tag_3\n  jump\t// in\ntag_2:\n    /* \"@openzeppelin/contracts/security/ReentrancyGuard.sol\":1716:1717  1 */\n  0x01\n    /* \"@openzeppelin/contracts/security/ReentrancyGuard.sol\":1821:1828  _status */\n  0x00\n    /* \"@openzeppelin/contracts/security/ReentrancyGuard.sol\":1821:1843  _status = _NOT_ENTERED */\n  dup2\n  swap1\n  sstore\n  pop\n    /* \"contracts/ContractPool.sol\":1417:1424  _seller */\n  dup7\n    /* \"contracts/ContractPool.sol\":1408:1414  seller */\n  0x01\n  0x00\n    /* \"contracts/ContractPool.sol\":1408:1424  seller = _seller */\n  0x0100\n  exp\n  dup2\n  sload\n  dup2\n  0xffffffffffffffffffffffffffffffffffffffff\n  mul\n  not\n  and\n  swap1\n  dup4\n  0xffffffffffffffffffffffffffffffffffffffff\n  and\n  mul\n  or\n  swap1\n  sstore\n  pop\n    /* \"contracts/ContractPool.sol\":1443:1449  _buyer */\n  dup6\n    /* \"contracts/ContractPool.sol\":1435:1440  buyer */\n  0x02\n  0x00\n    /* \"contracts/ContractPool.sol\":1435:1449  buyer = _buyer */\n  0x0100\n  exp\n  dup2\n  sload\n  dup2\n  0xffffffffffffffffffffffffffffffffffffffff\n  mul\n  not\n  and\n  swap1\n  dup4\n  0xffffffffffffffffffffffffffffffffffffffff\n  and\n  mul\n  or\n  swap1\n  sstore\n  pop\n    /* \"contracts/ContractPool.sol\":1478:1494  _securityDeposit */\n  dup5\n    /* \"contracts/ContractPool.sol\":1460:1475  securityDeposit */\n  0x06\n    /* \"contracts/ContractPool.sol\":1460:1494  securityDeposit = _securityDeposit */\n  dup2\n  swap1\n  sstore\n  pop\n    /* \"contracts/ContractPool.sol\":1532:1557  _sellerPreAgreementAmount */\n  dup4\n    /* \"contracts/ContractPool.sol\":1505:1529  sellerPreAgreementAmount */\n  0x07\n    /* \"contracts/ContractPool.sol\":1505:1557  sellerPreAgreementAmount = _sellerPreAgreementAmount */\n  dup2\n  swap1\n  sstore\n  pop\n    /* \"contracts/ContractPool.sol\":1594:1618  _buyerPreAgreementAmount */\n  dup3\n    /* \"contracts/ContractPool.sol\":1568:1591  buyerPreAgreementAmount */\n  0x08\n    /* \"contracts/ContractPool.sol\":1568:1618  buyerPreAgreementAmount = _buyerPreAgreementAmount */\n  dup2\n  swap1\n  sstore\n  pop\n    /* \"contracts/ContractPool.sol\":1639:1647  _endDate */\n  dup2\n    /* \"contracts/ContractPool.sol\":1629:1636  endDate */\n  0x09\n    /* \"contracts/ContractPool.sol\":1629:1647  endDate = _endDate */\n  dup2\n  swap1\n  sstore\n  pop\n    /* \"contracts/ContractPool.sol\":1678:1696  _daysForWithdrawal */\n  dup1\n    /* \"contracts/ContractPool.sol\":1658:1675  daysForWithdrawal */\n  0x0a\n    /* \"contracts/ContractPool.sol\":1658:1696  daysForWithdrawal = _daysForWithdrawal */\n  dup2\n  swap1\n  sstore\n  pop\n    /* \"contracts/ContractPool.sol\":1194:1704  constructor(address payable _seller, address payable _buyer, uint256 _securityDeposit, uint256 _sellerPreAgreementAmount, uint256 _buyerPreAgreementAmount, uint256 _endDate, uint256 _daysForWithdrawal)  {... */\n  pop\n  pop\n  pop\n  pop\n  pop\n  pop\n  pop\n    /* \"contracts/ContractPool.sol\":153:5200  contract ContractPoll is ReentrancyGuard {... */\n  jump(tag_8)\n    /* \"#utility.yul\":88:205   */\ntag_10:\n    /* \"#utility.yul\":197:198   */\n  0x00\n    /* \"#utility.yul\":194:195   */\n  dup1\n    /* \"#utility.yul\":187:199   */\n  revert\n    /* \"#utility.yul\":334:460   */\ntag_12:\n    /* \"#utility.yul\":371:378   */\n  0x00\n    /* \"#utility.yul\":411:453   */\n  0xffffffffffffffffffffffffffffffffffffffff\n    /* \"#utility.yul\":404:409   */\n  dup3\n    /* \"#utility.yul\":400:454   */\n  and\n    /* \"#utility.yul\":389:454   */\n  swap1\n  pop\n    /* \"#utility.yul\":334:460   */\n  swap2\n  swap1\n  pop\n  jump\t// out\n    /* \"#utility.yul\":466:570   */\ntag_13:\n    /* \"#utility.yul\":511:518   */\n  0x00\n    /* \"#utility.yul\":540:564   */\n  tag_25\n    /* \"#utility.yul\":558:563   */\n  dup3\n    /* \"#utility.yul\":540:564   */\n  tag_12\n  jump\t// in\ntag_25:\n    /* \"#utility.yul\":529:564   */\n  swap1\n  pop\n    /* \"#utility.yul\":466:570   */\n  swap2\n  swap1\n  pop\n  jump\t// out\n    /* \"#utility.yul\":576:714   */\ntag_14:\n    /* \"#utility.yul\":657:689   */\n  tag_27\n    /* \"#utility.yul\":683:688   */\n  dup2\n    /* \"#utility.yul\":657:689   */\n  tag_13\n  jump\t// in\ntag_27:\n    /* \"#utility.yul\":650:655   */\n  dup2\n    /* \"#utility.yul\":647:690   */\n  eq\n    /* \"#utility.yul\":637:708   */\n  tag_28\n  jumpi\n    /* \"#utility.yul\":704:705   */\n  0x00\n    /* \"#utility.yul\":701:702   */\n  dup1\n    /* \"#utility.yul\":694:706   */\n  revert\n    /* \"#utility.yul\":637:708   */\ntag_28:\n    /* \"#utility.yul\":576:714   */\n  pop\n  jump\t// out\n    /* \"#utility.yul\":720:879   */\ntag_15:\n    /* \"#utility.yul\":785:790   */\n  0x00\n    /* \"#utility.yul\":816:822   */\n  dup2\n    /* \"#utility.yul\":810:823   */\n  mload\n    /* \"#utility.yul\":801:823   */\n  swap1\n  pop\n    /* \"#utility.yul\":832:873   */\n  tag_30\n    /* \"#utility.yul\":867:872   */\n  dup2\n    /* \"#utility.yul\":832:873   */\n  tag_14\n  jump\t// in\ntag_30:\n    /* \"#utility.yul\":720:879   */\n  swap3\n  swap2\n  pop\n  pop\n  jump\t// out\n    /* \"#utility.yul\":885:962   */\ntag_16:\n    /* \"#utility.yul\":922:929   */\n  0x00\n    /* \"#utility.yul\":951:956   */\n  dup2\n    /* \"#utility.yul\":940:956   */\n  swap1\n  pop\n    /* \"#utility.yul\":885:962   */\n  swap2\n  swap1\n  pop\n  jump\t// out\n    /* \"#utility.yul\":968:1090   */\ntag_17:\n    /* \"#utility.yul\":1041:1065   */\n  tag_33\n    /* \"#utility.yul\":1059:1064   */\n  dup2\n    /* \"#utility.yul\":1041:1065   */\n  tag_16\n  jump\t// in\ntag_33:\n    /* \"#utility.yul\":1034:1039   */\n  dup2\n    /* \"#utility.yul\":1031:1066   */\n  eq\n    /* \"#utility.yul\":1021:1084   */\n  tag_34\n  jumpi\n    /* \"#utility.yul\":1080:1081   */\n  0x00\n    /* \"#utility.yul\":1077:1078   */\n  dup1\n    /* \"#utility.yul\":1070:1082   */\n  revert\n    /* \"#utility.yul\":1021:1084   */\ntag_34:\n    /* \"#utility.yul\":968:1090   */\n  pop\n  jump\t// out\n    /* \"#utility.yul\":1096:1239   */\ntag_18:\n    /* \"#utility.yul\":1153:1158   */\n  0x00\n    /* \"#utility.yul\":1184:1190   */\n  dup2\n    /* \"#utility.yul\":1178:1191   */\n  mload\n    /* \"#utility.yul\":1169:1191   */\n  swap1\n  pop\n    /* \"#utility.yul\":1200:1233   */\n  tag_36\n    /* \"#utility.yul\":1227:1232   */\n  dup2\n    /* \"#utility.yul\":1200:1233   */\n  tag_17\n  jump\t// in\ntag_36:\n    /* \"#utility.yul\":1096:1239   */\n  swap3\n  swap2\n  pop\n  pop\n  jump\t// out\n    /* \"#utility.yul\":1245:2568   */\ntag_3:\n    /* \"#utility.yul\":1385:1391   */\n  0x00\n    /* \"#utility.yul\":1393:1399   */\n  dup1\n    /* \"#utility.yul\":1401:1407   */\n  0x00\n    /* \"#utility.yul\":1409:1415   */\n  dup1\n    /* \"#utility.yul\":1417:1423   */\n  0x00\n    /* \"#utility.yul\":1425:1431   */\n  dup1\n    /* \"#utility.yul\":1433:1439   */\n  0x00\n    /* \"#utility.yul\":1482:1485   */\n  0xe0\n    /* \"#utility.yul\":1470:1479   */\n  dup9\n    /* \"#utility.yul\":1461:1468   */\n  dup11\n    /* \"#utility.yul\":1457:1480   */\n  sub\n    /* \"#utility.yul\":1453:1486   */\n  slt\n    /* \"#utility.yul\":1450:1570   */\n  iszero\n  tag_38\n  jumpi\n    /* \"#utility.yul\":1489:1568   */\n  tag_39\n  tag_10\n  jump\t// in\ntag_39:\n    /* \"#utility.yul\":1450:1570   */\ntag_38:\n    /* \"#utility.yul\":1609:1610   */\n  0x00\n    /* \"#utility.yul\":1634:1706   */\n  tag_40\n    /* \"#utility.yul\":1698:1705   */\n  dup11\n    /* \"#utility.yul\":1689:1695   */\n  dup3\n    /* \"#utility.yul\":1678:1687   */\n  dup12\n    /* \"#utility.yul\":1674:1696   */\n  add\n    /* \"#utility.yul\":1634:1706   */\n  tag_15\n  jump\t// in\ntag_40:\n    /* \"#utility.yul\":1624:1706   */\n  swap8\n  pop\n    /* \"#utility.yul\":1580:1716   */\n  pop\n    /* \"#utility.yul\":1755:1757   */\n  0x20\n    /* \"#utility.yul\":1781:1853   */\n  tag_41\n    /* \"#utility.yul\":1845:1852   */\n  dup11\n    /* \"#utility.yul\":1836:1842   */\n  dup3\n    /* \"#utility.yul\":1825:1834   */\n  dup12\n    /* \"#utility.yul\":1821:1843   */\n  add\n    /* \"#utility.yul\":1781:1853   */\n  tag_15\n  jump\t// in\ntag_41:\n    /* \"#utility.yul\":1771:1853   */\n  swap7\n  pop\n    /* \"#utility.yul\":1726:1863   */\n  pop\n    /* \"#utility.yul\":1902:1904   */\n  0x40\n    /* \"#utility.yul\":1928:1992   */\n  tag_42\n    /* \"#utility.yul\":1984:1991   */\n  dup11\n    /* \"#utility.yul\":1975:1981   */\n  dup3\n    /* \"#utility.yul\":1964:1973   */\n  dup12\n    /* \"#utility.yul\":1960:1982   */\n  add\n    /* \"#utility.yul\":1928:1992   */\n  tag_18\n  jump\t// in\ntag_42:\n    /* \"#utility.yul\":1918:1992   */\n  swap6\n  pop\n    /* \"#utility.yul\":1873:2002   */\n  pop\n    /* \"#utility.yul\":2041:2043   */\n  0x60\n    /* \"#utility.yul\":2067:2131   */\n  tag_43\n    /* \"#utility.yul\":2123:2130   */\n  dup11\n    /* \"#utility.yul\":2114:2120   */\n  dup3\n    /* \"#utility.yul\":2103:2112   */\n  dup12\n    /* \"#utility.yul\":2099:2121   */\n  add\n    /* \"#utility.yul\":2067:2131   */\n  tag_18\n  jump\t// in\ntag_43:\n    /* \"#utility.yul\":2057:2131   */\n  swap5\n  pop\n    /* \"#utility.yul\":2012:2141   */\n  pop\n    /* \"#utility.yul\":2180:2183   */\n  0x80\n    /* \"#utility.yul\":2207:2271   */\n  tag_44\n    /* \"#utility.yul\":2263:2270   */\n  dup11\n    /* \"#utility.yul\":2254:2260   */\n  dup3\n    /* \"#utility.yul\":2243:2252   */\n  dup12\n    /* \"#utility.yul\":2239:2261   */\n  add\n    /* \"#utility.yul\":2207:2271   */\n  tag_18\n  jump\t// in\ntag_44:\n    /* \"#utility.yul\":2197:2271   */\n  swap4\n  pop\n    /* \"#utility.yul\":2151:2281   */\n  pop\n    /* \"#utility.yul\":2320:2323   */\n  0xa0\n    /* \"#utility.yul\":2347:2411   */\n  tag_45\n    /* \"#utility.yul\":2403:2410   */\n  dup11\n    /* \"#utility.yul\":2394:2400   */\n  dup3\n    /* \"#utility.yul\":2383:2392   */\n  dup12\n    /* \"#utility.yul\":2379:2401   */\n  add\n    /* \"#utility.yul\":2347:2411   */\n  tag_18\n  jump\t// in\ntag_45:\n    /* \"#utility.yul\":2337:2411   */\n  swap3\n  pop\n    /* \"#utility.yul\":2291:2421   */\n  pop\n    /* \"#utility.yul\":2460:2463   */\n  0xc0\n    /* \"#utility.yul\":2487:2551   */\n  tag_46\n    /* \"#utility.yul\":2543:2550   */\n  dup11\n    /* \"#utility.yul\":2534:2540   */\n  dup3\n    /* \"#utility.yul\":2523:2532   */\n  dup12\n    /* \"#utility.yul\":2519:2541   */\n  add\n    /* \"#utility.yul\":2487:2551   */\n  tag_18\n  jump\t// in\ntag_46:\n    /* \"#utility.yul\":2477:2551   */\n  swap2\n  pop\n    /* \"#utility.yul\":2431:2561   */\n  pop\n    /* \"#utility.yul\":1245:2568   */\n  swap3\n  swap6\n  swap9\n  swap2\n  swap5\n  swap8\n  pop\n  swap3\n  swap6\n  pop\n  jump\t// out\n    /* \"contracts/ContractPool.sol\":153:5200  contract ContractPoll is ReentrancyGuard {... */\ntag_8:\n  dataSize(sub_0)\n  dup1\n  dataOffset(sub_0)\n  0x00\n  codecopy\n  0x00\n  return\nstop\n\nsub_0: assembly {\n        /* \"contracts/ContractPool.sol\":153:5200  contract ContractPoll is ReentrancyGuard {... */\n      mstore(0x40, 0x80)\n      jumpi(tag_1, lt(calldatasize, 0x04))\n      shr(0xe0, calldataload(0x00))\n      dup1\n      0x867a06b3\n      gt\n      tag_22\n      jumpi\n      dup1\n      0xc24a0f8b\n      gt\n      tag_23\n      jumpi\n      dup1\n      0xc24a0f8b\n      eq\n      tag_17\n      jumpi\n      dup1\n      0xd0bf21fd\n      eq\n      tag_18\n      jumpi\n      dup1\n      0xdb292621\n      eq\n      tag_19\n      jumpi\n      dup1\n      0xe6cdc708\n      eq\n      tag_20\n      jumpi\n      dup1\n      0xf340fa01\n      eq\n      tag_21\n      jumpi\n      jump(tag_2)\n    tag_23:\n      dup1\n      0x867a06b3\n      eq\n      tag_12\n      jumpi\n      dup1\n      0x8b7afe2e\n      eq\n      tag_13\n      jumpi\n      dup1\n      0x99dc2df3\n      eq\n      tag_14\n      jumpi\n      dup1\n      0xa7245b6e\n      eq\n      tag_15\n      jumpi\n      dup1\n      0xba12a5c5\n      eq\n      tag_16\n      jumpi\n      jump(tag_2)\n    tag_22:\n      dup1\n      0x4680dd2f\n      gt\n      tag_24\n      jumpi\n      dup1\n      0x4680dd2f\n      eq\n      tag_7\n      jumpi\n      dup1\n      0x4ce9e6de\n      eq\n      tag_8\n      jumpi\n      dup1\n      0x51cff8d9\n      eq\n      tag_9\n      jumpi\n      dup1\n      0x69cf1e90\n      eq\n      tag_10\n      jumpi\n      dup1\n      0x6d5e7a15\n      eq\n      tag_11\n      jumpi\n      jump(tag_2)\n    tag_24:\n      dup1\n      0x220e5ab3\n      eq\n      tag_3\n      jumpi\n      dup1\n      0x31658e32\n      eq\n      tag_4\n      jumpi\n      dup1\n      0x36359265\n      eq\n      tag_5\n      jumpi\n      dup1\n      0x4644803f\n      eq\n      tag_6\n      jumpi\n      jump(tag_2)\n    tag_1:\n      jumpi(tag_2, calldatasize)\n        /* \"contracts/ContractPool.sol\":1941:1951  msg.sender */\n      caller\n        /* \"contracts/ContractPool.sol\":1918:1963  Deposit(address(this), msg.sender, msg.value) */\n      0xffffffffffffffffffffffffffffffffffffffff\n      and\n        /* \"contracts/ContractPool.sol\":1934:1938  this */\n      address\n        /* \"contracts/ContractPool.sol\":1918:1963  Deposit(address(this), msg.sender, msg.value) */\n      0xffffffffffffffffffffffffffffffffffffffff\n      and\n      0x5548c837ab068cf56a2c2479df0882a4922fd203edb7517321831d95078c5f62\n        /* \"contracts/ContractPool.sol\":1953:1962  msg.value */\n      callvalue\n        /* \"contracts/ContractPool.sol\":1918:1963  Deposit(address(this), msg.sender, msg.value) */\n      mload(0x40)\n      tag_27\n      swap2\n      swap1\n      tag_28\n      jump\t// in\n    tag_27:\n      mload(0x40)\n      dup1\n      swap2\n      sub\n      swap1\n      log3\n        /* \"contracts/ContractPool.sol\":153:5200  contract ContractPoll is ReentrancyGuard {... */\n      stop\n    tag_2:\n        /* \"contracts/ContractPool.sol\":1811:1821  msg.sender */\n      caller\n        /* \"contracts/ContractPool.sol\":1788:1833  Deposit(address(this), msg.sender, msg.value) */\n      0xffffffffffffffffffffffffffffffffffffffff\n      and\n        /* \"contracts/ContractPool.sol\":1804:1808  this */\n      address\n        /* \"contracts/ContractPool.sol\":1788:1833  Deposit(address(this), msg.sender, msg.value) */\n      0xffffffffffffffffffffffffffffffffffffffff\n      and\n      0x5548c837ab068cf56a2c2479df0882a4922fd203edb7517321831d95078c5f62\n        /* \"contracts/ContractPool.sol\":1823:1832  msg.value */\n      callvalue\n        /* \"contracts/ContractPool.sol\":1788:1833  Deposit(address(this), msg.sender, msg.value) */\n      mload(0x40)\n      tag_31\n      swap2\n      swap1\n      tag_28\n      jump\t// in\n    tag_31:\n      mload(0x40)\n      dup1\n      swap2\n      sub\n      swap1\n      log3\n        /* \"contracts/ContractPool.sol\":153:5200  contract ContractPoll is ReentrancyGuard {... */\n      stop\n        /* \"contracts/ContractPool.sol\":593:623  uint256 public securityDeposit */\n    tag_3:\n      callvalue\n      dup1\n      iszero\n      tag_32\n      jumpi\n      0x00\n      dup1\n      revert\n    tag_32:\n      pop\n      tag_33\n      tag_34\n      jump\t// in\n    tag_33:\n      mload(0x40)\n      tag_35\n      swap2\n      swap1\n      tag_28\n      jump\t// in\n    tag_35:\n      mload(0x40)\n      dup1\n      swap2\n      sub\n      swap1\n      return\n        /* \"contracts/ContractPool.sol\":5092:5195  function returnDaysForWithdrawal() public view returns(uint){... */\n    tag_4:\n      callvalue\n      dup1\n      iszero\n      tag_36\n      jumpi\n      0x00\n      dup1\n      revert\n    tag_36:\n      pop\n      tag_37\n      tag_38\n      jump\t// in\n    tag_37:\n      mload(0x40)\n      tag_39\n      swap2\n      swap1\n      tag_28\n      jump\t// in\n    tag_39:\n      mload(0x40)\n      dup1\n      swap2\n      sub\n      swap1\n      return\n        /* \"contracts/ContractPool.sol\":5001:5084  function returnEndDate() public view returns(uint){... */\n    tag_5:\n      callvalue\n      dup1\n      iszero\n      tag_40\n      jumpi\n      0x00\n      dup1\n      revert\n    tag_40:\n      pop\n      tag_41\n      tag_42\n      jump\t// in\n    tag_41:\n      mload(0x40)\n      tag_43\n      swap2\n      swap1\n      tag_28\n      jump\t// in\n    tag_43:\n      mload(0x40)\n      dup1\n      swap2\n      sub\n      swap1\n      return\n        /* \"contracts/ContractPool.sol\":4436:4531  function returnSellerBalance() public view returns(uint){... */\n    tag_6:\n      callvalue\n      dup1\n      iszero\n      tag_44\n      jumpi\n      0x00\n      dup1\n      revert\n    tag_44:\n      pop\n      tag_45\n      tag_46\n      jump\t// in\n    tag_45:\n      mload(0x40)\n      tag_47\n      swap2\n      swap1\n      tag_28\n      jump\t// in\n    tag_47:\n      mload(0x40)\n      dup1\n      swap2\n      sub\n      swap1\n      return\n        /* \"contracts/ContractPool.sol\":4539:4632  function returnBuyerBalance() public view returns(uint){... */\n    tag_7:\n      callvalue\n      dup1\n      iszero\n      tag_48\n      jumpi\n      0x00\n      dup1\n      revert\n    tag_48:\n      pop\n      tag_49\n      tag_50\n      jump\t// in\n    tag_49:\n      mload(0x40)\n      tag_51\n      swap2\n      swap1\n      tag_28\n      jump\t// in\n    tag_51:\n      mload(0x40)\n      dup1\n      swap2\n      sub\n      swap1\n      return\n        /* \"contracts/ContractPool.sol\":4346:4428  function returnBuyer() public view returns(address){... */\n    tag_8:\n      callvalue\n      dup1\n      iszero\n      tag_52\n      jumpi\n      0x00\n      dup1\n      revert\n    tag_52:\n      pop\n      tag_53\n      tag_54\n      jump\t// in\n    tag_53:\n      mload(0x40)\n      tag_55\n      swap2\n      swap1\n      tag_56\n      jump\t// in\n    tag_55:\n      mload(0x40)\n      dup1\n      swap2\n      sub\n      swap1\n      return\n        /* \"contracts/ContractPool.sol\":2507:4243  function withdraw(address _user) external payable nonReentrant {... */\n    tag_9:\n      tag_57\n      0x04\n      dup1\n      calldatasize\n      sub\n      dup2\n      add\n      swap1\n      tag_58\n      swap2\n      swap1\n      tag_59\n      jump\t// in\n    tag_58:\n      tag_60\n      jump\t// in\n    tag_57:\n      stop\n        /* \"contracts/ContractPool.sol\":4878:4993  function returnBuyerPreAgreementAmount() public view returns(uint){... */\n    tag_10:\n      callvalue\n      dup1\n      iszero\n      tag_61\n      jumpi\n      0x00\n      dup1\n      revert\n    tag_61:\n      pop\n      tag_62\n      tag_63\n      jump\t// in\n    tag_62:\n      mload(0x40)\n      tag_64\n      swap2\n      swap1\n      tag_28\n      jump\t// in\n    tag_64:\n      mload(0x40)\n      dup1\n      swap2\n      sub\n      swap1\n      return\n        /* \"contracts/ContractPool.sol\":750:782  uint256 public daysForWithdrawal */\n    tag_11:\n      callvalue\n      dup1\n      iszero\n      tag_65\n      jumpi\n      0x00\n      dup1\n      revert\n    tag_65:\n      pop\n      tag_66\n      tag_67\n      jump\t// in\n    tag_66:\n      mload(0x40)\n      tag_68\n      swap2\n      swap1\n      tag_28\n      jump\t// in\n    tag_68:\n      mload(0x40)\n      dup1\n      swap2\n      sub\n      swap1\n      return\n        /* \"contracts/ContractPool.sol\":416:444  uint256 public sellerBalance */\n    tag_12:\n      callvalue\n      dup1\n      iszero\n      tag_69\n      jumpi\n      0x00\n      dup1\n      revert\n    tag_69:\n      pop\n      tag_70\n      tag_71\n      jump\t// in\n    tag_70:\n      mload(0x40)\n      tag_72\n      swap2\n      swap1\n      tag_28\n      jump\t// in\n    tag_72:\n      mload(0x40)\n      dup1\n      swap2\n      sub\n      swap1\n      return\n        /* \"contracts/ContractPool.sol\":379:409  uint256 public contractBalance */\n    tag_13:\n      callvalue\n      dup1\n      iszero\n      tag_73\n      jumpi\n      0x00\n      dup1\n      revert\n    tag_73:\n      pop\n      tag_74\n      tag_75\n      jump\t// in\n    tag_74:\n      mload(0x40)\n      tag_76\n      swap2\n      swap1\n      tag_28\n      jump\t// in\n    tag_76:\n      mload(0x40)\n      dup1\n      swap2\n      sub\n      swap1\n      return\n        /* \"contracts/ContractPool.sol\":676:714  uint256 public buyerPreAgreementAmount */\n    tag_14:\n      callvalue\n      dup1\n      iszero\n      tag_77\n      jumpi\n      0x00\n      dup1\n      revert\n    tag_77:\n      pop\n      tag_78\n      tag_79\n      jump\t// in\n    tag_78:\n      mload(0x40)\n      tag_80\n      swap2\n      swap1\n      tag_28\n      jump\t// in\n    tag_80:\n      mload(0x40)\n      dup1\n      swap2\n      sub\n      swap1\n      return\n        /* \"contracts/ContractPool.sol\":630:669  uint256 public sellerPreAgreementAmount */\n    tag_15:\n      callvalue\n      dup1\n      iszero\n      tag_81\n      jumpi\n      0x00\n      dup1\n      revert\n    tag_81:\n      pop\n      tag_82\n      tag_83\n      jump\t// in\n    tag_82:\n      mload(0x40)\n      tag_84\n      swap2\n      swap1\n      tag_28\n      jump\t// in\n    tag_84:\n      mload(0x40)\n      dup1\n      swap2\n      sub\n      swap1\n      return\n        /* \"contracts/ContractPool.sol\":4254:4338  function returnSeller() public view returns(address){... */\n    tag_16:\n      callvalue\n      dup1\n      iszero\n      tag_85\n      jumpi\n      0x00\n      dup1\n      revert\n    tag_85:\n      pop\n      tag_86\n      tag_87\n      jump\t// in\n    tag_86:\n      mload(0x40)\n      tag_88\n      swap2\n      swap1\n      tag_56\n      jump\t// in\n    tag_88:\n      mload(0x40)\n      dup1\n      swap2\n      sub\n      swap1\n      return\n        /* \"contracts/ContractPool.sol\":721:743  uint256 public endDate */\n    tag_17:\n      callvalue\n      dup1\n      iszero\n      tag_89\n      jumpi\n      0x00\n      dup1\n      revert\n    tag_89:\n      pop\n      tag_90\n      tag_91\n      jump\t// in\n    tag_90:\n      mload(0x40)\n      tag_92\n      swap2\n      swap1\n      tag_28\n      jump\t// in\n    tag_92:\n      mload(0x40)\n      dup1\n      swap2\n      sub\n      swap1\n      return\n        /* \"contracts/ContractPool.sol\":4753:4870  function returnSellerPreAgreementAmount() public view returns(uint){... */\n    tag_18:\n      callvalue\n      dup1\n      iszero\n      tag_93\n      jumpi\n      0x00\n      dup1\n      revert\n    tag_93:\n      pop\n      tag_94\n      tag_95\n      jump\t// in\n    tag_94:\n      mload(0x40)\n      tag_96\n      swap2\n      swap1\n      tag_28\n      jump\t// in\n    tag_96:\n      mload(0x40)\n      dup1\n      swap2\n      sub\n      swap1\n      return\n        /* \"contracts/ContractPool.sol\":4646:4745  function returnSecurityDeposit() public view returns(uint){... */\n    tag_19:\n      callvalue\n      dup1\n      iszero\n      tag_97\n      jumpi\n      0x00\n      dup1\n      revert\n    tag_97:\n      pop\n      tag_98\n      tag_99\n      jump\t// in\n    tag_98:\n      mload(0x40)\n      tag_100\n      swap2\n      swap1\n      tag_28\n      jump\t// in\n    tag_100:\n      mload(0x40)\n      dup1\n      swap2\n      sub\n      swap1\n      return\n        /* \"contracts/ContractPool.sol\":451:478  uint256 public buyerBalance */\n    tag_20:\n      callvalue\n      dup1\n      iszero\n      tag_101\n      jumpi\n      0x00\n      dup1\n      revert\n    tag_101:\n      pop\n      tag_102\n      tag_103\n      jump\t// in\n    tag_102:\n      mload(0x40)\n      tag_104\n      swap2\n      swap1\n      tag_28\n      jump\t// in\n    tag_104:\n      mload(0x40)\n      dup1\n      swap2\n      sub\n      swap1\n      return\n        /* \"contracts/ContractPool.sol\":2031:2416  function deposit(address _user) external payable {... */\n    tag_21:\n      tag_105\n      0x04\n      dup1\n      calldatasize\n      sub\n      dup2\n      add\n      swap1\n      tag_106\n      swap2\n      swap1\n      tag_59\n      jump\t// in\n    tag_106:\n      tag_107\n      jump\t// in\n    tag_105:\n      stop\n        /* \"contracts/ContractPool.sol\":593:623  uint256 public securityDeposit */\n    tag_34:\n      sload(0x06)\n      dup2\n      jump\t// out\n        /* \"contracts/ContractPool.sol\":5092:5195  function returnDaysForWithdrawal() public view returns(uint){... */\n    tag_38:\n        /* \"contracts/ContractPool.sol\":5147:5151  uint */\n      0x00\n        /* \"contracts/ContractPool.sol\":5170:5187  daysForWithdrawal */\n      sload(0x0a)\n        /* \"contracts/ContractPool.sol\":5163:5187  return daysForWithdrawal */\n      swap1\n      pop\n        /* \"contracts/ContractPool.sol\":5092:5195  function returnDaysForWithdrawal() public view returns(uint){... */\n      swap1\n      jump\t// out\n        /* \"contracts/ContractPool.sol\":5001:5084  function returnEndDate() public view returns(uint){... */\n    tag_42:\n        /* \"contracts/ContractPool.sol\":5046:5050  uint */\n      0x00\n        /* \"contracts/ContractPool.sol\":5069:5076  endDate */\n      sload(0x09)\n        /* \"contracts/ContractPool.sol\":5062:5076  return endDate */\n      swap1\n      pop\n        /* \"contracts/ContractPool.sol\":5001:5084  function returnEndDate() public view returns(uint){... */\n      swap1\n      jump\t// out\n        /* \"contracts/ContractPool.sol\":4436:4531  function returnSellerBalance() public view returns(uint){... */\n    tag_46:\n        /* \"contracts/ContractPool.sol\":4487:4491  uint */\n      0x00\n        /* \"contracts/ContractPool.sol\":4510:4523  sellerBalance */\n      sload(0x04)\n        /* \"contracts/ContractPool.sol\":4503:4523  return sellerBalance */\n      swap1\n      pop\n        /* \"contracts/ContractPool.sol\":4436:4531  function returnSellerBalance() public view returns(uint){... */\n      swap1\n      jump\t// out\n        /* \"contracts/ContractPool.sol\":4539:4632  function returnBuyerBalance() public view returns(uint){... */\n    tag_50:\n        /* \"contracts/ContractPool.sol\":4589:4593  uint */\n      0x00\n        /* \"contracts/ContractPool.sol\":4612:4624  buyerBalance */\n      sload(0x05)\n        /* \"contracts/ContractPool.sol\":4605:4624  return buyerBalance */\n      swap1\n      pop\n        /* \"contracts/ContractPool.sol\":4539:4632  function returnBuyerBalance() public view returns(uint){... */\n      swap1\n      jump\t// out\n        /* \"contracts/ContractPool.sol\":4346:4428  function returnBuyer() public view returns(address){... */\n    tag_54:\n        /* \"contracts/ContractPool.sol\":4389:4396  address */\n      0x00\n        /* \"contracts/ContractPool.sol\":4415:4420  buyer */\n      0x02\n      0x00\n      swap1\n      sload\n      swap1\n      0x0100\n      exp\n      swap1\n      div\n      0xffffffffffffffffffffffffffffffffffffffff\n      and\n        /* \"contracts/ContractPool.sol\":4408:4420  return buyer */\n      swap1\n      pop\n        /* \"contracts/ContractPool.sol\":4346:4428  function returnBuyer() public view returns(address){... */\n      swap1\n      jump\t// out\n        /* \"contracts/ContractPool.sol\":2507:4243  function withdraw(address _user) external payable nonReentrant {... */\n    tag_60:\n        /* \"@openzeppelin/contracts/security/ReentrancyGuard.sol\":2261:2282  _nonReentrantBefore() */\n      tag_114\n        /* \"@openzeppelin/contracts/security/ReentrancyGuard.sol\":2261:2280  _nonReentrantBefore */\n      tag_115\n        /* \"@openzeppelin/contracts/security/ReentrancyGuard.sol\":2261:2282  _nonReentrantBefore() */\n      jump\t// in\n    tag_114:\n        /* \"contracts/ContractPool.sol\":2615:2616  0 */\n      0x00\n        /* \"contracts/ContractPool.sol\":2590:2611  address(this).balance */\n      selfbalance\n        /* \"contracts/ContractPool.sol\":2590:2616  address(this).balance != 0 */\n      sub\n        /* \"contracts/ContractPool.sol\":2581:2646  require (address(this).balance != 0, \"Contract don't have funds\") */\n      tag_117\n      jumpi\n      mload(0x40)\n      0x08c379a000000000000000000000000000000000000000000000000000000000\n      dup2\n      mstore\n      0x04\n      add\n      tag_118\n      swap1\n      tag_119\n      jump\t// in\n    tag_118:\n      mload(0x40)\n      dup1\n      swap2\n      sub\n      swap1\n      revert\n    tag_117:\n        /* \"contracts/ContractPool.sol\":2684:2691  endDate */\n      sload(0x09)\n        /* \"contracts/ContractPool.sol\":2666:2681  block.timestamp */\n      timestamp\n        /* \"contracts/ContractPool.sol\":2666:2691  block.timestamp < endDate */\n      lt\n        /* \"contracts/ContractPool.sol\":2657:2716  require (block.timestamp < endDate, \"Time is not over yet\") */\n      tag_120\n      jumpi\n      mload(0x40)\n      0x08c379a000000000000000000000000000000000000000000000000000000000\n      dup2\n      mstore\n      0x04\n      add\n      tag_121\n      swap1\n      tag_122\n      jump\t// in\n    tag_121:\n      mload(0x40)\n      dup1\n      swap2\n      sub\n      swap1\n      revert\n    tag_120:\n        /* \"contracts/ContractPool.sol\":2923:2947  sellerPreAgreementAmount */\n      sload(0x07)\n        /* \"contracts/ContractPool.sol\":2907:2920  sellerBalance */\n      sload(0x04)\n        /* \"contracts/ContractPool.sol\":2907:2947  sellerBalance > sellerPreAgreementAmount */\n      gt\n        /* \"contracts/ContractPool.sol\":2907:2976  sellerBalance > sellerPreAgreementAmount && block.timestamp > endDate */\n      dup1\n      iszero\n      tag_123\n      jumpi\n      pop\n        /* \"contracts/ContractPool.sol\":2969:2976  endDate */\n      sload(0x09)\n        /* \"contracts/ContractPool.sol\":2951:2966  block.timestamp */\n      timestamp\n        /* \"contracts/ContractPool.sol\":2951:2976  block.timestamp > endDate */\n      gt\n        /* \"contracts/ContractPool.sol\":2907:2976  sellerBalance > sellerPreAgreementAmount && block.timestamp > endDate */\n    tag_123:\n        /* \"contracts/ContractPool.sol\":2907:3036  sellerBalance > sellerPreAgreementAmount && block.timestamp > endDate && block.timestamp < endDate + (daysForWithdrawal * 1 days) */\n      dup1\n      iszero\n      tag_124\n      jumpi\n      pop\n        /* \"contracts/ContractPool.sol\":3029:3035  1 days */\n      0x015180\n        /* \"contracts/ContractPool.sol\":3009:3026  daysForWithdrawal */\n      sload(0x0a)\n        /* \"contracts/ContractPool.sol\":3009:3035  daysForWithdrawal * 1 days */\n      tag_125\n      swap2\n      swap1\n      tag_126\n      jump\t// in\n    tag_125:\n        /* \"contracts/ContractPool.sol\":2998:3005  endDate */\n      sload(0x09)\n        /* \"contracts/ContractPool.sol\":2998:3036  endDate + (daysForWithdrawal * 1 days) */\n      tag_127\n      swap2\n      swap1\n      tag_128\n      jump\t// in\n    tag_127:\n        /* \"contracts/ContractPool.sol\":2980:2995  block.timestamp */\n      timestamp\n        /* \"contracts/ContractPool.sol\":2980:3036  block.timestamp < endDate + (daysForWithdrawal * 1 days) */\n      lt\n        /* \"contracts/ContractPool.sol\":2907:3036  sellerBalance > sellerPreAgreementAmount && block.timestamp > endDate && block.timestamp < endDate + (daysForWithdrawal * 1 days) */\n    tag_124:\n        /* \"contracts/ContractPool.sol\":2903:4232  if (sellerBalance > sellerPreAgreementAmount && block.timestamp > endDate && block.timestamp < endDate + (daysForWithdrawal * 1 days)) {... */\n      iszero\n      tag_129\n      jumpi\n        /* \"contracts/ContractPool.sol\":3072:3077  _user */\n      dup1\n        /* \"contracts/ContractPool.sol\":3062:3077  seller == _user */\n      0xffffffffffffffffffffffffffffffffffffffff\n      and\n        /* \"contracts/ContractPool.sol\":3062:3068  seller */\n      0x01\n      0x00\n      swap1\n      sload\n      swap1\n      0x0100\n      exp\n      swap1\n      div\n      0xffffffffffffffffffffffffffffffffffffffff\n      and\n        /* \"contracts/ContractPool.sol\":3062:3077  seller == _user */\n      0xffffffffffffffffffffffffffffffffffffffff\n      and\n      eq\n        /* \"contracts/ContractPool.sol\":3053:3104  require (seller == _user, \"You are not the seller\") */\n      tag_130\n      jumpi\n      mload(0x40)\n      0x08c379a000000000000000000000000000000000000000000000000000000000\n      dup2\n      mstore\n      0x04\n      add\n      tag_131\n      swap1\n      tag_132\n      jump\t// in\n    tag_131:\n      mload(0x40)\n      dup1\n      swap2\n      sub\n      swap1\n      revert\n    tag_130:\n        /* \"contracts/ContractPool.sol\":3119:3125  seller */\n      0x01\n      0x00\n      swap1\n      sload\n      swap1\n      0x0100\n      exp\n      swap1\n      div\n      0xffffffffffffffffffffffffffffffffffffffff\n      and\n        /* \"contracts/ContractPool.sol\":3119:3134  seller.transfer */\n      0xffffffffffffffffffffffffffffffffffffffff\n      and\n        /* \"contracts/ContractPool.sol\":3119:3157  seller.transfer(address(this).balance) */\n      0x08fc\n        /* \"contracts/ContractPool.sol\":3135:3156  address(this).balance */\n      selfbalance\n        /* \"contracts/ContractPool.sol\":3119:3157  seller.transfer(address(this).balance) */\n      swap1\n      dup2\n      iszero\n      mul\n      swap1\n      mload(0x40)\n      0x00\n      mload(0x40)\n      dup1\n      dup4\n      sub\n      dup2\n      dup6\n      dup9\n      dup9\n      call\n      swap4\n      pop\n      pop\n      pop\n      pop\n      iszero\n      dup1\n      iszero\n      tag_134\n      jumpi\n      returndatasize\n      0x00\n      dup1\n      returndatacopy\n      revert(0x00, returndatasize)\n    tag_134:\n      pop\n        /* \"contracts/ContractPool.sol\":2903:4232  if (sellerBalance > sellerPreAgreementAmount && block.timestamp > endDate && block.timestamp < endDate + (daysForWithdrawal * 1 days)) {... */\n      jump(tag_135)\n    tag_129:\n        /* \"contracts/ContractPool.sol\":3299:3314  securityDeposit */\n      sload(0x06)\n        /* \"contracts/ContractPool.sol\":3284:3296  buyerBalance */\n      sload(0x05)\n        /* \"contracts/ContractPool.sol\":3284:3314  buyerBalance > securityDeposit */\n      gt\n        /* \"contracts/ContractPool.sol\":3284:3374  buyerBalance > securityDeposit && block.timestamp > endDate + (daysForWithdrawal * 1 days) */\n      dup1\n      iszero\n      tag_136\n      jumpi\n      pop\n        /* \"contracts/ContractPool.sol\":3367:3373  1 days */\n      0x015180\n        /* \"contracts/ContractPool.sol\":3347:3364  daysForWithdrawal */\n      sload(0x0a)\n        /* \"contracts/ContractPool.sol\":3347:3373  daysForWithdrawal * 1 days */\n      tag_137\n      swap2\n      swap1\n      tag_126\n      jump\t// in\n    tag_137:\n        /* \"contracts/ContractPool.sol\":3336:3343  endDate */\n      sload(0x09)\n        /* \"contracts/ContractPool.sol\":3336:3374  endDate + (daysForWithdrawal * 1 days) */\n      tag_138\n      swap2\n      swap1\n      tag_128\n      jump\t// in\n    tag_138:\n        /* \"contracts/ContractPool.sol\":3318:3333  block.timestamp */\n      timestamp\n        /* \"contracts/ContractPool.sol\":3318:3374  block.timestamp > endDate + (daysForWithdrawal * 1 days) */\n      gt\n        /* \"contracts/ContractPool.sol\":3284:3374  buyerBalance > securityDeposit && block.timestamp > endDate + (daysForWithdrawal * 1 days) */\n    tag_136:\n        /* \"contracts/ContractPool.sol\":3279:4232  if  (buyerBalance > securityDeposit && block.timestamp > endDate + (daysForWithdrawal * 1 days)) {... */\n      iszero\n      tag_139\n      jumpi\n        /* \"contracts/ContractPool.sol\":3409:3414  _user */\n      dup1\n        /* \"contracts/ContractPool.sol\":3400:3414  buyer == _user */\n      0xffffffffffffffffffffffffffffffffffffffff\n      and\n        /* \"contracts/ContractPool.sol\":3400:3405  buyer */\n      0x02\n      0x00\n      swap1\n      sload\n      swap1\n      0x0100\n      exp\n      swap1\n      div\n      0xffffffffffffffffffffffffffffffffffffffff\n      and\n        /* \"contracts/ContractPool.sol\":3400:3414  buyer == _user */\n      0xffffffffffffffffffffffffffffffffffffffff\n      and\n      eq\n        /* \"contracts/ContractPool.sol\":3391:3440  require (buyer == _user, \"You are not the buyer\") */\n      tag_140\n      jumpi\n      mload(0x40)\n      0x08c379a000000000000000000000000000000000000000000000000000000000\n      dup2\n      mstore\n      0x04\n      add\n      tag_141\n      swap1\n      tag_142\n      jump\t// in\n    tag_141:\n      mload(0x40)\n      dup1\n      swap2\n      sub\n      swap1\n      revert\n    tag_140:\n        /* \"contracts/ContractPool.sol\":3455:3460  buyer */\n      0x02\n      0x00\n      swap1\n      sload\n      swap1\n      0x0100\n      exp\n      swap1\n      div\n      0xffffffffffffffffffffffffffffffffffffffff\n      and\n        /* \"contracts/ContractPool.sol\":3455:3469  buyer.transfer */\n      0xffffffffffffffffffffffffffffffffffffffff\n      and\n        /* \"contracts/ContractPool.sol\":3455:3492  buyer.transfer(address(this).balance) */\n      0x08fc\n        /* \"contracts/ContractPool.sol\":3470:3491  address(this).balance */\n      selfbalance\n        /* \"contracts/ContractPool.sol\":3455:3492  buyer.transfer(address(this).balance) */\n      swap1\n      dup2\n      iszero\n      mul\n      swap1\n      mload(0x40)\n      0x00\n      mload(0x40)\n      dup1\n      dup4\n      sub\n      dup2\n      dup6\n      dup9\n      dup9\n      call\n      swap4\n      pop\n      pop\n      pop\n      pop\n      iszero\n      dup1\n      iszero\n      tag_144\n      jumpi\n      returndatasize\n      0x00\n      dup1\n      returndatacopy\n      revert(0x00, returndatasize)\n    tag_144:\n      pop\n        /* \"contracts/ContractPool.sol\":3279:4232  if  (buyerBalance > securityDeposit && block.timestamp > endDate + (daysForWithdrawal * 1 days)) {... */\n      jump(tag_145)\n    tag_139:\n        /* \"contracts/ContractPool.sol\":3628:3629  0 */\n      0x00\n        /* \"contracts/ContractPool.sol\":3603:3624  address(this).balance */\n      selfbalance\n        /* \"contracts/ContractPool.sol\":3603:3629  address(this).balance != 0 */\n      eq\n      iszero\n        /* \"contracts/ContractPool.sol\":3603:3673  address(this).balance != 0 && sellerBalance < sellerPreAgreementAmount */\n      dup1\n      iszero\n      tag_146\n      jumpi\n      pop\n        /* \"contracts/ContractPool.sol\":3649:3673  sellerPreAgreementAmount */\n      sload(0x07)\n        /* \"contracts/ContractPool.sol\":3633:3646  sellerBalance */\n      sload(0x04)\n        /* \"contracts/ContractPool.sol\":3633:3673  sellerBalance < sellerPreAgreementAmount */\n      lt\n        /* \"contracts/ContractPool.sol\":3603:3673  address(this).balance != 0 && sellerBalance < sellerPreAgreementAmount */\n    tag_146:\n        /* \"contracts/ContractPool.sol\":3603:3715  address(this).balance != 0 && sellerBalance < sellerPreAgreementAmount && buyerBalance < buyerPreAgreementAmount */\n      dup1\n      iszero\n      tag_147\n      jumpi\n      pop\n        /* \"contracts/ContractPool.sol\":3692:3715  buyerPreAgreementAmount */\n      sload(0x08)\n        /* \"contracts/ContractPool.sol\":3677:3689  buyerBalance */\n      sload(0x05)\n        /* \"contracts/ContractPool.sol\":3677:3715  buyerBalance < buyerPreAgreementAmount */\n      lt\n        /* \"contracts/ContractPool.sol\":3603:3715  address(this).balance != 0 && sellerBalance < sellerPreAgreementAmount && buyerBalance < buyerPreAgreementAmount */\n    tag_147:\n        /* \"contracts/ContractPool.sol\":3603:3775  address(this).balance != 0 && sellerBalance < sellerPreAgreementAmount && buyerBalance < buyerPreAgreementAmount && block.timestamp > endDate + (daysForWithdrawal * 1 days) */\n      dup1\n      iszero\n      tag_148\n      jumpi\n      pop\n        /* \"contracts/ContractPool.sol\":3768:3774  1 days */\n      0x015180\n        /* \"contracts/ContractPool.sol\":3748:3765  daysForWithdrawal */\n      sload(0x0a)\n        /* \"contracts/ContractPool.sol\":3748:3774  daysForWithdrawal * 1 days */\n      tag_149\n      swap2\n      swap1\n      tag_126\n      jump\t// in\n    tag_149:\n        /* \"contracts/ContractPool.sol\":3737:3744  endDate */\n      sload(0x09)\n        /* \"contracts/ContractPool.sol\":3737:3775  endDate + (daysForWithdrawal * 1 days) */\n      tag_150\n      swap2\n      swap1\n      tag_128\n      jump\t// in\n    tag_150:\n        /* \"contracts/ContractPool.sol\":3719:3734  block.timestamp */\n      timestamp\n        /* \"contracts/ContractPool.sol\":3719:3775  block.timestamp > endDate + (daysForWithdrawal * 1 days) */\n      gt\n        /* \"contracts/ContractPool.sol\":3603:3775  address(this).balance != 0 && sellerBalance < sellerPreAgreementAmount && buyerBalance < buyerPreAgreementAmount && block.timestamp > endDate + (daysForWithdrawal * 1 days) */\n    tag_148:\n        /* \"contracts/ContractPool.sol\":3599:4232  if (address(this).balance != 0 && sellerBalance < sellerPreAgreementAmount && buyerBalance < buyerPreAgreementAmount && block.timestamp > endDate + (daysForWithdrawal * 1 days)){... */\n      iszero\n      tag_151\n      jumpi\n        /* \"contracts/ContractPool.sol\":3812:3817  buyer */\n      0x02\n      0x00\n      swap1\n      sload\n      swap1\n      0x0100\n      exp\n      swap1\n      div\n      0xffffffffffffffffffffffffffffffffffffffff\n      and\n        /* \"contracts/ContractPool.sol\":3803:3817  _user == buyer */\n      0xffffffffffffffffffffffffffffffffffffffff\n      and\n        /* \"contracts/ContractPool.sol\":3803:3808  _user */\n      dup2\n        /* \"contracts/ContractPool.sol\":3803:3817  _user == buyer */\n      0xffffffffffffffffffffffffffffffffffffffff\n      and\n      eq\n        /* \"contracts/ContractPool.sol\":3803:3836  _user == buyer || _user == seller */\n      dup1\n      tag_152\n      jumpi\n      pop\n        /* \"contracts/ContractPool.sol\":3830:3836  seller */\n      0x01\n      0x00\n      swap1\n      sload\n      swap1\n      0x0100\n      exp\n      swap1\n      div\n      0xffffffffffffffffffffffffffffffffffffffff\n      and\n        /* \"contracts/ContractPool.sol\":3821:3836  _user == seller */\n      0xffffffffffffffffffffffffffffffffffffffff\n      and\n        /* \"contracts/ContractPool.sol\":3821:3826  _user */\n      dup2\n        /* \"contracts/ContractPool.sol\":3821:3836  _user == seller */\n      0xffffffffffffffffffffffffffffffffffffffff\n      and\n      eq\n        /* \"contracts/ContractPool.sol\":3803:3836  _user == buyer || _user == seller */\n    tag_152:\n        /* \"contracts/ContractPool.sol\":3795:3874  require(_user == buyer || _user == seller, \"Just buyer or seller can withdraw\") */\n      tag_153\n      jumpi\n      mload(0x40)\n      0x08c379a000000000000000000000000000000000000000000000000000000000\n      dup2\n      mstore\n      0x04\n      add\n      tag_154\n      swap1\n      tag_155\n      jump\t// in\n    tag_154:\n      mload(0x40)\n      dup1\n      swap2\n      sub\n      swap1\n      revert\n    tag_153:\n        /* \"contracts/ContractPool.sol\":3906:3911  buyer */\n      0x02\n      0x00\n      swap1\n      sload\n      swap1\n      0x0100\n      exp\n      swap1\n      div\n      0xffffffffffffffffffffffffffffffffffffffff\n      and\n        /* \"contracts/ContractPool.sol\":3897:3911  _user == buyer */\n      0xffffffffffffffffffffffffffffffffffffffff\n      and\n        /* \"contracts/ContractPool.sol\":3897:3902  _user */\n      dup2\n        /* \"contracts/ContractPool.sol\":3897:3911  _user == buyer */\n      0xffffffffffffffffffffffffffffffffffffffff\n      and\n      eq\n        /* \"contracts/ContractPool.sol\":3897:3932  _user == buyer && buyerBalance != 0 */\n      dup1\n      iszero\n      tag_156\n      jumpi\n      pop\n        /* \"contracts/ContractPool.sol\":3931:3932  0 */\n      0x00\n        /* \"contracts/ContractPool.sol\":3915:3927  buyerBalance */\n      sload(0x05)\n        /* \"contracts/ContractPool.sol\":3915:3932  buyerBalance != 0 */\n      eq\n      iszero\n        /* \"contracts/ContractPool.sol\":3897:3932  _user == buyer && buyerBalance != 0 */\n    tag_156:\n        /* \"contracts/ContractPool.sol\":3893:4221  if (_user == buyer && buyerBalance != 0){... */\n      iszero\n      tag_157\n      jumpi\n        /* \"contracts/ContractPool.sol\":3956:3961  buyer */\n      0x02\n      0x00\n      swap1\n      sload\n      swap1\n      0x0100\n      exp\n      swap1\n      div\n      0xffffffffffffffffffffffffffffffffffffffff\n      and\n        /* \"contracts/ContractPool.sol\":3956:3970  buyer.transfer */\n      0xffffffffffffffffffffffffffffffffffffffff\n      and\n        /* \"contracts/ContractPool.sol\":3956:3984  buyer.transfer(buyerBalance) */\n      0x08fc\n        /* \"contracts/ContractPool.sol\":3971:3983  buyerBalance */\n      sload(0x05)\n        /* \"contracts/ContractPool.sol\":3956:3984  buyer.transfer(buyerBalance) */\n      swap1\n      dup2\n      iszero\n      mul\n      swap1\n      mload(0x40)\n      0x00\n      mload(0x40)\n      dup1\n      dup4\n      sub\n      dup2\n      dup6\n      dup9\n      dup9\n      call\n      swap4\n      pop\n      pop\n      pop\n      pop\n      iszero\n      dup1\n      iszero\n      tag_159\n      jumpi\n      returndatasize\n      0x00\n      dup1\n      returndatacopy\n      revert(0x00, returndatasize)\n    tag_159:\n      pop\n        /* \"contracts/ContractPool.sol\":4022:4023  0 */\n      0x00\n        /* \"contracts/ContractPool.sol\":4007:4019  buyerBalance */\n      0x05\n        /* \"contracts/ContractPool.sol\":4007:4023  buyerBalance = 0 */\n      dup2\n      swap1\n      sstore\n      pop\n        /* \"contracts/ContractPool.sol\":3893:4221  if (_user == buyer && buyerBalance != 0){... */\n      jump(tag_160)\n    tag_157:\n        /* \"contracts/ContractPool.sol\":4078:4084  seller */\n      0x01\n      0x00\n      swap1\n      sload\n      swap1\n      0x0100\n      exp\n      swap1\n      div\n      0xffffffffffffffffffffffffffffffffffffffff\n      and\n        /* \"contracts/ContractPool.sol\":4069:4084  _user == seller */\n      0xffffffffffffffffffffffffffffffffffffffff\n      and\n        /* \"contracts/ContractPool.sol\":4069:4074  _user */\n      dup2\n        /* \"contracts/ContractPool.sol\":4069:4084  _user == seller */\n      0xffffffffffffffffffffffffffffffffffffffff\n      and\n      eq\n        /* \"contracts/ContractPool.sol\":4069:4106  _user == seller && sellerBalance != 0 */\n      dup1\n      iszero\n      tag_161\n      jumpi\n      pop\n        /* \"contracts/ContractPool.sol\":4105:4106  0 */\n      0x00\n        /* \"contracts/ContractPool.sol\":4088:4101  sellerBalance */\n      sload(0x04)\n        /* \"contracts/ContractPool.sol\":4088:4106  sellerBalance != 0 */\n      eq\n      iszero\n        /* \"contracts/ContractPool.sol\":4069:4106  _user == seller && sellerBalance != 0 */\n    tag_161:\n        /* \"contracts/ContractPool.sol\":4066:4221  if(_user == seller && sellerBalance != 0) {... */\n      iszero\n      tag_162\n      jumpi\n        /* \"contracts/ContractPool.sol\":4131:4137  seller */\n      0x01\n      0x00\n      swap1\n      sload\n      swap1\n      0x0100\n      exp\n      swap1\n      div\n      0xffffffffffffffffffffffffffffffffffffffff\n      and\n        /* \"contracts/ContractPool.sol\":4131:4146  seller.transfer */\n      0xffffffffffffffffffffffffffffffffffffffff\n      and\n        /* \"contracts/ContractPool.sol\":4131:4161  seller.transfer(sellerBalance) */\n      0x08fc\n        /* \"contracts/ContractPool.sol\":4147:4160  sellerBalance */\n      sload(0x04)\n        /* \"contracts/ContractPool.sol\":4131:4161  seller.transfer(sellerBalance) */\n      swap1\n      dup2\n      iszero\n      mul\n      swap1\n      mload(0x40)\n      0x00\n      mload(0x40)\n      dup1\n      dup4\n      sub\n      dup2\n      dup6\n      dup9\n      dup9\n      call\n      swap4\n      pop\n      pop\n      pop\n      pop\n      iszero\n      dup1\n      iszero\n      tag_164\n      jumpi\n      returndatasize\n      0x00\n      dup1\n      returndatacopy\n      revert(0x00, returndatasize)\n    tag_164:\n      pop\n        /* \"contracts/ContractPool.sol\":4200:4201  0 */\n      0x00\n        /* \"contracts/ContractPool.sol\":4184:4197  sellerBalance */\n      0x04\n        /* \"contracts/ContractPool.sol\":4184:4201  sellerBalance = 0 */\n      dup2\n      swap1\n      sstore\n      pop\n        /* \"contracts/ContractPool.sol\":4066:4221  if(_user == seller && sellerBalance != 0) {... */\n    tag_162:\n        /* \"contracts/ContractPool.sol\":3893:4221  if (_user == buyer && buyerBalance != 0){... */\n    tag_160:\n        /* \"contracts/ContractPool.sol\":3599:4232  if (address(this).balance != 0 && sellerBalance < sellerPreAgreementAmount && buyerBalance < buyerPreAgreementAmount && block.timestamp > endDate + (daysForWithdrawal * 1 days)){... */\n    tag_151:\n        /* \"contracts/ContractPool.sol\":3279:4232  if  (buyerBalance > securityDeposit && block.timestamp > endDate + (daysForWithdrawal * 1 days)) {... */\n    tag_145:\n        /* \"contracts/ContractPool.sol\":2903:4232  if (sellerBalance > sellerPreAgreementAmount && block.timestamp > endDate && block.timestamp < endDate + (daysForWithdrawal * 1 days)) {... */\n    tag_135:\n        /* \"@openzeppelin/contracts/security/ReentrancyGuard.sol\":2303:2323  _nonReentrantAfter() */\n      tag_165\n        /* \"@openzeppelin/contracts/security/ReentrancyGuard.sol\":2303:2321  _nonReentrantAfter */\n      tag_166\n        /* \"@openzeppelin/contracts/security/ReentrancyGuard.sol\":2303:2323  _nonReentrantAfter() */\n      jump\t// in\n    tag_165:\n        /* \"contracts/ContractPool.sol\":2507:4243  function withdraw(address _user) external payable nonReentrant {... */\n      pop\n      jump\t// out\n        /* \"contracts/ContractPool.sol\":4878:4993  function returnBuyerPreAgreementAmount() public view returns(uint){... */\n    tag_63:\n        /* \"contracts/ContractPool.sol\":4939:4943  uint */\n      0x00\n        /* \"contracts/ContractPool.sol\":4962:4985  buyerPreAgreementAmount */\n      sload(0x08)\n        /* \"contracts/ContractPool.sol\":4955:4985  return buyerPreAgreementAmount */\n      swap1\n      pop\n        /* \"contracts/ContractPool.sol\":4878:4993  function returnBuyerPreAgreementAmount() public view returns(uint){... */\n      swap1\n      jump\t// out\n        /* \"contracts/ContractPool.sol\":750:782  uint256 public daysForWithdrawal */\n    tag_67:\n      sload(0x0a)\n      dup2\n      jump\t// out\n        /* \"contracts/ContractPool.sol\":416:444  uint256 public sellerBalance */\n    tag_71:\n      sload(0x04)\n      dup2\n      jump\t// out\n        /* \"contracts/ContractPool.sol\":379:409  uint256 public contractBalance */\n    tag_75:\n      sload(0x03)\n      dup2\n      jump\t// out\n        /* \"contracts/ContractPool.sol\":676:714  uint256 public buyerPreAgreementAmount */\n    tag_79:\n      sload(0x08)\n      dup2\n      jump\t// out\n        /* \"contracts/ContractPool.sol\":630:669  uint256 public sellerPreAgreementAmount */\n    tag_83:\n      sload(0x07)\n      dup2\n      jump\t// out\n        /* \"contracts/ContractPool.sol\":4254:4338  function returnSeller() public view returns(address){... */\n    tag_87:\n        /* \"contracts/ContractPool.sol\":4298:4305  address */\n      0x00\n        /* \"contracts/ContractPool.sol\":4324:4330  seller */\n      0x01\n      0x00\n      swap1\n      sload\n      swap1\n      0x0100\n      exp\n      swap1\n      div\n      0xffffffffffffffffffffffffffffffffffffffff\n      and\n        /* \"contracts/ContractPool.sol\":4317:4330  return seller */\n      swap1\n      pop\n        /* \"contracts/ContractPool.sol\":4254:4338  function returnSeller() public view returns(address){... */\n      swap1\n      jump\t// out\n        /* \"contracts/ContractPool.sol\":721:743  uint256 public endDate */\n    tag_91:\n      sload(0x09)\n      dup2\n      jump\t// out\n        /* \"contracts/ContractPool.sol\":4753:4870  function returnSellerPreAgreementAmount() public view returns(uint){... */\n    tag_95:\n        /* \"contracts/ContractPool.sol\":4815:4819  uint */\n      0x00\n        /* \"contracts/ContractPool.sol\":4838:4862  sellerPreAgreementAmount */\n      sload(0x07)\n        /* \"contracts/ContractPool.sol\":4831:4862  return sellerPreAgreementAmount */\n      swap1\n      pop\n        /* \"contracts/ContractPool.sol\":4753:4870  function returnSellerPreAgreementAmount() public view returns(uint){... */\n      swap1\n      jump\t// out\n        /* \"contracts/ContractPool.sol\":4646:4745  function returnSecurityDeposit() public view returns(uint){... */\n    tag_99:\n        /* \"contracts/ContractPool.sol\":4699:4703  uint */\n      0x00\n        /* \"contracts/ContractPool.sol\":4722:4737  securityDeposit */\n      sload(0x06)\n        /* \"contracts/ContractPool.sol\":4715:4737  return securityDeposit */\n      swap1\n      pop\n        /* \"contracts/ContractPool.sol\":4646:4745  function returnSecurityDeposit() public view returns(uint){... */\n      swap1\n      jump\t// out\n        /* \"contracts/ContractPool.sol\":451:478  uint256 public buyerBalance */\n    tag_103:\n      sload(0x05)\n      dup2\n      jump\t// out\n        /* \"contracts/ContractPool.sol\":2031:2416  function deposit(address _user) external payable {... */\n    tag_107:\n        /* \"contracts/ContractPool.sol\":2108:2114  seller */\n      0x01\n      0x00\n      swap1\n      sload\n      swap1\n      0x0100\n      exp\n      swap1\n      div\n      0xffffffffffffffffffffffffffffffffffffffff\n      and\n        /* \"contracts/ContractPool.sol\":2099:2114  _user == seller */\n      0xffffffffffffffffffffffffffffffffffffffff\n      and\n        /* \"contracts/ContractPool.sol\":2099:2104  _user */\n      dup2\n        /* \"contracts/ContractPool.sol\":2099:2114  _user == seller */\n      0xffffffffffffffffffffffffffffffffffffffff\n      and\n      eq\n        /* \"contracts/ContractPool.sol\":2099:2132  _user == seller || _user == buyer */\n      dup1\n      tag_172\n      jumpi\n      pop\n        /* \"contracts/ContractPool.sol\":2127:2132  buyer */\n      0x02\n      0x00\n      swap1\n      sload\n      swap1\n      0x0100\n      exp\n      swap1\n      div\n      0xffffffffffffffffffffffffffffffffffffffff\n      and\n        /* \"contracts/ContractPool.sol\":2118:2132  _user == buyer */\n      0xffffffffffffffffffffffffffffffffffffffff\n      and\n        /* \"contracts/ContractPool.sol\":2118:2123  _user */\n      dup2\n        /* \"contracts/ContractPool.sol\":2118:2132  _user == buyer */\n      0xffffffffffffffffffffffffffffffffffffffff\n      and\n      eq\n        /* \"contracts/ContractPool.sol\":2099:2132  _user == seller || _user == buyer */\n    tag_172:\n        /* \"contracts/ContractPool.sol\":2091:2179  require(_user == seller || _user == buyer, \"Only the seller or buyer can deposit funds\") */\n      tag_173\n      jumpi\n      mload(0x40)\n      0x08c379a000000000000000000000000000000000000000000000000000000000\n      dup2\n      mstore\n      0x04\n      add\n      tag_174\n      swap1\n      tag_175\n      jump\t// in\n    tag_174:\n      mload(0x40)\n      dup1\n      swap2\n      sub\n      swap1\n      revert\n    tag_173:\n        /* \"contracts/ContractPool.sol\":2203:2209  seller */\n      0x01\n      0x00\n      swap1\n      sload\n      swap1\n      0x0100\n      exp\n      swap1\n      div\n      0xffffffffffffffffffffffffffffffffffffffff\n      and\n        /* \"contracts/ContractPool.sol\":2194:2209  _user == seller */\n      0xffffffffffffffffffffffffffffffffffffffff\n      and\n        /* \"contracts/ContractPool.sol\":2194:2199  _user */\n      dup2\n        /* \"contracts/ContractPool.sol\":2194:2209  _user == seller */\n      0xffffffffffffffffffffffffffffffffffffffff\n      and\n      sub\n        /* \"contracts/ContractPool.sol\":2190:2322  if (_user == seller) {... */\n      tag_176\n      jumpi\n        /* \"contracts/ContractPool.sol\":2243:2252  msg.value */\n      callvalue\n        /* \"contracts/ContractPool.sol\":2226:2239  sellerBalance */\n      0x04\n      0x00\n        /* \"contracts/ContractPool.sol\":2226:2252  sellerBalance += msg.value */\n      dup3\n      dup3\n      sload\n      tag_177\n      swap2\n      swap1\n      tag_128\n      jump\t// in\n    tag_177:\n      swap3\n      pop\n      pop\n      dup2\n      swap1\n      sstore\n      pop\n        /* \"contracts/ContractPool.sol\":2190:2322  if (_user == seller) {... */\n      jump(tag_178)\n    tag_176:\n        /* \"contracts/ContractPool.sol\":2301:2310  msg.value */\n      callvalue\n        /* \"contracts/ContractPool.sol\":2285:2297  buyerBalance */\n      0x05\n      0x00\n        /* \"contracts/ContractPool.sol\":2285:2310  buyerBalance += msg.value */\n      dup3\n      dup3\n      sload\n      tag_179\n      swap2\n      swap1\n      tag_128\n      jump\t// in\n    tag_179:\n      swap3\n      pop\n      pop\n      dup2\n      swap1\n      sstore\n      pop\n        /* \"contracts/ContractPool.sol\":2190:2322  if (_user == seller) {... */\n    tag_178:\n        /* \"contracts/ContractPool.sol\":2351:2360  msg.value */\n      callvalue\n        /* \"contracts/ContractPool.sol\":2332:2347  contractBalance */\n      0x03\n      0x00\n        /* \"contracts/ContractPool.sol\":2332:2360  contractBalance += msg.value */\n      dup3\n      dup3\n      sload\n      tag_180\n      swap2\n      swap1\n      tag_128\n      jump\t// in\n    tag_180:\n      swap3\n      pop\n      pop\n      dup2\n      swap1\n      sstore\n      pop\n        /* \"contracts/ContractPool.sol\":2391:2396  _user */\n      dup1\n        /* \"contracts/ContractPool.sol\":2376:2408  FundsDeposited(_user, msg.value) */\n      0xffffffffffffffffffffffffffffffffffffffff\n      and\n      0x543ba50a5eec5e6178218e364b1d0f396157b3c8fa278522c2cb7fd99407d474\n        /* \"contracts/ContractPool.sol\":2398:2407  msg.value */\n      callvalue\n        /* \"contracts/ContractPool.sol\":2376:2408  FundsDeposited(_user, msg.value) */\n      mload(0x40)\n      tag_181\n      swap2\n      swap1\n      tag_28\n      jump\t// in\n    tag_181:\n      mload(0x40)\n      dup1\n      swap2\n      sub\n      swap1\n      log2\n        /* \"contracts/ContractPool.sol\":2031:2416  function deposit(address _user) external payable {... */\n      pop\n      jump\t// out\n        /* \"@openzeppelin/contracts/security/ReentrancyGuard.sol\":2336:2623  function _nonReentrantBefore() private {... */\n    tag_115:\n        /* \"@openzeppelin/contracts/security/ReentrancyGuard.sol\":1759:1760  2 */\n      0x02\n        /* \"@openzeppelin/contracts/security/ReentrancyGuard.sol\":2468:2475  _status */\n      sload(0x00)\n        /* \"@openzeppelin/contracts/security/ReentrancyGuard.sol\":2468:2487  _status != _ENTERED */\n      sub\n        /* \"@openzeppelin/contracts/security/ReentrancyGuard.sol\":2460:2523  require(_status != _ENTERED, \"ReentrancyGuard: reentrant call\") */\n      tag_183\n      jumpi\n      mload(0x40)\n      0x08c379a000000000000000000000000000000000000000000000000000000000\n      dup2\n      mstore\n      0x04\n      add\n      tag_184\n      swap1\n      tag_185\n      jump\t// in\n    tag_184:\n      mload(0x40)\n      dup1\n      swap2\n      sub\n      swap1\n      revert\n    tag_183:\n        /* \"@openzeppelin/contracts/security/ReentrancyGuard.sol\":1759:1760  2 */\n      0x02\n        /* \"@openzeppelin/contracts/security/ReentrancyGuard.sol\":2598:2605  _status */\n      0x00\n        /* \"@openzeppelin/contracts/security/ReentrancyGuard.sol\":2598:2616  _status = _ENTERED */\n      dup2\n      swap1\n      sstore\n      pop\n        /* \"@openzeppelin/contracts/security/ReentrancyGuard.sol\":2336:2623  function _nonReentrantBefore() private {... */\n      jump\t// out\n        /* \"@openzeppelin/contracts/security/ReentrancyGuard.sol\":2629:2838  function _nonReentrantAfter() private {... */\n    tag_166:\n        /* \"@openzeppelin/contracts/security/ReentrancyGuard.sol\":1716:1717  1 */\n      0x01\n        /* \"@openzeppelin/contracts/security/ReentrancyGuard.sol\":2809:2816  _status */\n      0x00\n        /* \"@openzeppelin/contracts/security/ReentrancyGuard.sol\":2809:2831  _status = _NOT_ENTERED */\n      dup2\n      swap1\n      sstore\n      pop\n        /* \"@openzeppelin/contracts/security/ReentrancyGuard.sol\":2629:2838  function _nonReentrantAfter() private {... */\n      jump\t// out\n        /* \"#utility.yul\":7:84   */\n    tag_187:\n        /* \"#utility.yul\":44:51   */\n      0x00\n        /* \"#utility.yul\":73:78   */\n      dup2\n        /* \"#utility.yul\":62:78   */\n      swap1\n      pop\n        /* \"#utility.yul\":7:84   */\n      swap2\n      swap1\n      pop\n      jump\t// out\n        /* \"#utility.yul\":90:208   */\n    tag_188:\n        /* \"#utility.yul\":177:201   */\n      tag_216\n        /* \"#utility.yul\":195:200   */\n      dup2\n        /* \"#utility.yul\":177:201   */\n      tag_187\n      jump\t// in\n    tag_216:\n        /* \"#utility.yul\":172:175   */\n      dup3\n        /* \"#utility.yul\":165:202   */\n      mstore\n        /* \"#utility.yul\":90:208   */\n      pop\n      pop\n      jump\t// out\n        /* \"#utility.yul\":214:436   */\n    tag_28:\n        /* \"#utility.yul\":307:311   */\n      0x00\n        /* \"#utility.yul\":345:347   */\n      0x20\n        /* \"#utility.yul\":334:343   */\n      dup3\n        /* \"#utility.yul\":330:348   */\n      add\n        /* \"#utility.yul\":322:348   */\n      swap1\n      pop\n        /* \"#utility.yul\":358:429   */\n      tag_218\n        /* \"#utility.yul\":426:427   */\n      0x00\n        /* \"#utility.yul\":415:424   */\n      dup4\n        /* \"#utility.yul\":411:428   */\n      add\n        /* \"#utility.yul\":402:408   */\n      dup5\n        /* \"#utility.yul\":358:429   */\n      tag_188\n      jump\t// in\n    tag_218:\n        /* \"#utility.yul\":214:436   */\n      swap3\n      swap2\n      pop\n      pop\n      jump\t// out\n        /* \"#utility.yul\":442:568   */\n    tag_189:\n        /* \"#utility.yul\":479:486   */\n      0x00\n        /* \"#utility.yul\":519:561   */\n      0xffffffffffffffffffffffffffffffffffffffff\n        /* \"#utility.yul\":512:517   */\n      dup3\n        /* \"#utility.yul\":508:562   */\n      and\n        /* \"#utility.yul\":497:562   */\n      swap1\n      pop\n        /* \"#utility.yul\":442:568   */\n      swap2\n      swap1\n      pop\n      jump\t// out\n        /* \"#utility.yul\":574:670   */\n    tag_190:\n        /* \"#utility.yul\":611:618   */\n      0x00\n        /* \"#utility.yul\":640:664   */\n      tag_221\n        /* \"#utility.yul\":658:663   */\n      dup3\n        /* \"#utility.yul\":640:664   */\n      tag_189\n      jump\t// in\n    tag_221:\n        /* \"#utility.yul\":629:664   */\n      swap1\n      pop\n        /* \"#utility.yul\":574:670   */\n      swap2\n      swap1\n      pop\n      jump\t// out\n        /* \"#utility.yul\":676:794   */\n    tag_191:\n        /* \"#utility.yul\":763:787   */\n      tag_223\n        /* \"#utility.yul\":781:786   */\n      dup2\n        /* \"#utility.yul\":763:787   */\n      tag_190\n      jump\t// in\n    tag_223:\n        /* \"#utility.yul\":758:761   */\n      dup3\n        /* \"#utility.yul\":751:788   */\n      mstore\n        /* \"#utility.yul\":676:794   */\n      pop\n      pop\n      jump\t// out\n        /* \"#utility.yul\":800:1022   */\n    tag_56:\n        /* \"#utility.yul\":893:897   */\n      0x00\n        /* \"#utility.yul\":931:933   */\n      0x20\n        /* \"#utility.yul\":920:929   */\n      dup3\n        /* \"#utility.yul\":916:934   */\n      add\n        /* \"#utility.yul\":908:934   */\n      swap1\n      pop\n        /* \"#utility.yul\":944:1015   */\n      tag_225\n        /* \"#utility.yul\":1012:1013   */\n      0x00\n        /* \"#utility.yul\":1001:1010   */\n      dup4\n        /* \"#utility.yul\":997:1014   */\n      add\n        /* \"#utility.yul\":988:994   */\n      dup5\n        /* \"#utility.yul\":944:1015   */\n      tag_191\n      jump\t// in\n    tag_225:\n        /* \"#utility.yul\":800:1022   */\n      swap3\n      swap2\n      pop\n      pop\n      jump\t// out\n        /* \"#utility.yul\":1109:1226   */\n    tag_193:\n        /* \"#utility.yul\":1218:1219   */\n      0x00\n        /* \"#utility.yul\":1215:1216   */\n      dup1\n        /* \"#utility.yul\":1208:1220   */\n      revert\n        /* \"#utility.yul\":1355:1477   */\n    tag_195:\n        /* \"#utility.yul\":1428:1452   */\n      tag_230\n        /* \"#utility.yul\":1446:1451   */\n      dup2\n        /* \"#utility.yul\":1428:1452   */\n      tag_190\n      jump\t// in\n    tag_230:\n        /* \"#utility.yul\":1421:1426   */\n      dup2\n        /* \"#utility.yul\":1418:1453   */\n      eq\n        /* \"#utility.yul\":1408:1471   */\n      tag_231\n      jumpi\n        /* \"#utility.yul\":1467:1468   */\n      0x00\n        /* \"#utility.yul\":1464:1465   */\n      dup1\n        /* \"#utility.yul\":1457:1469   */\n      revert\n        /* \"#utility.yul\":1408:1471   */\n    tag_231:\n        /* \"#utility.yul\":1355:1477   */\n      pop\n      jump\t// out\n        /* \"#utility.yul\":1483:1622   */\n    tag_196:\n        /* \"#utility.yul\":1529:1534   */\n      0x00\n        /* \"#utility.yul\":1567:1573   */\n      dup2\n        /* \"#utility.yul\":1554:1574   */\n      calldataload\n        /* \"#utility.yul\":1545:1574   */\n      swap1\n      pop\n        /* \"#utility.yul\":1583:1616   */\n      tag_233\n        /* \"#utility.yul\":1610:1615   */\n      dup2\n        /* \"#utility.yul\":1583:1616   */\n      tag_195\n      jump\t// in\n    tag_233:\n        /* \"#utility.yul\":1483:1622   */\n      swap3\n      swap2\n      pop\n      pop\n      jump\t// out\n        /* \"#utility.yul\":1628:1957   */\n    tag_59:\n        /* \"#utility.yul\":1687:1693   */\n      0x00\n        /* \"#utility.yul\":1736:1738   */\n      0x20\n        /* \"#utility.yul\":1724:1733   */\n      dup3\n        /* \"#utility.yul\":1715:1722   */\n      dup5\n        /* \"#utility.yul\":1711:1734   */\n      sub\n        /* \"#utility.yul\":1707:1739   */\n      slt\n        /* \"#utility.yul\":1704:1823   */\n      iszero\n      tag_235\n      jumpi\n        /* \"#utility.yul\":1742:1821   */\n      tag_236\n      tag_193\n      jump\t// in\n    tag_236:\n        /* \"#utility.yul\":1704:1823   */\n    tag_235:\n        /* \"#utility.yul\":1862:1863   */\n      0x00\n        /* \"#utility.yul\":1887:1940   */\n      tag_237\n        /* \"#utility.yul\":1932:1939   */\n      dup5\n        /* \"#utility.yul\":1923:1929   */\n      dup3\n        /* \"#utility.yul\":1912:1921   */\n      dup6\n        /* \"#utility.yul\":1908:1930   */\n      add\n        /* \"#utility.yul\":1887:1940   */\n      tag_196\n      jump\t// in\n    tag_237:\n        /* \"#utility.yul\":1877:1940   */\n      swap2\n      pop\n        /* \"#utility.yul\":1833:1950   */\n      pop\n        /* \"#utility.yul\":1628:1957   */\n      swap3\n      swap2\n      pop\n      pop\n      jump\t// out\n        /* \"#utility.yul\":1963:2132   */\n    tag_197:\n        /* \"#utility.yul\":2047:2058   */\n      0x00\n        /* \"#utility.yul\":2081:2087   */\n      dup3\n        /* \"#utility.yul\":2076:2079   */\n      dup3\n        /* \"#utility.yul\":2069:2088   */\n      mstore\n        /* \"#utility.yul\":2121:2125   */\n      0x20\n        /* \"#utility.yul\":2116:2119   */\n      dup3\n        /* \"#utility.yul\":2112:2126   */\n      add\n        /* \"#utility.yul\":2097:2126   */\n      swap1\n      pop\n        /* \"#utility.yul\":1963:2132   */\n      swap3\n      swap2\n      pop\n      pop\n      jump\t// out\n        /* \"#utility.yul\":2138:2313   */\n    tag_198:\n        /* \"#utility.yul\":2278:2305   */\n      0x436f6e747261637420646f6e277420686176652066756e647300000000000000\n        /* \"#utility.yul\":2274:2275   */\n      0x00\n        /* \"#utility.yul\":2266:2272   */\n      dup3\n        /* \"#utility.yul\":2262:2276   */\n      add\n        /* \"#utility.yul\":2255:2306   */\n      mstore\n        /* \"#utility.yul\":2138:2313   */\n      pop\n      jump\t// out\n        /* \"#utility.yul\":2319:2685   */\n    tag_199:\n        /* \"#utility.yul\":2461:2464   */\n      0x00\n        /* \"#utility.yul\":2482:2549   */\n      tag_241\n        /* \"#utility.yul\":2546:2548   */\n      0x19\n        /* \"#utility.yul\":2541:2544   */\n      dup4\n        /* \"#utility.yul\":2482:2549   */\n      tag_197\n      jump\t// in\n    tag_241:\n        /* \"#utility.yul\":2475:2549   */\n      swap2\n      pop\n        /* \"#utility.yul\":2558:2651   */\n      tag_242\n        /* \"#utility.yul\":2647:2650   */\n      dup3\n        /* \"#utility.yul\":2558:2651   */\n      tag_198\n      jump\t// in\n    tag_242:\n        /* \"#utility.yul\":2676:2678   */\n      0x20\n        /* \"#utility.yul\":2671:2674   */\n      dup3\n        /* \"#utility.yul\":2667:2679   */\n      add\n        /* \"#utility.yul\":2660:2679   */\n      swap1\n      pop\n        /* \"#utility.yul\":2319:2685   */\n      swap2\n      swap1\n      pop\n      jump\t// out\n        /* \"#utility.yul\":2691:3110   */\n    tag_119:\n        /* \"#utility.yul\":2857:2861   */\n      0x00\n        /* \"#utility.yul\":2895:2897   */\n      0x20\n        /* \"#utility.yul\":2884:2893   */\n      dup3\n        /* \"#utility.yul\":2880:2898   */\n      add\n        /* \"#utility.yul\":2872:2898   */\n      swap1\n      pop\n        /* \"#utility.yul\":2944:2953   */\n      dup2\n        /* \"#utility.yul\":2938:2942   */\n      dup2\n        /* \"#utility.yul\":2934:2954   */\n      sub\n        /* \"#utility.yul\":2930:2931   */\n      0x00\n        /* \"#utility.yul\":2919:2928   */\n      dup4\n        /* \"#utility.yul\":2915:2932   */\n      add\n        /* \"#utility.yul\":2908:2955   */\n      mstore\n        /* \"#utility.yul\":2972:3103   */\n      tag_244\n        /* \"#utility.yul\":3098:3102   */\n      dup2\n        /* \"#utility.yul\":2972:3103   */\n      tag_199\n      jump\t// in\n    tag_244:\n        /* \"#utility.yul\":2964:3103   */\n      swap1\n      pop\n        /* \"#utility.yul\":2691:3110   */\n      swap2\n      swap1\n      pop\n      jump\t// out\n        /* \"#utility.yul\":3116:3286   */\n    tag_200:\n        /* \"#utility.yul\":3256:3278   */\n      0x54696d65206973206e6f74206f76657220796574000000000000000000000000\n        /* \"#utility.yul\":3252:3253   */\n      0x00\n        /* \"#utility.yul\":3244:3250   */\n      dup3\n        /* \"#utility.yul\":3240:3254   */\n      add\n        /* \"#utility.yul\":3233:3279   */\n      mstore\n        /* \"#utility.yul\":3116:3286   */\n      pop\n      jump\t// out\n        /* \"#utility.yul\":3292:3658   */\n    tag_201:\n        /* \"#utility.yul\":3434:3437   */\n      0x00\n        /* \"#utility.yul\":3455:3522   */\n      tag_247\n        /* \"#utility.yul\":3519:3521   */\n      0x14\n        /* \"#utility.yul\":3514:3517   */\n      dup4\n        /* \"#utility.yul\":3455:3522   */\n      tag_197\n      jump\t// in\n    tag_247:\n        /* \"#utility.yul\":3448:3522   */\n      swap2\n      pop\n        /* \"#utility.yul\":3531:3624   */\n      tag_248\n        /* \"#utility.yul\":3620:3623   */\n      dup3\n        /* \"#utility.yul\":3531:3624   */\n      tag_200\n      jump\t// in\n    tag_248:\n        /* \"#utility.yul\":3649:3651   */\n      0x20\n        /* \"#utility.yul\":3644:3647   */\n      dup3\n        /* \"#utility.yul\":3640:3652   */\n      add\n        /* \"#utility.yul\":3633:3652   */\n      swap1\n      pop\n        /* \"#utility.yul\":3292:3658   */\n      swap2\n      swap1\n      pop\n      jump\t// out\n        /* \"#utility.yul\":3664:4083   */\n    tag_122:\n        /* \"#utility.yul\":3830:3834   */\n      0x00\n        /* \"#utility.yul\":3868:3870   */\n      0x20\n        /* \"#utility.yul\":3857:3866   */\n      dup3\n        /* \"#utility.yul\":3853:3871   */\n      add\n        /* \"#utility.yul\":3845:3871   */\n      swap1\n      pop\n        /* \"#utility.yul\":3917:3926   */\n      dup2\n        /* \"#utility.yul\":3911:3915   */\n      dup2\n        /* \"#utility.yul\":3907:3927   */\n      sub\n        /* \"#utility.yul\":3903:3904   */\n      0x00\n        /* \"#utility.yul\":3892:3901   */\n      dup4\n        /* \"#utility.yul\":3888:3905   */\n      add\n        /* \"#utility.yul\":3881:3928   */\n      mstore\n        /* \"#utility.yul\":3945:4076   */\n      tag_250\n        /* \"#utility.yul\":4071:4075   */\n      dup2\n        /* \"#utility.yul\":3945:4076   */\n      tag_201\n      jump\t// in\n    tag_250:\n        /* \"#utility.yul\":3937:4076   */\n      swap1\n      pop\n        /* \"#utility.yul\":3664:4083   */\n      swap2\n      swap1\n      pop\n      jump\t// out\n        /* \"#utility.yul\":4089:4269   */\n    tag_202:\n        /* \"#utility.yul\":4137:4214   */\n      0x4e487b7100000000000000000000000000000000000000000000000000000000\n        /* \"#utility.yul\":4134:4135   */\n      0x00\n        /* \"#utility.yul\":4127:4215   */\n      mstore\n        /* \"#utility.yul\":4234:4238   */\n      0x11\n        /* \"#utility.yul\":4231:4232   */\n      0x04\n        /* \"#utility.yul\":4224:4239   */\n      mstore\n        /* \"#utility.yul\":4258:4262   */\n      0x24\n        /* \"#utility.yul\":4255:4256   */\n      0x00\n        /* \"#utility.yul\":4248:4263   */\n      revert\n        /* \"#utility.yul\":4275:4685   */\n    tag_126:\n        /* \"#utility.yul\":4315:4322   */\n      0x00\n        /* \"#utility.yul\":4338:4358   */\n      tag_253\n        /* \"#utility.yul\":4356:4357   */\n      dup3\n        /* \"#utility.yul\":4338:4358   */\n      tag_187\n      jump\t// in\n    tag_253:\n        /* \"#utility.yul\":4333:4358   */\n      swap2\n      pop\n        /* \"#utility.yul\":4372:4392   */\n      tag_254\n        /* \"#utility.yul\":4390:4391   */\n      dup4\n        /* \"#utility.yul\":4372:4392   */\n      tag_187\n      jump\t// in\n    tag_254:\n        /* \"#utility.yul\":4367:4392   */\n      swap3\n      pop\n        /* \"#utility.yul\":4427:4428   */\n      dup3\n        /* \"#utility.yul\":4424:4425   */\n      dup3\n        /* \"#utility.yul\":4420:4429   */\n      mul\n        /* \"#utility.yul\":4449:4479   */\n      tag_255\n        /* \"#utility.yul\":4467:4478   */\n      dup2\n        /* \"#utility.yul\":4449:4479   */\n      tag_187\n      jump\t// in\n    tag_255:\n        /* \"#utility.yul\":4438:4479   */\n      swap2\n      pop\n        /* \"#utility.yul\":4628:4629   */\n      dup3\n        /* \"#utility.yul\":4619:4626   */\n      dup3\n        /* \"#utility.yul\":4615:4630   */\n      div\n        /* \"#utility.yul\":4612:4613   */\n      dup5\n        /* \"#utility.yul\":4609:4631   */\n      eq\n        /* \"#utility.yul\":4589:4590   */\n      dup4\n        /* \"#utility.yul\":4582:4591   */\n      iszero\n        /* \"#utility.yul\":4562:4645   */\n      or\n        /* \"#utility.yul\":4539:4678   */\n      tag_256\n      jumpi\n        /* \"#utility.yul\":4658:4676   */\n      tag_257\n      tag_202\n      jump\t// in\n    tag_257:\n        /* \"#utility.yul\":4539:4678   */\n    tag_256:\n        /* \"#utility.yul\":4323:4685   */\n      pop\n        /* \"#utility.yul\":4275:4685   */\n      swap3\n      swap2\n      pop\n      pop\n      jump\t// out\n        /* \"#utility.yul\":4691:4882   */\n    tag_128:\n        /* \"#utility.yul\":4731:4734   */\n      0x00\n        /* \"#utility.yul\":4750:4770   */\n      tag_259\n        /* \"#utility.yul\":4768:4769   */\n      dup3\n        /* \"#utility.yul\":4750:4770   */\n      tag_187\n      jump\t// in\n    tag_259:\n        /* \"#utility.yul\":4745:4770   */\n      swap2\n      pop\n        /* \"#utility.yul\":4784:4804   */\n      tag_260\n        /* \"#utility.yul\":4802:4803   */\n      dup4\n        /* \"#utility.yul\":4784:4804   */\n      tag_187\n      jump\t// in\n    tag_260:\n        /* \"#utility.yul\":4779:4804   */\n      swap3\n      pop\n        /* \"#utility.yul\":4827:4828   */\n      dup3\n        /* \"#utility.yul\":4824:4825   */\n      dup3\n        /* \"#utility.yul\":4820:4829   */\n      add\n        /* \"#utility.yul\":4813:4829   */\n      swap1\n      pop\n        /* \"#utility.yul\":4848:4851   */\n      dup1\n        /* \"#utility.yul\":4845:4846   */\n      dup3\n        /* \"#utility.yul\":4842:4852   */\n      gt\n        /* \"#utility.yul\":4839:4875   */\n      iszero\n      tag_261\n      jumpi\n        /* \"#utility.yul\":4855:4873   */\n      tag_262\n      tag_202\n      jump\t// in\n    tag_262:\n        /* \"#utility.yul\":4839:4875   */\n    tag_261:\n        /* \"#utility.yul\":4691:4882   */\n      swap3\n      swap2\n      pop\n      pop\n      jump\t// out\n        /* \"#utility.yul\":4888:5060   */\n    tag_203:\n        /* \"#utility.yul\":5028:5052   */\n      0x596f7520617265206e6f74207468652073656c6c657200000000000000000000\n        /* \"#utility.yul\":5024:5025   */\n      0x00\n        /* \"#utility.yul\":5016:5022   */\n      dup3\n        /* \"#utility.yul\":5012:5026   */\n      add\n        /* \"#utility.yul\":5005:5053   */\n      mstore\n        /* \"#utility.yul\":4888:5060   */\n      pop\n      jump\t// out\n        /* \"#utility.yul\":5066:5432   */\n    tag_204:\n        /* \"#utility.yul\":5208:5211   */\n      0x00\n        /* \"#utility.yul\":5229:5296   */\n      tag_265\n        /* \"#utility.yul\":5293:5295   */\n      0x16\n        /* \"#utility.yul\":5288:5291   */\n      dup4\n        /* \"#utility.yul\":5229:5296   */\n      tag_197\n      jump\t// in\n    tag_265:\n        /* \"#utility.yul\":5222:5296   */\n      swap2\n      pop\n        /* \"#utility.yul\":5305:5398   */\n      tag_266\n        /* \"#utility.yul\":5394:5397   */\n      dup3\n        /* \"#utility.yul\":5305:5398   */\n      tag_203\n      jump\t// in\n    tag_266:\n        /* \"#utility.yul\":5423:5425   */\n      0x20\n        /* \"#utility.yul\":5418:5421   */\n      dup3\n        /* \"#utility.yul\":5414:5426   */\n      add\n        /* \"#utility.yul\":5407:5426   */\n      swap1\n      pop\n        /* \"#utility.yul\":5066:5432   */\n      swap2\n      swap1\n      pop\n      jump\t// out\n        /* \"#utility.yul\":5438:5857   */\n    tag_132:\n        /* \"#utility.yul\":5604:5608   */\n      0x00\n        /* \"#utility.yul\":5642:5644   */\n      0x20\n        /* \"#utility.yul\":5631:5640   */\n      dup3\n        /* \"#utility.yul\":5627:5645   */\n      add\n        /* \"#utility.yul\":5619:5645   */\n      swap1\n      pop\n        /* \"#utility.yul\":5691:5700   */\n      dup2\n        /* \"#utility.yul\":5685:5689   */\n      dup2\n        /* \"#utility.yul\":5681:5701   */\n      sub\n        /* \"#utility.yul\":5677:5678   */\n      0x00\n        /* \"#utility.yul\":5666:5675   */\n      dup4\n        /* \"#utility.yul\":5662:5679   */\n      add\n        /* \"#utility.yul\":5655:5702   */\n      mstore\n        /* \"#utility.yul\":5719:5850   */\n      tag_268\n        /* \"#utility.yul\":5845:5849   */\n      dup2\n        /* \"#utility.yul\":5719:5850   */\n      tag_204\n      jump\t// in\n    tag_268:\n        /* \"#utility.yul\":5711:5850   */\n      swap1\n      pop\n        /* \"#utility.yul\":5438:5857   */\n      swap2\n      swap1\n      pop\n      jump\t// out\n        /* \"#utility.yul\":5863:6034   */\n    tag_205:\n        /* \"#utility.yul\":6003:6026   */\n      0x596f7520617265206e6f74207468652062757965720000000000000000000000\n        /* \"#utility.yul\":5999:6000   */\n      0x00\n        /* \"#utility.yul\":5991:5997   */\n      dup3\n        /* \"#utility.yul\":5987:6001   */\n      add\n        /* \"#utility.yul\":5980:6027   */\n      mstore\n        /* \"#utility.yul\":5863:6034   */\n      pop\n      jump\t// out\n        /* \"#utility.yul\":6040:6406   */\n    tag_206:\n        /* \"#utility.yul\":6182:6185   */\n      0x00\n        /* \"#utility.yul\":6203:6270   */\n      tag_271\n        /* \"#utility.yul\":6267:6269   */\n      0x15\n        /* \"#utility.yul\":6262:6265   */\n      dup4\n        /* \"#utility.yul\":6203:6270   */\n      tag_197\n      jump\t// in\n    tag_271:\n        /* \"#utility.yul\":6196:6270   */\n      swap2\n      pop\n        /* \"#utility.yul\":6279:6372   */\n      tag_272\n        /* \"#utility.yul\":6368:6371   */\n      dup3\n        /* \"#utility.yul\":6279:6372   */\n      tag_205\n      jump\t// in\n    tag_272:\n        /* \"#utility.yul\":6397:6399   */\n      0x20\n        /* \"#utility.yul\":6392:6395   */\n      dup3\n        /* \"#utility.yul\":6388:6400   */\n      add\n        /* \"#utility.yul\":6381:6400   */\n      swap1\n      pop\n        /* \"#utility.yul\":6040:6406   */\n      swap2\n      swap1\n      pop\n      jump\t// out\n        /* \"#utility.yul\":6412:6831   */\n    tag_142:\n        /* \"#utility.yul\":6578:6582   */\n      0x00\n        /* \"#utility.yul\":6616:6618   */\n      0x20\n        /* \"#utility.yul\":6605:6614   */\n      dup3\n        /* \"#utility.yul\":6601:6619   */\n      add\n        /* \"#utility.yul\":6593:6619   */\n      swap1\n      pop\n        /* \"#utility.yul\":6665:6674   */\n      dup2\n        /* \"#utility.yul\":6659:6663   */\n      dup2\n        /* \"#utility.yul\":6655:6675   */\n      sub\n        /* \"#utility.yul\":6651:6652   */\n      0x00\n        /* \"#utility.yul\":6640:6649   */\n      dup4\n        /* \"#utility.yul\":6636:6653   */\n      add\n        /* \"#utility.yul\":6629:6676   */\n      mstore\n        /* \"#utility.yul\":6693:6824   */\n      tag_274\n        /* \"#utility.yul\":6819:6823   */\n      dup2\n        /* \"#utility.yul\":6693:6824   */\n      tag_206\n      jump\t// in\n    tag_274:\n        /* \"#utility.yul\":6685:6824   */\n      swap1\n      pop\n        /* \"#utility.yul\":6412:6831   */\n      swap2\n      swap1\n      pop\n      jump\t// out\n        /* \"#utility.yul\":6837:7057   */\n    tag_207:\n        /* \"#utility.yul\":6977:7011   */\n      0x4a757374206275796572206f722073656c6c65722063616e2077697468647261\n        /* \"#utility.yul\":6973:6974   */\n      0x00\n        /* \"#utility.yul\":6965:6971   */\n      dup3\n        /* \"#utility.yul\":6961:6975   */\n      add\n        /* \"#utility.yul\":6954:7012   */\n      mstore\n        /* \"#utility.yul\":7046:7049   */\n      0x7700000000000000000000000000000000000000000000000000000000000000\n        /* \"#utility.yul\":7041:7043   */\n      0x20\n        /* \"#utility.yul\":7033:7039   */\n      dup3\n        /* \"#utility.yul\":7029:7044   */\n      add\n        /* \"#utility.yul\":7022:7050   */\n      mstore\n        /* \"#utility.yul\":6837:7057   */\n      pop\n      jump\t// out\n        /* \"#utility.yul\":7063:7429   */\n    tag_208:\n        /* \"#utility.yul\":7205:7208   */\n      0x00\n        /* \"#utility.yul\":7226:7293   */\n      tag_277\n        /* \"#utility.yul\":7290:7292   */\n      0x21\n        /* \"#utility.yul\":7285:7288   */\n      dup4\n        /* \"#utility.yul\":7226:7293   */\n      tag_197\n      jump\t// in\n    tag_277:\n        /* \"#utility.yul\":7219:7293   */\n      swap2\n      pop\n        /* \"#utility.yul\":7302:7395   */\n      tag_278\n        /* \"#utility.yul\":7391:7394   */\n      dup3\n        /* \"#utility.yul\":7302:7395   */\n      tag_207\n      jump\t// in\n    tag_278:\n        /* \"#utility.yul\":7420:7422   */\n      0x40\n        /* \"#utility.yul\":7415:7418   */\n      dup3\n        /* \"#utility.yul\":7411:7423   */\n      add\n        /* \"#utility.yul\":7404:7423   */\n      swap1\n      pop\n        /* \"#utility.yul\":7063:7429   */\n      swap2\n      swap1\n      pop\n      jump\t// out\n        /* \"#utility.yul\":7435:7854   */\n    tag_155:\n        /* \"#utility.yul\":7601:7605   */\n      0x00\n        /* \"#utility.yul\":7639:7641   */\n      0x20\n        /* \"#utility.yul\":7628:7637   */\n      dup3\n        /* \"#utility.yul\":7624:7642   */\n      add\n        /* \"#utility.yul\":7616:7642   */\n      swap1\n      pop\n        /* \"#utility.yul\":7688:7697   */\n      dup2\n        /* \"#utility.yul\":7682:7686   */\n      dup2\n        /* \"#utility.yul\":7678:7698   */\n      sub\n        /* \"#utility.yul\":7674:7675   */\n      0x00\n        /* \"#utility.yul\":7663:7672   */\n      dup4\n        /* \"#utility.yul\":7659:7676   */\n      add\n        /* \"#utility.yul\":7652:7699   */\n      mstore\n        /* \"#utility.yul\":7716:7847   */\n      tag_280\n        /* \"#utility.yul\":7842:7846   */\n      dup2\n        /* \"#utility.yul\":7716:7847   */\n      tag_208\n      jump\t// in\n    tag_280:\n        /* \"#utility.yul\":7708:7847   */\n      swap1\n      pop\n        /* \"#utility.yul\":7435:7854   */\n      swap2\n      swap1\n      pop\n      jump\t// out\n        /* \"#utility.yul\":7860:8089   */\n    tag_209:\n        /* \"#utility.yul\":8000:8034   */\n      0x4f6e6c79207468652073656c6c6572206f722062757965722063616e20646570\n        /* \"#utility.yul\":7996:7997   */\n      0x00\n        /* \"#utility.yul\":7988:7994   */\n      dup3\n        /* \"#utility.yul\":7984:7998   */\n      add\n        /* \"#utility.yul\":7977:8035   */\n      mstore\n        /* \"#utility.yul\":8069:8081   */\n      0x6f7369742066756e647300000000000000000000000000000000000000000000\n        /* \"#utility.yul\":8064:8066   */\n      0x20\n        /* \"#utility.yul\":8056:8062   */\n      dup3\n        /* \"#utility.yul\":8052:8067   */\n      add\n        /* \"#utility.yul\":8045:8082   */\n      mstore\n        /* \"#utility.yul\":7860:8089   */\n      pop\n      jump\t// out\n        /* \"#utility.yul\":8095:8461   */\n    tag_210:\n        /* \"#utility.yul\":8237:8240   */\n      0x00\n        /* \"#utility.yul\":8258:8325   */\n      tag_283\n        /* \"#utility.yul\":8322:8324   */\n      0x2a\n        /* \"#utility.yul\":8317:8320   */\n      dup4\n        /* \"#utility.yul\":8258:8325   */\n      tag_197\n      jump\t// in\n    tag_283:\n        /* \"#utility.yul\":8251:8325   */\n      swap2\n      pop\n        /* \"#utility.yul\":8334:8427   */\n      tag_284\n        /* \"#utility.yul\":8423:8426   */\n      dup3\n        /* \"#utility.yul\":8334:8427   */\n      tag_209\n      jump\t// in\n    tag_284:\n        /* \"#utility.yul\":8452:8454   */\n      0x40\n        /* \"#utility.yul\":8447:8450   */\n      dup3\n        /* \"#utility.yul\":8443:8455   */\n      add\n        /* \"#utility.yul\":8436:8455   */\n      swap1\n      pop\n        /* \"#utility.yul\":8095:8461   */\n      swap2\n      swap1\n      pop\n      jump\t// out\n        /* \"#utility.yul\":8467:8886   */\n    tag_175:\n        /* \"#utility.yul\":8633:8637   */\n      0x00\n        /* \"#utility.yul\":8671:8673   */\n      0x20\n        /* \"#utility.yul\":8660:8669   */\n      dup3\n        /* \"#utility.yul\":8656:8674   */\n      add\n        /* \"#utility.yul\":8648:8674   */\n      swap1\n      pop\n        /* \"#utility.yul\":8720:8729   */\n      dup2\n        /* \"#utility.yul\":8714:8718   */\n      dup2\n        /* \"#utility.yul\":8710:8730   */\n      sub\n        /* \"#utility.yul\":8706:8707   */\n      0x00\n        /* \"#utility.yul\":8695:8704   */\n      dup4\n        /* \"#utility.yul\":8691:8708   */\n      add\n        /* \"#utility.yul\":8684:8731   */\n      mstore\n        /* \"#utility.yul\":8748:8879   */\n      tag_286\n        /* \"#utility.yul\":8874:8878   */\n      dup2\n        /* \"#utility.yul\":8748:8879   */\n      tag_210\n      jump\t// in\n    tag_286:\n        /* \"#utility.yul\":8740:8879   */\n      swap1\n      pop\n        /* \"#utility.yul\":8467:8886   */\n      swap2\n      swap1\n      pop\n      jump\t// out\n        /* \"#utility.yul\":8892:9073   */\n    tag_211:\n        /* \"#utility.yul\":9032:9065   */\n      0x5265656e7472616e637947756172643a207265656e7472616e742063616c6c00\n        /* \"#utility.yul\":9028:9029   */\n      0x00\n        /* \"#utility.yul\":9020:9026   */\n      dup3\n        /* \"#utility.yul\":9016:9030   */\n      add\n        /* \"#utility.yul\":9009:9066   */\n      mstore\n        /* \"#utility.yul\":8892:9073   */\n      pop\n      jump\t// out\n        /* \"#utility.yul\":9079:9445   */\n    tag_212:\n        /* \"#utility.yul\":9221:9224   */\n      0x00\n        /* \"#utility.yul\":9242:9309   */\n      tag_289\n        /* \"#utility.yul\":9306:9308   */\n      0x1f\n        /* \"#utility.yul\":9301:9304   */\n      dup4\n        /* \"#utility.yul\":9242:9309   */\n      tag_197\n      jump\t// in\n    tag_289:\n        /* \"#utility.yul\":9235:9309   */\n      swap2\n      pop\n        /* \"#utility.yul\":9318:9411   */\n      tag_290\n        /* \"#utility.yul\":9407:9410   */\n      dup3\n        /* \"#utility.yul\":9318:9411   */\n      tag_211\n      jump\t// in\n    tag_290:\n        /* \"#utility.yul\":9436:9438   */\n      0x20\n        /* \"#utility.yul\":9431:9434   */\n      dup3\n        /* \"#utility.yul\":9427:9439   */\n      add\n        /* \"#utility.yul\":9420:9439   */\n      swap1\n      pop\n        /* \"#utility.yul\":9079:9445   */\n      swap2\n      swap1\n      pop\n      jump\t// out\n        /* \"#utility.yul\":9451:9870   */\n    tag_185:\n        /* \"#utility.yul\":9617:9621   */\n      0x00\n        /* \"#utility.yul\":9655:9657   */\n      0x20\n        /* \"#utility.yul\":9644:9653   */\n      dup3\n        /* \"#utility.yul\":9640:9658   */\n      add\n        /* \"#utility.yul\":9632:9658   */\n      swap1\n      pop\n        /* \"#utility.yul\":9704:9713   */\n      dup2\n        /* \"#utility.yul\":9698:9702   */\n      dup2\n        /* \"#utility.yul\":9694:9714   */\n      sub\n        /* \"#utility.yul\":9690:9691   */\n      0x00\n        /* \"#utility.yul\":9679:9688   */\n      dup4\n        /* \"#utility.yul\":9675:9692   */\n      add\n        /* \"#utility.yul\":9668:9715   */\n      mstore\n        /* \"#utility.yul\":9732:9863   */\n      tag_292\n        /* \"#utility.yul\":9858:9862   */\n      dup2\n        /* \"#utility.yul\":9732:9863   */\n      tag_212\n      jump\t// in\n    tag_292:\n        /* \"#utility.yul\":9724:9863   */\n      swap1\n      pop\n        /* \"#utility.yul\":9451:9870   */\n      swap2\n      swap1\n      pop\n      jump\t// out\n\n    auxdata: 0xa2646970667358221220a61291b0628872aadfabf42c13e0cdb7dbafad3a29832103efdd885c71a9750064736f6c63430008110033\n}\n",
				"bytecode": {
					"linkReferences": {},
					"object": "60806040523480156200001157600080fd5b506040516200157038038062001570833981810160405281019062000037919062000196565b600160008190555086600160006101000a81548173ffffffffffffffffffffffffffffffffffffffff021916908373ffffffffffffffffffffffffffffffffffffffff16021790555085600260006101000a81548173ffffffffffffffffffffffffffffffffffffffff021916908373ffffffffffffffffffffffffffffffffffffffff1602179055508460068190555083600781905550826008819055508160098190555080600a819055505050505050505062000249565b600080fd5b600073ffffffffffffffffffffffffffffffffffffffff82169050919050565b60006200012382620000f6565b9050919050565b620001358162000116565b81146200014157600080fd5b50565b60008151905062000155816200012a565b92915050565b6000819050919050565b62000170816200015b565b81146200017c57600080fd5b50565b600081519050620001908162000165565b92915050565b600080600080600080600060e0888a031215620001b857620001b7620000f1565b5b6000620001c88a828b0162000144565b9750506020620001db8a828b0162000144565b9650506040620001ee8a828b016200017f565b9550506060620002018a828b016200017f565b9450506080620002148a828b016200017f565b93505060a0620002278a828b016200017f565b92505060c06200023a8a828b016200017f565b91505092959891949750929550565b61131780620002596000396000f3fe6080604052600436106101185760003560e01c8063867a06b3116100a0578063c24a0f8b11610064578063c24a0f8b14610436578063d0bf21fd14610461578063db2926211461048c578063e6cdc708146104b7578063f340fa01146104e257610184565b8063867a06b31461035f5780638b7afe2e1461038a57806399dc2df3146103b5578063a7245b6e146103e0578063ba12a5c51461040b57610184565b80634680dd2f116100e75780634680dd2f146102975780634ce9e6de146102c257806351cff8d9146102ed57806369cf1e90146103095780636d5e7a151461033457610184565b8063220e5ab3146101eb57806331658e321461021657806336359265146102415780634644803f1461026c57610184565b36610184573373ffffffffffffffffffffffffffffffffffffffff163073ffffffffffffffffffffffffffffffffffffffff167f5548c837ab068cf56a2c2479df0882a4922fd203edb7517321831d95078c5f623460405161017a9190610e16565b60405180910390a3005b3373ffffffffffffffffffffffffffffffffffffffff163073ffffffffffffffffffffffffffffffffffffffff167f5548c837ab068cf56a2c2479df0882a4922fd203edb7517321831d95078c5f62346040516101e19190610e16565b60405180910390a3005b3480156101f757600080fd5b506102006104fe565b60405161020d9190610e16565b60405180910390f35b34801561022257600080fd5b5061022b610504565b6040516102389190610e16565b60405180910390f35b34801561024d57600080fd5b5061025661050e565b6040516102639190610e16565b60405180910390f35b34801561027857600080fd5b50610281610518565b60405161028e9190610e16565b60405180910390f35b3480156102a357600080fd5b506102ac610522565b6040516102b99190610e16565b60405180910390f35b3480156102ce57600080fd5b506102d761052c565b6040516102e49190610e72565b60405180910390f35b61030760048036038101906103029190610ebe565b610556565b005b34801561031557600080fd5b5061031e610b53565b60405161032b9190610e16565b60405180910390f35b34801561034057600080fd5b50610349610b5d565b6040516103569190610e16565b60405180910390f35b34801561036b57600080fd5b50610374610b63565b6040516103819190610e16565b60405180910390f35b34801561039657600080fd5b5061039f610b69565b6040516103ac9190610e16565b60405180910390f35b3480156103c157600080fd5b506103ca610b6f565b6040516103d79190610e16565b60405180910390f35b3480156103ec57600080fd5b506103f5610b75565b6040516104029190610e16565b60405180910390f35b34801561041757600080fd5b50610420610b7b565b60405161042d9190610e72565b60405180910390f35b34801561044257600080fd5b5061044b610ba5565b6040516104589190610e16565b60405180910390f35b34801561046d57600080fd5b50610476610bab565b6040516104839190610e16565b60405180910390f35b34801561049857600080fd5b506104a1610bb5565b6040516104ae9190610e16565b60405180910390f35b3480156104c357600080fd5b506104cc610bbf565b6040516104d99190610e16565b60405180910390f35b6104fc60048036038101906104f79190610ebe565b610bc5565b005b60065481565b6000600a54905090565b6000600954905090565b6000600454905090565b6000600554905090565b6000600260009054906101000a900473ffffffffffffffffffffffffffffffffffffffff16905090565b61055e610da4565b600047036105a1576040517f08c379a000000000000000000000000000000000000000000000000000000000815260040161059890610f48565b60405180910390fd5b60095442106105e5576040517f08c379a00000000000000000000000000000000000000000000000000000000081526004016105dc90610fb4565b60405180910390fd5b6007546004541180156105f9575060095442115b8015610621575062015180600a546106119190611003565b60095461061e9190611045565b42105b15610724578073ffffffffffffffffffffffffffffffffffffffff16600160009054906101000a900473ffffffffffffffffffffffffffffffffffffffff1673ffffffffffffffffffffffffffffffffffffffff16146106b6576040517f08c379a00000000000000000000000000000000000000000000000000000000081526004016106ad906110c5565b60405180910390fd5b600160009054906101000a900473ffffffffffffffffffffffffffffffffffffffff1673ffffffffffffffffffffffffffffffffffffffff166108fc479081150290604051600060405180830381858888f1935050505015801561071e573d6000803e3d6000fd5b50610b48565b600654600554118015610753575062015180600a546107439190611003565b6009546107509190611045565b42115b15610856578073ffffffffffffffffffffffffffffffffffffffff16600260009054906101000a900473ffffffffffffffffffffffffffffffffffffffff1673ffffffffffffffffffffffffffffffffffffffff16146107e8576040517f08c379a00000000000000000000000000000000000000000000000000000000081526004016107df90611131565b60405180910390fd5b600260009054906101000a900473ffffffffffffffffffffffffffffffffffffffff1673ffffffffffffffffffffffffffffffffffffffff166108fc479081150290604051600060405180830381858888f19350505050158015610850573d6000803e3d6000fd5b50610b47565b6000471415801561086a5750600754600454105b80156108795750600854600554105b80156108a1575062015180600a546108919190611003565b60095461089e9190611045565b42115b15610b4657600260009054906101000a900473ffffffffffffffffffffffffffffffffffffffff1673ffffffffffffffffffffffffffffffffffffffff168173ffffffffffffffffffffffffffffffffffffffff16148061094f5750600160009054906101000a900473ffffffffffffffffffffffffffffffffffffffff1673ffffffffffffffffffffffffffffffffffffffff168173ffffffffffffffffffffffffffffffffffffffff16145b61098e576040517f08c379a0000000000000000000000000000000000000000000000000000000008152600401610985906111c3565b60405180910390fd5b600260009054906101000a900473ffffffffffffffffffffffffffffffffffffffff1673ffffffffffffffffffffffffffffffffffffffff168173ffffffffffffffffffffffffffffffffffffffff161480156109ee5750600060055414155b15610a6b57600260009054906101000a900473ffffffffffffffffffffffffffffffffffffffff1673ffffffffffffffffffffffffffffffffffffffff166108fc6005549081150290604051600060405180830381858888f19350505050158015610a5d573d6000803e3d6000fd5b506000600581905550610b45565b600160009054906101000a900473ffffffffffffffffffffffffffffffffffffffff1673ffffffffffffffffffffffffffffffffffffffff168173ffffffffffffffffffffffffffffffffffffffff16148015610acb5750600060045414155b15610b4457600160009054906101000a900473ffffffffffffffffffffffffffffffffffffffff1673ffffffffffffffffffffffffffffffffffffffff166108fc6004549081150290604051600060405180830381858888f19350505050158015610b3a573d6000803e3d6000fd5b5060006004819055505b5b5b5b5b610b50610df3565b50565b6000600854905090565b600a5481565b60045481565b60035481565b60085481565b60075481565b6000600160009054906101000a900473ffffffffffffffffffffffffffffffffffffffff16905090565b60095481565b6000600754905090565b6000600654905090565b60055481565b600160009054906101000a900473ffffffffffffffffffffffffffffffffffffffff1673ffffffffffffffffffffffffffffffffffffffff168173ffffffffffffffffffffffffffffffffffffffff161480610c6e5750600260009054906101000a900473ffffffffffffffffffffffffffffffffffffffff1673ffffffffffffffffffffffffffffffffffffffff168173ffffffffffffffffffffffffffffffffffffffff16145b610cad576040517f08c379a0000000000000000000000000000000000000000000000000000000008152600401610ca490611255565b60405180910390fd5b600160009054906101000a900473ffffffffffffffffffffffffffffffffffffffff1673ffffffffffffffffffffffffffffffffffffffff168173ffffffffffffffffffffffffffffffffffffffff1603610d20573460046000828254610d149190611045565b92505081905550610d3a565b3460056000828254610d329190611045565b925050819055505b3460036000828254610d4c9190611045565b925050819055508073ffffffffffffffffffffffffffffffffffffffff167f543ba50a5eec5e6178218e364b1d0f396157b3c8fa278522c2cb7fd99407d47434604051610d999190610e16565b60405180910390a250565b600260005403610de9576040517f08c379a0000000000000000000000000000000000000000000000000000000008152600401610de0906112c1565b60405180910390fd5b6002600081905550565b6001600081905550565b6000819050919050565b610e1081610dfd565b82525050565b6000602082019050610e2b6000830184610e07565b92915050565b600073ffffffffffffffffffffffffffffffffffffffff82169050919050565b6000610e5c82610e31565b9050919050565b610e6c81610e51565b82525050565b6000602082019050610e876000830184610e63565b92915050565b600080fd5b610e9b81610e51565b8114610ea657600080fd5b50565b600081359050610eb881610e92565b92915050565b600060208284031215610ed457610ed3610e8d565b5b6000610ee284828501610ea9565b91505092915050565b600082825260208201905092915050565b7f436f6e747261637420646f6e277420686176652066756e647300000000000000600082015250565b6000610f32601983610eeb565b9150610f3d82610efc565b602082019050919050565b60006020820190508181036000830152610f6181610f25565b9050919050565b7f54696d65206973206e6f74206f76657220796574000000000000000000000000600082015250565b6000610f9e601483610eeb565b9150610fa982610f68565b602082019050919050565b60006020820190508181036000830152610fcd81610f91565b9050919050565b7f4e487b7100000000000000000000000000000000000000000000000000000000600052601160045260246000fd5b600061100e82610dfd565b915061101983610dfd565b925082820261102781610dfd565b9150828204841483151761103e5761103d610fd4565b5b5092915050565b600061105082610dfd565b915061105b83610dfd565b925082820190508082111561107357611072610fd4565b5b92915050565b7f596f7520617265206e6f74207468652073656c6c657200000000000000000000600082015250565b60006110af601683610eeb565b91506110ba82611079565b602082019050919050565b600060208201905081810360008301526110de816110a2565b9050919050565b7f596f7520617265206e6f74207468652062757965720000000000000000000000600082015250565b600061111b601583610eeb565b9150611126826110e5565b602082019050919050565b6000602082019050818103600083015261114a8161110e565b9050919050565b7f4a757374206275796572206f722073656c6c65722063616e207769746864726160008201527f7700000000000000000000000000000000000000000000000000000000000000602082015250565b60006111ad602183610eeb565b91506111b882611151565b604082019050919050565b600060208201905081810360008301526111dc816111a0565b9050919050565b7f4f6e6c79207468652073656c6c6572206f722062757965722063616e2064657060008201527f6f7369742066756e647300000000000000000000000000000000000000000000602082015250565b600061123f602a83610eeb565b915061124a826111e3565b604082019050919050565b6000602082019050818103600083015261126e81611232565b9050919050565b7f5265656e7472616e637947756172643a207265656e7472616e742063616c6c00600082015250565b60006112ab601f83610eeb565b91506112b682611275565b602082019050919050565b600060208201905081810360008301526112da8161129e565b905091905056fea2646970667358221220a61291b0628872aadfabf42c13e0cdb7dbafad3a29832103efdd885c71a9750064736f6c63430008110033",
					"opcodes": "PUSH1 0x80 PUSH1 0x40 MSTORE CALLVALUE DUP1 ISZERO PUSH3 0x11 JUMPI PUSH1 0x0 DUP1 REVERT JUMPDEST POP PUSH1 0x40 MLOAD PUSH3 0x1570 CODESIZE SUB DUP1 PUSH3 0x1570 DUP4 CODECOPY DUP2 DUP2 ADD PUSH1 0x40 MSTORE DUP2 ADD SWAP1 PUSH3 0x37 SWAP2 SWAP1 PUSH3 0x196 JUMP JUMPDEST PUSH1 0x1 PUSH1 0x0 DUP2 SWAP1 SSTORE POP DUP7 PUSH1 0x1 PUSH1 0x0 PUSH2 0x100 EXP DUP2 SLOAD DUP2 PUSH20 0xFFFFFFFFFFFFFFFFFFFFFFFFFFFFFFFFFFFFFFFF MUL NOT AND SWAP1 DUP4 PUSH20 0xFFFFFFFFFFFFFFFFFFFFFFFFFFFFFFFFFFFFFFFF AND MUL OR SWAP1 SSTORE POP DUP6 PUSH1 0x2 PUSH1 0x0 PUSH2 0x100 EXP DUP2 SLOAD DUP2 PUSH20 0xFFFFFFFFFFFFFFFFFFFFFFFFFFFFFFFFFFFFFFFF MUL NOT AND SWAP1 DUP4 PUSH20 0xFFFFFFFFFFFFFFFFFFFFFFFFFFFFFFFFFFFFFFFF AND MUL OR SWAP1 SSTORE POP DUP5 PUSH1 0x6 DUP2 SWAP1 SSTORE POP DUP4 PUSH1 0x7 DUP2 SWAP1 SSTORE POP DUP3 PUSH1 0x8 DUP2 SWAP1 SSTORE POP DUP2 PUSH1 0x9 DUP2 SWAP1 SSTORE POP DUP1 PUSH1 0xA DUP2 SWAP1 SSTORE POP POP POP POP POP POP POP POP PUSH3 0x249 JUMP JUMPDEST PUSH1 0x0 DUP1 REVERT JUMPDEST PUSH1 0x0 PUSH20 0xFFFFFFFFFFFFFFFFFFFFFFFFFFFFFFFFFFFFFFFF DUP3 AND SWAP1 POP SWAP2 SWAP1 POP JUMP JUMPDEST PUSH1 0x0 PUSH3 0x123 DUP3 PUSH3 0xF6 JUMP JUMPDEST SWAP1 POP SWAP2 SWAP1 POP JUMP JUMPDEST PUSH3 0x135 DUP2 PUSH3 0x116 JUMP JUMPDEST DUP2 EQ PUSH3 0x141 JUMPI PUSH1 0x0 DUP1 REVERT JUMPDEST POP JUMP JUMPDEST PUSH1 0x0 DUP2 MLOAD SWAP1 POP PUSH3 0x155 DUP2 PUSH3 0x12A JUMP JUMPDEST SWAP3 SWAP2 POP POP JUMP JUMPDEST PUSH1 0x0 DUP2 SWAP1 POP SWAP2 SWAP1 POP JUMP JUMPDEST PUSH3 0x170 DUP2 PUSH3 0x15B JUMP JUMPDEST DUP2 EQ PUSH3 0x17C JUMPI PUSH1 0x0 DUP1 REVERT JUMPDEST POP JUMP JUMPDEST PUSH1 0x0 DUP2 MLOAD SWAP1 POP PUSH3 0x190 DUP2 PUSH3 0x165 JUMP JUMPDEST SWAP3 SWAP2 POP POP JUMP JUMPDEST PUSH1 0x0 DUP1 PUSH1 0x0 DUP1 PUSH1 0x0 DUP1 PUSH1 0x0 PUSH1 0xE0 DUP9 DUP11 SUB SLT ISZERO PUSH3 0x1B8 JUMPI PUSH3 0x1B7 PUSH3 0xF1 JUMP JUMPDEST JUMPDEST PUSH1 0x0 PUSH3 0x1C8 DUP11 DUP3 DUP12 ADD PUSH3 0x144 JUMP JUMPDEST SWAP8 POP POP PUSH1 0x20 PUSH3 0x1DB DUP11 DUP3 DUP12 ADD PUSH3 0x144 JUMP JUMPDEST SWAP7 POP POP PUSH1 0x40 PUSH3 0x1EE DUP11 DUP3 DUP12 ADD PUSH3 0x17F JUMP JUMPDEST SWAP6 POP POP PUSH1 0x60 PUSH3 0x201 DUP11 DUP3 DUP12 ADD PUSH3 0x17F JUMP JUMPDEST SWAP5 POP POP PUSH1 0x80 PUSH3 0x214 DUP11 DUP3 DUP12 ADD PUSH3 0x17F JUMP JUMPDEST SWAP4 POP POP PUSH1 0xA0 PUSH3 0x227 DUP11 DUP3 DUP12 ADD PUSH3 0x17F JUMP JUMPDEST SWAP3 POP POP PUSH1 0xC0 PUSH3 0x23A DUP11 DUP3 DUP12 ADD PUSH3 0x17F JUMP JUMPDEST SWAP2 POP POP SWAP3 SWAP6 SWAP9 SWAP2 SWAP5 SWAP8 POP SWAP3 SWAP6 POP JUMP JUMPDEST PUSH2 0x1317 DUP1 PUSH3 0x259 PUSH1 0x0 CODECOPY PUSH1 0x0 RETURN INVALID PUSH1 0x80 PUSH1 0x40 MSTORE PUSH1 0x4 CALLDATASIZE LT PUSH2 0x118 JUMPI PUSH1 0x0 CALLDATALOAD PUSH1 0xE0 SHR DUP1 PUSH4 0x867A06B3 GT PUSH2 0xA0 JUMPI DUP1 PUSH4 0xC24A0F8B GT PUSH2 0x64 JUMPI DUP1 PUSH4 0xC24A0F8B EQ PUSH2 0x436 JUMPI DUP1 PUSH4 0xD0BF21FD EQ PUSH2 0x461 JUMPI DUP1 PUSH4 0xDB292621 EQ PUSH2 0x48C JUMPI DUP1 PUSH4 0xE6CDC708 EQ PUSH2 0x4B7 JUMPI DUP1 PUSH4 0xF340FA01 EQ PUSH2 0x4E2 JUMPI PUSH2 0x184 JUMP JUMPDEST DUP1 PUSH4 0x867A06B3 EQ PUSH2 0x35F JUMPI DUP1 PUSH4 0x8B7AFE2E EQ PUSH2 0x38A JUMPI DUP1 PUSH4 0x99DC2DF3 EQ PUSH2 0x3B5 JUMPI DUP1 PUSH4 0xA7245B6E EQ PUSH2 0x3E0 JUMPI DUP1 PUSH4 0xBA12A5C5 EQ PUSH2 0x40B JUMPI PUSH2 0x184 JUMP JUMPDEST DUP1 PUSH4 0x4680DD2F GT PUSH2 0xE7 JUMPI DUP1 PUSH4 0x4680DD2F EQ PUSH2 0x297 JUMPI DUP1 PUSH4 0x4CE9E6DE EQ PUSH2 0x2C2 JUMPI DUP1 PUSH4 0x51CFF8D9 EQ PUSH2 0x2ED JUMPI DUP1 PUSH4 0x69CF1E90 EQ PUSH2 0x309 JUMPI DUP1 PUSH4 0x6D5E7A15 EQ PUSH2 0x334 JUMPI PUSH2 0x184 JUMP JUMPDEST DUP1 PUSH4 0x220E5AB3 EQ PUSH2 0x1EB JUMPI DUP1 PUSH4 0x31658E32 EQ PUSH2 0x216 JUMPI DUP1 PUSH4 0x36359265 EQ PUSH2 0x241 JUMPI DUP1 PUSH4 0x4644803F EQ PUSH2 0x26C JUMPI PUSH2 0x184 JUMP JUMPDEST CALLDATASIZE PUSH2 0x184 JUMPI CALLER PUSH20 0xFFFFFFFFFFFFFFFFFFFFFFFFFFFFFFFFFFFFFFFF AND ADDRESS PUSH20 0xFFFFFFFFFFFFFFFFFFFFFFFFFFFFFFFFFFFFFFFF AND PUSH32 0x5548C837AB068CF56A2C2479DF0882A4922FD203EDB7517321831D95078C5F62 CALLVALUE PUSH1 0x40 MLOAD PUSH2 0x17A SWAP2 SWAP1 PUSH2 0xE16 JUMP JUMPDEST PUSH1 0x40 MLOAD DUP1 SWAP2 SUB SWAP1 LOG3 STOP JUMPDEST CALLER PUSH20 0xFFFFFFFFFFFFFFFFFFFFFFFFFFFFFFFFFFFFFFFF AND ADDRESS PUSH20 0xFFFFFFFFFFFFFFFFFFFFFFFFFFFFFFFFFFFFFFFF AND PUSH32 0x5548C837AB068CF56A2C2479DF0882A4922FD203EDB7517321831D95078C5F62 CALLVALUE PUSH1 0x40 MLOAD PUSH2 0x1E1 SWAP2 SWAP1 PUSH2 0xE16 JUMP JUMPDEST PUSH1 0x40 MLOAD DUP1 SWAP2 SUB SWAP1 LOG3 STOP JUMPDEST CALLVALUE DUP1 ISZERO PUSH2 0x1F7 JUMPI PUSH1 0x0 DUP1 REVERT JUMPDEST POP PUSH2 0x200 PUSH2 0x4FE JUMP JUMPDEST PUSH1 0x40 MLOAD PUSH2 0x20D SWAP2 SWAP1 PUSH2 0xE16 JUMP JUMPDEST PUSH1 0x40 MLOAD DUP1 SWAP2 SUB SWAP1 RETURN JUMPDEST CALLVALUE DUP1 ISZERO PUSH2 0x222 JUMPI PUSH1 0x0 DUP1 REVERT JUMPDEST POP PUSH2 0x22B PUSH2 0x504 JUMP JUMPDEST PUSH1 0x40 MLOAD PUSH2 0x238 SWAP2 SWAP1 PUSH2 0xE16 JUMP JUMPDEST PUSH1 0x40 MLOAD DUP1 SWAP2 SUB SWAP1 RETURN JUMPDEST CALLVALUE DUP1 ISZERO PUSH2 0x24D JUMPI PUSH1 0x0 DUP1 REVERT JUMPDEST POP PUSH2 0x256 PUSH2 0x50E JUMP JUMPDEST PUSH1 0x40 MLOAD PUSH2 0x263 SWAP2 SWAP1 PUSH2 0xE16 JUMP JUMPDEST PUSH1 0x40 MLOAD DUP1 SWAP2 SUB SWAP1 RETURN JUMPDEST CALLVALUE DUP1 ISZERO PUSH2 0x278 JUMPI PUSH1 0x0 DUP1 REVERT JUMPDEST POP PUSH2 0x281 PUSH2 0x518 JUMP JUMPDEST PUSH1 0x40 MLOAD PUSH2 0x28E SWAP2 SWAP1 PUSH2 0xE16 JUMP JUMPDEST PUSH1 0x40 MLOAD DUP1 SWAP2 SUB SWAP1 RETURN JUMPDEST CALLVALUE DUP1 ISZERO PUSH2 0x2A3 JUMPI PUSH1 0x0 DUP1 REVERT JUMPDEST POP PUSH2 0x2AC PUSH2 0x522 JUMP JUMPDEST PUSH1 0x40 MLOAD PUSH2 0x2B9 SWAP2 SWAP1 PUSH2 0xE16 JUMP JUMPDEST PUSH1 0x40 MLOAD DUP1 SWAP2 SUB SWAP1 RETURN JUMPDEST CALLVALUE DUP1 ISZERO PUSH2 0x2CE JUMPI PUSH1 0x0 DUP1 REVERT JUMPDEST POP PUSH2 0x2D7 PUSH2 0x52C JUMP JUMPDEST PUSH1 0x40 MLOAD PUSH2 0x2E4 SWAP2 SWAP1 PUSH2 0xE72 JUMP JUMPDEST PUSH1 0x40 MLOAD DUP1 SWAP2 SUB SWAP1 RETURN JUMPDEST PUSH2 0x307 PUSH1 0x4 DUP1 CALLDATASIZE SUB DUP2 ADD SWAP1 PUSH2 0x302 SWAP2 SWAP1 PUSH2 0xEBE JUMP JUMPDEST PUSH2 0x556 JUMP JUMPDEST STOP JUMPDEST CALLVALUE DUP1 ISZERO PUSH2 0x315 JUMPI PUSH1 0x0 DUP1 REVERT JUMPDEST POP PUSH2 0x31E PUSH2 0xB53 JUMP JUMPDEST PUSH1 0x40 MLOAD PUSH2 0x32B SWAP2 SWAP1 PUSH2 0xE16 JUMP JUMPDEST PUSH1 0x40 MLOAD DUP1 SWAP2 SUB SWAP1 RETURN JUMPDEST CALLVALUE DUP1 ISZERO PUSH2 0x340 JUMPI PUSH1 0x0 DUP1 REVERT JUMPDEST POP PUSH2 0x349 PUSH2 0xB5D JUMP JUMPDEST PUSH1 0x40 MLOAD PUSH2 0x356 SWAP2 SWAP1 PUSH2 0xE16 JUMP JUMPDEST PUSH1 0x40 MLOAD DUP1 SWAP2 SUB SWAP1 RETURN JUMPDEST CALLVALUE DUP1 ISZERO PUSH2 0x36B JUMPI PUSH1 0x0 DUP1 REVERT JUMPDEST POP PUSH2 0x374 PUSH2 0xB63 JUMP JUMPDEST PUSH1 0x40 MLOAD PUSH2 0x381 SWAP2 SWAP1 PUSH2 0xE16 JUMP JUMPDEST PUSH1 0x40 MLOAD DUP1 SWAP2 SUB SWAP1 RETURN JUMPDEST CALLVALUE DUP1 ISZERO PUSH2 0x396 JUMPI PUSH1 0x0 DUP1 REVERT JUMPDEST POP PUSH2 0x39F PUSH2 0xB69 JUMP JUMPDEST PUSH1 0x40 MLOAD PUSH2 0x3AC SWAP2 SWAP1 PUSH2 0xE16 JUMP JUMPDEST PUSH1 0x40 MLOAD DUP1 SWAP2 SUB SWAP1 RETURN JUMPDEST CALLVALUE DUP1 ISZERO PUSH2 0x3C1 JUMPI PUSH1 0x0 DUP1 REVERT JUMPDEST POP PUSH2 0x3CA PUSH2 0xB6F JUMP JUMPDEST PUSH1 0x40 MLOAD PUSH2 0x3D7 SWAP2 SWAP1 PUSH2 0xE16 JUMP JUMPDEST PUSH1 0x40 MLOAD DUP1 SWAP2 SUB SWAP1 RETURN JUMPDEST CALLVALUE DUP1 ISZERO PUSH2 0x3EC JUMPI PUSH1 0x0 DUP1 REVERT JUMPDEST POP PUSH2 0x3F5 PUSH2 0xB75 JUMP JUMPDEST PUSH1 0x40 MLOAD PUSH2 0x402 SWAP2 SWAP1 PUSH2 0xE16 JUMP JUMPDEST PUSH1 0x40 MLOAD DUP1 SWAP2 SUB SWAP1 RETURN JUMPDEST CALLVALUE DUP1 ISZERO PUSH2 0x417 JUMPI PUSH1 0x0 DUP1 REVERT JUMPDEST POP PUSH2 0x420 PUSH2 0xB7B JUMP JUMPDEST PUSH1 0x40 MLOAD PUSH2 0x42D SWAP2 SWAP1 PUSH2 0xE72 JUMP JUMPDEST PUSH1 0x40 MLOAD DUP1 SWAP2 SUB SWAP1 RETURN JUMPDEST CALLVALUE DUP1 ISZERO PUSH2 0x442 JUMPI PUSH1 0x0 DUP1 REVERT JUMPDEST POP PUSH2 0x44B PUSH2 0xBA5 JUMP JUMPDEST PUSH1 0x40 MLOAD PUSH2 0x458 SWAP2 SWAP1 PUSH2 0xE16 JUMP JUMPDEST PUSH1 0x40 MLOAD DUP1 SWAP2 SUB SWAP1 RETURN JUMPDEST CALLVALUE DUP1 ISZERO PUSH2 0x46D JUMPI PUSH1 0x0 DUP1 REVERT JUMPDEST POP PUSH2 0x476 PUSH2 0xBAB JUMP JUMPDEST PUSH1 0x40 MLOAD PUSH2 0x483 SWAP2 SWAP1 PUSH2 0xE16 JUMP JUMPDEST PUSH1 0x40 MLOAD DUP1 SWAP2 SUB SWAP1 RETURN JUMPDEST CALLVALUE DUP1 ISZERO PUSH2 0x498 JUMPI PUSH1 0x0 DUP1 REVERT JUMPDEST POP PUSH2 0x4A1 PUSH2 0xBB5 JUMP JUMPDEST PUSH1 0x40 MLOAD PUSH2 0x4AE SWAP2 SWAP1 PUSH2 0xE16 JUMP JUMPDEST PUSH1 0x40 MLOAD DUP1 SWAP2 SUB SWAP1 RETURN JUMPDEST CALLVALUE DUP1 ISZERO PUSH2 0x4C3 JUMPI PUSH1 0x0 DUP1 REVERT JUMPDEST POP PUSH2 0x4CC PUSH2 0xBBF JUMP JUMPDEST PUSH1 0x40 MLOAD PUSH2 0x4D9 SWAP2 SWAP1 PUSH2 0xE16 JUMP JUMPDEST PUSH1 0x40 MLOAD DUP1 SWAP2 SUB SWAP1 RETURN JUMPDEST PUSH2 0x4FC PUSH1 0x4 DUP1 CALLDATASIZE SUB DUP2 ADD SWAP1 PUSH2 0x4F7 SWAP2 SWAP1 PUSH2 0xEBE JUMP JUMPDEST PUSH2 0xBC5 JUMP JUMPDEST STOP JUMPDEST PUSH1 0x6 SLOAD DUP2 JUMP JUMPDEST PUSH1 0x0 PUSH1 0xA SLOAD SWAP1 POP SWAP1 JUMP JUMPDEST PUSH1 0x0 PUSH1 0x9 SLOAD SWAP1 POP SWAP1 JUMP JUMPDEST PUSH1 0x0 PUSH1 0x4 SLOAD SWAP1 POP SWAP1 JUMP JUMPDEST PUSH1 0x0 PUSH1 0x5 SLOAD SWAP1 POP SWAP1 JUMP JUMPDEST PUSH1 0x0 PUSH1 0x2 PUSH1 0x0 SWAP1 SLOAD SWAP1 PUSH2 0x100 EXP SWAP1 DIV PUSH20 0xFFFFFFFFFFFFFFFFFFFFFFFFFFFFFFFFFFFFFFFF AND SWAP1 POP SWAP1 JUMP JUMPDEST PUSH2 0x55E PUSH2 0xDA4 JUMP JUMPDEST PUSH1 0x0 SELFBALANCE SUB PUSH2 0x5A1 JUMPI PUSH1 0x40 MLOAD PUSH32 0x8C379A000000000000000000000000000000000000000000000000000000000 DUP2 MSTORE PUSH1 0x4 ADD PUSH2 0x598 SWAP1 PUSH2 0xF48 JUMP JUMPDEST PUSH1 0x40 MLOAD DUP1 SWAP2 SUB SWAP1 REVERT JUMPDEST PUSH1 0x9 SLOAD TIMESTAMP LT PUSH2 0x5E5 JUMPI PUSH1 0x40 MLOAD PUSH32 0x8C379A000000000000000000000000000000000000000000000000000000000 DUP2 MSTORE PUSH1 0x4 ADD PUSH2 0x5DC SWAP1 PUSH2 0xFB4 JUMP JUMPDEST PUSH1 0x40 MLOAD DUP1 SWAP2 SUB SWAP1 REVERT JUMPDEST PUSH1 0x7 SLOAD PUSH1 0x4 SLOAD GT DUP1 ISZERO PUSH2 0x5F9 JUMPI POP PUSH1 0x9 SLOAD TIMESTAMP GT JUMPDEST DUP1 ISZERO PUSH2 0x621 JUMPI POP PUSH3 0x15180 PUSH1 0xA SLOAD PUSH2 0x611 SWAP2 SWAP1 PUSH2 0x1003 JUMP JUMPDEST PUSH1 0x9 SLOAD PUSH2 0x61E SWAP2 SWAP1 PUSH2 0x1045 JUMP JUMPDEST TIMESTAMP LT JUMPDEST ISZERO PUSH2 0x724 JUMPI DUP1 PUSH20 0xFFFFFFFFFFFFFFFFFFFFFFFFFFFFFFFFFFFFFFFF AND PUSH1 0x1 PUSH1 0x0 SWAP1 SLOAD SWAP1 PUSH2 0x100 EXP SWAP1 DIV PUSH20 0xFFFFFFFFFFFFFFFFFFFFFFFFFFFFFFFFFFFFFFFF AND PUSH20 0xFFFFFFFFFFFFFFFFFFFFFFFFFFFFFFFFFFFFFFFF AND EQ PUSH2 0x6B6 JUMPI PUSH1 0x40 MLOAD PUSH32 0x8C379A000000000000000000000000000000000000000000000000000000000 DUP2 MSTORE PUSH1 0x4 ADD PUSH2 0x6AD SWAP1 PUSH2 0x10C5 JUMP JUMPDEST PUSH1 0x40 MLOAD DUP1 SWAP2 SUB SWAP1 REVERT JUMPDEST PUSH1 0x1 PUSH1 0x0 SWAP1 SLOAD SWAP1 PUSH2 0x100 EXP SWAP1 DIV PUSH20 0xFFFFFFFFFFFFFFFFFFFFFFFFFFFFFFFFFFFFFFFF AND PUSH20 0xFFFFFFFFFFFFFFFFFFFFFFFFFFFFFFFFFFFFFFFF AND PUSH2 0x8FC SELFBALANCE SWAP1 DUP2 ISZERO MUL SWAP1 PUSH1 0x40 MLOAD PUSH1 0x0 PUSH1 0x40 MLOAD DUP1 DUP4 SUB DUP2 DUP6 DUP9 DUP9 CALL SWAP4 POP POP POP POP ISZERO DUP1 ISZERO PUSH2 0x71E JUMPI RETURNDATASIZE PUSH1 0x0 DUP1 RETURNDATACOPY RETURNDATASIZE PUSH1 0x0 REVERT JUMPDEST POP PUSH2 0xB48 JUMP JUMPDEST PUSH1 0x6 SLOAD PUSH1 0x5 SLOAD GT DUP1 ISZERO PUSH2 0x753 JUMPI POP PUSH3 0x15180 PUSH1 0xA SLOAD PUSH2 0x743 SWAP2 SWAP1 PUSH2 0x1003 JUMP JUMPDEST PUSH1 0x9 SLOAD PUSH2 0x750 SWAP2 SWAP1 PUSH2 0x1045 JUMP JUMPDEST TIMESTAMP GT JUMPDEST ISZERO PUSH2 0x856 JUMPI DUP1 PUSH20 0xFFFFFFFFFFFFFFFFFFFFFFFFFFFFFFFFFFFFFFFF AND PUSH1 0x2 PUSH1 0x0 SWAP1 SLOAD SWAP1 PUSH2 0x100 EXP SWAP1 DIV PUSH20 0xFFFFFFFFFFFFFFFFFFFFFFFFFFFFFFFFFFFFFFFF AND PUSH20 0xFFFFFFFFFFFFFFFFFFFFFFFFFFFFFFFFFFFFFFFF AND EQ PUSH2 0x7E8 JUMPI PUSH1 0x40 MLOAD PUSH32 0x8C379A000000000000000000000000000000000000000000000000000000000 DUP2 MSTORE PUSH1 0x4 ADD PUSH2 0x7DF SWAP1 PUSH2 0x1131 JUMP JUMPDEST PUSH1 0x40 MLOAD DUP1 SWAP2 SUB SWAP1 REVERT JUMPDEST PUSH1 0x2 PUSH1 0x0 SWAP1 SLOAD SWAP1 PUSH2 0x100 EXP SWAP1 DIV PUSH20 0xFFFFFFFFFFFFFFFFFFFFFFFFFFFFFFFFFFFFFFFF AND PUSH20 0xFFFFFFFFFFFFFFFFFFFFFFFFFFFFFFFFFFFFFFFF AND PUSH2 0x8FC SELFBALANCE SWAP1 DUP2 ISZERO MUL SWAP1 PUSH1 0x40 MLOAD PUSH1 0x0 PUSH1 0x40 MLOAD DUP1 DUP4 SUB DUP2 DUP6 DUP9 DUP9 CALL SWAP4 POP POP POP POP ISZERO DUP1 ISZERO PUSH2 0x850 JUMPI RETURNDATASIZE PUSH1 0x0 DUP1 RETURNDATACOPY RETURNDATASIZE PUSH1 0x0 REVERT JUMPDEST POP PUSH2 0xB47 JUMP JUMPDEST PUSH1 0x0 SELFBALANCE EQ ISZERO DUP1 ISZERO PUSH2 0x86A JUMPI POP PUSH1 0x7 SLOAD PUSH1 0x4 SLOAD LT JUMPDEST DUP1 ISZERO PUSH2 0x879 JUMPI POP PUSH1 0x8 SLOAD PUSH1 0x5 SLOAD LT JUMPDEST DUP1 ISZERO PUSH2 0x8A1 JUMPI POP PUSH3 0x15180 PUSH1 0xA SLOAD PUSH2 0x891 SWAP2 SWAP1 PUSH2 0x1003 JUMP JUMPDEST PUSH1 0x9 SLOAD PUSH2 0x89E SWAP2 SWAP1 PUSH2 0x1045 JUMP JUMPDEST TIMESTAMP GT JUMPDEST ISZERO PUSH2 0xB46 JUMPI PUSH1 0x2 PUSH1 0x0 SWAP1 SLOAD SWAP1 PUSH2 0x100 EXP SWAP1 DIV PUSH20 0xFFFFFFFFFFFFFFFFFFFFFFFFFFFFFFFFFFFFFFFF AND PUSH20 0xFFFFFFFFFFFFFFFFFFFFFFFFFFFFFFFFFFFFFFFF AND DUP2 PUSH20 0xFFFFFFFFFFFFFFFFFFFFFFFFFFFFFFFFFFFFFFFF AND EQ DUP1 PUSH2 0x94F JUMPI POP PUSH1 0x1 PUSH1 0x0 SWAP1 SLOAD SWAP1 PUSH2 0x100 EXP SWAP1 DIV PUSH20 0xFFFFFFFFFFFFFFFFFFFFFFFFFFFFFFFFFFFFFFFF AND PUSH20 0xFFFFFFFFFFFFFFFFFFFFFFFFFFFFFFFFFFFFFFFF AND DUP2 PUSH20 0xFFFFFFFFFFFFFFFFFFFFFFFFFFFFFFFFFFFFFFFF AND EQ JUMPDEST PUSH2 0x98E JUMPI PUSH1 0x40 MLOAD PUSH32 0x8C379A000000000000000000000000000000000000000000000000000000000 DUP2 MSTORE PUSH1 0x4 ADD PUSH2 0x985 SWAP1 PUSH2 0x11C3 JUMP JUMPDEST PUSH1 0x40 MLOAD DUP1 SWAP2 SUB SWAP1 REVERT JUMPDEST PUSH1 0x2 PUSH1 0x0 SWAP1 SLOAD SWAP1 PUSH2 0x100 EXP SWAP1 DIV PUSH20 0xFFFFFFFFFFFFFFFFFFFFFFFFFFFFFFFFFFFFFFFF AND PUSH20 0xFFFFFFFFFFFFFFFFFFFFFFFFFFFFFFFFFFFFFFFF AND DUP2 PUSH20 0xFFFFFFFFFFFFFFFFFFFFFFFFFFFFFFFFFFFFFFFF AND EQ DUP1 ISZERO PUSH2 0x9EE JUMPI POP PUSH1 0x0 PUSH1 0x5 SLOAD EQ ISZERO JUMPDEST ISZERO PUSH2 0xA6B JUMPI PUSH1 0x2 PUSH1 0x0 SWAP1 SLOAD SWAP1 PUSH2 0x100 EXP SWAP1 DIV PUSH20 0xFFFFFFFFFFFFFFFFFFFFFFFFFFFFFFFFFFFFFFFF AND PUSH20 0xFFFFFFFFFFFFFFFFFFFFFFFFFFFFFFFFFFFFFFFF AND PUSH2 0x8FC PUSH1 0x5 SLOAD SWAP1 DUP2 ISZERO MUL SWAP1 PUSH1 0x40 MLOAD PUSH1 0x0 PUSH1 0x40 MLOAD DUP1 DUP4 SUB DUP2 DUP6 DUP9 DUP9 CALL SWAP4 POP POP POP POP ISZERO DUP1 ISZERO PUSH2 0xA5D JUMPI RETURNDATASIZE PUSH1 0x0 DUP1 RETURNDATACOPY RETURNDATASIZE PUSH1 0x0 REVERT JUMPDEST POP PUSH1 0x0 PUSH1 0x5 DUP2 SWAP1 SSTORE POP PUSH2 0xB45 JUMP JUMPDEST PUSH1 0x1 PUSH1 0x0 SWAP1 SLOAD SWAP1 PUSH2 0x100 EXP SWAP1 DIV PUSH20 0xFFFFFFFFFFFFFFFFFFFFFFFFFFFFFFFFFFFFFFFF AND PUSH20 0xFFFFFFFFFFFFFFFFFFFFFFFFFFFFFFFFFFFFFFFF AND DUP2 PUSH20 0xFFFFFFFFFFFFFFFFFFFFFFFFFFFFFFFFFFFFFFFF AND EQ DUP1 ISZERO PUSH2 0xACB JUMPI POP PUSH1 0x0 PUSH1 0x4 SLOAD EQ ISZERO JUMPDEST ISZERO PUSH2 0xB44 JUMPI PUSH1 0x1 PUSH1 0x0 SWAP1 SLOAD SWAP1 PUSH2 0x100 EXP SWAP1 DIV PUSH20 0xFFFFFFFFFFFFFFFFFFFFFFFFFFFFFFFFFFFFFFFF AND PUSH20 0xFFFFFFFFFFFFFFFFFFFFFFFFFFFFFFFFFFFFFFFF AND PUSH2 0x8FC PUSH1 0x4 SLOAD SWAP1 DUP2 ISZERO MUL SWAP1 PUSH1 0x40 MLOAD PUSH1 0x0 PUSH1 0x40 MLOAD DUP1 DUP4 SUB DUP2 DUP6 DUP9 DUP9 CALL SWAP4 POP POP POP POP ISZERO DUP1 ISZERO PUSH2 0xB3A JUMPI RETURNDATASIZE PUSH1 0x0 DUP1 RETURNDATACOPY RETURNDATASIZE PUSH1 0x0 REVERT JUMPDEST POP PUSH1 0x0 PUSH1 0x4 DUP2 SWAP1 SSTORE POP JUMPDEST JUMPDEST JUMPDEST JUMPDEST JUMPDEST PUSH2 0xB50 PUSH2 0xDF3 JUMP JUMPDEST POP JUMP JUMPDEST PUSH1 0x0 PUSH1 0x8 SLOAD SWAP1 POP SWAP1 JUMP JUMPDEST PUSH1 0xA SLOAD DUP2 JUMP JUMPDEST PUSH1 0x4 SLOAD DUP2 JUMP JUMPDEST PUSH1 0x3 SLOAD DUP2 JUMP JUMPDEST PUSH1 0x8 SLOAD DUP2 JUMP JUMPDEST PUSH1 0x7 SLOAD DUP2 JUMP JUMPDEST PUSH1 0x0 PUSH1 0x1 PUSH1 0x0 SWAP1 SLOAD SWAP1 PUSH2 0x100 EXP SWAP1 DIV PUSH20 0xFFFFFFFFFFFFFFFFFFFFFFFFFFFFFFFFFFFFFFFF AND SWAP1 POP SWAP1 JUMP JUMPDEST PUSH1 0x9 SLOAD DUP2 JUMP JUMPDEST PUSH1 0x0 PUSH1 0x7 SLOAD SWAP1 POP SWAP1 JUMP JUMPDEST PUSH1 0x0 PUSH1 0x6 SLOAD SWAP1 POP SWAP1 JUMP JUMPDEST PUSH1 0x5 SLOAD DUP2 JUMP JUMPDEST PUSH1 0x1 PUSH1 0x0 SWAP1 SLOAD SWAP1 PUSH2 0x100 EXP SWAP1 DIV PUSH20 0xFFFFFFFFFFFFFFFFFFFFFFFFFFFFFFFFFFFFFFFF AND PUSH20 0xFFFFFFFFFFFFFFFFFFFFFFFFFFFFFFFFFFFFFFFF AND DUP2 PUSH20 0xFFFFFFFFFFFFFFFFFFFFFFFFFFFFFFFFFFFFFFFF AND EQ DUP1 PUSH2 0xC6E JUMPI POP PUSH1 0x2 PUSH1 0x0 SWAP1 SLOAD SWAP1 PUSH2 0x100 EXP SWAP1 DIV PUSH20 0xFFFFFFFFFFFFFFFFFFFFFFFFFFFFFFFFFFFFFFFF AND PUSH20 0xFFFFFFFFFFFFFFFFFFFFFFFFFFFFFFFFFFFFFFFF AND DUP2 PUSH20 0xFFFFFFFFFFFFFFFFFFFFFFFFFFFFFFFFFFFFFFFF AND EQ JUMPDEST PUSH2 0xCAD JUMPI PUSH1 0x40 MLOAD PUSH32 0x8C379A000000000000000000000000000000000000000000000000000000000 DUP2 MSTORE PUSH1 0x4 ADD PUSH2 0xCA4 SWAP1 PUSH2 0x1255 JUMP JUMPDEST PUSH1 0x40 MLOAD DUP1 SWAP2 SUB SWAP1 REVERT JUMPDEST PUSH1 0x1 PUSH1 0x0 SWAP1 SLOAD SWAP1 PUSH2 0x100 EXP SWAP1 DIV PUSH20 0xFFFFFFFFFFFFFFFFFFFFFFFFFFFFFFFFFFFFFFFF AND PUSH20 0xFFFFFFFFFFFFFFFFFFFFFFFFFFFFFFFFFFFFFFFF AND DUP2 PUSH20 0xFFFFFFFFFFFFFFFFFFFFFFFFFFFFFFFFFFFFFFFF AND SUB PUSH2 0xD20 JUMPI CALLVALUE PUSH1 0x4 PUSH1 0x0 DUP3 DUP3 SLOAD PUSH2 0xD14 SWAP2 SWAP1 PUSH2 0x1045 JUMP JUMPDEST SWAP3 POP POP DUP2 SWAP1 SSTORE POP PUSH2 0xD3A JUMP JUMPDEST CALLVALUE PUSH1 0x5 PUSH1 0x0 DUP3 DUP3 SLOAD PUSH2 0xD32 SWAP2 SWAP1 PUSH2 0x1045 JUMP JUMPDEST SWAP3 POP POP DUP2 SWAP1 SSTORE POP JUMPDEST CALLVALUE PUSH1 0x3 PUSH1 0x0 DUP3 DUP3 SLOAD PUSH2 0xD4C SWAP2 SWAP1 PUSH2 0x1045 JUMP JUMPDEST SWAP3 POP POP DUP2 SWAP1 SSTORE POP DUP1 PUSH20 0xFFFFFFFFFFFFFFFFFFFFFFFFFFFFFFFFFFFFFFFF AND PUSH32 0x543BA50A5EEC5E6178218E364B1D0F396157B3C8FA278522C2CB7FD99407D474 CALLVALUE PUSH1 0x40 MLOAD PUSH2 0xD99 SWAP2 SWAP1 PUSH2 0xE16 JUMP JUMPDEST PUSH1 0x40 MLOAD DUP1 SWAP2 SUB SWAP1 LOG2 POP JUMP JUMPDEST PUSH1 0x2 PUSH1 0x0 SLOAD SUB PUSH2 0xDE9 JUMPI PUSH1 0x40 MLOAD PUSH32 0x8C379A000000000000000000000000000000000000000000000000000000000 DUP2 MSTORE PUSH1 0x4 ADD PUSH2 0xDE0 SWAP1 PUSH2 0x12C1 JUMP JUMPDEST PUSH1 0x40 MLOAD DUP1 SWAP2 SUB SWAP1 REVERT JUMPDEST PUSH1 0x2 PUSH1 0x0 DUP2 SWAP1 SSTORE POP JUMP JUMPDEST PUSH1 0x1 PUSH1 0x0 DUP2 SWAP1 SSTORE POP JUMP JUMPDEST PUSH1 0x0 DUP2 SWAP1 POP SWAP2 SWAP1 POP JUMP JUMPDEST PUSH2 0xE10 DUP2 PUSH2 0xDFD JUMP JUMPDEST DUP3 MSTORE POP POP JUMP JUMPDEST PUSH1 0x0 PUSH1 0x20 DUP3 ADD SWAP1 POP PUSH2 0xE2B PUSH1 0x0 DUP4 ADD DUP5 PUSH2 0xE07 JUMP JUMPDEST SWAP3 SWAP2 POP POP JUMP JUMPDEST PUSH1 0x0 PUSH20 0xFFFFFFFFFFFFFFFFFFFFFFFFFFFFFFFFFFFFFFFF DUP3 AND SWAP1 POP SWAP2 SWAP1 POP JUMP JUMPDEST PUSH1 0x0 PUSH2 0xE5C DUP3 PUSH2 0xE31 JUMP JUMPDEST SWAP1 POP SWAP2 SWAP1 POP JUMP JUMPDEST PUSH2 0xE6C DUP2 PUSH2 0xE51 JUMP JUMPDEST DUP3 MSTORE POP POP JUMP JUMPDEST PUSH1 0x0 PUSH1 0x20 DUP3 ADD SWAP1 POP PUSH2 0xE87 PUSH1 0x0 DUP4 ADD DUP5 PUSH2 0xE63 JUMP JUMPDEST SWAP3 SWAP2 POP POP JUMP JUMPDEST PUSH1 0x0 DUP1 REVERT JUMPDEST PUSH2 0xE9B DUP2 PUSH2 0xE51 JUMP JUMPDEST DUP2 EQ PUSH2 0xEA6 JUMPI PUSH1 0x0 DUP1 REVERT JUMPDEST POP JUMP JUMPDEST PUSH1 0x0 DUP2 CALLDATALOAD SWAP1 POP PUSH2 0xEB8 DUP2 PUSH2 0xE92 JUMP JUMPDEST SWAP3 SWAP2 POP POP JUMP JUMPDEST PUSH1 0x0 PUSH1 0x20 DUP3 DUP5 SUB SLT ISZERO PUSH2 0xED4 JUMPI PUSH2 0xED3 PUSH2 0xE8D JUMP JUMPDEST JUMPDEST PUSH1 0x0 PUSH2 0xEE2 DUP5 DUP3 DUP6 ADD PUSH2 0xEA9 JUMP JUMPDEST SWAP2 POP POP SWAP3 SWAP2 POP POP JUMP JUMPDEST PUSH1 0x0 DUP3 DUP3 MSTORE PUSH1 0x20 DUP3 ADD SWAP1 POP SWAP3 SWAP2 POP POP JUMP JUMPDEST PUSH32 0x436F6E747261637420646F6E277420686176652066756E647300000000000000 PUSH1 0x0 DUP3 ADD MSTORE POP JUMP JUMPDEST PUSH1 0x0 PUSH2 0xF32 PUSH1 0x19 DUP4 PUSH2 0xEEB JUMP JUMPDEST SWAP2 POP PUSH2 0xF3D DUP3 PUSH2 0xEFC JUMP JUMPDEST PUSH1 0x20 DUP3 ADD SWAP1 POP SWAP2 SWAP1 POP JUMP JUMPDEST PUSH1 0x0 PUSH1 0x20 DUP3 ADD SWAP1 POP DUP2 DUP2 SUB PUSH1 0x0 DUP4 ADD MSTORE PUSH2 0xF61 DUP2 PUSH2 0xF25 JUMP JUMPDEST SWAP1 POP SWAP2 SWAP1 POP JUMP JUMPDEST PUSH32 0x54696D65206973206E6F74206F76657220796574000000000000000000000000 PUSH1 0x0 DUP3 ADD MSTORE POP JUMP JUMPDEST PUSH1 0x0 PUSH2 0xF9E PUSH1 0x14 DUP4 PUSH2 0xEEB JUMP JUMPDEST SWAP2 POP PUSH2 0xFA9 DUP3 PUSH2 0xF68 JUMP JUMPDEST PUSH1 0x20 DUP3 ADD SWAP1 POP SWAP2 SWAP1 POP JUMP JUMPDEST PUSH1 0x0 PUSH1 0x20 DUP3 ADD SWAP1 POP DUP2 DUP2 SUB PUSH1 0x0 DUP4 ADD MSTORE PUSH2 0xFCD DUP2 PUSH2 0xF91 JUMP JUMPDEST SWAP1 POP SWAP2 SWAP1 POP JUMP JUMPDEST PUSH32 0x4E487B7100000000000000000000000000000000000000000000000000000000 PUSH1 0x0 MSTORE PUSH1 0x11 PUSH1 0x4 MSTORE PUSH1 0x24 PUSH1 0x0 REVERT JUMPDEST PUSH1 0x0 PUSH2 0x100E DUP3 PUSH2 0xDFD JUMP JUMPDEST SWAP2 POP PUSH2 0x1019 DUP4 PUSH2 0xDFD JUMP JUMPDEST SWAP3 POP DUP3 DUP3 MUL PUSH2 0x1027 DUP2 PUSH2 0xDFD JUMP JUMPDEST SWAP2 POP DUP3 DUP3 DIV DUP5 EQ DUP4 ISZERO OR PUSH2 0x103E JUMPI PUSH2 0x103D PUSH2 0xFD4 JUMP JUMPDEST JUMPDEST POP SWAP3 SWAP2 POP POP JUMP JUMPDEST PUSH1 0x0 PUSH2 0x1050 DUP3 PUSH2 0xDFD JUMP JUMPDEST SWAP2 POP PUSH2 0x105B DUP4 PUSH2 0xDFD JUMP JUMPDEST SWAP3 POP DUP3 DUP3 ADD SWAP1 POP DUP1 DUP3 GT ISZERO PUSH2 0x1073 JUMPI PUSH2 0x1072 PUSH2 0xFD4 JUMP JUMPDEST JUMPDEST SWAP3 SWAP2 POP POP JUMP JUMPDEST PUSH32 0x596F7520617265206E6F74207468652073656C6C657200000000000000000000 PUSH1 0x0 DUP3 ADD MSTORE POP JUMP JUMPDEST PUSH1 0x0 PUSH2 0x10AF PUSH1 0x16 DUP4 PUSH2 0xEEB JUMP JUMPDEST SWAP2 POP PUSH2 0x10BA DUP3 PUSH2 0x1079 JUMP JUMPDEST PUSH1 0x20 DUP3 ADD SWAP1 POP SWAP2 SWAP1 POP JUMP JUMPDEST PUSH1 0x0 PUSH1 0x20 DUP3 ADD SWAP1 POP DUP2 DUP2 SUB PUSH1 0x0 DUP4 ADD MSTORE PUSH2 0x10DE DUP2 PUSH2 0x10A2 JUMP JUMPDEST SWAP1 POP SWAP2 SWAP1 POP JUMP JUMPDEST PUSH32 0x596F7520617265206E6F74207468652062757965720000000000000000000000 PUSH1 0x0 DUP3 ADD MSTORE POP JUMP JUMPDEST PUSH1 0x0 PUSH2 0x111B PUSH1 0x15 DUP4 PUSH2 0xEEB JUMP JUMPDEST SWAP2 POP PUSH2 0x1126 DUP3 PUSH2 0x10E5 JUMP JUMPDEST PUSH1 0x20 DUP3 ADD SWAP1 POP SWAP2 SWAP1 POP JUMP JUMPDEST PUSH1 0x0 PUSH1 0x20 DUP3 ADD SWAP1 POP DUP2 DUP2 SUB PUSH1 0x0 DUP4 ADD MSTORE PUSH2 0x114A DUP2 PUSH2 0x110E JUMP JUMPDEST SWAP1 POP SWAP2 SWAP1 POP JUMP JUMPDEST PUSH32 0x4A757374206275796572206F722073656C6C65722063616E2077697468647261 PUSH1 0x0 DUP3 ADD MSTORE PUSH32 0x7700000000000000000000000000000000000000000000000000000000000000 PUSH1 0x20 DUP3 ADD MSTORE POP JUMP JUMPDEST PUSH1 0x0 PUSH2 0x11AD PUSH1 0x21 DUP4 PUSH2 0xEEB JUMP JUMPDEST SWAP2 POP PUSH2 0x11B8 DUP3 PUSH2 0x1151 JUMP JUMPDEST PUSH1 0x40 DUP3 ADD SWAP1 POP SWAP2 SWAP1 POP JUMP JUMPDEST PUSH1 0x0 PUSH1 0x20 DUP3 ADD SWAP1 POP DUP2 DUP2 SUB PUSH1 0x0 DUP4 ADD MSTORE PUSH2 0x11DC DUP2 PUSH2 0x11A0 JUMP JUMPDEST SWAP1 POP SWAP2 SWAP1 POP JUMP JUMPDEST PUSH32 0x4F6E6C79207468652073656C6C6572206F722062757965722063616E20646570 PUSH1 0x0 DUP3 ADD MSTORE PUSH32 0x6F7369742066756E647300000000000000000000000000000000000000000000 PUSH1 0x20 DUP3 ADD MSTORE POP JUMP JUMPDEST PUSH1 0x0 PUSH2 0x123F PUSH1 0x2A DUP4 PUSH2 0xEEB JUMP JUMPDEST SWAP2 POP PUSH2 0x124A DUP3 PUSH2 0x11E3 JUMP JUMPDEST PUSH1 0x40 DUP3 ADD SWAP1 POP SWAP2 SWAP1 POP JUMP JUMPDEST PUSH1 0x0 PUSH1 0x20 DUP3 ADD SWAP1 POP DUP2 DUP2 SUB PUSH1 0x0 DUP4 ADD MSTORE PUSH2 0x126E DUP2 PUSH2 0x1232 JUMP JUMPDEST SWAP1 POP SWAP2 SWAP1 POP JUMP JUMPDEST PUSH32 0x5265656E7472616E637947756172643A207265656E7472616E742063616C6C00 PUSH1 0x0 DUP3 ADD MSTORE POP JUMP JUMPDEST PUSH1 0x0 PUSH2 0x12AB PUSH1 0x1F DUP4 PUSH2 0xEEB JUMP JUMPDEST SWAP2 POP PUSH2 0x12B6 DUP3 PUSH2 0x1275 JUMP JUMPDEST PUSH1 0x20 DUP3 ADD SWAP1 POP SWAP2 SWAP1 POP JUMP JUMPDEST PUSH1 0x0 PUSH1 0x20 DUP3 ADD SWAP1 POP DUP2 DUP2 SUB PUSH1 0x0 DUP4 ADD MSTORE PUSH2 0x12DA DUP2 PUSH2 0x129E JUMP JUMPDEST SWAP1 POP SWAP2 SWAP1 POP JUMP INVALID LOG2 PUSH5 0x6970667358 0x22 SLT KECCAK256 0xA6 SLT SWAP2 0xB0 PUSH3 0x8872AA 0xDF 0xAB DELEGATECALL 0x2C SGT 0xE0 0xCD 0xB7 0xDB 0xAF 0xAD GASPRICE 0x29 DUP4 0x21 SUB 0xEF 0xDD DUP9 0x5C PUSH18 0xA9750064736F6C6343000811003300000000 "
				},
				"gasEstimates": {
					"creation": {
						"codeDepositCost": "977400",
						"executionCost": "infinite",
						"totalCost": "infinite"
					},
					"external": {
						"": "2153",
						"buyerBalance()": "2517",
						"buyerPreAgreementAmount()": "2496",
						"contractBalance()": "2474",
						"daysForWithdrawal()": "2540",
						"deposit(address)": "infinite",
						"endDate()": "2451",
						"returnBuyer()": "2567",
						"returnBuyerBalance()": "2460",
						"returnBuyerPreAgreementAmount()": "2526",
						"returnDaysForWithdrawal()": "2483",
						"returnEndDate()": "2505",
						"returnSecurityDeposit()": "2503",
						"returnSeller()": "2633",
						"returnSellerBalance()": "2527",
						"returnSellerPreAgreementAmount()": "2481",
						"securityDeposit()": "2453",
						"sellerBalance()": "2452",
						"sellerPreAgreementAmount()": "2518",
						"withdraw(address)": "infinite"
					}
				},
				"methodIdentifiers": {
					"buyerBalance()": "e6cdc708",
					"buyerPreAgreementAmount()": "99dc2df3",
					"contractBalance()": "8b7afe2e",
					"daysForWithdrawal()": "6d5e7a15",
					"deposit(address)": "f340fa01",
					"endDate()": "c24a0f8b",
					"returnBuyer()": "4ce9e6de",
					"returnBuyerBalance()": "4680dd2f",
					"returnBuyerPreAgreementAmount()": "69cf1e90",
					"returnDaysForWithdrawal()": "31658e32",
					"returnEndDate()": "36359265",
					"returnSecurityDeposit()": "db292621",
					"returnSeller()": "ba12a5c5",
					"returnSellerBalance()": "4644803f",
					"returnSellerPreAgreementAmount()": "d0bf21fd",
					"securityDeposit()": "220e5ab3",
					"sellerBalance()": "867a06b3",
					"sellerPreAgreementAmount()": "a7245b6e",
					"withdraw(address)": "51cff8d9"
				}
			},
			"storageLayout": {
				"storage": [
					{
						"astId": 10,
						"contract": "contracts/ContractPool.sol:ContractPoll",
						"label": "_status",
						"offset": 0,
						"slot": "0",
						"type": "t_uint256"
					},
					{
						"astId": 60,
						"contract": "contracts/ContractPool.sol:ContractPoll",
						"label": "seller",
						"offset": 0,
						"slot": "1",
						"type": "t_address_payable"
					},
					{
						"astId": 62,
						"contract": "contracts/ContractPool.sol:ContractPoll",
						"label": "buyer",
						"offset": 0,
						"slot": "2",
						"type": "t_address_payable"
					},
					{
						"astId": 64,
						"contract": "contracts/ContractPool.sol:ContractPoll",
						"label": "contractBalance",
						"offset": 0,
						"slot": "3",
						"type": "t_uint256"
					},
					{
						"astId": 66,
						"contract": "contracts/ContractPool.sol:ContractPoll",
						"label": "sellerBalance",
						"offset": 0,
						"slot": "4",
						"type": "t_uint256"
					},
					{
						"astId": 68,
						"contract": "contracts/ContractPool.sol:ContractPoll",
						"label": "buyerBalance",
						"offset": 0,
						"slot": "5",
						"type": "t_uint256"
					},
					{
						"astId": 70,
						"contract": "contracts/ContractPool.sol:ContractPoll",
						"label": "securityDeposit",
						"offset": 0,
						"slot": "6",
						"type": "t_uint256"
					},
					{
						"astId": 72,
						"contract": "contracts/ContractPool.sol:ContractPoll",
						"label": "sellerPreAgreementAmount",
						"offset": 0,
						"slot": "7",
						"type": "t_uint256"
					},
					{
						"astId": 74,
						"contract": "contracts/ContractPool.sol:ContractPoll",
						"label": "buyerPreAgreementAmount",
						"offset": 0,
						"slot": "8",
						"type": "t_uint256"
					},
					{
						"astId": 76,
						"contract": "contracts/ContractPool.sol:ContractPoll",
						"label": "endDate",
						"offset": 0,
						"slot": "9",
						"type": "t_uint256"
					},
					{
						"astId": 78,
						"contract": "contracts/ContractPool.sol:ContractPoll",
						"label": "daysForWithdrawal",
						"offset": 0,
						"slot": "10",
						"type": "t_uint256"
					}
				],
				"types": {
					"t_address_payable": {
						"encoding": "inplace",
						"label": "address payable",
						"numberOfBytes": "20"
					},
					"t_uint256": {
						"encoding": "inplace",
						"label": "uint256",
						"numberOfBytes": "32"
					}
				}
			},
			"userdoc": {
				"kind": "user",
				"methods": {},
				"version": 1
			}
		}
	}
}