{
	"contracts/MoneyLock.sol": {
		"MoneyLock": {
			"abi": [
				{
					"inputs": [
						{
							"internalType": "address payable",
							"name": "_owner",
							"type": "address"
						},
						{
							"internalType": "address payable",
							"name": "_taker",
							"type": "address"
						},
						{
							"internalType": "uint256",
							"name": "_securityDeposit",
							"type": "uint256"
						},
						{
							"internalType": "uint256",
							"name": "_endDate",
							"type": "uint256"
						},
						{
							"internalType": "uint256",
							"name": "_daysForWithdrawal",
							"type": "uint256"
						}
					],
					"stateMutability": "nonpayable",
					"type": "constructor"
				},
				{
					"anonymous": false,
					"inputs": [
						{
							"indexed": true,
							"internalType": "address",
							"name": "contractAddress",
							"type": "address"
						},
						{
							"indexed": true,
							"internalType": "address",
							"name": "from",
							"type": "address"
						},
						{
							"indexed": false,
							"internalType": "uint256",
							"name": "amount",
							"type": "uint256"
						}
					],
					"name": "Deposit",
					"type": "event"
				},
				{
					"anonymous": false,
					"inputs": [
						{
							"indexed": true,
							"internalType": "address",
							"name": "takerDeposit",
							"type": "address"
						},
						{
							"indexed": false,
							"internalType": "uint256",
							"name": "amount",
							"type": "uint256"
						}
					],
					"name": "FundsDeposited",
					"type": "event"
				},
				{
					"stateMutability": "payable",
					"type": "fallback"
				},
				{
					"inputs": [],
					"name": "daysForWithdrawal",
					"outputs": [
						{
							"internalType": "uint256",
							"name": "",
							"type": "uint256"
						}
					],
					"stateMutability": "view",
					"type": "function"
				},
				{
					"inputs": [
						{
							"internalType": "address",
							"name": "_taker",
							"type": "address"
						}
					],
					"name": "deposit",
					"outputs": [],
					"stateMutability": "payable",
					"type": "function"
				},
				{
					"inputs": [],
					"name": "endDate",
					"outputs": [
						{
							"internalType": "uint256",
							"name": "",
							"type": "uint256"
						}
					],
					"stateMutability": "view",
					"type": "function"
				},
				{
					"inputs": [],
					"name": "returnDaysForWithdrawal",
					"outputs": [
						{
							"internalType": "uint256",
							"name": "",
							"type": "uint256"
						}
					],
					"stateMutability": "view",
					"type": "function"
				},
				{
					"inputs": [],
					"name": "returnEndDate",
					"outputs": [
						{
							"internalType": "uint256",
							"name": "",
							"type": "uint256"
						}
					],
					"stateMutability": "view",
					"type": "function"
				},
				{
					"inputs": [],
					"name": "returnOwner",
					"outputs": [
						{
							"internalType": "address",
							"name": "",
							"type": "address"
						}
					],
					"stateMutability": "view",
					"type": "function"
				},
				{
					"inputs": [],
					"name": "returnSecurityDeposit",
					"outputs": [
						{
							"internalType": "uint256",
							"name": "",
							"type": "uint256"
						}
					],
					"stateMutability": "view",
					"type": "function"
				},
				{
					"inputs": [],
					"name": "returnTaker",
					"outputs": [
						{
							"internalType": "address",
							"name": "",
							"type": "address"
						}
					],
					"stateMutability": "view",
					"type": "function"
				},
				{
					"inputs": [],
					"name": "returnTakerBalance",
					"outputs": [
						{
							"internalType": "uint256",
							"name": "",
							"type": "uint256"
						}
					],
					"stateMutability": "view",
					"type": "function"
				},
				{
					"inputs": [],
					"name": "securityDeposit",
					"outputs": [
						{
							"internalType": "uint256",
							"name": "",
							"type": "uint256"
						}
					],
					"stateMutability": "view",
					"type": "function"
				},
				{
					"inputs": [],
					"name": "takerBalance",
					"outputs": [
						{
							"internalType": "uint256",
							"name": "",
							"type": "uint256"
						}
					],
					"stateMutability": "view",
					"type": "function"
				},
				{
					"inputs": [
						{
							"internalType": "address",
							"name": "_user",
							"type": "address"
						}
					],
					"name": "withdraw",
					"outputs": [],
					"stateMutability": "payable",
					"type": "function"
				},
				{
					"stateMutability": "payable",
					"type": "receive"
				}
			],
			"devdoc": {
				"kind": "dev",
				"methods": {},
				"version": 1
			},
			"evm": {
				"assembly": "    /* \"contracts/MoneyLock.sol\":150:3562  contract MoneyLock is ReentrancyGuard {... */\n  mstore(0x40, 0x80)\n    /* \"contracts/MoneyLock.sol\":913:1475  constructor(address payable _owner, address payable _taker, uint256 _securityDeposit, uint256 _endDate, uint256 _daysForWithdrawal) {... */\n  callvalue\n  dup1\n  iszero\n  tag_1\n  jumpi\n  0x00\n  dup1\n  revert\ntag_1:\n  pop\n  mload(0x40)\n  sub(codesize, bytecodeSize)\n  dup1\n  bytecodeSize\n  dup4\n  codecopy\n  dup2\n  dup2\n  add\n  0x40\n  mstore\n  dup2\n  add\n  swap1\n  tag_2\n  swap2\n  swap1\n  tag_3\n  jump\t// in\ntag_2:\n    /* \"@openzeppelin/contracts/security/ReentrancyGuard.sol\":1716:1717  1 */\n  0x01\n    /* \"@openzeppelin/contracts/security/ReentrancyGuard.sol\":1821:1828  _status */\n  0x00\n    /* \"@openzeppelin/contracts/security/ReentrancyGuard.sol\":1821:1843  _status = _NOT_ENTERED */\n  dup2\n  swap1\n  sstore\n  pop\n    /* \"contracts/MoneyLock.sol\":1107:1113  _owner */\n  dup5\n    /* \"contracts/MoneyLock.sol\":1099:1104  owner */\n  0x01\n  0x00\n    /* \"contracts/MoneyLock.sol\":1099:1113  owner = _owner */\n  0x0100\n  exp\n  dup2\n  sload\n  dup2\n  0xffffffffffffffffffffffffffffffffffffffff\n  mul\n  not\n  and\n  swap1\n  dup4\n  0xffffffffffffffffffffffffffffffffffffffff\n  and\n  mul\n  or\n  swap1\n  sstore\n  pop\n    /* \"contracts/MoneyLock.sol\":1175:1181  _taker */\n  dup4\n    /* \"contracts/MoneyLock.sol\":1167:1172  taker */\n  0x02\n  0x00\n    /* \"contracts/MoneyLock.sol\":1167:1181  taker = _taker */\n  0x0100\n  exp\n  dup2\n  sload\n  dup2\n  0xffffffffffffffffffffffffffffffffffffffff\n  mul\n  not\n  and\n  swap1\n  dup4\n  0xffffffffffffffffffffffffffffffffffffffff\n  and\n  mul\n  or\n  swap1\n  sstore\n  pop\n    /* \"contracts/MoneyLock.sol\":1256:1272  _securityDeposit */\n  dup3\n    /* \"contracts/MoneyLock.sol\":1238:1253  securityDeposit */\n  0x03\n    /* \"contracts/MoneyLock.sol\":1238:1272  securityDeposit = _securityDeposit */\n  dup2\n  swap1\n  sstore\n  pop\n    /* \"contracts/MoneyLock.sol\":1341:1349  _endDate */\n  dup2\n    /* \"contracts/MoneyLock.sol\":1331:1338  endDate */\n  0x04\n    /* \"contracts/MoneyLock.sol\":1331:1349  endDate = _endDate */\n  dup2\n  swap1\n  sstore\n  pop\n    /* \"contracts/MoneyLock.sol\":1449:1467  _daysForWithdrawal */\n  dup1\n    /* \"contracts/MoneyLock.sol\":1429:1446  daysForWithdrawal */\n  0x05\n    /* \"contracts/MoneyLock.sol\":1429:1467  daysForWithdrawal = _daysForWithdrawal */\n  dup2\n  swap1\n  sstore\n  pop\n    /* \"contracts/MoneyLock.sol\":913:1475  constructor(address payable _owner, address payable _taker, uint256 _securityDeposit, uint256 _endDate, uint256 _daysForWithdrawal) {... */\n  pop\n  pop\n  pop\n  pop\n  pop\n    /* \"contracts/MoneyLock.sol\":150:3562  contract MoneyLock is ReentrancyGuard {... */\n  jump(tag_8)\n    /* \"#utility.yul\":88:205   */\ntag_10:\n    /* \"#utility.yul\":197:198   */\n  0x00\n    /* \"#utility.yul\":194:195   */\n  dup1\n    /* \"#utility.yul\":187:199   */\n  revert\n    /* \"#utility.yul\":334:460   */\ntag_12:\n    /* \"#utility.yul\":371:378   */\n  0x00\n    /* \"#utility.yul\":411:453   */\n  0xffffffffffffffffffffffffffffffffffffffff\n    /* \"#utility.yul\":404:409   */\n  dup3\n    /* \"#utility.yul\":400:454   */\n  and\n    /* \"#utility.yul\":389:454   */\n  swap1\n  pop\n    /* \"#utility.yul\":334:460   */\n  swap2\n  swap1\n  pop\n  jump\t// out\n    /* \"#utility.yul\":466:570   */\ntag_13:\n    /* \"#utility.yul\":511:518   */\n  0x00\n    /* \"#utility.yul\":540:564   */\n  tag_25\n    /* \"#utility.yul\":558:563   */\n  dup3\n    /* \"#utility.yul\":540:564   */\n  tag_12\n  jump\t// in\ntag_25:\n    /* \"#utility.yul\":529:564   */\n  swap1\n  pop\n    /* \"#utility.yul\":466:570   */\n  swap2\n  swap1\n  pop\n  jump\t// out\n    /* \"#utility.yul\":576:714   */\ntag_14:\n    /* \"#utility.yul\":657:689   */\n  tag_27\n    /* \"#utility.yul\":683:688   */\n  dup2\n    /* \"#utility.yul\":657:689   */\n  tag_13\n  jump\t// in\ntag_27:\n    /* \"#utility.yul\":650:655   */\n  dup2\n    /* \"#utility.yul\":647:690   */\n  eq\n    /* \"#utility.yul\":637:708   */\n  tag_28\n  jumpi\n    /* \"#utility.yul\":704:705   */\n  0x00\n    /* \"#utility.yul\":701:702   */\n  dup1\n    /* \"#utility.yul\":694:706   */\n  revert\n    /* \"#utility.yul\":637:708   */\ntag_28:\n    /* \"#utility.yul\":576:714   */\n  pop\n  jump\t// out\n    /* \"#utility.yul\":720:879   */\ntag_15:\n    /* \"#utility.yul\":785:790   */\n  0x00\n    /* \"#utility.yul\":816:822   */\n  dup2\n    /* \"#utility.yul\":810:823   */\n  mload\n    /* \"#utility.yul\":801:823   */\n  swap1\n  pop\n    /* \"#utility.yul\":832:873   */\n  tag_30\n    /* \"#utility.yul\":867:872   */\n  dup2\n    /* \"#utility.yul\":832:873   */\n  tag_14\n  jump\t// in\ntag_30:\n    /* \"#utility.yul\":720:879   */\n  swap3\n  swap2\n  pop\n  pop\n  jump\t// out\n    /* \"#utility.yul\":885:962   */\ntag_16:\n    /* \"#utility.yul\":922:929   */\n  0x00\n    /* \"#utility.yul\":951:956   */\n  dup2\n    /* \"#utility.yul\":940:956   */\n  swap1\n  pop\n    /* \"#utility.yul\":885:962   */\n  swap2\n  swap1\n  pop\n  jump\t// out\n    /* \"#utility.yul\":968:1090   */\ntag_17:\n    /* \"#utility.yul\":1041:1065   */\n  tag_33\n    /* \"#utility.yul\":1059:1064   */\n  dup2\n    /* \"#utility.yul\":1041:1065   */\n  tag_16\n  jump\t// in\ntag_33:\n    /* \"#utility.yul\":1034:1039   */\n  dup2\n    /* \"#utility.yul\":1031:1066   */\n  eq\n    /* \"#utility.yul\":1021:1084   */\n  tag_34\n  jumpi\n    /* \"#utility.yul\":1080:1081   */\n  0x00\n    /* \"#utility.yul\":1077:1078   */\n  dup1\n    /* \"#utility.yul\":1070:1082   */\n  revert\n    /* \"#utility.yul\":1021:1084   */\ntag_34:\n    /* \"#utility.yul\":968:1090   */\n  pop\n  jump\t// out\n    /* \"#utility.yul\":1096:1239   */\ntag_18:\n    /* \"#utility.yul\":1153:1158   */\n  0x00\n    /* \"#utility.yul\":1184:1190   */\n  dup2\n    /* \"#utility.yul\":1178:1191   */\n  mload\n    /* \"#utility.yul\":1169:1191   */\n  swap1\n  pop\n    /* \"#utility.yul\":1200:1233   */\n  tag_36\n    /* \"#utility.yul\":1227:1232   */\n  dup2\n    /* \"#utility.yul\":1200:1233   */\n  tag_17\n  jump\t// in\ntag_36:\n    /* \"#utility.yul\":1096:1239   */\n  swap3\n  swap2\n  pop\n  pop\n  jump\t// out\n    /* \"#utility.yul\":1245:2254   */\ntag_3:\n    /* \"#utility.yul\":1367:1373   */\n  0x00\n    /* \"#utility.yul\":1375:1381   */\n  dup1\n    /* \"#utility.yul\":1383:1389   */\n  0x00\n    /* \"#utility.yul\":1391:1397   */\n  dup1\n    /* \"#utility.yul\":1399:1405   */\n  0x00\n    /* \"#utility.yul\":1448:1451   */\n  0xa0\n    /* \"#utility.yul\":1436:1445   */\n  dup7\n    /* \"#utility.yul\":1427:1434   */\n  dup9\n    /* \"#utility.yul\":1423:1446   */\n  sub\n    /* \"#utility.yul\":1419:1452   */\n  slt\n    /* \"#utility.yul\":1416:1536   */\n  iszero\n  tag_38\n  jumpi\n    /* \"#utility.yul\":1455:1534   */\n  tag_39\n  tag_10\n  jump\t// in\ntag_39:\n    /* \"#utility.yul\":1416:1536   */\ntag_38:\n    /* \"#utility.yul\":1575:1576   */\n  0x00\n    /* \"#utility.yul\":1600:1672   */\n  tag_40\n    /* \"#utility.yul\":1664:1671   */\n  dup9\n    /* \"#utility.yul\":1655:1661   */\n  dup3\n    /* \"#utility.yul\":1644:1653   */\n  dup10\n    /* \"#utility.yul\":1640:1662   */\n  add\n    /* \"#utility.yul\":1600:1672   */\n  tag_15\n  jump\t// in\ntag_40:\n    /* \"#utility.yul\":1590:1672   */\n  swap6\n  pop\n    /* \"#utility.yul\":1546:1682   */\n  pop\n    /* \"#utility.yul\":1721:1723   */\n  0x20\n    /* \"#utility.yul\":1747:1819   */\n  tag_41\n    /* \"#utility.yul\":1811:1818   */\n  dup9\n    /* \"#utility.yul\":1802:1808   */\n  dup3\n    /* \"#utility.yul\":1791:1800   */\n  dup10\n    /* \"#utility.yul\":1787:1809   */\n  add\n    /* \"#utility.yul\":1747:1819   */\n  tag_15\n  jump\t// in\ntag_41:\n    /* \"#utility.yul\":1737:1819   */\n  swap5\n  pop\n    /* \"#utility.yul\":1692:1829   */\n  pop\n    /* \"#utility.yul\":1868:1870   */\n  0x40\n    /* \"#utility.yul\":1894:1958   */\n  tag_42\n    /* \"#utility.yul\":1950:1957   */\n  dup9\n    /* \"#utility.yul\":1941:1947   */\n  dup3\n    /* \"#utility.yul\":1930:1939   */\n  dup10\n    /* \"#utility.yul\":1926:1948   */\n  add\n    /* \"#utility.yul\":1894:1958   */\n  tag_18\n  jump\t// in\ntag_42:\n    /* \"#utility.yul\":1884:1958   */\n  swap4\n  pop\n    /* \"#utility.yul\":1839:1968   */\n  pop\n    /* \"#utility.yul\":2007:2009   */\n  0x60\n    /* \"#utility.yul\":2033:2097   */\n  tag_43\n    /* \"#utility.yul\":2089:2096   */\n  dup9\n    /* \"#utility.yul\":2080:2086   */\n  dup3\n    /* \"#utility.yul\":2069:2078   */\n  dup10\n    /* \"#utility.yul\":2065:2087   */\n  add\n    /* \"#utility.yul\":2033:2097   */\n  tag_18\n  jump\t// in\ntag_43:\n    /* \"#utility.yul\":2023:2097   */\n  swap3\n  pop\n    /* \"#utility.yul\":1978:2107   */\n  pop\n    /* \"#utility.yul\":2146:2149   */\n  0x80\n    /* \"#utility.yul\":2173:2237   */\n  tag_44\n    /* \"#utility.yul\":2229:2236   */\n  dup9\n    /* \"#utility.yul\":2220:2226   */\n  dup3\n    /* \"#utility.yul\":2209:2218   */\n  dup10\n    /* \"#utility.yul\":2205:2227   */\n  add\n    /* \"#utility.yul\":2173:2237   */\n  tag_18\n  jump\t// in\ntag_44:\n    /* \"#utility.yul\":2163:2237   */\n  swap2\n  pop\n    /* \"#utility.yul\":2117:2247   */\n  pop\n    /* \"#utility.yul\":1245:2254   */\n  swap3\n  swap6\n  pop\n  swap3\n  swap6\n  swap1\n  swap4\n  pop\n  jump\t// out\n    /* \"contracts/MoneyLock.sol\":150:3562  contract MoneyLock is ReentrancyGuard {... */\ntag_8:\n  dataSize(sub_0)\n  dup1\n  dataOffset(sub_0)\n  0x00\n  codecopy\n  0x00\n  return\nstop\n\nsub_0: assembly {\n        /* \"contracts/MoneyLock.sol\":150:3562  contract MoneyLock is ReentrancyGuard {... */\n      mstore(0x40, 0x80)\n      jumpi(tag_1, lt(calldatasize, 0x04))\n      shr(0xe0, calldataload(0x00))\n      dup1\n      0x94a927fe\n      gt\n      tag_15\n      jumpi\n      dup1\n      0x94a927fe\n      eq\n      tag_9\n      jumpi\n      dup1\n      0xa2093d81\n      eq\n      tag_10\n      jumpi\n      dup1\n      0xaee8ff45\n      eq\n      tag_11\n      jumpi\n      dup1\n      0xc24a0f8b\n      eq\n      tag_12\n      jumpi\n      dup1\n      0xdb292621\n      eq\n      tag_13\n      jumpi\n      dup1\n      0xf340fa01\n      eq\n      tag_14\n      jumpi\n      jump(tag_2)\n    tag_15:\n      dup1\n      0x220e5ab3\n      eq\n      tag_3\n      jumpi\n      dup1\n      0x31658e32\n      eq\n      tag_4\n      jumpi\n      dup1\n      0x36359265\n      eq\n      tag_5\n      jumpi\n      dup1\n      0x51cff8d9\n      eq\n      tag_6\n      jumpi\n      dup1\n      0x6d5e7a15\n      eq\n      tag_7\n      jumpi\n      dup1\n      0x83abb1d5\n      eq\n      tag_8\n      jumpi\n      jump(tag_2)\n    tag_1:\n      jumpi(tag_2, calldatasize)\n        /* \"contracts/MoneyLock.sol\":1708:1718  msg.sender */\n      caller\n        /* \"contracts/MoneyLock.sol\":1685:1730  Deposit(address(this), msg.sender, msg.value) */\n      0xffffffffffffffffffffffffffffffffffffffff\n      and\n        /* \"contracts/MoneyLock.sol\":1701:1705  this */\n      address\n        /* \"contracts/MoneyLock.sol\":1685:1730  Deposit(address(this), msg.sender, msg.value) */\n      0xffffffffffffffffffffffffffffffffffffffff\n      and\n      0x5548c837ab068cf56a2c2479df0882a4922fd203edb7517321831d95078c5f62\n        /* \"contracts/MoneyLock.sol\":1720:1729  msg.value */\n      callvalue\n        /* \"contracts/MoneyLock.sol\":1685:1730  Deposit(address(this), msg.sender, msg.value) */\n      mload(0x40)\n      tag_18\n      swap2\n      swap1\n      tag_19\n      jump\t// in\n    tag_18:\n      mload(0x40)\n      dup1\n      swap2\n      sub\n      swap1\n      log3\n        /* \"contracts/MoneyLock.sol\":150:3562  contract MoneyLock is ReentrancyGuard {... */\n      stop\n    tag_2:\n        /* \"contracts/MoneyLock.sol\":1578:1588  msg.sender */\n      caller\n        /* \"contracts/MoneyLock.sol\":1555:1600  Deposit(address(this), msg.sender, msg.value) */\n      0xffffffffffffffffffffffffffffffffffffffff\n      and\n        /* \"contracts/MoneyLock.sol\":1571:1575  this */\n      address\n        /* \"contracts/MoneyLock.sol\":1555:1600  Deposit(address(this), msg.sender, msg.value) */\n      0xffffffffffffffffffffffffffffffffffffffff\n      and\n      0x5548c837ab068cf56a2c2479df0882a4922fd203edb7517321831d95078c5f62\n        /* \"contracts/MoneyLock.sol\":1590:1599  msg.value */\n      callvalue\n        /* \"contracts/MoneyLock.sol\":1555:1600  Deposit(address(this), msg.sender, msg.value) */\n      mload(0x40)\n      tag_22\n      swap2\n      swap1\n      tag_19\n      jump\t// in\n    tag_22:\n      mload(0x40)\n      dup1\n      swap2\n      sub\n      swap1\n      log3\n        /* \"contracts/MoneyLock.sol\":150:3562  contract MoneyLock is ReentrancyGuard {... */\n      stop\n        /* \"contracts/MoneyLock.sol\":379:409  uint256 public securityDeposit */\n    tag_3:\n      callvalue\n      dup1\n      iszero\n      tag_23\n      jumpi\n      0x00\n      dup1\n      revert\n    tag_23:\n      pop\n      tag_24\n      tag_25\n      jump\t// in\n    tag_24:\n      mload(0x40)\n      tag_26\n      swap2\n      swap1\n      tag_19\n      jump\t// in\n    tag_26:\n      mload(0x40)\n      dup1\n      swap2\n      sub\n      swap1\n      return\n        /* \"contracts/MoneyLock.sol\":3454:3557  function returnDaysForWithdrawal() public view returns(uint){... */\n    tag_4:\n      callvalue\n      dup1\n      iszero\n      tag_27\n      jumpi\n      0x00\n      dup1\n      revert\n    tag_27:\n      pop\n      tag_28\n      tag_29\n      jump\t// in\n    tag_28:\n      mload(0x40)\n      tag_30\n      swap2\n      swap1\n      tag_19\n      jump\t// in\n    tag_30:\n      mload(0x40)\n      dup1\n      swap2\n      sub\n      swap1\n      return\n        /* \"contracts/MoneyLock.sol\":3363:3446  function returnEndDate() public view returns(uint){... */\n    tag_5:\n      callvalue\n      dup1\n      iszero\n      tag_31\n      jumpi\n      0x00\n      dup1\n      revert\n    tag_31:\n      pop\n      tag_32\n      tag_33\n      jump\t// in\n    tag_32:\n      mload(0x40)\n      tag_34\n      swap2\n      swap1\n      tag_19\n      jump\t// in\n    tag_34:\n      mload(0x40)\n      dup1\n      swap2\n      sub\n      swap1\n      return\n        /* \"contracts/MoneyLock.sol\":2096:2958  function withdraw(address _user) external payable nonReentrant {... */\n    tag_6:\n      tag_35\n      0x04\n      dup1\n      calldatasize\n      sub\n      dup2\n      add\n      swap1\n      tag_36\n      swap2\n      swap1\n      tag_37\n      jump\t// in\n    tag_36:\n      tag_38\n      jump\t// in\n    tag_35:\n      stop\n        /* \"contracts/MoneyLock.sol\":534:566  uint256 public daysForWithdrawal */\n    tag_7:\n      callvalue\n      dup1\n      iszero\n      tag_39\n      jumpi\n      0x00\n      dup1\n      revert\n    tag_39:\n      pop\n      tag_40\n      tag_41\n      jump\t// in\n    tag_40:\n      mload(0x40)\n      tag_42\n      swap2\n      swap1\n      tag_19\n      jump\t// in\n    tag_42:\n      mload(0x40)\n      dup1\n      swap2\n      sub\n      swap1\n      return\n        /* \"contracts/MoneyLock.sol\":594:621  uint256 public takerBalance */\n    tag_8:\n      callvalue\n      dup1\n      iszero\n      tag_43\n      jumpi\n      0x00\n      dup1\n      revert\n    tag_43:\n      pop\n      tag_44\n      tag_45\n      jump\t// in\n    tag_44:\n      mload(0x40)\n      tag_46\n      swap2\n      swap1\n      tag_19\n      jump\t// in\n    tag_46:\n      mload(0x40)\n      dup1\n      swap2\n      sub\n      swap1\n      return\n        /* \"contracts/MoneyLock.sol\":2969:3051  function returnOwner() public view returns(address){... */\n    tag_9:\n      callvalue\n      dup1\n      iszero\n      tag_47\n      jumpi\n      0x00\n      dup1\n      revert\n    tag_47:\n      pop\n      tag_48\n      tag_49\n      jump\t// in\n    tag_48:\n      mload(0x40)\n      tag_50\n      swap2\n      swap1\n      tag_51\n      jump\t// in\n    tag_50:\n      mload(0x40)\n      dup1\n      swap2\n      sub\n      swap1\n      return\n        /* \"contracts/MoneyLock.sol\":3149:3242  function returnTakerBalance() public view returns(uint){... */\n    tag_10:\n      callvalue\n      dup1\n      iszero\n      tag_52\n      jumpi\n      0x00\n      dup1\n      revert\n    tag_52:\n      pop\n      tag_53\n      tag_54\n      jump\t// in\n    tag_53:\n      mload(0x40)\n      tag_55\n      swap2\n      swap1\n      tag_19\n      jump\t// in\n    tag_55:\n      mload(0x40)\n      dup1\n      swap2\n      sub\n      swap1\n      return\n        /* \"contracts/MoneyLock.sol\":3059:3141  function returnTaker() public view returns(address){... */\n    tag_11:\n      callvalue\n      dup1\n      iszero\n      tag_56\n      jumpi\n      0x00\n      dup1\n      revert\n    tag_56:\n      pop\n      tag_57\n      tag_58\n      jump\t// in\n    tag_57:\n      mload(0x40)\n      tag_59\n      swap2\n      swap1\n      tag_51\n      jump\t// in\n    tag_59:\n      mload(0x40)\n      dup1\n      swap2\n      sub\n      swap1\n      return\n        /* \"contracts/MoneyLock.sol\":450:472  uint256 public endDate */\n    tag_12:\n      callvalue\n      dup1\n      iszero\n      tag_60\n      jumpi\n      0x00\n      dup1\n      revert\n    tag_60:\n      pop\n      tag_61\n      tag_62\n      jump\t// in\n    tag_61:\n      mload(0x40)\n      tag_63\n      swap2\n      swap1\n      tag_19\n      jump\t// in\n    tag_63:\n      mload(0x40)\n      dup1\n      swap2\n      sub\n      swap1\n      return\n        /* \"contracts/MoneyLock.sol\":3256:3355  function returnSecurityDeposit() public view returns(uint){... */\n    tag_13:\n      callvalue\n      dup1\n      iszero\n      tag_64\n      jumpi\n      0x00\n      dup1\n      revert\n    tag_64:\n      pop\n      tag_65\n      tag_66\n      jump\t// in\n    tag_65:\n      mload(0x40)\n      tag_67\n      swap2\n      swap1\n      tag_19\n      jump\t// in\n    tag_67:\n      mload(0x40)\n      dup1\n      swap2\n      sub\n      swap1\n      return\n        /* \"contracts/MoneyLock.sol\":1798:2012  function deposit(address _taker) external payable {... */\n    tag_14:\n      tag_68\n      0x04\n      dup1\n      calldatasize\n      sub\n      dup2\n      add\n      swap1\n      tag_69\n      swap2\n      swap1\n      tag_37\n      jump\t// in\n    tag_69:\n      tag_70\n      jump\t// in\n    tag_68:\n      stop\n        /* \"contracts/MoneyLock.sol\":379:409  uint256 public securityDeposit */\n    tag_25:\n      sload(0x03)\n      dup2\n      jump\t// out\n        /* \"contracts/MoneyLock.sol\":3454:3557  function returnDaysForWithdrawal() public view returns(uint){... */\n    tag_29:\n        /* \"contracts/MoneyLock.sol\":3509:3513  uint */\n      0x00\n        /* \"contracts/MoneyLock.sol\":3532:3549  daysForWithdrawal */\n      sload(0x05)\n        /* \"contracts/MoneyLock.sol\":3525:3549  return daysForWithdrawal */\n      swap1\n      pop\n        /* \"contracts/MoneyLock.sol\":3454:3557  function returnDaysForWithdrawal() public view returns(uint){... */\n      swap1\n      jump\t// out\n        /* \"contracts/MoneyLock.sol\":3363:3446  function returnEndDate() public view returns(uint){... */\n    tag_33:\n        /* \"contracts/MoneyLock.sol\":3408:3412  uint */\n      0x00\n        /* \"contracts/MoneyLock.sol\":3431:3438  endDate */\n      sload(0x04)\n        /* \"contracts/MoneyLock.sol\":3424:3438  return endDate */\n      swap1\n      pop\n        /* \"contracts/MoneyLock.sol\":3363:3446  function returnEndDate() public view returns(uint){... */\n      swap1\n      jump\t// out\n        /* \"contracts/MoneyLock.sol\":2096:2958  function withdraw(address _user) external payable nonReentrant {... */\n    tag_38:\n        /* \"@openzeppelin/contracts/security/ReentrancyGuard.sol\":2261:2282  _nonReentrantBefore() */\n      tag_74\n        /* \"@openzeppelin/contracts/security/ReentrancyGuard.sol\":2261:2280  _nonReentrantBefore */\n      tag_75\n        /* \"@openzeppelin/contracts/security/ReentrancyGuard.sol\":2261:2282  _nonReentrantBefore() */\n      jump\t// in\n    tag_74:\n        /* \"contracts/MoneyLock.sol\":2204:2205  0 */\n      0x00\n        /* \"contracts/MoneyLock.sol\":2179:2200  address(this).balance */\n      selfbalance\n        /* \"contracts/MoneyLock.sol\":2179:2205  address(this).balance != 0 */\n      sub\n        /* \"contracts/MoneyLock.sol\":2170:2235  require (address(this).balance != 0, \"Contract don't have funds\") */\n      tag_77\n      jumpi\n      mload(0x40)\n      0x08c379a000000000000000000000000000000000000000000000000000000000\n      dup2\n      mstore\n      0x04\n      add\n      tag_78\n      swap1\n      tag_79\n      jump\t// in\n    tag_78:\n      mload(0x40)\n      dup1\n      swap2\n      sub\n      swap1\n      revert\n    tag_77:\n        /* \"contracts/MoneyLock.sol\":2273:2280  endDate */\n      sload(0x04)\n        /* \"contracts/MoneyLock.sol\":2255:2270  block.timestamp */\n      timestamp\n        /* \"contracts/MoneyLock.sol\":2255:2280  block.timestamp < endDate */\n      lt\n        /* \"contracts/MoneyLock.sol\":2246:2305  require (block.timestamp < endDate, \"Time is not over yet\") */\n      tag_80\n      jumpi\n      mload(0x40)\n      0x08c379a000000000000000000000000000000000000000000000000000000000\n      dup2\n      mstore\n      0x04\n      add\n      tag_81\n      swap1\n      tag_82\n      jump\t// in\n    tag_81:\n      mload(0x40)\n      dup1\n      swap2\n      sub\n      swap1\n      revert\n    tag_80:\n        /* \"contracts/MoneyLock.sol\":2460:2467  endDate */\n      sload(0x04)\n        /* \"contracts/MoneyLock.sol\":2442:2457  block.timestamp */\n      timestamp\n        /* \"contracts/MoneyLock.sol\":2442:2467  block.timestamp > endDate */\n      gt\n        /* \"contracts/MoneyLock.sol\":2442:2527  block.timestamp > endDate && block.timestamp < endDate + (daysForWithdrawal * 1 days) */\n      dup1\n      iszero\n      tag_83\n      jumpi\n      pop\n        /* \"contracts/MoneyLock.sol\":2520:2526  1 days */\n      0x015180\n        /* \"contracts/MoneyLock.sol\":2500:2517  daysForWithdrawal */\n      sload(0x05)\n        /* \"contracts/MoneyLock.sol\":2500:2526  daysForWithdrawal * 1 days */\n      tag_84\n      swap2\n      swap1\n      tag_85\n      jump\t// in\n    tag_84:\n        /* \"contracts/MoneyLock.sol\":2489:2496  endDate */\n      sload(0x04)\n        /* \"contracts/MoneyLock.sol\":2489:2527  endDate + (daysForWithdrawal * 1 days) */\n      tag_86\n      swap2\n      swap1\n      tag_87\n      jump\t// in\n    tag_86:\n        /* \"contracts/MoneyLock.sol\":2471:2486  block.timestamp */\n      timestamp\n        /* \"contracts/MoneyLock.sol\":2471:2527  block.timestamp < endDate + (daysForWithdrawal * 1 days) */\n      lt\n        /* \"contracts/MoneyLock.sol\":2442:2527  block.timestamp > endDate && block.timestamp < endDate + (daysForWithdrawal * 1 days) */\n    tag_83:\n        /* \"contracts/MoneyLock.sol\":2438:2951  if (block.timestamp > endDate && block.timestamp < endDate + (daysForWithdrawal * 1 days)) {... */\n      iszero\n      tag_88\n      jumpi\n        /* \"contracts/MoneyLock.sol\":2562:2567  _user */\n      dup1\n        /* \"contracts/MoneyLock.sol\":2553:2567  owner == _user */\n      0xffffffffffffffffffffffffffffffffffffffff\n      and\n        /* \"contracts/MoneyLock.sol\":2553:2558  owner */\n      0x01\n      0x00\n      swap1\n      sload\n      swap1\n      0x0100\n      exp\n      swap1\n      div\n      0xffffffffffffffffffffffffffffffffffffffff\n      and\n        /* \"contracts/MoneyLock.sol\":2553:2567  owner == _user */\n      0xffffffffffffffffffffffffffffffffffffffff\n      and\n      eq\n        /* \"contracts/MoneyLock.sol\":2544:2593  require (owner == _user, \"You are not the owner\") */\n      tag_89\n      jumpi\n      mload(0x40)\n      0x08c379a000000000000000000000000000000000000000000000000000000000\n      dup2\n      mstore\n      0x04\n      add\n      tag_90\n      swap1\n      tag_91\n      jump\t// in\n    tag_90:\n      mload(0x40)\n      dup1\n      swap2\n      sub\n      swap1\n      revert\n    tag_89:\n        /* \"contracts/MoneyLock.sol\":2608:2613  owner */\n      0x01\n      0x00\n      swap1\n      sload\n      swap1\n      0x0100\n      exp\n      swap1\n      div\n      0xffffffffffffffffffffffffffffffffffffffff\n      and\n        /* \"contracts/MoneyLock.sol\":2608:2622  owner.transfer */\n      0xffffffffffffffffffffffffffffffffffffffff\n      and\n        /* \"contracts/MoneyLock.sol\":2608:2645  owner.transfer(address(this).balance) */\n      0x08fc\n        /* \"contracts/MoneyLock.sol\":2623:2644  address(this).balance */\n      selfbalance\n        /* \"contracts/MoneyLock.sol\":2608:2645  owner.transfer(address(this).balance) */\n      swap1\n      dup2\n      iszero\n      mul\n      swap1\n      mload(0x40)\n      0x00\n      mload(0x40)\n      dup1\n      dup4\n      sub\n      dup2\n      dup6\n      dup9\n      dup9\n      call\n      swap4\n      pop\n      pop\n      pop\n      pop\n      iszero\n      dup1\n      iszero\n      tag_93\n      jumpi\n      returndatasize\n      0x00\n      dup1\n      returndatacopy\n      revert(0x00, returndatasize)\n    tag_93:\n      pop\n        /* \"contracts/MoneyLock.sol\":2438:2951  if (block.timestamp > endDate && block.timestamp < endDate + (daysForWithdrawal * 1 days)) {... */\n      jump(tag_94)\n    tag_88:\n        /* \"contracts/MoneyLock.sol\":2814:2820  1 days */\n      0x015180\n        /* \"contracts/MoneyLock.sol\":2794:2811  daysForWithdrawal */\n      sload(0x05)\n        /* \"contracts/MoneyLock.sol\":2794:2820  daysForWithdrawal * 1 days */\n      tag_95\n      swap2\n      swap1\n      tag_85\n      jump\t// in\n    tag_95:\n        /* \"contracts/MoneyLock.sol\":2783:2790  endDate */\n      sload(0x04)\n        /* \"contracts/MoneyLock.sol\":2783:2821  endDate + (daysForWithdrawal * 1 days) */\n      tag_96\n      swap2\n      swap1\n      tag_87\n      jump\t// in\n    tag_96:\n        /* \"contracts/MoneyLock.sol\":2765:2780  block.timestamp */\n      timestamp\n        /* \"contracts/MoneyLock.sol\":2765:2821  block.timestamp > endDate + (daysForWithdrawal * 1 days) */\n      gt\n        /* \"contracts/MoneyLock.sol\":2760:2951  if  (block.timestamp > endDate + (daysForWithdrawal * 1 days)) {... */\n      iszero\n      tag_97\n      jumpi\n        /* \"contracts/MoneyLock.sol\":2856:2861  _user */\n      dup1\n        /* \"contracts/MoneyLock.sol\":2847:2861  taker == _user */\n      0xffffffffffffffffffffffffffffffffffffffff\n      and\n        /* \"contracts/MoneyLock.sol\":2847:2852  taker */\n      0x02\n      0x00\n      swap1\n      sload\n      swap1\n      0x0100\n      exp\n      swap1\n      div\n      0xffffffffffffffffffffffffffffffffffffffff\n      and\n        /* \"contracts/MoneyLock.sol\":2847:2861  taker == _user */\n      0xffffffffffffffffffffffffffffffffffffffff\n      and\n      eq\n        /* \"contracts/MoneyLock.sol\":2838:2887  require (taker == _user, \"You are not the taker\") */\n      tag_98\n      jumpi\n      mload(0x40)\n      0x08c379a000000000000000000000000000000000000000000000000000000000\n      dup2\n      mstore\n      0x04\n      add\n      tag_99\n      swap1\n      tag_100\n      jump\t// in\n    tag_99:\n      mload(0x40)\n      dup1\n      swap2\n      sub\n      swap1\n      revert\n    tag_98:\n        /* \"contracts/MoneyLock.sol\":2902:2907  taker */\n      0x02\n      0x00\n      swap1\n      sload\n      swap1\n      0x0100\n      exp\n      swap1\n      div\n      0xffffffffffffffffffffffffffffffffffffffff\n      and\n        /* \"contracts/MoneyLock.sol\":2902:2916  taker.transfer */\n      0xffffffffffffffffffffffffffffffffffffffff\n      and\n        /* \"contracts/MoneyLock.sol\":2902:2939  taker.transfer(address(this).balance) */\n      0x08fc\n        /* \"contracts/MoneyLock.sol\":2917:2938  address(this).balance */\n      selfbalance\n        /* \"contracts/MoneyLock.sol\":2902:2939  taker.transfer(address(this).balance) */\n      swap1\n      dup2\n      iszero\n      mul\n      swap1\n      mload(0x40)\n      0x00\n      mload(0x40)\n      dup1\n      dup4\n      sub\n      dup2\n      dup6\n      dup9\n      dup9\n      call\n      swap4\n      pop\n      pop\n      pop\n      pop\n      iszero\n      dup1\n      iszero\n      tag_102\n      jumpi\n      returndatasize\n      0x00\n      dup1\n      returndatacopy\n      revert(0x00, returndatasize)\n    tag_102:\n      pop\n        /* \"contracts/MoneyLock.sol\":2760:2951  if  (block.timestamp > endDate + (daysForWithdrawal * 1 days)) {... */\n    tag_97:\n        /* \"contracts/MoneyLock.sol\":2438:2951  if (block.timestamp > endDate && block.timestamp < endDate + (daysForWithdrawal * 1 days)) {... */\n    tag_94:\n        /* \"@openzeppelin/contracts/security/ReentrancyGuard.sol\":2303:2323  _nonReentrantAfter() */\n      tag_103\n        /* \"@openzeppelin/contracts/security/ReentrancyGuard.sol\":2303:2321  _nonReentrantAfter */\n      tag_104\n        /* \"@openzeppelin/contracts/security/ReentrancyGuard.sol\":2303:2323  _nonReentrantAfter() */\n      jump\t// in\n    tag_103:\n        /* \"contracts/MoneyLock.sol\":2096:2958  function withdraw(address _user) external payable nonReentrant {... */\n      pop\n      jump\t// out\n        /* \"contracts/MoneyLock.sol\":534:566  uint256 public daysForWithdrawal */\n    tag_41:\n      sload(0x05)\n      dup2\n      jump\t// out\n        /* \"contracts/MoneyLock.sol\":594:621  uint256 public takerBalance */\n    tag_45:\n      sload(0x06)\n      dup2\n      jump\t// out\n        /* \"contracts/MoneyLock.sol\":2969:3051  function returnOwner() public view returns(address){... */\n    tag_49:\n        /* \"contracts/MoneyLock.sol\":3012:3019  address */\n      0x00\n        /* \"contracts/MoneyLock.sol\":3038:3043  owner */\n      0x01\n      0x00\n      swap1\n      sload\n      swap1\n      0x0100\n      exp\n      swap1\n      div\n      0xffffffffffffffffffffffffffffffffffffffff\n      and\n        /* \"contracts/MoneyLock.sol\":3031:3043  return owner */\n      swap1\n      pop\n        /* \"contracts/MoneyLock.sol\":2969:3051  function returnOwner() public view returns(address){... */\n      swap1\n      jump\t// out\n        /* \"contracts/MoneyLock.sol\":3149:3242  function returnTakerBalance() public view returns(uint){... */\n    tag_54:\n        /* \"contracts/MoneyLock.sol\":3199:3203  uint */\n      0x00\n        /* \"contracts/MoneyLock.sol\":3222:3234  takerBalance */\n      sload(0x06)\n        /* \"contracts/MoneyLock.sol\":3215:3234  return takerBalance */\n      swap1\n      pop\n        /* \"contracts/MoneyLock.sol\":3149:3242  function returnTakerBalance() public view returns(uint){... */\n      swap1\n      jump\t// out\n        /* \"contracts/MoneyLock.sol\":3059:3141  function returnTaker() public view returns(address){... */\n    tag_58:\n        /* \"contracts/MoneyLock.sol\":3102:3109  address */\n      0x00\n        /* \"contracts/MoneyLock.sol\":3128:3133  taker */\n      0x02\n      0x00\n      swap1\n      sload\n      swap1\n      0x0100\n      exp\n      swap1\n      div\n      0xffffffffffffffffffffffffffffffffffffffff\n      and\n        /* \"contracts/MoneyLock.sol\":3121:3133  return taker */\n      swap1\n      pop\n        /* \"contracts/MoneyLock.sol\":3059:3141  function returnTaker() public view returns(address){... */\n      swap1\n      jump\t// out\n        /* \"contracts/MoneyLock.sol\":450:472  uint256 public endDate */\n    tag_62:\n      sload(0x04)\n      dup2\n      jump\t// out\n        /* \"contracts/MoneyLock.sol\":3256:3355  function returnSecurityDeposit() public view returns(uint){... */\n    tag_66:\n        /* \"contracts/MoneyLock.sol\":3309:3313  uint */\n      0x00\n        /* \"contracts/MoneyLock.sol\":3332:3347  securityDeposit */\n      sload(0x03)\n        /* \"contracts/MoneyLock.sol\":3325:3347  return securityDeposit */\n      swap1\n      pop\n        /* \"contracts/MoneyLock.sol\":3256:3355  function returnSecurityDeposit() public view returns(uint){... */\n      swap1\n      jump\t// out\n        /* \"contracts/MoneyLock.sol\":1798:2012  function deposit(address _taker) external payable {... */\n    tag_70:\n        /* \"contracts/MoneyLock.sol\":1877:1882  taker */\n      0x02\n      0x00\n      swap1\n      sload\n      swap1\n      0x0100\n      exp\n      swap1\n      div\n      0xffffffffffffffffffffffffffffffffffffffff\n      and\n        /* \"contracts/MoneyLock.sol\":1867:1882  _taker == taker */\n      0xffffffffffffffffffffffffffffffffffffffff\n      and\n        /* \"contracts/MoneyLock.sol\":1867:1873  _taker */\n      dup2\n        /* \"contracts/MoneyLock.sol\":1867:1882  _taker == taker */\n      0xffffffffffffffffffffffffffffffffffffffff\n      and\n      eq\n        /* \"contracts/MoneyLock.sol\":1859:1919  require(_taker == taker, \"Only the taker can deposit funds\") */\n      tag_110\n      jumpi\n      mload(0x40)\n      0x08c379a000000000000000000000000000000000000000000000000000000000\n      dup2\n      mstore\n      0x04\n      add\n      tag_111\n      swap1\n      tag_112\n      jump\t// in\n    tag_111:\n      mload(0x40)\n      dup1\n      swap2\n      sub\n      swap1\n      revert\n    tag_110:\n        /* \"contracts/MoneyLock.sol\":1946:1955  msg.value */\n      callvalue\n        /* \"contracts/MoneyLock.sol\":1930:1942  takerBalance */\n      0x06\n      0x00\n        /* \"contracts/MoneyLock.sol\":1930:1955  takerBalance += msg.value */\n      dup3\n      dup3\n      sload\n      tag_113\n      swap2\n      swap1\n      tag_87\n      jump\t// in\n    tag_113:\n      swap3\n      pop\n      pop\n      dup2\n      swap1\n      sstore\n      pop\n        /* \"contracts/MoneyLock.sol\":1986:1992  _taker */\n      dup1\n        /* \"contracts/MoneyLock.sol\":1971:2004  FundsDeposited(_taker, msg.value) */\n      0xffffffffffffffffffffffffffffffffffffffff\n      and\n      0x543ba50a5eec5e6178218e364b1d0f396157b3c8fa278522c2cb7fd99407d474\n        /* \"contracts/MoneyLock.sol\":1994:2003  msg.value */\n      callvalue\n        /* \"contracts/MoneyLock.sol\":1971:2004  FundsDeposited(_taker, msg.value) */\n      mload(0x40)\n      tag_114\n      swap2\n      swap1\n      tag_19\n      jump\t// in\n    tag_114:\n      mload(0x40)\n      dup1\n      swap2\n      sub\n      swap1\n      log2\n        /* \"contracts/MoneyLock.sol\":1798:2012  function deposit(address _taker) external payable {... */\n      pop\n      jump\t// out\n        /* \"@openzeppelin/contracts/security/ReentrancyGuard.sol\":2336:2623  function _nonReentrantBefore() private {... */\n    tag_75:\n        /* \"@openzeppelin/contracts/security/ReentrancyGuard.sol\":1759:1760  2 */\n      0x02\n        /* \"@openzeppelin/contracts/security/ReentrancyGuard.sol\":2468:2475  _status */\n      sload(0x00)\n        /* \"@openzeppelin/contracts/security/ReentrancyGuard.sol\":2468:2487  _status != _ENTERED */\n      sub\n        /* \"@openzeppelin/contracts/security/ReentrancyGuard.sol\":2460:2523  require(_status != _ENTERED, \"ReentrancyGuard: reentrant call\") */\n      tag_116\n      jumpi\n      mload(0x40)\n      0x08c379a000000000000000000000000000000000000000000000000000000000\n      dup2\n      mstore\n      0x04\n      add\n      tag_117\n      swap1\n      tag_118\n      jump\t// in\n    tag_117:\n      mload(0x40)\n      dup1\n      swap2\n      sub\n      swap1\n      revert\n    tag_116:\n        /* \"@openzeppelin/contracts/security/ReentrancyGuard.sol\":1759:1760  2 */\n      0x02\n        /* \"@openzeppelin/contracts/security/ReentrancyGuard.sol\":2598:2605  _status */\n      0x00\n        /* \"@openzeppelin/contracts/security/ReentrancyGuard.sol\":2598:2616  _status = _ENTERED */\n      dup2\n      swap1\n      sstore\n      pop\n        /* \"@openzeppelin/contracts/security/ReentrancyGuard.sol\":2336:2623  function _nonReentrantBefore() private {... */\n      jump\t// out\n        /* \"@openzeppelin/contracts/security/ReentrancyGuard.sol\":2629:2838  function _nonReentrantAfter() private {... */\n    tag_104:\n        /* \"@openzeppelin/contracts/security/ReentrancyGuard.sol\":1716:1717  1 */\n      0x01\n        /* \"@openzeppelin/contracts/security/ReentrancyGuard.sol\":2809:2816  _status */\n      0x00\n        /* \"@openzeppelin/contracts/security/ReentrancyGuard.sol\":2809:2831  _status = _NOT_ENTERED */\n      dup2\n      swap1\n      sstore\n      pop\n        /* \"@openzeppelin/contracts/security/ReentrancyGuard.sol\":2629:2838  function _nonReentrantAfter() private {... */\n      jump\t// out\n        /* \"#utility.yul\":7:84   */\n    tag_120:\n        /* \"#utility.yul\":44:51   */\n      0x00\n        /* \"#utility.yul\":73:78   */\n      dup2\n        /* \"#utility.yul\":62:78   */\n      swap1\n      pop\n        /* \"#utility.yul\":7:84   */\n      swap2\n      swap1\n      pop\n      jump\t// out\n        /* \"#utility.yul\":90:208   */\n    tag_121:\n        /* \"#utility.yul\":177:201   */\n      tag_147\n        /* \"#utility.yul\":195:200   */\n      dup2\n        /* \"#utility.yul\":177:201   */\n      tag_120\n      jump\t// in\n    tag_147:\n        /* \"#utility.yul\":172:175   */\n      dup3\n        /* \"#utility.yul\":165:202   */\n      mstore\n        /* \"#utility.yul\":90:208   */\n      pop\n      pop\n      jump\t// out\n        /* \"#utility.yul\":214:436   */\n    tag_19:\n        /* \"#utility.yul\":307:311   */\n      0x00\n        /* \"#utility.yul\":345:347   */\n      0x20\n        /* \"#utility.yul\":334:343   */\n      dup3\n        /* \"#utility.yul\":330:348   */\n      add\n        /* \"#utility.yul\":322:348   */\n      swap1\n      pop\n        /* \"#utility.yul\":358:429   */\n      tag_149\n        /* \"#utility.yul\":426:427   */\n      0x00\n        /* \"#utility.yul\":415:424   */\n      dup4\n        /* \"#utility.yul\":411:428   */\n      add\n        /* \"#utility.yul\":402:408   */\n      dup5\n        /* \"#utility.yul\":358:429   */\n      tag_121\n      jump\t// in\n    tag_149:\n        /* \"#utility.yul\":214:436   */\n      swap3\n      swap2\n      pop\n      pop\n      jump\t// out\n        /* \"#utility.yul\":523:640   */\n    tag_123:\n        /* \"#utility.yul\":632:633   */\n      0x00\n        /* \"#utility.yul\":629:630   */\n      dup1\n        /* \"#utility.yul\":622:634   */\n      revert\n        /* \"#utility.yul\":769:895   */\n    tag_125:\n        /* \"#utility.yul\":806:813   */\n      0x00\n        /* \"#utility.yul\":846:888   */\n      0xffffffffffffffffffffffffffffffffffffffff\n        /* \"#utility.yul\":839:844   */\n      dup3\n        /* \"#utility.yul\":835:889   */\n      and\n        /* \"#utility.yul\":824:889   */\n      swap1\n      pop\n        /* \"#utility.yul\":769:895   */\n      swap2\n      swap1\n      pop\n      jump\t// out\n        /* \"#utility.yul\":901:997   */\n    tag_126:\n        /* \"#utility.yul\":938:945   */\n      0x00\n        /* \"#utility.yul\":967:991   */\n      tag_155\n        /* \"#utility.yul\":985:990   */\n      dup3\n        /* \"#utility.yul\":967:991   */\n      tag_125\n      jump\t// in\n    tag_155:\n        /* \"#utility.yul\":956:991   */\n      swap1\n      pop\n        /* \"#utility.yul\":901:997   */\n      swap2\n      swap1\n      pop\n      jump\t// out\n        /* \"#utility.yul\":1003:1125   */\n    tag_127:\n        /* \"#utility.yul\":1076:1100   */\n      tag_157\n        /* \"#utility.yul\":1094:1099   */\n      dup2\n        /* \"#utility.yul\":1076:1100   */\n      tag_126\n      jump\t// in\n    tag_157:\n        /* \"#utility.yul\":1069:1074   */\n      dup2\n        /* \"#utility.yul\":1066:1101   */\n      eq\n        /* \"#utility.yul\":1056:1119   */\n      tag_158\n      jumpi\n        /* \"#utility.yul\":1115:1116   */\n      0x00\n        /* \"#utility.yul\":1112:1113   */\n      dup1\n        /* \"#utility.yul\":1105:1117   */\n      revert\n        /* \"#utility.yul\":1056:1119   */\n    tag_158:\n        /* \"#utility.yul\":1003:1125   */\n      pop\n      jump\t// out\n        /* \"#utility.yul\":1131:1270   */\n    tag_128:\n        /* \"#utility.yul\":1177:1182   */\n      0x00\n        /* \"#utility.yul\":1215:1221   */\n      dup2\n        /* \"#utility.yul\":1202:1222   */\n      calldataload\n        /* \"#utility.yul\":1193:1222   */\n      swap1\n      pop\n        /* \"#utility.yul\":1231:1264   */\n      tag_160\n        /* \"#utility.yul\":1258:1263   */\n      dup2\n        /* \"#utility.yul\":1231:1264   */\n      tag_127\n      jump\t// in\n    tag_160:\n        /* \"#utility.yul\":1131:1270   */\n      swap3\n      swap2\n      pop\n      pop\n      jump\t// out\n        /* \"#utility.yul\":1276:1605   */\n    tag_37:\n        /* \"#utility.yul\":1335:1341   */\n      0x00\n        /* \"#utility.yul\":1384:1386   */\n      0x20\n        /* \"#utility.yul\":1372:1381   */\n      dup3\n        /* \"#utility.yul\":1363:1370   */\n      dup5\n        /* \"#utility.yul\":1359:1382   */\n      sub\n        /* \"#utility.yul\":1355:1387   */\n      slt\n        /* \"#utility.yul\":1352:1471   */\n      iszero\n      tag_162\n      jumpi\n        /* \"#utility.yul\":1390:1469   */\n      tag_163\n      tag_123\n      jump\t// in\n    tag_163:\n        /* \"#utility.yul\":1352:1471   */\n    tag_162:\n        /* \"#utility.yul\":1510:1511   */\n      0x00\n        /* \"#utility.yul\":1535:1588   */\n      tag_164\n        /* \"#utility.yul\":1580:1587   */\n      dup5\n        /* \"#utility.yul\":1571:1577   */\n      dup3\n        /* \"#utility.yul\":1560:1569   */\n      dup6\n        /* \"#utility.yul\":1556:1578   */\n      add\n        /* \"#utility.yul\":1535:1588   */\n      tag_128\n      jump\t// in\n    tag_164:\n        /* \"#utility.yul\":1525:1588   */\n      swap2\n      pop\n        /* \"#utility.yul\":1481:1598   */\n      pop\n        /* \"#utility.yul\":1276:1605   */\n      swap3\n      swap2\n      pop\n      pop\n      jump\t// out\n        /* \"#utility.yul\":1611:1729   */\n    tag_129:\n        /* \"#utility.yul\":1698:1722   */\n      tag_166\n        /* \"#utility.yul\":1716:1721   */\n      dup2\n        /* \"#utility.yul\":1698:1722   */\n      tag_126\n      jump\t// in\n    tag_166:\n        /* \"#utility.yul\":1693:1696   */\n      dup3\n        /* \"#utility.yul\":1686:1723   */\n      mstore\n        /* \"#utility.yul\":1611:1729   */\n      pop\n      pop\n      jump\t// out\n        /* \"#utility.yul\":1735:1957   */\n    tag_51:\n        /* \"#utility.yul\":1828:1832   */\n      0x00\n        /* \"#utility.yul\":1866:1868   */\n      0x20\n        /* \"#utility.yul\":1855:1864   */\n      dup3\n        /* \"#utility.yul\":1851:1869   */\n      add\n        /* \"#utility.yul\":1843:1869   */\n      swap1\n      pop\n        /* \"#utility.yul\":1879:1950   */\n      tag_168\n        /* \"#utility.yul\":1947:1948   */\n      0x00\n        /* \"#utility.yul\":1936:1945   */\n      dup4\n        /* \"#utility.yul\":1932:1949   */\n      add\n        /* \"#utility.yul\":1923:1929   */\n      dup5\n        /* \"#utility.yul\":1879:1950   */\n      tag_129\n      jump\t// in\n    tag_168:\n        /* \"#utility.yul\":1735:1957   */\n      swap3\n      swap2\n      pop\n      pop\n      jump\t// out\n        /* \"#utility.yul\":1963:2132   */\n    tag_130:\n        /* \"#utility.yul\":2047:2058   */\n      0x00\n        /* \"#utility.yul\":2081:2087   */\n      dup3\n        /* \"#utility.yul\":2076:2079   */\n      dup3\n        /* \"#utility.yul\":2069:2088   */\n      mstore\n        /* \"#utility.yul\":2121:2125   */\n      0x20\n        /* \"#utility.yul\":2116:2119   */\n      dup3\n        /* \"#utility.yul\":2112:2126   */\n      add\n        /* \"#utility.yul\":2097:2126   */\n      swap1\n      pop\n        /* \"#utility.yul\":1963:2132   */\n      swap3\n      swap2\n      pop\n      pop\n      jump\t// out\n        /* \"#utility.yul\":2138:2313   */\n    tag_131:\n        /* \"#utility.yul\":2278:2305   */\n      0x436f6e747261637420646f6e277420686176652066756e647300000000000000\n        /* \"#utility.yul\":2274:2275   */\n      0x00\n        /* \"#utility.yul\":2266:2272   */\n      dup3\n        /* \"#utility.yul\":2262:2276   */\n      add\n        /* \"#utility.yul\":2255:2306   */\n      mstore\n        /* \"#utility.yul\":2138:2313   */\n      pop\n      jump\t// out\n        /* \"#utility.yul\":2319:2685   */\n    tag_132:\n        /* \"#utility.yul\":2461:2464   */\n      0x00\n        /* \"#utility.yul\":2482:2549   */\n      tag_172\n        /* \"#utility.yul\":2546:2548   */\n      0x19\n        /* \"#utility.yul\":2541:2544   */\n      dup4\n        /* \"#utility.yul\":2482:2549   */\n      tag_130\n      jump\t// in\n    tag_172:\n        /* \"#utility.yul\":2475:2549   */\n      swap2\n      pop\n        /* \"#utility.yul\":2558:2651   */\n      tag_173\n        /* \"#utility.yul\":2647:2650   */\n      dup3\n        /* \"#utility.yul\":2558:2651   */\n      tag_131\n      jump\t// in\n    tag_173:\n        /* \"#utility.yul\":2676:2678   */\n      0x20\n        /* \"#utility.yul\":2671:2674   */\n      dup3\n        /* \"#utility.yul\":2667:2679   */\n      add\n        /* \"#utility.yul\":2660:2679   */\n      swap1\n      pop\n        /* \"#utility.yul\":2319:2685   */\n      swap2\n      swap1\n      pop\n      jump\t// out\n        /* \"#utility.yul\":2691:3110   */\n    tag_79:\n        /* \"#utility.yul\":2857:2861   */\n      0x00\n        /* \"#utility.yul\":2895:2897   */\n      0x20\n        /* \"#utility.yul\":2884:2893   */\n      dup3\n        /* \"#utility.yul\":2880:2898   */\n      add\n        /* \"#utility.yul\":2872:2898   */\n      swap1\n      pop\n        /* \"#utility.yul\":2944:2953   */\n      dup2\n        /* \"#utility.yul\":2938:2942   */\n      dup2\n        /* \"#utility.yul\":2934:2954   */\n      sub\n        /* \"#utility.yul\":2930:2931   */\n      0x00\n        /* \"#utility.yul\":2919:2928   */\n      dup4\n        /* \"#utility.yul\":2915:2932   */\n      add\n        /* \"#utility.yul\":2908:2955   */\n      mstore\n        /* \"#utility.yul\":2972:3103   */\n      tag_175\n        /* \"#utility.yul\":3098:3102   */\n      dup2\n        /* \"#utility.yul\":2972:3103   */\n      tag_132\n      jump\t// in\n    tag_175:\n        /* \"#utility.yul\":2964:3103   */\n      swap1\n      pop\n        /* \"#utility.yul\":2691:3110   */\n      swap2\n      swap1\n      pop\n      jump\t// out\n        /* \"#utility.yul\":3116:3286   */\n    tag_133:\n        /* \"#utility.yul\":3256:3278   */\n      0x54696d65206973206e6f74206f76657220796574000000000000000000000000\n        /* \"#utility.yul\":3252:3253   */\n      0x00\n        /* \"#utility.yul\":3244:3250   */\n      dup3\n        /* \"#utility.yul\":3240:3254   */\n      add\n        /* \"#utility.yul\":3233:3279   */\n      mstore\n        /* \"#utility.yul\":3116:3286   */\n      pop\n      jump\t// out\n        /* \"#utility.yul\":3292:3658   */\n    tag_134:\n        /* \"#utility.yul\":3434:3437   */\n      0x00\n        /* \"#utility.yul\":3455:3522   */\n      tag_178\n        /* \"#utility.yul\":3519:3521   */\n      0x14\n        /* \"#utility.yul\":3514:3517   */\n      dup4\n        /* \"#utility.yul\":3455:3522   */\n      tag_130\n      jump\t// in\n    tag_178:\n        /* \"#utility.yul\":3448:3522   */\n      swap2\n      pop\n        /* \"#utility.yul\":3531:3624   */\n      tag_179\n        /* \"#utility.yul\":3620:3623   */\n      dup3\n        /* \"#utility.yul\":3531:3624   */\n      tag_133\n      jump\t// in\n    tag_179:\n        /* \"#utility.yul\":3649:3651   */\n      0x20\n        /* \"#utility.yul\":3644:3647   */\n      dup3\n        /* \"#utility.yul\":3640:3652   */\n      add\n        /* \"#utility.yul\":3633:3652   */\n      swap1\n      pop\n        /* \"#utility.yul\":3292:3658   */\n      swap2\n      swap1\n      pop\n      jump\t// out\n        /* \"#utility.yul\":3664:4083   */\n    tag_82:\n        /* \"#utility.yul\":3830:3834   */\n      0x00\n        /* \"#utility.yul\":3868:3870   */\n      0x20\n        /* \"#utility.yul\":3857:3866   */\n      dup3\n        /* \"#utility.yul\":3853:3871   */\n      add\n        /* \"#utility.yul\":3845:3871   */\n      swap1\n      pop\n        /* \"#utility.yul\":3917:3926   */\n      dup2\n        /* \"#utility.yul\":3911:3915   */\n      dup2\n        /* \"#utility.yul\":3907:3927   */\n      sub\n        /* \"#utility.yul\":3903:3904   */\n      0x00\n        /* \"#utility.yul\":3892:3901   */\n      dup4\n        /* \"#utility.yul\":3888:3905   */\n      add\n        /* \"#utility.yul\":3881:3928   */\n      mstore\n        /* \"#utility.yul\":3945:4076   */\n      tag_181\n        /* \"#utility.yul\":4071:4075   */\n      dup2\n        /* \"#utility.yul\":3945:4076   */\n      tag_134\n      jump\t// in\n    tag_181:\n        /* \"#utility.yul\":3937:4076   */\n      swap1\n      pop\n        /* \"#utility.yul\":3664:4083   */\n      swap2\n      swap1\n      pop\n      jump\t// out\n        /* \"#utility.yul\":4089:4269   */\n    tag_135:\n        /* \"#utility.yul\":4137:4214   */\n      0x4e487b7100000000000000000000000000000000000000000000000000000000\n        /* \"#utility.yul\":4134:4135   */\n      0x00\n        /* \"#utility.yul\":4127:4215   */\n      mstore\n        /* \"#utility.yul\":4234:4238   */\n      0x11\n        /* \"#utility.yul\":4231:4232   */\n      0x04\n        /* \"#utility.yul\":4224:4239   */\n      mstore\n        /* \"#utility.yul\":4258:4262   */\n      0x24\n        /* \"#utility.yul\":4255:4256   */\n      0x00\n        /* \"#utility.yul\":4248:4263   */\n      revert\n        /* \"#utility.yul\":4275:4685   */\n    tag_85:\n        /* \"#utility.yul\":4315:4322   */\n      0x00\n        /* \"#utility.yul\":4338:4358   */\n      tag_184\n        /* \"#utility.yul\":4356:4357   */\n      dup3\n        /* \"#utility.yul\":4338:4358   */\n      tag_120\n      jump\t// in\n    tag_184:\n        /* \"#utility.yul\":4333:4358   */\n      swap2\n      pop\n        /* \"#utility.yul\":4372:4392   */\n      tag_185\n        /* \"#utility.yul\":4390:4391   */\n      dup4\n        /* \"#utility.yul\":4372:4392   */\n      tag_120\n      jump\t// in\n    tag_185:\n        /* \"#utility.yul\":4367:4392   */\n      swap3\n      pop\n        /* \"#utility.yul\":4427:4428   */\n      dup3\n        /* \"#utility.yul\":4424:4425   */\n      dup3\n        /* \"#utility.yul\":4420:4429   */\n      mul\n        /* \"#utility.yul\":4449:4479   */\n      tag_186\n        /* \"#utility.yul\":4467:4478   */\n      dup2\n        /* \"#utility.yul\":4449:4479   */\n      tag_120\n      jump\t// in\n    tag_186:\n        /* \"#utility.yul\":4438:4479   */\n      swap2\n      pop\n        /* \"#utility.yul\":4628:4629   */\n      dup3\n        /* \"#utility.yul\":4619:4626   */\n      dup3\n        /* \"#utility.yul\":4615:4630   */\n      div\n        /* \"#utility.yul\":4612:4613   */\n      dup5\n        /* \"#utility.yul\":4609:4631   */\n      eq\n        /* \"#utility.yul\":4589:4590   */\n      dup4\n        /* \"#utility.yul\":4582:4591   */\n      iszero\n        /* \"#utility.yul\":4562:4645   */\n      or\n        /* \"#utility.yul\":4539:4678   */\n      tag_187\n      jumpi\n        /* \"#utility.yul\":4658:4676   */\n      tag_188\n      tag_135\n      jump\t// in\n    tag_188:\n        /* \"#utility.yul\":4539:4678   */\n    tag_187:\n        /* \"#utility.yul\":4323:4685   */\n      pop\n        /* \"#utility.yul\":4275:4685   */\n      swap3\n      swap2\n      pop\n      pop\n      jump\t// out\n        /* \"#utility.yul\":4691:4882   */\n    tag_87:\n        /* \"#utility.yul\":4731:4734   */\n      0x00\n        /* \"#utility.yul\":4750:4770   */\n      tag_190\n        /* \"#utility.yul\":4768:4769   */\n      dup3\n        /* \"#utility.yul\":4750:4770   */\n      tag_120\n      jump\t// in\n    tag_190:\n        /* \"#utility.yul\":4745:4770   */\n      swap2\n      pop\n        /* \"#utility.yul\":4784:4804   */\n      tag_191\n        /* \"#utility.yul\":4802:4803   */\n      dup4\n        /* \"#utility.yul\":4784:4804   */\n      tag_120\n      jump\t// in\n    tag_191:\n        /* \"#utility.yul\":4779:4804   */\n      swap3\n      pop\n        /* \"#utility.yul\":4827:4828   */\n      dup3\n        /* \"#utility.yul\":4824:4825   */\n      dup3\n        /* \"#utility.yul\":4820:4829   */\n      add\n        /* \"#utility.yul\":4813:4829   */\n      swap1\n      pop\n        /* \"#utility.yul\":4848:4851   */\n      dup1\n        /* \"#utility.yul\":4845:4846   */\n      dup3\n        /* \"#utility.yul\":4842:4852   */\n      gt\n        /* \"#utility.yul\":4839:4875   */\n      iszero\n      tag_192\n      jumpi\n        /* \"#utility.yul\":4855:4873   */\n      tag_193\n      tag_135\n      jump\t// in\n    tag_193:\n        /* \"#utility.yul\":4839:4875   */\n    tag_192:\n        /* \"#utility.yul\":4691:4882   */\n      swap3\n      swap2\n      pop\n      pop\n      jump\t// out\n        /* \"#utility.yul\":4888:5059   */\n    tag_136:\n        /* \"#utility.yul\":5028:5051   */\n      0x596f7520617265206e6f7420746865206f776e65720000000000000000000000\n        /* \"#utility.yul\":5024:5025   */\n      0x00\n        /* \"#utility.yul\":5016:5022   */\n      dup3\n        /* \"#utility.yul\":5012:5026   */\n      add\n        /* \"#utility.yul\":5005:5052   */\n      mstore\n        /* \"#utility.yul\":4888:5059   */\n      pop\n      jump\t// out\n        /* \"#utility.yul\":5065:5431   */\n    tag_137:\n        /* \"#utility.yul\":5207:5210   */\n      0x00\n        /* \"#utility.yul\":5228:5295   */\n      tag_196\n        /* \"#utility.yul\":5292:5294   */\n      0x15\n        /* \"#utility.yul\":5287:5290   */\n      dup4\n        /* \"#utility.yul\":5228:5295   */\n      tag_130\n      jump\t// in\n    tag_196:\n        /* \"#utility.yul\":5221:5295   */\n      swap2\n      pop\n        /* \"#utility.yul\":5304:5397   */\n      tag_197\n        /* \"#utility.yul\":5393:5396   */\n      dup3\n        /* \"#utility.yul\":5304:5397   */\n      tag_136\n      jump\t// in\n    tag_197:\n        /* \"#utility.yul\":5422:5424   */\n      0x20\n        /* \"#utility.yul\":5417:5420   */\n      dup3\n        /* \"#utility.yul\":5413:5425   */\n      add\n        /* \"#utility.yul\":5406:5425   */\n      swap1\n      pop\n        /* \"#utility.yul\":5065:5431   */\n      swap2\n      swap1\n      pop\n      jump\t// out\n        /* \"#utility.yul\":5437:5856   */\n    tag_91:\n        /* \"#utility.yul\":5603:5607   */\n      0x00\n        /* \"#utility.yul\":5641:5643   */\n      0x20\n        /* \"#utility.yul\":5630:5639   */\n      dup3\n        /* \"#utility.yul\":5626:5644   */\n      add\n        /* \"#utility.yul\":5618:5644   */\n      swap1\n      pop\n        /* \"#utility.yul\":5690:5699   */\n      dup2\n        /* \"#utility.yul\":5684:5688   */\n      dup2\n        /* \"#utility.yul\":5680:5700   */\n      sub\n        /* \"#utility.yul\":5676:5677   */\n      0x00\n        /* \"#utility.yul\":5665:5674   */\n      dup4\n        /* \"#utility.yul\":5661:5678   */\n      add\n        /* \"#utility.yul\":5654:5701   */\n      mstore\n        /* \"#utility.yul\":5718:5849   */\n      tag_199\n        /* \"#utility.yul\":5844:5848   */\n      dup2\n        /* \"#utility.yul\":5718:5849   */\n      tag_137\n      jump\t// in\n    tag_199:\n        /* \"#utility.yul\":5710:5849   */\n      swap1\n      pop\n        /* \"#utility.yul\":5437:5856   */\n      swap2\n      swap1\n      pop\n      jump\t// out\n        /* \"#utility.yul\":5862:6033   */\n    tag_138:\n        /* \"#utility.yul\":6002:6025   */\n      0x596f7520617265206e6f74207468652074616b65720000000000000000000000\n        /* \"#utility.yul\":5998:5999   */\n      0x00\n        /* \"#utility.yul\":5990:5996   */\n      dup3\n        /* \"#utility.yul\":5986:6000   */\n      add\n        /* \"#utility.yul\":5979:6026   */\n      mstore\n        /* \"#utility.yul\":5862:6033   */\n      pop\n      jump\t// out\n        /* \"#utility.yul\":6039:6405   */\n    tag_139:\n        /* \"#utility.yul\":6181:6184   */\n      0x00\n        /* \"#utility.yul\":6202:6269   */\n      tag_202\n        /* \"#utility.yul\":6266:6268   */\n      0x15\n        /* \"#utility.yul\":6261:6264   */\n      dup4\n        /* \"#utility.yul\":6202:6269   */\n      tag_130\n      jump\t// in\n    tag_202:\n        /* \"#utility.yul\":6195:6269   */\n      swap2\n      pop\n        /* \"#utility.yul\":6278:6371   */\n      tag_203\n        /* \"#utility.yul\":6367:6370   */\n      dup3\n        /* \"#utility.yul\":6278:6371   */\n      tag_138\n      jump\t// in\n    tag_203:\n        /* \"#utility.yul\":6396:6398   */\n      0x20\n        /* \"#utility.yul\":6391:6394   */\n      dup3\n        /* \"#utility.yul\":6387:6399   */\n      add\n        /* \"#utility.yul\":6380:6399   */\n      swap1\n      pop\n        /* \"#utility.yul\":6039:6405   */\n      swap2\n      swap1\n      pop\n      jump\t// out\n        /* \"#utility.yul\":6411:6830   */\n    tag_100:\n        /* \"#utility.yul\":6577:6581   */\n      0x00\n        /* \"#utility.yul\":6615:6617   */\n      0x20\n        /* \"#utility.yul\":6604:6613   */\n      dup3\n        /* \"#utility.yul\":6600:6618   */\n      add\n        /* \"#utility.yul\":6592:6618   */\n      swap1\n      pop\n        /* \"#utility.yul\":6664:6673   */\n      dup2\n        /* \"#utility.yul\":6658:6662   */\n      dup2\n        /* \"#utility.yul\":6654:6674   */\n      sub\n        /* \"#utility.yul\":6650:6651   */\n      0x00\n        /* \"#utility.yul\":6639:6648   */\n      dup4\n        /* \"#utility.yul\":6635:6652   */\n      add\n        /* \"#utility.yul\":6628:6675   */\n      mstore\n        /* \"#utility.yul\":6692:6823   */\n      tag_205\n        /* \"#utility.yul\":6818:6822   */\n      dup2\n        /* \"#utility.yul\":6692:6823   */\n      tag_139\n      jump\t// in\n    tag_205:\n        /* \"#utility.yul\":6684:6823   */\n      swap1\n      pop\n        /* \"#utility.yul\":6411:6830   */\n      swap2\n      swap1\n      pop\n      jump\t// out\n        /* \"#utility.yul\":6836:7018   */\n    tag_140:\n        /* \"#utility.yul\":6976:7010   */\n      0x4f6e6c79207468652074616b65722063616e206465706f7369742066756e6473\n        /* \"#utility.yul\":6972:6973   */\n      0x00\n        /* \"#utility.yul\":6964:6970   */\n      dup3\n        /* \"#utility.yul\":6960:6974   */\n      add\n        /* \"#utility.yul\":6953:7011   */\n      mstore\n        /* \"#utility.yul\":6836:7018   */\n      pop\n      jump\t// out\n        /* \"#utility.yul\":7024:7390   */\n    tag_141:\n        /* \"#utility.yul\":7166:7169   */\n      0x00\n        /* \"#utility.yul\":7187:7254   */\n      tag_208\n        /* \"#utility.yul\":7251:7253   */\n      0x20\n        /* \"#utility.yul\":7246:7249   */\n      dup4\n        /* \"#utility.yul\":7187:7254   */\n      tag_130\n      jump\t// in\n    tag_208:\n        /* \"#utility.yul\":7180:7254   */\n      swap2\n      pop\n        /* \"#utility.yul\":7263:7356   */\n      tag_209\n        /* \"#utility.yul\":7352:7355   */\n      dup3\n        /* \"#utility.yul\":7263:7356   */\n      tag_140\n      jump\t// in\n    tag_209:\n        /* \"#utility.yul\":7381:7383   */\n      0x20\n        /* \"#utility.yul\":7376:7379   */\n      dup3\n        /* \"#utility.yul\":7372:7384   */\n      add\n        /* \"#utility.yul\":7365:7384   */\n      swap1\n      pop\n        /* \"#utility.yul\":7024:7390   */\n      swap2\n      swap1\n      pop\n      jump\t// out\n        /* \"#utility.yul\":7396:7815   */\n    tag_112:\n        /* \"#utility.yul\":7562:7566   */\n      0x00\n        /* \"#utility.yul\":7600:7602   */\n      0x20\n        /* \"#utility.yul\":7589:7598   */\n      dup3\n        /* \"#utility.yul\":7585:7603   */\n      add\n        /* \"#utility.yul\":7577:7603   */\n      swap1\n      pop\n        /* \"#utility.yul\":7649:7658   */\n      dup2\n        /* \"#utility.yul\":7643:7647   */\n      dup2\n        /* \"#utility.yul\":7639:7659   */\n      sub\n        /* \"#utility.yul\":7635:7636   */\n      0x00\n        /* \"#utility.yul\":7624:7633   */\n      dup4\n        /* \"#utility.yul\":7620:7637   */\n      add\n        /* \"#utility.yul\":7613:7660   */\n      mstore\n        /* \"#utility.yul\":7677:7808   */\n      tag_211\n        /* \"#utility.yul\":7803:7807   */\n      dup2\n        /* \"#utility.yul\":7677:7808   */\n      tag_141\n      jump\t// in\n    tag_211:\n        /* \"#utility.yul\":7669:7808   */\n      swap1\n      pop\n        /* \"#utility.yul\":7396:7815   */\n      swap2\n      swap1\n      pop\n      jump\t// out\n        /* \"#utility.yul\":7821:8002   */\n    tag_142:\n        /* \"#utility.yul\":7961:7994   */\n      0x5265656e7472616e637947756172643a207265656e7472616e742063616c6c00\n        /* \"#utility.yul\":7957:7958   */\n      0x00\n        /* \"#utility.yul\":7949:7955   */\n      dup3\n        /* \"#utility.yul\":7945:7959   */\n      add\n        /* \"#utility.yul\":7938:7995   */\n      mstore\n        /* \"#utility.yul\":7821:8002   */\n      pop\n      jump\t// out\n        /* \"#utility.yul\":8008:8374   */\n    tag_143:\n        /* \"#utility.yul\":8150:8153   */\n      0x00\n        /* \"#utility.yul\":8171:8238   */\n      tag_214\n        /* \"#utility.yul\":8235:8237   */\n      0x1f\n        /* \"#utility.yul\":8230:8233   */\n      dup4\n        /* \"#utility.yul\":8171:8238   */\n      tag_130\n      jump\t// in\n    tag_214:\n        /* \"#utility.yul\":8164:8238   */\n      swap2\n      pop\n        /* \"#utility.yul\":8247:8340   */\n      tag_215\n        /* \"#utility.yul\":8336:8339   */\n      dup3\n        /* \"#utility.yul\":8247:8340   */\n      tag_142\n      jump\t// in\n    tag_215:\n        /* \"#utility.yul\":8365:8367   */\n      0x20\n        /* \"#utility.yul\":8360:8363   */\n      dup3\n        /* \"#utility.yul\":8356:8368   */\n      add\n        /* \"#utility.yul\":8349:8368   */\n      swap1\n      pop\n        /* \"#utility.yul\":8008:8374   */\n      swap2\n      swap1\n      pop\n      jump\t// out\n        /* \"#utility.yul\":8380:8799   */\n    tag_118:\n        /* \"#utility.yul\":8546:8550   */\n      0x00\n        /* \"#utility.yul\":8584:8586   */\n      0x20\n        /* \"#utility.yul\":8573:8582   */\n      dup3\n        /* \"#utility.yul\":8569:8587   */\n      add\n        /* \"#utility.yul\":8561:8587   */\n      swap1\n      pop\n        /* \"#utility.yul\":8633:8642   */\n      dup2\n        /* \"#utility.yul\":8627:8631   */\n      dup2\n        /* \"#utility.yul\":8623:8643   */\n      sub\n        /* \"#utility.yul\":8619:8620   */\n      0x00\n        /* \"#utility.yul\":8608:8617   */\n      dup4\n        /* \"#utility.yul\":8604:8621   */\n      add\n        /* \"#utility.yul\":8597:8644   */\n      mstore\n        /* \"#utility.yul\":8661:8792   */\n      tag_217\n        /* \"#utility.yul\":8787:8791   */\n      dup2\n        /* \"#utility.yul\":8661:8792   */\n      tag_143\n      jump\t// in\n    tag_217:\n        /* \"#utility.yul\":8653:8792   */\n      swap1\n      pop\n        /* \"#utility.yul\":8380:8799   */\n      swap2\n      swap1\n      pop\n      jump\t// out\n\n    auxdata: 0xa2646970667358221220c636b55d10c284c3c40aba93d80e44fdd712365a5e099d8dbaffae13b4fa4cbd64736f6c63430008110033\n}\n",
				"bytecode": {
					"linkReferences": {},
					"object": "60806040523480156200001157600080fd5b5060405162000eb538038062000eb5833981810160405281019062000037919062000186565b600160008190555084600160006101000a81548173ffffffffffffffffffffffffffffffffffffffff021916908373ffffffffffffffffffffffffffffffffffffffff16021790555083600260006101000a81548173ffffffffffffffffffffffffffffffffffffffff021916908373ffffffffffffffffffffffffffffffffffffffff16021790555082600381905550816004819055508060058190555050505050506200020e565b600080fd5b600073ffffffffffffffffffffffffffffffffffffffff82169050919050565b60006200011382620000e6565b9050919050565b620001258162000106565b81146200013157600080fd5b50565b60008151905062000145816200011a565b92915050565b6000819050919050565b62000160816200014b565b81146200016c57600080fd5b50565b600081519050620001808162000155565b92915050565b600080600080600060a08688031215620001a557620001a4620000e1565b5b6000620001b58882890162000134565b9550506020620001c88882890162000134565b9450506040620001db888289016200016f565b9350506060620001ee888289016200016f565b925050608062000201888289016200016f565b9150509295509295909350565b610c97806200021e6000396000f3fe6080604052600436106100ab5760003560e01c806394a927fe1161006457806394a927fe14610271578063a2093d811461029c578063aee8ff45146102c7578063c24a0f8b146102f2578063db2926211461031d578063f340fa011461034857610117565b8063220e5ab31461017e57806331658e32146101a957806336359265146101d457806351cff8d9146101ff5780636d5e7a151461021b57806383abb1d51461024657610117565b36610117573373ffffffffffffffffffffffffffffffffffffffff163073ffffffffffffffffffffffffffffffffffffffff167f5548c837ab068cf56a2c2479df0882a4922fd203edb7517321831d95078c5f623460405161010d919061084e565b60405180910390a3005b3373ffffffffffffffffffffffffffffffffffffffff163073ffffffffffffffffffffffffffffffffffffffff167f5548c837ab068cf56a2c2479df0882a4922fd203edb7517321831d95078c5f6234604051610174919061084e565b60405180910390a3005b34801561018a57600080fd5b50610193610364565b6040516101a0919061084e565b60405180910390f35b3480156101b557600080fd5b506101be61036a565b6040516101cb919061084e565b60405180910390f35b3480156101e057600080fd5b506101e9610374565b6040516101f6919061084e565b60405180910390f35b610219600480360381019061021491906108cc565b61037e565b005b34801561022757600080fd5b50610230610668565b60405161023d919061084e565b60405180910390f35b34801561025257600080fd5b5061025b61066e565b604051610268919061084e565b60405180910390f35b34801561027d57600080fd5b50610286610674565b6040516102939190610908565b60405180910390f35b3480156102a857600080fd5b506102b161069e565b6040516102be919061084e565b60405180910390f35b3480156102d357600080fd5b506102dc6106a8565b6040516102e99190610908565b60405180910390f35b3480156102fe57600080fd5b506103076106d2565b604051610314919061084e565b60405180910390f35b34801561032957600080fd5b506103326106d8565b60405161033f919061084e565b60405180910390f35b610362600480360381019061035d91906108cc565b6106e2565b005b60035481565b6000600554905090565b6000600454905090565b6103866107dc565b600047036103c9576040517f08c379a00000000000000000000000000000000000000000000000000000000081526004016103c090610980565b60405180910390fd5b600454421061040d576040517f08c379a0000000000000000000000000000000000000000000000000000000008152600401610404906109ec565b60405180910390fd5b6004544211801561043a57506201518060055461042a9190610a3b565b6004546104379190610a7d565b42105b1561053d578073ffffffffffffffffffffffffffffffffffffffff16600160009054906101000a900473ffffffffffffffffffffffffffffffffffffffff1673ffffffffffffffffffffffffffffffffffffffff16146104cf576040517f08c379a00000000000000000000000000000000000000000000000000000000081526004016104c690610afd565b60405180910390fd5b600160009054906101000a900473ffffffffffffffffffffffffffffffffffffffff1673ffffffffffffffffffffffffffffffffffffffff166108fc479081150290604051600060405180830381858888f19350505050158015610537573d6000803e3d6000fd5b5061065d565b6201518060055461054e9190610a3b565b60045461055b9190610a7d565b42111561065c578073ffffffffffffffffffffffffffffffffffffffff16600260009054906101000a900473ffffffffffffffffffffffffffffffffffffffff1673ffffffffffffffffffffffffffffffffffffffff16146105f2576040517f08c379a00000000000000000000000000000000000000000000000000000000081526004016105e990610b69565b60405180910390fd5b600260009054906101000a900473ffffffffffffffffffffffffffffffffffffffff1673ffffffffffffffffffffffffffffffffffffffff166108fc479081150290604051600060405180830381858888f1935050505015801561065a573d6000803e3d6000fd5b505b5b61066561082b565b50565b60055481565b60065481565b6000600160009054906101000a900473ffffffffffffffffffffffffffffffffffffffff16905090565b6000600654905090565b6000600260009054906101000a900473ffffffffffffffffffffffffffffffffffffffff16905090565b60045481565b6000600354905090565b600260009054906101000a900473ffffffffffffffffffffffffffffffffffffffff1673ffffffffffffffffffffffffffffffffffffffff168173ffffffffffffffffffffffffffffffffffffffff1614610772576040517f08c379a000000000000000000000000000000000000000000000000000000000815260040161076990610bd5565b60405180910390fd5b34600660008282546107849190610a7d565b925050819055508073ffffffffffffffffffffffffffffffffffffffff167f543ba50a5eec5e6178218e364b1d0f396157b3c8fa278522c2cb7fd99407d474346040516107d1919061084e565b60405180910390a250565b600260005403610821576040517f08c379a000000000000000000000000000000000000000000000000000000000815260040161081890610c41565b60405180910390fd5b6002600081905550565b6001600081905550565b6000819050919050565b61084881610835565b82525050565b6000602082019050610863600083018461083f565b92915050565b600080fd5b600073ffffffffffffffffffffffffffffffffffffffff82169050919050565b60006108998261086e565b9050919050565b6108a98161088e565b81146108b457600080fd5b50565b6000813590506108c6816108a0565b92915050565b6000602082840312156108e2576108e1610869565b5b60006108f0848285016108b7565b91505092915050565b6109028161088e565b82525050565b600060208201905061091d60008301846108f9565b92915050565b600082825260208201905092915050565b7f436f6e747261637420646f6e277420686176652066756e647300000000000000600082015250565b600061096a601983610923565b915061097582610934565b602082019050919050565b600060208201905081810360008301526109998161095d565b9050919050565b7f54696d65206973206e6f74206f76657220796574000000000000000000000000600082015250565b60006109d6601483610923565b91506109e1826109a0565b602082019050919050565b60006020820190508181036000830152610a05816109c9565b9050919050565b7f4e487b7100000000000000000000000000000000000000000000000000000000600052601160045260246000fd5b6000610a4682610835565b9150610a5183610835565b9250828202610a5f81610835565b91508282048414831517610a7657610a75610a0c565b5b5092915050565b6000610a8882610835565b9150610a9383610835565b9250828201905080821115610aab57610aaa610a0c565b5b92915050565b7f596f7520617265206e6f7420746865206f776e65720000000000000000000000600082015250565b6000610ae7601583610923565b9150610af282610ab1565b602082019050919050565b60006020820190508181036000830152610b1681610ada565b9050919050565b7f596f7520617265206e6f74207468652074616b65720000000000000000000000600082015250565b6000610b53601583610923565b9150610b5e82610b1d565b602082019050919050565b60006020820190508181036000830152610b8281610b46565b9050919050565b7f4f6e6c79207468652074616b65722063616e206465706f7369742066756e6473600082015250565b6000610bbf602083610923565b9150610bca82610b89565b602082019050919050565b60006020820190508181036000830152610bee81610bb2565b9050919050565b7f5265656e7472616e637947756172643a207265656e7472616e742063616c6c00600082015250565b6000610c2b601f83610923565b9150610c3682610bf5565b602082019050919050565b60006020820190508181036000830152610c5a81610c1e565b905091905056fea2646970667358221220c636b55d10c284c3c40aba93d80e44fdd712365a5e099d8dbaffae13b4fa4cbd64736f6c63430008110033",
					"opcodes": "PUSH1 0x80 PUSH1 0x40 MSTORE CALLVALUE DUP1 ISZERO PUSH3 0x11 JUMPI PUSH1 0x0 DUP1 REVERT JUMPDEST POP PUSH1 0x40 MLOAD PUSH3 0xEB5 CODESIZE SUB DUP1 PUSH3 0xEB5 DUP4 CODECOPY DUP2 DUP2 ADD PUSH1 0x40 MSTORE DUP2 ADD SWAP1 PUSH3 0x37 SWAP2 SWAP1 PUSH3 0x186 JUMP JUMPDEST PUSH1 0x1 PUSH1 0x0 DUP2 SWAP1 SSTORE POP DUP5 PUSH1 0x1 PUSH1 0x0 PUSH2 0x100 EXP DUP2 SLOAD DUP2 PUSH20 0xFFFFFFFFFFFFFFFFFFFFFFFFFFFFFFFFFFFFFFFF MUL NOT AND SWAP1 DUP4 PUSH20 0xFFFFFFFFFFFFFFFFFFFFFFFFFFFFFFFFFFFFFFFF AND MUL OR SWAP1 SSTORE POP DUP4 PUSH1 0x2 PUSH1 0x0 PUSH2 0x100 EXP DUP2 SLOAD DUP2 PUSH20 0xFFFFFFFFFFFFFFFFFFFFFFFFFFFFFFFFFFFFFFFF MUL NOT AND SWAP1 DUP4 PUSH20 0xFFFFFFFFFFFFFFFFFFFFFFFFFFFFFFFFFFFFFFFF AND MUL OR SWAP1 SSTORE POP DUP3 PUSH1 0x3 DUP2 SWAP1 SSTORE POP DUP2 PUSH1 0x4 DUP2 SWAP1 SSTORE POP DUP1 PUSH1 0x5 DUP2 SWAP1 SSTORE POP POP POP POP POP POP PUSH3 0x20E JUMP JUMPDEST PUSH1 0x0 DUP1 REVERT JUMPDEST PUSH1 0x0 PUSH20 0xFFFFFFFFFFFFFFFFFFFFFFFFFFFFFFFFFFFFFFFF DUP3 AND SWAP1 POP SWAP2 SWAP1 POP JUMP JUMPDEST PUSH1 0x0 PUSH3 0x113 DUP3 PUSH3 0xE6 JUMP JUMPDEST SWAP1 POP SWAP2 SWAP1 POP JUMP JUMPDEST PUSH3 0x125 DUP2 PUSH3 0x106 JUMP JUMPDEST DUP2 EQ PUSH3 0x131 JUMPI PUSH1 0x0 DUP1 REVERT JUMPDEST POP JUMP JUMPDEST PUSH1 0x0 DUP2 MLOAD SWAP1 POP PUSH3 0x145 DUP2 PUSH3 0x11A JUMP JUMPDEST SWAP3 SWAP2 POP POP JUMP JUMPDEST PUSH1 0x0 DUP2 SWAP1 POP SWAP2 SWAP1 POP JUMP JUMPDEST PUSH3 0x160 DUP2 PUSH3 0x14B JUMP JUMPDEST DUP2 EQ PUSH3 0x16C JUMPI PUSH1 0x0 DUP1 REVERT JUMPDEST POP JUMP JUMPDEST PUSH1 0x0 DUP2 MLOAD SWAP1 POP PUSH3 0x180 DUP2 PUSH3 0x155 JUMP JUMPDEST SWAP3 SWAP2 POP POP JUMP JUMPDEST PUSH1 0x0 DUP1 PUSH1 0x0 DUP1 PUSH1 0x0 PUSH1 0xA0 DUP7 DUP9 SUB SLT ISZERO PUSH3 0x1A5 JUMPI PUSH3 0x1A4 PUSH3 0xE1 JUMP JUMPDEST JUMPDEST PUSH1 0x0 PUSH3 0x1B5 DUP9 DUP3 DUP10 ADD PUSH3 0x134 JUMP JUMPDEST SWAP6 POP POP PUSH1 0x20 PUSH3 0x1C8 DUP9 DUP3 DUP10 ADD PUSH3 0x134 JUMP JUMPDEST SWAP5 POP POP PUSH1 0x40 PUSH3 0x1DB DUP9 DUP3 DUP10 ADD PUSH3 0x16F JUMP JUMPDEST SWAP4 POP POP PUSH1 0x60 PUSH3 0x1EE DUP9 DUP3 DUP10 ADD PUSH3 0x16F JUMP JUMPDEST SWAP3 POP POP PUSH1 0x80 PUSH3 0x201 DUP9 DUP3 DUP10 ADD PUSH3 0x16F JUMP JUMPDEST SWAP2 POP POP SWAP3 SWAP6 POP SWAP3 SWAP6 SWAP1 SWAP4 POP JUMP JUMPDEST PUSH2 0xC97 DUP1 PUSH3 0x21E PUSH1 0x0 CODECOPY PUSH1 0x0 RETURN INVALID PUSH1 0x80 PUSH1 0x40 MSTORE PUSH1 0x4 CALLDATASIZE LT PUSH2 0xAB JUMPI PUSH1 0x0 CALLDATALOAD PUSH1 0xE0 SHR DUP1 PUSH4 0x94A927FE GT PUSH2 0x64 JUMPI DUP1 PUSH4 0x94A927FE EQ PUSH2 0x271 JUMPI DUP1 PUSH4 0xA2093D81 EQ PUSH2 0x29C JUMPI DUP1 PUSH4 0xAEE8FF45 EQ PUSH2 0x2C7 JUMPI DUP1 PUSH4 0xC24A0F8B EQ PUSH2 0x2F2 JUMPI DUP1 PUSH4 0xDB292621 EQ PUSH2 0x31D JUMPI DUP1 PUSH4 0xF340FA01 EQ PUSH2 0x348 JUMPI PUSH2 0x117 JUMP JUMPDEST DUP1 PUSH4 0x220E5AB3 EQ PUSH2 0x17E JUMPI DUP1 PUSH4 0x31658E32 EQ PUSH2 0x1A9 JUMPI DUP1 PUSH4 0x36359265 EQ PUSH2 0x1D4 JUMPI DUP1 PUSH4 0x51CFF8D9 EQ PUSH2 0x1FF JUMPI DUP1 PUSH4 0x6D5E7A15 EQ PUSH2 0x21B JUMPI DUP1 PUSH4 0x83ABB1D5 EQ PUSH2 0x246 JUMPI PUSH2 0x117 JUMP JUMPDEST CALLDATASIZE PUSH2 0x117 JUMPI CALLER PUSH20 0xFFFFFFFFFFFFFFFFFFFFFFFFFFFFFFFFFFFFFFFF AND ADDRESS PUSH20 0xFFFFFFFFFFFFFFFFFFFFFFFFFFFFFFFFFFFFFFFF AND PUSH32 0x5548C837AB068CF56A2C2479DF0882A4922FD203EDB7517321831D95078C5F62 CALLVALUE PUSH1 0x40 MLOAD PUSH2 0x10D SWAP2 SWAP1 PUSH2 0x84E JUMP JUMPDEST PUSH1 0x40 MLOAD DUP1 SWAP2 SUB SWAP1 LOG3 STOP JUMPDEST CALLER PUSH20 0xFFFFFFFFFFFFFFFFFFFFFFFFFFFFFFFFFFFFFFFF AND ADDRESS PUSH20 0xFFFFFFFFFFFFFFFFFFFFFFFFFFFFFFFFFFFFFFFF AND PUSH32 0x5548C837AB068CF56A2C2479DF0882A4922FD203EDB7517321831D95078C5F62 CALLVALUE PUSH1 0x40 MLOAD PUSH2 0x174 SWAP2 SWAP1 PUSH2 0x84E JUMP JUMPDEST PUSH1 0x40 MLOAD DUP1 SWAP2 SUB SWAP1 LOG3 STOP JUMPDEST CALLVALUE DUP1 ISZERO PUSH2 0x18A JUMPI PUSH1 0x0 DUP1 REVERT JUMPDEST POP PUSH2 0x193 PUSH2 0x364 JUMP JUMPDEST PUSH1 0x40 MLOAD PUSH2 0x1A0 SWAP2 SWAP1 PUSH2 0x84E JUMP JUMPDEST PUSH1 0x40 MLOAD DUP1 SWAP2 SUB SWAP1 RETURN JUMPDEST CALLVALUE DUP1 ISZERO PUSH2 0x1B5 JUMPI PUSH1 0x0 DUP1 REVERT JUMPDEST POP PUSH2 0x1BE PUSH2 0x36A JUMP JUMPDEST PUSH1 0x40 MLOAD PUSH2 0x1CB SWAP2 SWAP1 PUSH2 0x84E JUMP JUMPDEST PUSH1 0x40 MLOAD DUP1 SWAP2 SUB SWAP1 RETURN JUMPDEST CALLVALUE DUP1 ISZERO PUSH2 0x1E0 JUMPI PUSH1 0x0 DUP1 REVERT JUMPDEST POP PUSH2 0x1E9 PUSH2 0x374 JUMP JUMPDEST PUSH1 0x40 MLOAD PUSH2 0x1F6 SWAP2 SWAP1 PUSH2 0x84E JUMP JUMPDEST PUSH1 0x40 MLOAD DUP1 SWAP2 SUB SWAP1 RETURN JUMPDEST PUSH2 0x219 PUSH1 0x4 DUP1 CALLDATASIZE SUB DUP2 ADD SWAP1 PUSH2 0x214 SWAP2 SWAP1 PUSH2 0x8CC JUMP JUMPDEST PUSH2 0x37E JUMP JUMPDEST STOP JUMPDEST CALLVALUE DUP1 ISZERO PUSH2 0x227 JUMPI PUSH1 0x0 DUP1 REVERT JUMPDEST POP PUSH2 0x230 PUSH2 0x668 JUMP JUMPDEST PUSH1 0x40 MLOAD PUSH2 0x23D SWAP2 SWAP1 PUSH2 0x84E JUMP JUMPDEST PUSH1 0x40 MLOAD DUP1 SWAP2 SUB SWAP1 RETURN JUMPDEST CALLVALUE DUP1 ISZERO PUSH2 0x252 JUMPI PUSH1 0x0 DUP1 REVERT JUMPDEST POP PUSH2 0x25B PUSH2 0x66E JUMP JUMPDEST PUSH1 0x40 MLOAD PUSH2 0x268 SWAP2 SWAP1 PUSH2 0x84E JUMP JUMPDEST PUSH1 0x40 MLOAD DUP1 SWAP2 SUB SWAP1 RETURN JUMPDEST CALLVALUE DUP1 ISZERO PUSH2 0x27D JUMPI PUSH1 0x0 DUP1 REVERT JUMPDEST POP PUSH2 0x286 PUSH2 0x674 JUMP JUMPDEST PUSH1 0x40 MLOAD PUSH2 0x293 SWAP2 SWAP1 PUSH2 0x908 JUMP JUMPDEST PUSH1 0x40 MLOAD DUP1 SWAP2 SUB SWAP1 RETURN JUMPDEST CALLVALUE DUP1 ISZERO PUSH2 0x2A8 JUMPI PUSH1 0x0 DUP1 REVERT JUMPDEST POP PUSH2 0x2B1 PUSH2 0x69E JUMP JUMPDEST PUSH1 0x40 MLOAD PUSH2 0x2BE SWAP2 SWAP1 PUSH2 0x84E JUMP JUMPDEST PUSH1 0x40 MLOAD DUP1 SWAP2 SUB SWAP1 RETURN JUMPDEST CALLVALUE DUP1 ISZERO PUSH2 0x2D3 JUMPI PUSH1 0x0 DUP1 REVERT JUMPDEST POP PUSH2 0x2DC PUSH2 0x6A8 JUMP JUMPDEST PUSH1 0x40 MLOAD PUSH2 0x2E9 SWAP2 SWAP1 PUSH2 0x908 JUMP JUMPDEST PUSH1 0x40 MLOAD DUP1 SWAP2 SUB SWAP1 RETURN JUMPDEST CALLVALUE DUP1 ISZERO PUSH2 0x2FE JUMPI PUSH1 0x0 DUP1 REVERT JUMPDEST POP PUSH2 0x307 PUSH2 0x6D2 JUMP JUMPDEST PUSH1 0x40 MLOAD PUSH2 0x314 SWAP2 SWAP1 PUSH2 0x84E JUMP JUMPDEST PUSH1 0x40 MLOAD DUP1 SWAP2 SUB SWAP1 RETURN JUMPDEST CALLVALUE DUP1 ISZERO PUSH2 0x329 JUMPI PUSH1 0x0 DUP1 REVERT JUMPDEST POP PUSH2 0x332 PUSH2 0x6D8 JUMP JUMPDEST PUSH1 0x40 MLOAD PUSH2 0x33F SWAP2 SWAP1 PUSH2 0x84E JUMP JUMPDEST PUSH1 0x40 MLOAD DUP1 SWAP2 SUB SWAP1 RETURN JUMPDEST PUSH2 0x362 PUSH1 0x4 DUP1 CALLDATASIZE SUB DUP2 ADD SWAP1 PUSH2 0x35D SWAP2 SWAP1 PUSH2 0x8CC JUMP JUMPDEST PUSH2 0x6E2 JUMP JUMPDEST STOP JUMPDEST PUSH1 0x3 SLOAD DUP2 JUMP JUMPDEST PUSH1 0x0 PUSH1 0x5 SLOAD SWAP1 POP SWAP1 JUMP JUMPDEST PUSH1 0x0 PUSH1 0x4 SLOAD SWAP1 POP SWAP1 JUMP JUMPDEST PUSH2 0x386 PUSH2 0x7DC JUMP JUMPDEST PUSH1 0x0 SELFBALANCE SUB PUSH2 0x3C9 JUMPI PUSH1 0x40 MLOAD PUSH32 0x8C379A000000000000000000000000000000000000000000000000000000000 DUP2 MSTORE PUSH1 0x4 ADD PUSH2 0x3C0 SWAP1 PUSH2 0x980 JUMP JUMPDEST PUSH1 0x40 MLOAD DUP1 SWAP2 SUB SWAP1 REVERT JUMPDEST PUSH1 0x4 SLOAD TIMESTAMP LT PUSH2 0x40D JUMPI PUSH1 0x40 MLOAD PUSH32 0x8C379A000000000000000000000000000000000000000000000000000000000 DUP2 MSTORE PUSH1 0x4 ADD PUSH2 0x404 SWAP1 PUSH2 0x9EC JUMP JUMPDEST PUSH1 0x40 MLOAD DUP1 SWAP2 SUB SWAP1 REVERT JUMPDEST PUSH1 0x4 SLOAD TIMESTAMP GT DUP1 ISZERO PUSH2 0x43A JUMPI POP PUSH3 0x15180 PUSH1 0x5 SLOAD PUSH2 0x42A SWAP2 SWAP1 PUSH2 0xA3B JUMP JUMPDEST PUSH1 0x4 SLOAD PUSH2 0x437 SWAP2 SWAP1 PUSH2 0xA7D JUMP JUMPDEST TIMESTAMP LT JUMPDEST ISZERO PUSH2 0x53D JUMPI DUP1 PUSH20 0xFFFFFFFFFFFFFFFFFFFFFFFFFFFFFFFFFFFFFFFF AND PUSH1 0x1 PUSH1 0x0 SWAP1 SLOAD SWAP1 PUSH2 0x100 EXP SWAP1 DIV PUSH20 0xFFFFFFFFFFFFFFFFFFFFFFFFFFFFFFFFFFFFFFFF AND PUSH20 0xFFFFFFFFFFFFFFFFFFFFFFFFFFFFFFFFFFFFFFFF AND EQ PUSH2 0x4CF JUMPI PUSH1 0x40 MLOAD PUSH32 0x8C379A000000000000000000000000000000000000000000000000000000000 DUP2 MSTORE PUSH1 0x4 ADD PUSH2 0x4C6 SWAP1 PUSH2 0xAFD JUMP JUMPDEST PUSH1 0x40 MLOAD DUP1 SWAP2 SUB SWAP1 REVERT JUMPDEST PUSH1 0x1 PUSH1 0x0 SWAP1 SLOAD SWAP1 PUSH2 0x100 EXP SWAP1 DIV PUSH20 0xFFFFFFFFFFFFFFFFFFFFFFFFFFFFFFFFFFFFFFFF AND PUSH20 0xFFFFFFFFFFFFFFFFFFFFFFFFFFFFFFFFFFFFFFFF AND PUSH2 0x8FC SELFBALANCE SWAP1 DUP2 ISZERO MUL SWAP1 PUSH1 0x40 MLOAD PUSH1 0x0 PUSH1 0x40 MLOAD DUP1 DUP4 SUB DUP2 DUP6 DUP9 DUP9 CALL SWAP4 POP POP POP POP ISZERO DUP1 ISZERO PUSH2 0x537 JUMPI RETURNDATASIZE PUSH1 0x0 DUP1 RETURNDATACOPY RETURNDATASIZE PUSH1 0x0 REVERT JUMPDEST POP PUSH2 0x65D JUMP JUMPDEST PUSH3 0x15180 PUSH1 0x5 SLOAD PUSH2 0x54E SWAP2 SWAP1 PUSH2 0xA3B JUMP JUMPDEST PUSH1 0x4 SLOAD PUSH2 0x55B SWAP2 SWAP1 PUSH2 0xA7D JUMP JUMPDEST TIMESTAMP GT ISZERO PUSH2 0x65C JUMPI DUP1 PUSH20 0xFFFFFFFFFFFFFFFFFFFFFFFFFFFFFFFFFFFFFFFF AND PUSH1 0x2 PUSH1 0x0 SWAP1 SLOAD SWAP1 PUSH2 0x100 EXP SWAP1 DIV PUSH20 0xFFFFFFFFFFFFFFFFFFFFFFFFFFFFFFFFFFFFFFFF AND PUSH20 0xFFFFFFFFFFFFFFFFFFFFFFFFFFFFFFFFFFFFFFFF AND EQ PUSH2 0x5F2 JUMPI PUSH1 0x40 MLOAD PUSH32 0x8C379A000000000000000000000000000000000000000000000000000000000 DUP2 MSTORE PUSH1 0x4 ADD PUSH2 0x5E9 SWAP1 PUSH2 0xB69 JUMP JUMPDEST PUSH1 0x40 MLOAD DUP1 SWAP2 SUB SWAP1 REVERT JUMPDEST PUSH1 0x2 PUSH1 0x0 SWAP1 SLOAD SWAP1 PUSH2 0x100 EXP SWAP1 DIV PUSH20 0xFFFFFFFFFFFFFFFFFFFFFFFFFFFFFFFFFFFFFFFF AND PUSH20 0xFFFFFFFFFFFFFFFFFFFFFFFFFFFFFFFFFFFFFFFF AND PUSH2 0x8FC SELFBALANCE SWAP1 DUP2 ISZERO MUL SWAP1 PUSH1 0x40 MLOAD PUSH1 0x0 PUSH1 0x40 MLOAD DUP1 DUP4 SUB DUP2 DUP6 DUP9 DUP9 CALL SWAP4 POP POP POP POP ISZERO DUP1 ISZERO PUSH2 0x65A JUMPI RETURNDATASIZE PUSH1 0x0 DUP1 RETURNDATACOPY RETURNDATASIZE PUSH1 0x0 REVERT JUMPDEST POP JUMPDEST JUMPDEST PUSH2 0x665 PUSH2 0x82B JUMP JUMPDEST POP JUMP JUMPDEST PUSH1 0x5 SLOAD DUP2 JUMP JUMPDEST PUSH1 0x6 SLOAD DUP2 JUMP JUMPDEST PUSH1 0x0 PUSH1 0x1 PUSH1 0x0 SWAP1 SLOAD SWAP1 PUSH2 0x100 EXP SWAP1 DIV PUSH20 0xFFFFFFFFFFFFFFFFFFFFFFFFFFFFFFFFFFFFFFFF AND SWAP1 POP SWAP1 JUMP JUMPDEST PUSH1 0x0 PUSH1 0x6 SLOAD SWAP1 POP SWAP1 JUMP JUMPDEST PUSH1 0x0 PUSH1 0x2 PUSH1 0x0 SWAP1 SLOAD SWAP1 PUSH2 0x100 EXP SWAP1 DIV PUSH20 0xFFFFFFFFFFFFFFFFFFFFFFFFFFFFFFFFFFFFFFFF AND SWAP1 POP SWAP1 JUMP JUMPDEST PUSH1 0x4 SLOAD DUP2 JUMP JUMPDEST PUSH1 0x0 PUSH1 0x3 SLOAD SWAP1 POP SWAP1 JUMP JUMPDEST PUSH1 0x2 PUSH1 0x0 SWAP1 SLOAD SWAP1 PUSH2 0x100 EXP SWAP1 DIV PUSH20 0xFFFFFFFFFFFFFFFFFFFFFFFFFFFFFFFFFFFFFFFF AND PUSH20 0xFFFFFFFFFFFFFFFFFFFFFFFFFFFFFFFFFFFFFFFF AND DUP2 PUSH20 0xFFFFFFFFFFFFFFFFFFFFFFFFFFFFFFFFFFFFFFFF AND EQ PUSH2 0x772 JUMPI PUSH1 0x40 MLOAD PUSH32 0x8C379A000000000000000000000000000000000000000000000000000000000 DUP2 MSTORE PUSH1 0x4 ADD PUSH2 0x769 SWAP1 PUSH2 0xBD5 JUMP JUMPDEST PUSH1 0x40 MLOAD DUP1 SWAP2 SUB SWAP1 REVERT JUMPDEST CALLVALUE PUSH1 0x6 PUSH1 0x0 DUP3 DUP3 SLOAD PUSH2 0x784 SWAP2 SWAP1 PUSH2 0xA7D JUMP JUMPDEST SWAP3 POP POP DUP2 SWAP1 SSTORE POP DUP1 PUSH20 0xFFFFFFFFFFFFFFFFFFFFFFFFFFFFFFFFFFFFFFFF AND PUSH32 0x543BA50A5EEC5E6178218E364B1D0F396157B3C8FA278522C2CB7FD99407D474 CALLVALUE PUSH1 0x40 MLOAD PUSH2 0x7D1 SWAP2 SWAP1 PUSH2 0x84E JUMP JUMPDEST PUSH1 0x40 MLOAD DUP1 SWAP2 SUB SWAP1 LOG2 POP JUMP JUMPDEST PUSH1 0x2 PUSH1 0x0 SLOAD SUB PUSH2 0x821 JUMPI PUSH1 0x40 MLOAD PUSH32 0x8C379A000000000000000000000000000000000000000000000000000000000 DUP2 MSTORE PUSH1 0x4 ADD PUSH2 0x818 SWAP1 PUSH2 0xC41 JUMP JUMPDEST PUSH1 0x40 MLOAD DUP1 SWAP2 SUB SWAP1 REVERT JUMPDEST PUSH1 0x2 PUSH1 0x0 DUP2 SWAP1 SSTORE POP JUMP JUMPDEST PUSH1 0x1 PUSH1 0x0 DUP2 SWAP1 SSTORE POP JUMP JUMPDEST PUSH1 0x0 DUP2 SWAP1 POP SWAP2 SWAP1 POP JUMP JUMPDEST PUSH2 0x848 DUP2 PUSH2 0x835 JUMP JUMPDEST DUP3 MSTORE POP POP JUMP JUMPDEST PUSH1 0x0 PUSH1 0x20 DUP3 ADD SWAP1 POP PUSH2 0x863 PUSH1 0x0 DUP4 ADD DUP5 PUSH2 0x83F JUMP JUMPDEST SWAP3 SWAP2 POP POP JUMP JUMPDEST PUSH1 0x0 DUP1 REVERT JUMPDEST PUSH1 0x0 PUSH20 0xFFFFFFFFFFFFFFFFFFFFFFFFFFFFFFFFFFFFFFFF DUP3 AND SWAP1 POP SWAP2 SWAP1 POP JUMP JUMPDEST PUSH1 0x0 PUSH2 0x899 DUP3 PUSH2 0x86E JUMP JUMPDEST SWAP1 POP SWAP2 SWAP1 POP JUMP JUMPDEST PUSH2 0x8A9 DUP2 PUSH2 0x88E JUMP JUMPDEST DUP2 EQ PUSH2 0x8B4 JUMPI PUSH1 0x0 DUP1 REVERT JUMPDEST POP JUMP JUMPDEST PUSH1 0x0 DUP2 CALLDATALOAD SWAP1 POP PUSH2 0x8C6 DUP2 PUSH2 0x8A0 JUMP JUMPDEST SWAP3 SWAP2 POP POP JUMP JUMPDEST PUSH1 0x0 PUSH1 0x20 DUP3 DUP5 SUB SLT ISZERO PUSH2 0x8E2 JUMPI PUSH2 0x8E1 PUSH2 0x869 JUMP JUMPDEST JUMPDEST PUSH1 0x0 PUSH2 0x8F0 DUP5 DUP3 DUP6 ADD PUSH2 0x8B7 JUMP JUMPDEST SWAP2 POP POP SWAP3 SWAP2 POP POP JUMP JUMPDEST PUSH2 0x902 DUP2 PUSH2 0x88E JUMP JUMPDEST DUP3 MSTORE POP POP JUMP JUMPDEST PUSH1 0x0 PUSH1 0x20 DUP3 ADD SWAP1 POP PUSH2 0x91D PUSH1 0x0 DUP4 ADD DUP5 PUSH2 0x8F9 JUMP JUMPDEST SWAP3 SWAP2 POP POP JUMP JUMPDEST PUSH1 0x0 DUP3 DUP3 MSTORE PUSH1 0x20 DUP3 ADD SWAP1 POP SWAP3 SWAP2 POP POP JUMP JUMPDEST PUSH32 0x436F6E747261637420646F6E277420686176652066756E647300000000000000 PUSH1 0x0 DUP3 ADD MSTORE POP JUMP JUMPDEST PUSH1 0x0 PUSH2 0x96A PUSH1 0x19 DUP4 PUSH2 0x923 JUMP JUMPDEST SWAP2 POP PUSH2 0x975 DUP3 PUSH2 0x934 JUMP JUMPDEST PUSH1 0x20 DUP3 ADD SWAP1 POP SWAP2 SWAP1 POP JUMP JUMPDEST PUSH1 0x0 PUSH1 0x20 DUP3 ADD SWAP1 POP DUP2 DUP2 SUB PUSH1 0x0 DUP4 ADD MSTORE PUSH2 0x999 DUP2 PUSH2 0x95D JUMP JUMPDEST SWAP1 POP SWAP2 SWAP1 POP JUMP JUMPDEST PUSH32 0x54696D65206973206E6F74206F76657220796574000000000000000000000000 PUSH1 0x0 DUP3 ADD MSTORE POP JUMP JUMPDEST PUSH1 0x0 PUSH2 0x9D6 PUSH1 0x14 DUP4 PUSH2 0x923 JUMP JUMPDEST SWAP2 POP PUSH2 0x9E1 DUP3 PUSH2 0x9A0 JUMP JUMPDEST PUSH1 0x20 DUP3 ADD SWAP1 POP SWAP2 SWAP1 POP JUMP JUMPDEST PUSH1 0x0 PUSH1 0x20 DUP3 ADD SWAP1 POP DUP2 DUP2 SUB PUSH1 0x0 DUP4 ADD MSTORE PUSH2 0xA05 DUP2 PUSH2 0x9C9 JUMP JUMPDEST SWAP1 POP SWAP2 SWAP1 POP JUMP JUMPDEST PUSH32 0x4E487B7100000000000000000000000000000000000000000000000000000000 PUSH1 0x0 MSTORE PUSH1 0x11 PUSH1 0x4 MSTORE PUSH1 0x24 PUSH1 0x0 REVERT JUMPDEST PUSH1 0x0 PUSH2 0xA46 DUP3 PUSH2 0x835 JUMP JUMPDEST SWAP2 POP PUSH2 0xA51 DUP4 PUSH2 0x835 JUMP JUMPDEST SWAP3 POP DUP3 DUP3 MUL PUSH2 0xA5F DUP2 PUSH2 0x835 JUMP JUMPDEST SWAP2 POP DUP3 DUP3 DIV DUP5 EQ DUP4 ISZERO OR PUSH2 0xA76 JUMPI PUSH2 0xA75 PUSH2 0xA0C JUMP JUMPDEST JUMPDEST POP SWAP3 SWAP2 POP POP JUMP JUMPDEST PUSH1 0x0 PUSH2 0xA88 DUP3 PUSH2 0x835 JUMP JUMPDEST SWAP2 POP PUSH2 0xA93 DUP4 PUSH2 0x835 JUMP JUMPDEST SWAP3 POP DUP3 DUP3 ADD SWAP1 POP DUP1 DUP3 GT ISZERO PUSH2 0xAAB JUMPI PUSH2 0xAAA PUSH2 0xA0C JUMP JUMPDEST JUMPDEST SWAP3 SWAP2 POP POP JUMP JUMPDEST PUSH32 0x596F7520617265206E6F7420746865206F776E65720000000000000000000000 PUSH1 0x0 DUP3 ADD MSTORE POP JUMP JUMPDEST PUSH1 0x0 PUSH2 0xAE7 PUSH1 0x15 DUP4 PUSH2 0x923 JUMP JUMPDEST SWAP2 POP PUSH2 0xAF2 DUP3 PUSH2 0xAB1 JUMP JUMPDEST PUSH1 0x20 DUP3 ADD SWAP1 POP SWAP2 SWAP1 POP JUMP JUMPDEST PUSH1 0x0 PUSH1 0x20 DUP3 ADD SWAP1 POP DUP2 DUP2 SUB PUSH1 0x0 DUP4 ADD MSTORE PUSH2 0xB16 DUP2 PUSH2 0xADA JUMP JUMPDEST SWAP1 POP SWAP2 SWAP1 POP JUMP JUMPDEST PUSH32 0x596F7520617265206E6F74207468652074616B65720000000000000000000000 PUSH1 0x0 DUP3 ADD MSTORE POP JUMP JUMPDEST PUSH1 0x0 PUSH2 0xB53 PUSH1 0x15 DUP4 PUSH2 0x923 JUMP JUMPDEST SWAP2 POP PUSH2 0xB5E DUP3 PUSH2 0xB1D JUMP JUMPDEST PUSH1 0x20 DUP3 ADD SWAP1 POP SWAP2 SWAP1 POP JUMP JUMPDEST PUSH1 0x0 PUSH1 0x20 DUP3 ADD SWAP1 POP DUP2 DUP2 SUB PUSH1 0x0 DUP4 ADD MSTORE PUSH2 0xB82 DUP2 PUSH2 0xB46 JUMP JUMPDEST SWAP1 POP SWAP2 SWAP1 POP JUMP JUMPDEST PUSH32 0x4F6E6C79207468652074616B65722063616E206465706F7369742066756E6473 PUSH1 0x0 DUP3 ADD MSTORE POP JUMP JUMPDEST PUSH1 0x0 PUSH2 0xBBF PUSH1 0x20 DUP4 PUSH2 0x923 JUMP JUMPDEST SWAP2 POP PUSH2 0xBCA DUP3 PUSH2 0xB89 JUMP JUMPDEST PUSH1 0x20 DUP3 ADD SWAP1 POP SWAP2 SWAP1 POP JUMP JUMPDEST PUSH1 0x0 PUSH1 0x20 DUP3 ADD SWAP1 POP DUP2 DUP2 SUB PUSH1 0x0 DUP4 ADD MSTORE PUSH2 0xBEE DUP2 PUSH2 0xBB2 JUMP JUMPDEST SWAP1 POP SWAP2 SWAP1 POP JUMP JUMPDEST PUSH32 0x5265656E7472616E637947756172643A207265656E7472616E742063616C6C00 PUSH1 0x0 DUP3 ADD MSTORE POP JUMP JUMPDEST PUSH1 0x0 PUSH2 0xC2B PUSH1 0x1F DUP4 PUSH2 0x923 JUMP JUMPDEST SWAP2 POP PUSH2 0xC36 DUP3 PUSH2 0xBF5 JUMP JUMPDEST PUSH1 0x20 DUP3 ADD SWAP1 POP SWAP2 SWAP1 POP JUMP JUMPDEST PUSH1 0x0 PUSH1 0x20 DUP3 ADD SWAP1 POP DUP2 DUP2 SUB PUSH1 0x0 DUP4 ADD MSTORE PUSH2 0xC5A DUP2 PUSH2 0xC1E JUMP JUMPDEST SWAP1 POP SWAP2 SWAP1 POP JUMP INVALID LOG2 PUSH5 0x6970667358 0x22 SLT KECCAK256 0xC6 CALLDATASIZE 0xB5 0x5D LT 0xC2 DUP5 0xC3 0xC4 EXP 0xBA SWAP4 0xD8 0xE DIFFICULTY REVERT 0xD7 SLT CALLDATASIZE GAS 0x5E MULMOD SWAP14 DUP14 0xBA SELFDESTRUCT 0xAE SGT 0xB4 STATICCALL 0x4C 0xBD PUSH5 0x736F6C6343 STOP ADDMOD GT STOP CALLER "
				},
				"gasEstimates": {
					"creation": {
						"codeDepositCost": "644600",
						"executionCost": "infinite",
						"totalCost": "infinite"
					},
					"external": {
						"": "2174",
						"daysForWithdrawal()": "2518",
						"deposit(address)": "infinite",
						"endDate()": "2495",
						"returnDaysForWithdrawal()": "2460",
						"returnEndDate()": "2482",
						"returnOwner()": "2522",
						"returnSecurityDeposit()": "2525",
						"returnTaker()": "2566",
						"returnTakerBalance()": "2459",
						"securityDeposit()": "2430",
						"takerBalance()": "2540",
						"withdraw(address)": "infinite"
					}
				},
				"methodIdentifiers": {
					"daysForWithdrawal()": "6d5e7a15",
					"deposit(address)": "f340fa01",
					"endDate()": "c24a0f8b",
					"returnDaysForWithdrawal()": "31658e32",
					"returnEndDate()": "36359265",
					"returnOwner()": "94a927fe",
					"returnSecurityDeposit()": "db292621",
					"returnTaker()": "aee8ff45",
					"returnTakerBalance()": "a2093d81",
					"securityDeposit()": "220e5ab3",
					"takerBalance()": "83abb1d5",
					"withdraw(address)": "51cff8d9"
				}
			},
			"storageLayout": {
				"storage": [
					{
						"astId": 10,
						"contract": "contracts/MoneyLock.sol:MoneyLock",
						"label": "_status",
						"offset": 0,
						"slot": "0",
						"type": "t_uint256"
					},
					{
						"astId": 60,
						"contract": "contracts/MoneyLock.sol:MoneyLock",
						"label": "owner",
						"offset": 0,
						"slot": "1",
						"type": "t_address_payable"
					},
					{
						"astId": 62,
						"contract": "contracts/MoneyLock.sol:MoneyLock",
						"label": "taker",
						"offset": 0,
						"slot": "2",
						"type": "t_address_payable"
					},
					{
						"astId": 64,
						"contract": "contracts/MoneyLock.sol:MoneyLock",
						"label": "securityDeposit",
						"offset": 0,
						"slot": "3",
						"type": "t_uint256"
					},
					{
						"astId": 66,
						"contract": "contracts/MoneyLock.sol:MoneyLock",
						"label": "endDate",
						"offset": 0,
						"slot": "4",
						"type": "t_uint256"
					},
					{
						"astId": 68,
						"contract": "contracts/MoneyLock.sol:MoneyLock",
						"label": "daysForWithdrawal",
						"offset": 0,
						"slot": "5",
						"type": "t_uint256"
					},
					{
						"astId": 70,
						"contract": "contracts/MoneyLock.sol:MoneyLock",
						"label": "takerBalance",
						"offset": 0,
						"slot": "6",
						"type": "t_uint256"
					}
				],
				"types": {
					"t_address_payable": {
						"encoding": "inplace",
						"label": "address payable",
						"numberOfBytes": "20"
					},
					"t_uint256": {
						"encoding": "inplace",
						"label": "uint256",
						"numberOfBytes": "32"
					}
				}
			},
			"userdoc": {
				"kind": "user",
				"methods": {},
				"version": 1
			}
		}
	}
}